{
	"ICO AFFILIATE/ico.sol": {
		"StknICO": {
			"abi": [
				{
					"inputs": [
						{
							"internalType": "address payable",
							"name": "_icoWallet",
							"type": "address"
						},
						{
							"internalType": "address",
							"name": "_token",
							"type": "address"
						}
					],
					"stateMutability": "nonpayable",
					"type": "constructor"
				},
				{
					"anonymous": false,
					"inputs": [
						{
							"indexed": true,
							"internalType": "address",
							"name": "from",
							"type": "address"
						},
						{
							"indexed": true,
							"internalType": "address",
							"name": "to",
							"type": "address"
						},
						{
							"indexed": false,
							"internalType": "uint256",
							"name": "value",
							"type": "uint256"
						},
						{
							"indexed": false,
							"internalType": "uint256",
							"name": "tokens",
							"type": "uint256"
						}
					],
					"name": "Invest",
					"type": "event"
				},
				{
					"anonymous": false,
					"inputs": [
						{
							"indexed": false,
							"internalType": "address",
							"name": "to",
							"type": "address"
						},
						{
							"indexed": false,
							"internalType": "uint256",
							"name": "amount",
							"type": "uint256"
						},
						{
							"indexed": false,
							"internalType": "uint256",
							"name": "time",
							"type": "uint256"
						}
					],
					"name": "TokenBurn",
					"type": "event"
				},
				{
					"stateMutability": "payable",
					"type": "fallback"
				},
				{
					"inputs": [],
					"name": "ICOState",
					"outputs": [
						{
							"internalType": "enum StknICO.State",
							"name": "",
							"type": "uint8"
						}
					],
					"stateMutability": "view",
					"type": "function"
				},
				{
					"inputs": [],
					"name": "ICOWallet",
					"outputs": [
						{
							"internalType": "address payable",
							"name": "",
							"type": "address"
						}
					],
					"stateMutability": "view",
					"type": "function"
				},
				{
					"inputs": [],
					"name": "admin",
					"outputs": [
						{
							"internalType": "address",
							"name": "",
							"type": "address"
						}
					],
					"stateMutability": "view",
					"type": "function"
				},
				{
					"inputs": [],
					"name": "burn",
					"outputs": [
						{
							"internalType": "bool",
							"name": "",
							"type": "bool"
						}
					],
					"stateMutability": "nonpayable",
					"type": "function"
				},
				{
					"inputs": [
						{
							"internalType": "address",
							"name": "_newAdmin",
							"type": "address"
						}
					],
					"name": "changeAdmin",
					"outputs": [],
					"stateMutability": "nonpayable",
					"type": "function"
				},
				{
					"inputs": [
						{
							"internalType": "address payable",
							"name": "_newICOWallet",
							"type": "address"
						}
					],
					"name": "changeICOWallet",
					"outputs": [],
					"stateMutability": "nonpayable",
					"type": "function"
				},
				{
					"inputs": [],
					"name": "endIco",
					"outputs": [],
					"stateMutability": "nonpayable",
					"type": "function"
				},
				{
					"inputs": [],
					"name": "getICOState",
					"outputs": [
						{
							"internalType": "string",
							"name": "",
							"type": "string"
						}
					],
					"stateMutability": "view",
					"type": "function"
				},
				{
					"inputs": [],
					"name": "getICOTokenBalance",
					"outputs": [
						{
							"internalType": "uint256",
							"name": "",
							"type": "uint256"
						}
					],
					"stateMutability": "view",
					"type": "function"
				},
				{
					"inputs": [],
					"name": "haltICO",
					"outputs": [],
					"stateMutability": "nonpayable",
					"type": "function"
				},
				{
					"inputs": [],
					"name": "hardCap",
					"outputs": [
						{
							"internalType": "uint256",
							"name": "",
							"type": "uint256"
						}
					],
					"stateMutability": "view",
					"type": "function"
				},
				{
					"inputs": [],
					"name": "icoEndTime",
					"outputs": [
						{
							"internalType": "uint256",
							"name": "",
							"type": "uint256"
						}
					],
					"stateMutability": "view",
					"type": "function"
				},
				{
					"inputs": [],
					"name": "icoStartTime",
					"outputs": [
						{
							"internalType": "uint256",
							"name": "",
							"type": "uint256"
						}
					],
					"stateMutability": "view",
					"type": "function"
				},
				{
					"inputs": [],
					"name": "invest",
					"outputs": [
						{
							"internalType": "bool",
							"name": "",
							"type": "bool"
						}
					],
					"stateMutability": "payable",
					"type": "function"
				},
				{
					"inputs": [
						{
							"internalType": "address",
							"name": "",
							"type": "address"
						}
					],
					"name": "investedAmountOf",
					"outputs": [
						{
							"internalType": "uint256",
							"name": "",
							"type": "uint256"
						}
					],
					"stateMutability": "view",
					"type": "function"
				},
				{
					"inputs": [
						{
							"internalType": "address",
							"name": "_investor",
							"type": "address"
						}
					],
					"name": "investorBalanceOf",
					"outputs": [
						{
							"internalType": "uint256",
							"name": "",
							"type": "uint256"
						}
					],
					"stateMutability": "view",
					"type": "function"
				},
				{
					"inputs": [],
					"name": "maxInvestment",
					"outputs": [
						{
							"internalType": "uint256",
							"name": "",
							"type": "uint256"
						}
					],
					"stateMutability": "view",
					"type": "function"
				},
				{
					"inputs": [],
					"name": "minInvestment",
					"outputs": [
						{
							"internalType": "uint256",
							"name": "",
							"type": "uint256"
						}
					],
					"stateMutability": "view",
					"type": "function"
				},
				{
					"inputs": [],
					"name": "raisedAmount",
					"outputs": [
						{
							"internalType": "uint256",
							"name": "",
							"type": "uint256"
						}
					],
					"stateMutability": "view",
					"type": "function"
				},
				{
					"inputs": [],
					"name": "resumeICO",
					"outputs": [],
					"stateMutability": "nonpayable",
					"type": "function"
				},
				{
					"inputs": [],
					"name": "startICO",
					"outputs": [],
					"stateMutability": "nonpayable",
					"type": "function"
				},
				{
					"inputs": [],
					"name": "token",
					"outputs": [
						{
							"internalType": "contract IERC20",
							"name": "",
							"type": "address"
						}
					],
					"stateMutability": "view",
					"type": "function"
				},
				{
					"inputs": [],
					"name": "tokenPrice",
					"outputs": [
						{
							"internalType": "uint256",
							"name": "",
							"type": "uint256"
						}
					],
					"stateMutability": "view",
					"type": "function"
				},
				{
					"stateMutability": "payable",
					"type": "receive"
				}
			],
			"devdoc": {
				"kind": "dev",
				"methods": {},
				"version": 1
			},
			"evm": {
				"assembly": "    /* \"ICO AFFILIATE/ico.sol\":115:4953  contract StknICO {... */\n  mstore(0x40, 0x80)\n    /* \"ICO AFFILIATE/ico.sol\":313:325  0.0001 ether */\n  0x5af3107a4000\n    /* \"ICO AFFILIATE/ico.sol\":288:325  uint public tokenPrice = 0.0001 ether */\n  0x03\n  sstore\n    /* \"ICO AFFILIATE/ico.sol\":353:362  500 ether */\n  0x1b1ae4d6e2ef500000\n    /* \"ICO AFFILIATE/ico.sol\":331:362  uint public hardCap = 500 ether */\n  0x04\n  sstore\n    /* \"ICO AFFILIATE/ico.sol\":426:437  0.001 ether */\n  0x038d7ea4c68000\n    /* \"ICO AFFILIATE/ico.sol\":398:437  uint public minInvestment = 0.001 ether */\n  0x06\n  sstore\n    /* \"ICO AFFILIATE/ico.sol\":471:478  3 ether */\n  0x29a2241af62c0000\n    /* \"ICO AFFILIATE/ico.sol\":443:478  uint public maxInvestment = 3 ether */\n  0x07\n  sstore\n    /* \"ICO AFFILIATE/ico.sol\":962:1117  constructor(address payable _icoWallet, address _token) {... */\n  callvalue\n  dup1\n  iszero\n  tag_1\n  jumpi\n  0x00\n  dup1\n  revert\ntag_1:\n  pop\n  mload(0x40)\n  sub(codesize, bytecodeSize)\n  dup1\n  bytecodeSize\n  dup4\n  codecopy\n  dup2\n  dup2\n  add\n  0x40\n  mstore\n  dup2\n  add\n  swap1\n  tag_2\n  swap2\n  swap1\n  tag_3\n  jump\t// in\ntag_2:\n    /* \"ICO AFFILIATE/ico.sol\":1036:1046  msg.sender */\n  caller\n    /* \"ICO AFFILIATE/ico.sol\":1028:1033  admin */\n  0x00\n  dup1\n    /* \"ICO AFFILIATE/ico.sol\":1028:1046  admin = msg.sender */\n  0x0100\n  exp\n  dup2\n  sload\n  dup2\n  0xffffffffffffffffffffffffffffffffffffffff\n  mul\n  not\n  and\n  swap1\n  dup4\n  0xffffffffffffffffffffffffffffffffffffffff\n  and\n  mul\n  or\n  swap1\n  sstore\n  pop\n    /* \"ICO AFFILIATE/ico.sol\":1068:1078  _icoWallet */\n  dup2\n    /* \"ICO AFFILIATE/ico.sol\":1056:1065  ICOWallet */\n  0x01\n  0x00\n    /* \"ICO AFFILIATE/ico.sol\":1056:1078  ICOWallet = _icoWallet */\n  0x0100\n  exp\n  dup2\n  sload\n  dup2\n  0xffffffffffffffffffffffffffffffffffffffff\n  mul\n  not\n  and\n  swap1\n  dup4\n  0xffffffffffffffffffffffffffffffffffffffff\n  and\n  mul\n  or\n  swap1\n  sstore\n  pop\n    /* \"ICO AFFILIATE/ico.sol\":1103:1109  _token */\n  dup1\n    /* \"ICO AFFILIATE/ico.sol\":1088:1093  token */\n  0x02\n  0x00\n    /* \"ICO AFFILIATE/ico.sol\":1088:1110  token = IERC20(_token) */\n  0x0100\n  exp\n  dup2\n  sload\n  dup2\n  0xffffffffffffffffffffffffffffffffffffffff\n  mul\n  not\n  and\n  swap1\n  dup4\n  0xffffffffffffffffffffffffffffffffffffffff\n  and\n  mul\n  or\n  swap1\n  sstore\n  pop\n    /* \"ICO AFFILIATE/ico.sol\":962:1117  constructor(address payable _icoWallet, address _token) {... */\n  pop\n  pop\n    /* \"ICO AFFILIATE/ico.sol\":115:4953  contract StknICO {... */\n  jump(tag_6)\n    /* \"#utility.yul\":88:205   */\ntag_8:\n    /* \"#utility.yul\":197:198   */\n  0x00\n    /* \"#utility.yul\":194:195   */\n  dup1\n    /* \"#utility.yul\":187:199   */\n  revert\n    /* \"#utility.yul\":334:460   */\ntag_10:\n    /* \"#utility.yul\":371:378   */\n  0x00\n    /* \"#utility.yul\":411:453   */\n  0xffffffffffffffffffffffffffffffffffffffff\n    /* \"#utility.yul\":404:409   */\n  dup3\n    /* \"#utility.yul\":400:454   */\n  and\n    /* \"#utility.yul\":389:454   */\n  swap1\n  pop\n    /* \"#utility.yul\":334:460   */\n  swap2\n  swap1\n  pop\n  jump\t// out\n    /* \"#utility.yul\":466:570   */\ntag_11:\n    /* \"#utility.yul\":511:518   */\n  0x00\n    /* \"#utility.yul\":540:564   */\n  tag_23\n    /* \"#utility.yul\":558:563   */\n  dup3\n    /* \"#utility.yul\":540:564   */\n  tag_10\n  jump\t// in\ntag_23:\n    /* \"#utility.yul\":529:564   */\n  swap1\n  pop\n    /* \"#utility.yul\":466:570   */\n  swap2\n  swap1\n  pop\n  jump\t// out\n    /* \"#utility.yul\":576:714   */\ntag_12:\n    /* \"#utility.yul\":657:689   */\n  tag_25\n    /* \"#utility.yul\":683:688   */\n  dup2\n    /* \"#utility.yul\":657:689   */\n  tag_11\n  jump\t// in\ntag_25:\n    /* \"#utility.yul\":650:655   */\n  dup2\n    /* \"#utility.yul\":647:690   */\n  eq\n    /* \"#utility.yul\":637:708   */\n  tag_26\n  jumpi\n    /* \"#utility.yul\":704:705   */\n  0x00\n    /* \"#utility.yul\":701:702   */\n  dup1\n    /* \"#utility.yul\":694:706   */\n  revert\n    /* \"#utility.yul\":637:708   */\ntag_26:\n    /* \"#utility.yul\":576:714   */\n  pop\n  jump\t// out\n    /* \"#utility.yul\":720:879   */\ntag_13:\n    /* \"#utility.yul\":785:790   */\n  0x00\n    /* \"#utility.yul\":816:822   */\n  dup2\n    /* \"#utility.yul\":810:823   */\n  mload\n    /* \"#utility.yul\":801:823   */\n  swap1\n  pop\n    /* \"#utility.yul\":832:873   */\n  tag_28\n    /* \"#utility.yul\":867:872   */\n  dup2\n    /* \"#utility.yul\":832:873   */\n  tag_12\n  jump\t// in\ntag_28:\n    /* \"#utility.yul\":720:879   */\n  swap3\n  swap2\n  pop\n  pop\n  jump\t// out\n    /* \"#utility.yul\":885:981   */\ntag_14:\n    /* \"#utility.yul\":922:929   */\n  0x00\n    /* \"#utility.yul\":951:975   */\n  tag_30\n    /* \"#utility.yul\":969:974   */\n  dup3\n    /* \"#utility.yul\":951:975   */\n  tag_10\n  jump\t// in\ntag_30:\n    /* \"#utility.yul\":940:975   */\n  swap1\n  pop\n    /* \"#utility.yul\":885:981   */\n  swap2\n  swap1\n  pop\n  jump\t// out\n    /* \"#utility.yul\":987:1109   */\ntag_15:\n    /* \"#utility.yul\":1060:1084   */\n  tag_32\n    /* \"#utility.yul\":1078:1083   */\n  dup2\n    /* \"#utility.yul\":1060:1084   */\n  tag_14\n  jump\t// in\ntag_32:\n    /* \"#utility.yul\":1053:1058   */\n  dup2\n    /* \"#utility.yul\":1050:1085   */\n  eq\n    /* \"#utility.yul\":1040:1103   */\n  tag_33\n  jumpi\n    /* \"#utility.yul\":1099:1100   */\n  0x00\n    /* \"#utility.yul\":1096:1097   */\n  dup1\n    /* \"#utility.yul\":1089:1101   */\n  revert\n    /* \"#utility.yul\":1040:1103   */\ntag_33:\n    /* \"#utility.yul\":987:1109   */\n  pop\n  jump\t// out\n    /* \"#utility.yul\":1115:1258   */\ntag_16:\n    /* \"#utility.yul\":1172:1177   */\n  0x00\n    /* \"#utility.yul\":1203:1209   */\n  dup2\n    /* \"#utility.yul\":1197:1210   */\n  mload\n    /* \"#utility.yul\":1188:1210   */\n  swap1\n  pop\n    /* \"#utility.yul\":1219:1252   */\n  tag_35\n    /* \"#utility.yul\":1246:1251   */\n  dup2\n    /* \"#utility.yul\":1219:1252   */\n  tag_15\n  jump\t// in\ntag_35:\n    /* \"#utility.yul\":1115:1258   */\n  swap3\n  swap2\n  pop\n  pop\n  jump\t// out\n    /* \"#utility.yul\":1264:1787   */\ntag_3:\n    /* \"#utility.yul\":1351:1357   */\n  0x00\n    /* \"#utility.yul\":1359:1365   */\n  dup1\n    /* \"#utility.yul\":1408:1410   */\n  0x40\n    /* \"#utility.yul\":1396:1405   */\n  dup4\n    /* \"#utility.yul\":1387:1394   */\n  dup6\n    /* \"#utility.yul\":1383:1406   */\n  sub\n    /* \"#utility.yul\":1379:1411   */\n  slt\n    /* \"#utility.yul\":1376:1495   */\n  iszero\n  tag_37\n  jumpi\n    /* \"#utility.yul\":1414:1493   */\n  tag_38\n  tag_8\n  jump\t// in\ntag_38:\n    /* \"#utility.yul\":1376:1495   */\ntag_37:\n    /* \"#utility.yul\":1534:1535   */\n  0x00\n    /* \"#utility.yul\":1559:1631   */\n  tag_39\n    /* \"#utility.yul\":1623:1630   */\n  dup6\n    /* \"#utility.yul\":1614:1620   */\n  dup3\n    /* \"#utility.yul\":1603:1612   */\n  dup7\n    /* \"#utility.yul\":1599:1621   */\n  add\n    /* \"#utility.yul\":1559:1631   */\n  tag_13\n  jump\t// in\ntag_39:\n    /* \"#utility.yul\":1549:1631   */\n  swap3\n  pop\n    /* \"#utility.yul\":1505:1641   */\n  pop\n    /* \"#utility.yul\":1680:1682   */\n  0x20\n    /* \"#utility.yul\":1706:1770   */\n  tag_40\n    /* \"#utility.yul\":1762:1769   */\n  dup6\n    /* \"#utility.yul\":1753:1759   */\n  dup3\n    /* \"#utility.yul\":1742:1751   */\n  dup7\n    /* \"#utility.yul\":1738:1760   */\n  add\n    /* \"#utility.yul\":1706:1770   */\n  tag_16\n  jump\t// in\ntag_40:\n    /* \"#utility.yul\":1696:1770   */\n  swap2\n  pop\n    /* \"#utility.yul\":1651:1780   */\n  pop\n    /* \"#utility.yul\":1264:1787   */\n  swap3\n  pop\n  swap3\n  swap1\n  pop\n  jump\t// out\n    /* \"ICO AFFILIATE/ico.sol\":115:4953  contract StknICO {... */\ntag_6:\n  dataSize(sub_0)\n  dup1\n  dataOffset(sub_0)\n  0x00\n  codecopy\n  0x00\n  return\nstop\n\nsub_0: assembly {\n        /* \"ICO AFFILIATE/ico.sol\":115:4953  contract StknICO {... */\n      mstore(0x40, 0x80)\n      jumpi(tag_1, lt(calldatasize, 0x04))\n      shr(0xe0, calldataload(0x00))\n      dup1\n      0x8ac2c680\n      gt\n      tag_26\n      jumpi\n      dup1\n      0xc59ee1dc\n      gt\n      tag_27\n      jumpi\n      dup1\n      0xc59ee1dc\n      eq\n      tag_20\n      jumpi\n      dup1\n      0xe657807b\n      eq\n      tag_21\n      jumpi\n      dup1\n      0xe8b5e51f\n      eq\n      tag_22\n      jumpi\n      dup1\n      0xf851a440\n      eq\n      tag_23\n      jumpi\n      dup1\n      0xfb86a404\n      eq\n      tag_24\n      jumpi\n      dup1\n      0xfc0c546a\n      eq\n      tag_25\n      jumpi\n      jump(tag_2)\n    tag_27:\n      dup1\n      0x8ac2c680\n      eq\n      tag_14\n      jumpi\n      dup1\n      0x8f283970\n      eq\n      tag_15\n      jumpi\n      dup1\n      0x9cbd7da5\n      eq\n      tag_16\n      jumpi\n      dup1\n      0xa7c3d71b\n      eq\n      tag_17\n      jumpi\n      dup1\n      0xae764df3\n      eq\n      tag_18\n      jumpi\n      dup1\n      0xaeecdc2c\n      eq\n      tag_19\n      jumpi\n      jump(tag_2)\n    tag_26:\n      dup1\n      0x44df8e70\n      gt\n      tag_28\n      jumpi\n      dup1\n      0x44df8e70\n      eq\n      tag_8\n      jumpi\n      dup1\n      0x6127b2ca\n      eq\n      tag_9\n      jumpi\n      dup1\n      0x61fba37d\n      eq\n      tag_10\n      jumpi\n      dup1\n      0x7e1055b6\n      eq\n      tag_11\n      jumpi\n      dup1\n      0x7fa8c158\n      eq\n      tag_12\n      jumpi\n      dup1\n      0x7ff9b596\n      eq\n      tag_13\n      jumpi\n      jump(tag_2)\n    tag_28:\n      dup1\n      0x2e1316\n      eq\n      tag_3\n      jumpi\n      dup1\n      0xf53e69\n      eq\n      tag_4\n      jumpi\n      dup1\n      0x129caa18\n      eq\n      tag_5\n      jumpi\n      dup1\n      0x1aae3460\n      eq\n      tag_6\n      jumpi\n      dup1\n      0x2e659d93\n      eq\n      tag_7\n      jumpi\n      jump(tag_2)\n    tag_1:\n      jumpi(tag_2, calldatasize)\n        /* \"ICO AFFILIATE/ico.sol\":1316:1324  invest() */\n      tag_31\n        /* \"ICO AFFILIATE/ico.sol\":1316:1322  invest */\n      tag_32\n        /* \"ICO AFFILIATE/ico.sol\":1316:1324  invest() */\n      jump\t// in\n    tag_31:\n      stop\n        /* \"ICO AFFILIATE/ico.sol\":115:4953  contract StknICO {... */\n    tag_2:\n        /* \"ICO AFFILIATE/ico.sol\":1375:1383  invest() */\n      tag_35\n        /* \"ICO AFFILIATE/ico.sol\":1375:1381  invest */\n      tag_32\n        /* \"ICO AFFILIATE/ico.sol\":1375:1383  invest() */\n      jump\t// in\n    tag_35:\n      stop\n        /* \"ICO AFFILIATE/ico.sol\":443:478  uint public maxInvestment = 3 ether */\n    tag_3:\n      callvalue\n      dup1\n      iszero\n      tag_36\n      jumpi\n      0x00\n      dup1\n      revert\n    tag_36:\n      pop\n      tag_37\n      tag_38\n      jump\t// in\n    tag_37:\n      mload(0x40)\n      tag_39\n      swap2\n      swap1\n      tag_40\n      jump\t// in\n    tag_39:\n      mload(0x40)\n      dup1\n      swap2\n      sub\n      swap1\n      return\n        /* \"ICO AFFILIATE/ico.sol\":2433:2550  function changeICOWallet(address payable _newICOWallet) external onlyAdmin {... */\n    tag_4:\n      callvalue\n      dup1\n      iszero\n      tag_41\n      jumpi\n      0x00\n      dup1\n      revert\n    tag_41:\n      pop\n      tag_42\n      0x04\n      dup1\n      calldatasize\n      sub\n      dup2\n      add\n      swap1\n      tag_43\n      swap2\n      swap1\n      tag_44\n      jump\t// in\n    tag_43:\n      tag_45\n      jump\t// in\n    tag_42:\n      stop\n        /* \"ICO AFFILIATE/ico.sol\":2096:2243  function haltICO() external onlyAdmin {... */\n    tag_5:\n      callvalue\n      dup1\n      iszero\n      tag_46\n      jumpi\n      0x00\n      dup1\n      revert\n    tag_46:\n      pop\n      tag_47\n      tag_48\n      jump\t// in\n    tag_47:\n      stop\n        /* \"ICO AFFILIATE/ico.sol\":558:606  mapping(address => uint) public investedAmountOf */\n    tag_6:\n      callvalue\n      dup1\n      iszero\n      tag_49\n      jumpi\n      0x00\n      dup1\n      revert\n    tag_49:\n      pop\n      tag_50\n      0x04\n      dup1\n      calldatasize\n      sub\n      dup2\n      add\n      swap1\n      tag_51\n      swap2\n      swap1\n      tag_52\n      jump\t// in\n    tag_51:\n      tag_53\n      jump\t// in\n    tag_50:\n      mload(0x40)\n      tag_54\n      swap2\n      swap1\n      tag_40\n      jump\t// in\n    tag_54:\n      mload(0x40)\n      dup1\n      swap2\n      sub\n      swap1\n      return\n        /* \"ICO AFFILIATE/ico.sol\":1437:1783  function getICOState() external view returns (string memory) {... */\n    tag_7:\n      callvalue\n      dup1\n      iszero\n      tag_55\n      jumpi\n      0x00\n      dup1\n      revert\n    tag_55:\n      pop\n      tag_56\n      tag_57\n      jump\t// in\n    tag_56:\n      mload(0x40)\n      tag_58\n      swap2\n      swap1\n      tag_59\n      jump\t// in\n    tag_58:\n      mload(0x40)\n      dup1\n      swap2\n      sub\n      swap1\n      return\n        /* \"ICO AFFILIATE/ico.sol\":3872:4266  function burn() external returns (bool) {... */\n    tag_8:\n      callvalue\n      dup1\n      iszero\n      tag_60\n      jumpi\n      0x00\n      dup1\n      revert\n    tag_60:\n      pop\n      tag_61\n      tag_62\n      jump\t// in\n    tag_61:\n      mload(0x40)\n      tag_63\n      swap2\n      swap1\n      tag_64\n      jump\t// in\n    tag_63:\n      mload(0x40)\n      dup1\n      swap2\n      sub\n      swap1\n      return\n        /* \"ICO AFFILIATE/ico.sol\":4659:4772  function getICOTokenBalance() external view returns (uint) {... */\n    tag_9:\n      callvalue\n      dup1\n      iszero\n      tag_65\n      jumpi\n      0x00\n      dup1\n      revert\n    tag_65:\n      pop\n      tag_66\n      tag_67\n      jump\t// in\n    tag_66:\n      mload(0x40)\n      tag_68\n      swap2\n      swap1\n      tag_40\n      jump\t// in\n    tag_68:\n      mload(0x40)\n      dup1\n      swap2\n      sub\n      swap1\n      return\n        /* \"ICO AFFILIATE/ico.sol\":4826:4951  function investorBalanceOf(address _investor) external view returns (uint) {... */\n    tag_10:\n      callvalue\n      dup1\n      iszero\n      tag_69\n      jumpi\n      0x00\n      dup1\n      revert\n    tag_69:\n      pop\n      tag_70\n      0x04\n      dup1\n      calldatasize\n      sub\n      dup2\n      add\n      swap1\n      tag_71\n      swap2\n      swap1\n      tag_52\n      jump\t// in\n    tag_71:\n      tag_72\n      jump\t// in\n    tag_70:\n      mload(0x40)\n      tag_73\n      swap2\n      swap1\n      tag_40\n      jump\t// in\n    tag_73:\n      mload(0x40)\n      dup1\n      swap2\n      sub\n      swap1\n      return\n        /* \"ICO AFFILIATE/ico.sol\":514:536  uint public icoEndTime */\n    tag_11:\n      callvalue\n      dup1\n      iszero\n      tag_74\n      jumpi\n      0x00\n      dup1\n      revert\n    tag_74:\n      pop\n      tag_75\n      tag_76\n      jump\t// in\n    tag_75:\n      mload(0x40)\n      tag_77\n      swap2\n      swap1\n      tag_40\n      jump\t// in\n    tag_77:\n      mload(0x40)\n      dup1\n      swap2\n      sub\n      swap1\n      return\n        /* \"ICO AFFILIATE/ico.sol\":1846:2090  function startICO() external onlyAdmin {... */\n    tag_12:\n      callvalue\n      dup1\n      iszero\n      tag_78\n      jumpi\n      0x00\n      dup1\n      revert\n    tag_78:\n      pop\n      tag_79\n      tag_80\n      jump\t// in\n    tag_79:\n      stop\n        /* \"ICO AFFILIATE/ico.sol\":288:325  uint public tokenPrice = 0.0001 ether */\n    tag_13:\n      callvalue\n      dup1\n      iszero\n      tag_81\n      jumpi\n      0x00\n      dup1\n      revert\n    tag_81:\n      pop\n      tag_82\n      tag_83\n      jump\t// in\n    tag_82:\n      mload(0x40)\n      tag_84\n      swap2\n      swap1\n      tag_40\n      jump\t// in\n    tag_84:\n      mload(0x40)\n      dup1\n      swap2\n      sub\n      swap1\n      return\n        /* \"ICO AFFILIATE/ico.sol\":398:437  uint public minInvestment = 0.001 ether */\n    tag_14:\n      callvalue\n      dup1\n      iszero\n      tag_85\n      jumpi\n      0x00\n      dup1\n      revert\n    tag_85:\n      pop\n      tag_86\n      tag_87\n      jump\t// in\n    tag_86:\n      mload(0x40)\n      tag_88\n      swap2\n      swap1\n      tag_40\n      jump\t// in\n    tag_88:\n      mload(0x40)\n      dup1\n      swap2\n      sub\n      swap1\n      return\n        /* \"ICO AFFILIATE/ico.sol\":2575:2668  function changeAdmin(address _newAdmin) external onlyAdmin {... */\n    tag_15:\n      callvalue\n      dup1\n      iszero\n      tag_89\n      jumpi\n      0x00\n      dup1\n      revert\n    tag_89:\n      pop\n      tag_90\n      0x04\n      dup1\n      calldatasize\n      sub\n      dup2\n      add\n      swap1\n      tag_91\n      swap2\n      swap1\n      tag_52\n      jump\t// in\n    tag_91:\n      tag_92\n      jump\t// in\n    tag_90:\n      stop\n        /* \"ICO AFFILIATE/ico.sol\":2249:2403  function resumeICO() external onlyAdmin {... */\n    tag_16:\n      callvalue\n      dup1\n      iszero\n      tag_93\n      jumpi\n      0x00\n      dup1\n      revert\n    tag_93:\n      pop\n      tag_94\n      tag_95\n      jump\t// in\n    tag_94:\n      stop\n        /* \"ICO AFFILIATE/ico.sol\":484:508  uint public icoStartTime */\n    tag_17:\n      callvalue\n      dup1\n      iszero\n      tag_96\n      jumpi\n      0x00\n      dup1\n      revert\n    tag_96:\n      pop\n      tag_97\n      tag_98\n      jump\t// in\n    tag_97:\n      mload(0x40)\n      tag_99\n      swap2\n      swap1\n      tag_40\n      jump\t// in\n    tag_99:\n      mload(0x40)\n      dup1\n      swap2\n      sub\n      swap1\n      return\n        /* \"ICO AFFILIATE/ico.sol\":193:225  address payable public ICOWallet */\n    tag_18:\n      callvalue\n      dup1\n      iszero\n      tag_100\n      jumpi\n      0x00\n      dup1\n      revert\n    tag_100:\n      pop\n      tag_101\n      tag_102\n      jump\t// in\n    tag_101:\n      mload(0x40)\n      tag_103\n      swap2\n      swap1\n      tag_104\n      jump\t// in\n    tag_103:\n      mload(0x40)\n      dup1\n      swap2\n      sub\n      swap1\n      return\n        /* \"ICO AFFILIATE/ico.sol\":713:734  State public ICOState */\n    tag_19:\n      callvalue\n      dup1\n      iszero\n      tag_105\n      jumpi\n      0x00\n      dup1\n      revert\n    tag_105:\n      pop\n      tag_106\n      tag_107\n      jump\t// in\n    tag_106:\n      mload(0x40)\n      tag_108\n      swap2\n      swap1\n      tag_109\n      jump\t// in\n    tag_108:\n      mload(0x40)\n      dup1\n      swap2\n      sub\n      swap1\n      return\n        /* \"ICO AFFILIATE/ico.sol\":368:392  uint public raisedAmount */\n    tag_20:\n      callvalue\n      dup1\n      iszero\n      tag_110\n      jumpi\n      0x00\n      dup1\n      revert\n    tag_110:\n      pop\n      tag_111\n      tag_112\n      jump\t// in\n    tag_111:\n      mload(0x40)\n      tag_113\n      swap2\n      swap1\n      tag_40\n      jump\t// in\n    tag_113:\n      mload(0x40)\n      dup1\n      swap2\n      sub\n      swap1\n      return\n        /* \"ICO AFFILIATE/ico.sol\":4326:4614  function endIco() public {... */\n    tag_21:\n      callvalue\n      dup1\n      iszero\n      tag_114\n      jumpi\n      0x00\n      dup1\n      revert\n    tag_114:\n      pop\n      tag_115\n      tag_116\n      jump\t// in\n    tag_115:\n      stop\n        /* \"ICO AFFILIATE/ico.sol\":2716:3848  function invest() public payable returns (bool) {... */\n    tag_22:\n      tag_117\n      tag_32\n      jump\t// in\n    tag_117:\n      mload(0x40)\n      tag_118\n      swap2\n      swap1\n      tag_64\n      jump\t// in\n    tag_118:\n      mload(0x40)\n      dup1\n      swap2\n      sub\n      swap1\n      return\n        /* \"ICO AFFILIATE/ico.sol\":167:187  address public admin */\n    tag_23:\n      callvalue\n      dup1\n      iszero\n      tag_119\n      jumpi\n      0x00\n      dup1\n      revert\n    tag_119:\n      pop\n      tag_120\n      tag_121\n      jump\t// in\n    tag_120:\n      mload(0x40)\n      tag_122\n      swap2\n      swap1\n      tag_123\n      jump\t// in\n    tag_122:\n      mload(0x40)\n      dup1\n      swap2\n      sub\n      swap1\n      return\n        /* \"ICO AFFILIATE/ico.sol\":331:362  uint public hardCap = 500 ether */\n    tag_24:\n      callvalue\n      dup1\n      iszero\n      tag_124\n      jumpi\n      0x00\n      dup1\n      revert\n    tag_124:\n      pop\n      tag_125\n      tag_126\n      jump\t// in\n    tag_125:\n      mload(0x40)\n      tag_127\n      swap2\n      swap1\n      tag_40\n      jump\t// in\n    tag_127:\n      mload(0x40)\n      dup1\n      swap2\n      sub\n      swap1\n      return\n        /* \"ICO AFFILIATE/ico.sol\":244:263  IERC20 public token */\n    tag_25:\n      callvalue\n      dup1\n      iszero\n      tag_128\n      jumpi\n      0x00\n      dup1\n      revert\n    tag_128:\n      pop\n      tag_129\n      tag_130\n      jump\t// in\n    tag_129:\n      mload(0x40)\n      tag_131\n      swap2\n      swap1\n      tag_132\n      jump\t// in\n    tag_131:\n      mload(0x40)\n      dup1\n      swap2\n      sub\n      swap1\n      return\n        /* \"ICO AFFILIATE/ico.sol\":2716:3848  function invest() public payable returns (bool) {... */\n    tag_32:\n        /* \"ICO AFFILIATE/ico.sol\":2758:2762  bool */\n      0x00\n        /* \"ICO AFFILIATE/ico.sol\":2794:2807  State.RUNNING */\n      0x01\n        /* \"ICO AFFILIATE/ico.sol\":2782:2807  ICOState == State.RUNNING */\n      0x03\n      dup2\n      gt\n      iszero\n      tag_134\n      jumpi\n      tag_135\n      tag_136\n      jump\t// in\n    tag_135:\n    tag_134:\n        /* \"ICO AFFILIATE/ico.sol\":2782:2790  ICOState */\n      0x0b\n      0x00\n      swap1\n      sload\n      swap1\n      0x0100\n      exp\n      swap1\n      div\n      0xff\n      and\n        /* \"ICO AFFILIATE/ico.sol\":2782:2807  ICOState == State.RUNNING */\n      0x03\n      dup2\n      gt\n      iszero\n      tag_137\n      jumpi\n      tag_138\n      tag_136\n      jump\t// in\n    tag_138:\n    tag_137:\n      eq\n        /* \"ICO AFFILIATE/ico.sol\":2774:2829  require(ICOState == State.RUNNING, \"ICO isn't running\") */\n      tag_139\n      jumpi\n      mload(0x40)\n      0x08c379a000000000000000000000000000000000000000000000000000000000\n      dup2\n      mstore\n      0x04\n      add\n      tag_140\n      swap1\n      tag_141\n      jump\t// in\n    tag_140:\n      mload(0x40)\n      dup1\n      swap2\n      sub\n      swap1\n      revert\n    tag_139:\n        /* \"ICO AFFILIATE/ico.sol\":2873:2886  minInvestment */\n      sload(0x06)\n        /* \"ICO AFFILIATE/ico.sol\":2860:2869  msg.value */\n      callvalue\n        /* \"ICO AFFILIATE/ico.sol\":2860:2886  msg.value >= minInvestment */\n      lt\n      iszero\n        /* \"ICO AFFILIATE/ico.sol\":2860:2916  msg.value >= minInvestment && msg.value <= maxInvestment */\n      dup1\n      iszero\n      tag_142\n      jumpi\n      pop\n        /* \"ICO AFFILIATE/ico.sol\":2903:2916  maxInvestment */\n      sload(0x07)\n        /* \"ICO AFFILIATE/ico.sol\":2890:2899  msg.value */\n      callvalue\n        /* \"ICO AFFILIATE/ico.sol\":2890:2916  msg.value <= maxInvestment */\n      gt\n      iszero\n        /* \"ICO AFFILIATE/ico.sol\":2860:2916  msg.value >= minInvestment && msg.value <= maxInvestment */\n    tag_142:\n        /* \"ICO AFFILIATE/ico.sol\":2839:2970  require(... */\n      tag_143\n      jumpi\n      mload(0x40)\n      0x08c379a000000000000000000000000000000000000000000000000000000000\n      dup2\n      mstore\n      0x04\n      add\n      tag_144\n      swap1\n      tag_145\n      jump\t// in\n    tag_144:\n      mload(0x40)\n      dup1\n      swap2\n      sub\n      swap1\n      revert\n    tag_143:\n        /* \"ICO AFFILIATE/ico.sol\":3045:3058  maxInvestment */\n      sload(0x07)\n        /* \"ICO AFFILIATE/ico.sol\":3032:3041  msg.value */\n      callvalue\n        /* \"ICO AFFILIATE/ico.sol\":3001:3017  investedAmountOf */\n      0x0a\n        /* \"ICO AFFILIATE/ico.sol\":3001:3029  investedAmountOf[msg.sender] */\n      0x00\n        /* \"ICO AFFILIATE/ico.sol\":3018:3028  msg.sender */\n      caller\n        /* \"ICO AFFILIATE/ico.sol\":3001:3029  investedAmountOf[msg.sender] */\n      0xffffffffffffffffffffffffffffffffffffffff\n      and\n      0xffffffffffffffffffffffffffffffffffffffff\n      and\n      dup2\n      mstore\n      0x20\n      add\n      swap1\n      dup2\n      mstore\n      0x20\n      add\n      0x00\n      keccak256\n      sload\n        /* \"ICO AFFILIATE/ico.sol\":3001:3041  investedAmountOf[msg.sender] + msg.value */\n      tag_146\n      swap2\n      swap1\n      tag_147\n      jump\t// in\n    tag_146:\n        /* \"ICO AFFILIATE/ico.sol\":3001:3058  investedAmountOf[msg.sender] + msg.value <= maxInvestment */\n      gt\n      iszero\n        /* \"ICO AFFILIATE/ico.sol\":2980:3126  require(... */\n      tag_148\n      jumpi\n      mload(0x40)\n      0x08c379a000000000000000000000000000000000000000000000000000000000\n      dup2\n      mstore\n      0x04\n      add\n      tag_149\n      swap1\n      tag_150\n      jump\t// in\n    tag_149:\n      mload(0x40)\n      dup1\n      swap2\n      sub\n      swap1\n      revert\n    tag_148:\n        /* \"ICO AFFILIATE/ico.sol\":3186:3193  hardCap */\n      sload(0x04)\n        /* \"ICO AFFILIATE/ico.sol\":3173:3182  msg.value */\n      callvalue\n        /* \"ICO AFFILIATE/ico.sol\":3158:3170  raisedAmount */\n      sload(0x05)\n        /* \"ICO AFFILIATE/ico.sol\":3158:3182  raisedAmount + msg.value */\n      tag_151\n      swap2\n      swap1\n      tag_147\n      jump\t// in\n    tag_151:\n        /* \"ICO AFFILIATE/ico.sol\":3158:3193  raisedAmount + msg.value <= hardCap */\n      gt\n      iszero\n        /* \"ICO AFFILIATE/ico.sol\":3137:3244  require(... */\n      tag_152\n      jumpi\n      mload(0x40)\n      0x08c379a000000000000000000000000000000000000000000000000000000000\n      dup2\n      mstore\n      0x04\n      add\n      tag_153\n      swap1\n      tag_154\n      jump\t// in\n    tag_153:\n      mload(0x40)\n      dup1\n      swap2\n      sub\n      swap1\n      revert\n    tag_152:\n        /* \"ICO AFFILIATE/ico.sol\":3294:3304  icoEndTime */\n      sload(0x09)\n        /* \"ICO AFFILIATE/ico.sol\":3275:3290  block.timestamp */\n      timestamp\n        /* \"ICO AFFILIATE/ico.sol\":3275:3304  block.timestamp <= icoEndTime */\n      gt\n      iszero\n        /* \"ICO AFFILIATE/ico.sol\":3254:3368  require(... */\n      tag_155\n      jumpi\n      mload(0x40)\n      0x08c379a000000000000000000000000000000000000000000000000000000000\n      dup2\n      mstore\n      0x04\n      add\n      tag_156\n      swap1\n      tag_157\n      jump\t// in\n    tag_156:\n      mload(0x40)\n      dup1\n      swap2\n      sub\n      swap1\n      revert\n    tag_155:\n        /* \"ICO AFFILIATE/ico.sol\":3395:3404  msg.value */\n      callvalue\n        /* \"ICO AFFILIATE/ico.sol\":3379:3391  raisedAmount */\n      0x05\n      0x00\n        /* \"ICO AFFILIATE/ico.sol\":3379:3404  raisedAmount += msg.value */\n      dup3\n      dup3\n      sload\n      tag_158\n      swap2\n      swap1\n      tag_147\n      jump\t// in\n    tag_158:\n      swap3\n      pop\n      pop\n      dup2\n      swap1\n      sstore\n      pop\n        /* \"ICO AFFILIATE/ico.sol\":3446:3455  msg.value */\n      callvalue\n        /* \"ICO AFFILIATE/ico.sol\":3414:3430  investedAmountOf */\n      0x0a\n        /* \"ICO AFFILIATE/ico.sol\":3414:3442  investedAmountOf[msg.sender] */\n      0x00\n        /* \"ICO AFFILIATE/ico.sol\":3431:3441  msg.sender */\n      caller\n        /* \"ICO AFFILIATE/ico.sol\":3414:3442  investedAmountOf[msg.sender] */\n      0xffffffffffffffffffffffffffffffffffffffff\n      and\n      0xffffffffffffffffffffffffffffffffffffffff\n      and\n      dup2\n      mstore\n      0x20\n      add\n      swap1\n      dup2\n      mstore\n      0x20\n      add\n      0x00\n      keccak256\n      0x00\n        /* \"ICO AFFILIATE/ico.sol\":3414:3455  investedAmountOf[msg.sender] += msg.value */\n      dup3\n      dup3\n      sload\n      tag_159\n      swap2\n      swap1\n      tag_147\n      jump\t// in\n    tag_159:\n      swap3\n      pop\n      pop\n      dup2\n      swap1\n      sstore\n      pop\n        /* \"ICO AFFILIATE/ico.sol\":3467:3487  bool transferSuccess */\n      0x00\n        /* \"ICO AFFILIATE/ico.sol\":3493:3502  ICOWallet */\n      0x01\n      0x00\n      swap1\n      sload\n      swap1\n      0x0100\n      exp\n      swap1\n      div\n      0xffffffffffffffffffffffffffffffffffffffff\n      and\n        /* \"ICO AFFILIATE/ico.sol\":3493:3507  ICOWallet.call */\n      0xffffffffffffffffffffffffffffffffffffffff\n      and\n        /* \"ICO AFFILIATE/ico.sol\":3515:3524  msg.value */\n      callvalue\n        /* \"ICO AFFILIATE/ico.sol\":3493:3529  ICOWallet.call{value: msg.value}(\"\") */\n      mload(0x40)\n      tag_160\n      swap1\n      tag_161\n      jump\t// in\n    tag_160:\n      0x00\n      mload(0x40)\n      dup1\n      dup4\n      sub\n      dup2\n      dup6\n      dup8\n      gas\n      call\n      swap3\n      pop\n      pop\n      pop\n      returndatasize\n      dup1\n      0x00\n      dup2\n      eq\n      tag_164\n      jumpi\n      mload(0x40)\n      swap2\n      pop\n      and(add(returndatasize, 0x3f), not(0x1f))\n      dup3\n      add\n      0x40\n      mstore\n      returndatasize\n      dup3\n      mstore\n      returndatasize\n      0x00\n      0x20\n      dup5\n      add\n      returndatacopy\n      jump(tag_163)\n    tag_164:\n      0x60\n      swap2\n      pop\n    tag_163:\n      pop\n        /* \"ICO AFFILIATE/ico.sol\":3466:3529  (bool transferSuccess, ) = ICOWallet.call{value: msg.value}(\"\") */\n      pop\n      swap1\n      pop\n        /* \"ICO AFFILIATE/ico.sol\":3547:3562  transferSuccess */\n      dup1\n        /* \"ICO AFFILIATE/ico.sol\":3539:3583  require(transferSuccess, \"Failed to Invest\") */\n      tag_165\n      jumpi\n      mload(0x40)\n      0x08c379a000000000000000000000000000000000000000000000000000000000\n      dup2\n      mstore\n      0x04\n      add\n      tag_166\n      swap1\n      tag_167\n      jump\t// in\n    tag_166:\n      mload(0x40)\n      dup1\n      swap2\n      sub\n      swap1\n      revert\n    tag_165:\n        /* \"ICO AFFILIATE/ico.sol\":3594:3605  uint tokens */\n      0x00\n        /* \"ICO AFFILIATE/ico.sol\":3635:3639  1e18 */\n      0x0de0b6b3a7640000\n        /* \"ICO AFFILIATE/ico.sol\":3621:3631  tokenPrice */\n      sload(0x03)\n        /* \"ICO AFFILIATE/ico.sol\":3609:3618  msg.value */\n      callvalue\n        /* \"ICO AFFILIATE/ico.sol\":3609:3631  msg.value / tokenPrice */\n      tag_168\n      swap2\n      swap1\n      tag_169\n      jump\t// in\n    tag_168:\n        /* \"ICO AFFILIATE/ico.sol\":3608:3639  (msg.value / tokenPrice) * 1e18 */\n      tag_170\n      swap2\n      swap1\n      tag_171\n      jump\t// in\n    tag_170:\n        /* \"ICO AFFILIATE/ico.sol\":3594:3639  uint tokens = (msg.value / tokenPrice) * 1e18 */\n      swap1\n      pop\n        /* \"ICO AFFILIATE/ico.sol\":3649:3665  bool saleSuccess */\n      0x00\n        /* \"ICO AFFILIATE/ico.sol\":3668:3673  token */\n      0x02\n      0x00\n      swap1\n      sload\n      swap1\n      0x0100\n      exp\n      swap1\n      div\n      0xffffffffffffffffffffffffffffffffffffffff\n      and\n        /* \"ICO AFFILIATE/ico.sol\":3668:3682  token.transfer */\n      0xffffffffffffffffffffffffffffffffffffffff\n      and\n      0xa9059cbb\n        /* \"ICO AFFILIATE/ico.sol\":3683:3693  msg.sender */\n      caller\n        /* \"ICO AFFILIATE/ico.sol\":3695:3701  tokens */\n      dup5\n        /* \"ICO AFFILIATE/ico.sol\":3668:3702  token.transfer(msg.sender, tokens) */\n      mload(0x40)\n      dup4\n      0xffffffff\n      and\n      0xe0\n      shl\n      dup2\n      mstore\n      0x04\n      add\n      tag_172\n      swap3\n      swap2\n      swap1\n      tag_173\n      jump\t// in\n    tag_172:\n      0x20\n      mload(0x40)\n      dup1\n      dup4\n      sub\n      dup2\n      0x00\n      dup8\n      gas\n      call\n      iszero\n      dup1\n      iszero\n      tag_175\n      jumpi\n      returndatasize\n      0x00\n      dup1\n      returndatacopy\n      revert(0x00, returndatasize)\n    tag_175:\n      pop\n      pop\n      pop\n      pop\n      mload(0x40)\n      returndatasize\n      not(0x1f)\n      0x1f\n      dup3\n      add\n      and\n      dup3\n      add\n      dup1\n      0x40\n      mstore\n      pop\n      dup2\n      add\n      swap1\n      tag_176\n      swap2\n      swap1\n      tag_177\n      jump\t// in\n    tag_176:\n        /* \"ICO AFFILIATE/ico.sol\":3649:3702  bool saleSuccess = token.transfer(msg.sender, tokens) */\n      swap1\n      pop\n        /* \"ICO AFFILIATE/ico.sol\":3720:3731  saleSuccess */\n      dup1\n        /* \"ICO AFFILIATE/ico.sol\":3712:3752  require(saleSuccess, \"Failed to Invest\") */\n      tag_178\n      jumpi\n      mload(0x40)\n      0x08c379a000000000000000000000000000000000000000000000000000000000\n      dup2\n      mstore\n      0x04\n      add\n      tag_179\n      swap1\n      tag_167\n      jump\t// in\n    tag_179:\n      mload(0x40)\n      dup1\n      swap2\n      sub\n      swap1\n      revert\n    tag_178:\n        /* \"ICO AFFILIATE/ico.sol\":3790:3800  msg.sender */\n      caller\n        /* \"ICO AFFILIATE/ico.sol\":3768:3820  Invest(address(this), msg.sender, msg.value, tokens) */\n      0xffffffffffffffffffffffffffffffffffffffff\n      and\n        /* \"ICO AFFILIATE/ico.sol\":3783:3787  this */\n      address\n        /* \"ICO AFFILIATE/ico.sol\":3768:3820  Invest(address(this), msg.sender, msg.value, tokens) */\n      0xffffffffffffffffffffffffffffffffffffffff\n      and\n      0x2e206bbdd5787cd6d3e97144dec044f9f15dd77a257afd27fa70cad6f03feae3\n        /* \"ICO AFFILIATE/ico.sol\":3802:3811  msg.value */\n      callvalue\n        /* \"ICO AFFILIATE/ico.sol\":3813:3819  tokens */\n      dup6\n        /* \"ICO AFFILIATE/ico.sol\":3768:3820  Invest(address(this), msg.sender, msg.value, tokens) */\n      mload(0x40)\n      tag_180\n      swap3\n      swap2\n      swap1\n      tag_181\n      jump\t// in\n    tag_180:\n      mload(0x40)\n      dup1\n      swap2\n      sub\n      swap1\n      log3\n        /* \"ICO AFFILIATE/ico.sol\":3837:3841  true */\n      0x01\n        /* \"ICO AFFILIATE/ico.sol\":3830:3841  return true */\n      swap4\n      pop\n      pop\n      pop\n      pop\n        /* \"ICO AFFILIATE/ico.sol\":2716:3848  function invest() public payable returns (bool) {... */\n      swap1\n      jump\t// out\n        /* \"ICO AFFILIATE/ico.sol\":443:478  uint public maxInvestment = 3 ether */\n    tag_38:\n      sload(0x07)\n      dup2\n      jump\t// out\n        /* \"ICO AFFILIATE/ico.sol\":2433:2550  function changeICOWallet(address payable _newICOWallet) external onlyAdmin {... */\n    tag_45:\n        /* \"ICO AFFILIATE/ico.sol\":1197:1202  admin */\n      0x00\n      dup1\n      sload\n      swap1\n      0x0100\n      exp\n      swap1\n      div\n      0xffffffffffffffffffffffffffffffffffffffff\n      and\n        /* \"ICO AFFILIATE/ico.sol\":1183:1202  msg.sender == admin */\n      0xffffffffffffffffffffffffffffffffffffffff\n      and\n        /* \"ICO AFFILIATE/ico.sol\":1183:1193  msg.sender */\n      caller\n        /* \"ICO AFFILIATE/ico.sol\":1183:1202  msg.sender == admin */\n      0xffffffffffffffffffffffffffffffffffffffff\n      and\n      eq\n        /* \"ICO AFFILIATE/ico.sol\":1175:1226  require(msg.sender == admin, \"Admin Only function\") */\n      tag_183\n      jumpi\n      mload(0x40)\n      0x08c379a000000000000000000000000000000000000000000000000000000000\n      dup2\n      mstore\n      0x04\n      add\n      tag_184\n      swap1\n      tag_185\n      jump\t// in\n    tag_184:\n      mload(0x40)\n      dup1\n      swap2\n      sub\n      swap1\n      revert\n    tag_183:\n        /* \"ICO AFFILIATE/ico.sol\":2530:2543  _newICOWallet */\n      dup1\n        /* \"ICO AFFILIATE/ico.sol\":2518:2527  ICOWallet */\n      0x01\n      0x00\n        /* \"ICO AFFILIATE/ico.sol\":2518:2543  ICOWallet = _newICOWallet */\n      0x0100\n      exp\n      dup2\n      sload\n      dup2\n      0xffffffffffffffffffffffffffffffffffffffff\n      mul\n      not\n      and\n      swap1\n      dup4\n      0xffffffffffffffffffffffffffffffffffffffff\n      and\n      mul\n      or\n      swap1\n      sstore\n      pop\n        /* \"ICO AFFILIATE/ico.sol\":2433:2550  function changeICOWallet(address payable _newICOWallet) external onlyAdmin {... */\n      pop\n      jump\t// out\n        /* \"ICO AFFILIATE/ico.sol\":2096:2243  function haltICO() external onlyAdmin {... */\n    tag_48:\n        /* \"ICO AFFILIATE/ico.sol\":1197:1202  admin */\n      0x00\n      dup1\n      sload\n      swap1\n      0x0100\n      exp\n      swap1\n      div\n      0xffffffffffffffffffffffffffffffffffffffff\n      and\n        /* \"ICO AFFILIATE/ico.sol\":1183:1202  msg.sender == admin */\n      0xffffffffffffffffffffffffffffffffffffffff\n      and\n        /* \"ICO AFFILIATE/ico.sol\":1183:1193  msg.sender */\n      caller\n        /* \"ICO AFFILIATE/ico.sol\":1183:1202  msg.sender == admin */\n      0xffffffffffffffffffffffffffffffffffffffff\n      and\n      eq\n        /* \"ICO AFFILIATE/ico.sol\":1175:1226  require(msg.sender == admin, \"Admin Only function\") */\n      tag_188\n      jumpi\n      mload(0x40)\n      0x08c379a000000000000000000000000000000000000000000000000000000000\n      dup2\n      mstore\n      0x04\n      add\n      tag_189\n      swap1\n      tag_185\n      jump\t// in\n    tag_189:\n      mload(0x40)\n      dup1\n      swap2\n      sub\n      swap1\n      revert\n    tag_188:\n        /* \"ICO AFFILIATE/ico.sol\":2164:2177  State.RUNNING */\n      0x01\n        /* \"ICO AFFILIATE/ico.sol\":2152:2177  ICOState == State.RUNNING */\n      0x03\n      dup2\n      gt\n      iszero\n      tag_191\n      jumpi\n      tag_192\n      tag_136\n      jump\t// in\n    tag_192:\n    tag_191:\n        /* \"ICO AFFILIATE/ico.sol\":2152:2160  ICOState */\n      0x0b\n      0x00\n      swap1\n      sload\n      swap1\n      0x0100\n      exp\n      swap1\n      div\n      0xff\n      and\n        /* \"ICO AFFILIATE/ico.sol\":2152:2177  ICOState == State.RUNNING */\n      0x03\n      dup2\n      gt\n      iszero\n      tag_193\n      jumpi\n      tag_194\n      tag_136\n      jump\t// in\n    tag_194:\n    tag_193:\n      eq\n        /* \"ICO AFFILIATE/ico.sol\":2144:2203  require(ICOState == State.RUNNING, \"ICO isn't running yet\") */\n      tag_195\n      jumpi\n      mload(0x40)\n      0x08c379a000000000000000000000000000000000000000000000000000000000\n      dup2\n      mstore\n      0x04\n      add\n      tag_196\n      swap1\n      tag_197\n      jump\t// in\n    tag_196:\n      mload(0x40)\n      dup1\n      swap2\n      sub\n      swap1\n      revert\n    tag_195:\n        /* \"ICO AFFILIATE/ico.sol\":2224:2236  State.HALTED */\n      0x03\n        /* \"ICO AFFILIATE/ico.sol\":2213:2221  ICOState */\n      0x0b\n      0x00\n        /* \"ICO AFFILIATE/ico.sol\":2213:2236  ICOState = State.HALTED */\n      0x0100\n      exp\n      dup2\n      sload\n      dup2\n      0xff\n      mul\n      not\n      and\n      swap1\n      dup4\n      0x03\n      dup2\n      gt\n      iszero\n      tag_198\n      jumpi\n      tag_199\n      tag_136\n      jump\t// in\n    tag_199:\n    tag_198:\n      mul\n      or\n      swap1\n      sstore\n      pop\n        /* \"ICO AFFILIATE/ico.sol\":2096:2243  function haltICO() external onlyAdmin {... */\n      jump\t// out\n        /* \"ICO AFFILIATE/ico.sol\":558:606  mapping(address => uint) public investedAmountOf */\n    tag_53:\n      mstore(0x20, 0x0a)\n      dup1\n      0x00\n      mstore\n      keccak256(0x00, 0x40)\n      0x00\n      swap2\n      pop\n      swap1\n      pop\n      sload\n      dup2\n      jump\t// out\n        /* \"ICO AFFILIATE/ico.sol\":1437:1783  function getICOState() external view returns (string memory) {... */\n    tag_57:\n        /* \"ICO AFFILIATE/ico.sol\":1483:1496  string memory */\n      0x60\n        /* \"ICO AFFILIATE/ico.sol\":1524:1536  State.BEFORE */\n      0x00\n        /* \"ICO AFFILIATE/ico.sol\":1512:1536  ICOState == State.BEFORE */\n      0x03\n      dup2\n      gt\n      iszero\n      tag_201\n      jumpi\n      tag_202\n      tag_136\n      jump\t// in\n    tag_202:\n    tag_201:\n        /* \"ICO AFFILIATE/ico.sol\":1512:1520  ICOState */\n      0x0b\n      0x00\n      swap1\n      sload\n      swap1\n      0x0100\n      exp\n      swap1\n      div\n      0xff\n      and\n        /* \"ICO AFFILIATE/ico.sol\":1512:1536  ICOState == State.BEFORE */\n      0x03\n      dup2\n      gt\n      iszero\n      tag_203\n      jumpi\n      tag_204\n      tag_136\n      jump\t// in\n    tag_204:\n    tag_203:\n      sub\n        /* \"ICO AFFILIATE/ico.sol\":1508:1777  if (ICOState == State.BEFORE) {... */\n      tag_205\n      jumpi\n        /* \"ICO AFFILIATE/ico.sol\":1552:1572  return \"Not Started\" */\n      mload(0x40)\n      dup1\n      0x40\n      add\n      0x40\n      mstore\n      dup1\n      0x0b\n      dup2\n      mstore\n      0x20\n      add\n      0x4e6f742053746172746564000000000000000000000000000000000000000000\n      dup2\n      mstore\n      pop\n      swap1\n      pop\n      jump(tag_200)\n        /* \"ICO AFFILIATE/ico.sol\":1508:1777  if (ICOState == State.BEFORE) {... */\n    tag_205:\n        /* \"ICO AFFILIATE/ico.sol\":1605:1618  State.RUNNING */\n      0x01\n        /* \"ICO AFFILIATE/ico.sol\":1593:1618  ICOState == State.RUNNING */\n      0x03\n      dup2\n      gt\n      iszero\n      tag_207\n      jumpi\n      tag_208\n      tag_136\n      jump\t// in\n    tag_208:\n    tag_207:\n        /* \"ICO AFFILIATE/ico.sol\":1593:1601  ICOState */\n      0x0b\n      0x00\n      swap1\n      sload\n      swap1\n      0x0100\n      exp\n      swap1\n      div\n      0xff\n      and\n        /* \"ICO AFFILIATE/ico.sol\":1593:1618  ICOState == State.RUNNING */\n      0x03\n      dup2\n      gt\n      iszero\n      tag_209\n      jumpi\n      tag_210\n      tag_136\n      jump\t// in\n    tag_210:\n    tag_209:\n      sub\n        /* \"ICO AFFILIATE/ico.sol\":1589:1777  if (ICOState == State.RUNNING) {... */\n      tag_211\n      jumpi\n        /* \"ICO AFFILIATE/ico.sol\":1634:1650  return \"Running\" */\n      mload(0x40)\n      dup1\n      0x40\n      add\n      0x40\n      mstore\n      dup1\n      0x07\n      dup2\n      mstore\n      0x20\n      add\n      0x52756e6e696e6700000000000000000000000000000000000000000000000000\n      dup2\n      mstore\n      pop\n      swap1\n      pop\n      jump(tag_200)\n        /* \"ICO AFFILIATE/ico.sol\":1589:1777  if (ICOState == State.RUNNING) {... */\n    tag_211:\n        /* \"ICO AFFILIATE/ico.sol\":1683:1692  State.END */\n      0x02\n        /* \"ICO AFFILIATE/ico.sol\":1671:1692  ICOState == State.END */\n      0x03\n      dup2\n      gt\n      iszero\n      tag_213\n      jumpi\n      tag_214\n      tag_136\n      jump\t// in\n    tag_214:\n    tag_213:\n        /* \"ICO AFFILIATE/ico.sol\":1671:1679  ICOState */\n      0x0b\n      0x00\n      swap1\n      sload\n      swap1\n      0x0100\n      exp\n      swap1\n      div\n      0xff\n      and\n        /* \"ICO AFFILIATE/ico.sol\":1671:1692  ICOState == State.END */\n      0x03\n      dup2\n      gt\n      iszero\n      tag_215\n      jumpi\n      tag_216\n      tag_136\n      jump\t// in\n    tag_216:\n    tag_215:\n      sub\n        /* \"ICO AFFILIATE/ico.sol\":1667:1777  if (ICOState == State.END) {... */\n      tag_217\n      jumpi\n        /* \"ICO AFFILIATE/ico.sol\":1708:1720  return \"End\" */\n      mload(0x40)\n      dup1\n      0x40\n      add\n      0x40\n      mstore\n      dup1\n      0x03\n      dup2\n      mstore\n      0x20\n      add\n      0x456e640000000000000000000000000000000000000000000000000000000000\n      dup2\n      mstore\n      pop\n      swap1\n      pop\n      jump(tag_200)\n        /* \"ICO AFFILIATE/ico.sol\":1667:1777  if (ICOState == State.END) {... */\n    tag_217:\n        /* \"ICO AFFILIATE/ico.sol\":1751:1766  return \"Halted\" */\n      mload(0x40)\n      dup1\n      0x40\n      add\n      0x40\n      mstore\n      dup1\n      0x06\n      dup2\n      mstore\n      0x20\n      add\n      0x48616c7465640000000000000000000000000000000000000000000000000000\n      dup2\n      mstore\n      pop\n      swap1\n      pop\n        /* \"ICO AFFILIATE/ico.sol\":1437:1783  function getICOState() external view returns (string memory) {... */\n    tag_200:\n      swap1\n      jump\t// out\n        /* \"ICO AFFILIATE/ico.sol\":3872:4266  function burn() external returns (bool) {... */\n    tag_62:\n        /* \"ICO AFFILIATE/ico.sol\":3906:3910  bool */\n      0x00\n        /* \"ICO AFFILIATE/ico.sol\":3942:3951  State.END */\n      0x02\n        /* \"ICO AFFILIATE/ico.sol\":3930:3951  ICOState == State.END */\n      0x03\n      dup2\n      gt\n      iszero\n      tag_220\n      jumpi\n      tag_221\n      tag_136\n      jump\t// in\n    tag_221:\n    tag_220:\n        /* \"ICO AFFILIATE/ico.sol\":3930:3938  ICOState */\n      0x0b\n      0x00\n      swap1\n      sload\n      swap1\n      0x0100\n      exp\n      swap1\n      div\n      0xff\n      and\n        /* \"ICO AFFILIATE/ico.sol\":3930:3951  ICOState == State.END */\n      0x03\n      dup2\n      gt\n      iszero\n      tag_222\n      jumpi\n      tag_223\n      tag_136\n      jump\t// in\n    tag_223:\n    tag_222:\n      eq\n        /* \"ICO AFFILIATE/ico.sol\":3922:3974  require(ICOState == State.END, \"ICO isn't over yet\") */\n      tag_224\n      jumpi\n      mload(0x40)\n      0x08c379a000000000000000000000000000000000000000000000000000000000\n      dup2\n      mstore\n      0x04\n      add\n      tag_225\n      swap1\n      tag_226\n      jump\t// in\n    tag_225:\n      mload(0x40)\n      dup1\n      swap2\n      sub\n      swap1\n      revert\n    tag_224:\n        /* \"ICO AFFILIATE/ico.sol\":3985:4005  uint remainingTokens */\n      0x00\n        /* \"ICO AFFILIATE/ico.sol\":4008:4013  token */\n      0x02\n      0x00\n      swap1\n      sload\n      swap1\n      0x0100\n      exp\n      swap1\n      div\n      0xffffffffffffffffffffffffffffffffffffffff\n      and\n        /* \"ICO AFFILIATE/ico.sol\":4008:4023  token.balanceOf */\n      0xffffffffffffffffffffffffffffffffffffffff\n      and\n      0x70a08231\n        /* \"ICO AFFILIATE/ico.sol\":4032:4036  this */\n      address\n        /* \"ICO AFFILIATE/ico.sol\":4008:4038  token.balanceOf(address(this)) */\n      mload(0x40)\n      dup3\n      0xffffffff\n      and\n      0xe0\n      shl\n      dup2\n      mstore\n      0x04\n      add\n      tag_227\n      swap2\n      swap1\n      tag_123\n      jump\t// in\n    tag_227:\n      0x20\n      mload(0x40)\n      dup1\n      dup4\n      sub\n      dup2\n      dup7\n      gas\n      staticcall\n      iszero\n      dup1\n      iszero\n      tag_229\n      jumpi\n      returndatasize\n      0x00\n      dup1\n      returndatacopy\n      revert(0x00, returndatasize)\n    tag_229:\n      pop\n      pop\n      pop\n      pop\n      mload(0x40)\n      returndatasize\n      not(0x1f)\n      0x1f\n      dup3\n      add\n      and\n      dup3\n      add\n      dup1\n      0x40\n      mstore\n      pop\n      dup2\n      add\n      swap1\n      tag_230\n      swap2\n      swap1\n      tag_231\n      jump\t// in\n    tag_230:\n        /* \"ICO AFFILIATE/ico.sol\":3985:4038  uint remainingTokens = token.balanceOf(address(this)) */\n      swap1\n      pop\n        /* \"ICO AFFILIATE/ico.sol\":4048:4060  bool success */\n      0x00\n        /* \"ICO AFFILIATE/ico.sol\":4063:4068  token */\n      0x02\n      0x00\n      swap1\n      sload\n      swap1\n      0x0100\n      exp\n      swap1\n      div\n      0xffffffffffffffffffffffffffffffffffffffff\n      and\n        /* \"ICO AFFILIATE/ico.sol\":4063:4077  token.transfer */\n      0xffffffffffffffffffffffffffffffffffffffff\n      and\n      0xa9059cbb\n        /* \"ICO AFFILIATE/ico.sol\":4086:4087  0 */\n      0x00\n        /* \"ICO AFFILIATE/ico.sol\":4090:4105  remainingTokens */\n      dup5\n        /* \"ICO AFFILIATE/ico.sol\":4063:4106  token.transfer(address(0), remainingTokens) */\n      mload(0x40)\n      dup4\n      0xffffffff\n      and\n      0xe0\n      shl\n      dup2\n      mstore\n      0x04\n      add\n      tag_232\n      swap3\n      swap2\n      swap1\n      tag_173\n      jump\t// in\n    tag_232:\n      0x20\n      mload(0x40)\n      dup1\n      dup4\n      sub\n      dup2\n      0x00\n      dup8\n      gas\n      call\n      iszero\n      dup1\n      iszero\n      tag_234\n      jumpi\n      returndatasize\n      0x00\n      dup1\n      returndatacopy\n      revert(0x00, returndatasize)\n    tag_234:\n      pop\n      pop\n      pop\n      pop\n      mload(0x40)\n      returndatasize\n      not(0x1f)\n      0x1f\n      dup3\n      add\n      and\n      dup3\n      add\n      dup1\n      0x40\n      mstore\n      pop\n      dup2\n      add\n      swap1\n      tag_235\n      swap2\n      swap1\n      tag_177\n      jump\t// in\n    tag_235:\n        /* \"ICO AFFILIATE/ico.sol\":4048:4106  bool success = token.transfer(address(0), remainingTokens) */\n      swap1\n      pop\n        /* \"ICO AFFILIATE/ico.sol\":4124:4131  success */\n      dup1\n        /* \"ICO AFFILIATE/ico.sol\":4116:4167  require(success, \"Failed to burn remaining tokens\") */\n      tag_236\n      jumpi\n      mload(0x40)\n      0x08c379a000000000000000000000000000000000000000000000000000000000\n      dup2\n      mstore\n      0x04\n      add\n      tag_237\n      swap1\n      tag_238\n      jump\t// in\n    tag_237:\n      mload(0x40)\n      dup1\n      swap2\n      sub\n      swap1\n      revert\n    tag_236:\n        /* \"ICO AFFILIATE/ico.sol\":4183:4238  TokenBurn(address(0), remainingTokens, block.timestamp) */\n      0xfe9e0b0c1e3e9216717d5f66d10bc310b12c366417e150b4b1af9fb9620bca91\n        /* \"ICO AFFILIATE/ico.sol\":4201:4202  0 */\n      0x00\n        /* \"ICO AFFILIATE/ico.sol\":4205:4220  remainingTokens */\n      dup4\n        /* \"ICO AFFILIATE/ico.sol\":4222:4237  block.timestamp */\n      timestamp\n        /* \"ICO AFFILIATE/ico.sol\":4183:4238  TokenBurn(address(0), remainingTokens, block.timestamp) */\n      mload(0x40)\n      tag_239\n      swap4\n      swap3\n      swap2\n      swap1\n      tag_240\n      jump\t// in\n    tag_239:\n      mload(0x40)\n      dup1\n      swap2\n      sub\n      swap1\n      log1\n        /* \"ICO AFFILIATE/ico.sol\":4255:4259  true */\n      0x01\n        /* \"ICO AFFILIATE/ico.sol\":4248:4259  return true */\n      swap3\n      pop\n      pop\n      pop\n        /* \"ICO AFFILIATE/ico.sol\":3872:4266  function burn() external returns (bool) {... */\n      swap1\n      jump\t// out\n        /* \"ICO AFFILIATE/ico.sol\":4659:4772  function getICOTokenBalance() external view returns (uint) {... */\n    tag_67:\n        /* \"ICO AFFILIATE/ico.sol\":4712:4716  uint */\n      0x00\n        /* \"ICO AFFILIATE/ico.sol\":4735:4740  token */\n      0x02\n      0x00\n      swap1\n      sload\n      swap1\n      0x0100\n      exp\n      swap1\n      div\n      0xffffffffffffffffffffffffffffffffffffffff\n      and\n        /* \"ICO AFFILIATE/ico.sol\":4735:4750  token.balanceOf */\n      0xffffffffffffffffffffffffffffffffffffffff\n      and\n      0x70a08231\n        /* \"ICO AFFILIATE/ico.sol\":4759:4763  this */\n      address\n        /* \"ICO AFFILIATE/ico.sol\":4735:4765  token.balanceOf(address(this)) */\n      mload(0x40)\n      dup3\n      0xffffffff\n      and\n      0xe0\n      shl\n      dup2\n      mstore\n      0x04\n      add\n      tag_242\n      swap2\n      swap1\n      tag_123\n      jump\t// in\n    tag_242:\n      0x20\n      mload(0x40)\n      dup1\n      dup4\n      sub\n      dup2\n      dup7\n      gas\n      staticcall\n      iszero\n      dup1\n      iszero\n      tag_244\n      jumpi\n      returndatasize\n      0x00\n      dup1\n      returndatacopy\n      revert(0x00, returndatasize)\n    tag_244:\n      pop\n      pop\n      pop\n      pop\n      mload(0x40)\n      returndatasize\n      not(0x1f)\n      0x1f\n      dup3\n      add\n      and\n      dup3\n      add\n      dup1\n      0x40\n      mstore\n      pop\n      dup2\n      add\n      swap1\n      tag_245\n      swap2\n      swap1\n      tag_231\n      jump\t// in\n    tag_245:\n        /* \"ICO AFFILIATE/ico.sol\":4728:4765  return token.balanceOf(address(this)) */\n      swap1\n      pop\n        /* \"ICO AFFILIATE/ico.sol\":4659:4772  function getICOTokenBalance() external view returns (uint) {... */\n      swap1\n      jump\t// out\n        /* \"ICO AFFILIATE/ico.sol\":4826:4951  function investorBalanceOf(address _investor) external view returns (uint) {... */\n    tag_72:\n        /* \"ICO AFFILIATE/ico.sol\":4895:4899  uint */\n      0x00\n        /* \"ICO AFFILIATE/ico.sol\":4918:4923  token */\n      0x02\n      0x00\n      swap1\n      sload\n      swap1\n      0x0100\n      exp\n      swap1\n      div\n      0xffffffffffffffffffffffffffffffffffffffff\n      and\n        /* \"ICO AFFILIATE/ico.sol\":4918:4933  token.balanceOf */\n      0xffffffffffffffffffffffffffffffffffffffff\n      and\n      0x70a08231\n        /* \"ICO AFFILIATE/ico.sol\":4934:4943  _investor */\n      dup4\n        /* \"ICO AFFILIATE/ico.sol\":4918:4944  token.balanceOf(_investor) */\n      mload(0x40)\n      dup3\n      0xffffffff\n      and\n      0xe0\n      shl\n      dup2\n      mstore\n      0x04\n      add\n      tag_247\n      swap2\n      swap1\n      tag_123\n      jump\t// in\n    tag_247:\n      0x20\n      mload(0x40)\n      dup1\n      dup4\n      sub\n      dup2\n      dup7\n      gas\n      staticcall\n      iszero\n      dup1\n      iszero\n      tag_249\n      jumpi\n      returndatasize\n      0x00\n      dup1\n      returndatacopy\n      revert(0x00, returndatasize)\n    tag_249:\n      pop\n      pop\n      pop\n      pop\n      mload(0x40)\n      returndatasize\n      not(0x1f)\n      0x1f\n      dup3\n      add\n      and\n      dup3\n      add\n      dup1\n      0x40\n      mstore\n      pop\n      dup2\n      add\n      swap1\n      tag_250\n      swap2\n      swap1\n      tag_231\n      jump\t// in\n    tag_250:\n        /* \"ICO AFFILIATE/ico.sol\":4911:4944  return token.balanceOf(_investor) */\n      swap1\n      pop\n        /* \"ICO AFFILIATE/ico.sol\":4826:4951  function investorBalanceOf(address _investor) external view returns (uint) {... */\n      swap2\n      swap1\n      pop\n      jump\t// out\n        /* \"ICO AFFILIATE/ico.sol\":514:536  uint public icoEndTime */\n    tag_76:\n      sload(0x09)\n      dup2\n      jump\t// out\n        /* \"ICO AFFILIATE/ico.sol\":1846:2090  function startICO() external onlyAdmin {... */\n    tag_80:\n        /* \"ICO AFFILIATE/ico.sol\":1197:1202  admin */\n      0x00\n      dup1\n      sload\n      swap1\n      0x0100\n      exp\n      swap1\n      div\n      0xffffffffffffffffffffffffffffffffffffffff\n      and\n        /* \"ICO AFFILIATE/ico.sol\":1183:1202  msg.sender == admin */\n      0xffffffffffffffffffffffffffffffffffffffff\n      and\n        /* \"ICO AFFILIATE/ico.sol\":1183:1193  msg.sender */\n      caller\n        /* \"ICO AFFILIATE/ico.sol\":1183:1202  msg.sender == admin */\n      0xffffffffffffffffffffffffffffffffffffffff\n      and\n      eq\n        /* \"ICO AFFILIATE/ico.sol\":1175:1226  require(msg.sender == admin, \"Admin Only function\") */\n      tag_252\n      jumpi\n      mload(0x40)\n      0x08c379a000000000000000000000000000000000000000000000000000000000\n      dup2\n      mstore\n      0x04\n      add\n      tag_253\n      swap1\n      tag_185\n      jump\t// in\n    tag_253:\n      mload(0x40)\n      dup1\n      swap2\n      sub\n      swap1\n      revert\n    tag_252:\n        /* \"ICO AFFILIATE/ico.sol\":1915:1927  State.BEFORE */\n      0x00\n        /* \"ICO AFFILIATE/ico.sol\":1903:1927  ICOState == State.BEFORE */\n      0x03\n      dup2\n      gt\n      iszero\n      tag_255\n      jumpi\n      tag_256\n      tag_136\n      jump\t// in\n    tag_256:\n    tag_255:\n        /* \"ICO AFFILIATE/ico.sol\":1903:1911  ICOState */\n      0x0b\n      0x00\n      swap1\n      sload\n      swap1\n      0x0100\n      exp\n      swap1\n      div\n      0xff\n      and\n        /* \"ICO AFFILIATE/ico.sol\":1903:1927  ICOState == State.BEFORE */\n      0x03\n      dup2\n      gt\n      iszero\n      tag_257\n      jumpi\n      tag_258\n      tag_136\n      jump\t// in\n    tag_258:\n    tag_257:\n      eq\n        /* \"ICO AFFILIATE/ico.sol\":1895:1957  require(ICOState == State.BEFORE, \"ICO isn't in before state\") */\n      tag_259\n      jumpi\n      mload(0x40)\n      0x08c379a000000000000000000000000000000000000000000000000000000000\n      dup2\n      mstore\n      0x04\n      add\n      tag_260\n      swap1\n      tag_261\n      jump\t// in\n    tag_260:\n      mload(0x40)\n      dup1\n      swap2\n      sub\n      swap1\n      revert\n    tag_259:\n        /* \"ICO AFFILIATE/ico.sol\":1983:1998  block.timestamp */\n      timestamp\n        /* \"ICO AFFILIATE/ico.sol\":1968:1980  icoStartTime */\n      0x08\n        /* \"ICO AFFILIATE/ico.sol\":1968:1998  icoStartTime = block.timestamp */\n      dup2\n      swap1\n      sstore\n      pop\n        /* \"ICO AFFILIATE/ico.sol\":2037:2048  86400 * 365 */\n      0x01e13380\n        /* \"ICO AFFILIATE/ico.sol\":2021:2033  icoStartTime */\n      sload(0x08)\n        /* \"ICO AFFILIATE/ico.sol\":2021:2049  icoStartTime + (86400 * 365) */\n      tag_262\n      swap2\n      swap1\n      tag_147\n      jump\t// in\n    tag_262:\n        /* \"ICO AFFILIATE/ico.sol\":2008:2018  icoEndTime */\n      0x09\n        /* \"ICO AFFILIATE/ico.sol\":2008:2049  icoEndTime = icoStartTime + (86400 * 365) */\n      dup2\n      swap1\n      sstore\n      pop\n        /* \"ICO AFFILIATE/ico.sol\":2070:2083  State.RUNNING */\n      0x01\n        /* \"ICO AFFILIATE/ico.sol\":2059:2067  ICOState */\n      0x0b\n      0x00\n        /* \"ICO AFFILIATE/ico.sol\":2059:2083  ICOState = State.RUNNING */\n      0x0100\n      exp\n      dup2\n      sload\n      dup2\n      0xff\n      mul\n      not\n      and\n      swap1\n      dup4\n      0x03\n      dup2\n      gt\n      iszero\n      tag_263\n      jumpi\n      tag_264\n      tag_136\n      jump\t// in\n    tag_264:\n    tag_263:\n      mul\n      or\n      swap1\n      sstore\n      pop\n        /* \"ICO AFFILIATE/ico.sol\":1846:2090  function startICO() external onlyAdmin {... */\n      jump\t// out\n        /* \"ICO AFFILIATE/ico.sol\":288:325  uint public tokenPrice = 0.0001 ether */\n    tag_83:\n      sload(0x03)\n      dup2\n      jump\t// out\n        /* \"ICO AFFILIATE/ico.sol\":398:437  uint public minInvestment = 0.001 ether */\n    tag_87:\n      sload(0x06)\n      dup2\n      jump\t// out\n        /* \"ICO AFFILIATE/ico.sol\":2575:2668  function changeAdmin(address _newAdmin) external onlyAdmin {... */\n    tag_92:\n        /* \"ICO AFFILIATE/ico.sol\":1197:1202  admin */\n      0x00\n      dup1\n      sload\n      swap1\n      0x0100\n      exp\n      swap1\n      div\n      0xffffffffffffffffffffffffffffffffffffffff\n      and\n        /* \"ICO AFFILIATE/ico.sol\":1183:1202  msg.sender == admin */\n      0xffffffffffffffffffffffffffffffffffffffff\n      and\n        /* \"ICO AFFILIATE/ico.sol\":1183:1193  msg.sender */\n      caller\n        /* \"ICO AFFILIATE/ico.sol\":1183:1202  msg.sender == admin */\n      0xffffffffffffffffffffffffffffffffffffffff\n      and\n      eq\n        /* \"ICO AFFILIATE/ico.sol\":1175:1226  require(msg.sender == admin, \"Admin Only function\") */\n      tag_266\n      jumpi\n      mload(0x40)\n      0x08c379a000000000000000000000000000000000000000000000000000000000\n      dup2\n      mstore\n      0x04\n      add\n      tag_267\n      swap1\n      tag_185\n      jump\t// in\n    tag_267:\n      mload(0x40)\n      dup1\n      swap2\n      sub\n      swap1\n      revert\n    tag_266:\n        /* \"ICO AFFILIATE/ico.sol\":2652:2661  _newAdmin */\n      dup1\n        /* \"ICO AFFILIATE/ico.sol\":2644:2649  admin */\n      0x00\n      dup1\n        /* \"ICO AFFILIATE/ico.sol\":2644:2661  admin = _newAdmin */\n      0x0100\n      exp\n      dup2\n      sload\n      dup2\n      0xffffffffffffffffffffffffffffffffffffffff\n      mul\n      not\n      and\n      swap1\n      dup4\n      0xffffffffffffffffffffffffffffffffffffffff\n      and\n      mul\n      or\n      swap1\n      sstore\n      pop\n        /* \"ICO AFFILIATE/ico.sol\":2575:2668  function changeAdmin(address _newAdmin) external onlyAdmin {... */\n      pop\n      jump\t// out\n        /* \"ICO AFFILIATE/ico.sol\":2249:2403  function resumeICO() external onlyAdmin {... */\n    tag_95:\n        /* \"ICO AFFILIATE/ico.sol\":1197:1202  admin */\n      0x00\n      dup1\n      sload\n      swap1\n      0x0100\n      exp\n      swap1\n      div\n      0xffffffffffffffffffffffffffffffffffffffff\n      and\n        /* \"ICO AFFILIATE/ico.sol\":1183:1202  msg.sender == admin */\n      0xffffffffffffffffffffffffffffffffffffffff\n      and\n        /* \"ICO AFFILIATE/ico.sol\":1183:1193  msg.sender */\n      caller\n        /* \"ICO AFFILIATE/ico.sol\":1183:1202  msg.sender == admin */\n      0xffffffffffffffffffffffffffffffffffffffff\n      and\n      eq\n        /* \"ICO AFFILIATE/ico.sol\":1175:1226  require(msg.sender == admin, \"Admin Only function\") */\n      tag_270\n      jumpi\n      mload(0x40)\n      0x08c379a000000000000000000000000000000000000000000000000000000000\n      dup2\n      mstore\n      0x04\n      add\n      tag_271\n      swap1\n      tag_185\n      jump\t// in\n    tag_271:\n      mload(0x40)\n      dup1\n      swap2\n      sub\n      swap1\n      revert\n    tag_270:\n        /* \"ICO AFFILIATE/ico.sol\":2319:2331  State.HALTED */\n      0x03\n        /* \"ICO AFFILIATE/ico.sol\":2307:2331  ICOState == State.HALTED */\n      dup1\n      dup2\n      gt\n      iszero\n      tag_273\n      jumpi\n      tag_274\n      tag_136\n      jump\t// in\n    tag_274:\n    tag_273:\n        /* \"ICO AFFILIATE/ico.sol\":2307:2315  ICOState */\n      0x0b\n      0x00\n      swap1\n      sload\n      swap1\n      0x0100\n      exp\n      swap1\n      div\n      0xff\n      and\n        /* \"ICO AFFILIATE/ico.sol\":2307:2331  ICOState == State.HALTED */\n      0x03\n      dup2\n      gt\n      iszero\n      tag_275\n      jumpi\n      tag_276\n      tag_136\n      jump\t// in\n    tag_276:\n    tag_275:\n      eq\n        /* \"ICO AFFILIATE/ico.sol\":2299:2362  require(ICOState == State.HALTED, \"ICO State isn't halted yet\") */\n      tag_277\n      jumpi\n      mload(0x40)\n      0x08c379a000000000000000000000000000000000000000000000000000000000\n      dup2\n      mstore\n      0x04\n      add\n      tag_278\n      swap1\n      tag_279\n      jump\t// in\n    tag_278:\n      mload(0x40)\n      dup1\n      swap2\n      sub\n      swap1\n      revert\n    tag_277:\n        /* \"ICO AFFILIATE/ico.sol\":2383:2396  State.RUNNING */\n      0x01\n        /* \"ICO AFFILIATE/ico.sol\":2372:2380  ICOState */\n      0x0b\n      0x00\n        /* \"ICO AFFILIATE/ico.sol\":2372:2396  ICOState = State.RUNNING */\n      0x0100\n      exp\n      dup2\n      sload\n      dup2\n      0xff\n      mul\n      not\n      and\n      swap1\n      dup4\n      0x03\n      dup2\n      gt\n      iszero\n      tag_280\n      jumpi\n      tag_281\n      tag_136\n      jump\t// in\n    tag_281:\n    tag_280:\n      mul\n      or\n      swap1\n      sstore\n      pop\n        /* \"ICO AFFILIATE/ico.sol\":2249:2403  function resumeICO() external onlyAdmin {... */\n      jump\t// out\n        /* \"ICO AFFILIATE/ico.sol\":484:508  uint public icoStartTime */\n    tag_98:\n      sload(0x08)\n      dup2\n      jump\t// out\n        /* \"ICO AFFILIATE/ico.sol\":193:225  address payable public ICOWallet */\n    tag_102:\n      0x01\n      0x00\n      swap1\n      sload\n      swap1\n      0x0100\n      exp\n      swap1\n      div\n      0xffffffffffffffffffffffffffffffffffffffff\n      and\n      dup2\n      jump\t// out\n        /* \"ICO AFFILIATE/ico.sol\":713:734  State public ICOState */\n    tag_107:\n      0x0b\n      0x00\n      swap1\n      sload\n      swap1\n      0x0100\n      exp\n      swap1\n      div\n      0xff\n      and\n      dup2\n      jump\t// out\n        /* \"ICO AFFILIATE/ico.sol\":368:392  uint public raisedAmount */\n    tag_112:\n      sload(0x05)\n      dup2\n      jump\t// out\n        /* \"ICO AFFILIATE/ico.sol\":4326:4614  function endIco() public {... */\n    tag_116:\n        /* \"ICO AFFILIATE/ico.sol\":4381:4394  State.RUNNING */\n      0x01\n        /* \"ICO AFFILIATE/ico.sol\":4369:4394  ICOState == State.RUNNING */\n      0x03\n      dup2\n      gt\n      iszero\n      tag_283\n      jumpi\n      tag_284\n      tag_136\n      jump\t// in\n    tag_284:\n    tag_283:\n        /* \"ICO AFFILIATE/ico.sol\":4369:4377  ICOState */\n      0x0b\n      0x00\n      swap1\n      sload\n      swap1\n      0x0100\n      exp\n      swap1\n      div\n      0xff\n      and\n        /* \"ICO AFFILIATE/ico.sol\":4369:4394  ICOState == State.RUNNING */\n      0x03\n      dup2\n      gt\n      iszero\n      tag_285\n      jumpi\n      tag_286\n      tag_136\n      jump\t// in\n    tag_286:\n    tag_285:\n      eq\n        /* \"ICO AFFILIATE/ico.sol\":4361:4429  require(ICOState == State.RUNNING, \"ICO Should be in Running State\") */\n      tag_287\n      jumpi\n      mload(0x40)\n      0x08c379a000000000000000000000000000000000000000000000000000000000\n      dup2\n      mstore\n      0x04\n      add\n      tag_288\n      swap1\n      tag_289\n      jump\t// in\n    tag_288:\n      mload(0x40)\n      dup1\n      swap2\n      sub\n      swap1\n      revert\n    tag_287:\n        /* \"ICO AFFILIATE/ico.sol\":4478:4488  icoEndTime */\n      sload(0x09)\n        /* \"ICO AFFILIATE/ico.sol\":4460:4475  block.timestamp */\n      timestamp\n        /* \"ICO AFFILIATE/ico.sol\":4460:4488  block.timestamp > icoEndTime */\n      gt\n        /* \"ICO AFFILIATE/ico.sol\":4460:4515  block.timestamp > icoEndTime || raisedAmount >= hardCap */\n      dup1\n      tag_290\n      jumpi\n      pop\n        /* \"ICO AFFILIATE/ico.sol\":4508:4515  hardCap */\n      sload(0x04)\n        /* \"ICO AFFILIATE/ico.sol\":4492:4504  raisedAmount */\n      sload(0x05)\n        /* \"ICO AFFILIATE/ico.sol\":4492:4515  raisedAmount >= hardCap */\n      lt\n      iszero\n        /* \"ICO AFFILIATE/ico.sol\":4460:4515  block.timestamp > icoEndTime || raisedAmount >= hardCap */\n    tag_290:\n        /* \"ICO AFFILIATE/ico.sol\":4439:4577  require(... */\n      tag_291\n      jumpi\n      mload(0x40)\n      0x08c379a000000000000000000000000000000000000000000000000000000000\n      dup2\n      mstore\n      0x04\n      add\n      tag_292\n      swap1\n      tag_293\n      jump\t// in\n    tag_292:\n      mload(0x40)\n      dup1\n      swap2\n      sub\n      swap1\n      revert\n    tag_291:\n        /* \"ICO AFFILIATE/ico.sol\":4598:4607  State.END */\n      0x02\n        /* \"ICO AFFILIATE/ico.sol\":4587:4595  ICOState */\n      0x0b\n      0x00\n        /* \"ICO AFFILIATE/ico.sol\":4587:4607  ICOState = State.END */\n      0x0100\n      exp\n      dup2\n      sload\n      dup2\n      0xff\n      mul\n      not\n      and\n      swap1\n      dup4\n      0x03\n      dup2\n      gt\n      iszero\n      tag_294\n      jumpi\n      tag_295\n      tag_136\n      jump\t// in\n    tag_295:\n    tag_294:\n      mul\n      or\n      swap1\n      sstore\n      pop\n        /* \"ICO AFFILIATE/ico.sol\":4326:4614  function endIco() public {... */\n      jump\t// out\n        /* \"ICO AFFILIATE/ico.sol\":167:187  address public admin */\n    tag_121:\n      0x00\n      dup1\n      sload\n      swap1\n      0x0100\n      exp\n      swap1\n      div\n      0xffffffffffffffffffffffffffffffffffffffff\n      and\n      dup2\n      jump\t// out\n        /* \"ICO AFFILIATE/ico.sol\":331:362  uint public hardCap = 500 ether */\n    tag_126:\n      sload(0x04)\n      dup2\n      jump\t// out\n        /* \"ICO AFFILIATE/ico.sol\":244:263  IERC20 public token */\n    tag_130:\n      0x02\n      0x00\n      swap1\n      sload\n      swap1\n      0x0100\n      exp\n      swap1\n      div\n      0xffffffffffffffffffffffffffffffffffffffff\n      and\n      dup2\n      jump\t// out\n        /* \"#utility.yul\":7:84   */\n    tag_296:\n        /* \"#utility.yul\":44:51   */\n      0x00\n        /* \"#utility.yul\":73:78   */\n      dup2\n        /* \"#utility.yul\":62:78   */\n      swap1\n      pop\n        /* \"#utility.yul\":7:84   */\n      swap2\n      swap1\n      pop\n      jump\t// out\n        /* \"#utility.yul\":90:208   */\n    tag_297:\n        /* \"#utility.yul\":177:201   */\n      tag_366\n        /* \"#utility.yul\":195:200   */\n      dup2\n        /* \"#utility.yul\":177:201   */\n      tag_296\n      jump\t// in\n    tag_366:\n        /* \"#utility.yul\":172:175   */\n      dup3\n        /* \"#utility.yul\":165:202   */\n      mstore\n        /* \"#utility.yul\":90:208   */\n      pop\n      pop\n      jump\t// out\n        /* \"#utility.yul\":214:436   */\n    tag_40:\n        /* \"#utility.yul\":307:311   */\n      0x00\n        /* \"#utility.yul\":345:347   */\n      0x20\n        /* \"#utility.yul\":334:343   */\n      dup3\n        /* \"#utility.yul\":330:348   */\n      add\n        /* \"#utility.yul\":322:348   */\n      swap1\n      pop\n        /* \"#utility.yul\":358:429   */\n      tag_368\n        /* \"#utility.yul\":426:427   */\n      0x00\n        /* \"#utility.yul\":415:424   */\n      dup4\n        /* \"#utility.yul\":411:428   */\n      add\n        /* \"#utility.yul\":402:408   */\n      dup5\n        /* \"#utility.yul\":358:429   */\n      tag_297\n      jump\t// in\n    tag_368:\n        /* \"#utility.yul\":214:436   */\n      swap3\n      swap2\n      pop\n      pop\n      jump\t// out\n        /* \"#utility.yul\":523:640   */\n    tag_299:\n        /* \"#utility.yul\":632:633   */\n      0x00\n        /* \"#utility.yul\":629:630   */\n      dup1\n        /* \"#utility.yul\":622:634   */\n      revert\n        /* \"#utility.yul\":769:895   */\n    tag_301:\n        /* \"#utility.yul\":806:813   */\n      0x00\n        /* \"#utility.yul\":846:888   */\n      0xffffffffffffffffffffffffffffffffffffffff\n        /* \"#utility.yul\":839:844   */\n      dup3\n        /* \"#utility.yul\":835:889   */\n      and\n        /* \"#utility.yul\":824:889   */\n      swap1\n      pop\n        /* \"#utility.yul\":769:895   */\n      swap2\n      swap1\n      pop\n      jump\t// out\n        /* \"#utility.yul\":901:1005   */\n    tag_302:\n        /* \"#utility.yul\":946:953   */\n      0x00\n        /* \"#utility.yul\":975:999   */\n      tag_374\n        /* \"#utility.yul\":993:998   */\n      dup3\n        /* \"#utility.yul\":975:999   */\n      tag_301\n      jump\t// in\n    tag_374:\n        /* \"#utility.yul\":964:999   */\n      swap1\n      pop\n        /* \"#utility.yul\":901:1005   */\n      swap2\n      swap1\n      pop\n      jump\t// out\n        /* \"#utility.yul\":1011:1149   */\n    tag_303:\n        /* \"#utility.yul\":1092:1124   */\n      tag_376\n        /* \"#utility.yul\":1118:1123   */\n      dup2\n        /* \"#utility.yul\":1092:1124   */\n      tag_302\n      jump\t// in\n    tag_376:\n        /* \"#utility.yul\":1085:1090   */\n      dup2\n        /* \"#utility.yul\":1082:1125   */\n      eq\n        /* \"#utility.yul\":1072:1143   */\n      tag_377\n      jumpi\n        /* \"#utility.yul\":1139:1140   */\n      0x00\n        /* \"#utility.yul\":1136:1137   */\n      dup1\n        /* \"#utility.yul\":1129:1141   */\n      revert\n        /* \"#utility.yul\":1072:1143   */\n    tag_377:\n        /* \"#utility.yul\":1011:1149   */\n      pop\n      jump\t// out\n        /* \"#utility.yul\":1155:1310   */\n    tag_304:\n        /* \"#utility.yul\":1209:1214   */\n      0x00\n        /* \"#utility.yul\":1247:1253   */\n      dup2\n        /* \"#utility.yul\":1234:1254   */\n      calldataload\n        /* \"#utility.yul\":1225:1254   */\n      swap1\n      pop\n        /* \"#utility.yul\":1263:1304   */\n      tag_379\n        /* \"#utility.yul\":1298:1303   */\n      dup2\n        /* \"#utility.yul\":1263:1304   */\n      tag_303\n      jump\t// in\n    tag_379:\n        /* \"#utility.yul\":1155:1310   */\n      swap3\n      swap2\n      pop\n      pop\n      jump\t// out\n        /* \"#utility.yul\":1316:1661   */\n    tag_44:\n        /* \"#utility.yul\":1383:1389   */\n      0x00\n        /* \"#utility.yul\":1432:1434   */\n      0x20\n        /* \"#utility.yul\":1420:1429   */\n      dup3\n        /* \"#utility.yul\":1411:1418   */\n      dup5\n        /* \"#utility.yul\":1407:1430   */\n      sub\n        /* \"#utility.yul\":1403:1435   */\n      slt\n        /* \"#utility.yul\":1400:1519   */\n      iszero\n      tag_381\n      jumpi\n        /* \"#utility.yul\":1438:1517   */\n      tag_382\n      tag_299\n      jump\t// in\n    tag_382:\n        /* \"#utility.yul\":1400:1519   */\n    tag_381:\n        /* \"#utility.yul\":1558:1559   */\n      0x00\n        /* \"#utility.yul\":1583:1644   */\n      tag_383\n        /* \"#utility.yul\":1636:1643   */\n      dup5\n        /* \"#utility.yul\":1627:1633   */\n      dup3\n        /* \"#utility.yul\":1616:1625   */\n      dup6\n        /* \"#utility.yul\":1612:1634   */\n      add\n        /* \"#utility.yul\":1583:1644   */\n      tag_304\n      jump\t// in\n    tag_383:\n        /* \"#utility.yul\":1573:1644   */\n      swap2\n      pop\n        /* \"#utility.yul\":1529:1654   */\n      pop\n        /* \"#utility.yul\":1316:1661   */\n      swap3\n      swap2\n      pop\n      pop\n      jump\t// out\n        /* \"#utility.yul\":1667:1763   */\n    tag_305:\n        /* \"#utility.yul\":1704:1711   */\n      0x00\n        /* \"#utility.yul\":1733:1757   */\n      tag_385\n        /* \"#utility.yul\":1751:1756   */\n      dup3\n        /* \"#utility.yul\":1733:1757   */\n      tag_301\n      jump\t// in\n    tag_385:\n        /* \"#utility.yul\":1722:1757   */\n      swap1\n      pop\n        /* \"#utility.yul\":1667:1763   */\n      swap2\n      swap1\n      pop\n      jump\t// out\n        /* \"#utility.yul\":1769:1891   */\n    tag_306:\n        /* \"#utility.yul\":1842:1866   */\n      tag_387\n        /* \"#utility.yul\":1860:1865   */\n      dup2\n        /* \"#utility.yul\":1842:1866   */\n      tag_305\n      jump\t// in\n    tag_387:\n        /* \"#utility.yul\":1835:1840   */\n      dup2\n        /* \"#utility.yul\":1832:1867   */\n      eq\n        /* \"#utility.yul\":1822:1885   */\n      tag_388\n      jumpi\n        /* \"#utility.yul\":1881:1882   */\n      0x00\n        /* \"#utility.yul\":1878:1879   */\n      dup1\n        /* \"#utility.yul\":1871:1883   */\n      revert\n        /* \"#utility.yul\":1822:1885   */\n    tag_388:\n        /* \"#utility.yul\":1769:1891   */\n      pop\n      jump\t// out\n        /* \"#utility.yul\":1897:2036   */\n    tag_307:\n        /* \"#utility.yul\":1943:1948   */\n      0x00\n        /* \"#utility.yul\":1981:1987   */\n      dup2\n        /* \"#utility.yul\":1968:1988   */\n      calldataload\n        /* \"#utility.yul\":1959:1988   */\n      swap1\n      pop\n        /* \"#utility.yul\":1997:2030   */\n      tag_390\n        /* \"#utility.yul\":2024:2029   */\n      dup2\n        /* \"#utility.yul\":1997:2030   */\n      tag_306\n      jump\t// in\n    tag_390:\n        /* \"#utility.yul\":1897:2036   */\n      swap3\n      swap2\n      pop\n      pop\n      jump\t// out\n        /* \"#utility.yul\":2042:2371   */\n    tag_52:\n        /* \"#utility.yul\":2101:2107   */\n      0x00\n        /* \"#utility.yul\":2150:2152   */\n      0x20\n        /* \"#utility.yul\":2138:2147   */\n      dup3\n        /* \"#utility.yul\":2129:2136   */\n      dup5\n        /* \"#utility.yul\":2125:2148   */\n      sub\n        /* \"#utility.yul\":2121:2153   */\n      slt\n        /* \"#utility.yul\":2118:2237   */\n      iszero\n      tag_392\n      jumpi\n        /* \"#utility.yul\":2156:2235   */\n      tag_393\n      tag_299\n      jump\t// in\n    tag_393:\n        /* \"#utility.yul\":2118:2237   */\n    tag_392:\n        /* \"#utility.yul\":2276:2277   */\n      0x00\n        /* \"#utility.yul\":2301:2354   */\n      tag_394\n        /* \"#utility.yul\":2346:2353   */\n      dup5\n        /* \"#utility.yul\":2337:2343   */\n      dup3\n        /* \"#utility.yul\":2326:2335   */\n      dup6\n        /* \"#utility.yul\":2322:2344   */\n      add\n        /* \"#utility.yul\":2301:2354   */\n      tag_307\n      jump\t// in\n    tag_394:\n        /* \"#utility.yul\":2291:2354   */\n      swap2\n      pop\n        /* \"#utility.yul\":2247:2364   */\n      pop\n        /* \"#utility.yul\":2042:2371   */\n      swap3\n      swap2\n      pop\n      pop\n      jump\t// out\n        /* \"#utility.yul\":2377:2476   */\n    tag_308:\n        /* \"#utility.yul\":2429:2435   */\n      0x00\n        /* \"#utility.yul\":2463:2468   */\n      dup2\n        /* \"#utility.yul\":2457:2469   */\n      mload\n        /* \"#utility.yul\":2447:2469   */\n      swap1\n      pop\n        /* \"#utility.yul\":2377:2476   */\n      swap2\n      swap1\n      pop\n      jump\t// out\n        /* \"#utility.yul\":2482:2651   */\n    tag_309:\n        /* \"#utility.yul\":2566:2577   */\n      0x00\n        /* \"#utility.yul\":2600:2606   */\n      dup3\n        /* \"#utility.yul\":2595:2598   */\n      dup3\n        /* \"#utility.yul\":2588:2607   */\n      mstore\n        /* \"#utility.yul\":2640:2644   */\n      0x20\n        /* \"#utility.yul\":2635:2638   */\n      dup3\n        /* \"#utility.yul\":2631:2645   */\n      add\n        /* \"#utility.yul\":2616:2645   */\n      swap1\n      pop\n        /* \"#utility.yul\":2482:2651   */\n      swap3\n      swap2\n      pop\n      pop\n      jump\t// out\n        /* \"#utility.yul\":2657:2903   */\n    tag_310:\n        /* \"#utility.yul\":2738:2739   */\n      0x00\n        /* \"#utility.yul\":2748:2861   */\n    tag_398:\n        /* \"#utility.yul\":2762:2768   */\n      dup4\n        /* \"#utility.yul\":2759:2760   */\n      dup2\n        /* \"#utility.yul\":2756:2769   */\n      lt\n        /* \"#utility.yul\":2748:2861   */\n      iszero\n      tag_400\n      jumpi\n        /* \"#utility.yul\":2847:2848   */\n      dup1\n        /* \"#utility.yul\":2842:2845   */\n      dup3\n        /* \"#utility.yul\":2838:2849   */\n      add\n        /* \"#utility.yul\":2832:2850   */\n      mload\n        /* \"#utility.yul\":2828:2829   */\n      dup2\n        /* \"#utility.yul\":2823:2826   */\n      dup5\n        /* \"#utility.yul\":2819:2830   */\n      add\n        /* \"#utility.yul\":2812:2851   */\n      mstore\n        /* \"#utility.yul\":2784:2786   */\n      0x20\n        /* \"#utility.yul\":2781:2782   */\n      dup2\n        /* \"#utility.yul\":2777:2787   */\n      add\n        /* \"#utility.yul\":2772:2787   */\n      swap1\n      pop\n        /* \"#utility.yul\":2748:2861   */\n      jump(tag_398)\n    tag_400:\n        /* \"#utility.yul\":2895:2896   */\n      0x00\n        /* \"#utility.yul\":2886:2892   */\n      dup5\n        /* \"#utility.yul\":2881:2884   */\n      dup5\n        /* \"#utility.yul\":2877:2893   */\n      add\n        /* \"#utility.yul\":2870:2897   */\n      mstore\n        /* \"#utility.yul\":2719:2903   */\n      pop\n        /* \"#utility.yul\":2657:2903   */\n      pop\n      pop\n      pop\n      jump\t// out\n        /* \"#utility.yul\":2909:3011   */\n    tag_311:\n        /* \"#utility.yul\":2950:2956   */\n      0x00\n        /* \"#utility.yul\":3001:3003   */\n      0x1f\n        /* \"#utility.yul\":2997:3004   */\n      not\n        /* \"#utility.yul\":2992:2994   */\n      0x1f\n        /* \"#utility.yul\":2985:2990   */\n      dup4\n        /* \"#utility.yul\":2981:2995   */\n      add\n        /* \"#utility.yul\":2977:3005   */\n      and\n        /* \"#utility.yul\":2967:3005   */\n      swap1\n      pop\n        /* \"#utility.yul\":2909:3011   */\n      swap2\n      swap1\n      pop\n      jump\t// out\n        /* \"#utility.yul\":3017:3394   */\n    tag_312:\n        /* \"#utility.yul\":3105:3108   */\n      0x00\n        /* \"#utility.yul\":3133:3172   */\n      tag_403\n        /* \"#utility.yul\":3166:3171   */\n      dup3\n        /* \"#utility.yul\":3133:3172   */\n      tag_308\n      jump\t// in\n    tag_403:\n        /* \"#utility.yul\":3188:3259   */\n      tag_404\n        /* \"#utility.yul\":3252:3258   */\n      dup2\n        /* \"#utility.yul\":3247:3250   */\n      dup6\n        /* \"#utility.yul\":3188:3259   */\n      tag_309\n      jump\t// in\n    tag_404:\n        /* \"#utility.yul\":3181:3259   */\n      swap4\n      pop\n        /* \"#utility.yul\":3268:3333   */\n      tag_405\n        /* \"#utility.yul\":3326:3332   */\n      dup2\n        /* \"#utility.yul\":3321:3324   */\n      dup6\n        /* \"#utility.yul\":3314:3318   */\n      0x20\n        /* \"#utility.yul\":3307:3312   */\n      dup7\n        /* \"#utility.yul\":3303:3319   */\n      add\n        /* \"#utility.yul\":3268:3333   */\n      tag_310\n      jump\t// in\n    tag_405:\n        /* \"#utility.yul\":3358:3387   */\n      tag_406\n        /* \"#utility.yul\":3380:3386   */\n      dup2\n        /* \"#utility.yul\":3358:3387   */\n      tag_311\n      jump\t// in\n    tag_406:\n        /* \"#utility.yul\":3353:3356   */\n      dup5\n        /* \"#utility.yul\":3349:3388   */\n      add\n        /* \"#utility.yul\":3342:3388   */\n      swap2\n      pop\n        /* \"#utility.yul\":3109:3394   */\n      pop\n        /* \"#utility.yul\":3017:3394   */\n      swap3\n      swap2\n      pop\n      pop\n      jump\t// out\n        /* \"#utility.yul\":3400:3713   */\n    tag_59:\n        /* \"#utility.yul\":3513:3517   */\n      0x00\n        /* \"#utility.yul\":3551:3553   */\n      0x20\n        /* \"#utility.yul\":3540:3549   */\n      dup3\n        /* \"#utility.yul\":3536:3554   */\n      add\n        /* \"#utility.yul\":3528:3554   */\n      swap1\n      pop\n        /* \"#utility.yul\":3600:3609   */\n      dup2\n        /* \"#utility.yul\":3594:3598   */\n      dup2\n        /* \"#utility.yul\":3590:3610   */\n      sub\n        /* \"#utility.yul\":3586:3587   */\n      0x00\n        /* \"#utility.yul\":3575:3584   */\n      dup4\n        /* \"#utility.yul\":3571:3588   */\n      add\n        /* \"#utility.yul\":3564:3611   */\n      mstore\n        /* \"#utility.yul\":3628:3706   */\n      tag_408\n        /* \"#utility.yul\":3701:3705   */\n      dup2\n        /* \"#utility.yul\":3692:3698   */\n      dup5\n        /* \"#utility.yul\":3628:3706   */\n      tag_312\n      jump\t// in\n    tag_408:\n        /* \"#utility.yul\":3620:3706   */\n      swap1\n      pop\n        /* \"#utility.yul\":3400:3713   */\n      swap3\n      swap2\n      pop\n      pop\n      jump\t// out\n        /* \"#utility.yul\":3719:3809   */\n    tag_313:\n        /* \"#utility.yul\":3753:3760   */\n      0x00\n        /* \"#utility.yul\":3796:3801   */\n      dup2\n        /* \"#utility.yul\":3789:3802   */\n      iszero\n        /* \"#utility.yul\":3782:3803   */\n      iszero\n        /* \"#utility.yul\":3771:3803   */\n      swap1\n      pop\n        /* \"#utility.yul\":3719:3809   */\n      swap2\n      swap1\n      pop\n      jump\t// out\n        /* \"#utility.yul\":3815:3924   */\n    tag_314:\n        /* \"#utility.yul\":3896:3917   */\n      tag_411\n        /* \"#utility.yul\":3911:3916   */\n      dup2\n        /* \"#utility.yul\":3896:3917   */\n      tag_313\n      jump\t// in\n    tag_411:\n        /* \"#utility.yul\":3891:3894   */\n      dup3\n        /* \"#utility.yul\":3884:3918   */\n      mstore\n        /* \"#utility.yul\":3815:3924   */\n      pop\n      pop\n      jump\t// out\n        /* \"#utility.yul\":3930:4140   */\n    tag_64:\n        /* \"#utility.yul\":4017:4021   */\n      0x00\n        /* \"#utility.yul\":4055:4057   */\n      0x20\n        /* \"#utility.yul\":4044:4053   */\n      dup3\n        /* \"#utility.yul\":4040:4058   */\n      add\n        /* \"#utility.yul\":4032:4058   */\n      swap1\n      pop\n        /* \"#utility.yul\":4068:4133   */\n      tag_413\n        /* \"#utility.yul\":4130:4131   */\n      0x00\n        /* \"#utility.yul\":4119:4128   */\n      dup4\n        /* \"#utility.yul\":4115:4132   */\n      add\n        /* \"#utility.yul\":4106:4112   */\n      dup5\n        /* \"#utility.yul\":4068:4133   */\n      tag_314\n      jump\t// in\n    tag_413:\n        /* \"#utility.yul\":3930:4140   */\n      swap3\n      swap2\n      pop\n      pop\n      jump\t// out\n        /* \"#utility.yul\":4146:4288   */\n    tag_315:\n        /* \"#utility.yul\":4249:4281   */\n      tag_415\n        /* \"#utility.yul\":4275:4280   */\n      dup2\n        /* \"#utility.yul\":4249:4281   */\n      tag_302\n      jump\t// in\n    tag_415:\n        /* \"#utility.yul\":4244:4247   */\n      dup3\n        /* \"#utility.yul\":4237:4282   */\n      mstore\n        /* \"#utility.yul\":4146:4288   */\n      pop\n      pop\n      jump\t// out\n        /* \"#utility.yul\":4294:4548   */\n    tag_104:\n        /* \"#utility.yul\":4403:4407   */\n      0x00\n        /* \"#utility.yul\":4441:4443   */\n      0x20\n        /* \"#utility.yul\":4430:4439   */\n      dup3\n        /* \"#utility.yul\":4426:4444   */\n      add\n        /* \"#utility.yul\":4418:4444   */\n      swap1\n      pop\n        /* \"#utility.yul\":4454:4541   */\n      tag_417\n        /* \"#utility.yul\":4538:4539   */\n      0x00\n        /* \"#utility.yul\":4527:4536   */\n      dup4\n        /* \"#utility.yul\":4523:4540   */\n      add\n        /* \"#utility.yul\":4514:4520   */\n      dup5\n        /* \"#utility.yul\":4454:4541   */\n      tag_315\n      jump\t// in\n    tag_417:\n        /* \"#utility.yul\":4294:4548   */\n      swap3\n      swap2\n      pop\n      pop\n      jump\t// out\n        /* \"#utility.yul\":4554:4734   */\n    tag_136:\n        /* \"#utility.yul\":4602:4679   */\n      0x4e487b7100000000000000000000000000000000000000000000000000000000\n        /* \"#utility.yul\":4599:4600   */\n      0x00\n        /* \"#utility.yul\":4592:4680   */\n      mstore\n        /* \"#utility.yul\":4699:4703   */\n      0x21\n        /* \"#utility.yul\":4696:4697   */\n      0x04\n        /* \"#utility.yul\":4689:4704   */\n      mstore\n        /* \"#utility.yul\":4723:4727   */\n      0x24\n        /* \"#utility.yul\":4720:4721   */\n      0x00\n        /* \"#utility.yul\":4713:4728   */\n      revert\n        /* \"#utility.yul\":4740:4854   */\n    tag_316:\n        /* \"#utility.yul\":4822:4823   */\n      0x04\n        /* \"#utility.yul\":4815:4820   */\n      dup2\n        /* \"#utility.yul\":4812:4824   */\n      lt\n        /* \"#utility.yul\":4802:4848   */\n      tag_420\n      jumpi\n        /* \"#utility.yul\":4828:4846   */\n      tag_421\n      tag_136\n      jump\t// in\n    tag_421:\n        /* \"#utility.yul\":4802:4848   */\n    tag_420:\n        /* \"#utility.yul\":4740:4854   */\n      pop\n      jump\t// out\n        /* \"#utility.yul\":4860:4989   */\n    tag_317:\n        /* \"#utility.yul\":4906:4913   */\n      0x00\n        /* \"#utility.yul\":4935:4940   */\n      dup2\n        /* \"#utility.yul\":4924:4940   */\n      swap1\n      pop\n        /* \"#utility.yul\":4941:4983   */\n      tag_423\n        /* \"#utility.yul\":4977:4982   */\n      dup3\n        /* \"#utility.yul\":4941:4983   */\n      tag_316\n      jump\t// in\n    tag_423:\n        /* \"#utility.yul\":4860:4989   */\n      swap2\n      swap1\n      pop\n      jump\t// out\n        /* \"#utility.yul\":4995:5124   */\n    tag_318:\n        /* \"#utility.yul\":5052:5061   */\n      0x00\n        /* \"#utility.yul\":5085:5118   */\n      tag_425\n        /* \"#utility.yul\":5112:5117   */\n      dup3\n        /* \"#utility.yul\":5085:5118   */\n      tag_317\n      jump\t// in\n    tag_425:\n        /* \"#utility.yul\":5072:5118   */\n      swap1\n      pop\n        /* \"#utility.yul\":4995:5124   */\n      swap2\n      swap1\n      pop\n      jump\t// out\n        /* \"#utility.yul\":5130:5275   */\n    tag_319:\n        /* \"#utility.yul\":5224:5268   */\n      tag_427\n        /* \"#utility.yul\":5262:5267   */\n      dup2\n        /* \"#utility.yul\":5224:5268   */\n      tag_318\n      jump\t// in\n    tag_427:\n        /* \"#utility.yul\":5219:5222   */\n      dup3\n        /* \"#utility.yul\":5212:5269   */\n      mstore\n        /* \"#utility.yul\":5130:5275   */\n      pop\n      pop\n      jump\t// out\n        /* \"#utility.yul\":5281:5517   */\n    tag_109:\n        /* \"#utility.yul\":5381:5385   */\n      0x00\n        /* \"#utility.yul\":5419:5421   */\n      0x20\n        /* \"#utility.yul\":5408:5417   */\n      dup3\n        /* \"#utility.yul\":5404:5422   */\n      add\n        /* \"#utility.yul\":5396:5422   */\n      swap1\n      pop\n        /* \"#utility.yul\":5432:5510   */\n      tag_429\n        /* \"#utility.yul\":5507:5508   */\n      0x00\n        /* \"#utility.yul\":5496:5505   */\n      dup4\n        /* \"#utility.yul\":5492:5509   */\n      add\n        /* \"#utility.yul\":5483:5489   */\n      dup5\n        /* \"#utility.yul\":5432:5510   */\n      tag_319\n      jump\t// in\n    tag_429:\n        /* \"#utility.yul\":5281:5517   */\n      swap3\n      swap2\n      pop\n      pop\n      jump\t// out\n        /* \"#utility.yul\":5523:5641   */\n    tag_320:\n        /* \"#utility.yul\":5610:5634   */\n      tag_431\n        /* \"#utility.yul\":5628:5633   */\n      dup2\n        /* \"#utility.yul\":5610:5634   */\n      tag_305\n      jump\t// in\n    tag_431:\n        /* \"#utility.yul\":5605:5608   */\n      dup3\n        /* \"#utility.yul\":5598:5635   */\n      mstore\n        /* \"#utility.yul\":5523:5641   */\n      pop\n      pop\n      jump\t// out\n        /* \"#utility.yul\":5647:5869   */\n    tag_123:\n        /* \"#utility.yul\":5740:5744   */\n      0x00\n        /* \"#utility.yul\":5778:5780   */\n      0x20\n        /* \"#utility.yul\":5767:5776   */\n      dup3\n        /* \"#utility.yul\":5763:5781   */\n      add\n        /* \"#utility.yul\":5755:5781   */\n      swap1\n      pop\n        /* \"#utility.yul\":5791:5862   */\n      tag_433\n        /* \"#utility.yul\":5859:5860   */\n      0x00\n        /* \"#utility.yul\":5848:5857   */\n      dup4\n        /* \"#utility.yul\":5844:5861   */\n      add\n        /* \"#utility.yul\":5835:5841   */\n      dup5\n        /* \"#utility.yul\":5791:5862   */\n      tag_320\n      jump\t// in\n    tag_433:\n        /* \"#utility.yul\":5647:5869   */\n      swap3\n      swap2\n      pop\n      pop\n      jump\t// out\n        /* \"#utility.yul\":5875:5935   */\n    tag_321:\n        /* \"#utility.yul\":5903:5906   */\n      0x00\n        /* \"#utility.yul\":5924:5929   */\n      dup2\n        /* \"#utility.yul\":5917:5929   */\n      swap1\n      pop\n        /* \"#utility.yul\":5875:5935   */\n      swap2\n      swap1\n      pop\n      jump\t// out\n        /* \"#utility.yul\":5941:6083   */\n    tag_322:\n        /* \"#utility.yul\":5991:6000   */\n      0x00\n        /* \"#utility.yul\":6024:6077   */\n      tag_436\n        /* \"#utility.yul\":6042:6076   */\n      tag_437\n        /* \"#utility.yul\":6051:6075   */\n      tag_438\n        /* \"#utility.yul\":6069:6074   */\n      dup5\n        /* \"#utility.yul\":6051:6075   */\n      tag_301\n      jump\t// in\n    tag_438:\n        /* \"#utility.yul\":6042:6076   */\n      tag_321\n      jump\t// in\n    tag_437:\n        /* \"#utility.yul\":6024:6077   */\n      tag_301\n      jump\t// in\n    tag_436:\n        /* \"#utility.yul\":6011:6077   */\n      swap1\n      pop\n        /* \"#utility.yul\":5941:6083   */\n      swap2\n      swap1\n      pop\n      jump\t// out\n        /* \"#utility.yul\":6089:6215   */\n    tag_323:\n        /* \"#utility.yul\":6139:6148   */\n      0x00\n        /* \"#utility.yul\":6172:6209   */\n      tag_440\n        /* \"#utility.yul\":6203:6208   */\n      dup3\n        /* \"#utility.yul\":6172:6209   */\n      tag_322\n      jump\t// in\n    tag_440:\n        /* \"#utility.yul\":6159:6209   */\n      swap1\n      pop\n        /* \"#utility.yul\":6089:6215   */\n      swap2\n      swap1\n      pop\n      jump\t// out\n        /* \"#utility.yul\":6221:6360   */\n    tag_324:\n        /* \"#utility.yul\":6284:6293   */\n      0x00\n        /* \"#utility.yul\":6317:6354   */\n      tag_442\n        /* \"#utility.yul\":6348:6353   */\n      dup3\n        /* \"#utility.yul\":6317:6354   */\n      tag_323\n      jump\t// in\n    tag_442:\n        /* \"#utility.yul\":6304:6354   */\n      swap1\n      pop\n        /* \"#utility.yul\":6221:6360   */\n      swap2\n      swap1\n      pop\n      jump\t// out\n        /* \"#utility.yul\":6366:6523   */\n    tag_325:\n        /* \"#utility.yul\":6466:6516   */\n      tag_444\n        /* \"#utility.yul\":6510:6515   */\n      dup2\n        /* \"#utility.yul\":6466:6516   */\n      tag_324\n      jump\t// in\n    tag_444:\n        /* \"#utility.yul\":6461:6464   */\n      dup3\n        /* \"#utility.yul\":6454:6517   */\n      mstore\n        /* \"#utility.yul\":6366:6523   */\n      pop\n      pop\n      jump\t// out\n        /* \"#utility.yul\":6529:6777   */\n    tag_132:\n        /* \"#utility.yul\":6635:6639   */\n      0x00\n        /* \"#utility.yul\":6673:6675   */\n      0x20\n        /* \"#utility.yul\":6662:6671   */\n      dup3\n        /* \"#utility.yul\":6658:6676   */\n      add\n        /* \"#utility.yul\":6650:6676   */\n      swap1\n      pop\n        /* \"#utility.yul\":6686:6770   */\n      tag_446\n        /* \"#utility.yul\":6767:6768   */\n      0x00\n        /* \"#utility.yul\":6756:6765   */\n      dup4\n        /* \"#utility.yul\":6752:6769   */\n      add\n        /* \"#utility.yul\":6743:6749   */\n      dup5\n        /* \"#utility.yul\":6686:6770   */\n      tag_325\n      jump\t// in\n    tag_446:\n        /* \"#utility.yul\":6529:6777   */\n      swap3\n      swap2\n      pop\n      pop\n      jump\t// out\n        /* \"#utility.yul\":6783:6950   */\n    tag_326:\n        /* \"#utility.yul\":6923:6942   */\n      0x49434f2069736e27742072756e6e696e67000000000000000000000000000000\n        /* \"#utility.yul\":6919:6920   */\n      0x00\n        /* \"#utility.yul\":6911:6917   */\n      dup3\n        /* \"#utility.yul\":6907:6921   */\n      add\n        /* \"#utility.yul\":6900:6943   */\n      mstore\n        /* \"#utility.yul\":6783:6950   */\n      pop\n      jump\t// out\n        /* \"#utility.yul\":6956:7322   */\n    tag_327:\n        /* \"#utility.yul\":7098:7101   */\n      0x00\n        /* \"#utility.yul\":7119:7186   */\n      tag_449\n        /* \"#utility.yul\":7183:7185   */\n      0x11\n        /* \"#utility.yul\":7178:7181   */\n      dup4\n        /* \"#utility.yul\":7119:7186   */\n      tag_309\n      jump\t// in\n    tag_449:\n        /* \"#utility.yul\":7112:7186   */\n      swap2\n      pop\n        /* \"#utility.yul\":7195:7288   */\n      tag_450\n        /* \"#utility.yul\":7284:7287   */\n      dup3\n        /* \"#utility.yul\":7195:7288   */\n      tag_326\n      jump\t// in\n    tag_450:\n        /* \"#utility.yul\":7313:7315   */\n      0x20\n        /* \"#utility.yul\":7308:7311   */\n      dup3\n        /* \"#utility.yul\":7304:7316   */\n      add\n        /* \"#utility.yul\":7297:7316   */\n      swap1\n      pop\n        /* \"#utility.yul\":6956:7322   */\n      swap2\n      swap1\n      pop\n      jump\t// out\n        /* \"#utility.yul\":7328:7747   */\n    tag_141:\n        /* \"#utility.yul\":7494:7498   */\n      0x00\n        /* \"#utility.yul\":7532:7534   */\n      0x20\n        /* \"#utility.yul\":7521:7530   */\n      dup3\n        /* \"#utility.yul\":7517:7535   */\n      add\n        /* \"#utility.yul\":7509:7535   */\n      swap1\n      pop\n        /* \"#utility.yul\":7581:7590   */\n      dup2\n        /* \"#utility.yul\":7575:7579   */\n      dup2\n        /* \"#utility.yul\":7571:7591   */\n      sub\n        /* \"#utility.yul\":7567:7568   */\n      0x00\n        /* \"#utility.yul\":7556:7565   */\n      dup4\n        /* \"#utility.yul\":7552:7569   */\n      add\n        /* \"#utility.yul\":7545:7592   */\n      mstore\n        /* \"#utility.yul\":7609:7740   */\n      tag_452\n        /* \"#utility.yul\":7735:7739   */\n      dup2\n        /* \"#utility.yul\":7609:7740   */\n      tag_327\n      jump\t// in\n    tag_452:\n        /* \"#utility.yul\":7601:7740   */\n      swap1\n      pop\n        /* \"#utility.yul\":7328:7747   */\n      swap2\n      swap1\n      pop\n      jump\t// out\n        /* \"#utility.yul\":7753:7931   */\n    tag_328:\n        /* \"#utility.yul\":7893:7923   */\n      0x436865636b204d696e20616e64204d617820496e766573746d656e7400000000\n        /* \"#utility.yul\":7889:7890   */\n      0x00\n        /* \"#utility.yul\":7881:7887   */\n      dup3\n        /* \"#utility.yul\":7877:7891   */\n      add\n        /* \"#utility.yul\":7870:7924   */\n      mstore\n        /* \"#utility.yul\":7753:7931   */\n      pop\n      jump\t// out\n        /* \"#utility.yul\":7937:8303   */\n    tag_329:\n        /* \"#utility.yul\":8079:8082   */\n      0x00\n        /* \"#utility.yul\":8100:8167   */\n      tag_455\n        /* \"#utility.yul\":8164:8166   */\n      0x1c\n        /* \"#utility.yul\":8159:8162   */\n      dup4\n        /* \"#utility.yul\":8100:8167   */\n      tag_309\n      jump\t// in\n    tag_455:\n        /* \"#utility.yul\":8093:8167   */\n      swap2\n      pop\n        /* \"#utility.yul\":8176:8269   */\n      tag_456\n        /* \"#utility.yul\":8265:8268   */\n      dup3\n        /* \"#utility.yul\":8176:8269   */\n      tag_328\n      jump\t// in\n    tag_456:\n        /* \"#utility.yul\":8294:8296   */\n      0x20\n        /* \"#utility.yul\":8289:8292   */\n      dup3\n        /* \"#utility.yul\":8285:8297   */\n      add\n        /* \"#utility.yul\":8278:8297   */\n      swap1\n      pop\n        /* \"#utility.yul\":7937:8303   */\n      swap2\n      swap1\n      pop\n      jump\t// out\n        /* \"#utility.yul\":8309:8728   */\n    tag_145:\n        /* \"#utility.yul\":8475:8479   */\n      0x00\n        /* \"#utility.yul\":8513:8515   */\n      0x20\n        /* \"#utility.yul\":8502:8511   */\n      dup3\n        /* \"#utility.yul\":8498:8516   */\n      add\n        /* \"#utility.yul\":8490:8516   */\n      swap1\n      pop\n        /* \"#utility.yul\":8562:8571   */\n      dup2\n        /* \"#utility.yul\":8556:8560   */\n      dup2\n        /* \"#utility.yul\":8552:8572   */\n      sub\n        /* \"#utility.yul\":8548:8549   */\n      0x00\n        /* \"#utility.yul\":8537:8546   */\n      dup4\n        /* \"#utility.yul\":8533:8550   */\n      add\n        /* \"#utility.yul\":8526:8573   */\n      mstore\n        /* \"#utility.yul\":8590:8721   */\n      tag_458\n        /* \"#utility.yul\":8716:8720   */\n      dup2\n        /* \"#utility.yul\":8590:8721   */\n      tag_329\n      jump\t// in\n    tag_458:\n        /* \"#utility.yul\":8582:8721   */\n      swap1\n      pop\n        /* \"#utility.yul\":8309:8728   */\n      swap2\n      swap1\n      pop\n      jump\t// out\n        /* \"#utility.yul\":8734:8914   */\n    tag_330:\n        /* \"#utility.yul\":8782:8859   */\n      0x4e487b7100000000000000000000000000000000000000000000000000000000\n        /* \"#utility.yul\":8779:8780   */\n      0x00\n        /* \"#utility.yul\":8772:8860   */\n      mstore\n        /* \"#utility.yul\":8879:8883   */\n      0x11\n        /* \"#utility.yul\":8876:8877   */\n      0x04\n        /* \"#utility.yul\":8869:8884   */\n      mstore\n        /* \"#utility.yul\":8903:8907   */\n      0x24\n        /* \"#utility.yul\":8900:8901   */\n      0x00\n        /* \"#utility.yul\":8893:8908   */\n      revert\n        /* \"#utility.yul\":8920:9111   */\n    tag_147:\n        /* \"#utility.yul\":8960:8963   */\n      0x00\n        /* \"#utility.yul\":8979:8999   */\n      tag_461\n        /* \"#utility.yul\":8997:8998   */\n      dup3\n        /* \"#utility.yul\":8979:8999   */\n      tag_296\n      jump\t// in\n    tag_461:\n        /* \"#utility.yul\":8974:8999   */\n      swap2\n      pop\n        /* \"#utility.yul\":9013:9033   */\n      tag_462\n        /* \"#utility.yul\":9031:9032   */\n      dup4\n        /* \"#utility.yul\":9013:9033   */\n      tag_296\n      jump\t// in\n    tag_462:\n        /* \"#utility.yul\":9008:9033   */\n      swap3\n      pop\n        /* \"#utility.yul\":9056:9057   */\n      dup3\n        /* \"#utility.yul\":9053:9054   */\n      dup3\n        /* \"#utility.yul\":9049:9058   */\n      add\n        /* \"#utility.yul\":9042:9058   */\n      swap1\n      pop\n        /* \"#utility.yul\":9077:9080   */\n      dup1\n        /* \"#utility.yul\":9074:9075   */\n      dup3\n        /* \"#utility.yul\":9071:9081   */\n      gt\n        /* \"#utility.yul\":9068:9104   */\n      iszero\n      tag_463\n      jumpi\n        /* \"#utility.yul\":9084:9102   */\n      tag_464\n      tag_330\n      jump\t// in\n    tag_464:\n        /* \"#utility.yul\":9068:9104   */\n    tag_463:\n        /* \"#utility.yul\":8920:9111   */\n      swap3\n      swap2\n      pop\n      pop\n      jump\t// out\n        /* \"#utility.yul\":9117:9346   */\n    tag_331:\n        /* \"#utility.yul\":9257:9291   */\n      0x496e766573746f722072656163686564206d6178696d756d20496e766573746d\n        /* \"#utility.yul\":9253:9254   */\n      0x00\n        /* \"#utility.yul\":9245:9251   */\n      dup3\n        /* \"#utility.yul\":9241:9255   */\n      add\n        /* \"#utility.yul\":9234:9292   */\n      mstore\n        /* \"#utility.yul\":9326:9338   */\n      0x656e7420416d6f756e7400000000000000000000000000000000000000000000\n        /* \"#utility.yul\":9321:9323   */\n      0x20\n        /* \"#utility.yul\":9313:9319   */\n      dup3\n        /* \"#utility.yul\":9309:9324   */\n      add\n        /* \"#utility.yul\":9302:9339   */\n      mstore\n        /* \"#utility.yul\":9117:9346   */\n      pop\n      jump\t// out\n        /* \"#utility.yul\":9352:9718   */\n    tag_332:\n        /* \"#utility.yul\":9494:9497   */\n      0x00\n        /* \"#utility.yul\":9515:9582   */\n      tag_467\n        /* \"#utility.yul\":9579:9581   */\n      0x2a\n        /* \"#utility.yul\":9574:9577   */\n      dup4\n        /* \"#utility.yul\":9515:9582   */\n      tag_309\n      jump\t// in\n    tag_467:\n        /* \"#utility.yul\":9508:9582   */\n      swap2\n      pop\n        /* \"#utility.yul\":9591:9684   */\n      tag_468\n        /* \"#utility.yul\":9680:9683   */\n      dup3\n        /* \"#utility.yul\":9591:9684   */\n      tag_331\n      jump\t// in\n    tag_468:\n        /* \"#utility.yul\":9709:9711   */\n      0x40\n        /* \"#utility.yul\":9704:9707   */\n      dup3\n        /* \"#utility.yul\":9700:9712   */\n      add\n        /* \"#utility.yul\":9693:9712   */\n      swap1\n      pop\n        /* \"#utility.yul\":9352:9718   */\n      swap2\n      swap1\n      pop\n      jump\t// out\n        /* \"#utility.yul\":9724:10143   */\n    tag_150:\n        /* \"#utility.yul\":9890:9894   */\n      0x00\n        /* \"#utility.yul\":9928:9930   */\n      0x20\n        /* \"#utility.yul\":9917:9926   */\n      dup3\n        /* \"#utility.yul\":9913:9931   */\n      add\n        /* \"#utility.yul\":9905:9931   */\n      swap1\n      pop\n        /* \"#utility.yul\":9977:9986   */\n      dup2\n        /* \"#utility.yul\":9971:9975   */\n      dup2\n        /* \"#utility.yul\":9967:9987   */\n      sub\n        /* \"#utility.yul\":9963:9964   */\n      0x00\n        /* \"#utility.yul\":9952:9961   */\n      dup4\n        /* \"#utility.yul\":9948:9965   */\n      add\n        /* \"#utility.yul\":9941:9988   */\n      mstore\n        /* \"#utility.yul\":10005:10136   */\n      tag_470\n        /* \"#utility.yul\":10131:10135   */\n      dup2\n        /* \"#utility.yul\":10005:10136   */\n      tag_332\n      jump\t// in\n    tag_470:\n        /* \"#utility.yul\":9997:10136   */\n      swap1\n      pop\n        /* \"#utility.yul\":9724:10143   */\n      swap2\n      swap1\n      pop\n      jump\t// out\n        /* \"#utility.yul\":10149:10324   */\n    tag_333:\n        /* \"#utility.yul\":10289:10316   */\n      0x53656e642077697468696e20686172646361702072616e676500000000000000\n        /* \"#utility.yul\":10285:10286   */\n      0x00\n        /* \"#utility.yul\":10277:10283   */\n      dup3\n        /* \"#utility.yul\":10273:10287   */\n      add\n        /* \"#utility.yul\":10266:10317   */\n      mstore\n        /* \"#utility.yul\":10149:10324   */\n      pop\n      jump\t// out\n        /* \"#utility.yul\":10330:10696   */\n    tag_334:\n        /* \"#utility.yul\":10472:10475   */\n      0x00\n        /* \"#utility.yul\":10493:10560   */\n      tag_473\n        /* \"#utility.yul\":10557:10559   */\n      0x19\n        /* \"#utility.yul\":10552:10555   */\n      dup4\n        /* \"#utility.yul\":10493:10560   */\n      tag_309\n      jump\t// in\n    tag_473:\n        /* \"#utility.yul\":10486:10560   */\n      swap2\n      pop\n        /* \"#utility.yul\":10569:10662   */\n      tag_474\n        /* \"#utility.yul\":10658:10661   */\n      dup3\n        /* \"#utility.yul\":10569:10662   */\n      tag_333\n      jump\t// in\n    tag_474:\n        /* \"#utility.yul\":10687:10689   */\n      0x20\n        /* \"#utility.yul\":10682:10685   */\n      dup3\n        /* \"#utility.yul\":10678:10690   */\n      add\n        /* \"#utility.yul\":10671:10690   */\n      swap1\n      pop\n        /* \"#utility.yul\":10330:10696   */\n      swap2\n      swap1\n      pop\n      jump\t// out\n        /* \"#utility.yul\":10702:11121   */\n    tag_154:\n        /* \"#utility.yul\":10868:10872   */\n      0x00\n        /* \"#utility.yul\":10906:10908   */\n      0x20\n        /* \"#utility.yul\":10895:10904   */\n      dup3\n        /* \"#utility.yul\":10891:10909   */\n      add\n        /* \"#utility.yul\":10883:10909   */\n      swap1\n      pop\n        /* \"#utility.yul\":10955:10964   */\n      dup2\n        /* \"#utility.yul\":10949:10953   */\n      dup2\n        /* \"#utility.yul\":10945:10965   */\n      sub\n        /* \"#utility.yul\":10941:10942   */\n      0x00\n        /* \"#utility.yul\":10930:10939   */\n      dup4\n        /* \"#utility.yul\":10926:10943   */\n      add\n        /* \"#utility.yul\":10919:10966   */\n      mstore\n        /* \"#utility.yul\":10983:11114   */\n      tag_476\n        /* \"#utility.yul\":11109:11113   */\n      dup2\n        /* \"#utility.yul\":10983:11114   */\n      tag_334\n      jump\t// in\n    tag_476:\n        /* \"#utility.yul\":10975:11114   */\n      swap1\n      pop\n        /* \"#utility.yul\":10702:11121   */\n      swap2\n      swap1\n      pop\n      jump\t// out\n        /* \"#utility.yul\":11127:11352   */\n    tag_335:\n        /* \"#utility.yul\":11267:11301   */\n      0x49434f20616c72656164792052656163686564204d6178696d756d2074696d65\n        /* \"#utility.yul\":11263:11264   */\n      0x00\n        /* \"#utility.yul\":11255:11261   */\n      dup3\n        /* \"#utility.yul\":11251:11265   */\n      add\n        /* \"#utility.yul\":11244:11302   */\n      mstore\n        /* \"#utility.yul\":11336:11344   */\n      0x206c696d69740000000000000000000000000000000000000000000000000000\n        /* \"#utility.yul\":11331:11333   */\n      0x20\n        /* \"#utility.yul\":11323:11329   */\n      dup3\n        /* \"#utility.yul\":11319:11334   */\n      add\n        /* \"#utility.yul\":11312:11345   */\n      mstore\n        /* \"#utility.yul\":11127:11352   */\n      pop\n      jump\t// out\n        /* \"#utility.yul\":11358:11724   */\n    tag_336:\n        /* \"#utility.yul\":11500:11503   */\n      0x00\n        /* \"#utility.yul\":11521:11588   */\n      tag_479\n        /* \"#utility.yul\":11585:11587   */\n      0x26\n        /* \"#utility.yul\":11580:11583   */\n      dup4\n        /* \"#utility.yul\":11521:11588   */\n      tag_309\n      jump\t// in\n    tag_479:\n        /* \"#utility.yul\":11514:11588   */\n      swap2\n      pop\n        /* \"#utility.yul\":11597:11690   */\n      tag_480\n        /* \"#utility.yul\":11686:11689   */\n      dup3\n        /* \"#utility.yul\":11597:11690   */\n      tag_335\n      jump\t// in\n    tag_480:\n        /* \"#utility.yul\":11715:11717   */\n      0x40\n        /* \"#utility.yul\":11710:11713   */\n      dup3\n        /* \"#utility.yul\":11706:11718   */\n      add\n        /* \"#utility.yul\":11699:11718   */\n      swap1\n      pop\n        /* \"#utility.yul\":11358:11724   */\n      swap2\n      swap1\n      pop\n      jump\t// out\n        /* \"#utility.yul\":11730:12149   */\n    tag_157:\n        /* \"#utility.yul\":11896:11900   */\n      0x00\n        /* \"#utility.yul\":11934:11936   */\n      0x20\n        /* \"#utility.yul\":11923:11932   */\n      dup3\n        /* \"#utility.yul\":11919:11937   */\n      add\n        /* \"#utility.yul\":11911:11937   */\n      swap1\n      pop\n        /* \"#utility.yul\":11983:11992   */\n      dup2\n        /* \"#utility.yul\":11977:11981   */\n      dup2\n        /* \"#utility.yul\":11973:11993   */\n      sub\n        /* \"#utility.yul\":11969:11970   */\n      0x00\n        /* \"#utility.yul\":11958:11967   */\n      dup4\n        /* \"#utility.yul\":11954:11971   */\n      add\n        /* \"#utility.yul\":11947:11994   */\n      mstore\n        /* \"#utility.yul\":12011:12142   */\n      tag_482\n        /* \"#utility.yul\":12137:12141   */\n      dup2\n        /* \"#utility.yul\":12011:12142   */\n      tag_336\n      jump\t// in\n    tag_482:\n        /* \"#utility.yul\":12003:12142   */\n      swap1\n      pop\n        /* \"#utility.yul\":11730:12149   */\n      swap2\n      swap1\n      pop\n      jump\t// out\n        /* \"#utility.yul\":12155:12302   */\n    tag_337:\n        /* \"#utility.yul\":12256:12267   */\n      0x00\n        /* \"#utility.yul\":12293:12296   */\n      dup2\n        /* \"#utility.yul\":12278:12296   */\n      swap1\n      pop\n        /* \"#utility.yul\":12155:12302   */\n      swap3\n      swap2\n      pop\n      pop\n      jump\t// out\n        /* \"#utility.yul\":12308:12422   */\n    tag_338:\n      pop\n      jump\t// out\n        /* \"#utility.yul\":12428:12826   */\n    tag_339:\n        /* \"#utility.yul\":12587:12590   */\n      0x00\n        /* \"#utility.yul\":12608:12691   */\n      tag_486\n        /* \"#utility.yul\":12689:12690   */\n      0x00\n        /* \"#utility.yul\":12684:12687   */\n      dup4\n        /* \"#utility.yul\":12608:12691   */\n      tag_337\n      jump\t// in\n    tag_486:\n        /* \"#utility.yul\":12601:12691   */\n      swap2\n      pop\n        /* \"#utility.yul\":12700:12793   */\n      tag_487\n        /* \"#utility.yul\":12789:12792   */\n      dup3\n        /* \"#utility.yul\":12700:12793   */\n      tag_338\n      jump\t// in\n    tag_487:\n        /* \"#utility.yul\":12818:12819   */\n      0x00\n        /* \"#utility.yul\":12813:12816   */\n      dup3\n        /* \"#utility.yul\":12809:12820   */\n      add\n        /* \"#utility.yul\":12802:12820   */\n      swap1\n      pop\n        /* \"#utility.yul\":12428:12826   */\n      swap2\n      swap1\n      pop\n      jump\t// out\n        /* \"#utility.yul\":12832:13211   */\n    tag_161:\n        /* \"#utility.yul\":13016:13019   */\n      0x00\n        /* \"#utility.yul\":13038:13185   */\n      tag_489\n        /* \"#utility.yul\":13181:13184   */\n      dup3\n        /* \"#utility.yul\":13038:13185   */\n      tag_339\n      jump\t// in\n    tag_489:\n        /* \"#utility.yul\":13031:13185   */\n      swap2\n      pop\n        /* \"#utility.yul\":13202:13205   */\n      dup2\n        /* \"#utility.yul\":13195:13205   */\n      swap1\n      pop\n        /* \"#utility.yul\":12832:13211   */\n      swap2\n      swap1\n      pop\n      jump\t// out\n        /* \"#utility.yul\":13217:13383   */\n    tag_340:\n        /* \"#utility.yul\":13357:13375   */\n      0x4661696c656420746f20496e7665737400000000000000000000000000000000\n        /* \"#utility.yul\":13353:13354   */\n      0x00\n        /* \"#utility.yul\":13345:13351   */\n      dup3\n        /* \"#utility.yul\":13341:13355   */\n      add\n        /* \"#utility.yul\":13334:13376   */\n      mstore\n        /* \"#utility.yul\":13217:13383   */\n      pop\n      jump\t// out\n        /* \"#utility.yul\":13389:13755   */\n    tag_341:\n        /* \"#utility.yul\":13531:13534   */\n      0x00\n        /* \"#utility.yul\":13552:13619   */\n      tag_492\n        /* \"#utility.yul\":13616:13618   */\n      0x10\n        /* \"#utility.yul\":13611:13614   */\n      dup4\n        /* \"#utility.yul\":13552:13619   */\n      tag_309\n      jump\t// in\n    tag_492:\n        /* \"#utility.yul\":13545:13619   */\n      swap2\n      pop\n        /* \"#utility.yul\":13628:13721   */\n      tag_493\n        /* \"#utility.yul\":13717:13720   */\n      dup3\n        /* \"#utility.yul\":13628:13721   */\n      tag_340\n      jump\t// in\n    tag_493:\n        /* \"#utility.yul\":13746:13748   */\n      0x20\n        /* \"#utility.yul\":13741:13744   */\n      dup3\n        /* \"#utility.yul\":13737:13749   */\n      add\n        /* \"#utility.yul\":13730:13749   */\n      swap1\n      pop\n        /* \"#utility.yul\":13389:13755   */\n      swap2\n      swap1\n      pop\n      jump\t// out\n        /* \"#utility.yul\":13761:14180   */\n    tag_167:\n        /* \"#utility.yul\":13927:13931   */\n      0x00\n        /* \"#utility.yul\":13965:13967   */\n      0x20\n        /* \"#utility.yul\":13954:13963   */\n      dup3\n        /* \"#utility.yul\":13950:13968   */\n      add\n        /* \"#utility.yul\":13942:13968   */\n      swap1\n      pop\n        /* \"#utility.yul\":14014:14023   */\n      dup2\n        /* \"#utility.yul\":14008:14012   */\n      dup2\n        /* \"#utility.yul\":14004:14024   */\n      sub\n        /* \"#utility.yul\":14000:14001   */\n      0x00\n        /* \"#utility.yul\":13989:13998   */\n      dup4\n        /* \"#utility.yul\":13985:14002   */\n      add\n        /* \"#utility.yul\":13978:14025   */\n      mstore\n        /* \"#utility.yul\":14042:14173   */\n      tag_495\n        /* \"#utility.yul\":14168:14172   */\n      dup2\n        /* \"#utility.yul\":14042:14173   */\n      tag_341\n      jump\t// in\n    tag_495:\n        /* \"#utility.yul\":14034:14173   */\n      swap1\n      pop\n        /* \"#utility.yul\":13761:14180   */\n      swap2\n      swap1\n      pop\n      jump\t// out\n        /* \"#utility.yul\":14186:14366   */\n    tag_342:\n        /* \"#utility.yul\":14234:14311   */\n      0x4e487b7100000000000000000000000000000000000000000000000000000000\n        /* \"#utility.yul\":14231:14232   */\n      0x00\n        /* \"#utility.yul\":14224:14312   */\n      mstore\n        /* \"#utility.yul\":14331:14335   */\n      0x12\n        /* \"#utility.yul\":14328:14329   */\n      0x04\n        /* \"#utility.yul\":14321:14336   */\n      mstore\n        /* \"#utility.yul\":14355:14359   */\n      0x24\n        /* \"#utility.yul\":14352:14353   */\n      0x00\n        /* \"#utility.yul\":14345:14360   */\n      revert\n        /* \"#utility.yul\":14372:14557   */\n    tag_169:\n        /* \"#utility.yul\":14412:14413   */\n      0x00\n        /* \"#utility.yul\":14429:14449   */\n      tag_498\n        /* \"#utility.yul\":14447:14448   */\n      dup3\n        /* \"#utility.yul\":14429:14449   */\n      tag_296\n      jump\t// in\n    tag_498:\n        /* \"#utility.yul\":14424:14449   */\n      swap2\n      pop\n        /* \"#utility.yul\":14463:14483   */\n      tag_499\n        /* \"#utility.yul\":14481:14482   */\n      dup4\n        /* \"#utility.yul\":14463:14483   */\n      tag_296\n      jump\t// in\n    tag_499:\n        /* \"#utility.yul\":14458:14483   */\n      swap3\n      pop\n        /* \"#utility.yul\":14502:14503   */\n      dup3\n        /* \"#utility.yul\":14492:14527   */\n      tag_500\n      jumpi\n        /* \"#utility.yul\":14507:14525   */\n      tag_501\n      tag_342\n      jump\t// in\n    tag_501:\n        /* \"#utility.yul\":14492:14527   */\n    tag_500:\n        /* \"#utility.yul\":14549:14550   */\n      dup3\n        /* \"#utility.yul\":14546:14547   */\n      dup3\n        /* \"#utility.yul\":14542:14551   */\n      div\n        /* \"#utility.yul\":14537:14551   */\n      swap1\n      pop\n        /* \"#utility.yul\":14372:14557   */\n      swap3\n      swap2\n      pop\n      pop\n      jump\t// out\n        /* \"#utility.yul\":14563:14911   */\n    tag_171:\n        /* \"#utility.yul\":14603:14610   */\n      0x00\n        /* \"#utility.yul\":14626:14646   */\n      tag_503\n        /* \"#utility.yul\":14644:14645   */\n      dup3\n        /* \"#utility.yul\":14626:14646   */\n      tag_296\n      jump\t// in\n    tag_503:\n        /* \"#utility.yul\":14621:14646   */\n      swap2\n      pop\n        /* \"#utility.yul\":14660:14680   */\n      tag_504\n        /* \"#utility.yul\":14678:14679   */\n      dup4\n        /* \"#utility.yul\":14660:14680   */\n      tag_296\n      jump\t// in\n    tag_504:\n        /* \"#utility.yul\":14655:14680   */\n      swap3\n      pop\n        /* \"#utility.yul\":14848:14849   */\n      dup2\n        /* \"#utility.yul\":14780:14846   */\n      0xffffffffffffffffffffffffffffffffffffffffffffffffffffffffffffffff\n        /* \"#utility.yul\":14776:14850   */\n      div\n        /* \"#utility.yul\":14773:14774   */\n      dup4\n        /* \"#utility.yul\":14770:14851   */\n      gt\n        /* \"#utility.yul\":14765:14766   */\n      dup3\n        /* \"#utility.yul\":14758:14767   */\n      iszero\n        /* \"#utility.yul\":14751:14768   */\n      iszero\n        /* \"#utility.yul\":14747:14852   */\n      and\n        /* \"#utility.yul\":14744:14875   */\n      iszero\n      tag_505\n      jumpi\n        /* \"#utility.yul\":14855:14873   */\n      tag_506\n      tag_330\n      jump\t// in\n    tag_506:\n        /* \"#utility.yul\":14744:14875   */\n    tag_505:\n        /* \"#utility.yul\":14903:14904   */\n      dup3\n        /* \"#utility.yul\":14900:14901   */\n      dup3\n        /* \"#utility.yul\":14896:14905   */\n      mul\n        /* \"#utility.yul\":14885:14905   */\n      swap1\n      pop\n        /* \"#utility.yul\":14563:14911   */\n      swap3\n      swap2\n      pop\n      pop\n      jump\t// out\n        /* \"#utility.yul\":14917:15249   */\n    tag_173:\n        /* \"#utility.yul\":15038:15042   */\n      0x00\n        /* \"#utility.yul\":15076:15078   */\n      0x40\n        /* \"#utility.yul\":15065:15074   */\n      dup3\n        /* \"#utility.yul\":15061:15079   */\n      add\n        /* \"#utility.yul\":15053:15079   */\n      swap1\n      pop\n        /* \"#utility.yul\":15089:15160   */\n      tag_508\n        /* \"#utility.yul\":15157:15158   */\n      0x00\n        /* \"#utility.yul\":15146:15155   */\n      dup4\n        /* \"#utility.yul\":15142:15159   */\n      add\n        /* \"#utility.yul\":15133:15139   */\n      dup6\n        /* \"#utility.yul\":15089:15160   */\n      tag_320\n      jump\t// in\n    tag_508:\n        /* \"#utility.yul\":15170:15242   */\n      tag_509\n        /* \"#utility.yul\":15238:15240   */\n      0x20\n        /* \"#utility.yul\":15227:15236   */\n      dup4\n        /* \"#utility.yul\":15223:15241   */\n      add\n        /* \"#utility.yul\":15214:15220   */\n      dup5\n        /* \"#utility.yul\":15170:15242   */\n      tag_297\n      jump\t// in\n    tag_509:\n        /* \"#utility.yul\":14917:15249   */\n      swap4\n      swap3\n      pop\n      pop\n      pop\n      jump\t// out\n        /* \"#utility.yul\":15255:15371   */\n    tag_343:\n        /* \"#utility.yul\":15325:15346   */\n      tag_511\n        /* \"#utility.yul\":15340:15345   */\n      dup2\n        /* \"#utility.yul\":15325:15346   */\n      tag_313\n      jump\t// in\n    tag_511:\n        /* \"#utility.yul\":15318:15323   */\n      dup2\n        /* \"#utility.yul\":15315:15347   */\n      eq\n        /* \"#utility.yul\":15305:15365   */\n      tag_512\n      jumpi\n        /* \"#utility.yul\":15361:15362   */\n      0x00\n        /* \"#utility.yul\":15358:15359   */\n      dup1\n        /* \"#utility.yul\":15351:15363   */\n      revert\n        /* \"#utility.yul\":15305:15365   */\n    tag_512:\n        /* \"#utility.yul\":15255:15371   */\n      pop\n      jump\t// out\n        /* \"#utility.yul\":15377:15514   */\n    tag_344:\n        /* \"#utility.yul\":15431:15436   */\n      0x00\n        /* \"#utility.yul\":15462:15468   */\n      dup2\n        /* \"#utility.yul\":15456:15469   */\n      mload\n        /* \"#utility.yul\":15447:15469   */\n      swap1\n      pop\n        /* \"#utility.yul\":15478:15508   */\n      tag_514\n        /* \"#utility.yul\":15502:15507   */\n      dup2\n        /* \"#utility.yul\":15478:15508   */\n      tag_343\n      jump\t// in\n    tag_514:\n        /* \"#utility.yul\":15377:15514   */\n      swap3\n      swap2\n      pop\n      pop\n      jump\t// out\n        /* \"#utility.yul\":15520:15865   */\n    tag_177:\n        /* \"#utility.yul\":15587:15593   */\n      0x00\n        /* \"#utility.yul\":15636:15638   */\n      0x20\n        /* \"#utility.yul\":15624:15633   */\n      dup3\n        /* \"#utility.yul\":15615:15622   */\n      dup5\n        /* \"#utility.yul\":15611:15634   */\n      sub\n        /* \"#utility.yul\":15607:15639   */\n      slt\n        /* \"#utility.yul\":15604:15723   */\n      iszero\n      tag_516\n      jumpi\n        /* \"#utility.yul\":15642:15721   */\n      tag_517\n      tag_299\n      jump\t// in\n    tag_517:\n        /* \"#utility.yul\":15604:15723   */\n    tag_516:\n        /* \"#utility.yul\":15762:15763   */\n      0x00\n        /* \"#utility.yul\":15787:15848   */\n      tag_518\n        /* \"#utility.yul\":15840:15847   */\n      dup5\n        /* \"#utility.yul\":15831:15837   */\n      dup3\n        /* \"#utility.yul\":15820:15829   */\n      dup6\n        /* \"#utility.yul\":15816:15838   */\n      add\n        /* \"#utility.yul\":15787:15848   */\n      tag_344\n      jump\t// in\n    tag_518:\n        /* \"#utility.yul\":15777:15848   */\n      swap2\n      pop\n        /* \"#utility.yul\":15733:15858   */\n      pop\n        /* \"#utility.yul\":15520:15865   */\n      swap3\n      swap2\n      pop\n      pop\n      jump\t// out\n        /* \"#utility.yul\":15871:16203   */\n    tag_181:\n        /* \"#utility.yul\":15992:15996   */\n      0x00\n        /* \"#utility.yul\":16030:16032   */\n      0x40\n        /* \"#utility.yul\":16019:16028   */\n      dup3\n        /* \"#utility.yul\":16015:16033   */\n      add\n        /* \"#utility.yul\":16007:16033   */\n      swap1\n      pop\n        /* \"#utility.yul\":16043:16114   */\n      tag_520\n        /* \"#utility.yul\":16111:16112   */\n      0x00\n        /* \"#utility.yul\":16100:16109   */\n      dup4\n        /* \"#utility.yul\":16096:16113   */\n      add\n        /* \"#utility.yul\":16087:16093   */\n      dup6\n        /* \"#utility.yul\":16043:16114   */\n      tag_297\n      jump\t// in\n    tag_520:\n        /* \"#utility.yul\":16124:16196   */\n      tag_521\n        /* \"#utility.yul\":16192:16194   */\n      0x20\n        /* \"#utility.yul\":16181:16190   */\n      dup4\n        /* \"#utility.yul\":16177:16195   */\n      add\n        /* \"#utility.yul\":16168:16174   */\n      dup5\n        /* \"#utility.yul\":16124:16196   */\n      tag_297\n      jump\t// in\n    tag_521:\n        /* \"#utility.yul\":15871:16203   */\n      swap4\n      swap3\n      pop\n      pop\n      pop\n      jump\t// out\n        /* \"#utility.yul\":16209:16378   */\n    tag_345:\n        /* \"#utility.yul\":16349:16370   */\n      0x41646d696e204f6e6c792066756e6374696f6e00000000000000000000000000\n        /* \"#utility.yul\":16345:16346   */\n      0x00\n        /* \"#utility.yul\":16337:16343   */\n      dup3\n        /* \"#utility.yul\":16333:16347   */\n      add\n        /* \"#utility.yul\":16326:16371   */\n      mstore\n        /* \"#utility.yul\":16209:16378   */\n      pop\n      jump\t// out\n        /* \"#utility.yul\":16384:16750   */\n    tag_346:\n        /* \"#utility.yul\":16526:16529   */\n      0x00\n        /* \"#utility.yul\":16547:16614   */\n      tag_524\n        /* \"#utility.yul\":16611:16613   */\n      0x13\n        /* \"#utility.yul\":16606:16609   */\n      dup4\n        /* \"#utility.yul\":16547:16614   */\n      tag_309\n      jump\t// in\n    tag_524:\n        /* \"#utility.yul\":16540:16614   */\n      swap2\n      pop\n        /* \"#utility.yul\":16623:16716   */\n      tag_525\n        /* \"#utility.yul\":16712:16715   */\n      dup3\n        /* \"#utility.yul\":16623:16716   */\n      tag_345\n      jump\t// in\n    tag_525:\n        /* \"#utility.yul\":16741:16743   */\n      0x20\n        /* \"#utility.yul\":16736:16739   */\n      dup3\n        /* \"#utility.yul\":16732:16744   */\n      add\n        /* \"#utility.yul\":16725:16744   */\n      swap1\n      pop\n        /* \"#utility.yul\":16384:16750   */\n      swap2\n      swap1\n      pop\n      jump\t// out\n        /* \"#utility.yul\":16756:17175   */\n    tag_185:\n        /* \"#utility.yul\":16922:16926   */\n      0x00\n        /* \"#utility.yul\":16960:16962   */\n      0x20\n        /* \"#utility.yul\":16949:16958   */\n      dup3\n        /* \"#utility.yul\":16945:16963   */\n      add\n        /* \"#utility.yul\":16937:16963   */\n      swap1\n      pop\n        /* \"#utility.yul\":17009:17018   */\n      dup2\n        /* \"#utility.yul\":17003:17007   */\n      dup2\n        /* \"#utility.yul\":16999:17019   */\n      sub\n        /* \"#utility.yul\":16995:16996   */\n      0x00\n        /* \"#utility.yul\":16984:16993   */\n      dup4\n        /* \"#utility.yul\":16980:16997   */\n      add\n        /* \"#utility.yul\":16973:17020   */\n      mstore\n        /* \"#utility.yul\":17037:17168   */\n      tag_527\n        /* \"#utility.yul\":17163:17167   */\n      dup2\n        /* \"#utility.yul\":17037:17168   */\n      tag_346\n      jump\t// in\n    tag_527:\n        /* \"#utility.yul\":17029:17168   */\n      swap1\n      pop\n        /* \"#utility.yul\":16756:17175   */\n      swap2\n      swap1\n      pop\n      jump\t// out\n        /* \"#utility.yul\":17181:17352   */\n    tag_347:\n        /* \"#utility.yul\":17321:17344   */\n      0x49434f2069736e27742072756e6e696e67207965740000000000000000000000\n        /* \"#utility.yul\":17317:17318   */\n      0x00\n        /* \"#utility.yul\":17309:17315   */\n      dup3\n        /* \"#utility.yul\":17305:17319   */\n      add\n        /* \"#utility.yul\":17298:17345   */\n      mstore\n        /* \"#utility.yul\":17181:17352   */\n      pop\n      jump\t// out\n        /* \"#utility.yul\":17358:17724   */\n    tag_348:\n        /* \"#utility.yul\":17500:17503   */\n      0x00\n        /* \"#utility.yul\":17521:17588   */\n      tag_530\n        /* \"#utility.yul\":17585:17587   */\n      0x15\n        /* \"#utility.yul\":17580:17583   */\n      dup4\n        /* \"#utility.yul\":17521:17588   */\n      tag_309\n      jump\t// in\n    tag_530:\n        /* \"#utility.yul\":17514:17588   */\n      swap2\n      pop\n        /* \"#utility.yul\":17597:17690   */\n      tag_531\n        /* \"#utility.yul\":17686:17689   */\n      dup3\n        /* \"#utility.yul\":17597:17690   */\n      tag_347\n      jump\t// in\n    tag_531:\n        /* \"#utility.yul\":17715:17717   */\n      0x20\n        /* \"#utility.yul\":17710:17713   */\n      dup3\n        /* \"#utility.yul\":17706:17718   */\n      add\n        /* \"#utility.yul\":17699:17718   */\n      swap1\n      pop\n        /* \"#utility.yul\":17358:17724   */\n      swap2\n      swap1\n      pop\n      jump\t// out\n        /* \"#utility.yul\":17730:18149   */\n    tag_197:\n        /* \"#utility.yul\":17896:17900   */\n      0x00\n        /* \"#utility.yul\":17934:17936   */\n      0x20\n        /* \"#utility.yul\":17923:17932   */\n      dup3\n        /* \"#utility.yul\":17919:17937   */\n      add\n        /* \"#utility.yul\":17911:17937   */\n      swap1\n      pop\n        /* \"#utility.yul\":17983:17992   */\n      dup2\n        /* \"#utility.yul\":17977:17981   */\n      dup2\n        /* \"#utility.yul\":17973:17993   */\n      sub\n        /* \"#utility.yul\":17969:17970   */\n      0x00\n        /* \"#utility.yul\":17958:17967   */\n      dup4\n        /* \"#utility.yul\":17954:17971   */\n      add\n        /* \"#utility.yul\":17947:17994   */\n      mstore\n        /* \"#utility.yul\":18011:18142   */\n      tag_533\n        /* \"#utility.yul\":18137:18141   */\n      dup2\n        /* \"#utility.yul\":18011:18142   */\n      tag_348\n      jump\t// in\n    tag_533:\n        /* \"#utility.yul\":18003:18142   */\n      swap1\n      pop\n        /* \"#utility.yul\":17730:18149   */\n      swap2\n      swap1\n      pop\n      jump\t// out\n        /* \"#utility.yul\":18155:18323   */\n    tag_349:\n        /* \"#utility.yul\":18295:18315   */\n      0x49434f2069736e2774206f766572207965740000000000000000000000000000\n        /* \"#utility.yul\":18291:18292   */\n      0x00\n        /* \"#utility.yul\":18283:18289   */\n      dup3\n        /* \"#utility.yul\":18279:18293   */\n      add\n        /* \"#utility.yul\":18272:18316   */\n      mstore\n        /* \"#utility.yul\":18155:18323   */\n      pop\n      jump\t// out\n        /* \"#utility.yul\":18329:18695   */\n    tag_350:\n        /* \"#utility.yul\":18471:18474   */\n      0x00\n        /* \"#utility.yul\":18492:18559   */\n      tag_536\n        /* \"#utility.yul\":18556:18558   */\n      0x12\n        /* \"#utility.yul\":18551:18554   */\n      dup4\n        /* \"#utility.yul\":18492:18559   */\n      tag_309\n      jump\t// in\n    tag_536:\n        /* \"#utility.yul\":18485:18559   */\n      swap2\n      pop\n        /* \"#utility.yul\":18568:18661   */\n      tag_537\n        /* \"#utility.yul\":18657:18660   */\n      dup3\n        /* \"#utility.yul\":18568:18661   */\n      tag_349\n      jump\t// in\n    tag_537:\n        /* \"#utility.yul\":18686:18688   */\n      0x20\n        /* \"#utility.yul\":18681:18684   */\n      dup3\n        /* \"#utility.yul\":18677:18689   */\n      add\n        /* \"#utility.yul\":18670:18689   */\n      swap1\n      pop\n        /* \"#utility.yul\":18329:18695   */\n      swap2\n      swap1\n      pop\n      jump\t// out\n        /* \"#utility.yul\":18701:19120   */\n    tag_226:\n        /* \"#utility.yul\":18867:18871   */\n      0x00\n        /* \"#utility.yul\":18905:18907   */\n      0x20\n        /* \"#utility.yul\":18894:18903   */\n      dup3\n        /* \"#utility.yul\":18890:18908   */\n      add\n        /* \"#utility.yul\":18882:18908   */\n      swap1\n      pop\n        /* \"#utility.yul\":18954:18963   */\n      dup2\n        /* \"#utility.yul\":18948:18952   */\n      dup2\n        /* \"#utility.yul\":18944:18964   */\n      sub\n        /* \"#utility.yul\":18940:18941   */\n      0x00\n        /* \"#utility.yul\":18929:18938   */\n      dup4\n        /* \"#utility.yul\":18925:18942   */\n      add\n        /* \"#utility.yul\":18918:18965   */\n      mstore\n        /* \"#utility.yul\":18982:19113   */\n      tag_539\n        /* \"#utility.yul\":19108:19112   */\n      dup2\n        /* \"#utility.yul\":18982:19113   */\n      tag_350\n      jump\t// in\n    tag_539:\n        /* \"#utility.yul\":18974:19113   */\n      swap1\n      pop\n        /* \"#utility.yul\":18701:19120   */\n      swap2\n      swap1\n      pop\n      jump\t// out\n        /* \"#utility.yul\":19126:19248   */\n    tag_351:\n        /* \"#utility.yul\":19199:19223   */\n      tag_541\n        /* \"#utility.yul\":19217:19222   */\n      dup2\n        /* \"#utility.yul\":19199:19223   */\n      tag_296\n      jump\t// in\n    tag_541:\n        /* \"#utility.yul\":19192:19197   */\n      dup2\n        /* \"#utility.yul\":19189:19224   */\n      eq\n        /* \"#utility.yul\":19179:19242   */\n      tag_542\n      jumpi\n        /* \"#utility.yul\":19238:19239   */\n      0x00\n        /* \"#utility.yul\":19235:19236   */\n      dup1\n        /* \"#utility.yul\":19228:19240   */\n      revert\n        /* \"#utility.yul\":19179:19242   */\n    tag_542:\n        /* \"#utility.yul\":19126:19248   */\n      pop\n      jump\t// out\n        /* \"#utility.yul\":19254:19397   */\n    tag_352:\n        /* \"#utility.yul\":19311:19316   */\n      0x00\n        /* \"#utility.yul\":19342:19348   */\n      dup2\n        /* \"#utility.yul\":19336:19349   */\n      mload\n        /* \"#utility.yul\":19327:19349   */\n      swap1\n      pop\n        /* \"#utility.yul\":19358:19391   */\n      tag_544\n        /* \"#utility.yul\":19385:19390   */\n      dup2\n        /* \"#utility.yul\":19358:19391   */\n      tag_351\n      jump\t// in\n    tag_544:\n        /* \"#utility.yul\":19254:19397   */\n      swap3\n      swap2\n      pop\n      pop\n      jump\t// out\n        /* \"#utility.yul\":19403:19754   */\n    tag_231:\n        /* \"#utility.yul\":19473:19479   */\n      0x00\n        /* \"#utility.yul\":19522:19524   */\n      0x20\n        /* \"#utility.yul\":19510:19519   */\n      dup3\n        /* \"#utility.yul\":19501:19508   */\n      dup5\n        /* \"#utility.yul\":19497:19520   */\n      sub\n        /* \"#utility.yul\":19493:19525   */\n      slt\n        /* \"#utility.yul\":19490:19609   */\n      iszero\n      tag_546\n      jumpi\n        /* \"#utility.yul\":19528:19607   */\n      tag_547\n      tag_299\n      jump\t// in\n    tag_547:\n        /* \"#utility.yul\":19490:19609   */\n    tag_546:\n        /* \"#utility.yul\":19648:19649   */\n      0x00\n        /* \"#utility.yul\":19673:19737   */\n      tag_548\n        /* \"#utility.yul\":19729:19736   */\n      dup5\n        /* \"#utility.yul\":19720:19726   */\n      dup3\n        /* \"#utility.yul\":19709:19718   */\n      dup6\n        /* \"#utility.yul\":19705:19727   */\n      add\n        /* \"#utility.yul\":19673:19737   */\n      tag_352\n      jump\t// in\n    tag_548:\n        /* \"#utility.yul\":19663:19737   */\n      swap2\n      pop\n        /* \"#utility.yul\":19619:19747   */\n      pop\n        /* \"#utility.yul\":19403:19754   */\n      swap3\n      swap2\n      pop\n      pop\n      jump\t// out\n        /* \"#utility.yul\":19760:19941   */\n    tag_353:\n        /* \"#utility.yul\":19900:19933   */\n      0x4661696c656420746f206275726e2072656d61696e696e6720746f6b656e7300\n        /* \"#utility.yul\":19896:19897   */\n      0x00\n        /* \"#utility.yul\":19888:19894   */\n      dup3\n        /* \"#utility.yul\":19884:19898   */\n      add\n        /* \"#utility.yul\":19877:19934   */\n      mstore\n        /* \"#utility.yul\":19760:19941   */\n      pop\n      jump\t// out\n        /* \"#utility.yul\":19947:20313   */\n    tag_354:\n        /* \"#utility.yul\":20089:20092   */\n      0x00\n        /* \"#utility.yul\":20110:20177   */\n      tag_551\n        /* \"#utility.yul\":20174:20176   */\n      0x1f\n        /* \"#utility.yul\":20169:20172   */\n      dup4\n        /* \"#utility.yul\":20110:20177   */\n      tag_309\n      jump\t// in\n    tag_551:\n        /* \"#utility.yul\":20103:20177   */\n      swap2\n      pop\n        /* \"#utility.yul\":20186:20279   */\n      tag_552\n        /* \"#utility.yul\":20275:20278   */\n      dup3\n        /* \"#utility.yul\":20186:20279   */\n      tag_353\n      jump\t// in\n    tag_552:\n        /* \"#utility.yul\":20304:20306   */\n      0x20\n        /* \"#utility.yul\":20299:20302   */\n      dup3\n        /* \"#utility.yul\":20295:20307   */\n      add\n        /* \"#utility.yul\":20288:20307   */\n      swap1\n      pop\n        /* \"#utility.yul\":19947:20313   */\n      swap2\n      swap1\n      pop\n      jump\t// out\n        /* \"#utility.yul\":20319:20738   */\n    tag_238:\n        /* \"#utility.yul\":20485:20489   */\n      0x00\n        /* \"#utility.yul\":20523:20525   */\n      0x20\n        /* \"#utility.yul\":20512:20521   */\n      dup3\n        /* \"#utility.yul\":20508:20526   */\n      add\n        /* \"#utility.yul\":20500:20526   */\n      swap1\n      pop\n        /* \"#utility.yul\":20572:20581   */\n      dup2\n        /* \"#utility.yul\":20566:20570   */\n      dup2\n        /* \"#utility.yul\":20562:20582   */\n      sub\n        /* \"#utility.yul\":20558:20559   */\n      0x00\n        /* \"#utility.yul\":20547:20556   */\n      dup4\n        /* \"#utility.yul\":20543:20560   */\n      add\n        /* \"#utility.yul\":20536:20583   */\n      mstore\n        /* \"#utility.yul\":20600:20731   */\n      tag_554\n        /* \"#utility.yul\":20726:20730   */\n      dup2\n        /* \"#utility.yul\":20600:20731   */\n      tag_354\n      jump\t// in\n    tag_554:\n        /* \"#utility.yul\":20592:20731   */\n      swap1\n      pop\n        /* \"#utility.yul\":20319:20738   */\n      swap2\n      swap1\n      pop\n      jump\t// out\n        /* \"#utility.yul\":20744:21186   */\n    tag_240:\n        /* \"#utility.yul\":20893:20897   */\n      0x00\n        /* \"#utility.yul\":20931:20933   */\n      0x60\n        /* \"#utility.yul\":20920:20929   */\n      dup3\n        /* \"#utility.yul\":20916:20934   */\n      add\n        /* \"#utility.yul\":20908:20934   */\n      swap1\n      pop\n        /* \"#utility.yul\":20944:21015   */\n      tag_556\n        /* \"#utility.yul\":21012:21013   */\n      0x00\n        /* \"#utility.yul\":21001:21010   */\n      dup4\n        /* \"#utility.yul\":20997:21014   */\n      add\n        /* \"#utility.yul\":20988:20994   */\n      dup7\n        /* \"#utility.yul\":20944:21015   */\n      tag_320\n      jump\t// in\n    tag_556:\n        /* \"#utility.yul\":21025:21097   */\n      tag_557\n        /* \"#utility.yul\":21093:21095   */\n      0x20\n        /* \"#utility.yul\":21082:21091   */\n      dup4\n        /* \"#utility.yul\":21078:21096   */\n      add\n        /* \"#utility.yul\":21069:21075   */\n      dup6\n        /* \"#utility.yul\":21025:21097   */\n      tag_297\n      jump\t// in\n    tag_557:\n        /* \"#utility.yul\":21107:21179   */\n      tag_558\n        /* \"#utility.yul\":21175:21177   */\n      0x40\n        /* \"#utility.yul\":21164:21173   */\n      dup4\n        /* \"#utility.yul\":21160:21178   */\n      add\n        /* \"#utility.yul\":21151:21157   */\n      dup5\n        /* \"#utility.yul\":21107:21179   */\n      tag_297\n      jump\t// in\n    tag_558:\n        /* \"#utility.yul\":20744:21186   */\n      swap5\n      swap4\n      pop\n      pop\n      pop\n      pop\n      jump\t// out\n        /* \"#utility.yul\":21192:21367   */\n    tag_355:\n        /* \"#utility.yul\":21332:21359   */\n      0x49434f2069736e277420696e206265666f726520737461746500000000000000\n        /* \"#utility.yul\":21328:21329   */\n      0x00\n        /* \"#utility.yul\":21320:21326   */\n      dup3\n        /* \"#utility.yul\":21316:21330   */\n      add\n        /* \"#utility.yul\":21309:21360   */\n      mstore\n        /* \"#utility.yul\":21192:21367   */\n      pop\n      jump\t// out\n        /* \"#utility.yul\":21373:21739   */\n    tag_356:\n        /* \"#utility.yul\":21515:21518   */\n      0x00\n        /* \"#utility.yul\":21536:21603   */\n      tag_561\n        /* \"#utility.yul\":21600:21602   */\n      0x19\n        /* \"#utility.yul\":21595:21598   */\n      dup4\n        /* \"#utility.yul\":21536:21603   */\n      tag_309\n      jump\t// in\n    tag_561:\n        /* \"#utility.yul\":21529:21603   */\n      swap2\n      pop\n        /* \"#utility.yul\":21612:21705   */\n      tag_562\n        /* \"#utility.yul\":21701:21704   */\n      dup3\n        /* \"#utility.yul\":21612:21705   */\n      tag_355\n      jump\t// in\n    tag_562:\n        /* \"#utility.yul\":21730:21732   */\n      0x20\n        /* \"#utility.yul\":21725:21728   */\n      dup3\n        /* \"#utility.yul\":21721:21733   */\n      add\n        /* \"#utility.yul\":21714:21733   */\n      swap1\n      pop\n        /* \"#utility.yul\":21373:21739   */\n      swap2\n      swap1\n      pop\n      jump\t// out\n        /* \"#utility.yul\":21745:22164   */\n    tag_261:\n        /* \"#utility.yul\":21911:21915   */\n      0x00\n        /* \"#utility.yul\":21949:21951   */\n      0x20\n        /* \"#utility.yul\":21938:21947   */\n      dup3\n        /* \"#utility.yul\":21934:21952   */\n      add\n        /* \"#utility.yul\":21926:21952   */\n      swap1\n      pop\n        /* \"#utility.yul\":21998:22007   */\n      dup2\n        /* \"#utility.yul\":21992:21996   */\n      dup2\n        /* \"#utility.yul\":21988:22008   */\n      sub\n        /* \"#utility.yul\":21984:21985   */\n      0x00\n        /* \"#utility.yul\":21973:21982   */\n      dup4\n        /* \"#utility.yul\":21969:21986   */\n      add\n        /* \"#utility.yul\":21962:22009   */\n      mstore\n        /* \"#utility.yul\":22026:22157   */\n      tag_564\n        /* \"#utility.yul\":22152:22156   */\n      dup2\n        /* \"#utility.yul\":22026:22157   */\n      tag_356\n      jump\t// in\n    tag_564:\n        /* \"#utility.yul\":22018:22157   */\n      swap1\n      pop\n        /* \"#utility.yul\":21745:22164   */\n      swap2\n      swap1\n      pop\n      jump\t// out\n        /* \"#utility.yul\":22170:22346   */\n    tag_357:\n        /* \"#utility.yul\":22310:22338   */\n      0x49434f2053746174652069736e27742068616c74656420796574000000000000\n        /* \"#utility.yul\":22306:22307   */\n      0x00\n        /* \"#utility.yul\":22298:22304   */\n      dup3\n        /* \"#utility.yul\":22294:22308   */\n      add\n        /* \"#utility.yul\":22287:22339   */\n      mstore\n        /* \"#utility.yul\":22170:22346   */\n      pop\n      jump\t// out\n        /* \"#utility.yul\":22352:22718   */\n    tag_358:\n        /* \"#utility.yul\":22494:22497   */\n      0x00\n        /* \"#utility.yul\":22515:22582   */\n      tag_567\n        /* \"#utility.yul\":22579:22581   */\n      0x1a\n        /* \"#utility.yul\":22574:22577   */\n      dup4\n        /* \"#utility.yul\":22515:22582   */\n      tag_309\n      jump\t// in\n    tag_567:\n        /* \"#utility.yul\":22508:22582   */\n      swap2\n      pop\n        /* \"#utility.yul\":22591:22684   */\n      tag_568\n        /* \"#utility.yul\":22680:22683   */\n      dup3\n        /* \"#utility.yul\":22591:22684   */\n      tag_357\n      jump\t// in\n    tag_568:\n        /* \"#utility.yul\":22709:22711   */\n      0x20\n        /* \"#utility.yul\":22704:22707   */\n      dup3\n        /* \"#utility.yul\":22700:22712   */\n      add\n        /* \"#utility.yul\":22693:22712   */\n      swap1\n      pop\n        /* \"#utility.yul\":22352:22718   */\n      swap2\n      swap1\n      pop\n      jump\t// out\n        /* \"#utility.yul\":22724:23143   */\n    tag_279:\n        /* \"#utility.yul\":22890:22894   */\n      0x00\n        /* \"#utility.yul\":22928:22930   */\n      0x20\n        /* \"#utility.yul\":22917:22926   */\n      dup3\n        /* \"#utility.yul\":22913:22931   */\n      add\n        /* \"#utility.yul\":22905:22931   */\n      swap1\n      pop\n        /* \"#utility.yul\":22977:22986   */\n      dup2\n        /* \"#utility.yul\":22971:22975   */\n      dup2\n        /* \"#utility.yul\":22967:22987   */\n      sub\n        /* \"#utility.yul\":22963:22964   */\n      0x00\n        /* \"#utility.yul\":22952:22961   */\n      dup4\n        /* \"#utility.yul\":22948:22965   */\n      add\n        /* \"#utility.yul\":22941:22988   */\n      mstore\n        /* \"#utility.yul\":23005:23136   */\n      tag_570\n        /* \"#utility.yul\":23131:23135   */\n      dup2\n        /* \"#utility.yul\":23005:23136   */\n      tag_358\n      jump\t// in\n    tag_570:\n        /* \"#utility.yul\":22997:23136   */\n      swap1\n      pop\n        /* \"#utility.yul\":22724:23143   */\n      swap2\n      swap1\n      pop\n      jump\t// out\n        /* \"#utility.yul\":23149:23329   */\n    tag_359:\n        /* \"#utility.yul\":23289:23321   */\n      0x49434f2053686f756c6420626520696e2052756e6e696e672053746174650000\n        /* \"#utility.yul\":23285:23286   */\n      0x00\n        /* \"#utility.yul\":23277:23283   */\n      dup3\n        /* \"#utility.yul\":23273:23287   */\n      add\n        /* \"#utility.yul\":23266:23322   */\n      mstore\n        /* \"#utility.yul\":23149:23329   */\n      pop\n      jump\t// out\n        /* \"#utility.yul\":23335:23701   */\n    tag_360:\n        /* \"#utility.yul\":23477:23480   */\n      0x00\n        /* \"#utility.yul\":23498:23565   */\n      tag_573\n        /* \"#utility.yul\":23562:23564   */\n      0x1e\n        /* \"#utility.yul\":23557:23560   */\n      dup4\n        /* \"#utility.yul\":23498:23565   */\n      tag_309\n      jump\t// in\n    tag_573:\n        /* \"#utility.yul\":23491:23565   */\n      swap2\n      pop\n        /* \"#utility.yul\":23574:23667   */\n      tag_574\n        /* \"#utility.yul\":23663:23666   */\n      dup3\n        /* \"#utility.yul\":23574:23667   */\n      tag_359\n      jump\t// in\n    tag_574:\n        /* \"#utility.yul\":23692:23694   */\n      0x20\n        /* \"#utility.yul\":23687:23690   */\n      dup3\n        /* \"#utility.yul\":23683:23695   */\n      add\n        /* \"#utility.yul\":23676:23695   */\n      swap1\n      pop\n        /* \"#utility.yul\":23335:23701   */\n      swap2\n      swap1\n      pop\n      jump\t// out\n        /* \"#utility.yul\":23707:24126   */\n    tag_289:\n        /* \"#utility.yul\":23873:23877   */\n      0x00\n        /* \"#utility.yul\":23911:23913   */\n      0x20\n        /* \"#utility.yul\":23900:23909   */\n      dup3\n        /* \"#utility.yul\":23896:23914   */\n      add\n        /* \"#utility.yul\":23888:23914   */\n      swap1\n      pop\n        /* \"#utility.yul\":23960:23969   */\n      dup2\n        /* \"#utility.yul\":23954:23958   */\n      dup2\n        /* \"#utility.yul\":23950:23970   */\n      sub\n        /* \"#utility.yul\":23946:23947   */\n      0x00\n        /* \"#utility.yul\":23935:23944   */\n      dup4\n        /* \"#utility.yul\":23931:23948   */\n      add\n        /* \"#utility.yul\":23924:23971   */\n      mstore\n        /* \"#utility.yul\":23988:24119   */\n      tag_576\n        /* \"#utility.yul\":24114:24118   */\n      dup2\n        /* \"#utility.yul\":23988:24119   */\n      tag_360\n      jump\t// in\n    tag_576:\n        /* \"#utility.yul\":23980:24119   */\n      swap1\n      pop\n        /* \"#utility.yul\":23707:24126   */\n      swap2\n      swap1\n      pop\n      jump\t// out\n        /* \"#utility.yul\":24132:24355   */\n    tag_361:\n        /* \"#utility.yul\":24272:24306   */\n      0x49434f2048617264636170206f722074696d656c696d6974206e6f7420726561\n        /* \"#utility.yul\":24268:24269   */\n      0x00\n        /* \"#utility.yul\":24260:24266   */\n      dup3\n        /* \"#utility.yul\":24256:24270   */\n      add\n        /* \"#utility.yul\":24249:24307   */\n      mstore\n        /* \"#utility.yul\":24341:24347   */\n      0x6368656400000000000000000000000000000000000000000000000000000000\n        /* \"#utility.yul\":24336:24338   */\n      0x20\n        /* \"#utility.yul\":24328:24334   */\n      dup3\n        /* \"#utility.yul\":24324:24339   */\n      add\n        /* \"#utility.yul\":24317:24348   */\n      mstore\n        /* \"#utility.yul\":24132:24355   */\n      pop\n      jump\t// out\n        /* \"#utility.yul\":24361:24727   */\n    tag_362:\n        /* \"#utility.yul\":24503:24506   */\n      0x00\n        /* \"#utility.yul\":24524:24591   */\n      tag_579\n        /* \"#utility.yul\":24588:24590   */\n      0x24\n        /* \"#utility.yul\":24583:24586   */\n      dup4\n        /* \"#utility.yul\":24524:24591   */\n      tag_309\n      jump\t// in\n    tag_579:\n        /* \"#utility.yul\":24517:24591   */\n      swap2\n      pop\n        /* \"#utility.yul\":24600:24693   */\n      tag_580\n        /* \"#utility.yul\":24689:24692   */\n      dup3\n        /* \"#utility.yul\":24600:24693   */\n      tag_361\n      jump\t// in\n    tag_580:\n        /* \"#utility.yul\":24718:24720   */\n      0x40\n        /* \"#utility.yul\":24713:24716   */\n      dup3\n        /* \"#utility.yul\":24709:24721   */\n      add\n        /* \"#utility.yul\":24702:24721   */\n      swap1\n      pop\n        /* \"#utility.yul\":24361:24727   */\n      swap2\n      swap1\n      pop\n      jump\t// out\n        /* \"#utility.yul\":24733:25152   */\n    tag_293:\n        /* \"#utility.yul\":24899:24903   */\n      0x00\n        /* \"#utility.yul\":24937:24939   */\n      0x20\n        /* \"#utility.yul\":24926:24935   */\n      dup3\n        /* \"#utility.yul\":24922:24940   */\n      add\n        /* \"#utility.yul\":24914:24940   */\n      swap1\n      pop\n        /* \"#utility.yul\":24986:24995   */\n      dup2\n        /* \"#utility.yul\":24980:24984   */\n      dup2\n        /* \"#utility.yul\":24976:24996   */\n      sub\n        /* \"#utility.yul\":24972:24973   */\n      0x00\n        /* \"#utility.yul\":24961:24970   */\n      dup4\n        /* \"#utility.yul\":24957:24974   */\n      add\n        /* \"#utility.yul\":24950:24997   */\n      mstore\n        /* \"#utility.yul\":25014:25145   */\n      tag_582\n        /* \"#utility.yul\":25140:25144   */\n      dup2\n        /* \"#utility.yul\":25014:25145   */\n      tag_362\n      jump\t// in\n    tag_582:\n        /* \"#utility.yul\":25006:25145   */\n      swap1\n      pop\n        /* \"#utility.yul\":24733:25152   */\n      swap2\n      swap1\n      pop\n      jump\t// out\n\n    auxdata: 0xa2646970667358221220a9bf761e1d752fba50074ea2baad32bd12a25d482ca17d278804bf299d1f50d964736f6c63430008100033\n}\n",
				"bytecode": {
					"linkReferences": {},
					"object": "6080604052655af3107a4000600355681b1ae4d6e2ef50000060045566038d7ea4c680006006556729a2241af62c00006007553480156200003f57600080fd5b50604051620024bc380380620024bc8339818101604052810190620000659190620001de565b336000806101000a81548173ffffffffffffffffffffffffffffffffffffffff021916908373ffffffffffffffffffffffffffffffffffffffff16021790555081600160006101000a81548173ffffffffffffffffffffffffffffffffffffffff021916908373ffffffffffffffffffffffffffffffffffffffff16021790555080600260006101000a81548173ffffffffffffffffffffffffffffffffffffffff021916908373ffffffffffffffffffffffffffffffffffffffff160217905550505062000225565b600080fd5b600073ffffffffffffffffffffffffffffffffffffffff82169050919050565b6000620001618262000134565b9050919050565b620001738162000154565b81146200017f57600080fd5b50565b600081519050620001938162000168565b92915050565b6000620001a68262000134565b9050919050565b620001b88162000199565b8114620001c457600080fd5b50565b600081519050620001d881620001ad565b92915050565b60008060408385031215620001f857620001f76200012f565b5b6000620002088582860162000182565b92505060206200021b85828601620001c7565b9150509250929050565b61228780620002356000396000f3fe6080604052600436106101425760003560e01c80638ac2c680116100b6578063c59ee1dc1161006f578063c59ee1dc1461041a578063e657807b14610445578063e8b5e51f1461045c578063f851a4401461047a578063fb86a404146104a5578063fc0c546a146104d057610151565b80638ac2c6801461032e5780638f283970146103595780639cbd7da514610382578063a7c3d71b14610399578063ae764df3146103c4578063aeecdc2c146103ef57610151565b806344df8e701161010857806344df8e701461022e5780636127b2ca1461025957806361fba37d146102845780637e1055b6146102c15780637fa8c158146102ec5780637ff9b5961461030357610151565b80622e13161461015b578062f53e6914610186578063129caa18146101af5780631aae3460146101c65780632e659d931461020357610151565b366101515761014f6104fb565b005b6101596104fb565b005b34801561016757600080fd5b506101706109a3565b60405161017d91906115fb565b60405180910390f35b34801561019257600080fd5b506101ad60048036038101906101a89190611679565b6109a9565b005b3480156101bb57600080fd5b506101c4610a7b565b005b3480156101d257600080fd5b506101ed60048036038101906101e891906116e4565b610bac565b6040516101fa91906115fb565b60405180910390f35b34801561020f57600080fd5b50610218610bc4565b60405161022591906117a1565b60405180910390f35b34801561023a57600080fd5b50610243610d6a565b60405161025091906117de565b60405180910390f35b34801561026557600080fd5b5061026e610fac565b60405161027b91906115fb565b60405180910390f35b34801561029057600080fd5b506102ab60048036038101906102a691906116e4565b61104f565b6040516102b891906115fb565b60405180910390f35b3480156102cd57600080fd5b506102d66110f4565b6040516102e391906115fb565b60405180910390f35b3480156102f857600080fd5b506103016110fa565b005b34801561030f57600080fd5b5061031861124a565b60405161032591906115fb565b60405180910390f35b34801561033a57600080fd5b50610343611250565b60405161035091906115fb565b60405180910390f35b34801561036557600080fd5b50610380600480360381019061037b91906116e4565b611256565b005b34801561038e57600080fd5b50610397611327565b005b3480156103a557600080fd5b506103ae611457565b6040516103bb91906115fb565b60405180910390f35b3480156103d057600080fd5b506103d961145d565b6040516103e69190611808565b60405180910390f35b3480156103fb57600080fd5b50610404611483565b604051610411919061189a565b60405180910390f35b34801561042657600080fd5b5061042f611496565b60405161043c91906115fb565b60405180910390f35b34801561045157600080fd5b5061045a61149c565b005b6104646104fb565b60405161047191906117de565b60405180910390f35b34801561048657600080fd5b5061048f611592565b60405161049c91906118c4565b60405180910390f35b3480156104b157600080fd5b506104ba6115b6565b6040516104c791906115fb565b60405180910390f35b3480156104dc57600080fd5b506104e56115bc565b6040516104f2919061193e565b60405180910390f35b60006001600381111561051157610510611823565b5b600b60009054906101000a900460ff16600381111561053357610532611823565b5b14610573576040517f08c379a000000000000000000000000000000000000000000000000000000000815260040161056a906119a5565b60405180910390fd5b600654341015801561058757506007543411155b6105c6576040517f08c379a00000000000000000000000000000000000000000000000000000000081526004016105bd90611a11565b60405180910390fd5b60075434600a60003373ffffffffffffffffffffffffffffffffffffffff1673ffffffffffffffffffffffffffffffffffffffff168152602001908152602001600020546106149190611a60565b1115610655576040517f08c379a000000000000000000000000000000000000000000000000000000000815260040161064c90611b06565b60405180910390fd5b600454346005546106669190611a60565b11156106a7576040517f08c379a000000000000000000000000000000000000000000000000000000000815260040161069e90611b72565b60405180910390fd5b6009544211156106ec576040517f08c379a00000000000000000000000000000000000000000000000000000000081526004016106e390611c04565b60405180910390fd5b34600560008282546106fe9190611a60565b9250508190555034600a60003373ffffffffffffffffffffffffffffffffffffffff1673ffffffffffffffffffffffffffffffffffffffff16815260200190815260200160002060008282546107549190611a60565b925050819055506000600160009054906101000a900473ffffffffffffffffffffffffffffffffffffffff1673ffffffffffffffffffffffffffffffffffffffff16346040516107a390611c55565b60006040518083038185875af1925050503d80600081146107e0576040519150601f19603f3d011682016040523d82523d6000602084013e6107e5565b606091505b5050905080610829576040517f08c379a000000000000000000000000000000000000000000000000000000000815260040161082090611cb6565b60405180910390fd5b6000670de0b6b3a7640000600354346108429190611d05565b61084c9190611d36565b90506000600260009054906101000a900473ffffffffffffffffffffffffffffffffffffffff1673ffffffffffffffffffffffffffffffffffffffff1663a9059cbb33846040518363ffffffff1660e01b81526004016108ad929190611d90565b6020604051808303816000875af11580156108cc573d6000803e3d6000fd5b505050506040513d601f19601f820116820180604052508101906108f09190611de5565b905080610932576040517f08c379a000000000000000000000000000000000000000000000000000000000815260040161092990611cb6565b60405180910390fd5b3373ffffffffffffffffffffffffffffffffffffffff163073ffffffffffffffffffffffffffffffffffffffff167f2e206bbdd5787cd6d3e97144dec044f9f15dd77a257afd27fa70cad6f03feae33485604051610991929190611e12565b60405180910390a36001935050505090565b60075481565b60008054906101000a900473ffffffffffffffffffffffffffffffffffffffff1673ffffffffffffffffffffffffffffffffffffffff163373ffffffffffffffffffffffffffffffffffffffff1614610a37576040517f08c379a0000000000000000000000000000000000000000000000000000000008152600401610a2e90611e87565b60405180910390fd5b80600160006101000a81548173ffffffffffffffffffffffffffffffffffffffff021916908373ffffffffffffffffffffffffffffffffffffffff16021790555050565b60008054906101000a900473ffffffffffffffffffffffffffffffffffffffff1673ffffffffffffffffffffffffffffffffffffffff163373ffffffffffffffffffffffffffffffffffffffff1614610b09576040517f08c379a0000000000000000000000000000000000000000000000000000000008152600401610b0090611e87565b60405180910390fd5b60016003811115610b1d57610b1c611823565b5b600b60009054906101000a900460ff166003811115610b3f57610b3e611823565b5b14610b7f576040517f08c379a0000000000000000000000000000000000000000000000000000000008152600401610b7690611ef3565b60405180910390fd5b6003600b60006101000a81548160ff02191690836003811115610ba557610ba4611823565b5b0217905550565b600a6020528060005260406000206000915090505481565b606060006003811115610bda57610bd9611823565b5b600b60009054906101000a900460ff166003811115610bfc57610bfb611823565b5b03610c3e576040518060400160405280600b81526020017f4e6f7420537461727465640000000000000000000000000000000000000000008152509050610d67565b60016003811115610c5257610c51611823565b5b600b60009054906101000a900460ff166003811115610c7457610c73611823565b5b03610cb6576040518060400160405280600781526020017f52756e6e696e67000000000000000000000000000000000000000000000000008152509050610d67565b60026003811115610cca57610cc9611823565b5b600b60009054906101000a900460ff166003811115610cec57610ceb611823565b5b03610d2e576040518060400160405280600381526020017f456e6400000000000000000000000000000000000000000000000000000000008152509050610d67565b6040518060400160405280600681526020017f48616c746564000000000000000000000000000000000000000000000000000081525090505b90565b600060026003811115610d8057610d7f611823565b5b600b60009054906101000a900460ff166003811115610da257610da1611823565b5b14610de2576040517f08c379a0000000000000000000000000000000000000000000000000000000008152600401610dd990611f5f565b60405180910390fd5b6000600260009054906101000a900473ffffffffffffffffffffffffffffffffffffffff1673ffffffffffffffffffffffffffffffffffffffff166370a08231306040518263ffffffff1660e01b8152600401610e3f91906118c4565b602060405180830381865afa158015610e5c573d6000803e3d6000fd5b505050506040513d601f19601f82011682018060405250810190610e809190611fab565b90506000600260009054906101000a900473ffffffffffffffffffffffffffffffffffffffff1673ffffffffffffffffffffffffffffffffffffffff1663a9059cbb6000846040518363ffffffff1660e01b8152600401610ee2929190611d90565b6020604051808303816000875af1158015610f01573d6000803e3d6000fd5b505050506040513d601f19601f82011682018060405250810190610f259190611de5565b905080610f67576040517f08c379a0000000000000000000000000000000000000000000000000000000008152600401610f5e90612024565b60405180910390fd5b7ffe9e0b0c1e3e9216717d5f66d10bc310b12c366417e150b4b1af9fb9620bca9160008342604051610f9b93929190612044565b60405180910390a160019250505090565b6000600260009054906101000a900473ffffffffffffffffffffffffffffffffffffffff1673ffffffffffffffffffffffffffffffffffffffff166370a08231306040518263ffffffff1660e01b815260040161100991906118c4565b602060405180830381865afa158015611026573d6000803e3d6000fd5b505050506040513d601f19601f8201168201806040525081019061104a9190611fab565b905090565b6000600260009054906101000a900473ffffffffffffffffffffffffffffffffffffffff1673ffffffffffffffffffffffffffffffffffffffff166370a08231836040518263ffffffff1660e01b81526004016110ac91906118c4565b602060405180830381865afa1580156110c9573d6000803e3d6000fd5b505050506040513d601f19601f820116820180604052508101906110ed9190611fab565b9050919050565b60095481565b60008054906101000a900473ffffffffffffffffffffffffffffffffffffffff1673ffffffffffffffffffffffffffffffffffffffff163373ffffffffffffffffffffffffffffffffffffffff1614611188576040517f08c379a000000000000000000000000000000000000000000000000000000000815260040161117f90611e87565b60405180910390fd5b6000600381111561119c5761119b611823565b5b600b60009054906101000a900460ff1660038111156111be576111bd611823565b5b146111fe576040517f08c379a00000000000000000000000000000000000000000000000000000000081526004016111f5906120c7565b60405180910390fd5b426008819055506301e133806008546112179190611a60565b6009819055506001600b60006101000a81548160ff0219169083600381111561124357611242611823565b5b0217905550565b60035481565b60065481565b60008054906101000a900473ffffffffffffffffffffffffffffffffffffffff1673ffffffffffffffffffffffffffffffffffffffff163373ffffffffffffffffffffffffffffffffffffffff16146112e4576040517f08c379a00000000000000000000000000000000000000000000000000000000081526004016112db90611e87565b60405180910390fd5b806000806101000a81548173ffffffffffffffffffffffffffffffffffffffff021916908373ffffffffffffffffffffffffffffffffffffffff16021790555050565b60008054906101000a900473ffffffffffffffffffffffffffffffffffffffff1673ffffffffffffffffffffffffffffffffffffffff163373ffffffffffffffffffffffffffffffffffffffff16146113b5576040517f08c379a00000000000000000000000000000000000000000000000000000000081526004016113ac90611e87565b60405180910390fd5b6003808111156113c8576113c7611823565b5b600b60009054906101000a900460ff1660038111156113ea576113e9611823565b5b1461142a576040517f08c379a000000000000000000000000000000000000000000000000000000000815260040161142190612133565b60405180910390fd5b6001600b60006101000a81548160ff021916908360038111156114505761144f611823565b5b0217905550565b60085481565b600160009054906101000a900473ffffffffffffffffffffffffffffffffffffffff1681565b600b60009054906101000a900460ff1681565b60055481565b600160038111156114b0576114af611823565b5b600b60009054906101000a900460ff1660038111156114d2576114d1611823565b5b14611512576040517f08c379a00000000000000000000000000000000000000000000000000000000081526004016115099061219f565b60405180910390fd5b600954421180611526575060045460055410155b611565576040517f08c379a000000000000000000000000000000000000000000000000000000000815260040161155c90612231565b60405180910390fd5b6002600b60006101000a81548160ff0219169083600381111561158b5761158a611823565b5b0217905550565b60008054906101000a900473ffffffffffffffffffffffffffffffffffffffff1681565b60045481565b600260009054906101000a900473ffffffffffffffffffffffffffffffffffffffff1681565b6000819050919050565b6115f5816115e2565b82525050565b600060208201905061161060008301846115ec565b92915050565b600080fd5b600073ffffffffffffffffffffffffffffffffffffffff82169050919050565b60006116468261161b565b9050919050565b6116568161163b565b811461166157600080fd5b50565b6000813590506116738161164d565b92915050565b60006020828403121561168f5761168e611616565b5b600061169d84828501611664565b91505092915050565b60006116b18261161b565b9050919050565b6116c1816116a6565b81146116cc57600080fd5b50565b6000813590506116de816116b8565b92915050565b6000602082840312156116fa576116f9611616565b5b6000611708848285016116cf565b91505092915050565b600081519050919050565b600082825260208201905092915050565b60005b8381101561174b578082015181840152602081019050611730565b60008484015250505050565b6000601f19601f8301169050919050565b600061177382611711565b61177d818561171c565b935061178d81856020860161172d565b61179681611757565b840191505092915050565b600060208201905081810360008301526117bb8184611768565b905092915050565b60008115159050919050565b6117d8816117c3565b82525050565b60006020820190506117f360008301846117cf565b92915050565b6118028161163b565b82525050565b600060208201905061181d60008301846117f9565b92915050565b7f4e487b7100000000000000000000000000000000000000000000000000000000600052602160045260246000fd5b6004811061186357611862611823565b5b50565b600081905061187482611852565b919050565b600061188482611866565b9050919050565b61189481611879565b82525050565b60006020820190506118af600083018461188b565b92915050565b6118be816116a6565b82525050565b60006020820190506118d960008301846118b5565b92915050565b6000819050919050565b60006119046118ff6118fa8461161b565b6118df565b61161b565b9050919050565b6000611916826118e9565b9050919050565b60006119288261190b565b9050919050565b6119388161191d565b82525050565b6000602082019050611953600083018461192f565b92915050565b7f49434f2069736e27742072756e6e696e67000000000000000000000000000000600082015250565b600061198f60118361171c565b915061199a82611959565b602082019050919050565b600060208201905081810360008301526119be81611982565b9050919050565b7f436865636b204d696e20616e64204d617820496e766573746d656e7400000000600082015250565b60006119fb601c8361171c565b9150611a06826119c5565b602082019050919050565b60006020820190508181036000830152611a2a816119ee565b9050919050565b7f4e487b7100000000000000000000000000000000000000000000000000000000600052601160045260246000fd5b6000611a6b826115e2565b9150611a76836115e2565b9250828201905080821115611a8e57611a8d611a31565b5b92915050565b7f496e766573746f722072656163686564206d6178696d756d20496e766573746d60008201527f656e7420416d6f756e7400000000000000000000000000000000000000000000602082015250565b6000611af0602a8361171c565b9150611afb82611a94565b604082019050919050565b60006020820190508181036000830152611b1f81611ae3565b9050919050565b7f53656e642077697468696e20686172646361702072616e676500000000000000600082015250565b6000611b5c60198361171c565b9150611b6782611b26565b602082019050919050565b60006020820190508181036000830152611b8b81611b4f565b9050919050565b7f49434f20616c72656164792052656163686564204d6178696d756d2074696d6560008201527f206c696d69740000000000000000000000000000000000000000000000000000602082015250565b6000611bee60268361171c565b9150611bf982611b92565b604082019050919050565b60006020820190508181036000830152611c1d81611be1565b9050919050565b600081905092915050565b50565b6000611c3f600083611c24565b9150611c4a82611c2f565b600082019050919050565b6000611c6082611c32565b9150819050919050565b7f4661696c656420746f20496e7665737400000000000000000000000000000000600082015250565b6000611ca060108361171c565b9150611cab82611c6a565b602082019050919050565b60006020820190508181036000830152611ccf81611c93565b9050919050565b7f4e487b7100000000000000000000000000000000000000000000000000000000600052601260045260246000fd5b6000611d10826115e2565b9150611d1b836115e2565b925082611d2b57611d2a611cd6565b5b828204905092915050565b6000611d41826115e2565b9150611d4c836115e2565b9250817fffffffffffffffffffffffffffffffffffffffffffffffffffffffffffffffff0483118215151615611d8557611d84611a31565b5b828202905092915050565b6000604082019050611da560008301856118b5565b611db260208301846115ec565b9392505050565b611dc2816117c3565b8114611dcd57600080fd5b50565b600081519050611ddf81611db9565b92915050565b600060208284031215611dfb57611dfa611616565b5b6000611e0984828501611dd0565b91505092915050565b6000604082019050611e2760008301856115ec565b611e3460208301846115ec565b9392505050565b7f41646d696e204f6e6c792066756e6374696f6e00000000000000000000000000600082015250565b6000611e7160138361171c565b9150611e7c82611e3b565b602082019050919050565b60006020820190508181036000830152611ea081611e64565b9050919050565b7f49434f2069736e27742072756e6e696e67207965740000000000000000000000600082015250565b6000611edd60158361171c565b9150611ee882611ea7565b602082019050919050565b60006020820190508181036000830152611f0c81611ed0565b9050919050565b7f49434f2069736e2774206f766572207965740000000000000000000000000000600082015250565b6000611f4960128361171c565b9150611f5482611f13565b602082019050919050565b60006020820190508181036000830152611f7881611f3c565b9050919050565b611f88816115e2565b8114611f9357600080fd5b50565b600081519050611fa581611f7f565b92915050565b600060208284031215611fc157611fc0611616565b5b6000611fcf84828501611f96565b91505092915050565b7f4661696c656420746f206275726e2072656d61696e696e6720746f6b656e7300600082015250565b600061200e601f8361171c565b915061201982611fd8565b602082019050919050565b6000602082019050818103600083015261203d81612001565b9050919050565b600060608201905061205960008301866118b5565b61206660208301856115ec565b61207360408301846115ec565b949350505050565b7f49434f2069736e277420696e206265666f726520737461746500000000000000600082015250565b60006120b160198361171c565b91506120bc8261207b565b602082019050919050565b600060208201905081810360008301526120e0816120a4565b9050919050565b7f49434f2053746174652069736e27742068616c74656420796574000000000000600082015250565b600061211d601a8361171c565b9150612128826120e7565b602082019050919050565b6000602082019050818103600083015261214c81612110565b9050919050565b7f49434f2053686f756c6420626520696e2052756e6e696e672053746174650000600082015250565b6000612189601e8361171c565b915061219482612153565b602082019050919050565b600060208201905081810360008301526121b88161217c565b9050919050565b7f49434f2048617264636170206f722074696d656c696d6974206e6f742072656160008201527f6368656400000000000000000000000000000000000000000000000000000000602082015250565b600061221b60248361171c565b9150612226826121bf565b604082019050919050565b6000602082019050818103600083015261224a8161220e565b905091905056fea2646970667358221220a9bf761e1d752fba50074ea2baad32bd12a25d482ca17d278804bf299d1f50d964736f6c63430008100033",
					"opcodes": "PUSH1 0x80 PUSH1 0x40 MSTORE PUSH6 0x5AF3107A4000 PUSH1 0x3 SSTORE PUSH9 0x1B1AE4D6E2EF500000 PUSH1 0x4 SSTORE PUSH7 0x38D7EA4C68000 PUSH1 0x6 SSTORE PUSH8 0x29A2241AF62C0000 PUSH1 0x7 SSTORE CALLVALUE DUP1 ISZERO PUSH3 0x3F JUMPI PUSH1 0x0 DUP1 REVERT JUMPDEST POP PUSH1 0x40 MLOAD PUSH3 0x24BC CODESIZE SUB DUP1 PUSH3 0x24BC DUP4 CODECOPY DUP2 DUP2 ADD PUSH1 0x40 MSTORE DUP2 ADD SWAP1 PUSH3 0x65 SWAP2 SWAP1 PUSH3 0x1DE JUMP JUMPDEST CALLER PUSH1 0x0 DUP1 PUSH2 0x100 EXP DUP2 SLOAD DUP2 PUSH20 0xFFFFFFFFFFFFFFFFFFFFFFFFFFFFFFFFFFFFFFFF MUL NOT AND SWAP1 DUP4 PUSH20 0xFFFFFFFFFFFFFFFFFFFFFFFFFFFFFFFFFFFFFFFF AND MUL OR SWAP1 SSTORE POP DUP2 PUSH1 0x1 PUSH1 0x0 PUSH2 0x100 EXP DUP2 SLOAD DUP2 PUSH20 0xFFFFFFFFFFFFFFFFFFFFFFFFFFFFFFFFFFFFFFFF MUL NOT AND SWAP1 DUP4 PUSH20 0xFFFFFFFFFFFFFFFFFFFFFFFFFFFFFFFFFFFFFFFF AND MUL OR SWAP1 SSTORE POP DUP1 PUSH1 0x2 PUSH1 0x0 PUSH2 0x100 EXP DUP2 SLOAD DUP2 PUSH20 0xFFFFFFFFFFFFFFFFFFFFFFFFFFFFFFFFFFFFFFFF MUL NOT AND SWAP1 DUP4 PUSH20 0xFFFFFFFFFFFFFFFFFFFFFFFFFFFFFFFFFFFFFFFF AND MUL OR SWAP1 SSTORE POP POP POP PUSH3 0x225 JUMP JUMPDEST PUSH1 0x0 DUP1 REVERT JUMPDEST PUSH1 0x0 PUSH20 0xFFFFFFFFFFFFFFFFFFFFFFFFFFFFFFFFFFFFFFFF DUP3 AND SWAP1 POP SWAP2 SWAP1 POP JUMP JUMPDEST PUSH1 0x0 PUSH3 0x161 DUP3 PUSH3 0x134 JUMP JUMPDEST SWAP1 POP SWAP2 SWAP1 POP JUMP JUMPDEST PUSH3 0x173 DUP2 PUSH3 0x154 JUMP JUMPDEST DUP2 EQ PUSH3 0x17F JUMPI PUSH1 0x0 DUP1 REVERT JUMPDEST POP JUMP JUMPDEST PUSH1 0x0 DUP2 MLOAD SWAP1 POP PUSH3 0x193 DUP2 PUSH3 0x168 JUMP JUMPDEST SWAP3 SWAP2 POP POP JUMP JUMPDEST PUSH1 0x0 PUSH3 0x1A6 DUP3 PUSH3 0x134 JUMP JUMPDEST SWAP1 POP SWAP2 SWAP1 POP JUMP JUMPDEST PUSH3 0x1B8 DUP2 PUSH3 0x199 JUMP JUMPDEST DUP2 EQ PUSH3 0x1C4 JUMPI PUSH1 0x0 DUP1 REVERT JUMPDEST POP JUMP JUMPDEST PUSH1 0x0 DUP2 MLOAD SWAP1 POP PUSH3 0x1D8 DUP2 PUSH3 0x1AD JUMP JUMPDEST SWAP3 SWAP2 POP POP JUMP JUMPDEST PUSH1 0x0 DUP1 PUSH1 0x40 DUP4 DUP6 SUB SLT ISZERO PUSH3 0x1F8 JUMPI PUSH3 0x1F7 PUSH3 0x12F JUMP JUMPDEST JUMPDEST PUSH1 0x0 PUSH3 0x208 DUP6 DUP3 DUP7 ADD PUSH3 0x182 JUMP JUMPDEST SWAP3 POP POP PUSH1 0x20 PUSH3 0x21B DUP6 DUP3 DUP7 ADD PUSH3 0x1C7 JUMP JUMPDEST SWAP2 POP POP SWAP3 POP SWAP3 SWAP1 POP JUMP JUMPDEST PUSH2 0x2287 DUP1 PUSH3 0x235 PUSH1 0x0 CODECOPY PUSH1 0x0 RETURN INVALID PUSH1 0x80 PUSH1 0x40 MSTORE PUSH1 0x4 CALLDATASIZE LT PUSH2 0x142 JUMPI PUSH1 0x0 CALLDATALOAD PUSH1 0xE0 SHR DUP1 PUSH4 0x8AC2C680 GT PUSH2 0xB6 JUMPI DUP1 PUSH4 0xC59EE1DC GT PUSH2 0x6F JUMPI DUP1 PUSH4 0xC59EE1DC EQ PUSH2 0x41A JUMPI DUP1 PUSH4 0xE657807B EQ PUSH2 0x445 JUMPI DUP1 PUSH4 0xE8B5E51F EQ PUSH2 0x45C JUMPI DUP1 PUSH4 0xF851A440 EQ PUSH2 0x47A JUMPI DUP1 PUSH4 0xFB86A404 EQ PUSH2 0x4A5 JUMPI DUP1 PUSH4 0xFC0C546A EQ PUSH2 0x4D0 JUMPI PUSH2 0x151 JUMP JUMPDEST DUP1 PUSH4 0x8AC2C680 EQ PUSH2 0x32E JUMPI DUP1 PUSH4 0x8F283970 EQ PUSH2 0x359 JUMPI DUP1 PUSH4 0x9CBD7DA5 EQ PUSH2 0x382 JUMPI DUP1 PUSH4 0xA7C3D71B EQ PUSH2 0x399 JUMPI DUP1 PUSH4 0xAE764DF3 EQ PUSH2 0x3C4 JUMPI DUP1 PUSH4 0xAEECDC2C EQ PUSH2 0x3EF JUMPI PUSH2 0x151 JUMP JUMPDEST DUP1 PUSH4 0x44DF8E70 GT PUSH2 0x108 JUMPI DUP1 PUSH4 0x44DF8E70 EQ PUSH2 0x22E JUMPI DUP1 PUSH4 0x6127B2CA EQ PUSH2 0x259 JUMPI DUP1 PUSH4 0x61FBA37D EQ PUSH2 0x284 JUMPI DUP1 PUSH4 0x7E1055B6 EQ PUSH2 0x2C1 JUMPI DUP1 PUSH4 0x7FA8C158 EQ PUSH2 0x2EC JUMPI DUP1 PUSH4 0x7FF9B596 EQ PUSH2 0x303 JUMPI PUSH2 0x151 JUMP JUMPDEST DUP1 PUSH3 0x2E1316 EQ PUSH2 0x15B JUMPI DUP1 PUSH3 0xF53E69 EQ PUSH2 0x186 JUMPI DUP1 PUSH4 0x129CAA18 EQ PUSH2 0x1AF JUMPI DUP1 PUSH4 0x1AAE3460 EQ PUSH2 0x1C6 JUMPI DUP1 PUSH4 0x2E659D93 EQ PUSH2 0x203 JUMPI PUSH2 0x151 JUMP JUMPDEST CALLDATASIZE PUSH2 0x151 JUMPI PUSH2 0x14F PUSH2 0x4FB JUMP JUMPDEST STOP JUMPDEST PUSH2 0x159 PUSH2 0x4FB JUMP JUMPDEST STOP JUMPDEST CALLVALUE DUP1 ISZERO PUSH2 0x167 JUMPI PUSH1 0x0 DUP1 REVERT JUMPDEST POP PUSH2 0x170 PUSH2 0x9A3 JUMP JUMPDEST PUSH1 0x40 MLOAD PUSH2 0x17D SWAP2 SWAP1 PUSH2 0x15FB JUMP JUMPDEST PUSH1 0x40 MLOAD DUP1 SWAP2 SUB SWAP1 RETURN JUMPDEST CALLVALUE DUP1 ISZERO PUSH2 0x192 JUMPI PUSH1 0x0 DUP1 REVERT JUMPDEST POP PUSH2 0x1AD PUSH1 0x4 DUP1 CALLDATASIZE SUB DUP2 ADD SWAP1 PUSH2 0x1A8 SWAP2 SWAP1 PUSH2 0x1679 JUMP JUMPDEST PUSH2 0x9A9 JUMP JUMPDEST STOP JUMPDEST CALLVALUE DUP1 ISZERO PUSH2 0x1BB JUMPI PUSH1 0x0 DUP1 REVERT JUMPDEST POP PUSH2 0x1C4 PUSH2 0xA7B JUMP JUMPDEST STOP JUMPDEST CALLVALUE DUP1 ISZERO PUSH2 0x1D2 JUMPI PUSH1 0x0 DUP1 REVERT JUMPDEST POP PUSH2 0x1ED PUSH1 0x4 DUP1 CALLDATASIZE SUB DUP2 ADD SWAP1 PUSH2 0x1E8 SWAP2 SWAP1 PUSH2 0x16E4 JUMP JUMPDEST PUSH2 0xBAC JUMP JUMPDEST PUSH1 0x40 MLOAD PUSH2 0x1FA SWAP2 SWAP1 PUSH2 0x15FB JUMP JUMPDEST PUSH1 0x40 MLOAD DUP1 SWAP2 SUB SWAP1 RETURN JUMPDEST CALLVALUE DUP1 ISZERO PUSH2 0x20F JUMPI PUSH1 0x0 DUP1 REVERT JUMPDEST POP PUSH2 0x218 PUSH2 0xBC4 JUMP JUMPDEST PUSH1 0x40 MLOAD PUSH2 0x225 SWAP2 SWAP1 PUSH2 0x17A1 JUMP JUMPDEST PUSH1 0x40 MLOAD DUP1 SWAP2 SUB SWAP1 RETURN JUMPDEST CALLVALUE DUP1 ISZERO PUSH2 0x23A JUMPI PUSH1 0x0 DUP1 REVERT JUMPDEST POP PUSH2 0x243 PUSH2 0xD6A JUMP JUMPDEST PUSH1 0x40 MLOAD PUSH2 0x250 SWAP2 SWAP1 PUSH2 0x17DE JUMP JUMPDEST PUSH1 0x40 MLOAD DUP1 SWAP2 SUB SWAP1 RETURN JUMPDEST CALLVALUE DUP1 ISZERO PUSH2 0x265 JUMPI PUSH1 0x0 DUP1 REVERT JUMPDEST POP PUSH2 0x26E PUSH2 0xFAC JUMP JUMPDEST PUSH1 0x40 MLOAD PUSH2 0x27B SWAP2 SWAP1 PUSH2 0x15FB JUMP JUMPDEST PUSH1 0x40 MLOAD DUP1 SWAP2 SUB SWAP1 RETURN JUMPDEST CALLVALUE DUP1 ISZERO PUSH2 0x290 JUMPI PUSH1 0x0 DUP1 REVERT JUMPDEST POP PUSH2 0x2AB PUSH1 0x4 DUP1 CALLDATASIZE SUB DUP2 ADD SWAP1 PUSH2 0x2A6 SWAP2 SWAP1 PUSH2 0x16E4 JUMP JUMPDEST PUSH2 0x104F JUMP JUMPDEST PUSH1 0x40 MLOAD PUSH2 0x2B8 SWAP2 SWAP1 PUSH2 0x15FB JUMP JUMPDEST PUSH1 0x40 MLOAD DUP1 SWAP2 SUB SWAP1 RETURN JUMPDEST CALLVALUE DUP1 ISZERO PUSH2 0x2CD JUMPI PUSH1 0x0 DUP1 REVERT JUMPDEST POP PUSH2 0x2D6 PUSH2 0x10F4 JUMP JUMPDEST PUSH1 0x40 MLOAD PUSH2 0x2E3 SWAP2 SWAP1 PUSH2 0x15FB JUMP JUMPDEST PUSH1 0x40 MLOAD DUP1 SWAP2 SUB SWAP1 RETURN JUMPDEST CALLVALUE DUP1 ISZERO PUSH2 0x2F8 JUMPI PUSH1 0x0 DUP1 REVERT JUMPDEST POP PUSH2 0x301 PUSH2 0x10FA JUMP JUMPDEST STOP JUMPDEST CALLVALUE DUP1 ISZERO PUSH2 0x30F JUMPI PUSH1 0x0 DUP1 REVERT JUMPDEST POP PUSH2 0x318 PUSH2 0x124A JUMP JUMPDEST PUSH1 0x40 MLOAD PUSH2 0x325 SWAP2 SWAP1 PUSH2 0x15FB JUMP JUMPDEST PUSH1 0x40 MLOAD DUP1 SWAP2 SUB SWAP1 RETURN JUMPDEST CALLVALUE DUP1 ISZERO PUSH2 0x33A JUMPI PUSH1 0x0 DUP1 REVERT JUMPDEST POP PUSH2 0x343 PUSH2 0x1250 JUMP JUMPDEST PUSH1 0x40 MLOAD PUSH2 0x350 SWAP2 SWAP1 PUSH2 0x15FB JUMP JUMPDEST PUSH1 0x40 MLOAD DUP1 SWAP2 SUB SWAP1 RETURN JUMPDEST CALLVALUE DUP1 ISZERO PUSH2 0x365 JUMPI PUSH1 0x0 DUP1 REVERT JUMPDEST POP PUSH2 0x380 PUSH1 0x4 DUP1 CALLDATASIZE SUB DUP2 ADD SWAP1 PUSH2 0x37B SWAP2 SWAP1 PUSH2 0x16E4 JUMP JUMPDEST PUSH2 0x1256 JUMP JUMPDEST STOP JUMPDEST CALLVALUE DUP1 ISZERO PUSH2 0x38E JUMPI PUSH1 0x0 DUP1 REVERT JUMPDEST POP PUSH2 0x397 PUSH2 0x1327 JUMP JUMPDEST STOP JUMPDEST CALLVALUE DUP1 ISZERO PUSH2 0x3A5 JUMPI PUSH1 0x0 DUP1 REVERT JUMPDEST POP PUSH2 0x3AE PUSH2 0x1457 JUMP JUMPDEST PUSH1 0x40 MLOAD PUSH2 0x3BB SWAP2 SWAP1 PUSH2 0x15FB JUMP JUMPDEST PUSH1 0x40 MLOAD DUP1 SWAP2 SUB SWAP1 RETURN JUMPDEST CALLVALUE DUP1 ISZERO PUSH2 0x3D0 JUMPI PUSH1 0x0 DUP1 REVERT JUMPDEST POP PUSH2 0x3D9 PUSH2 0x145D JUMP JUMPDEST PUSH1 0x40 MLOAD PUSH2 0x3E6 SWAP2 SWAP1 PUSH2 0x1808 JUMP JUMPDEST PUSH1 0x40 MLOAD DUP1 SWAP2 SUB SWAP1 RETURN JUMPDEST CALLVALUE DUP1 ISZERO PUSH2 0x3FB JUMPI PUSH1 0x0 DUP1 REVERT JUMPDEST POP PUSH2 0x404 PUSH2 0x1483 JUMP JUMPDEST PUSH1 0x40 MLOAD PUSH2 0x411 SWAP2 SWAP1 PUSH2 0x189A JUMP JUMPDEST PUSH1 0x40 MLOAD DUP1 SWAP2 SUB SWAP1 RETURN JUMPDEST CALLVALUE DUP1 ISZERO PUSH2 0x426 JUMPI PUSH1 0x0 DUP1 REVERT JUMPDEST POP PUSH2 0x42F PUSH2 0x1496 JUMP JUMPDEST PUSH1 0x40 MLOAD PUSH2 0x43C SWAP2 SWAP1 PUSH2 0x15FB JUMP JUMPDEST PUSH1 0x40 MLOAD DUP1 SWAP2 SUB SWAP1 RETURN JUMPDEST CALLVALUE DUP1 ISZERO PUSH2 0x451 JUMPI PUSH1 0x0 DUP1 REVERT JUMPDEST POP PUSH2 0x45A PUSH2 0x149C JUMP JUMPDEST STOP JUMPDEST PUSH2 0x464 PUSH2 0x4FB JUMP JUMPDEST PUSH1 0x40 MLOAD PUSH2 0x471 SWAP2 SWAP1 PUSH2 0x17DE JUMP JUMPDEST PUSH1 0x40 MLOAD DUP1 SWAP2 SUB SWAP1 RETURN JUMPDEST CALLVALUE DUP1 ISZERO PUSH2 0x486 JUMPI PUSH1 0x0 DUP1 REVERT JUMPDEST POP PUSH2 0x48F PUSH2 0x1592 JUMP JUMPDEST PUSH1 0x40 MLOAD PUSH2 0x49C SWAP2 SWAP1 PUSH2 0x18C4 JUMP JUMPDEST PUSH1 0x40 MLOAD DUP1 SWAP2 SUB SWAP1 RETURN JUMPDEST CALLVALUE DUP1 ISZERO PUSH2 0x4B1 JUMPI PUSH1 0x0 DUP1 REVERT JUMPDEST POP PUSH2 0x4BA PUSH2 0x15B6 JUMP JUMPDEST PUSH1 0x40 MLOAD PUSH2 0x4C7 SWAP2 SWAP1 PUSH2 0x15FB JUMP JUMPDEST PUSH1 0x40 MLOAD DUP1 SWAP2 SUB SWAP1 RETURN JUMPDEST CALLVALUE DUP1 ISZERO PUSH2 0x4DC JUMPI PUSH1 0x0 DUP1 REVERT JUMPDEST POP PUSH2 0x4E5 PUSH2 0x15BC JUMP JUMPDEST PUSH1 0x40 MLOAD PUSH2 0x4F2 SWAP2 SWAP1 PUSH2 0x193E JUMP JUMPDEST PUSH1 0x40 MLOAD DUP1 SWAP2 SUB SWAP1 RETURN JUMPDEST PUSH1 0x0 PUSH1 0x1 PUSH1 0x3 DUP2 GT ISZERO PUSH2 0x511 JUMPI PUSH2 0x510 PUSH2 0x1823 JUMP JUMPDEST JUMPDEST PUSH1 0xB PUSH1 0x0 SWAP1 SLOAD SWAP1 PUSH2 0x100 EXP SWAP1 DIV PUSH1 0xFF AND PUSH1 0x3 DUP2 GT ISZERO PUSH2 0x533 JUMPI PUSH2 0x532 PUSH2 0x1823 JUMP JUMPDEST JUMPDEST EQ PUSH2 0x573 JUMPI PUSH1 0x40 MLOAD PUSH32 0x8C379A000000000000000000000000000000000000000000000000000000000 DUP2 MSTORE PUSH1 0x4 ADD PUSH2 0x56A SWAP1 PUSH2 0x19A5 JUMP JUMPDEST PUSH1 0x40 MLOAD DUP1 SWAP2 SUB SWAP1 REVERT JUMPDEST PUSH1 0x6 SLOAD CALLVALUE LT ISZERO DUP1 ISZERO PUSH2 0x587 JUMPI POP PUSH1 0x7 SLOAD CALLVALUE GT ISZERO JUMPDEST PUSH2 0x5C6 JUMPI PUSH1 0x40 MLOAD PUSH32 0x8C379A000000000000000000000000000000000000000000000000000000000 DUP2 MSTORE PUSH1 0x4 ADD PUSH2 0x5BD SWAP1 PUSH2 0x1A11 JUMP JUMPDEST PUSH1 0x40 MLOAD DUP1 SWAP2 SUB SWAP1 REVERT JUMPDEST PUSH1 0x7 SLOAD CALLVALUE PUSH1 0xA PUSH1 0x0 CALLER PUSH20 0xFFFFFFFFFFFFFFFFFFFFFFFFFFFFFFFFFFFFFFFF AND PUSH20 0xFFFFFFFFFFFFFFFFFFFFFFFFFFFFFFFFFFFFFFFF AND DUP2 MSTORE PUSH1 0x20 ADD SWAP1 DUP2 MSTORE PUSH1 0x20 ADD PUSH1 0x0 KECCAK256 SLOAD PUSH2 0x614 SWAP2 SWAP1 PUSH2 0x1A60 JUMP JUMPDEST GT ISZERO PUSH2 0x655 JUMPI PUSH1 0x40 MLOAD PUSH32 0x8C379A000000000000000000000000000000000000000000000000000000000 DUP2 MSTORE PUSH1 0x4 ADD PUSH2 0x64C SWAP1 PUSH2 0x1B06 JUMP JUMPDEST PUSH1 0x40 MLOAD DUP1 SWAP2 SUB SWAP1 REVERT JUMPDEST PUSH1 0x4 SLOAD CALLVALUE PUSH1 0x5 SLOAD PUSH2 0x666 SWAP2 SWAP1 PUSH2 0x1A60 JUMP JUMPDEST GT ISZERO PUSH2 0x6A7 JUMPI PUSH1 0x40 MLOAD PUSH32 0x8C379A000000000000000000000000000000000000000000000000000000000 DUP2 MSTORE PUSH1 0x4 ADD PUSH2 0x69E SWAP1 PUSH2 0x1B72 JUMP JUMPDEST PUSH1 0x40 MLOAD DUP1 SWAP2 SUB SWAP1 REVERT JUMPDEST PUSH1 0x9 SLOAD TIMESTAMP GT ISZERO PUSH2 0x6EC JUMPI PUSH1 0x40 MLOAD PUSH32 0x8C379A000000000000000000000000000000000000000000000000000000000 DUP2 MSTORE PUSH1 0x4 ADD PUSH2 0x6E3 SWAP1 PUSH2 0x1C04 JUMP JUMPDEST PUSH1 0x40 MLOAD DUP1 SWAP2 SUB SWAP1 REVERT JUMPDEST CALLVALUE PUSH1 0x5 PUSH1 0x0 DUP3 DUP3 SLOAD PUSH2 0x6FE SWAP2 SWAP1 PUSH2 0x1A60 JUMP JUMPDEST SWAP3 POP POP DUP2 SWAP1 SSTORE POP CALLVALUE PUSH1 0xA PUSH1 0x0 CALLER PUSH20 0xFFFFFFFFFFFFFFFFFFFFFFFFFFFFFFFFFFFFFFFF AND PUSH20 0xFFFFFFFFFFFFFFFFFFFFFFFFFFFFFFFFFFFFFFFF AND DUP2 MSTORE PUSH1 0x20 ADD SWAP1 DUP2 MSTORE PUSH1 0x20 ADD PUSH1 0x0 KECCAK256 PUSH1 0x0 DUP3 DUP3 SLOAD PUSH2 0x754 SWAP2 SWAP1 PUSH2 0x1A60 JUMP JUMPDEST SWAP3 POP POP DUP2 SWAP1 SSTORE POP PUSH1 0x0 PUSH1 0x1 PUSH1 0x0 SWAP1 SLOAD SWAP1 PUSH2 0x100 EXP SWAP1 DIV PUSH20 0xFFFFFFFFFFFFFFFFFFFFFFFFFFFFFFFFFFFFFFFF AND PUSH20 0xFFFFFFFFFFFFFFFFFFFFFFFFFFFFFFFFFFFFFFFF AND CALLVALUE PUSH1 0x40 MLOAD PUSH2 0x7A3 SWAP1 PUSH2 0x1C55 JUMP JUMPDEST PUSH1 0x0 PUSH1 0x40 MLOAD DUP1 DUP4 SUB DUP2 DUP6 DUP8 GAS CALL SWAP3 POP POP POP RETURNDATASIZE DUP1 PUSH1 0x0 DUP2 EQ PUSH2 0x7E0 JUMPI PUSH1 0x40 MLOAD SWAP2 POP PUSH1 0x1F NOT PUSH1 0x3F RETURNDATASIZE ADD AND DUP3 ADD PUSH1 0x40 MSTORE RETURNDATASIZE DUP3 MSTORE RETURNDATASIZE PUSH1 0x0 PUSH1 0x20 DUP5 ADD RETURNDATACOPY PUSH2 0x7E5 JUMP JUMPDEST PUSH1 0x60 SWAP2 POP JUMPDEST POP POP SWAP1 POP DUP1 PUSH2 0x829 JUMPI PUSH1 0x40 MLOAD PUSH32 0x8C379A000000000000000000000000000000000000000000000000000000000 DUP2 MSTORE PUSH1 0x4 ADD PUSH2 0x820 SWAP1 PUSH2 0x1CB6 JUMP JUMPDEST PUSH1 0x40 MLOAD DUP1 SWAP2 SUB SWAP1 REVERT JUMPDEST PUSH1 0x0 PUSH8 0xDE0B6B3A7640000 PUSH1 0x3 SLOAD CALLVALUE PUSH2 0x842 SWAP2 SWAP1 PUSH2 0x1D05 JUMP JUMPDEST PUSH2 0x84C SWAP2 SWAP1 PUSH2 0x1D36 JUMP JUMPDEST SWAP1 POP PUSH1 0x0 PUSH1 0x2 PUSH1 0x0 SWAP1 SLOAD SWAP1 PUSH2 0x100 EXP SWAP1 DIV PUSH20 0xFFFFFFFFFFFFFFFFFFFFFFFFFFFFFFFFFFFFFFFF AND PUSH20 0xFFFFFFFFFFFFFFFFFFFFFFFFFFFFFFFFFFFFFFFF AND PUSH4 0xA9059CBB CALLER DUP5 PUSH1 0x40 MLOAD DUP4 PUSH4 0xFFFFFFFF AND PUSH1 0xE0 SHL DUP2 MSTORE PUSH1 0x4 ADD PUSH2 0x8AD SWAP3 SWAP2 SWAP1 PUSH2 0x1D90 JUMP JUMPDEST PUSH1 0x20 PUSH1 0x40 MLOAD DUP1 DUP4 SUB DUP2 PUSH1 0x0 DUP8 GAS CALL ISZERO DUP1 ISZERO PUSH2 0x8CC JUMPI RETURNDATASIZE PUSH1 0x0 DUP1 RETURNDATACOPY RETURNDATASIZE PUSH1 0x0 REVERT JUMPDEST POP POP POP POP PUSH1 0x40 MLOAD RETURNDATASIZE PUSH1 0x1F NOT PUSH1 0x1F DUP3 ADD AND DUP3 ADD DUP1 PUSH1 0x40 MSTORE POP DUP2 ADD SWAP1 PUSH2 0x8F0 SWAP2 SWAP1 PUSH2 0x1DE5 JUMP JUMPDEST SWAP1 POP DUP1 PUSH2 0x932 JUMPI PUSH1 0x40 MLOAD PUSH32 0x8C379A000000000000000000000000000000000000000000000000000000000 DUP2 MSTORE PUSH1 0x4 ADD PUSH2 0x929 SWAP1 PUSH2 0x1CB6 JUMP JUMPDEST PUSH1 0x40 MLOAD DUP1 SWAP2 SUB SWAP1 REVERT JUMPDEST CALLER PUSH20 0xFFFFFFFFFFFFFFFFFFFFFFFFFFFFFFFFFFFFFFFF AND ADDRESS PUSH20 0xFFFFFFFFFFFFFFFFFFFFFFFFFFFFFFFFFFFFFFFF AND PUSH32 0x2E206BBDD5787CD6D3E97144DEC044F9F15DD77A257AFD27FA70CAD6F03FEAE3 CALLVALUE DUP6 PUSH1 0x40 MLOAD PUSH2 0x991 SWAP3 SWAP2 SWAP1 PUSH2 0x1E12 JUMP JUMPDEST PUSH1 0x40 MLOAD DUP1 SWAP2 SUB SWAP1 LOG3 PUSH1 0x1 SWAP4 POP POP POP POP SWAP1 JUMP JUMPDEST PUSH1 0x7 SLOAD DUP2 JUMP JUMPDEST PUSH1 0x0 DUP1 SLOAD SWAP1 PUSH2 0x100 EXP SWAP1 DIV PUSH20 0xFFFFFFFFFFFFFFFFFFFFFFFFFFFFFFFFFFFFFFFF AND PUSH20 0xFFFFFFFFFFFFFFFFFFFFFFFFFFFFFFFFFFFFFFFF AND CALLER PUSH20 0xFFFFFFFFFFFFFFFFFFFFFFFFFFFFFFFFFFFFFFFF AND EQ PUSH2 0xA37 JUMPI PUSH1 0x40 MLOAD PUSH32 0x8C379A000000000000000000000000000000000000000000000000000000000 DUP2 MSTORE PUSH1 0x4 ADD PUSH2 0xA2E SWAP1 PUSH2 0x1E87 JUMP JUMPDEST PUSH1 0x40 MLOAD DUP1 SWAP2 SUB SWAP1 REVERT JUMPDEST DUP1 PUSH1 0x1 PUSH1 0x0 PUSH2 0x100 EXP DUP2 SLOAD DUP2 PUSH20 0xFFFFFFFFFFFFFFFFFFFFFFFFFFFFFFFFFFFFFFFF MUL NOT AND SWAP1 DUP4 PUSH20 0xFFFFFFFFFFFFFFFFFFFFFFFFFFFFFFFFFFFFFFFF AND MUL OR SWAP1 SSTORE POP POP JUMP JUMPDEST PUSH1 0x0 DUP1 SLOAD SWAP1 PUSH2 0x100 EXP SWAP1 DIV PUSH20 0xFFFFFFFFFFFFFFFFFFFFFFFFFFFFFFFFFFFFFFFF AND PUSH20 0xFFFFFFFFFFFFFFFFFFFFFFFFFFFFFFFFFFFFFFFF AND CALLER PUSH20 0xFFFFFFFFFFFFFFFFFFFFFFFFFFFFFFFFFFFFFFFF AND EQ PUSH2 0xB09 JUMPI PUSH1 0x40 MLOAD PUSH32 0x8C379A000000000000000000000000000000000000000000000000000000000 DUP2 MSTORE PUSH1 0x4 ADD PUSH2 0xB00 SWAP1 PUSH2 0x1E87 JUMP JUMPDEST PUSH1 0x40 MLOAD DUP1 SWAP2 SUB SWAP1 REVERT JUMPDEST PUSH1 0x1 PUSH1 0x3 DUP2 GT ISZERO PUSH2 0xB1D JUMPI PUSH2 0xB1C PUSH2 0x1823 JUMP JUMPDEST JUMPDEST PUSH1 0xB PUSH1 0x0 SWAP1 SLOAD SWAP1 PUSH2 0x100 EXP SWAP1 DIV PUSH1 0xFF AND PUSH1 0x3 DUP2 GT ISZERO PUSH2 0xB3F JUMPI PUSH2 0xB3E PUSH2 0x1823 JUMP JUMPDEST JUMPDEST EQ PUSH2 0xB7F JUMPI PUSH1 0x40 MLOAD PUSH32 0x8C379A000000000000000000000000000000000000000000000000000000000 DUP2 MSTORE PUSH1 0x4 ADD PUSH2 0xB76 SWAP1 PUSH2 0x1EF3 JUMP JUMPDEST PUSH1 0x40 MLOAD DUP1 SWAP2 SUB SWAP1 REVERT JUMPDEST PUSH1 0x3 PUSH1 0xB PUSH1 0x0 PUSH2 0x100 EXP DUP2 SLOAD DUP2 PUSH1 0xFF MUL NOT AND SWAP1 DUP4 PUSH1 0x3 DUP2 GT ISZERO PUSH2 0xBA5 JUMPI PUSH2 0xBA4 PUSH2 0x1823 JUMP JUMPDEST JUMPDEST MUL OR SWAP1 SSTORE POP JUMP JUMPDEST PUSH1 0xA PUSH1 0x20 MSTORE DUP1 PUSH1 0x0 MSTORE PUSH1 0x40 PUSH1 0x0 KECCAK256 PUSH1 0x0 SWAP2 POP SWAP1 POP SLOAD DUP2 JUMP JUMPDEST PUSH1 0x60 PUSH1 0x0 PUSH1 0x3 DUP2 GT ISZERO PUSH2 0xBDA JUMPI PUSH2 0xBD9 PUSH2 0x1823 JUMP JUMPDEST JUMPDEST PUSH1 0xB PUSH1 0x0 SWAP1 SLOAD SWAP1 PUSH2 0x100 EXP SWAP1 DIV PUSH1 0xFF AND PUSH1 0x3 DUP2 GT ISZERO PUSH2 0xBFC JUMPI PUSH2 0xBFB PUSH2 0x1823 JUMP JUMPDEST JUMPDEST SUB PUSH2 0xC3E JUMPI PUSH1 0x40 MLOAD DUP1 PUSH1 0x40 ADD PUSH1 0x40 MSTORE DUP1 PUSH1 0xB DUP2 MSTORE PUSH1 0x20 ADD PUSH32 0x4E6F742053746172746564000000000000000000000000000000000000000000 DUP2 MSTORE POP SWAP1 POP PUSH2 0xD67 JUMP JUMPDEST PUSH1 0x1 PUSH1 0x3 DUP2 GT ISZERO PUSH2 0xC52 JUMPI PUSH2 0xC51 PUSH2 0x1823 JUMP JUMPDEST JUMPDEST PUSH1 0xB PUSH1 0x0 SWAP1 SLOAD SWAP1 PUSH2 0x100 EXP SWAP1 DIV PUSH1 0xFF AND PUSH1 0x3 DUP2 GT ISZERO PUSH2 0xC74 JUMPI PUSH2 0xC73 PUSH2 0x1823 JUMP JUMPDEST JUMPDEST SUB PUSH2 0xCB6 JUMPI PUSH1 0x40 MLOAD DUP1 PUSH1 0x40 ADD PUSH1 0x40 MSTORE DUP1 PUSH1 0x7 DUP2 MSTORE PUSH1 0x20 ADD PUSH32 0x52756E6E696E6700000000000000000000000000000000000000000000000000 DUP2 MSTORE POP SWAP1 POP PUSH2 0xD67 JUMP JUMPDEST PUSH1 0x2 PUSH1 0x3 DUP2 GT ISZERO PUSH2 0xCCA JUMPI PUSH2 0xCC9 PUSH2 0x1823 JUMP JUMPDEST JUMPDEST PUSH1 0xB PUSH1 0x0 SWAP1 SLOAD SWAP1 PUSH2 0x100 EXP SWAP1 DIV PUSH1 0xFF AND PUSH1 0x3 DUP2 GT ISZERO PUSH2 0xCEC JUMPI PUSH2 0xCEB PUSH2 0x1823 JUMP JUMPDEST JUMPDEST SUB PUSH2 0xD2E JUMPI PUSH1 0x40 MLOAD DUP1 PUSH1 0x40 ADD PUSH1 0x40 MSTORE DUP1 PUSH1 0x3 DUP2 MSTORE PUSH1 0x20 ADD PUSH32 0x456E640000000000000000000000000000000000000000000000000000000000 DUP2 MSTORE POP SWAP1 POP PUSH2 0xD67 JUMP JUMPDEST PUSH1 0x40 MLOAD DUP1 PUSH1 0x40 ADD PUSH1 0x40 MSTORE DUP1 PUSH1 0x6 DUP2 MSTORE PUSH1 0x20 ADD PUSH32 0x48616C7465640000000000000000000000000000000000000000000000000000 DUP2 MSTORE POP SWAP1 POP JUMPDEST SWAP1 JUMP JUMPDEST PUSH1 0x0 PUSH1 0x2 PUSH1 0x3 DUP2 GT ISZERO PUSH2 0xD80 JUMPI PUSH2 0xD7F PUSH2 0x1823 JUMP JUMPDEST JUMPDEST PUSH1 0xB PUSH1 0x0 SWAP1 SLOAD SWAP1 PUSH2 0x100 EXP SWAP1 DIV PUSH1 0xFF AND PUSH1 0x3 DUP2 GT ISZERO PUSH2 0xDA2 JUMPI PUSH2 0xDA1 PUSH2 0x1823 JUMP JUMPDEST JUMPDEST EQ PUSH2 0xDE2 JUMPI PUSH1 0x40 MLOAD PUSH32 0x8C379A000000000000000000000000000000000000000000000000000000000 DUP2 MSTORE PUSH1 0x4 ADD PUSH2 0xDD9 SWAP1 PUSH2 0x1F5F JUMP JUMPDEST PUSH1 0x40 MLOAD DUP1 SWAP2 SUB SWAP1 REVERT JUMPDEST PUSH1 0x0 PUSH1 0x2 PUSH1 0x0 SWAP1 SLOAD SWAP1 PUSH2 0x100 EXP SWAP1 DIV PUSH20 0xFFFFFFFFFFFFFFFFFFFFFFFFFFFFFFFFFFFFFFFF AND PUSH20 0xFFFFFFFFFFFFFFFFFFFFFFFFFFFFFFFFFFFFFFFF AND PUSH4 0x70A08231 ADDRESS PUSH1 0x40 MLOAD DUP3 PUSH4 0xFFFFFFFF AND PUSH1 0xE0 SHL DUP2 MSTORE PUSH1 0x4 ADD PUSH2 0xE3F SWAP2 SWAP1 PUSH2 0x18C4 JUMP JUMPDEST PUSH1 0x20 PUSH1 0x40 MLOAD DUP1 DUP4 SUB DUP2 DUP7 GAS STATICCALL ISZERO DUP1 ISZERO PUSH2 0xE5C JUMPI RETURNDATASIZE PUSH1 0x0 DUP1 RETURNDATACOPY RETURNDATASIZE PUSH1 0x0 REVERT JUMPDEST POP POP POP POP PUSH1 0x40 MLOAD RETURNDATASIZE PUSH1 0x1F NOT PUSH1 0x1F DUP3 ADD AND DUP3 ADD DUP1 PUSH1 0x40 MSTORE POP DUP2 ADD SWAP1 PUSH2 0xE80 SWAP2 SWAP1 PUSH2 0x1FAB JUMP JUMPDEST SWAP1 POP PUSH1 0x0 PUSH1 0x2 PUSH1 0x0 SWAP1 SLOAD SWAP1 PUSH2 0x100 EXP SWAP1 DIV PUSH20 0xFFFFFFFFFFFFFFFFFFFFFFFFFFFFFFFFFFFFFFFF AND PUSH20 0xFFFFFFFFFFFFFFFFFFFFFFFFFFFFFFFFFFFFFFFF AND PUSH4 0xA9059CBB PUSH1 0x0 DUP5 PUSH1 0x40 MLOAD DUP4 PUSH4 0xFFFFFFFF AND PUSH1 0xE0 SHL DUP2 MSTORE PUSH1 0x4 ADD PUSH2 0xEE2 SWAP3 SWAP2 SWAP1 PUSH2 0x1D90 JUMP JUMPDEST PUSH1 0x20 PUSH1 0x40 MLOAD DUP1 DUP4 SUB DUP2 PUSH1 0x0 DUP8 GAS CALL ISZERO DUP1 ISZERO PUSH2 0xF01 JUMPI RETURNDATASIZE PUSH1 0x0 DUP1 RETURNDATACOPY RETURNDATASIZE PUSH1 0x0 REVERT JUMPDEST POP POP POP POP PUSH1 0x40 MLOAD RETURNDATASIZE PUSH1 0x1F NOT PUSH1 0x1F DUP3 ADD AND DUP3 ADD DUP1 PUSH1 0x40 MSTORE POP DUP2 ADD SWAP1 PUSH2 0xF25 SWAP2 SWAP1 PUSH2 0x1DE5 JUMP JUMPDEST SWAP1 POP DUP1 PUSH2 0xF67 JUMPI PUSH1 0x40 MLOAD PUSH32 0x8C379A000000000000000000000000000000000000000000000000000000000 DUP2 MSTORE PUSH1 0x4 ADD PUSH2 0xF5E SWAP1 PUSH2 0x2024 JUMP JUMPDEST PUSH1 0x40 MLOAD DUP1 SWAP2 SUB SWAP1 REVERT JUMPDEST PUSH32 0xFE9E0B0C1E3E9216717D5F66D10BC310B12C366417E150B4B1AF9FB9620BCA91 PUSH1 0x0 DUP4 TIMESTAMP PUSH1 0x40 MLOAD PUSH2 0xF9B SWAP4 SWAP3 SWAP2 SWAP1 PUSH2 0x2044 JUMP JUMPDEST PUSH1 0x40 MLOAD DUP1 SWAP2 SUB SWAP1 LOG1 PUSH1 0x1 SWAP3 POP POP POP SWAP1 JUMP JUMPDEST PUSH1 0x0 PUSH1 0x2 PUSH1 0x0 SWAP1 SLOAD SWAP1 PUSH2 0x100 EXP SWAP1 DIV PUSH20 0xFFFFFFFFFFFFFFFFFFFFFFFFFFFFFFFFFFFFFFFF AND PUSH20 0xFFFFFFFFFFFFFFFFFFFFFFFFFFFFFFFFFFFFFFFF AND PUSH4 0x70A08231 ADDRESS PUSH1 0x40 MLOAD DUP3 PUSH4 0xFFFFFFFF AND PUSH1 0xE0 SHL DUP2 MSTORE PUSH1 0x4 ADD PUSH2 0x1009 SWAP2 SWAP1 PUSH2 0x18C4 JUMP JUMPDEST PUSH1 0x20 PUSH1 0x40 MLOAD DUP1 DUP4 SUB DUP2 DUP7 GAS STATICCALL ISZERO DUP1 ISZERO PUSH2 0x1026 JUMPI RETURNDATASIZE PUSH1 0x0 DUP1 RETURNDATACOPY RETURNDATASIZE PUSH1 0x0 REVERT JUMPDEST POP POP POP POP PUSH1 0x40 MLOAD RETURNDATASIZE PUSH1 0x1F NOT PUSH1 0x1F DUP3 ADD AND DUP3 ADD DUP1 PUSH1 0x40 MSTORE POP DUP2 ADD SWAP1 PUSH2 0x104A SWAP2 SWAP1 PUSH2 0x1FAB JUMP JUMPDEST SWAP1 POP SWAP1 JUMP JUMPDEST PUSH1 0x0 PUSH1 0x2 PUSH1 0x0 SWAP1 SLOAD SWAP1 PUSH2 0x100 EXP SWAP1 DIV PUSH20 0xFFFFFFFFFFFFFFFFFFFFFFFFFFFFFFFFFFFFFFFF AND PUSH20 0xFFFFFFFFFFFFFFFFFFFFFFFFFFFFFFFFFFFFFFFF AND PUSH4 0x70A08231 DUP4 PUSH1 0x40 MLOAD DUP3 PUSH4 0xFFFFFFFF AND PUSH1 0xE0 SHL DUP2 MSTORE PUSH1 0x4 ADD PUSH2 0x10AC SWAP2 SWAP1 PUSH2 0x18C4 JUMP JUMPDEST PUSH1 0x20 PUSH1 0x40 MLOAD DUP1 DUP4 SUB DUP2 DUP7 GAS STATICCALL ISZERO DUP1 ISZERO PUSH2 0x10C9 JUMPI RETURNDATASIZE PUSH1 0x0 DUP1 RETURNDATACOPY RETURNDATASIZE PUSH1 0x0 REVERT JUMPDEST POP POP POP POP PUSH1 0x40 MLOAD RETURNDATASIZE PUSH1 0x1F NOT PUSH1 0x1F DUP3 ADD AND DUP3 ADD DUP1 PUSH1 0x40 MSTORE POP DUP2 ADD SWAP1 PUSH2 0x10ED SWAP2 SWAP1 PUSH2 0x1FAB JUMP JUMPDEST SWAP1 POP SWAP2 SWAP1 POP JUMP JUMPDEST PUSH1 0x9 SLOAD DUP2 JUMP JUMPDEST PUSH1 0x0 DUP1 SLOAD SWAP1 PUSH2 0x100 EXP SWAP1 DIV PUSH20 0xFFFFFFFFFFFFFFFFFFFFFFFFFFFFFFFFFFFFFFFF AND PUSH20 0xFFFFFFFFFFFFFFFFFFFFFFFFFFFFFFFFFFFFFFFF AND CALLER PUSH20 0xFFFFFFFFFFFFFFFFFFFFFFFFFFFFFFFFFFFFFFFF AND EQ PUSH2 0x1188 JUMPI PUSH1 0x40 MLOAD PUSH32 0x8C379A000000000000000000000000000000000000000000000000000000000 DUP2 MSTORE PUSH1 0x4 ADD PUSH2 0x117F SWAP1 PUSH2 0x1E87 JUMP JUMPDEST PUSH1 0x40 MLOAD DUP1 SWAP2 SUB SWAP1 REVERT JUMPDEST PUSH1 0x0 PUSH1 0x3 DUP2 GT ISZERO PUSH2 0x119C JUMPI PUSH2 0x119B PUSH2 0x1823 JUMP JUMPDEST JUMPDEST PUSH1 0xB PUSH1 0x0 SWAP1 SLOAD SWAP1 PUSH2 0x100 EXP SWAP1 DIV PUSH1 0xFF AND PUSH1 0x3 DUP2 GT ISZERO PUSH2 0x11BE JUMPI PUSH2 0x11BD PUSH2 0x1823 JUMP JUMPDEST JUMPDEST EQ PUSH2 0x11FE JUMPI PUSH1 0x40 MLOAD PUSH32 0x8C379A000000000000000000000000000000000000000000000000000000000 DUP2 MSTORE PUSH1 0x4 ADD PUSH2 0x11F5 SWAP1 PUSH2 0x20C7 JUMP JUMPDEST PUSH1 0x40 MLOAD DUP1 SWAP2 SUB SWAP1 REVERT JUMPDEST TIMESTAMP PUSH1 0x8 DUP2 SWAP1 SSTORE POP PUSH4 0x1E13380 PUSH1 0x8 SLOAD PUSH2 0x1217 SWAP2 SWAP1 PUSH2 0x1A60 JUMP JUMPDEST PUSH1 0x9 DUP2 SWAP1 SSTORE POP PUSH1 0x1 PUSH1 0xB PUSH1 0x0 PUSH2 0x100 EXP DUP2 SLOAD DUP2 PUSH1 0xFF MUL NOT AND SWAP1 DUP4 PUSH1 0x3 DUP2 GT ISZERO PUSH2 0x1243 JUMPI PUSH2 0x1242 PUSH2 0x1823 JUMP JUMPDEST JUMPDEST MUL OR SWAP1 SSTORE POP JUMP JUMPDEST PUSH1 0x3 SLOAD DUP2 JUMP JUMPDEST PUSH1 0x6 SLOAD DUP2 JUMP JUMPDEST PUSH1 0x0 DUP1 SLOAD SWAP1 PUSH2 0x100 EXP SWAP1 DIV PUSH20 0xFFFFFFFFFFFFFFFFFFFFFFFFFFFFFFFFFFFFFFFF AND PUSH20 0xFFFFFFFFFFFFFFFFFFFFFFFFFFFFFFFFFFFFFFFF AND CALLER PUSH20 0xFFFFFFFFFFFFFFFFFFFFFFFFFFFFFFFFFFFFFFFF AND EQ PUSH2 0x12E4 JUMPI PUSH1 0x40 MLOAD PUSH32 0x8C379A000000000000000000000000000000000000000000000000000000000 DUP2 MSTORE PUSH1 0x4 ADD PUSH2 0x12DB SWAP1 PUSH2 0x1E87 JUMP JUMPDEST PUSH1 0x40 MLOAD DUP1 SWAP2 SUB SWAP1 REVERT JUMPDEST DUP1 PUSH1 0x0 DUP1 PUSH2 0x100 EXP DUP2 SLOAD DUP2 PUSH20 0xFFFFFFFFFFFFFFFFFFFFFFFFFFFFFFFFFFFFFFFF MUL NOT AND SWAP1 DUP4 PUSH20 0xFFFFFFFFFFFFFFFFFFFFFFFFFFFFFFFFFFFFFFFF AND MUL OR SWAP1 SSTORE POP POP JUMP JUMPDEST PUSH1 0x0 DUP1 SLOAD SWAP1 PUSH2 0x100 EXP SWAP1 DIV PUSH20 0xFFFFFFFFFFFFFFFFFFFFFFFFFFFFFFFFFFFFFFFF AND PUSH20 0xFFFFFFFFFFFFFFFFFFFFFFFFFFFFFFFFFFFFFFFF AND CALLER PUSH20 0xFFFFFFFFFFFFFFFFFFFFFFFFFFFFFFFFFFFFFFFF AND EQ PUSH2 0x13B5 JUMPI PUSH1 0x40 MLOAD PUSH32 0x8C379A000000000000000000000000000000000000000000000000000000000 DUP2 MSTORE PUSH1 0x4 ADD PUSH2 0x13AC SWAP1 PUSH2 0x1E87 JUMP JUMPDEST PUSH1 0x40 MLOAD DUP1 SWAP2 SUB SWAP1 REVERT JUMPDEST PUSH1 0x3 DUP1 DUP2 GT ISZERO PUSH2 0x13C8 JUMPI PUSH2 0x13C7 PUSH2 0x1823 JUMP JUMPDEST JUMPDEST PUSH1 0xB PUSH1 0x0 SWAP1 SLOAD SWAP1 PUSH2 0x100 EXP SWAP1 DIV PUSH1 0xFF AND PUSH1 0x3 DUP2 GT ISZERO PUSH2 0x13EA JUMPI PUSH2 0x13E9 PUSH2 0x1823 JUMP JUMPDEST JUMPDEST EQ PUSH2 0x142A JUMPI PUSH1 0x40 MLOAD PUSH32 0x8C379A000000000000000000000000000000000000000000000000000000000 DUP2 MSTORE PUSH1 0x4 ADD PUSH2 0x1421 SWAP1 PUSH2 0x2133 JUMP JUMPDEST PUSH1 0x40 MLOAD DUP1 SWAP2 SUB SWAP1 REVERT JUMPDEST PUSH1 0x1 PUSH1 0xB PUSH1 0x0 PUSH2 0x100 EXP DUP2 SLOAD DUP2 PUSH1 0xFF MUL NOT AND SWAP1 DUP4 PUSH1 0x3 DUP2 GT ISZERO PUSH2 0x1450 JUMPI PUSH2 0x144F PUSH2 0x1823 JUMP JUMPDEST JUMPDEST MUL OR SWAP1 SSTORE POP JUMP JUMPDEST PUSH1 0x8 SLOAD DUP2 JUMP JUMPDEST PUSH1 0x1 PUSH1 0x0 SWAP1 SLOAD SWAP1 PUSH2 0x100 EXP SWAP1 DIV PUSH20 0xFFFFFFFFFFFFFFFFFFFFFFFFFFFFFFFFFFFFFFFF AND DUP2 JUMP JUMPDEST PUSH1 0xB PUSH1 0x0 SWAP1 SLOAD SWAP1 PUSH2 0x100 EXP SWAP1 DIV PUSH1 0xFF AND DUP2 JUMP JUMPDEST PUSH1 0x5 SLOAD DUP2 JUMP JUMPDEST PUSH1 0x1 PUSH1 0x3 DUP2 GT ISZERO PUSH2 0x14B0 JUMPI PUSH2 0x14AF PUSH2 0x1823 JUMP JUMPDEST JUMPDEST PUSH1 0xB PUSH1 0x0 SWAP1 SLOAD SWAP1 PUSH2 0x100 EXP SWAP1 DIV PUSH1 0xFF AND PUSH1 0x3 DUP2 GT ISZERO PUSH2 0x14D2 JUMPI PUSH2 0x14D1 PUSH2 0x1823 JUMP JUMPDEST JUMPDEST EQ PUSH2 0x1512 JUMPI PUSH1 0x40 MLOAD PUSH32 0x8C379A000000000000000000000000000000000000000000000000000000000 DUP2 MSTORE PUSH1 0x4 ADD PUSH2 0x1509 SWAP1 PUSH2 0x219F JUMP JUMPDEST PUSH1 0x40 MLOAD DUP1 SWAP2 SUB SWAP1 REVERT JUMPDEST PUSH1 0x9 SLOAD TIMESTAMP GT DUP1 PUSH2 0x1526 JUMPI POP PUSH1 0x4 SLOAD PUSH1 0x5 SLOAD LT ISZERO JUMPDEST PUSH2 0x1565 JUMPI PUSH1 0x40 MLOAD PUSH32 0x8C379A000000000000000000000000000000000000000000000000000000000 DUP2 MSTORE PUSH1 0x4 ADD PUSH2 0x155C SWAP1 PUSH2 0x2231 JUMP JUMPDEST PUSH1 0x40 MLOAD DUP1 SWAP2 SUB SWAP1 REVERT JUMPDEST PUSH1 0x2 PUSH1 0xB PUSH1 0x0 PUSH2 0x100 EXP DUP2 SLOAD DUP2 PUSH1 0xFF MUL NOT AND SWAP1 DUP4 PUSH1 0x3 DUP2 GT ISZERO PUSH2 0x158B JUMPI PUSH2 0x158A PUSH2 0x1823 JUMP JUMPDEST JUMPDEST MUL OR SWAP1 SSTORE POP JUMP JUMPDEST PUSH1 0x0 DUP1 SLOAD SWAP1 PUSH2 0x100 EXP SWAP1 DIV PUSH20 0xFFFFFFFFFFFFFFFFFFFFFFFFFFFFFFFFFFFFFFFF AND DUP2 JUMP JUMPDEST PUSH1 0x4 SLOAD DUP2 JUMP JUMPDEST PUSH1 0x2 PUSH1 0x0 SWAP1 SLOAD SWAP1 PUSH2 0x100 EXP SWAP1 DIV PUSH20 0xFFFFFFFFFFFFFFFFFFFFFFFFFFFFFFFFFFFFFFFF AND DUP2 JUMP JUMPDEST PUSH1 0x0 DUP2 SWAP1 POP SWAP2 SWAP1 POP JUMP JUMPDEST PUSH2 0x15F5 DUP2 PUSH2 0x15E2 JUMP JUMPDEST DUP3 MSTORE POP POP JUMP JUMPDEST PUSH1 0x0 PUSH1 0x20 DUP3 ADD SWAP1 POP PUSH2 0x1610 PUSH1 0x0 DUP4 ADD DUP5 PUSH2 0x15EC JUMP JUMPDEST SWAP3 SWAP2 POP POP JUMP JUMPDEST PUSH1 0x0 DUP1 REVERT JUMPDEST PUSH1 0x0 PUSH20 0xFFFFFFFFFFFFFFFFFFFFFFFFFFFFFFFFFFFFFFFF DUP3 AND SWAP1 POP SWAP2 SWAP1 POP JUMP JUMPDEST PUSH1 0x0 PUSH2 0x1646 DUP3 PUSH2 0x161B JUMP JUMPDEST SWAP1 POP SWAP2 SWAP1 POP JUMP JUMPDEST PUSH2 0x1656 DUP2 PUSH2 0x163B JUMP JUMPDEST DUP2 EQ PUSH2 0x1661 JUMPI PUSH1 0x0 DUP1 REVERT JUMPDEST POP JUMP JUMPDEST PUSH1 0x0 DUP2 CALLDATALOAD SWAP1 POP PUSH2 0x1673 DUP2 PUSH2 0x164D JUMP JUMPDEST SWAP3 SWAP2 POP POP JUMP JUMPDEST PUSH1 0x0 PUSH1 0x20 DUP3 DUP5 SUB SLT ISZERO PUSH2 0x168F JUMPI PUSH2 0x168E PUSH2 0x1616 JUMP JUMPDEST JUMPDEST PUSH1 0x0 PUSH2 0x169D DUP5 DUP3 DUP6 ADD PUSH2 0x1664 JUMP JUMPDEST SWAP2 POP POP SWAP3 SWAP2 POP POP JUMP JUMPDEST PUSH1 0x0 PUSH2 0x16B1 DUP3 PUSH2 0x161B JUMP JUMPDEST SWAP1 POP SWAP2 SWAP1 POP JUMP JUMPDEST PUSH2 0x16C1 DUP2 PUSH2 0x16A6 JUMP JUMPDEST DUP2 EQ PUSH2 0x16CC JUMPI PUSH1 0x0 DUP1 REVERT JUMPDEST POP JUMP JUMPDEST PUSH1 0x0 DUP2 CALLDATALOAD SWAP1 POP PUSH2 0x16DE DUP2 PUSH2 0x16B8 JUMP JUMPDEST SWAP3 SWAP2 POP POP JUMP JUMPDEST PUSH1 0x0 PUSH1 0x20 DUP3 DUP5 SUB SLT ISZERO PUSH2 0x16FA JUMPI PUSH2 0x16F9 PUSH2 0x1616 JUMP JUMPDEST JUMPDEST PUSH1 0x0 PUSH2 0x1708 DUP5 DUP3 DUP6 ADD PUSH2 0x16CF JUMP JUMPDEST SWAP2 POP POP SWAP3 SWAP2 POP POP JUMP JUMPDEST PUSH1 0x0 DUP2 MLOAD SWAP1 POP SWAP2 SWAP1 POP JUMP JUMPDEST PUSH1 0x0 DUP3 DUP3 MSTORE PUSH1 0x20 DUP3 ADD SWAP1 POP SWAP3 SWAP2 POP POP JUMP JUMPDEST PUSH1 0x0 JUMPDEST DUP4 DUP2 LT ISZERO PUSH2 0x174B JUMPI DUP1 DUP3 ADD MLOAD DUP2 DUP5 ADD MSTORE PUSH1 0x20 DUP2 ADD SWAP1 POP PUSH2 0x1730 JUMP JUMPDEST PUSH1 0x0 DUP5 DUP5 ADD MSTORE POP POP POP POP JUMP JUMPDEST PUSH1 0x0 PUSH1 0x1F NOT PUSH1 0x1F DUP4 ADD AND SWAP1 POP SWAP2 SWAP1 POP JUMP JUMPDEST PUSH1 0x0 PUSH2 0x1773 DUP3 PUSH2 0x1711 JUMP JUMPDEST PUSH2 0x177D DUP2 DUP6 PUSH2 0x171C JUMP JUMPDEST SWAP4 POP PUSH2 0x178D DUP2 DUP6 PUSH1 0x20 DUP7 ADD PUSH2 0x172D JUMP JUMPDEST PUSH2 0x1796 DUP2 PUSH2 0x1757 JUMP JUMPDEST DUP5 ADD SWAP2 POP POP SWAP3 SWAP2 POP POP JUMP JUMPDEST PUSH1 0x0 PUSH1 0x20 DUP3 ADD SWAP1 POP DUP2 DUP2 SUB PUSH1 0x0 DUP4 ADD MSTORE PUSH2 0x17BB DUP2 DUP5 PUSH2 0x1768 JUMP JUMPDEST SWAP1 POP SWAP3 SWAP2 POP POP JUMP JUMPDEST PUSH1 0x0 DUP2 ISZERO ISZERO SWAP1 POP SWAP2 SWAP1 POP JUMP JUMPDEST PUSH2 0x17D8 DUP2 PUSH2 0x17C3 JUMP JUMPDEST DUP3 MSTORE POP POP JUMP JUMPDEST PUSH1 0x0 PUSH1 0x20 DUP3 ADD SWAP1 POP PUSH2 0x17F3 PUSH1 0x0 DUP4 ADD DUP5 PUSH2 0x17CF JUMP JUMPDEST SWAP3 SWAP2 POP POP JUMP JUMPDEST PUSH2 0x1802 DUP2 PUSH2 0x163B JUMP JUMPDEST DUP3 MSTORE POP POP JUMP JUMPDEST PUSH1 0x0 PUSH1 0x20 DUP3 ADD SWAP1 POP PUSH2 0x181D PUSH1 0x0 DUP4 ADD DUP5 PUSH2 0x17F9 JUMP JUMPDEST SWAP3 SWAP2 POP POP JUMP JUMPDEST PUSH32 0x4E487B7100000000000000000000000000000000000000000000000000000000 PUSH1 0x0 MSTORE PUSH1 0x21 PUSH1 0x4 MSTORE PUSH1 0x24 PUSH1 0x0 REVERT JUMPDEST PUSH1 0x4 DUP2 LT PUSH2 0x1863 JUMPI PUSH2 0x1862 PUSH2 0x1823 JUMP JUMPDEST JUMPDEST POP JUMP JUMPDEST PUSH1 0x0 DUP2 SWAP1 POP PUSH2 0x1874 DUP3 PUSH2 0x1852 JUMP JUMPDEST SWAP2 SWAP1 POP JUMP JUMPDEST PUSH1 0x0 PUSH2 0x1884 DUP3 PUSH2 0x1866 JUMP JUMPDEST SWAP1 POP SWAP2 SWAP1 POP JUMP JUMPDEST PUSH2 0x1894 DUP2 PUSH2 0x1879 JUMP JUMPDEST DUP3 MSTORE POP POP JUMP JUMPDEST PUSH1 0x0 PUSH1 0x20 DUP3 ADD SWAP1 POP PUSH2 0x18AF PUSH1 0x0 DUP4 ADD DUP5 PUSH2 0x188B JUMP JUMPDEST SWAP3 SWAP2 POP POP JUMP JUMPDEST PUSH2 0x18BE DUP2 PUSH2 0x16A6 JUMP JUMPDEST DUP3 MSTORE POP POP JUMP JUMPDEST PUSH1 0x0 PUSH1 0x20 DUP3 ADD SWAP1 POP PUSH2 0x18D9 PUSH1 0x0 DUP4 ADD DUP5 PUSH2 0x18B5 JUMP JUMPDEST SWAP3 SWAP2 POP POP JUMP JUMPDEST PUSH1 0x0 DUP2 SWAP1 POP SWAP2 SWAP1 POP JUMP JUMPDEST PUSH1 0x0 PUSH2 0x1904 PUSH2 0x18FF PUSH2 0x18FA DUP5 PUSH2 0x161B JUMP JUMPDEST PUSH2 0x18DF JUMP JUMPDEST PUSH2 0x161B JUMP JUMPDEST SWAP1 POP SWAP2 SWAP1 POP JUMP JUMPDEST PUSH1 0x0 PUSH2 0x1916 DUP3 PUSH2 0x18E9 JUMP JUMPDEST SWAP1 POP SWAP2 SWAP1 POP JUMP JUMPDEST PUSH1 0x0 PUSH2 0x1928 DUP3 PUSH2 0x190B JUMP JUMPDEST SWAP1 POP SWAP2 SWAP1 POP JUMP JUMPDEST PUSH2 0x1938 DUP2 PUSH2 0x191D JUMP JUMPDEST DUP3 MSTORE POP POP JUMP JUMPDEST PUSH1 0x0 PUSH1 0x20 DUP3 ADD SWAP1 POP PUSH2 0x1953 PUSH1 0x0 DUP4 ADD DUP5 PUSH2 0x192F JUMP JUMPDEST SWAP3 SWAP2 POP POP JUMP JUMPDEST PUSH32 0x49434F2069736E27742072756E6E696E67000000000000000000000000000000 PUSH1 0x0 DUP3 ADD MSTORE POP JUMP JUMPDEST PUSH1 0x0 PUSH2 0x198F PUSH1 0x11 DUP4 PUSH2 0x171C JUMP JUMPDEST SWAP2 POP PUSH2 0x199A DUP3 PUSH2 0x1959 JUMP JUMPDEST PUSH1 0x20 DUP3 ADD SWAP1 POP SWAP2 SWAP1 POP JUMP JUMPDEST PUSH1 0x0 PUSH1 0x20 DUP3 ADD SWAP1 POP DUP2 DUP2 SUB PUSH1 0x0 DUP4 ADD MSTORE PUSH2 0x19BE DUP2 PUSH2 0x1982 JUMP JUMPDEST SWAP1 POP SWAP2 SWAP1 POP JUMP JUMPDEST PUSH32 0x436865636B204D696E20616E64204D617820496E766573746D656E7400000000 PUSH1 0x0 DUP3 ADD MSTORE POP JUMP JUMPDEST PUSH1 0x0 PUSH2 0x19FB PUSH1 0x1C DUP4 PUSH2 0x171C JUMP JUMPDEST SWAP2 POP PUSH2 0x1A06 DUP3 PUSH2 0x19C5 JUMP JUMPDEST PUSH1 0x20 DUP3 ADD SWAP1 POP SWAP2 SWAP1 POP JUMP JUMPDEST PUSH1 0x0 PUSH1 0x20 DUP3 ADD SWAP1 POP DUP2 DUP2 SUB PUSH1 0x0 DUP4 ADD MSTORE PUSH2 0x1A2A DUP2 PUSH2 0x19EE JUMP JUMPDEST SWAP1 POP SWAP2 SWAP1 POP JUMP JUMPDEST PUSH32 0x4E487B7100000000000000000000000000000000000000000000000000000000 PUSH1 0x0 MSTORE PUSH1 0x11 PUSH1 0x4 MSTORE PUSH1 0x24 PUSH1 0x0 REVERT JUMPDEST PUSH1 0x0 PUSH2 0x1A6B DUP3 PUSH2 0x15E2 JUMP JUMPDEST SWAP2 POP PUSH2 0x1A76 DUP4 PUSH2 0x15E2 JUMP JUMPDEST SWAP3 POP DUP3 DUP3 ADD SWAP1 POP DUP1 DUP3 GT ISZERO PUSH2 0x1A8E JUMPI PUSH2 0x1A8D PUSH2 0x1A31 JUMP JUMPDEST JUMPDEST SWAP3 SWAP2 POP POP JUMP JUMPDEST PUSH32 0x496E766573746F722072656163686564206D6178696D756D20496E766573746D PUSH1 0x0 DUP3 ADD MSTORE PUSH32 0x656E7420416D6F756E7400000000000000000000000000000000000000000000 PUSH1 0x20 DUP3 ADD MSTORE POP JUMP JUMPDEST PUSH1 0x0 PUSH2 0x1AF0 PUSH1 0x2A DUP4 PUSH2 0x171C JUMP JUMPDEST SWAP2 POP PUSH2 0x1AFB DUP3 PUSH2 0x1A94 JUMP JUMPDEST PUSH1 0x40 DUP3 ADD SWAP1 POP SWAP2 SWAP1 POP JUMP JUMPDEST PUSH1 0x0 PUSH1 0x20 DUP3 ADD SWAP1 POP DUP2 DUP2 SUB PUSH1 0x0 DUP4 ADD MSTORE PUSH2 0x1B1F DUP2 PUSH2 0x1AE3 JUMP JUMPDEST SWAP1 POP SWAP2 SWAP1 POP JUMP JUMPDEST PUSH32 0x53656E642077697468696E20686172646361702072616E676500000000000000 PUSH1 0x0 DUP3 ADD MSTORE POP JUMP JUMPDEST PUSH1 0x0 PUSH2 0x1B5C PUSH1 0x19 DUP4 PUSH2 0x171C JUMP JUMPDEST SWAP2 POP PUSH2 0x1B67 DUP3 PUSH2 0x1B26 JUMP JUMPDEST PUSH1 0x20 DUP3 ADD SWAP1 POP SWAP2 SWAP1 POP JUMP JUMPDEST PUSH1 0x0 PUSH1 0x20 DUP3 ADD SWAP1 POP DUP2 DUP2 SUB PUSH1 0x0 DUP4 ADD MSTORE PUSH2 0x1B8B DUP2 PUSH2 0x1B4F JUMP JUMPDEST SWAP1 POP SWAP2 SWAP1 POP JUMP JUMPDEST PUSH32 0x49434F20616C72656164792052656163686564204D6178696D756D2074696D65 PUSH1 0x0 DUP3 ADD MSTORE PUSH32 0x206C696D69740000000000000000000000000000000000000000000000000000 PUSH1 0x20 DUP3 ADD MSTORE POP JUMP JUMPDEST PUSH1 0x0 PUSH2 0x1BEE PUSH1 0x26 DUP4 PUSH2 0x171C JUMP JUMPDEST SWAP2 POP PUSH2 0x1BF9 DUP3 PUSH2 0x1B92 JUMP JUMPDEST PUSH1 0x40 DUP3 ADD SWAP1 POP SWAP2 SWAP1 POP JUMP JUMPDEST PUSH1 0x0 PUSH1 0x20 DUP3 ADD SWAP1 POP DUP2 DUP2 SUB PUSH1 0x0 DUP4 ADD MSTORE PUSH2 0x1C1D DUP2 PUSH2 0x1BE1 JUMP JUMPDEST SWAP1 POP SWAP2 SWAP1 POP JUMP JUMPDEST PUSH1 0x0 DUP2 SWAP1 POP SWAP3 SWAP2 POP POP JUMP JUMPDEST POP JUMP JUMPDEST PUSH1 0x0 PUSH2 0x1C3F PUSH1 0x0 DUP4 PUSH2 0x1C24 JUMP JUMPDEST SWAP2 POP PUSH2 0x1C4A DUP3 PUSH2 0x1C2F JUMP JUMPDEST PUSH1 0x0 DUP3 ADD SWAP1 POP SWAP2 SWAP1 POP JUMP JUMPDEST PUSH1 0x0 PUSH2 0x1C60 DUP3 PUSH2 0x1C32 JUMP JUMPDEST SWAP2 POP DUP2 SWAP1 POP SWAP2 SWAP1 POP JUMP JUMPDEST PUSH32 0x4661696C656420746F20496E7665737400000000000000000000000000000000 PUSH1 0x0 DUP3 ADD MSTORE POP JUMP JUMPDEST PUSH1 0x0 PUSH2 0x1CA0 PUSH1 0x10 DUP4 PUSH2 0x171C JUMP JUMPDEST SWAP2 POP PUSH2 0x1CAB DUP3 PUSH2 0x1C6A JUMP JUMPDEST PUSH1 0x20 DUP3 ADD SWAP1 POP SWAP2 SWAP1 POP JUMP JUMPDEST PUSH1 0x0 PUSH1 0x20 DUP3 ADD SWAP1 POP DUP2 DUP2 SUB PUSH1 0x0 DUP4 ADD MSTORE PUSH2 0x1CCF DUP2 PUSH2 0x1C93 JUMP JUMPDEST SWAP1 POP SWAP2 SWAP1 POP JUMP JUMPDEST PUSH32 0x4E487B7100000000000000000000000000000000000000000000000000000000 PUSH1 0x0 MSTORE PUSH1 0x12 PUSH1 0x4 MSTORE PUSH1 0x24 PUSH1 0x0 REVERT JUMPDEST PUSH1 0x0 PUSH2 0x1D10 DUP3 PUSH2 0x15E2 JUMP JUMPDEST SWAP2 POP PUSH2 0x1D1B DUP4 PUSH2 0x15E2 JUMP JUMPDEST SWAP3 POP DUP3 PUSH2 0x1D2B JUMPI PUSH2 0x1D2A PUSH2 0x1CD6 JUMP JUMPDEST JUMPDEST DUP3 DUP3 DIV SWAP1 POP SWAP3 SWAP2 POP POP JUMP JUMPDEST PUSH1 0x0 PUSH2 0x1D41 DUP3 PUSH2 0x15E2 JUMP JUMPDEST SWAP2 POP PUSH2 0x1D4C DUP4 PUSH2 0x15E2 JUMP JUMPDEST SWAP3 POP DUP2 PUSH32 0xFFFFFFFFFFFFFFFFFFFFFFFFFFFFFFFFFFFFFFFFFFFFFFFFFFFFFFFFFFFFFFFF DIV DUP4 GT DUP3 ISZERO ISZERO AND ISZERO PUSH2 0x1D85 JUMPI PUSH2 0x1D84 PUSH2 0x1A31 JUMP JUMPDEST JUMPDEST DUP3 DUP3 MUL SWAP1 POP SWAP3 SWAP2 POP POP JUMP JUMPDEST PUSH1 0x0 PUSH1 0x40 DUP3 ADD SWAP1 POP PUSH2 0x1DA5 PUSH1 0x0 DUP4 ADD DUP6 PUSH2 0x18B5 JUMP JUMPDEST PUSH2 0x1DB2 PUSH1 0x20 DUP4 ADD DUP5 PUSH2 0x15EC JUMP JUMPDEST SWAP4 SWAP3 POP POP POP JUMP JUMPDEST PUSH2 0x1DC2 DUP2 PUSH2 0x17C3 JUMP JUMPDEST DUP2 EQ PUSH2 0x1DCD JUMPI PUSH1 0x0 DUP1 REVERT JUMPDEST POP JUMP JUMPDEST PUSH1 0x0 DUP2 MLOAD SWAP1 POP PUSH2 0x1DDF DUP2 PUSH2 0x1DB9 JUMP JUMPDEST SWAP3 SWAP2 POP POP JUMP JUMPDEST PUSH1 0x0 PUSH1 0x20 DUP3 DUP5 SUB SLT ISZERO PUSH2 0x1DFB JUMPI PUSH2 0x1DFA PUSH2 0x1616 JUMP JUMPDEST JUMPDEST PUSH1 0x0 PUSH2 0x1E09 DUP5 DUP3 DUP6 ADD PUSH2 0x1DD0 JUMP JUMPDEST SWAP2 POP POP SWAP3 SWAP2 POP POP JUMP JUMPDEST PUSH1 0x0 PUSH1 0x40 DUP3 ADD SWAP1 POP PUSH2 0x1E27 PUSH1 0x0 DUP4 ADD DUP6 PUSH2 0x15EC JUMP JUMPDEST PUSH2 0x1E34 PUSH1 0x20 DUP4 ADD DUP5 PUSH2 0x15EC JUMP JUMPDEST SWAP4 SWAP3 POP POP POP JUMP JUMPDEST PUSH32 0x41646D696E204F6E6C792066756E6374696F6E00000000000000000000000000 PUSH1 0x0 DUP3 ADD MSTORE POP JUMP JUMPDEST PUSH1 0x0 PUSH2 0x1E71 PUSH1 0x13 DUP4 PUSH2 0x171C JUMP JUMPDEST SWAP2 POP PUSH2 0x1E7C DUP3 PUSH2 0x1E3B JUMP JUMPDEST PUSH1 0x20 DUP3 ADD SWAP1 POP SWAP2 SWAP1 POP JUMP JUMPDEST PUSH1 0x0 PUSH1 0x20 DUP3 ADD SWAP1 POP DUP2 DUP2 SUB PUSH1 0x0 DUP4 ADD MSTORE PUSH2 0x1EA0 DUP2 PUSH2 0x1E64 JUMP JUMPDEST SWAP1 POP SWAP2 SWAP1 POP JUMP JUMPDEST PUSH32 0x49434F2069736E27742072756E6E696E67207965740000000000000000000000 PUSH1 0x0 DUP3 ADD MSTORE POP JUMP JUMPDEST PUSH1 0x0 PUSH2 0x1EDD PUSH1 0x15 DUP4 PUSH2 0x171C JUMP JUMPDEST SWAP2 POP PUSH2 0x1EE8 DUP3 PUSH2 0x1EA7 JUMP JUMPDEST PUSH1 0x20 DUP3 ADD SWAP1 POP SWAP2 SWAP1 POP JUMP JUMPDEST PUSH1 0x0 PUSH1 0x20 DUP3 ADD SWAP1 POP DUP2 DUP2 SUB PUSH1 0x0 DUP4 ADD MSTORE PUSH2 0x1F0C DUP2 PUSH2 0x1ED0 JUMP JUMPDEST SWAP1 POP SWAP2 SWAP1 POP JUMP JUMPDEST PUSH32 0x49434F2069736E2774206F766572207965740000000000000000000000000000 PUSH1 0x0 DUP3 ADD MSTORE POP JUMP JUMPDEST PUSH1 0x0 PUSH2 0x1F49 PUSH1 0x12 DUP4 PUSH2 0x171C JUMP JUMPDEST SWAP2 POP PUSH2 0x1F54 DUP3 PUSH2 0x1F13 JUMP JUMPDEST PUSH1 0x20 DUP3 ADD SWAP1 POP SWAP2 SWAP1 POP JUMP JUMPDEST PUSH1 0x0 PUSH1 0x20 DUP3 ADD SWAP1 POP DUP2 DUP2 SUB PUSH1 0x0 DUP4 ADD MSTORE PUSH2 0x1F78 DUP2 PUSH2 0x1F3C JUMP JUMPDEST SWAP1 POP SWAP2 SWAP1 POP JUMP JUMPDEST PUSH2 0x1F88 DUP2 PUSH2 0x15E2 JUMP JUMPDEST DUP2 EQ PUSH2 0x1F93 JUMPI PUSH1 0x0 DUP1 REVERT JUMPDEST POP JUMP JUMPDEST PUSH1 0x0 DUP2 MLOAD SWAP1 POP PUSH2 0x1FA5 DUP2 PUSH2 0x1F7F JUMP JUMPDEST SWAP3 SWAP2 POP POP JUMP JUMPDEST PUSH1 0x0 PUSH1 0x20 DUP3 DUP5 SUB SLT ISZERO PUSH2 0x1FC1 JUMPI PUSH2 0x1FC0 PUSH2 0x1616 JUMP JUMPDEST JUMPDEST PUSH1 0x0 PUSH2 0x1FCF DUP5 DUP3 DUP6 ADD PUSH2 0x1F96 JUMP JUMPDEST SWAP2 POP POP SWAP3 SWAP2 POP POP JUMP JUMPDEST PUSH32 0x4661696C656420746F206275726E2072656D61696E696E6720746F6B656E7300 PUSH1 0x0 DUP3 ADD MSTORE POP JUMP JUMPDEST PUSH1 0x0 PUSH2 0x200E PUSH1 0x1F DUP4 PUSH2 0x171C JUMP JUMPDEST SWAP2 POP PUSH2 0x2019 DUP3 PUSH2 0x1FD8 JUMP JUMPDEST PUSH1 0x20 DUP3 ADD SWAP1 POP SWAP2 SWAP1 POP JUMP JUMPDEST PUSH1 0x0 PUSH1 0x20 DUP3 ADD SWAP1 POP DUP2 DUP2 SUB PUSH1 0x0 DUP4 ADD MSTORE PUSH2 0x203D DUP2 PUSH2 0x2001 JUMP JUMPDEST SWAP1 POP SWAP2 SWAP1 POP JUMP JUMPDEST PUSH1 0x0 PUSH1 0x60 DUP3 ADD SWAP1 POP PUSH2 0x2059 PUSH1 0x0 DUP4 ADD DUP7 PUSH2 0x18B5 JUMP JUMPDEST PUSH2 0x2066 PUSH1 0x20 DUP4 ADD DUP6 PUSH2 0x15EC JUMP JUMPDEST PUSH2 0x2073 PUSH1 0x40 DUP4 ADD DUP5 PUSH2 0x15EC JUMP JUMPDEST SWAP5 SWAP4 POP POP POP POP JUMP JUMPDEST PUSH32 0x49434F2069736E277420696E206265666F726520737461746500000000000000 PUSH1 0x0 DUP3 ADD MSTORE POP JUMP JUMPDEST PUSH1 0x0 PUSH2 0x20B1 PUSH1 0x19 DUP4 PUSH2 0x171C JUMP JUMPDEST SWAP2 POP PUSH2 0x20BC DUP3 PUSH2 0x207B JUMP JUMPDEST PUSH1 0x20 DUP3 ADD SWAP1 POP SWAP2 SWAP1 POP JUMP JUMPDEST PUSH1 0x0 PUSH1 0x20 DUP3 ADD SWAP1 POP DUP2 DUP2 SUB PUSH1 0x0 DUP4 ADD MSTORE PUSH2 0x20E0 DUP2 PUSH2 0x20A4 JUMP JUMPDEST SWAP1 POP SWAP2 SWAP1 POP JUMP JUMPDEST PUSH32 0x49434F2053746174652069736E27742068616C74656420796574000000000000 PUSH1 0x0 DUP3 ADD MSTORE POP JUMP JUMPDEST PUSH1 0x0 PUSH2 0x211D PUSH1 0x1A DUP4 PUSH2 0x171C JUMP JUMPDEST SWAP2 POP PUSH2 0x2128 DUP3 PUSH2 0x20E7 JUMP JUMPDEST PUSH1 0x20 DUP3 ADD SWAP1 POP SWAP2 SWAP1 POP JUMP JUMPDEST PUSH1 0x0 PUSH1 0x20 DUP3 ADD SWAP1 POP DUP2 DUP2 SUB PUSH1 0x0 DUP4 ADD MSTORE PUSH2 0x214C DUP2 PUSH2 0x2110 JUMP JUMPDEST SWAP1 POP SWAP2 SWAP1 POP JUMP JUMPDEST PUSH32 0x49434F2053686F756C6420626520696E2052756E6E696E672053746174650000 PUSH1 0x0 DUP3 ADD MSTORE POP JUMP JUMPDEST PUSH1 0x0 PUSH2 0x2189 PUSH1 0x1E DUP4 PUSH2 0x171C JUMP JUMPDEST SWAP2 POP PUSH2 0x2194 DUP3 PUSH2 0x2153 JUMP JUMPDEST PUSH1 0x20 DUP3 ADD SWAP1 POP SWAP2 SWAP1 POP JUMP JUMPDEST PUSH1 0x0 PUSH1 0x20 DUP3 ADD SWAP1 POP DUP2 DUP2 SUB PUSH1 0x0 DUP4 ADD MSTORE PUSH2 0x21B8 DUP2 PUSH2 0x217C JUMP JUMPDEST SWAP1 POP SWAP2 SWAP1 POP JUMP JUMPDEST PUSH32 0x49434F2048617264636170206F722074696D656C696D6974206E6F7420726561 PUSH1 0x0 DUP3 ADD MSTORE PUSH32 0x6368656400000000000000000000000000000000000000000000000000000000 PUSH1 0x20 DUP3 ADD MSTORE POP JUMP JUMPDEST PUSH1 0x0 PUSH2 0x221B PUSH1 0x24 DUP4 PUSH2 0x171C JUMP JUMPDEST SWAP2 POP PUSH2 0x2226 DUP3 PUSH2 0x21BF JUMP JUMPDEST PUSH1 0x40 DUP3 ADD SWAP1 POP SWAP2 SWAP1 POP JUMP JUMPDEST PUSH1 0x0 PUSH1 0x20 DUP3 ADD SWAP1 POP DUP2 DUP2 SUB PUSH1 0x0 DUP4 ADD MSTORE PUSH2 0x224A DUP2 PUSH2 0x220E JUMP JUMPDEST SWAP1 POP SWAP2 SWAP1 POP JUMP INVALID LOG2 PUSH5 0x6970667358 0x22 SLT KECCAK256 0xA9 0xBF PUSH23 0x1E1D752FBA50074EA2BAAD32BD12A25D482CA17D278804 0xBF 0x29 SWAP14 0x1F POP 0xD9 PUSH5 0x736F6C6343 STOP ADDMOD LT STOP CALLER "
				},
				"gasEstimates": {
					"creation": {
						"codeDepositCost": "1767800",
						"executionCost": "infinite",
						"totalCost": "infinite"
					},
					"external": {
						"": "infinite",
						"ICOState()": "2693",
						"ICOWallet()": "2625",
						"admin()": "2599",
						"burn()": "infinite",
						"changeAdmin(address)": "26934",
						"changeICOWallet(address)": "26935",
						"endIco()": "33039",
						"getICOState()": "infinite",
						"getICOTokenBalance()": "infinite",
						"haltICO()": "28877",
						"hardCap()": "2539",
						"icoEndTime()": "2518",
						"icoStartTime()": "2518",
						"invest()": "infinite",
						"investedAmountOf(address)": "2904",
						"investorBalanceOf(address)": "infinite",
						"maxInvestment()": "2453",
						"minInvestment()": "2452",
						"raisedAmount()": "2451",
						"resumeICO()": "28876",
						"startICO()": "infinite",
						"token()": "infinite",
						"tokenPrice()": "2562"
					}
				},
				"methodIdentifiers": {
					"ICOState()": "aeecdc2c",
					"ICOWallet()": "ae764df3",
					"admin()": "f851a440",
					"burn()": "44df8e70",
					"changeAdmin(address)": "8f283970",
					"changeICOWallet(address)": "00f53e69",
					"endIco()": "e657807b",
					"getICOState()": "2e659d93",
					"getICOTokenBalance()": "6127b2ca",
					"haltICO()": "129caa18",
					"hardCap()": "fb86a404",
					"icoEndTime()": "7e1055b6",
					"icoStartTime()": "a7c3d71b",
					"invest()": "e8b5e51f",
					"investedAmountOf(address)": "1aae3460",
					"investorBalanceOf(address)": "61fba37d",
					"maxInvestment()": "002e1316",
					"minInvestment()": "8ac2c680",
					"raisedAmount()": "c59ee1dc",
					"resumeICO()": "9cbd7da5",
					"startICO()": "7fa8c158",
					"token()": "fc0c546a",
					"tokenPrice()": "7ff9b596"
				}
			},
			"storageLayout": {
				"storage": [
					{
						"astId": 82,
						"contract": "ICO AFFILIATE/ico.sol:StknICO",
						"label": "admin",
						"offset": 0,
						"slot": "0",
						"type": "t_address"
					},
					{
						"astId": 84,
						"contract": "ICO AFFILIATE/ico.sol:StknICO",
						"label": "ICOWallet",
						"offset": 0,
						"slot": "1",
						"type": "t_address_payable"
					},
					{
						"astId": 87,
						"contract": "ICO AFFILIATE/ico.sol:StknICO",
						"label": "token",
						"offset": 0,
						"slot": "2",
						"type": "t_contract(IERC20)77"
					},
					{
						"astId": 90,
						"contract": "ICO AFFILIATE/ico.sol:StknICO",
						"label": "tokenPrice",
						"offset": 0,
						"slot": "3",
						"type": "t_uint256"
					},
					{
						"astId": 93,
						"contract": "ICO AFFILIATE/ico.sol:StknICO",
						"label": "hardCap",
						"offset": 0,
						"slot": "4",
						"type": "t_uint256"
					},
					{
						"astId": 95,
						"contract": "ICO AFFILIATE/ico.sol:StknICO",
						"label": "raisedAmount",
						"offset": 0,
						"slot": "5",
						"type": "t_uint256"
					},
					{
						"astId": 98,
						"contract": "ICO AFFILIATE/ico.sol:StknICO",
						"label": "minInvestment",
						"offset": 0,
						"slot": "6",
						"type": "t_uint256"
					},
					{
						"astId": 101,
						"contract": "ICO AFFILIATE/ico.sol:StknICO",
						"label": "maxInvestment",
						"offset": 0,
						"slot": "7",
						"type": "t_uint256"
					},
					{
						"astId": 103,
						"contract": "ICO AFFILIATE/ico.sol:StknICO",
						"label": "icoStartTime",
						"offset": 0,
						"slot": "8",
						"type": "t_uint256"
					},
					{
						"astId": 105,
						"contract": "ICO AFFILIATE/ico.sol:StknICO",
						"label": "icoEndTime",
						"offset": 0,
						"slot": "9",
						"type": "t_uint256"
					},
					{
						"astId": 109,
						"contract": "ICO AFFILIATE/ico.sol:StknICO",
						"label": "investedAmountOf",
						"offset": 0,
						"slot": "10",
						"type": "t_mapping(t_address,t_uint256)"
					},
					{
						"astId": 117,
						"contract": "ICO AFFILIATE/ico.sol:StknICO",
						"label": "ICOState",
						"offset": 0,
						"slot": "11",
						"type": "t_enum(State)114"
					}
				],
				"types": {
					"t_address": {
						"encoding": "inplace",
						"label": "address",
						"numberOfBytes": "20"
					},
					"t_address_payable": {
						"encoding": "inplace",
						"label": "address payable",
						"numberOfBytes": "20"
					},
					"t_contract(IERC20)77": {
						"encoding": "inplace",
						"label": "contract IERC20",
						"numberOfBytes": "20"
					},
					"t_enum(State)114": {
						"encoding": "inplace",
						"label": "enum StknICO.State",
						"numberOfBytes": "1"
					},
					"t_mapping(t_address,t_uint256)": {
						"encoding": "mapping",
						"key": "t_address",
						"label": "mapping(address => uint256)",
						"numberOfBytes": "32",
						"value": "t_uint256"
					},
					"t_uint256": {
						"encoding": "inplace",
						"label": "uint256",
						"numberOfBytes": "32"
					}
				}
			},
			"userdoc": {
				"kind": "user",
				"methods": {},
				"version": 1
			}
		}
	}
}