{
	"ICO AFFILIATE/Copy_staker3lv.sol": {
		"MaticStaker": {
			"abi": [
				{
					"inputs": [
						{
							"internalType": "address payable",
							"name": "wallet",
							"type": "address"
						},
						{
							"internalType": "uint256",
							"name": "startDate",
							"type": "uint256"
						},
						{
							"internalType": "address payable",
							"name": "_icoWallet",
							"type": "address"
						},
						{
							"internalType": "address",
							"name": "_token",
							"type": "address"
						}
					],
					"stateMutability": "nonpayable",
					"type": "constructor"
				},
				{
					"anonymous": false,
					"inputs": [
						{
							"indexed": true,
							"internalType": "address",
							"name": "user",
							"type": "address"
						},
						{
							"indexed": false,
							"internalType": "uint256",
							"name": "totalAmount",
							"type": "uint256"
						}
					],
					"name": "FeePayed",
					"type": "event"
				},
				{
					"anonymous": false,
					"inputs": [
						{
							"indexed": true,
							"internalType": "address",
							"name": "from",
							"type": "address"
						},
						{
							"indexed": true,
							"internalType": "address",
							"name": "to",
							"type": "address"
						},
						{
							"indexed": false,
							"internalType": "uint256",
							"name": "value",
							"type": "uint256"
						},
						{
							"indexed": false,
							"internalType": "uint256",
							"name": "tokens",
							"type": "uint256"
						}
					],
					"name": "Invest",
					"type": "event"
				},
				{
					"anonymous": false,
					"inputs": [
						{
							"indexed": true,
							"internalType": "address",
							"name": "user",
							"type": "address"
						},
						{
							"indexed": false,
							"internalType": "uint8",
							"name": "plan",
							"type": "uint8"
						},
						{
							"indexed": false,
							"internalType": "uint256",
							"name": "percent",
							"type": "uint256"
						},
						{
							"indexed": false,
							"internalType": "uint256",
							"name": "amount",
							"type": "uint256"
						},
						{
							"indexed": false,
							"internalType": "uint256",
							"name": "profit",
							"type": "uint256"
						},
						{
							"indexed": false,
							"internalType": "uint256",
							"name": "start",
							"type": "uint256"
						},
						{
							"indexed": false,
							"internalType": "uint256",
							"name": "finish",
							"type": "uint256"
						}
					],
					"name": "NewDeposit",
					"type": "event"
				},
				{
					"anonymous": false,
					"inputs": [
						{
							"indexed": false,
							"internalType": "address",
							"name": "user",
							"type": "address"
						}
					],
					"name": "Newbie",
					"type": "event"
				},
				{
					"anonymous": false,
					"inputs": [
						{
							"indexed": true,
							"internalType": "address",
							"name": "referrer",
							"type": "address"
						},
						{
							"indexed": true,
							"internalType": "address",
							"name": "referral",
							"type": "address"
						},
						{
							"indexed": true,
							"internalType": "uint256",
							"name": "level",
							"type": "uint256"
						},
						{
							"indexed": false,
							"internalType": "uint256",
							"name": "amount",
							"type": "uint256"
						}
					],
					"name": "RefBonus",
					"type": "event"
				},
				{
					"anonymous": false,
					"inputs": [
						{
							"indexed": false,
							"internalType": "address",
							"name": "to",
							"type": "address"
						},
						{
							"indexed": false,
							"internalType": "uint256",
							"name": "amount",
							"type": "uint256"
						},
						{
							"indexed": false,
							"internalType": "uint256",
							"name": "time",
							"type": "uint256"
						}
					],
					"name": "TokenBurn",
					"type": "event"
				},
				{
					"anonymous": false,
					"inputs": [
						{
							"indexed": true,
							"internalType": "address",
							"name": "user",
							"type": "address"
						},
						{
							"indexed": false,
							"internalType": "uint256",
							"name": "amount",
							"type": "uint256"
						}
					],
					"name": "Withdrawn",
					"type": "event"
				},
				{
					"stateMutability": "payable",
					"type": "fallback"
				},
				{
					"inputs": [],
					"name": "ICOState",
					"outputs": [
						{
							"internalType": "enum MaticStaker.State",
							"name": "",
							"type": "uint8"
						}
					],
					"stateMutability": "view",
					"type": "function"
				},
				{
					"inputs": [],
					"name": "ICOWallet",
					"outputs": [
						{
							"internalType": "address payable",
							"name": "",
							"type": "address"
						}
					],
					"stateMutability": "view",
					"type": "function"
				},
				{
					"inputs": [],
					"name": "PERCENTS_DIVIDER",
					"outputs": [
						{
							"internalType": "uint256",
							"name": "",
							"type": "uint256"
						}
					],
					"stateMutability": "view",
					"type": "function"
				},
				{
					"inputs": [],
					"name": "PERCENT_STEP",
					"outputs": [
						{
							"internalType": "uint256",
							"name": "",
							"type": "uint256"
						}
					],
					"stateMutability": "view",
					"type": "function"
				},
				{
					"inputs": [],
					"name": "PROJECT_FEE",
					"outputs": [
						{
							"internalType": "uint256",
							"name": "",
							"type": "uint256"
						}
					],
					"stateMutability": "view",
					"type": "function"
				},
				{
					"inputs": [
						{
							"internalType": "uint256",
							"name": "",
							"type": "uint256"
						}
					],
					"name": "REFERRAL_PERCENTS",
					"outputs": [
						{
							"internalType": "uint256",
							"name": "",
							"type": "uint256"
						}
					],
					"stateMutability": "view",
					"type": "function"
				},
				{
					"inputs": [],
					"name": "TIME_STEP",
					"outputs": [
						{
							"internalType": "uint256",
							"name": "",
							"type": "uint256"
						}
					],
					"stateMutability": "view",
					"type": "function"
				},
				{
					"inputs": [],
					"name": "WITHDRAW_FEE",
					"outputs": [
						{
							"internalType": "uint256",
							"name": "",
							"type": "uint256"
						}
					],
					"stateMutability": "view",
					"type": "function"
				},
				{
					"inputs": [],
					"name": "admin",
					"outputs": [
						{
							"internalType": "address",
							"name": "",
							"type": "address"
						}
					],
					"stateMutability": "view",
					"type": "function"
				},
				{
					"inputs": [],
					"name": "burn",
					"outputs": [
						{
							"internalType": "bool",
							"name": "",
							"type": "bool"
						}
					],
					"stateMutability": "nonpayable",
					"type": "function"
				},
				{
					"inputs": [
						{
							"internalType": "address",
							"name": "_newAdmin",
							"type": "address"
						}
					],
					"name": "changeAdmin",
					"outputs": [],
					"stateMutability": "nonpayable",
					"type": "function"
				},
				{
					"inputs": [
						{
							"internalType": "address payable",
							"name": "_newICOWallet",
							"type": "address"
						}
					],
					"name": "changeICOWallet",
					"outputs": [],
					"stateMutability": "nonpayable",
					"type": "function"
				},
				{
					"inputs": [],
					"name": "commissionWallet",
					"outputs": [
						{
							"internalType": "address payable",
							"name": "",
							"type": "address"
						}
					],
					"stateMutability": "view",
					"type": "function"
				},
				{
					"inputs": [],
					"name": "endIco",
					"outputs": [],
					"stateMutability": "nonpayable",
					"type": "function"
				},
				{
					"inputs": [],
					"name": "getContractBalance",
					"outputs": [
						{
							"internalType": "uint256",
							"name": "",
							"type": "uint256"
						}
					],
					"stateMutability": "view",
					"type": "function"
				},
				{
					"inputs": [],
					"name": "getICOState",
					"outputs": [
						{
							"internalType": "string",
							"name": "",
							"type": "string"
						}
					],
					"stateMutability": "view",
					"type": "function"
				},
				{
					"inputs": [],
					"name": "getICOTokenBalance",
					"outputs": [
						{
							"internalType": "uint256",
							"name": "",
							"type": "uint256"
						}
					],
					"stateMutability": "view",
					"type": "function"
				},
				{
					"inputs": [
						{
							"internalType": "uint8",
							"name": "plan",
							"type": "uint8"
						}
					],
					"name": "getPercent",
					"outputs": [
						{
							"internalType": "uint256",
							"name": "",
							"type": "uint256"
						}
					],
					"stateMutability": "view",
					"type": "function"
				},
				{
					"inputs": [
						{
							"internalType": "uint8",
							"name": "plan",
							"type": "uint8"
						}
					],
					"name": "getPlanInfo",
					"outputs": [
						{
							"internalType": "uint256",
							"name": "time",
							"type": "uint256"
						},
						{
							"internalType": "uint256",
							"name": "percent",
							"type": "uint256"
						}
					],
					"stateMutability": "view",
					"type": "function"
				},
				{
					"inputs": [
						{
							"internalType": "uint8",
							"name": "plan",
							"type": "uint8"
						},
						{
							"internalType": "uint256",
							"name": "deposit",
							"type": "uint256"
						}
					],
					"name": "getResult",
					"outputs": [
						{
							"internalType": "uint256",
							"name": "percent",
							"type": "uint256"
						},
						{
							"internalType": "uint256",
							"name": "profit",
							"type": "uint256"
						},
						{
							"internalType": "uint256",
							"name": "finish",
							"type": "uint256"
						}
					],
					"stateMutability": "view",
					"type": "function"
				},
				{
					"inputs": [
						{
							"internalType": "address",
							"name": "userAddress",
							"type": "address"
						}
					],
					"name": "getUserAmountOfDeposits",
					"outputs": [
						{
							"internalType": "uint256",
							"name": "",
							"type": "uint256"
						}
					],
					"stateMutability": "view",
					"type": "function"
				},
				{
					"inputs": [
						{
							"internalType": "address",
							"name": "userAddress",
							"type": "address"
						}
					],
					"name": "getUserAvailable",
					"outputs": [
						{
							"internalType": "uint256",
							"name": "",
							"type": "uint256"
						}
					],
					"stateMutability": "view",
					"type": "function"
				},
				{
					"inputs": [
						{
							"internalType": "address",
							"name": "userAddress",
							"type": "address"
						}
					],
					"name": "getUserCheckpoint",
					"outputs": [
						{
							"internalType": "uint256",
							"name": "",
							"type": "uint256"
						}
					],
					"stateMutability": "view",
					"type": "function"
				},
				{
					"inputs": [
						{
							"internalType": "address",
							"name": "userAddress",
							"type": "address"
						},
						{
							"internalType": "uint256",
							"name": "index",
							"type": "uint256"
						}
					],
					"name": "getUserDepositInfo",
					"outputs": [
						{
							"internalType": "uint8",
							"name": "plan",
							"type": "uint8"
						},
						{
							"internalType": "uint256",
							"name": "percent",
							"type": "uint256"
						},
						{
							"internalType": "uint256",
							"name": "amount",
							"type": "uint256"
						},
						{
							"internalType": "uint256",
							"name": "profit",
							"type": "uint256"
						},
						{
							"internalType": "uint256",
							"name": "start",
							"type": "uint256"
						},
						{
							"internalType": "uint256",
							"name": "finish",
							"type": "uint256"
						}
					],
					"stateMutability": "view",
					"type": "function"
				},
				{
					"inputs": [
						{
							"internalType": "address",
							"name": "userAddress",
							"type": "address"
						}
					],
					"name": "getUserDividends",
					"outputs": [
						{
							"internalType": "uint256",
							"name": "",
							"type": "uint256"
						}
					],
					"stateMutability": "view",
					"type": "function"
				},
				{
					"inputs": [
						{
							"internalType": "address",
							"name": "userAddress",
							"type": "address"
						}
					],
					"name": "getUserDownlineCount",
					"outputs": [
						{
							"internalType": "uint256",
							"name": "",
							"type": "uint256"
						},
						{
							"internalType": "uint256",
							"name": "",
							"type": "uint256"
						},
						{
							"internalType": "uint256",
							"name": "",
							"type": "uint256"
						}
					],
					"stateMutability": "view",
					"type": "function"
				},
				{
					"inputs": [
						{
							"internalType": "address",
							"name": "userAddress",
							"type": "address"
						}
					],
					"name": "getUserReferralBonus",
					"outputs": [
						{
							"internalType": "uint256",
							"name": "",
							"type": "uint256"
						}
					],
					"stateMutability": "view",
					"type": "function"
				},
				{
					"inputs": [
						{
							"internalType": "address",
							"name": "userAddress",
							"type": "address"
						}
					],
					"name": "getUserReferralTotalBonus",
					"outputs": [
						{
							"internalType": "uint256",
							"name": "",
							"type": "uint256"
						}
					],
					"stateMutability": "view",
					"type": "function"
				},
				{
					"inputs": [
						{
							"internalType": "address",
							"name": "userAddress",
							"type": "address"
						}
					],
					"name": "getUserReferralWithdrawn",
					"outputs": [
						{
							"internalType": "uint256",
							"name": "",
							"type": "uint256"
						}
					],
					"stateMutability": "view",
					"type": "function"
				},
				{
					"inputs": [
						{
							"internalType": "address",
							"name": "userAddress",
							"type": "address"
						}
					],
					"name": "getUserReferrer",
					"outputs": [
						{
							"internalType": "address",
							"name": "",
							"type": "address"
						}
					],
					"stateMutability": "view",
					"type": "function"
				},
				{
					"inputs": [
						{
							"internalType": "address",
							"name": "userAddress",
							"type": "address"
						}
					],
					"name": "getUserTotalDeposits",
					"outputs": [
						{
							"internalType": "uint256",
							"name": "amount",
							"type": "uint256"
						}
					],
					"stateMutability": "view",
					"type": "function"
				},
				{
					"inputs": [],
					"name": "haltICO",
					"outputs": [],
					"stateMutability": "nonpayable",
					"type": "function"
				},
				{
					"inputs": [],
					"name": "hardCap",
					"outputs": [
						{
							"internalType": "uint256",
							"name": "",
							"type": "uint256"
						}
					],
					"stateMutability": "view",
					"type": "function"
				},
				{
					"inputs": [],
					"name": "icoEndTime",
					"outputs": [
						{
							"internalType": "uint256",
							"name": "",
							"type": "uint256"
						}
					],
					"stateMutability": "view",
					"type": "function"
				},
				{
					"inputs": [],
					"name": "icoStartTime",
					"outputs": [
						{
							"internalType": "uint256",
							"name": "",
							"type": "uint256"
						}
					],
					"stateMutability": "view",
					"type": "function"
				},
				{
					"inputs": [
						{
							"internalType": "address",
							"name": "referrer",
							"type": "address"
						},
						{
							"internalType": "uint8",
							"name": "plan",
							"type": "uint8"
						}
					],
					"name": "invest",
					"outputs": [
						{
							"internalType": "bool",
							"name": "",
							"type": "bool"
						}
					],
					"stateMutability": "payable",
					"type": "function"
				},
				{
					"inputs": [],
					"name": "invest1",
					"outputs": [],
					"stateMutability": "payable",
					"type": "function"
				},
				{
					"inputs": [
						{
							"internalType": "address",
							"name": "",
							"type": "address"
						}
					],
					"name": "investedAmountOf",
					"outputs": [
						{
							"internalType": "uint256",
							"name": "",
							"type": "uint256"
						}
					],
					"stateMutability": "view",
					"type": "function"
				},
				{
					"inputs": [
						{
							"internalType": "address",
							"name": "_investor",
							"type": "address"
						}
					],
					"name": "investorBalanceOf",
					"outputs": [
						{
							"internalType": "uint256",
							"name": "",
							"type": "uint256"
						}
					],
					"stateMutability": "view",
					"type": "function"
				},
				{
					"inputs": [],
					"name": "maxInvestment",
					"outputs": [
						{
							"internalType": "uint256",
							"name": "",
							"type": "uint256"
						}
					],
					"stateMutability": "view",
					"type": "function"
				},
				{
					"inputs": [],
					"name": "minInvestment",
					"outputs": [
						{
							"internalType": "uint256",
							"name": "",
							"type": "uint256"
						}
					],
					"stateMutability": "view",
					"type": "function"
				},
				{
					"inputs": [],
					"name": "raisedAmount",
					"outputs": [
						{
							"internalType": "uint256",
							"name": "",
							"type": "uint256"
						}
					],
					"stateMutability": "view",
					"type": "function"
				},
				{
					"inputs": [],
					"name": "resumeICO",
					"outputs": [],
					"stateMutability": "nonpayable",
					"type": "function"
				},
				{
					"inputs": [],
					"name": "startICO",
					"outputs": [],
					"stateMutability": "nonpayable",
					"type": "function"
				},
				{
					"inputs": [],
					"name": "startUNIX",
					"outputs": [
						{
							"internalType": "uint256",
							"name": "",
							"type": "uint256"
						}
					],
					"stateMutability": "view",
					"type": "function"
				},
				{
					"inputs": [],
					"name": "token",
					"outputs": [
						{
							"internalType": "contract IERC20",
							"name": "",
							"type": "address"
						}
					],
					"stateMutability": "view",
					"type": "function"
				},
				{
					"inputs": [],
					"name": "tokenPrice",
					"outputs": [
						{
							"internalType": "uint256",
							"name": "",
							"type": "uint256"
						}
					],
					"stateMutability": "view",
					"type": "function"
				},
				{
					"inputs": [],
					"name": "totalRefBonus",
					"outputs": [
						{
							"internalType": "uint256",
							"name": "",
							"type": "uint256"
						}
					],
					"stateMutability": "view",
					"type": "function"
				},
				{
					"inputs": [],
					"name": "totalStaked",
					"outputs": [
						{
							"internalType": "uint256",
							"name": "",
							"type": "uint256"
						}
					],
					"stateMutability": "view",
					"type": "function"
				},
				{
					"stateMutability": "payable",
					"type": "receive"
				}
			],
			"devdoc": {
				"kind": "dev",
				"methods": {},
				"version": 1
			},
			"evm": {
				"assembly": "    /* \"ICO AFFILIATE/Copy_staker3lv.sol\":1437:14441  contract MaticStaker {... */\n  mstore(0x40, 0x80)\n    /* \"ICO AFFILIATE/Copy_staker3lv.sol\":1491:1539  uint256[] public REFERRAL_PERCENTS = [50, 25, 5] */\n  mload(0x40)\n  dup1\n  0x60\n  add\n  0x40\n  mstore\n  dup1\n    /* \"ICO AFFILIATE/Copy_staker3lv.sol\":1529:1531  50 */\n  0x32\n    /* \"ICO AFFILIATE/Copy_staker3lv.sol\":1491:1539  uint256[] public REFERRAL_PERCENTS = [50, 25, 5] */\n  0xff\n  and\n  dup2\n  mstore\n  0x20\n  add\n    /* \"ICO AFFILIATE/Copy_staker3lv.sol\":1533:1535  25 */\n  0x19\n    /* \"ICO AFFILIATE/Copy_staker3lv.sol\":1491:1539  uint256[] public REFERRAL_PERCENTS = [50, 25, 5] */\n  0xff\n  and\n  dup2\n  mstore\n  0x20\n  add\n    /* \"ICO AFFILIATE/Copy_staker3lv.sol\":1537:1538  5 */\n  0x05\n    /* \"ICO AFFILIATE/Copy_staker3lv.sol\":1491:1539  uint256[] public REFERRAL_PERCENTS = [50, 25, 5] */\n  0xff\n  and\n  dup2\n  mstore\n  pop\n  0x00\n  swap1\n  0x03\n  tag_1\n  swap3\n  swap2\n  swap1\n  tag_2\n  jump\t// in\ntag_1:\n  pop\n    /* \"ICO AFFILIATE/Copy_staker3lv.sol\":1993:2005  0.0001 ether */\n  0x5af3107a4000\n    /* \"ICO AFFILIATE/Copy_staker3lv.sol\":1968:2005  uint public tokenPrice = 0.0001 ether */\n  0x06\n  sstore\n    /* \"ICO AFFILIATE/Copy_staker3lv.sol\":2033:2042  500 ether */\n  0x1b1ae4d6e2ef500000\n    /* \"ICO AFFILIATE/Copy_staker3lv.sol\":2011:2042  uint public hardCap = 500 ether */\n  0x07\n  sstore\n    /* \"ICO AFFILIATE/Copy_staker3lv.sol\":2106:2117  0.001 ether */\n  0x038d7ea4c68000\n    /* \"ICO AFFILIATE/Copy_staker3lv.sol\":2078:2117  uint public minInvestment = 0.001 ether */\n  0x09\n  sstore\n    /* \"ICO AFFILIATE/Copy_staker3lv.sol\":2151:2158  3 ether */\n  0x29a2241af62c0000\n    /* \"ICO AFFILIATE/Copy_staker3lv.sol\":2123:2158  uint public maxInvestment = 3 ether */\n  0x0a\n  sstore\n    /* \"ICO AFFILIATE/Copy_staker3lv.sol\":3497:4014  constructor(address payable wallet, uint256 startDate, address payable _icoWallet, address _token) public {... */\n  callvalue\n  dup1\n  iszero\n  tag_3\n  jumpi\n  0x00\n  dup1\n  revert\ntag_3:\n  pop\n  mload(0x40)\n  sub(codesize, bytecodeSize)\n  dup1\n  bytecodeSize\n  dup4\n  codecopy\n  dup2\n  dup2\n  add\n  0x40\n  mstore\n  0x80\n  dup2\n  lt\n  iszero\n  tag_4\n  jumpi\n  0x00\n  dup1\n  revert\ntag_4:\n  dup2\n  add\n  swap1\n  dup1\n  dup1\n  mload\n  swap1\n  0x20\n  add\n  swap1\n  swap3\n  swap2\n  swap1\n  dup1\n  mload\n  swap1\n  0x20\n  add\n  swap1\n  swap3\n  swap2\n  swap1\n  dup1\n  mload\n  swap1\n  0x20\n  add\n  swap1\n  swap3\n  swap2\n  swap1\n  dup1\n  mload\n  swap1\n  0x20\n  add\n  swap1\n  swap3\n  swap2\n  swap1\n  pop\n  pop\n  pop\n    /* \"ICO AFFILIATE/Copy_staker3lv.sol\":3616:3634  isContract(wallet) */\n  tag_7\n    /* \"ICO AFFILIATE/Copy_staker3lv.sol\":3627:3633  wallet */\n  dup5\n    /* \"ICO AFFILIATE/Copy_staker3lv.sol\":3616:3626  isContract */\n  shl(0x20, tag_8)\n    /* \"ICO AFFILIATE/Copy_staker3lv.sol\":3616:3634  isContract(wallet) */\n  0x20\n  shr\n  jump\t// in\ntag_7:\n    /* \"ICO AFFILIATE/Copy_staker3lv.sol\":3615:3634  !isContract(wallet) */\n  iszero\n    /* \"ICO AFFILIATE/Copy_staker3lv.sol\":3607:3635  require(!isContract(wallet)) */\n  tag_9\n  jumpi\n  0x00\n  dup1\n  revert\ntag_9:\n    /* \"ICO AFFILIATE/Copy_staker3lv.sol\":3659:3660  0 */\n  0x00\n    /* \"ICO AFFILIATE/Copy_staker3lv.sol\":3647:3656  startDate */\n  dup4\n    /* \"ICO AFFILIATE/Copy_staker3lv.sol\":3647:3660  startDate > 0 */\n  gt\n    /* \"ICO AFFILIATE/Copy_staker3lv.sol\":3639:3661  require(startDate > 0) */\n  tag_10\n  jumpi\n  0x00\n  dup1\n  revert\ntag_10:\n    /* \"ICO AFFILIATE/Copy_staker3lv.sol\":3674:3684  msg.sender */\n  caller\n    /* \"ICO AFFILIATE/Copy_staker3lv.sol\":3666:3671  admin */\n  0x03\n  0x00\n    /* \"ICO AFFILIATE/Copy_staker3lv.sol\":3666:3684  admin = msg.sender */\n  0x0100\n  exp\n  dup2\n  sload\n  dup2\n  0xffffffffffffffffffffffffffffffffffffffff\n  mul\n  not\n  and\n  swap1\n  dup4\n  0xffffffffffffffffffffffffffffffffffffffff\n  and\n  mul\n  or\n  swap1\n  sstore\n  pop\n    /* \"ICO AFFILIATE/Copy_staker3lv.sol\":3706:3716  _icoWallet */\n  dup2\n    /* \"ICO AFFILIATE/Copy_staker3lv.sol\":3694:3703  ICOWallet */\n  0x04\n  0x00\n    /* \"ICO AFFILIATE/Copy_staker3lv.sol\":3694:3716  ICOWallet = _icoWallet */\n  0x0100\n  exp\n  dup2\n  sload\n  dup2\n  0xffffffffffffffffffffffffffffffffffffffff\n  mul\n  not\n  and\n  swap1\n  dup4\n  0xffffffffffffffffffffffffffffffffffffffff\n  and\n  mul\n  or\n  swap1\n  sstore\n  pop\n    /* \"ICO AFFILIATE/Copy_staker3lv.sol\":3741:3747  _token */\n  dup1\n    /* \"ICO AFFILIATE/Copy_staker3lv.sol\":3726:3731  token */\n  0x05\n  0x00\n    /* \"ICO AFFILIATE/Copy_staker3lv.sol\":3726:3748  token = IERC20(_token) */\n  0x0100\n  exp\n  dup2\n  sload\n  dup2\n  0xffffffffffffffffffffffffffffffffffffffff\n  mul\n  not\n  and\n  swap1\n  dup4\n  0xffffffffffffffffffffffffffffffffffffffff\n  and\n  mul\n  or\n  swap1\n  sstore\n  pop\n    /* \"ICO AFFILIATE/Copy_staker3lv.sol\":3772:3778  wallet */\n  dup4\n    /* \"ICO AFFILIATE/Copy_staker3lv.sol\":3753:3769  commissionWallet */\n  0x12\n  0x00\n    /* \"ICO AFFILIATE/Copy_staker3lv.sol\":3753:3778  commissionWallet = wallet */\n  0x0100\n  exp\n  dup2\n  sload\n  dup2\n  0xffffffffffffffffffffffffffffffffffffffff\n  mul\n  not\n  and\n  swap1\n  dup4\n  0xffffffffffffffffffffffffffffffffffffffff\n  and\n  mul\n  or\n  swap1\n  sstore\n  pop\n    /* \"ICO AFFILIATE/Copy_staker3lv.sol\":3794:3803  startDate */\n  dup3\n    /* \"ICO AFFILIATE/Copy_staker3lv.sol\":3782:3791  startUNIX */\n  0x11\n    /* \"ICO AFFILIATE/Copy_staker3lv.sol\":3782:3803  startUNIX = startDate */\n  dup2\n  swap1\n  sstore\n  pop\n    /* \"ICO AFFILIATE/Copy_staker3lv.sol\":3816:3821  plans */\n  0x0f\n    /* \"ICO AFFILIATE/Copy_staker3lv.sol\":3827:3839  Plan(14, 80) */\n  mload(0x40)\n  dup1\n  0x40\n  add\n  0x40\n  mstore\n  dup1\n    /* \"ICO AFFILIATE/Copy_staker3lv.sol\":3832:3834  14 */\n  0x0e\n    /* \"ICO AFFILIATE/Copy_staker3lv.sol\":3827:3839  Plan(14, 80) */\n  dup2\n  mstore\n  0x20\n  add\n    /* \"ICO AFFILIATE/Copy_staker3lv.sol\":3836:3838  80 */\n  0x50\n    /* \"ICO AFFILIATE/Copy_staker3lv.sol\":3827:3839  Plan(14, 80) */\n  dup2\n  mstore\n  pop\n    /* \"ICO AFFILIATE/Copy_staker3lv.sol\":3816:3840  plans.push(Plan(14, 80)) */\n  swap1\n  dup1\n  0x01\n  dup2\n  sload\n  add\n  dup1\n  dup3\n  sstore\n  dup1\n  swap2\n  pop\n  pop\n  0x01\n  swap1\n  sub\n  swap1\n  0x00\n  mstore\n  keccak256(0x00, 0x20)\n  swap1\n  0x02\n  mul\n  add\n  0x00\n  swap1\n  swap2\n  swap1\n  swap2\n  swap1\n  swap2\n  pop\n  0x00\n  dup3\n  add\n  mload\n  dup2\n  0x00\n  add\n  sstore\n  0x20\n  dup3\n  add\n  mload\n  dup2\n  0x01\n  add\n  sstore\n  pop\n  pop\n    /* \"ICO AFFILIATE/Copy_staker3lv.sol\":3850:3855  plans */\n  0x0f\n    /* \"ICO AFFILIATE/Copy_staker3lv.sol\":3861:3873  Plan(21, 65) */\n  mload(0x40)\n  dup1\n  0x40\n  add\n  0x40\n  mstore\n  dup1\n    /* \"ICO AFFILIATE/Copy_staker3lv.sol\":3866:3868  21 */\n  0x15\n    /* \"ICO AFFILIATE/Copy_staker3lv.sol\":3861:3873  Plan(21, 65) */\n  dup2\n  mstore\n  0x20\n  add\n    /* \"ICO AFFILIATE/Copy_staker3lv.sol\":3870:3872  65 */\n  0x41\n    /* \"ICO AFFILIATE/Copy_staker3lv.sol\":3861:3873  Plan(21, 65) */\n  dup2\n  mstore\n  pop\n    /* \"ICO AFFILIATE/Copy_staker3lv.sol\":3850:3874  plans.push(Plan(21, 65)) */\n  swap1\n  dup1\n  0x01\n  dup2\n  sload\n  add\n  dup1\n  dup3\n  sstore\n  dup1\n  swap2\n  pop\n  pop\n  0x01\n  swap1\n  sub\n  swap1\n  0x00\n  mstore\n  keccak256(0x00, 0x20)\n  swap1\n  0x02\n  mul\n  add\n  0x00\n  swap1\n  swap2\n  swap1\n  swap2\n  swap1\n  swap2\n  pop\n  0x00\n  dup3\n  add\n  mload\n  dup2\n  0x00\n  add\n  sstore\n  0x20\n  dup3\n  add\n  mload\n  dup2\n  0x01\n  add\n  sstore\n  pop\n  pop\n    /* \"ICO AFFILIATE/Copy_staker3lv.sol\":3884:3889  plans */\n  0x0f\n    /* \"ICO AFFILIATE/Copy_staker3lv.sol\":3895:3907  Plan(28, 50) */\n  mload(0x40)\n  dup1\n  0x40\n  add\n  0x40\n  mstore\n  dup1\n    /* \"ICO AFFILIATE/Copy_staker3lv.sol\":3900:3902  28 */\n  0x1c\n    /* \"ICO AFFILIATE/Copy_staker3lv.sol\":3895:3907  Plan(28, 50) */\n  dup2\n  mstore\n  0x20\n  add\n    /* \"ICO AFFILIATE/Copy_staker3lv.sol\":3904:3906  50 */\n  0x32\n    /* \"ICO AFFILIATE/Copy_staker3lv.sol\":3895:3907  Plan(28, 50) */\n  dup2\n  mstore\n  pop\n    /* \"ICO AFFILIATE/Copy_staker3lv.sol\":3884:3908  plans.push(Plan(28, 50)) */\n  swap1\n  dup1\n  0x01\n  dup2\n  sload\n  add\n  dup1\n  dup3\n  sstore\n  dup1\n  swap2\n  pop\n  pop\n  0x01\n  swap1\n  sub\n  swap1\n  0x00\n  mstore\n  keccak256(0x00, 0x20)\n  swap1\n  0x02\n  mul\n  add\n  0x00\n  swap1\n  swap2\n  swap1\n  swap2\n  swap1\n  swap2\n  pop\n  0x00\n  dup3\n  add\n  mload\n  dup2\n  0x00\n  add\n  sstore\n  0x20\n  dup3\n  add\n  mload\n  dup2\n  0x01\n  add\n  sstore\n  pop\n  pop\n    /* \"ICO AFFILIATE/Copy_staker3lv.sol\":3918:3923  plans */\n  0x0f\n    /* \"ICO AFFILIATE/Copy_staker3lv.sol\":3929:3941  Plan(14, 80) */\n  mload(0x40)\n  dup1\n  0x40\n  add\n  0x40\n  mstore\n  dup1\n    /* \"ICO AFFILIATE/Copy_staker3lv.sol\":3934:3936  14 */\n  0x0e\n    /* \"ICO AFFILIATE/Copy_staker3lv.sol\":3929:3941  Plan(14, 80) */\n  dup2\n  mstore\n  0x20\n  add\n    /* \"ICO AFFILIATE/Copy_staker3lv.sol\":3938:3940  80 */\n  0x50\n    /* \"ICO AFFILIATE/Copy_staker3lv.sol\":3929:3941  Plan(14, 80) */\n  dup2\n  mstore\n  pop\n    /* \"ICO AFFILIATE/Copy_staker3lv.sol\":3918:3942  plans.push(Plan(14, 80)) */\n  swap1\n  dup1\n  0x01\n  dup2\n  sload\n  add\n  dup1\n  dup3\n  sstore\n  dup1\n  swap2\n  pop\n  pop\n  0x01\n  swap1\n  sub\n  swap1\n  0x00\n  mstore\n  keccak256(0x00, 0x20)\n  swap1\n  0x02\n  mul\n  add\n  0x00\n  swap1\n  swap2\n  swap1\n  swap2\n  swap1\n  swap2\n  pop\n  0x00\n  dup3\n  add\n  mload\n  dup2\n  0x00\n  add\n  sstore\n  0x20\n  dup3\n  add\n  mload\n  dup2\n  0x01\n  add\n  sstore\n  pop\n  pop\n    /* \"ICO AFFILIATE/Copy_staker3lv.sol\":3952:3957  plans */\n  0x0f\n    /* \"ICO AFFILIATE/Copy_staker3lv.sol\":3963:3975  Plan(21, 65) */\n  mload(0x40)\n  dup1\n  0x40\n  add\n  0x40\n  mstore\n  dup1\n    /* \"ICO AFFILIATE/Copy_staker3lv.sol\":3968:3970  21 */\n  0x15\n    /* \"ICO AFFILIATE/Copy_staker3lv.sol\":3963:3975  Plan(21, 65) */\n  dup2\n  mstore\n  0x20\n  add\n    /* \"ICO AFFILIATE/Copy_staker3lv.sol\":3972:3974  65 */\n  0x41\n    /* \"ICO AFFILIATE/Copy_staker3lv.sol\":3963:3975  Plan(21, 65) */\n  dup2\n  mstore\n  pop\n    /* \"ICO AFFILIATE/Copy_staker3lv.sol\":3952:3976  plans.push(Plan(21, 65)) */\n  swap1\n  dup1\n  0x01\n  dup2\n  sload\n  add\n  dup1\n  dup3\n  sstore\n  dup1\n  swap2\n  pop\n  pop\n  0x01\n  swap1\n  sub\n  swap1\n  0x00\n  mstore\n  keccak256(0x00, 0x20)\n  swap1\n  0x02\n  mul\n  add\n  0x00\n  swap1\n  swap2\n  swap1\n  swap2\n  swap1\n  swap2\n  pop\n  0x00\n  dup3\n  add\n  mload\n  dup2\n  0x00\n  add\n  sstore\n  0x20\n  dup3\n  add\n  mload\n  dup2\n  0x01\n  add\n  sstore\n  pop\n  pop\n    /* \"ICO AFFILIATE/Copy_staker3lv.sol\":3986:3991  plans */\n  0x0f\n    /* \"ICO AFFILIATE/Copy_staker3lv.sol\":3997:4009  Plan(28, 50) */\n  mload(0x40)\n  dup1\n  0x40\n  add\n  0x40\n  mstore\n  dup1\n    /* \"ICO AFFILIATE/Copy_staker3lv.sol\":4002:4004  28 */\n  0x1c\n    /* \"ICO AFFILIATE/Copy_staker3lv.sol\":3997:4009  Plan(28, 50) */\n  dup2\n  mstore\n  0x20\n  add\n    /* \"ICO AFFILIATE/Copy_staker3lv.sol\":4006:4008  50 */\n  0x32\n    /* \"ICO AFFILIATE/Copy_staker3lv.sol\":3997:4009  Plan(28, 50) */\n  dup2\n  mstore\n  pop\n    /* \"ICO AFFILIATE/Copy_staker3lv.sol\":3986:4010  plans.push(Plan(28, 50)) */\n  swap1\n  dup1\n  0x01\n  dup2\n  sload\n  add\n  dup1\n  dup3\n  sstore\n  dup1\n  swap2\n  pop\n  pop\n  0x01\n  swap1\n  sub\n  swap1\n  0x00\n  mstore\n  keccak256(0x00, 0x20)\n  swap1\n  0x02\n  mul\n  add\n  0x00\n  swap1\n  swap2\n  swap1\n  swap2\n  swap1\n  swap2\n  pop\n  0x00\n  dup3\n  add\n  mload\n  dup2\n  0x00\n  add\n  sstore\n  0x20\n  dup3\n  add\n  mload\n  dup2\n  0x01\n  add\n  sstore\n  pop\n  pop\n    /* \"ICO AFFILIATE/Copy_staker3lv.sol\":3497:4014  constructor(address payable wallet, uint256 startDate, address payable _icoWallet, address _token) public {... */\n  pop\n  pop\n  pop\n  pop\n    /* \"ICO AFFILIATE/Copy_staker3lv.sol\":1437:14441  contract MaticStaker {... */\n  jump(tag_17)\n    /* \"ICO AFFILIATE/Copy_staker3lv.sol\":13174:13335  function isContract(address addr) internal view returns (bool) {... */\ntag_8:\n    /* \"ICO AFFILIATE/Copy_staker3lv.sol\":13231:13235  bool */\n  0x00\n    /* \"ICO AFFILIATE/Copy_staker3lv.sol\":13247:13256  uint size */\n  dup1\n    /* \"ICO AFFILIATE/Copy_staker3lv.sol\":13297:13301  addr */\n  dup3\n    /* \"ICO AFFILIATE/Copy_staker3lv.sol\":13285:13302  extcodesize(addr) */\n  extcodesize\n    /* \"ICO AFFILIATE/Copy_staker3lv.sol\":13277:13302  size := extcodesize(addr) */\n  swap1\n  pop\n    /* \"ICO AFFILIATE/Copy_staker3lv.sol\":13327:13328  0 */\n  0x00\n    /* \"ICO AFFILIATE/Copy_staker3lv.sol\":13320:13324  size */\n  dup2\n    /* \"ICO AFFILIATE/Copy_staker3lv.sol\":13320:13328  size > 0 */\n  gt\n    /* \"ICO AFFILIATE/Copy_staker3lv.sol\":13313:13328  return size > 0 */\n  swap2\n  pop\n  pop\n    /* \"ICO AFFILIATE/Copy_staker3lv.sol\":13174:13335  function isContract(address addr) internal view returns (bool) {... */\n  swap2\n  swap1\n  pop\n  jump\t// out\n    /* \"ICO AFFILIATE/Copy_staker3lv.sol\":1437:14441  contract MaticStaker {... */\ntag_2:\n  dup3\n  dup1\n  sload\n  dup3\n  dup3\n  sstore\n  swap1\n  0x00\n  mstore\n  keccak256(0x00, 0x20)\n  swap1\n  dup2\n  add\n  swap3\n  dup3\n  iszero\n  tag_19\n  jumpi\n  swap2\n  0x20\n  mul\n  dup3\n  add\ntag_20:\n  dup3\n  dup2\n  gt\n  iszero\n  tag_21\n  jumpi\n  dup3\n  mload\n  dup3\n  swap1\n  0xff\n  and\n  swap1\n  sstore\n  swap2\n  0x20\n  add\n  swap2\n  swap1\n  0x01\n  add\n  swap1\n  jump(tag_20)\ntag_21:\ntag_19:\n  pop\n  swap1\n  pop\n  tag_22\n  swap2\n  swap1\n  tag_23\n  jump\t// in\ntag_22:\n  pop\n  swap1\n  jump\t// out\ntag_23:\ntag_24:\n  dup1\n  dup3\n  gt\n  iszero\n  tag_25\n  jumpi\n  0x00\n  dup2\n  0x00\n  swap1\n  sstore\n  pop\n  0x01\n  add\n  jump(tag_24)\ntag_25:\n  pop\n  swap1\n  jump\t// out\ntag_17:\n  dataSize(sub_0)\n  dup1\n  dataOffset(sub_0)\n  0x00\n  codecopy\n  0x00\n  return\nstop\n\nsub_0: assembly {\n        /* \"ICO AFFILIATE/Copy_staker3lv.sol\":1437:14441  contract MaticStaker {... */\n      mstore(0x40, 0x80)\n      jumpi(tag_1, lt(calldatasize, 0x04))\n      shr(0xe0, calldataload(0x00))\n      dup1\n      0x7e3abeea\n      gt\n      tag_52\n      jumpi\n      dup1\n      0xa8aeb6c2\n      gt\n      tag_53\n      jumpi\n      dup1\n      0xc59ee1dc\n      gt\n      tag_54\n      jumpi\n      dup1\n      0xe85abe09\n      gt\n      tag_55\n      jumpi\n      dup1\n      0xe85abe09\n      eq\n      tag_48\n      jumpi\n      dup1\n      0xf851a440\n      eq\n      tag_49\n      jumpi\n      dup1\n      0xfb86a404\n      eq\n      tag_50\n      jumpi\n      dup1\n      0xfc0c546a\n      eq\n      tag_51\n      jumpi\n      jump(tag_2)\n    tag_55:\n      dup1\n      0xc59ee1dc\n      eq\n      tag_45\n      jumpi\n      dup1\n      0xd7ffca91\n      eq\n      tag_46\n      jumpi\n      dup1\n      0xe657807b\n      eq\n      tag_47\n      jumpi\n      jump(tag_2)\n    tag_54:\n      dup1\n      0xa8aeb6c2\n      eq\n      tag_39\n      jumpi\n      dup1\n      0xae764df3\n      eq\n      tag_40\n      jumpi\n      dup1\n      0xaecaa634\n      eq\n      tag_41\n      jumpi\n      dup1\n      0xaeecdc2c\n      eq\n      tag_42\n      jumpi\n      dup1\n      0xc0806b03\n      eq\n      tag_43\n      jumpi\n      dup1\n      0xc2341238\n      eq\n      tag_44\n      jumpi\n      jump(tag_2)\n    tag_53:\n      dup1\n      0x9641119e\n      gt\n      tag_56\n      jumpi\n      dup1\n      0x9641119e\n      eq\n      tag_33\n      jumpi\n      dup1\n      0x97c0262a\n      eq\n      tag_34\n      jumpi\n      dup1\n      0x9bff5ddb\n      eq\n      tag_35\n      jumpi\n      dup1\n      0x9cbd7da5\n      eq\n      tag_36\n      jumpi\n      dup1\n      0xa51b9533\n      eq\n      tag_37\n      jumpi\n      dup1\n      0xa7c3d71b\n      eq\n      tag_38\n      jumpi\n      jump(tag_2)\n    tag_56:\n      dup1\n      0x7e3abeea\n      eq\n      tag_27\n      jumpi\n      dup1\n      0x7fa8c158\n      eq\n      tag_28\n      jumpi\n      dup1\n      0x7ff9b596\n      eq\n      tag_29\n      jumpi\n      dup1\n      0x817b1cd2\n      eq\n      tag_30\n      jumpi\n      dup1\n      0x8ac2c680\n      eq\n      tag_31\n      jumpi\n      dup1\n      0x8f283970\n      eq\n      tag_32\n      jumpi\n      jump(tag_2)\n    tag_52:\n      dup1\n      0x48c37203\n      gt\n      tag_57\n      jumpi\n      dup1\n      0x6127b2ca\n      gt\n      tag_58\n      jumpi\n      dup1\n      0x6127b2ca\n      eq\n      tag_21\n      jumpi\n      dup1\n      0x61fba37d\n      eq\n      tag_22\n      jumpi\n      dup1\n      0x69b11dd5\n      eq\n      tag_23\n      jumpi\n      dup1\n      0x6bb18556\n      eq\n      tag_24\n      jumpi\n      dup1\n      0x6f9fb98a\n      eq\n      tag_25\n      jumpi\n      dup1\n      0x7e1055b6\n      eq\n      tag_26\n      jumpi\n      jump(tag_2)\n    tag_58:\n      dup1\n      0x48c37203\n      eq\n      tag_15\n      jumpi\n      dup1\n      0x48d44bd1\n      eq\n      tag_16\n      jumpi\n      dup1\n      0x57fc86b4\n      eq\n      tag_17\n      jumpi\n      dup1\n      0x581c5ae6\n      eq\n      tag_18\n      jumpi\n      dup1\n      0x5936cf61\n      eq\n      tag_19\n      jumpi\n      dup1\n      0x600d20ce\n      eq\n      tag_20\n      jumpi\n      jump(tag_2)\n    tag_57:\n      dup1\n      0x153ab9df\n      gt\n      tag_59\n      jumpi\n      dup1\n      0x153ab9df\n      eq\n      tag_9\n      jumpi\n      dup1\n      0x1aae3460\n      eq\n      tag_10\n      jumpi\n      dup1\n      0x2e659d93\n      eq\n      tag_11\n      jumpi\n      dup1\n      0x32bc298c\n      eq\n      tag_12\n      jumpi\n      dup1\n      0x36144c9a\n      eq\n      tag_13\n      jumpi\n      dup1\n      0x44df8e70\n      eq\n      tag_14\n      jumpi\n      jump(tag_2)\n    tag_59:\n      dup1\n      0x2e1316\n      eq\n      tag_3\n      jumpi\n      dup1\n      0xf53e69\n      eq\n      tag_4\n      jumpi\n      dup1\n      0x01c234a8\n      eq\n      tag_5\n      jumpi\n      dup1\n      0x03a93c0c\n      eq\n      tag_6\n      jumpi\n      dup1\n      0x040a772e\n      eq\n      tag_7\n      jumpi\n      dup1\n      0x129caa18\n      eq\n      tag_8\n      jumpi\n      jump(tag_2)\n    tag_1:\n      jumpi(tag_2, calldatasize)\n        /* \"ICO AFFILIATE/Copy_staker3lv.sol\":4214:4223  invest1() */\n      tag_62\n        /* \"ICO AFFILIATE/Copy_staker3lv.sol\":4214:4221  invest1 */\n      tag_63\n        /* \"ICO AFFILIATE/Copy_staker3lv.sol\":4214:4223  invest1() */\n      jump\t// in\n    tag_62:\n        /* \"ICO AFFILIATE/Copy_staker3lv.sol\":1437:14441  contract MaticStaker {... */\n      stop\n    tag_2:\n        /* \"ICO AFFILIATE/Copy_staker3lv.sol\":4274:4283  invest1() */\n      tag_66\n        /* \"ICO AFFILIATE/Copy_staker3lv.sol\":4274:4281  invest1 */\n      tag_63\n        /* \"ICO AFFILIATE/Copy_staker3lv.sol\":4274:4283  invest1() */\n      jump\t// in\n    tag_66:\n        /* \"ICO AFFILIATE/Copy_staker3lv.sol\":1437:14441  contract MaticStaker {... */\n      stop\n        /* \"ICO AFFILIATE/Copy_staker3lv.sol\":2123:2158  uint public maxInvestment = 3 ether */\n    tag_3:\n      callvalue\n      dup1\n      iszero\n      tag_67\n      jumpi\n      0x00\n      dup1\n      revert\n    tag_67:\n      pop\n      tag_68\n      tag_69\n      jump\t// in\n    tag_68:\n      mload(0x40)\n      dup1\n      dup3\n      dup2\n      mstore\n      0x20\n      add\n      swap2\n      pop\n      pop\n      mload(0x40)\n      dup1\n      swap2\n      sub\n      swap1\n      return\n        /* \"ICO AFFILIATE/Copy_staker3lv.sol\":5333:5450  function changeICOWallet(address payable _newICOWallet) external onlyAdmin {... */\n    tag_4:\n      callvalue\n      dup1\n      iszero\n      tag_70\n      jumpi\n      0x00\n      dup1\n      revert\n    tag_70:\n      pop\n      tag_71\n      0x04\n      dup1\n      calldatasize\n      sub\n      0x20\n      dup2\n      lt\n      iszero\n      tag_72\n      jumpi\n      0x00\n      dup1\n      revert\n    tag_72:\n      dup2\n      add\n      swap1\n      dup1\n      dup1\n      calldataload\n      0xffffffffffffffffffffffffffffffffffffffff\n      and\n      swap1\n      0x20\n      add\n      swap1\n      swap3\n      swap2\n      swap1\n      pop\n      pop\n      pop\n      tag_73\n      jump\t// in\n    tag_71:\n      stop\n        /* \"ICO AFFILIATE/Copy_staker3lv.sol\":1691:1738  uint256 constant public PERCENTS_DIVIDER = 1000 */\n    tag_5:\n      callvalue\n      dup1\n      iszero\n      tag_74\n      jumpi\n      0x00\n      dup1\n      revert\n    tag_74:\n      pop\n      tag_75\n      tag_76\n      jump\t// in\n    tag_75:\n      mload(0x40)\n      dup1\n      dup3\n      dup2\n      mstore\n      0x20\n      add\n      swap2\n      pop\n      pop\n      mload(0x40)\n      dup1\n      swap2\n      sub\n      swap1\n      return\n        /* \"ICO AFFILIATE/Copy_staker3lv.sol\":11561:11764  function getUserDownlineCount(address userAddress) public view returns(uint256, uint256, uint256) {... */\n    tag_6:\n      callvalue\n      dup1\n      iszero\n      tag_77\n      jumpi\n      0x00\n      dup1\n      revert\n    tag_77:\n      pop\n      tag_78\n      0x04\n      dup1\n      calldatasize\n      sub\n      0x20\n      dup2\n      lt\n      iszero\n      tag_79\n      jumpi\n      0x00\n      dup1\n      revert\n    tag_79:\n      dup2\n      add\n      swap1\n      dup1\n      dup1\n      calldataload\n      0xffffffffffffffffffffffffffffffffffffffff\n      and\n      swap1\n      0x20\n      add\n      swap1\n      swap3\n      swap2\n      swap1\n      pop\n      pop\n      pop\n      tag_80\n      jump\t// in\n    tag_78:\n      mload(0x40)\n      dup1\n      dup5\n      dup2\n      mstore\n      0x20\n      add\n      dup4\n      dup2\n      mstore\n      0x20\n      add\n      dup3\n      dup2\n      mstore\n      0x20\n      add\n      swap4\n      pop\n      pop\n      pop\n      pop\n      mload(0x40)\n      dup1\n      swap2\n      sub\n      swap1\n      return\n        /* \"ICO AFFILIATE/Copy_staker3lv.sol\":10449:11314  function getUserDividends(address userAddress) public view returns (uint256) {... */\n    tag_7:\n      callvalue\n      dup1\n      iszero\n      tag_81\n      jumpi\n      0x00\n      dup1\n      revert\n    tag_81:\n      pop\n      tag_82\n      0x04\n      dup1\n      calldatasize\n      sub\n      0x20\n      dup2\n      lt\n      iszero\n      tag_83\n      jumpi\n      0x00\n      dup1\n      revert\n    tag_83:\n      dup2\n      add\n      swap1\n      dup1\n      dup1\n      calldataload\n      0xffffffffffffffffffffffffffffffffffffffff\n      and\n      swap1\n      0x20\n      add\n      swap1\n      swap3\n      swap2\n      swap1\n      pop\n      pop\n      pop\n      tag_84\n      jump\t// in\n    tag_82:\n      mload(0x40)\n      dup1\n      dup3\n      dup2\n      mstore\n      0x20\n      add\n      swap2\n      pop\n      pop\n      mload(0x40)\n      dup1\n      swap2\n      sub\n      swap1\n      return\n        /* \"ICO AFFILIATE/Copy_staker3lv.sol\":4996:5143  function haltICO() external onlyAdmin {... */\n    tag_8:\n      callvalue\n      dup1\n      iszero\n      tag_85\n      jumpi\n      0x00\n      dup1\n      revert\n    tag_85:\n      pop\n      tag_86\n      tag_87\n      jump\t// in\n    tag_86:\n      stop\n        /* \"ICO AFFILIATE/Copy_staker3lv.sol\":12182:12341  function getUserAvailable(address userAddress) public view returns(uint256) {... */\n    tag_9:\n      callvalue\n      dup1\n      iszero\n      tag_88\n      jumpi\n      0x00\n      dup1\n      revert\n    tag_88:\n      pop\n      tag_89\n      0x04\n      dup1\n      calldatasize\n      sub\n      0x20\n      dup2\n      lt\n      iszero\n      tag_90\n      jumpi\n      0x00\n      dup1\n      revert\n    tag_90:\n      dup2\n      add\n      swap1\n      dup1\n      dup1\n      calldataload\n      0xffffffffffffffffffffffffffffffffffffffff\n      and\n      swap1\n      0x20\n      add\n      swap1\n      swap3\n      swap2\n      swap1\n      pop\n      pop\n      pop\n      tag_91\n      jump\t// in\n    tag_89:\n      mload(0x40)\n      dup1\n      dup3\n      dup2\n      mstore\n      0x20\n      add\n      swap2\n      pop\n      pop\n      mload(0x40)\n      dup1\n      swap2\n      sub\n      swap1\n      return\n        /* \"ICO AFFILIATE/Copy_staker3lv.sol\":2238:2286  mapping(address => uint) public investedAmountOf */\n    tag_10:\n      callvalue\n      dup1\n      iszero\n      tag_92\n      jumpi\n      0x00\n      dup1\n      revert\n    tag_92:\n      pop\n      tag_93\n      0x04\n      dup1\n      calldatasize\n      sub\n      0x20\n      dup2\n      lt\n      iszero\n      tag_94\n      jumpi\n      0x00\n      dup1\n      revert\n    tag_94:\n      dup2\n      add\n      swap1\n      dup1\n      dup1\n      calldataload\n      0xffffffffffffffffffffffffffffffffffffffff\n      and\n      swap1\n      0x20\n      add\n      swap1\n      swap3\n      swap2\n      swap1\n      pop\n      pop\n      pop\n      tag_95\n      jump\t// in\n    tag_93:\n      mload(0x40)\n      dup1\n      dup3\n      dup2\n      mstore\n      0x20\n      add\n      swap2\n      pop\n      pop\n      mload(0x40)\n      dup1\n      swap2\n      sub\n      swap1\n      return\n        /* \"ICO AFFILIATE/Copy_staker3lv.sol\":4337:4683  function getICOState() external view returns (string memory) {... */\n    tag_11:\n      callvalue\n      dup1\n      iszero\n      tag_96\n      jumpi\n      0x00\n      dup1\n      revert\n    tag_96:\n      pop\n      tag_97\n      tag_98\n      jump\t// in\n    tag_97:\n      mload(0x40)\n      dup1\n      dup1\n      0x20\n      add\n      dup3\n      dup2\n      sub\n      dup3\n      mstore\n      dup4\n      dup2\n      dup2\n      mload\n      dup2\n      mstore\n      0x20\n      add\n      swap2\n      pop\n      dup1\n      mload\n      swap1\n      0x20\n      add\n      swap1\n      dup1\n      dup4\n      dup4\n      0x00\n    tag_99:\n      dup4\n      dup2\n      lt\n      iszero\n      tag_101\n      jumpi\n      dup1\n      dup3\n      add\n      mload\n      dup2\n      dup5\n      add\n      mstore\n      0x20\n      dup2\n      add\n      swap1\n      pop\n      jump(tag_99)\n    tag_101:\n      pop\n      pop\n      pop\n      pop\n      swap1\n      pop\n      swap1\n      dup2\n      add\n      swap1\n      0x1f\n      and\n      dup1\n      iszero\n      tag_102\n      jumpi\n      dup1\n      dup3\n      sub\n      dup1\n      mload\n      0x01\n      dup4\n      0x20\n      sub\n      0x0100\n      exp\n      sub\n      not\n      and\n      dup2\n      mstore\n      0x20\n      add\n      swap2\n      pop\n    tag_102:\n      pop\n      swap3\n      pop\n      pop\n      pop\n      mload(0x40)\n      dup1\n      swap2\n      sub\n      swap1\n      return\n        /* \"ICO AFFILIATE/Copy_staker3lv.sol\":1741:1783  uint256 constant public TIME_STEP = 1 days */\n    tag_12:\n      callvalue\n      dup1\n      iszero\n      tag_103\n      jumpi\n      0x00\n      dup1\n      revert\n    tag_103:\n      pop\n      tag_104\n      tag_105\n      jump\t// in\n    tag_104:\n      mload(0x40)\n      dup1\n      dup3\n      dup2\n      mstore\n      0x20\n      add\n      swap2\n      pop\n      pop\n      mload(0x40)\n      dup1\n      swap2\n      sub\n      swap1\n      return\n        /* \"ICO AFFILIATE/Copy_staker3lv.sol\":11441:11558  function getUserReferrer(address userAddress) public view returns(address) {... */\n    tag_13:\n      callvalue\n      dup1\n      iszero\n      tag_106\n      jumpi\n      0x00\n      dup1\n      revert\n    tag_106:\n      pop\n      tag_107\n      0x04\n      dup1\n      calldatasize\n      sub\n      0x20\n      dup2\n      lt\n      iszero\n      tag_108\n      jumpi\n      0x00\n      dup1\n      revert\n    tag_108:\n      dup2\n      add\n      swap1\n      dup1\n      dup1\n      calldataload\n      0xffffffffffffffffffffffffffffffffffffffff\n      and\n      swap1\n      0x20\n      add\n      swap1\n      swap3\n      swap2\n      swap1\n      pop\n      pop\n      pop\n      tag_109\n      jump\t// in\n    tag_107:\n      mload(0x40)\n      dup1\n      dup3\n      0xffffffffffffffffffffffffffffffffffffffff\n      and\n      dup2\n      mstore\n      0x20\n      add\n      swap2\n      pop\n      pop\n      mload(0x40)\n      dup1\n      swap2\n      sub\n      swap1\n      return\n        /* \"ICO AFFILIATE/Copy_staker3lv.sol\":13360:13754  function burn() external returns (bool) {... */\n    tag_14:\n      callvalue\n      dup1\n      iszero\n      tag_110\n      jumpi\n      0x00\n      dup1\n      revert\n    tag_110:\n      pop\n      tag_111\n      tag_112\n      jump\t// in\n    tag_111:\n      mload(0x40)\n      dup1\n      dup3\n      iszero\n      iszero\n      dup2\n      mstore\n      0x20\n      add\n      swap2\n      pop\n      pop\n      mload(0x40)\n      dup1\n      swap2\n      sub\n      swap1\n      return\n        /* \"ICO AFFILIATE/Copy_staker3lv.sol\":11889:12018  function getUserReferralTotalBonus(address userAddress) public view returns(uint256) {... */\n    tag_15:\n      callvalue\n      dup1\n      iszero\n      tag_113\n      jumpi\n      0x00\n      dup1\n      revert\n    tag_113:\n      pop\n      tag_114\n      0x04\n      dup1\n      calldatasize\n      sub\n      0x20\n      dup2\n      lt\n      iszero\n      tag_115\n      jumpi\n      0x00\n      dup1\n      revert\n    tag_115:\n      dup2\n      add\n      swap1\n      dup1\n      dup1\n      calldataload\n      0xffffffffffffffffffffffffffffffffffffffff\n      and\n      swap1\n      0x20\n      add\n      swap1\n      swap3\n      swap2\n      swap1\n      pop\n      pop\n      pop\n      tag_116\n      jump\t// in\n    tag_114:\n      mload(0x40)\n      dup1\n      dup3\n      dup2\n      mstore\n      0x20\n      add\n      swap2\n      pop\n      pop\n      mload(0x40)\n      dup1\n      swap2\n      sub\n      swap1\n      return\n        /* \"ICO AFFILIATE/Copy_staker3lv.sol\":1542:1583  uint256 constant public PROJECT_FEE = 100 */\n    tag_16:\n      callvalue\n      dup1\n      iszero\n      tag_117\n      jumpi\n      0x00\n      dup1\n      revert\n    tag_117:\n      pop\n      tag_118\n      tag_119\n      jump\t// in\n    tag_118:\n      mload(0x40)\n      dup1\n      dup3\n      dup2\n      mstore\n      0x20\n      add\n      swap2\n      pop\n      pop\n      mload(0x40)\n      dup1\n      swap2\n      sub\n      swap1\n      return\n        /* \"ICO AFFILIATE/Copy_staker3lv.sol\":1586:1626  uint256 constant public PERCENT_STEP = 5 */\n    tag_17:\n      callvalue\n      dup1\n      iszero\n      tag_120\n      jumpi\n      0x00\n      dup1\n      revert\n    tag_120:\n      pop\n      tag_121\n      tag_122\n      jump\t// in\n    tag_121:\n      mload(0x40)\n      dup1\n      dup3\n      dup2\n      mstore\n      0x20\n      add\n      swap2\n      pop\n      pop\n      mload(0x40)\n      dup1\n      swap2\n      sub\n      swap1\n      return\n        /* \"ICO AFFILIATE/Copy_staker3lv.sol\":5610:8700  function invest(address referrer, uint8 plan) public payable returns (bool){... */\n    tag_18:\n      tag_123\n      0x04\n      dup1\n      calldatasize\n      sub\n      0x40\n      dup2\n      lt\n      iszero\n      tag_124\n      jumpi\n      0x00\n      dup1\n      revert\n    tag_124:\n      dup2\n      add\n      swap1\n      dup1\n      dup1\n      calldataload\n      0xffffffffffffffffffffffffffffffffffffffff\n      and\n      swap1\n      0x20\n      add\n      swap1\n      swap3\n      swap2\n      swap1\n      dup1\n      calldataload\n      0xff\n      and\n      swap1\n      0x20\n      add\n      swap1\n      swap3\n      swap2\n      swap1\n      pop\n      pop\n      pop\n      tag_125\n      jump\t// in\n    tag_123:\n      mload(0x40)\n      dup1\n      dup3\n      iszero\n      iszero\n      dup2\n      mstore\n      0x20\n      add\n      swap2\n      pop\n      pop\n      mload(0x40)\n      dup1\n      swap2\n      sub\n      swap1\n      return\n        /* \"ICO AFFILIATE/Copy_staker3lv.sol\":9962:10446  function getResult(uint8 plan, uint256 deposit) public view returns (uint256 percent, uint256 profit, uint256 finish) {... */\n    tag_19:\n      callvalue\n      dup1\n      iszero\n      tag_126\n      jumpi\n      0x00\n      dup1\n      revert\n    tag_126:\n      pop\n      tag_127\n      0x04\n      dup1\n      calldatasize\n      sub\n      0x40\n      dup2\n      lt\n      iszero\n      tag_128\n      jumpi\n      0x00\n      dup1\n      revert\n    tag_128:\n      dup2\n      add\n      swap1\n      dup1\n      dup1\n      calldataload\n      0xff\n      and\n      swap1\n      0x20\n      add\n      swap1\n      swap3\n      swap2\n      swap1\n      dup1\n      calldataload\n      swap1\n      0x20\n      add\n      swap1\n      swap3\n      swap2\n      swap1\n      pop\n      pop\n      pop\n      tag_129\n      jump\t// in\n    tag_127:\n      mload(0x40)\n      dup1\n      dup5\n      dup2\n      mstore\n      0x20\n      add\n      dup4\n      dup2\n      mstore\n      0x20\n      add\n      dup3\n      dup2\n      mstore\n      0x20\n      add\n      swap4\n      pop\n      pop\n      pop\n      pop\n      mload(0x40)\n      dup1\n      swap2\n      sub\n      swap1\n      return\n        /* \"ICO AFFILIATE/Copy_staker3lv.sol\":1491:1539  uint256[] public REFERRAL_PERCENTS = [50, 25, 5] */\n    tag_20:\n      callvalue\n      dup1\n      iszero\n      tag_130\n      jumpi\n      0x00\n      dup1\n      revert\n    tag_130:\n      pop\n      tag_131\n      0x04\n      dup1\n      calldatasize\n      sub\n      0x20\n      dup2\n      lt\n      iszero\n      tag_132\n      jumpi\n      0x00\n      dup1\n      revert\n    tag_132:\n      dup2\n      add\n      swap1\n      dup1\n      dup1\n      calldataload\n      swap1\n      0x20\n      add\n      swap1\n      swap3\n      swap2\n      swap1\n      pop\n      pop\n      pop\n      tag_133\n      jump\t// in\n    tag_131:\n      mload(0x40)\n      dup1\n      dup3\n      dup2\n      mstore\n      0x20\n      add\n      swap2\n      pop\n      pop\n      mload(0x40)\n      dup1\n      swap2\n      sub\n      swap1\n      return\n        /* \"ICO AFFILIATE/Copy_staker3lv.sol\":14147:14260  function getICOTokenBalance() external view returns (uint) {... */\n    tag_21:\n      callvalue\n      dup1\n      iszero\n      tag_134\n      jumpi\n      0x00\n      dup1\n      revert\n    tag_134:\n      pop\n      tag_135\n      tag_136\n      jump\t// in\n    tag_135:\n      mload(0x40)\n      dup1\n      dup3\n      dup2\n      mstore\n      0x20\n      add\n      swap2\n      pop\n      pop\n      mload(0x40)\n      dup1\n      swap2\n      sub\n      swap1\n      return\n        /* \"ICO AFFILIATE/Copy_staker3lv.sol\":14314:14439  function investorBalanceOf(address _investor) external view returns (uint) {... */\n    tag_22:\n      callvalue\n      dup1\n      iszero\n      tag_137\n      jumpi\n      0x00\n      dup1\n      revert\n    tag_137:\n      pop\n      tag_138\n      0x04\n      dup1\n      calldatasize\n      sub\n      0x20\n      dup2\n      lt\n      iszero\n      tag_139\n      jumpi\n      0x00\n      dup1\n      revert\n    tag_139:\n      dup2\n      add\n      swap1\n      dup1\n      dup1\n      calldataload\n      0xffffffffffffffffffffffffffffffffffffffff\n      and\n      swap1\n      0x20\n      add\n      swap1\n      swap3\n      swap2\n      swap1\n      pop\n      pop\n      pop\n      tag_140\n      jump\t// in\n    tag_138:\n      mload(0x40)\n      dup1\n      dup3\n      dup2\n      mstore\n      0x20\n      add\n      swap2\n      pop\n      pop\n      mload(0x40)\n      dup1\n      swap2\n      sub\n      swap1\n      return\n        /* \"ICO AFFILIATE/Copy_staker3lv.sol\":1816:1844  uint256 public totalRefBonus */\n    tag_23:\n      callvalue\n      dup1\n      iszero\n      tag_141\n      jumpi\n      0x00\n      dup1\n      revert\n    tag_141:\n      pop\n      tag_142\n      tag_143\n      jump\t// in\n    tag_142:\n      mload(0x40)\n      dup1\n      dup3\n      dup2\n      mstore\n      0x20\n      add\n      swap2\n      pop\n      pop\n      mload(0x40)\n      dup1\n      swap2\n      sub\n      swap1\n      return\n        /* \"ICO AFFILIATE/Copy_staker3lv.sol\":12021:12179  function getUserReferralWithdrawn(address userAddress) public view returns(uint256) {... */\n    tag_24:\n      callvalue\n      dup1\n      iszero\n      tag_144\n      jumpi\n      0x00\n      dup1\n      revert\n    tag_144:\n      pop\n      tag_145\n      0x04\n      dup1\n      calldatasize\n      sub\n      0x20\n      dup2\n      lt\n      iszero\n      tag_146\n      jumpi\n      0x00\n      dup1\n      revert\n    tag_146:\n      dup2\n      add\n      swap1\n      dup1\n      dup1\n      calldataload\n      0xffffffffffffffffffffffffffffffffffffffff\n      and\n      swap1\n      0x20\n      add\n      swap1\n      swap3\n      swap2\n      swap1\n      pop\n      pop\n      pop\n      tag_147\n      jump\t// in\n    tag_145:\n      mload(0x40)\n      dup1\n      dup3\n      dup2\n      mstore\n      0x20\n      add\n      swap2\n      pop\n      pop\n      mload(0x40)\n      dup1\n      swap2\n      sub\n      swap1\n      return\n        /* \"ICO AFFILIATE/Copy_staker3lv.sol\":9457:9553  function getContractBalance() public view returns (uint256) {... */\n    tag_25:\n      callvalue\n      dup1\n      iszero\n      tag_148\n      jumpi\n      0x00\n      dup1\n      revert\n    tag_148:\n      pop\n      tag_149\n      tag_150\n      jump\t// in\n    tag_149:\n      mload(0x40)\n      dup1\n      dup3\n      dup2\n      mstore\n      0x20\n      add\n      swap2\n      pop\n      pop\n      mload(0x40)\n      dup1\n      swap2\n      sub\n      swap1\n      return\n        /* \"ICO AFFILIATE/Copy_staker3lv.sol\":2194:2216  uint public icoEndTime */\n    tag_26:\n      callvalue\n      dup1\n      iszero\n      tag_151\n      jumpi\n      0x00\n      dup1\n      revert\n    tag_151:\n      pop\n      tag_152\n      tag_153\n      jump\t// in\n    tag_152:\n      mload(0x40)\n      dup1\n      dup3\n      dup2\n      mstore\n      0x20\n      add\n      swap2\n      pop\n      pop\n      mload(0x40)\n      dup1\n      swap2\n      sub\n      swap1\n      return\n        /* \"ICO AFFILIATE/Copy_staker3lv.sol\":12479:12706  function getUserTotalDeposits(address userAddress) public view returns(uint256 amount) {... */\n    tag_27:\n      callvalue\n      dup1\n      iszero\n      tag_154\n      jumpi\n      0x00\n      dup1\n      revert\n    tag_154:\n      pop\n      tag_155\n      0x04\n      dup1\n      calldatasize\n      sub\n      0x20\n      dup2\n      lt\n      iszero\n      tag_156\n      jumpi\n      0x00\n      dup1\n      revert\n    tag_156:\n      dup2\n      add\n      swap1\n      dup1\n      dup1\n      calldataload\n      0xffffffffffffffffffffffffffffffffffffffff\n      and\n      swap1\n      0x20\n      add\n      swap1\n      swap3\n      swap2\n      swap1\n      pop\n      pop\n      pop\n      tag_157\n      jump\t// in\n    tag_155:\n      mload(0x40)\n      dup1\n      dup3\n      dup2\n      mstore\n      0x20\n      add\n      swap2\n      pop\n      pop\n      mload(0x40)\n      dup1\n      swap2\n      sub\n      swap1\n      return\n        /* \"ICO AFFILIATE/Copy_staker3lv.sol\":4746:4990  function startICO() external onlyAdmin {... */\n    tag_28:\n      callvalue\n      dup1\n      iszero\n      tag_158\n      jumpi\n      0x00\n      dup1\n      revert\n    tag_158:\n      pop\n      tag_159\n      tag_160\n      jump\t// in\n    tag_159:\n      stop\n        /* \"ICO AFFILIATE/Copy_staker3lv.sol\":1968:2005  uint public tokenPrice = 0.0001 ether */\n    tag_29:\n      callvalue\n      dup1\n      iszero\n      tag_161\n      jumpi\n      0x00\n      dup1\n      revert\n    tag_161:\n      pop\n      tag_162\n      tag_163\n      jump\t// in\n    tag_162:\n      mload(0x40)\n      dup1\n      dup3\n      dup2\n      mstore\n      0x20\n      add\n      swap2\n      pop\n      pop\n      mload(0x40)\n      dup1\n      swap2\n      sub\n      swap1\n      return\n        /* \"ICO AFFILIATE/Copy_staker3lv.sol\":1787:1813  uint256 public totalStaked */\n    tag_30:\n      callvalue\n      dup1\n      iszero\n      tag_164\n      jumpi\n      0x00\n      dup1\n      revert\n    tag_164:\n      pop\n      tag_165\n      tag_166\n      jump\t// in\n    tag_165:\n      mload(0x40)\n      dup1\n      dup3\n      dup2\n      mstore\n      0x20\n      add\n      swap2\n      pop\n      pop\n      mload(0x40)\n      dup1\n      swap2\n      sub\n      swap1\n      return\n        /* \"ICO AFFILIATE/Copy_staker3lv.sol\":2078:2117  uint public minInvestment = 0.001 ether */\n    tag_31:\n      callvalue\n      dup1\n      iszero\n      tag_167\n      jumpi\n      0x00\n      dup1\n      revert\n    tag_167:\n      pop\n      tag_168\n      tag_169\n      jump\t// in\n    tag_168:\n      mload(0x40)\n      dup1\n      dup3\n      dup2\n      mstore\n      0x20\n      add\n      swap2\n      pop\n      pop\n      mload(0x40)\n      dup1\n      swap2\n      sub\n      swap1\n      return\n        /* \"ICO AFFILIATE/Copy_staker3lv.sol\":5475:5568  function changeAdmin(address _newAdmin) external onlyAdmin {... */\n    tag_32:\n      callvalue\n      dup1\n      iszero\n      tag_170\n      jumpi\n      0x00\n      dup1\n      revert\n    tag_170:\n      pop\n      tag_171\n      0x04\n      dup1\n      calldatasize\n      sub\n      0x20\n      dup2\n      lt\n      iszero\n      tag_172\n      jumpi\n      0x00\n      dup1\n      revert\n    tag_172:\n      dup2\n      add\n      swap1\n      dup1\n      dup1\n      calldataload\n      0xffffffffffffffffffffffffffffffffffffffff\n      and\n      swap1\n      0x20\n      add\n      swap1\n      swap3\n      swap2\n      swap1\n      pop\n      pop\n      pop\n      tag_173\n      jump\t// in\n    tag_171:\n      stop\n        /* \"ICO AFFILIATE/Copy_staker3lv.sol\":5571:5607  function invest1() public payable {} */\n    tag_33:\n      tag_174\n      tag_63\n      jump\t// in\n    tag_174:\n      stop\n        /* \"ICO AFFILIATE/Copy_staker3lv.sol\":3067:3106  address payable public commissionWallet */\n    tag_34:\n      callvalue\n      dup1\n      iszero\n      tag_175\n      jumpi\n      0x00\n      dup1\n      revert\n    tag_175:\n      pop\n      tag_176\n      tag_177\n      jump\t// in\n    tag_176:\n      mload(0x40)\n      dup1\n      dup3\n      0xffffffffffffffffffffffffffffffffffffffff\n      and\n      dup2\n      mstore\n      0x20\n      add\n      swap2\n      pop\n      pop\n      mload(0x40)\n      dup1\n      swap2\n      sub\n      swap1\n      return\n        /* \"ICO AFFILIATE/Copy_staker3lv.sol\":1629:1672  uint256 constant public WITHDRAW_FEE = 1000 */\n    tag_35:\n      callvalue\n      dup1\n      iszero\n      tag_178\n      jumpi\n      0x00\n      dup1\n      revert\n    tag_178:\n      pop\n      tag_179\n      tag_180\n      jump\t// in\n    tag_179:\n      mload(0x40)\n      dup1\n      dup3\n      dup2\n      mstore\n      0x20\n      add\n      swap2\n      pop\n      pop\n      mload(0x40)\n      dup1\n      swap2\n      sub\n      swap1\n      return\n        /* \"ICO AFFILIATE/Copy_staker3lv.sol\":5149:5303  function resumeICO() external onlyAdmin {... */\n    tag_36:\n      callvalue\n      dup1\n      iszero\n      tag_181\n      jumpi\n      0x00\n      dup1\n      revert\n    tag_181:\n      pop\n      tag_182\n      tag_183\n      jump\t// in\n    tag_182:\n      stop\n        /* \"ICO AFFILIATE/Copy_staker3lv.sol\":9707:9959  function getPercent(uint8 plan) public view returns (uint256) {... */\n    tag_37:\n      callvalue\n      dup1\n      iszero\n      tag_184\n      jumpi\n      0x00\n      dup1\n      revert\n    tag_184:\n      pop\n      tag_185\n      0x04\n      dup1\n      calldatasize\n      sub\n      0x20\n      dup2\n      lt\n      iszero\n      tag_186\n      jumpi\n      0x00\n      dup1\n      revert\n    tag_186:\n      dup2\n      add\n      swap1\n      dup1\n      dup1\n      calldataload\n      0xff\n      and\n      swap1\n      0x20\n      add\n      swap1\n      swap3\n      swap2\n      swap1\n      pop\n      pop\n      pop\n      tag_187\n      jump\t// in\n    tag_185:\n      mload(0x40)\n      dup1\n      dup3\n      dup2\n      mstore\n      0x20\n      add\n      swap2\n      pop\n      pop\n      mload(0x40)\n      dup1\n      swap2\n      sub\n      swap1\n      return\n        /* \"ICO AFFILIATE/Copy_staker3lv.sol\":2164:2188  uint public icoStartTime */\n    tag_38:\n      callvalue\n      dup1\n      iszero\n      tag_188\n      jumpi\n      0x00\n      dup1\n      revert\n    tag_188:\n      pop\n      tag_189\n      tag_190\n      jump\t// in\n    tag_189:\n      mload(0x40)\n      dup1\n      dup3\n      dup2\n      mstore\n      0x20\n      add\n      swap2\n      pop\n      pop\n      mload(0x40)\n      dup1\n      swap2\n      sub\n      swap1\n      return\n        /* \"ICO AFFILIATE/Copy_staker3lv.sol\":12344:12476  function getUserAmountOfDeposits(address userAddress) public view returns(uint256) {... */\n    tag_39:\n      callvalue\n      dup1\n      iszero\n      tag_191\n      jumpi\n      0x00\n      dup1\n      revert\n    tag_191:\n      pop\n      tag_192\n      0x04\n      dup1\n      calldatasize\n      sub\n      0x20\n      dup2\n      lt\n      iszero\n      tag_193\n      jumpi\n      0x00\n      dup1\n      revert\n    tag_193:\n      dup2\n      add\n      swap1\n      dup1\n      dup1\n      calldataload\n      0xffffffffffffffffffffffffffffffffffffffff\n      and\n      swap1\n      0x20\n      add\n      swap1\n      swap3\n      swap2\n      swap1\n      pop\n      pop\n      pop\n      tag_194\n      jump\t// in\n    tag_192:\n      mload(0x40)\n      dup1\n      dup3\n      dup2\n      mstore\n      0x20\n      add\n      swap2\n      pop\n      pop\n      mload(0x40)\n      dup1\n      swap2\n      sub\n      swap1\n      return\n        /* \"ICO AFFILIATE/Copy_staker3lv.sol\":1873:1905  address payable public ICOWallet */\n    tag_40:\n      callvalue\n      dup1\n      iszero\n      tag_195\n      jumpi\n      0x00\n      dup1\n      revert\n    tag_195:\n      pop\n      tag_196\n      tag_197\n      jump\t// in\n    tag_196:\n      mload(0x40)\n      dup1\n      dup3\n      0xffffffffffffffffffffffffffffffffffffffff\n      and\n      dup2\n      mstore\n      0x20\n      add\n      swap2\n      pop\n      pop\n      mload(0x40)\n      dup1\n      swap2\n      sub\n      swap1\n      return\n        /* \"ICO AFFILIATE/Copy_staker3lv.sol\":9556:9704  function getPlanInfo(uint8 plan) public view returns(uint256 time, uint256 percent) {... */\n    tag_41:\n      callvalue\n      dup1\n      iszero\n      tag_198\n      jumpi\n      0x00\n      dup1\n      revert\n    tag_198:\n      pop\n      tag_199\n      0x04\n      dup1\n      calldatasize\n      sub\n      0x20\n      dup2\n      lt\n      iszero\n      tag_200\n      jumpi\n      0x00\n      dup1\n      revert\n    tag_200:\n      dup2\n      add\n      swap1\n      dup1\n      dup1\n      calldataload\n      0xff\n      and\n      swap1\n      0x20\n      add\n      swap1\n      swap3\n      swap2\n      swap1\n      pop\n      pop\n      pop\n      tag_201\n      jump\t// in\n    tag_199:\n      mload(0x40)\n      dup1\n      dup4\n      dup2\n      mstore\n      0x20\n      add\n      dup3\n      dup2\n      mstore\n      0x20\n      add\n      swap3\n      pop\n      pop\n      pop\n      mload(0x40)\n      dup1\n      swap2\n      sub\n      swap1\n      return\n        /* \"ICO AFFILIATE/Copy_staker3lv.sol\":2393:2414  State public ICOState */\n    tag_42:\n      callvalue\n      dup1\n      iszero\n      tag_202\n      jumpi\n      0x00\n      dup1\n      revert\n    tag_202:\n      pop\n      tag_203\n      tag_204\n      jump\t// in\n    tag_203:\n      mload(0x40)\n      dup1\n      dup3\n      0x03\n      dup2\n      gt\n      iszero\n      tag_205\n      jumpi\n      invalid\n    tag_205:\n      dup2\n      mstore\n      0x20\n      add\n      swap2\n      pop\n      pop\n      mload(0x40)\n      dup1\n      swap2\n      sub\n      swap1\n      return\n        /* \"ICO AFFILIATE/Copy_staker3lv.sol\":12709:13171  function getUserDepositInfo(address userAddress, uint256 index) public view returns(uint8 plan, uint256 percent, uint256 amount, uint256 profit, uint256 start, uint256 finish) {... */\n    tag_43:\n      callvalue\n      dup1\n      iszero\n      tag_206\n      jumpi\n      0x00\n      dup1\n      revert\n    tag_206:\n      pop\n      tag_207\n      0x04\n      dup1\n      calldatasize\n      sub\n      0x40\n      dup2\n      lt\n      iszero\n      tag_208\n      jumpi\n      0x00\n      dup1\n      revert\n    tag_208:\n      dup2\n      add\n      swap1\n      dup1\n      dup1\n      calldataload\n      0xffffffffffffffffffffffffffffffffffffffff\n      and\n      swap1\n      0x20\n      add\n      swap1\n      swap3\n      swap2\n      swap1\n      dup1\n      calldataload\n      swap1\n      0x20\n      add\n      swap1\n      swap3\n      swap2\n      swap1\n      pop\n      pop\n      pop\n      tag_209\n      jump\t// in\n    tag_207:\n      mload(0x40)\n      dup1\n      dup8\n      0xff\n      and\n      dup2\n      mstore\n      0x20\n      add\n      dup7\n      dup2\n      mstore\n      0x20\n      add\n      dup6\n      dup2\n      mstore\n      0x20\n      add\n      dup5\n      dup2\n      mstore\n      0x20\n      add\n      dup4\n      dup2\n      mstore\n      0x20\n      add\n      dup3\n      dup2\n      mstore\n      0x20\n      add\n      swap7\n      pop\n      pop\n      pop\n      pop\n      pop\n      pop\n      pop\n      mload(0x40)\n      dup1\n      swap2\n      sub\n      swap1\n      return\n        /* \"ICO AFFILIATE/Copy_staker3lv.sol\":3040:3064  uint256 public startUNIX */\n    tag_44:\n      callvalue\n      dup1\n      iszero\n      tag_210\n      jumpi\n      0x00\n      dup1\n      revert\n    tag_210:\n      pop\n      tag_211\n      tag_212\n      jump\t// in\n    tag_211:\n      mload(0x40)\n      dup1\n      dup3\n      dup2\n      mstore\n      0x20\n      add\n      swap2\n      pop\n      pop\n      mload(0x40)\n      dup1\n      swap2\n      sub\n      swap1\n      return\n        /* \"ICO AFFILIATE/Copy_staker3lv.sol\":2048:2072  uint public raisedAmount */\n    tag_45:\n      callvalue\n      dup1\n      iszero\n      tag_213\n      jumpi\n      0x00\n      dup1\n      revert\n    tag_213:\n      pop\n      tag_214\n      tag_215\n      jump\t// in\n    tag_214:\n      mload(0x40)\n      dup1\n      dup3\n      dup2\n      mstore\n      0x20\n      add\n      swap2\n      pop\n      pop\n      mload(0x40)\n      dup1\n      swap2\n      sub\n      swap1\n      return\n        /* \"ICO AFFILIATE/Copy_staker3lv.sol\":11317:11438  function getUserCheckpoint(address userAddress) public view returns(uint256) {... */\n    tag_46:\n      callvalue\n      dup1\n      iszero\n      tag_216\n      jumpi\n      0x00\n      dup1\n      revert\n    tag_216:\n      pop\n      tag_217\n      0x04\n      dup1\n      calldatasize\n      sub\n      0x20\n      dup2\n      lt\n      iszero\n      tag_218\n      jumpi\n      0x00\n      dup1\n      revert\n    tag_218:\n      dup2\n      add\n      swap1\n      dup1\n      dup1\n      calldataload\n      0xffffffffffffffffffffffffffffffffffffffff\n      and\n      swap1\n      0x20\n      add\n      swap1\n      swap3\n      swap2\n      swap1\n      pop\n      pop\n      pop\n      tag_219\n      jump\t// in\n    tag_217:\n      mload(0x40)\n      dup1\n      dup3\n      dup2\n      mstore\n      0x20\n      add\n      swap2\n      pop\n      pop\n      mload(0x40)\n      dup1\n      swap2\n      sub\n      swap1\n      return\n        /* \"ICO AFFILIATE/Copy_staker3lv.sol\":13814:14102  function endIco() public {... */\n    tag_47:\n      callvalue\n      dup1\n      iszero\n      tag_220\n      jumpi\n      0x00\n      dup1\n      revert\n    tag_220:\n      pop\n      tag_221\n      tag_222\n      jump\t// in\n    tag_221:\n      stop\n        /* \"ICO AFFILIATE/Copy_staker3lv.sol\":11767:11886  function getUserReferralBonus(address userAddress) public view returns(uint256) {... */\n    tag_48:\n      callvalue\n      dup1\n      iszero\n      tag_223\n      jumpi\n      0x00\n      dup1\n      revert\n    tag_223:\n      pop\n      tag_224\n      0x04\n      dup1\n      calldatasize\n      sub\n      0x20\n      dup2\n      lt\n      iszero\n      tag_225\n      jumpi\n      0x00\n      dup1\n      revert\n    tag_225:\n      dup2\n      add\n      swap1\n      dup1\n      dup1\n      calldataload\n      0xffffffffffffffffffffffffffffffffffffffff\n      and\n      swap1\n      0x20\n      add\n      swap1\n      swap3\n      swap2\n      swap1\n      pop\n      pop\n      pop\n      tag_226\n      jump\t// in\n    tag_224:\n      mload(0x40)\n      dup1\n      dup3\n      dup2\n      mstore\n      0x20\n      add\n      swap2\n      pop\n      pop\n      mload(0x40)\n      dup1\n      swap2\n      sub\n      swap1\n      return\n        /* \"ICO AFFILIATE/Copy_staker3lv.sol\":1847:1867  address public admin */\n    tag_49:\n      callvalue\n      dup1\n      iszero\n      tag_227\n      jumpi\n      0x00\n      dup1\n      revert\n    tag_227:\n      pop\n      tag_228\n      tag_229\n      jump\t// in\n    tag_228:\n      mload(0x40)\n      dup1\n      dup3\n      0xffffffffffffffffffffffffffffffffffffffff\n      and\n      dup2\n      mstore\n      0x20\n      add\n      swap2\n      pop\n      pop\n      mload(0x40)\n      dup1\n      swap2\n      sub\n      swap1\n      return\n        /* \"ICO AFFILIATE/Copy_staker3lv.sol\":2011:2042  uint public hardCap = 500 ether */\n    tag_50:\n      callvalue\n      dup1\n      iszero\n      tag_230\n      jumpi\n      0x00\n      dup1\n      revert\n    tag_230:\n      pop\n      tag_231\n      tag_232\n      jump\t// in\n    tag_231:\n      mload(0x40)\n      dup1\n      dup3\n      dup2\n      mstore\n      0x20\n      add\n      swap2\n      pop\n      pop\n      mload(0x40)\n      dup1\n      swap2\n      sub\n      swap1\n      return\n        /* \"ICO AFFILIATE/Copy_staker3lv.sol\":1924:1943  IERC20 public token */\n    tag_51:\n      callvalue\n      dup1\n      iszero\n      tag_233\n      jumpi\n      0x00\n      dup1\n      revert\n    tag_233:\n      pop\n      tag_234\n      tag_235\n      jump\t// in\n    tag_234:\n      mload(0x40)\n      dup1\n      dup3\n      0xffffffffffffffffffffffffffffffffffffffff\n      and\n      dup2\n      mstore\n      0x20\n      add\n      swap2\n      pop\n      pop\n      mload(0x40)\n      dup1\n      swap2\n      sub\n      swap1\n      return\n        /* \"ICO AFFILIATE/Copy_staker3lv.sol\":5571:5607  function invest1() public payable {} */\n    tag_63:\n      jump\t// out\n        /* \"ICO AFFILIATE/Copy_staker3lv.sol\":2123:2158  uint public maxInvestment = 3 ether */\n    tag_69:\n      sload(0x0a)\n      dup2\n      jump\t// out\n        /* \"ICO AFFILIATE/Copy_staker3lv.sol\":5333:5450  function changeICOWallet(address payable _newICOWallet) external onlyAdmin {... */\n    tag_73:\n        /* \"ICO AFFILIATE/Copy_staker3lv.sol\":4095:4100  admin */\n      0x03\n      0x00\n      swap1\n      sload\n      swap1\n      0x0100\n      exp\n      swap1\n      div\n      0xffffffffffffffffffffffffffffffffffffffff\n      and\n        /* \"ICO AFFILIATE/Copy_staker3lv.sol\":4081:4100  msg.sender == admin */\n      0xffffffffffffffffffffffffffffffffffffffff\n      and\n        /* \"ICO AFFILIATE/Copy_staker3lv.sol\":4081:4091  msg.sender */\n      caller\n        /* \"ICO AFFILIATE/Copy_staker3lv.sol\":4081:4100  msg.sender == admin */\n      0xffffffffffffffffffffffffffffffffffffffff\n      and\n      eq\n        /* \"ICO AFFILIATE/Copy_staker3lv.sol\":4073:4124  require(msg.sender == admin, \"Admin Only function\") */\n      tag_238\n      jumpi\n      mload(0x40)\n      0x08c379a000000000000000000000000000000000000000000000000000000000\n      dup2\n      mstore\n      0x04\n      add\n      dup1\n      dup1\n      0x20\n      add\n      dup3\n      dup2\n      sub\n      dup3\n      mstore\n      0x13\n      dup2\n      mstore\n      0x20\n      add\n      dup1\n      0x41646d696e204f6e6c792066756e6374696f6e00000000000000000000000000\n      dup2\n      mstore\n      pop\n      0x20\n      add\n      swap2\n      pop\n      pop\n      mload(0x40)\n      dup1\n      swap2\n      sub\n      swap1\n      revert\n    tag_238:\n        /* \"ICO AFFILIATE/Copy_staker3lv.sol\":5430:5443  _newICOWallet */\n      dup1\n        /* \"ICO AFFILIATE/Copy_staker3lv.sol\":5418:5427  ICOWallet */\n      0x04\n      0x00\n        /* \"ICO AFFILIATE/Copy_staker3lv.sol\":5418:5443  ICOWallet = _newICOWallet */\n      0x0100\n      exp\n      dup2\n      sload\n      dup2\n      0xffffffffffffffffffffffffffffffffffffffff\n      mul\n      not\n      and\n      swap1\n      dup4\n      0xffffffffffffffffffffffffffffffffffffffff\n      and\n      mul\n      or\n      swap1\n      sstore\n      pop\n        /* \"ICO AFFILIATE/Copy_staker3lv.sol\":5333:5450  function changeICOWallet(address payable _newICOWallet) external onlyAdmin {... */\n      pop\n      jump\t// out\n        /* \"ICO AFFILIATE/Copy_staker3lv.sol\":1691:1738  uint256 constant public PERCENTS_DIVIDER = 1000 */\n    tag_76:\n        /* \"ICO AFFILIATE/Copy_staker3lv.sol\":1734:1738  1000 */\n      0x03e8\n        /* \"ICO AFFILIATE/Copy_staker3lv.sol\":1691:1738  uint256 constant public PERCENTS_DIVIDER = 1000 */\n      dup2\n      jump\t// out\n        /* \"ICO AFFILIATE/Copy_staker3lv.sol\":11561:11764  function getUserDownlineCount(address userAddress) public view returns(uint256, uint256, uint256) {... */\n    tag_80:\n        /* \"ICO AFFILIATE/Copy_staker3lv.sol\":11632:11639  uint256 */\n      0x00\n        /* \"ICO AFFILIATE/Copy_staker3lv.sol\":11641:11648  uint256 */\n      dup1\n        /* \"ICO AFFILIATE/Copy_staker3lv.sol\":11650:11657  uint256 */\n      0x00\n        /* \"ICO AFFILIATE/Copy_staker3lv.sol\":11671:11676  users */\n      0x10\n        /* \"ICO AFFILIATE/Copy_staker3lv.sol\":11671:11689  users[userAddress] */\n      0x00\n        /* \"ICO AFFILIATE/Copy_staker3lv.sol\":11677:11688  userAddress */\n      dup6\n        /* \"ICO AFFILIATE/Copy_staker3lv.sol\":11671:11689  users[userAddress] */\n      0xffffffffffffffffffffffffffffffffffffffff\n      and\n      0xffffffffffffffffffffffffffffffffffffffff\n      and\n      dup2\n      mstore\n      0x20\n      add\n      swap1\n      dup2\n      mstore\n      0x20\n      add\n      0x00\n      keccak256\n        /* \"ICO AFFILIATE/Copy_staker3lv.sol\":11671:11696  users[userAddress].levels */\n      0x03\n      add\n        /* \"ICO AFFILIATE/Copy_staker3lv.sol\":11697:11698  0 */\n      0x00\n        /* \"ICO AFFILIATE/Copy_staker3lv.sol\":11671:11699  users[userAddress].levels[0] */\n      0x03\n      dup2\n      lt\n      tag_241\n      jumpi\n      invalid\n    tag_241:\n      add\n      sload\n        /* \"ICO AFFILIATE/Copy_staker3lv.sol\":11701:11706  users */\n      0x10\n        /* \"ICO AFFILIATE/Copy_staker3lv.sol\":11701:11719  users[userAddress] */\n      0x00\n        /* \"ICO AFFILIATE/Copy_staker3lv.sol\":11707:11718  userAddress */\n      dup7\n        /* \"ICO AFFILIATE/Copy_staker3lv.sol\":11701:11719  users[userAddress] */\n      0xffffffffffffffffffffffffffffffffffffffff\n      and\n      0xffffffffffffffffffffffffffffffffffffffff\n      and\n      dup2\n      mstore\n      0x20\n      add\n      swap1\n      dup2\n      mstore\n      0x20\n      add\n      0x00\n      keccak256\n        /* \"ICO AFFILIATE/Copy_staker3lv.sol\":11701:11726  users[userAddress].levels */\n      0x03\n      add\n        /* \"ICO AFFILIATE/Copy_staker3lv.sol\":11727:11728  1 */\n      0x01\n        /* \"ICO AFFILIATE/Copy_staker3lv.sol\":11701:11729  users[userAddress].levels[1] */\n      0x03\n      dup2\n      lt\n      tag_243\n      jumpi\n      invalid\n    tag_243:\n      add\n      sload\n        /* \"ICO AFFILIATE/Copy_staker3lv.sol\":11731:11736  users */\n      0x10\n        /* \"ICO AFFILIATE/Copy_staker3lv.sol\":11731:11749  users[userAddress] */\n      0x00\n        /* \"ICO AFFILIATE/Copy_staker3lv.sol\":11737:11748  userAddress */\n      dup8\n        /* \"ICO AFFILIATE/Copy_staker3lv.sol\":11731:11749  users[userAddress] */\n      0xffffffffffffffffffffffffffffffffffffffff\n      and\n      0xffffffffffffffffffffffffffffffffffffffff\n      and\n      dup2\n      mstore\n      0x20\n      add\n      swap1\n      dup2\n      mstore\n      0x20\n      add\n      0x00\n      keccak256\n        /* \"ICO AFFILIATE/Copy_staker3lv.sol\":11731:11756  users[userAddress].levels */\n      0x03\n      add\n        /* \"ICO AFFILIATE/Copy_staker3lv.sol\":11757:11758  2 */\n      0x02\n        /* \"ICO AFFILIATE/Copy_staker3lv.sol\":11731:11759  users[userAddress].levels[2] */\n      0x03\n      dup2\n      lt\n      tag_245\n      jumpi\n      invalid\n    tag_245:\n      add\n      sload\n        /* \"ICO AFFILIATE/Copy_staker3lv.sol\":11663:11760  return (users[userAddress].levels[0], users[userAddress].levels[1], users[userAddress].levels[2]) */\n      swap3\n      pop\n      swap3\n      pop\n      swap3\n      pop\n        /* \"ICO AFFILIATE/Copy_staker3lv.sol\":11561:11764  function getUserDownlineCount(address userAddress) public view returns(uint256, uint256, uint256) {... */\n      swap2\n      swap4\n      swap1\n      swap3\n      pop\n      jump\t// out\n        /* \"ICO AFFILIATE/Copy_staker3lv.sol\":10449:11314  function getUserDividends(address userAddress) public view returns (uint256) {... */\n    tag_84:\n        /* \"ICO AFFILIATE/Copy_staker3lv.sol\":10517:10524  uint256 */\n      0x00\n        /* \"ICO AFFILIATE/Copy_staker3lv.sol\":10530:10547  User storage user */\n      dup1\n        /* \"ICO AFFILIATE/Copy_staker3lv.sol\":10550:10555  users */\n      0x10\n        /* \"ICO AFFILIATE/Copy_staker3lv.sol\":10550:10568  users[userAddress] */\n      0x00\n        /* \"ICO AFFILIATE/Copy_staker3lv.sol\":10556:10567  userAddress */\n      dup5\n        /* \"ICO AFFILIATE/Copy_staker3lv.sol\":10550:10568  users[userAddress] */\n      0xffffffffffffffffffffffffffffffffffffffff\n      and\n      0xffffffffffffffffffffffffffffffffffffffff\n      and\n      dup2\n      mstore\n      0x20\n      add\n      swap1\n      dup2\n      mstore\n      0x20\n      add\n      0x00\n      keccak256\n        /* \"ICO AFFILIATE/Copy_staker3lv.sol\":10530:10568  User storage user = users[userAddress] */\n      swap1\n      pop\n        /* \"ICO AFFILIATE/Copy_staker3lv.sol\":10573:10592  uint256 totalAmount */\n      0x00\n        /* \"ICO AFFILIATE/Copy_staker3lv.sol\":10602:10611  uint256 i */\n      dup1\n        /* \"ICO AFFILIATE/Copy_staker3lv.sol\":10614:10615  0 */\n      0x00\n        /* \"ICO AFFILIATE/Copy_staker3lv.sol\":10602:10615  uint256 i = 0 */\n      swap1\n      pop\n        /* \"ICO AFFILIATE/Copy_staker3lv.sol\":10597:11288  for (uint256 i = 0; i < user.deposits.length; i++) {... */\n    tag_248:\n        /* \"ICO AFFILIATE/Copy_staker3lv.sol\":10621:10625  user */\n      dup3\n        /* \"ICO AFFILIATE/Copy_staker3lv.sol\":10621:10634  user.deposits */\n      0x00\n      add\n        /* \"ICO AFFILIATE/Copy_staker3lv.sol\":10621:10641  user.deposits.length */\n      dup1\n      sload\n      swap1\n      pop\n        /* \"ICO AFFILIATE/Copy_staker3lv.sol\":10617:10618  i */\n      dup2\n        /* \"ICO AFFILIATE/Copy_staker3lv.sol\":10617:10641  i < user.deposits.length */\n      lt\n        /* \"ICO AFFILIATE/Copy_staker3lv.sol\":10597:11288  for (uint256 i = 0; i < user.deposits.length; i++) {... */\n      iszero\n      tag_249\n      jumpi\n        /* \"ICO AFFILIATE/Copy_staker3lv.sol\":10675:10679  user */\n      dup3\n        /* \"ICO AFFILIATE/Copy_staker3lv.sol\":10675:10688  user.deposits */\n      0x00\n      add\n        /* \"ICO AFFILIATE/Copy_staker3lv.sol\":10689:10690  i */\n      dup2\n        /* \"ICO AFFILIATE/Copy_staker3lv.sol\":10675:10691  user.deposits[i] */\n      dup2\n      sload\n      dup2\n      lt\n      tag_251\n      jumpi\n      invalid\n    tag_251:\n      swap1\n      0x00\n      mstore\n      keccak256(0x00, 0x20)\n      swap1\n      0x06\n      mul\n      add\n        /* \"ICO AFFILIATE/Copy_staker3lv.sol\":10675:10698  user.deposits[i].finish */\n      0x05\n      add\n      sload\n        /* \"ICO AFFILIATE/Copy_staker3lv.sol\":10657:10661  user */\n      dup4\n        /* \"ICO AFFILIATE/Copy_staker3lv.sol\":10657:10672  user.checkpoint */\n      0x01\n      add\n      sload\n        /* \"ICO AFFILIATE/Copy_staker3lv.sol\":10657:10698  user.checkpoint < user.deposits[i].finish */\n      lt\n        /* \"ICO AFFILIATE/Copy_staker3lv.sol\":10653:11284  if (user.checkpoint < user.deposits[i].finish) {... */\n      iszero\n      tag_253\n      jumpi\n        /* \"ICO AFFILIATE/Copy_staker3lv.sol\":10734:10735  3 */\n      0x03\n        /* \"ICO AFFILIATE/Copy_staker3lv.sol\":10710:10714  user */\n      dup4\n        /* \"ICO AFFILIATE/Copy_staker3lv.sol\":10710:10723  user.deposits */\n      0x00\n      add\n        /* \"ICO AFFILIATE/Copy_staker3lv.sol\":10724:10725  i */\n      dup3\n        /* \"ICO AFFILIATE/Copy_staker3lv.sol\":10710:10726  user.deposits[i] */\n      dup2\n      sload\n      dup2\n      lt\n      tag_254\n      jumpi\n      invalid\n    tag_254:\n      swap1\n      0x00\n      mstore\n      keccak256(0x00, 0x20)\n      swap1\n      0x06\n      mul\n      add\n        /* \"ICO AFFILIATE/Copy_staker3lv.sol\":10710:10731  user.deposits[i].plan */\n      0x00\n      add\n      0x00\n      swap1\n      sload\n      swap1\n      0x0100\n      exp\n      swap1\n      div\n      0xff\n      and\n        /* \"ICO AFFILIATE/Copy_staker3lv.sol\":10710:10735  user.deposits[i].plan < 3 */\n      0xff\n      and\n      lt\n        /* \"ICO AFFILIATE/Copy_staker3lv.sol\":10706:11279  if (user.deposits[i].plan < 3) {... */\n      iszero\n      tag_256\n      jumpi\n        /* \"ICO AFFILIATE/Copy_staker3lv.sol\":10744:10757  uint256 share */\n      0x00\n        /* \"ICO AFFILIATE/Copy_staker3lv.sol\":10760:10835  user.deposits[i].amount.mul(user.deposits[i].percent).div(PERCENTS_DIVIDER) */\n      tag_257\n        /* \"ICO AFFILIATE/Copy_staker3lv.sol\":1734:1738  1000 */\n      0x03e8\n        /* \"ICO AFFILIATE/Copy_staker3lv.sol\":10760:10813  user.deposits[i].amount.mul(user.deposits[i].percent) */\n      tag_258\n        /* \"ICO AFFILIATE/Copy_staker3lv.sol\":10788:10792  user */\n      dup7\n        /* \"ICO AFFILIATE/Copy_staker3lv.sol\":10788:10801  user.deposits */\n      0x00\n      add\n        /* \"ICO AFFILIATE/Copy_staker3lv.sol\":10802:10803  i */\n      dup6\n        /* \"ICO AFFILIATE/Copy_staker3lv.sol\":10788:10804  user.deposits[i] */\n      dup2\n      sload\n      dup2\n      lt\n      tag_259\n      jumpi\n      invalid\n    tag_259:\n      swap1\n      0x00\n      mstore\n      keccak256(0x00, 0x20)\n      swap1\n      0x06\n      mul\n      add\n        /* \"ICO AFFILIATE/Copy_staker3lv.sol\":10788:10812  user.deposits[i].percent */\n      0x01\n      add\n      sload\n        /* \"ICO AFFILIATE/Copy_staker3lv.sol\":10760:10764  user */\n      dup8\n        /* \"ICO AFFILIATE/Copy_staker3lv.sol\":10760:10773  user.deposits */\n      0x00\n      add\n        /* \"ICO AFFILIATE/Copy_staker3lv.sol\":10774:10775  i */\n      dup7\n        /* \"ICO AFFILIATE/Copy_staker3lv.sol\":10760:10776  user.deposits[i] */\n      dup2\n      sload\n      dup2\n      lt\n      tag_261\n      jumpi\n      invalid\n    tag_261:\n      swap1\n      0x00\n      mstore\n      keccak256(0x00, 0x20)\n      swap1\n      0x06\n      mul\n      add\n        /* \"ICO AFFILIATE/Copy_staker3lv.sol\":10760:10783  user.deposits[i].amount */\n      0x02\n      add\n      sload\n        /* \"ICO AFFILIATE/Copy_staker3lv.sol\":10760:10787  user.deposits[i].amount.mul */\n      tag_263\n      swap1\n        /* \"ICO AFFILIATE/Copy_staker3lv.sol\":10760:10813  user.deposits[i].amount.mul(user.deposits[i].percent) */\n      swap2\n      swap1\n      0xffffffff\n      and\n      jump\t// in\n    tag_258:\n        /* \"ICO AFFILIATE/Copy_staker3lv.sol\":10760:10817  user.deposits[i].amount.mul(user.deposits[i].percent).div */\n      tag_264\n      swap1\n        /* \"ICO AFFILIATE/Copy_staker3lv.sol\":10760:10835  user.deposits[i].amount.mul(user.deposits[i].percent).div(PERCENTS_DIVIDER) */\n      swap2\n      swap1\n      0xffffffff\n      and\n      jump\t// in\n    tag_257:\n        /* \"ICO AFFILIATE/Copy_staker3lv.sol\":10744:10835  uint256 share = user.deposits[i].amount.mul(user.deposits[i].percent).div(PERCENTS_DIVIDER) */\n      swap1\n      pop\n        /* \"ICO AFFILIATE/Copy_staker3lv.sol\":10842:10854  uint256 from */\n      0x00\n        /* \"ICO AFFILIATE/Copy_staker3lv.sol\":10882:10886  user */\n      dup5\n        /* \"ICO AFFILIATE/Copy_staker3lv.sol\":10882:10897  user.checkpoint */\n      0x01\n      add\n      sload\n        /* \"ICO AFFILIATE/Copy_staker3lv.sol\":10857:10861  user */\n      dup6\n        /* \"ICO AFFILIATE/Copy_staker3lv.sol\":10857:10870  user.deposits */\n      0x00\n      add\n        /* \"ICO AFFILIATE/Copy_staker3lv.sol\":10871:10872  i */\n      dup5\n        /* \"ICO AFFILIATE/Copy_staker3lv.sol\":10857:10873  user.deposits[i] */\n      dup2\n      sload\n      dup2\n      lt\n      tag_265\n      jumpi\n      invalid\n    tag_265:\n      swap1\n      0x00\n      mstore\n      keccak256(0x00, 0x20)\n      swap1\n      0x06\n      mul\n      add\n        /* \"ICO AFFILIATE/Copy_staker3lv.sol\":10857:10879  user.deposits[i].start */\n      0x04\n      add\n      sload\n        /* \"ICO AFFILIATE/Copy_staker3lv.sol\":10857:10897  user.deposits[i].start > user.checkpoint */\n      gt\n        /* \"ICO AFFILIATE/Copy_staker3lv.sol\":10857:10940  user.deposits[i].start > user.checkpoint ? user.deposits[i].start : user.checkpoint */\n      tag_267\n      jumpi\n        /* \"ICO AFFILIATE/Copy_staker3lv.sol\":10925:10929  user */\n      dup5\n        /* \"ICO AFFILIATE/Copy_staker3lv.sol\":10925:10940  user.checkpoint */\n      0x01\n      add\n      sload\n        /* \"ICO AFFILIATE/Copy_staker3lv.sol\":10857:10940  user.deposits[i].start > user.checkpoint ? user.deposits[i].start : user.checkpoint */\n      jump(tag_268)\n    tag_267:\n        /* \"ICO AFFILIATE/Copy_staker3lv.sol\":10900:10904  user */\n      dup5\n        /* \"ICO AFFILIATE/Copy_staker3lv.sol\":10900:10913  user.deposits */\n      0x00\n      add\n        /* \"ICO AFFILIATE/Copy_staker3lv.sol\":10914:10915  i */\n      dup4\n        /* \"ICO AFFILIATE/Copy_staker3lv.sol\":10900:10916  user.deposits[i] */\n      dup2\n      sload\n      dup2\n      lt\n      tag_269\n      jumpi\n      invalid\n    tag_269:\n      swap1\n      0x00\n      mstore\n      keccak256(0x00, 0x20)\n      swap1\n      0x06\n      mul\n      add\n        /* \"ICO AFFILIATE/Copy_staker3lv.sol\":10900:10922  user.deposits[i].start */\n      0x04\n      add\n      sload\n        /* \"ICO AFFILIATE/Copy_staker3lv.sol\":10857:10940  user.deposits[i].start > user.checkpoint ? user.deposits[i].start : user.checkpoint */\n    tag_268:\n        /* \"ICO AFFILIATE/Copy_staker3lv.sol\":10842:10940  uint256 from = user.deposits[i].start > user.checkpoint ? user.deposits[i].start : user.checkpoint */\n      swap1\n      pop\n        /* \"ICO AFFILIATE/Copy_staker3lv.sol\":10947:10957  uint256 to */\n      0x00\n        /* \"ICO AFFILIATE/Copy_staker3lv.sol\":10986:11001  block.timestamp */\n      timestamp\n        /* \"ICO AFFILIATE/Copy_staker3lv.sol\":10960:10964  user */\n      dup7\n        /* \"ICO AFFILIATE/Copy_staker3lv.sol\":10960:10973  user.deposits */\n      0x00\n      add\n        /* \"ICO AFFILIATE/Copy_staker3lv.sol\":10974:10975  i */\n      dup6\n        /* \"ICO AFFILIATE/Copy_staker3lv.sol\":10960:10976  user.deposits[i] */\n      dup2\n      sload\n      dup2\n      lt\n      tag_271\n      jumpi\n      invalid\n    tag_271:\n      swap1\n      0x00\n      mstore\n      keccak256(0x00, 0x20)\n      swap1\n      0x06\n      mul\n      add\n        /* \"ICO AFFILIATE/Copy_staker3lv.sol\":10960:10983  user.deposits[i].finish */\n      0x05\n      add\n      sload\n        /* \"ICO AFFILIATE/Copy_staker3lv.sol\":10960:11001  user.deposits[i].finish < block.timestamp */\n      lt\n        /* \"ICO AFFILIATE/Copy_staker3lv.sol\":10960:11045  user.deposits[i].finish < block.timestamp ? user.deposits[i].finish : block.timestamp */\n      tag_273\n      jumpi\n        /* \"ICO AFFILIATE/Copy_staker3lv.sol\":11030:11045  block.timestamp */\n      timestamp\n        /* \"ICO AFFILIATE/Copy_staker3lv.sol\":10960:11045  user.deposits[i].finish < block.timestamp ? user.deposits[i].finish : block.timestamp */\n      jump(tag_274)\n    tag_273:\n        /* \"ICO AFFILIATE/Copy_staker3lv.sol\":11004:11008  user */\n      dup6\n        /* \"ICO AFFILIATE/Copy_staker3lv.sol\":11004:11017  user.deposits */\n      0x00\n      add\n        /* \"ICO AFFILIATE/Copy_staker3lv.sol\":11018:11019  i */\n      dup5\n        /* \"ICO AFFILIATE/Copy_staker3lv.sol\":11004:11020  user.deposits[i] */\n      dup2\n      sload\n      dup2\n      lt\n      tag_275\n      jumpi\n      invalid\n    tag_275:\n      swap1\n      0x00\n      mstore\n      keccak256(0x00, 0x20)\n      swap1\n      0x06\n      mul\n      add\n        /* \"ICO AFFILIATE/Copy_staker3lv.sol\":11004:11027  user.deposits[i].finish */\n      0x05\n      add\n      sload\n        /* \"ICO AFFILIATE/Copy_staker3lv.sol\":10960:11045  user.deposits[i].finish < block.timestamp ? user.deposits[i].finish : block.timestamp */\n    tag_274:\n        /* \"ICO AFFILIATE/Copy_staker3lv.sol\":10947:11045  uint256 to = user.deposits[i].finish < block.timestamp ? user.deposits[i].finish : block.timestamp */\n      swap1\n      pop\n        /* \"ICO AFFILIATE/Copy_staker3lv.sol\":11063:11065  to */\n      dup1\n        /* \"ICO AFFILIATE/Copy_staker3lv.sol\":11056:11060  from */\n      dup3\n        /* \"ICO AFFILIATE/Copy_staker3lv.sol\":11056:11065  from < to */\n      lt\n        /* \"ICO AFFILIATE/Copy_staker3lv.sol\":11052:11152  if (from < to) {... */\n      iszero\n      tag_277\n      jumpi\n        /* \"ICO AFFILIATE/Copy_staker3lv.sol\":11089:11144  totalAmount.add(share.mul(to.sub(from)).div(TIME_STEP)) */\n      tag_278\n        /* \"ICO AFFILIATE/Copy_staker3lv.sol\":11105:11143  share.mul(to.sub(from)).div(TIME_STEP) */\n      tag_279\n        /* \"ICO AFFILIATE/Copy_staker3lv.sol\":1777:1783  1 days */\n      0x015180\n        /* \"ICO AFFILIATE/Copy_staker3lv.sol\":11105:11128  share.mul(to.sub(from)) */\n      tag_280\n        /* \"ICO AFFILIATE/Copy_staker3lv.sol\":11115:11127  to.sub(from) */\n      tag_281\n        /* \"ICO AFFILIATE/Copy_staker3lv.sol\":11122:11126  from */\n      dup7\n        /* \"ICO AFFILIATE/Copy_staker3lv.sol\":11115:11117  to */\n      dup7\n        /* \"ICO AFFILIATE/Copy_staker3lv.sol\":11115:11121  to.sub */\n      tag_282\n      swap1\n        /* \"ICO AFFILIATE/Copy_staker3lv.sol\":11115:11127  to.sub(from) */\n      swap2\n      swap1\n      0xffffffff\n      and\n      jump\t// in\n    tag_281:\n        /* \"ICO AFFILIATE/Copy_staker3lv.sol\":11105:11110  share */\n      dup8\n        /* \"ICO AFFILIATE/Copy_staker3lv.sol\":11105:11114  share.mul */\n      tag_263\n      swap1\n        /* \"ICO AFFILIATE/Copy_staker3lv.sol\":11105:11128  share.mul(to.sub(from)) */\n      swap2\n      swap1\n      0xffffffff\n      and\n      jump\t// in\n    tag_280:\n        /* \"ICO AFFILIATE/Copy_staker3lv.sol\":11105:11132  share.mul(to.sub(from)).div */\n      tag_264\n      swap1\n        /* \"ICO AFFILIATE/Copy_staker3lv.sol\":11105:11143  share.mul(to.sub(from)).div(TIME_STEP) */\n      swap2\n      swap1\n      0xffffffff\n      and\n      jump\t// in\n    tag_279:\n        /* \"ICO AFFILIATE/Copy_staker3lv.sol\":11089:11100  totalAmount */\n      dup7\n        /* \"ICO AFFILIATE/Copy_staker3lv.sol\":11089:11104  totalAmount.add */\n      tag_283\n      swap1\n        /* \"ICO AFFILIATE/Copy_staker3lv.sol\":11089:11144  totalAmount.add(share.mul(to.sub(from)).div(TIME_STEP)) */\n      swap2\n      swap1\n      0xffffffff\n      and\n      jump\t// in\n    tag_278:\n        /* \"ICO AFFILIATE/Copy_staker3lv.sol\":11075:11144  totalAmount = totalAmount.add(share.mul(to.sub(from)).div(TIME_STEP)) */\n      swap5\n      pop\n        /* \"ICO AFFILIATE/Copy_staker3lv.sol\":11052:11152  if (from < to) {... */\n    tag_277:\n        /* \"ICO AFFILIATE/Copy_staker3lv.sol\":10706:11279  if (user.deposits[i].plan < 3) {... */\n      pop\n      pop\n      pop\n      jump(tag_284)\n    tag_256:\n        /* \"ICO AFFILIATE/Copy_staker3lv.sol\":11186:11190  user */\n      dup3\n        /* \"ICO AFFILIATE/Copy_staker3lv.sol\":11186:11199  user.deposits */\n      0x00\n      add\n        /* \"ICO AFFILIATE/Copy_staker3lv.sol\":11200:11201  i */\n      dup2\n        /* \"ICO AFFILIATE/Copy_staker3lv.sol\":11186:11202  user.deposits[i] */\n      dup2\n      sload\n      dup2\n      lt\n      tag_285\n      jumpi\n      invalid\n    tag_285:\n      swap1\n      0x00\n      mstore\n      keccak256(0x00, 0x20)\n      swap1\n      0x06\n      mul\n      add\n        /* \"ICO AFFILIATE/Copy_staker3lv.sol\":11186:11209  user.deposits[i].finish */\n      0x05\n      add\n      sload\n        /* \"ICO AFFILIATE/Copy_staker3lv.sol\":11168:11183  block.timestamp */\n      timestamp\n        /* \"ICO AFFILIATE/Copy_staker3lv.sol\":11168:11209  block.timestamp > user.deposits[i].finish */\n      gt\n        /* \"ICO AFFILIATE/Copy_staker3lv.sol\":11164:11279  if (block.timestamp > user.deposits[i].finish) {... */\n      iszero\n      tag_287\n      jumpi\n        /* \"ICO AFFILIATE/Copy_staker3lv.sol\":11232:11272  totalAmount.add(user.deposits[i].profit) */\n      tag_288\n        /* \"ICO AFFILIATE/Copy_staker3lv.sol\":11248:11252  user */\n      dup4\n        /* \"ICO AFFILIATE/Copy_staker3lv.sol\":11248:11261  user.deposits */\n      0x00\n      add\n        /* \"ICO AFFILIATE/Copy_staker3lv.sol\":11262:11263  i */\n      dup3\n        /* \"ICO AFFILIATE/Copy_staker3lv.sol\":11248:11264  user.deposits[i] */\n      dup2\n      sload\n      dup2\n      lt\n      tag_289\n      jumpi\n      invalid\n    tag_289:\n      swap1\n      0x00\n      mstore\n      keccak256(0x00, 0x20)\n      swap1\n      0x06\n      mul\n      add\n        /* \"ICO AFFILIATE/Copy_staker3lv.sol\":11248:11271  user.deposits[i].profit */\n      0x03\n      add\n      sload\n        /* \"ICO AFFILIATE/Copy_staker3lv.sol\":11232:11243  totalAmount */\n      dup4\n        /* \"ICO AFFILIATE/Copy_staker3lv.sol\":11232:11247  totalAmount.add */\n      tag_283\n      swap1\n        /* \"ICO AFFILIATE/Copy_staker3lv.sol\":11232:11272  totalAmount.add(user.deposits[i].profit) */\n      swap2\n      swap1\n      0xffffffff\n      and\n      jump\t// in\n    tag_288:\n        /* \"ICO AFFILIATE/Copy_staker3lv.sol\":11218:11272  totalAmount = totalAmount.add(user.deposits[i].profit) */\n      swap2\n      pop\n        /* \"ICO AFFILIATE/Copy_staker3lv.sol\":11164:11279  if (block.timestamp > user.deposits[i].finish) {... */\n    tag_287:\n        /* \"ICO AFFILIATE/Copy_staker3lv.sol\":10706:11279  if (user.deposits[i].plan < 3) {... */\n    tag_284:\n        /* \"ICO AFFILIATE/Copy_staker3lv.sol\":10653:11284  if (user.checkpoint < user.deposits[i].finish) {... */\n    tag_253:\n        /* \"ICO AFFILIATE/Copy_staker3lv.sol\":10643:10646  i++ */\n      dup1\n      dup1\n      0x01\n      add\n      swap2\n      pop\n      pop\n        /* \"ICO AFFILIATE/Copy_staker3lv.sol\":10597:11288  for (uint256 i = 0; i < user.deposits.length; i++) {... */\n      jump(tag_248)\n    tag_249:\n      pop\n        /* \"ICO AFFILIATE/Copy_staker3lv.sol\":11299:11310  totalAmount */\n      dup1\n        /* \"ICO AFFILIATE/Copy_staker3lv.sol\":11292:11310  return totalAmount */\n      swap3\n      pop\n      pop\n      pop\n        /* \"ICO AFFILIATE/Copy_staker3lv.sol\":10449:11314  function getUserDividends(address userAddress) public view returns (uint256) {... */\n      swap2\n      swap1\n      pop\n      jump\t// out\n        /* \"ICO AFFILIATE/Copy_staker3lv.sol\":4996:5143  function haltICO() external onlyAdmin {... */\n    tag_87:\n        /* \"ICO AFFILIATE/Copy_staker3lv.sol\":4095:4100  admin */\n      0x03\n      0x00\n      swap1\n      sload\n      swap1\n      0x0100\n      exp\n      swap1\n      div\n      0xffffffffffffffffffffffffffffffffffffffff\n      and\n        /* \"ICO AFFILIATE/Copy_staker3lv.sol\":4081:4100  msg.sender == admin */\n      0xffffffffffffffffffffffffffffffffffffffff\n      and\n        /* \"ICO AFFILIATE/Copy_staker3lv.sol\":4081:4091  msg.sender */\n      caller\n        /* \"ICO AFFILIATE/Copy_staker3lv.sol\":4081:4100  msg.sender == admin */\n      0xffffffffffffffffffffffffffffffffffffffff\n      and\n      eq\n        /* \"ICO AFFILIATE/Copy_staker3lv.sol\":4073:4124  require(msg.sender == admin, \"Admin Only function\") */\n      tag_292\n      jumpi\n      mload(0x40)\n      0x08c379a000000000000000000000000000000000000000000000000000000000\n      dup2\n      mstore\n      0x04\n      add\n      dup1\n      dup1\n      0x20\n      add\n      dup3\n      dup2\n      sub\n      dup3\n      mstore\n      0x13\n      dup2\n      mstore\n      0x20\n      add\n      dup1\n      0x41646d696e204f6e6c792066756e6374696f6e00000000000000000000000000\n      dup2\n      mstore\n      pop\n      0x20\n      add\n      swap2\n      pop\n      pop\n      mload(0x40)\n      dup1\n      swap2\n      sub\n      swap1\n      revert\n    tag_292:\n        /* \"ICO AFFILIATE/Copy_staker3lv.sol\":5064:5077  State.RUNNING */\n      0x01\n        /* \"ICO AFFILIATE/Copy_staker3lv.sol\":5052:5077  ICOState == State.RUNNING */\n      0x03\n      dup2\n      gt\n      iszero\n      tag_294\n      jumpi\n      invalid\n    tag_294:\n        /* \"ICO AFFILIATE/Copy_staker3lv.sol\":5052:5060  ICOState */\n      0x0e\n      0x00\n      swap1\n      sload\n      swap1\n      0x0100\n      exp\n      swap1\n      div\n      0xff\n      and\n        /* \"ICO AFFILIATE/Copy_staker3lv.sol\":5052:5077  ICOState == State.RUNNING */\n      0x03\n      dup2\n      gt\n      iszero\n      tag_295\n      jumpi\n      invalid\n    tag_295:\n      eq\n        /* \"ICO AFFILIATE/Copy_staker3lv.sol\":5044:5103  require(ICOState == State.RUNNING, \"ICO isn't running yet\") */\n      tag_296\n      jumpi\n      mload(0x40)\n      0x08c379a000000000000000000000000000000000000000000000000000000000\n      dup2\n      mstore\n      0x04\n      add\n      dup1\n      dup1\n      0x20\n      add\n      dup3\n      dup2\n      sub\n      dup3\n      mstore\n      0x15\n      dup2\n      mstore\n      0x20\n      add\n      dup1\n      0x49434f2069736e27742072756e6e696e67207965740000000000000000000000\n      dup2\n      mstore\n      pop\n      0x20\n      add\n      swap2\n      pop\n      pop\n      mload(0x40)\n      dup1\n      swap2\n      sub\n      swap1\n      revert\n    tag_296:\n        /* \"ICO AFFILIATE/Copy_staker3lv.sol\":5124:5136  State.HALTED */\n      0x03\n        /* \"ICO AFFILIATE/Copy_staker3lv.sol\":5113:5121  ICOState */\n      0x0e\n      0x00\n        /* \"ICO AFFILIATE/Copy_staker3lv.sol\":5113:5136  ICOState = State.HALTED */\n      0x0100\n      exp\n      dup2\n      sload\n      dup2\n      0xff\n      mul\n      not\n      and\n      swap1\n      dup4\n      0x03\n      dup2\n      gt\n      iszero\n      tag_297\n      jumpi\n      invalid\n    tag_297:\n      mul\n      or\n      swap1\n      sstore\n      pop\n        /* \"ICO AFFILIATE/Copy_staker3lv.sol\":4996:5143  function haltICO() external onlyAdmin {... */\n      jump\t// out\n        /* \"ICO AFFILIATE/Copy_staker3lv.sol\":12182:12341  function getUserAvailable(address userAddress) public view returns(uint256) {... */\n    tag_91:\n        /* \"ICO AFFILIATE/Copy_staker3lv.sol\":12249:12256  uint256 */\n      0x00\n        /* \"ICO AFFILIATE/Copy_staker3lv.sol\":12269:12337  getUserReferralBonus(userAddress).add(getUserDividends(userAddress)) */\n      tag_299\n        /* \"ICO AFFILIATE/Copy_staker3lv.sol\":12307:12336  getUserDividends(userAddress) */\n      tag_300\n        /* \"ICO AFFILIATE/Copy_staker3lv.sol\":12324:12335  userAddress */\n      dup4\n        /* \"ICO AFFILIATE/Copy_staker3lv.sol\":12307:12323  getUserDividends */\n      tag_84\n        /* \"ICO AFFILIATE/Copy_staker3lv.sol\":12307:12336  getUserDividends(userAddress) */\n      jump\t// in\n    tag_300:\n        /* \"ICO AFFILIATE/Copy_staker3lv.sol\":12269:12302  getUserReferralBonus(userAddress) */\n      tag_301\n        /* \"ICO AFFILIATE/Copy_staker3lv.sol\":12290:12301  userAddress */\n      dup5\n        /* \"ICO AFFILIATE/Copy_staker3lv.sol\":12269:12289  getUserReferralBonus */\n      tag_226\n        /* \"ICO AFFILIATE/Copy_staker3lv.sol\":12269:12302  getUserReferralBonus(userAddress) */\n      jump\t// in\n    tag_301:\n        /* \"ICO AFFILIATE/Copy_staker3lv.sol\":12269:12306  getUserReferralBonus(userAddress).add */\n      tag_283\n      swap1\n        /* \"ICO AFFILIATE/Copy_staker3lv.sol\":12269:12337  getUserReferralBonus(userAddress).add(getUserDividends(userAddress)) */\n      swap2\n      swap1\n      0xffffffff\n      and\n      jump\t// in\n    tag_299:\n        /* \"ICO AFFILIATE/Copy_staker3lv.sol\":12262:12337  return getUserReferralBonus(userAddress).add(getUserDividends(userAddress)) */\n      swap1\n      pop\n        /* \"ICO AFFILIATE/Copy_staker3lv.sol\":12182:12341  function getUserAvailable(address userAddress) public view returns(uint256) {... */\n      swap2\n      swap1\n      pop\n      jump\t// out\n        /* \"ICO AFFILIATE/Copy_staker3lv.sol\":2238:2286  mapping(address => uint) public investedAmountOf */\n    tag_95:\n      mstore(0x20, 0x0d)\n      dup1\n      0x00\n      mstore\n      keccak256(0x00, 0x40)\n      0x00\n      swap2\n      pop\n      swap1\n      pop\n      sload\n      dup2\n      jump\t// out\n        /* \"ICO AFFILIATE/Copy_staker3lv.sol\":4337:4683  function getICOState() external view returns (string memory) {... */\n    tag_98:\n        /* \"ICO AFFILIATE/Copy_staker3lv.sol\":4383:4396  string memory */\n      0x60\n        /* \"ICO AFFILIATE/Copy_staker3lv.sol\":4424:4436  State.BEFORE */\n      0x00\n        /* \"ICO AFFILIATE/Copy_staker3lv.sol\":4412:4436  ICOState == State.BEFORE */\n      0x03\n      dup2\n      gt\n      iszero\n      tag_303\n      jumpi\n      invalid\n    tag_303:\n        /* \"ICO AFFILIATE/Copy_staker3lv.sol\":4412:4420  ICOState */\n      0x0e\n      0x00\n      swap1\n      sload\n      swap1\n      0x0100\n      exp\n      swap1\n      div\n      0xff\n      and\n        /* \"ICO AFFILIATE/Copy_staker3lv.sol\":4412:4436  ICOState == State.BEFORE */\n      0x03\n      dup2\n      gt\n      iszero\n      tag_304\n      jumpi\n      invalid\n    tag_304:\n      eq\n        /* \"ICO AFFILIATE/Copy_staker3lv.sol\":4408:4677  if (ICOState == State.BEFORE) {... */\n      iszero\n      tag_305\n      jumpi\n        /* \"ICO AFFILIATE/Copy_staker3lv.sol\":4452:4472  return \"Not Started\" */\n      mload(0x40)\n      dup1\n      0x40\n      add\n      0x40\n      mstore\n      dup1\n      0x0b\n      dup2\n      mstore\n      0x20\n      add\n      0x4e6f742053746172746564000000000000000000000000000000000000000000\n      dup2\n      mstore\n      pop\n      swap1\n      pop\n      jump(tag_302)\n        /* \"ICO AFFILIATE/Copy_staker3lv.sol\":4408:4677  if (ICOState == State.BEFORE) {... */\n    tag_305:\n        /* \"ICO AFFILIATE/Copy_staker3lv.sol\":4505:4518  State.RUNNING */\n      0x01\n        /* \"ICO AFFILIATE/Copy_staker3lv.sol\":4493:4518  ICOState == State.RUNNING */\n      0x03\n      dup2\n      gt\n      iszero\n      tag_307\n      jumpi\n      invalid\n    tag_307:\n        /* \"ICO AFFILIATE/Copy_staker3lv.sol\":4493:4501  ICOState */\n      0x0e\n      0x00\n      swap1\n      sload\n      swap1\n      0x0100\n      exp\n      swap1\n      div\n      0xff\n      and\n        /* \"ICO AFFILIATE/Copy_staker3lv.sol\":4493:4518  ICOState == State.RUNNING */\n      0x03\n      dup2\n      gt\n      iszero\n      tag_308\n      jumpi\n      invalid\n    tag_308:\n      eq\n        /* \"ICO AFFILIATE/Copy_staker3lv.sol\":4489:4677  if (ICOState == State.RUNNING) {... */\n      iszero\n      tag_309\n      jumpi\n        /* \"ICO AFFILIATE/Copy_staker3lv.sol\":4534:4550  return \"Running\" */\n      mload(0x40)\n      dup1\n      0x40\n      add\n      0x40\n      mstore\n      dup1\n      0x07\n      dup2\n      mstore\n      0x20\n      add\n      0x52756e6e696e6700000000000000000000000000000000000000000000000000\n      dup2\n      mstore\n      pop\n      swap1\n      pop\n      jump(tag_302)\n        /* \"ICO AFFILIATE/Copy_staker3lv.sol\":4489:4677  if (ICOState == State.RUNNING) {... */\n    tag_309:\n        /* \"ICO AFFILIATE/Copy_staker3lv.sol\":4583:4592  State.END */\n      0x02\n        /* \"ICO AFFILIATE/Copy_staker3lv.sol\":4571:4592  ICOState == State.END */\n      0x03\n      dup2\n      gt\n      iszero\n      tag_311\n      jumpi\n      invalid\n    tag_311:\n        /* \"ICO AFFILIATE/Copy_staker3lv.sol\":4571:4579  ICOState */\n      0x0e\n      0x00\n      swap1\n      sload\n      swap1\n      0x0100\n      exp\n      swap1\n      div\n      0xff\n      and\n        /* \"ICO AFFILIATE/Copy_staker3lv.sol\":4571:4592  ICOState == State.END */\n      0x03\n      dup2\n      gt\n      iszero\n      tag_312\n      jumpi\n      invalid\n    tag_312:\n      eq\n        /* \"ICO AFFILIATE/Copy_staker3lv.sol\":4567:4677  if (ICOState == State.END) {... */\n      iszero\n      tag_313\n      jumpi\n        /* \"ICO AFFILIATE/Copy_staker3lv.sol\":4608:4620  return \"End\" */\n      mload(0x40)\n      dup1\n      0x40\n      add\n      0x40\n      mstore\n      dup1\n      0x03\n      dup2\n      mstore\n      0x20\n      add\n      0x456e640000000000000000000000000000000000000000000000000000000000\n      dup2\n      mstore\n      pop\n      swap1\n      pop\n      jump(tag_302)\n        /* \"ICO AFFILIATE/Copy_staker3lv.sol\":4567:4677  if (ICOState == State.END) {... */\n    tag_313:\n        /* \"ICO AFFILIATE/Copy_staker3lv.sol\":4651:4666  return \"Halted\" */\n      mload(0x40)\n      dup1\n      0x40\n      add\n      0x40\n      mstore\n      dup1\n      0x06\n      dup2\n      mstore\n      0x20\n      add\n      0x48616c7465640000000000000000000000000000000000000000000000000000\n      dup2\n      mstore\n      pop\n      swap1\n      pop\n        /* \"ICO AFFILIATE/Copy_staker3lv.sol\":4337:4683  function getICOState() external view returns (string memory) {... */\n    tag_302:\n      swap1\n      jump\t// out\n        /* \"ICO AFFILIATE/Copy_staker3lv.sol\":1741:1783  uint256 constant public TIME_STEP = 1 days */\n    tag_105:\n        /* \"ICO AFFILIATE/Copy_staker3lv.sol\":1777:1783  1 days */\n      0x015180\n        /* \"ICO AFFILIATE/Copy_staker3lv.sol\":1741:1783  uint256 constant public TIME_STEP = 1 days */\n      dup2\n      jump\t// out\n        /* \"ICO AFFILIATE/Copy_staker3lv.sol\":11441:11558  function getUserReferrer(address userAddress) public view returns(address) {... */\n    tag_109:\n        /* \"ICO AFFILIATE/Copy_staker3lv.sol\":11507:11514  address */\n      0x00\n        /* \"ICO AFFILIATE/Copy_staker3lv.sol\":11527:11532  users */\n      0x10\n        /* \"ICO AFFILIATE/Copy_staker3lv.sol\":11527:11545  users[userAddress] */\n      0x00\n        /* \"ICO AFFILIATE/Copy_staker3lv.sol\":11533:11544  userAddress */\n      dup4\n        /* \"ICO AFFILIATE/Copy_staker3lv.sol\":11527:11545  users[userAddress] */\n      0xffffffffffffffffffffffffffffffffffffffff\n      and\n      0xffffffffffffffffffffffffffffffffffffffff\n      and\n      dup2\n      mstore\n      0x20\n      add\n      swap1\n      dup2\n      mstore\n      0x20\n      add\n      0x00\n      keccak256\n        /* \"ICO AFFILIATE/Copy_staker3lv.sol\":11527:11554  users[userAddress].referrer */\n      0x02\n      add\n      0x00\n      swap1\n      sload\n      swap1\n      0x0100\n      exp\n      swap1\n      div\n      0xffffffffffffffffffffffffffffffffffffffff\n      and\n        /* \"ICO AFFILIATE/Copy_staker3lv.sol\":11520:11554  return users[userAddress].referrer */\n      swap1\n      pop\n        /* \"ICO AFFILIATE/Copy_staker3lv.sol\":11441:11558  function getUserReferrer(address userAddress) public view returns(address) {... */\n      swap2\n      swap1\n      pop\n      jump\t// out\n        /* \"ICO AFFILIATE/Copy_staker3lv.sol\":13360:13754  function burn() external returns (bool) {... */\n    tag_112:\n        /* \"ICO AFFILIATE/Copy_staker3lv.sol\":13394:13398  bool */\n      0x00\n        /* \"ICO AFFILIATE/Copy_staker3lv.sol\":13430:13439  State.END */\n      0x02\n        /* \"ICO AFFILIATE/Copy_staker3lv.sol\":13418:13439  ICOState == State.END */\n      0x03\n      dup2\n      gt\n      iszero\n      tag_317\n      jumpi\n      invalid\n    tag_317:\n        /* \"ICO AFFILIATE/Copy_staker3lv.sol\":13418:13426  ICOState */\n      0x0e\n      0x00\n      swap1\n      sload\n      swap1\n      0x0100\n      exp\n      swap1\n      div\n      0xff\n      and\n        /* \"ICO AFFILIATE/Copy_staker3lv.sol\":13418:13439  ICOState == State.END */\n      0x03\n      dup2\n      gt\n      iszero\n      tag_318\n      jumpi\n      invalid\n    tag_318:\n      eq\n        /* \"ICO AFFILIATE/Copy_staker3lv.sol\":13410:13462  require(ICOState == State.END, \"ICO isn't over yet\") */\n      tag_319\n      jumpi\n      mload(0x40)\n      0x08c379a000000000000000000000000000000000000000000000000000000000\n      dup2\n      mstore\n      0x04\n      add\n      dup1\n      dup1\n      0x20\n      add\n      dup3\n      dup2\n      sub\n      dup3\n      mstore\n      0x12\n      dup2\n      mstore\n      0x20\n      add\n      dup1\n      0x49434f2069736e2774206f766572207965740000000000000000000000000000\n      dup2\n      mstore\n      pop\n      0x20\n      add\n      swap2\n      pop\n      pop\n      mload(0x40)\n      dup1\n      swap2\n      sub\n      swap1\n      revert\n    tag_319:\n        /* \"ICO AFFILIATE/Copy_staker3lv.sol\":13473:13493  uint remainingTokens */\n      0x00\n        /* \"ICO AFFILIATE/Copy_staker3lv.sol\":13496:13501  token */\n      0x05\n      0x00\n      swap1\n      sload\n      swap1\n      0x0100\n      exp\n      swap1\n      div\n      0xffffffffffffffffffffffffffffffffffffffff\n      and\n        /* \"ICO AFFILIATE/Copy_staker3lv.sol\":13496:13511  token.balanceOf */\n      0xffffffffffffffffffffffffffffffffffffffff\n      and\n      0x70a08231\n        /* \"ICO AFFILIATE/Copy_staker3lv.sol\":13520:13524  this */\n      address\n        /* \"ICO AFFILIATE/Copy_staker3lv.sol\":13496:13526  token.balanceOf(address(this)) */\n      mload(0x40)\n      dup3\n      0xffffffff\n      and\n      0xe0\n      shl\n      dup2\n      mstore\n      0x04\n      add\n      dup1\n      dup3\n      0xffffffffffffffffffffffffffffffffffffffff\n      and\n      dup2\n      mstore\n      0x20\n      add\n      swap2\n      pop\n      pop\n      0x20\n      mload(0x40)\n      dup1\n      dup4\n      sub\n      dup2\n      dup7\n      dup1\n      extcodesize\n      iszero\n      dup1\n      iszero\n      tag_320\n      jumpi\n      0x00\n      dup1\n      revert\n    tag_320:\n      pop\n      gas\n      staticcall\n      iszero\n      dup1\n      iszero\n      tag_322\n      jumpi\n      returndatasize\n      0x00\n      dup1\n      returndatacopy\n      revert(0x00, returndatasize)\n    tag_322:\n      pop\n      pop\n      pop\n      pop\n      mload(0x40)\n      returndatasize\n      0x20\n      dup2\n      lt\n      iszero\n      tag_323\n      jumpi\n      0x00\n      dup1\n      revert\n    tag_323:\n      dup2\n      add\n      swap1\n      dup1\n      dup1\n      mload\n      swap1\n      0x20\n      add\n      swap1\n      swap3\n      swap2\n      swap1\n      pop\n      pop\n      pop\n        /* \"ICO AFFILIATE/Copy_staker3lv.sol\":13473:13526  uint remainingTokens = token.balanceOf(address(this)) */\n      swap1\n      pop\n        /* \"ICO AFFILIATE/Copy_staker3lv.sol\":13536:13548  bool success */\n      0x00\n        /* \"ICO AFFILIATE/Copy_staker3lv.sol\":13551:13556  token */\n      0x05\n      0x00\n      swap1\n      sload\n      swap1\n      0x0100\n      exp\n      swap1\n      div\n      0xffffffffffffffffffffffffffffffffffffffff\n      and\n        /* \"ICO AFFILIATE/Copy_staker3lv.sol\":13551:13565  token.transfer */\n      0xffffffffffffffffffffffffffffffffffffffff\n      and\n      0xa9059cbb\n        /* \"ICO AFFILIATE/Copy_staker3lv.sol\":13574:13575  0 */\n      0x00\n        /* \"ICO AFFILIATE/Copy_staker3lv.sol\":13578:13593  remainingTokens */\n      dup5\n        /* \"ICO AFFILIATE/Copy_staker3lv.sol\":13551:13594  token.transfer(address(0), remainingTokens) */\n      mload(0x40)\n      dup4\n      0xffffffff\n      and\n      0xe0\n      shl\n      dup2\n      mstore\n      0x04\n      add\n      dup1\n      dup4\n      0xffffffffffffffffffffffffffffffffffffffff\n      and\n      dup2\n      mstore\n      0x20\n      add\n      dup3\n      dup2\n      mstore\n      0x20\n      add\n      swap3\n      pop\n      pop\n      pop\n      0x20\n      mload(0x40)\n      dup1\n      dup4\n      sub\n      dup2\n      0x00\n      dup8\n      dup1\n      extcodesize\n      iszero\n      dup1\n      iszero\n      tag_324\n      jumpi\n      0x00\n      dup1\n      revert\n    tag_324:\n      pop\n      gas\n      call\n      iszero\n      dup1\n      iszero\n      tag_326\n      jumpi\n      returndatasize\n      0x00\n      dup1\n      returndatacopy\n      revert(0x00, returndatasize)\n    tag_326:\n      pop\n      pop\n      pop\n      pop\n      mload(0x40)\n      returndatasize\n      0x20\n      dup2\n      lt\n      iszero\n      tag_327\n      jumpi\n      0x00\n      dup1\n      revert\n    tag_327:\n      dup2\n      add\n      swap1\n      dup1\n      dup1\n      mload\n      swap1\n      0x20\n      add\n      swap1\n      swap3\n      swap2\n      swap1\n      pop\n      pop\n      pop\n        /* \"ICO AFFILIATE/Copy_staker3lv.sol\":13536:13594  bool success = token.transfer(address(0), remainingTokens) */\n      swap1\n      pop\n        /* \"ICO AFFILIATE/Copy_staker3lv.sol\":13612:13619  success */\n      dup1\n        /* \"ICO AFFILIATE/Copy_staker3lv.sol\":13604:13655  require(success, \"Failed to burn remaining tokens\") */\n      tag_328\n      jumpi\n      mload(0x40)\n      0x08c379a000000000000000000000000000000000000000000000000000000000\n      dup2\n      mstore\n      0x04\n      add\n      dup1\n      dup1\n      0x20\n      add\n      dup3\n      dup2\n      sub\n      dup3\n      mstore\n      0x1f\n      dup2\n      mstore\n      0x20\n      add\n      dup1\n      0x4661696c656420746f206275726e2072656d61696e696e6720746f6b656e7300\n      dup2\n      mstore\n      pop\n      0x20\n      add\n      swap2\n      pop\n      pop\n      mload(0x40)\n      dup1\n      swap2\n      sub\n      swap1\n      revert\n    tag_328:\n        /* \"ICO AFFILIATE/Copy_staker3lv.sol\":13671:13726  TokenBurn(address(0), remainingTokens, block.timestamp) */\n      0xfe9e0b0c1e3e9216717d5f66d10bc310b12c366417e150b4b1af9fb9620bca91\n        /* \"ICO AFFILIATE/Copy_staker3lv.sol\":13689:13690  0 */\n      0x00\n        /* \"ICO AFFILIATE/Copy_staker3lv.sol\":13693:13708  remainingTokens */\n      dup4\n        /* \"ICO AFFILIATE/Copy_staker3lv.sol\":13710:13725  block.timestamp */\n      timestamp\n        /* \"ICO AFFILIATE/Copy_staker3lv.sol\":13671:13726  TokenBurn(address(0), remainingTokens, block.timestamp) */\n      mload(0x40)\n      dup1\n      dup5\n      0xffffffffffffffffffffffffffffffffffffffff\n      and\n      dup2\n      mstore\n      0x20\n      add\n      dup4\n      dup2\n      mstore\n      0x20\n      add\n      dup3\n      dup2\n      mstore\n      0x20\n      add\n      swap4\n      pop\n      pop\n      pop\n      pop\n      mload(0x40)\n      dup1\n      swap2\n      sub\n      swap1\n      log1\n        /* \"ICO AFFILIATE/Copy_staker3lv.sol\":13743:13747  true */\n      0x01\n        /* \"ICO AFFILIATE/Copy_staker3lv.sol\":13736:13747  return true */\n      swap3\n      pop\n      pop\n      pop\n        /* \"ICO AFFILIATE/Copy_staker3lv.sol\":13360:13754  function burn() external returns (bool) {... */\n      swap1\n      jump\t// out\n        /* \"ICO AFFILIATE/Copy_staker3lv.sol\":11889:12018  function getUserReferralTotalBonus(address userAddress) public view returns(uint256) {... */\n    tag_116:\n        /* \"ICO AFFILIATE/Copy_staker3lv.sol\":11965:11972  uint256 */\n      0x00\n        /* \"ICO AFFILIATE/Copy_staker3lv.sol\":11985:11990  users */\n      0x10\n        /* \"ICO AFFILIATE/Copy_staker3lv.sol\":11985:12003  users[userAddress] */\n      0x00\n        /* \"ICO AFFILIATE/Copy_staker3lv.sol\":11991:12002  userAddress */\n      dup4\n        /* \"ICO AFFILIATE/Copy_staker3lv.sol\":11985:12003  users[userAddress] */\n      0xffffffffffffffffffffffffffffffffffffffff\n      and\n      0xffffffffffffffffffffffffffffffffffffffff\n      and\n      dup2\n      mstore\n      0x20\n      add\n      swap1\n      dup2\n      mstore\n      0x20\n      add\n      0x00\n      keccak256\n        /* \"ICO AFFILIATE/Copy_staker3lv.sol\":11985:12014  users[userAddress].totalBonus */\n      0x07\n      add\n      sload\n        /* \"ICO AFFILIATE/Copy_staker3lv.sol\":11978:12014  return users[userAddress].totalBonus */\n      swap1\n      pop\n        /* \"ICO AFFILIATE/Copy_staker3lv.sol\":11889:12018  function getUserReferralTotalBonus(address userAddress) public view returns(uint256) {... */\n      swap2\n      swap1\n      pop\n      jump\t// out\n        /* \"ICO AFFILIATE/Copy_staker3lv.sol\":1542:1583  uint256 constant public PROJECT_FEE = 100 */\n    tag_119:\n        /* \"ICO AFFILIATE/Copy_staker3lv.sol\":1580:1583  100 */\n      0x64\n        /* \"ICO AFFILIATE/Copy_staker3lv.sol\":1542:1583  uint256 constant public PROJECT_FEE = 100 */\n      dup2\n      jump\t// out\n        /* \"ICO AFFILIATE/Copy_staker3lv.sol\":1586:1626  uint256 constant public PERCENT_STEP = 5 */\n    tag_122:\n        /* \"ICO AFFILIATE/Copy_staker3lv.sol\":1625:1626  5 */\n      0x05\n        /* \"ICO AFFILIATE/Copy_staker3lv.sol\":1586:1626  uint256 constant public PERCENT_STEP = 5 */\n      dup2\n      jump\t// out\n        /* \"ICO AFFILIATE/Copy_staker3lv.sol\":5610:8700  function invest(address referrer, uint8 plan) public payable returns (bool){... */\n    tag_125:\n        /* \"ICO AFFILIATE/Copy_staker3lv.sol\":5680:5684  bool */\n      0x00\n        /* \"ICO AFFILIATE/Copy_staker3lv.sol\":5738:5751  minInvestment */\n      sload(0x09)\n        /* \"ICO AFFILIATE/Copy_staker3lv.sol\":5725:5734  msg.value */\n      callvalue\n        /* \"ICO AFFILIATE/Copy_staker3lv.sol\":5725:5751  msg.value >= minInvestment */\n      lt\n      iszero\n        /* \"ICO AFFILIATE/Copy_staker3lv.sol\":5717:5752  require(msg.value >= minInvestment) */\n      tag_331\n      jumpi\n      0x00\n      dup1\n      revert\n    tag_331:\n        /* \"ICO AFFILIATE/Copy_staker3lv.sol\":5777:5778  6 */\n      0x06\n        /* \"ICO AFFILIATE/Copy_staker3lv.sol\":5770:5774  plan */\n      dup3\n        /* \"ICO AFFILIATE/Copy_staker3lv.sol\":5770:5778  plan < 6 */\n      0xff\n      and\n      lt\n        /* \"ICO AFFILIATE/Copy_staker3lv.sol\":5762:5795  require(plan < 6, \"Invalid plan\") */\n      tag_332\n      jumpi\n      mload(0x40)\n      0x08c379a000000000000000000000000000000000000000000000000000000000\n      dup2\n      mstore\n      0x04\n      add\n      dup1\n      dup1\n      0x20\n      add\n      dup3\n      dup2\n      sub\n      dup3\n      mstore\n      0x0c\n      dup2\n      mstore\n      0x20\n      add\n      dup1\n      0x496e76616c696420706c616e0000000000000000000000000000000000000000\n      dup2\n      mstore\n      pop\n      0x20\n      add\n      swap2\n      pop\n      pop\n      mload(0x40)\n      dup1\n      swap2\n      sub\n      swap1\n      revert\n    tag_332:\n        /* \"ICO AFFILIATE/Copy_staker3lv.sol\":5800:5821  uint256 projectAmount */\n      0x00\n        /* \"ICO AFFILIATE/Copy_staker3lv.sol\":5824:5833  msg.value */\n      callvalue\n        /* \"ICO AFFILIATE/Copy_staker3lv.sol\":5800:5833  uint256 projectAmount = msg.value */\n      swap1\n      pop\n        /* \"ICO AFFILIATE/Copy_staker3lv.sol\":5982:5999  User storage user */\n      0x00\n        /* \"ICO AFFILIATE/Copy_staker3lv.sol\":6002:6007  users */\n      0x10\n        /* \"ICO AFFILIATE/Copy_staker3lv.sol\":6002:6019  users[msg.sender] */\n      0x00\n        /* \"ICO AFFILIATE/Copy_staker3lv.sol\":6008:6018  msg.sender */\n      caller\n        /* \"ICO AFFILIATE/Copy_staker3lv.sol\":6002:6019  users[msg.sender] */\n      0xffffffffffffffffffffffffffffffffffffffff\n      and\n      0xffffffffffffffffffffffffffffffffffffffff\n      and\n      dup2\n      mstore\n      0x20\n      add\n      swap1\n      dup2\n      mstore\n      0x20\n      add\n      0x00\n      keccak256\n        /* \"ICO AFFILIATE/Copy_staker3lv.sol\":5982:6019  User storage user = users[msg.sender] */\n      swap1\n      pop\n        /* \"ICO AFFILIATE/Copy_staker3lv.sol\":6053:6054  0 */\n      0x00\n        /* \"ICO AFFILIATE/Copy_staker3lv.sol\":6028:6055  user.referrer == address(0) */\n      0xffffffffffffffffffffffffffffffffffffffff\n      and\n        /* \"ICO AFFILIATE/Copy_staker3lv.sol\":6028:6032  user */\n      dup2\n        /* \"ICO AFFILIATE/Copy_staker3lv.sol\":6028:6041  user.referrer */\n      0x02\n      add\n      0x00\n      swap1\n      sload\n      swap1\n      0x0100\n      exp\n      swap1\n      div\n      0xffffffffffffffffffffffffffffffffffffffff\n      and\n        /* \"ICO AFFILIATE/Copy_staker3lv.sol\":6028:6055  user.referrer == address(0) */\n      0xffffffffffffffffffffffffffffffffffffffff\n      and\n      eq\n        /* \"ICO AFFILIATE/Copy_staker3lv.sol\":6024:6398  if (user.referrer == address(0)) {... */\n      iszero\n      tag_333\n      jumpi\n        /* \"ICO AFFILIATE/Copy_staker3lv.sol\":6100:6101  0 */\n      0x00\n        /* \"ICO AFFILIATE/Copy_staker3lv.sol\":6066:6071  users */\n      0x10\n        /* \"ICO AFFILIATE/Copy_staker3lv.sol\":6066:6081  users[referrer] */\n      0x00\n        /* \"ICO AFFILIATE/Copy_staker3lv.sol\":6072:6080  referrer */\n      dup8\n        /* \"ICO AFFILIATE/Copy_staker3lv.sol\":6066:6081  users[referrer] */\n      0xffffffffffffffffffffffffffffffffffffffff\n      and\n      0xffffffffffffffffffffffffffffffffffffffff\n      and\n      dup2\n      mstore\n      0x20\n      add\n      swap1\n      dup2\n      mstore\n      0x20\n      add\n      0x00\n      keccak256\n        /* \"ICO AFFILIATE/Copy_staker3lv.sol\":6066:6090  users[referrer].deposits */\n      0x00\n      add\n        /* \"ICO AFFILIATE/Copy_staker3lv.sol\":6066:6097  users[referrer].deposits.length */\n      dup1\n      sload\n      swap1\n      pop\n        /* \"ICO AFFILIATE/Copy_staker3lv.sol\":6066:6101  users[referrer].deposits.length > 0 */\n      gt\n        /* \"ICO AFFILIATE/Copy_staker3lv.sol\":6066:6127  users[referrer].deposits.length > 0 && referrer != msg.sender */\n      dup1\n      iszero\n      tag_334\n      jumpi\n      pop\n        /* \"ICO AFFILIATE/Copy_staker3lv.sol\":6117:6127  msg.sender */\n      caller\n        /* \"ICO AFFILIATE/Copy_staker3lv.sol\":6105:6127  referrer != msg.sender */\n      0xffffffffffffffffffffffffffffffffffffffff\n      and\n        /* \"ICO AFFILIATE/Copy_staker3lv.sol\":6105:6113  referrer */\n      dup6\n        /* \"ICO AFFILIATE/Copy_staker3lv.sol\":6105:6127  referrer != msg.sender */\n      0xffffffffffffffffffffffffffffffffffffffff\n      and\n      eq\n      iszero\n        /* \"ICO AFFILIATE/Copy_staker3lv.sol\":6066:6127  users[referrer].deposits.length > 0 && referrer != msg.sender */\n    tag_334:\n        /* \"ICO AFFILIATE/Copy_staker3lv.sol\":6062:6165  if (users[referrer].deposits.length > 0 && referrer != msg.sender) {... */\n      iszero\n      tag_335\n      jumpi\n        /* \"ICO AFFILIATE/Copy_staker3lv.sol\":6151:6159  referrer */\n      dup5\n        /* \"ICO AFFILIATE/Copy_staker3lv.sol\":6135:6139  user */\n      dup2\n        /* \"ICO AFFILIATE/Copy_staker3lv.sol\":6135:6148  user.referrer */\n      0x02\n      add\n      0x00\n        /* \"ICO AFFILIATE/Copy_staker3lv.sol\":6135:6159  user.referrer = referrer */\n      0x0100\n      exp\n      dup2\n      sload\n      dup2\n      0xffffffffffffffffffffffffffffffffffffffff\n      mul\n      not\n      and\n      swap1\n      dup4\n      0xffffffffffffffffffffffffffffffffffffffff\n      and\n      mul\n      or\n      swap1\n      sstore\n      pop\n        /* \"ICO AFFILIATE/Copy_staker3lv.sol\":6062:6165  if (users[referrer].deposits.length > 0 && referrer != msg.sender) {... */\n    tag_335:\n        /* \"ICO AFFILIATE/Copy_staker3lv.sol\":6170:6184  address upline */\n      0x00\n        /* \"ICO AFFILIATE/Copy_staker3lv.sol\":6187:6191  user */\n      dup2\n        /* \"ICO AFFILIATE/Copy_staker3lv.sol\":6187:6200  user.referrer */\n      0x02\n      add\n      0x00\n      swap1\n      sload\n      swap1\n      0x0100\n      exp\n      swap1\n      div\n      0xffffffffffffffffffffffffffffffffffffffff\n      and\n        /* \"ICO AFFILIATE/Copy_staker3lv.sol\":6170:6200  address upline = user.referrer */\n      swap1\n      pop\n        /* \"ICO AFFILIATE/Copy_staker3lv.sol\":6210:6219  uint256 i */\n      0x00\n        /* \"ICO AFFILIATE/Copy_staker3lv.sol\":6205:6394  for (uint256 i = 0; i < 3; i++) {... */\n    tag_336:\n        /* \"ICO AFFILIATE/Copy_staker3lv.sol\":6229:6230  3 */\n      0x03\n        /* \"ICO AFFILIATE/Copy_staker3lv.sol\":6225:6226  i */\n      dup2\n        /* \"ICO AFFILIATE/Copy_staker3lv.sol\":6225:6230  i < 3 */\n      lt\n        /* \"ICO AFFILIATE/Copy_staker3lv.sol\":6205:6394  for (uint256 i = 0; i < 3; i++) {... */\n      iszero\n      tag_337\n      jumpi\n        /* \"ICO AFFILIATE/Copy_staker3lv.sol\":6265:6266  0 */\n      0x00\n        /* \"ICO AFFILIATE/Copy_staker3lv.sol\":6247:6267  upline != address(0) */\n      0xffffffffffffffffffffffffffffffffffffffff\n      and\n        /* \"ICO AFFILIATE/Copy_staker3lv.sol\":6247:6253  upline */\n      dup3\n        /* \"ICO AFFILIATE/Copy_staker3lv.sol\":6247:6267  upline != address(0) */\n      0xffffffffffffffffffffffffffffffffffffffff\n      and\n      eq\n        /* \"ICO AFFILIATE/Copy_staker3lv.sol\":6243:6388  if (upline != address(0)) {... */\n      tag_339\n      jumpi\n        /* \"ICO AFFILIATE/Copy_staker3lv.sol\":6302:6332  users[upline].levels[i].add(1) */\n      tag_340\n        /* \"ICO AFFILIATE/Copy_staker3lv.sol\":6330:6331  1 */\n      0x01\n        /* \"ICO AFFILIATE/Copy_staker3lv.sol\":6302:6307  users */\n      0x10\n        /* \"ICO AFFILIATE/Copy_staker3lv.sol\":6302:6315  users[upline] */\n      0x00\n        /* \"ICO AFFILIATE/Copy_staker3lv.sol\":6308:6314  upline */\n      dup6\n        /* \"ICO AFFILIATE/Copy_staker3lv.sol\":6302:6315  users[upline] */\n      0xffffffffffffffffffffffffffffffffffffffff\n      and\n      0xffffffffffffffffffffffffffffffffffffffff\n      and\n      dup2\n      mstore\n      0x20\n      add\n      swap1\n      dup2\n      mstore\n      0x20\n      add\n      0x00\n      keccak256\n        /* \"ICO AFFILIATE/Copy_staker3lv.sol\":6302:6322  users[upline].levels */\n      0x03\n      add\n        /* \"ICO AFFILIATE/Copy_staker3lv.sol\":6323:6324  i */\n      dup4\n        /* \"ICO AFFILIATE/Copy_staker3lv.sol\":6302:6325  users[upline].levels[i] */\n      0x03\n      dup2\n      lt\n      tag_341\n      jumpi\n      invalid\n    tag_341:\n      add\n      sload\n        /* \"ICO AFFILIATE/Copy_staker3lv.sol\":6302:6329  users[upline].levels[i].add */\n      tag_283\n      swap1\n        /* \"ICO AFFILIATE/Copy_staker3lv.sol\":6302:6332  users[upline].levels[i].add(1) */\n      swap2\n      swap1\n      0xffffffff\n      and\n      jump\t// in\n    tag_340:\n        /* \"ICO AFFILIATE/Copy_staker3lv.sol\":6276:6281  users */\n      0x10\n        /* \"ICO AFFILIATE/Copy_staker3lv.sol\":6276:6289  users[upline] */\n      0x00\n        /* \"ICO AFFILIATE/Copy_staker3lv.sol\":6282:6288  upline */\n      dup5\n        /* \"ICO AFFILIATE/Copy_staker3lv.sol\":6276:6289  users[upline] */\n      0xffffffffffffffffffffffffffffffffffffffff\n      and\n      0xffffffffffffffffffffffffffffffffffffffff\n      and\n      dup2\n      mstore\n      0x20\n      add\n      swap1\n      dup2\n      mstore\n      0x20\n      add\n      0x00\n      keccak256\n        /* \"ICO AFFILIATE/Copy_staker3lv.sol\":6276:6296  users[upline].levels */\n      0x03\n      add\n        /* \"ICO AFFILIATE/Copy_staker3lv.sol\":6297:6298  i */\n      dup3\n        /* \"ICO AFFILIATE/Copy_staker3lv.sol\":6276:6299  users[upline].levels[i] */\n      0x03\n      dup2\n      lt\n      tag_343\n      jumpi\n      invalid\n    tag_343:\n      add\n        /* \"ICO AFFILIATE/Copy_staker3lv.sol\":6276:6332  users[upline].levels[i] = users[upline].levels[i].add(1) */\n      dup2\n      swap1\n      sstore\n      pop\n        /* \"ICO AFFILIATE/Copy_staker3lv.sol\":6348:6353  users */\n      0x10\n        /* \"ICO AFFILIATE/Copy_staker3lv.sol\":6348:6361  users[upline] */\n      0x00\n        /* \"ICO AFFILIATE/Copy_staker3lv.sol\":6354:6360  upline */\n      dup4\n        /* \"ICO AFFILIATE/Copy_staker3lv.sol\":6348:6361  users[upline] */\n      0xffffffffffffffffffffffffffffffffffffffff\n      and\n      0xffffffffffffffffffffffffffffffffffffffff\n      and\n      dup2\n      mstore\n      0x20\n      add\n      swap1\n      dup2\n      mstore\n      0x20\n      add\n      0x00\n      keccak256\n        /* \"ICO AFFILIATE/Copy_staker3lv.sol\":6348:6370  users[upline].referrer */\n      0x02\n      add\n      0x00\n      swap1\n      sload\n      swap1\n      0x0100\n      exp\n      swap1\n      div\n      0xffffffffffffffffffffffffffffffffffffffff\n      and\n        /* \"ICO AFFILIATE/Copy_staker3lv.sol\":6339:6370  upline = users[upline].referrer */\n      swap2\n      pop\n        /* \"ICO AFFILIATE/Copy_staker3lv.sol\":6243:6388  if (upline != address(0)) {... */\n      jump(tag_345)\n    tag_339:\n        /* \"ICO AFFILIATE/Copy_staker3lv.sol\":6383:6388  break */\n      jump(tag_337)\n        /* \"ICO AFFILIATE/Copy_staker3lv.sol\":6243:6388  if (upline != address(0)) {... */\n    tag_345:\n        /* \"ICO AFFILIATE/Copy_staker3lv.sol\":6232:6235  i++ */\n      dup1\n      dup1\n      0x01\n      add\n      swap2\n      pop\n      pop\n        /* \"ICO AFFILIATE/Copy_staker3lv.sol\":6205:6394  for (uint256 i = 0; i < 3; i++) {... */\n      jump(tag_336)\n    tag_337:\n      pop\n        /* \"ICO AFFILIATE/Copy_staker3lv.sol\":6024:6398  if (user.referrer == address(0)) {... */\n      pop\n    tag_333:\n        /* \"ICO AFFILIATE/Copy_staker3lv.sol\":6431:6432  0 */\n      0x00\n        /* \"ICO AFFILIATE/Copy_staker3lv.sol\":6406:6433  user.referrer != address(0) */\n      0xffffffffffffffffffffffffffffffffffffffff\n      and\n        /* \"ICO AFFILIATE/Copy_staker3lv.sol\":6406:6410  user */\n      dup2\n        /* \"ICO AFFILIATE/Copy_staker3lv.sol\":6406:6419  user.referrer */\n      0x02\n      add\n      0x00\n      swap1\n      sload\n      swap1\n      0x0100\n      exp\n      swap1\n      div\n      0xffffffffffffffffffffffffffffffffffffffff\n      and\n        /* \"ICO AFFILIATE/Copy_staker3lv.sol\":6406:6433  user.referrer != address(0) */\n      0xffffffffffffffffffffffffffffffffffffffff\n      and\n      eq\n        /* \"ICO AFFILIATE/Copy_staker3lv.sol\":6402:7181  if (user.referrer != address(0)) {... */\n      tag_346\n      jumpi\n        /* \"ICO AFFILIATE/Copy_staker3lv.sol\":6441:6455  address upline */\n      0x00\n        /* \"ICO AFFILIATE/Copy_staker3lv.sol\":6458:6462  user */\n      dup2\n        /* \"ICO AFFILIATE/Copy_staker3lv.sol\":6458:6471  user.referrer */\n      0x02\n      add\n      0x00\n      swap1\n      sload\n      swap1\n      0x0100\n      exp\n      swap1\n      div\n      0xffffffffffffffffffffffffffffffffffffffff\n      and\n        /* \"ICO AFFILIATE/Copy_staker3lv.sol\":6441:6471  address upline = user.referrer */\n      swap1\n      pop\n        /* \"ICO AFFILIATE/Copy_staker3lv.sol\":6481:6490  uint256 i */\n      0x00\n        /* \"ICO AFFILIATE/Copy_staker3lv.sol\":6476:7176  for (uint256 i = 0; i < 3; i++) {... */\n    tag_347:\n        /* \"ICO AFFILIATE/Copy_staker3lv.sol\":6500:6501  3 */\n      0x03\n        /* \"ICO AFFILIATE/Copy_staker3lv.sol\":6496:6497  i */\n      dup2\n        /* \"ICO AFFILIATE/Copy_staker3lv.sol\":6496:6501  i < 3 */\n      lt\n        /* \"ICO AFFILIATE/Copy_staker3lv.sol\":6476:7176  for (uint256 i = 0; i < 3; i++) {... */\n      iszero\n      tag_348\n      jumpi\n        /* \"ICO AFFILIATE/Copy_staker3lv.sol\":6536:6537  0 */\n      0x00\n        /* \"ICO AFFILIATE/Copy_staker3lv.sol\":6518:6538  upline != address(0) */\n      0xffffffffffffffffffffffffffffffffffffffff\n      and\n        /* \"ICO AFFILIATE/Copy_staker3lv.sol\":6518:6524  upline */\n      dup3\n        /* \"ICO AFFILIATE/Copy_staker3lv.sol\":6518:6538  upline != address(0) */\n      0xffffffffffffffffffffffffffffffffffffffff\n      and\n      eq\n        /* \"ICO AFFILIATE/Copy_staker3lv.sol\":6514:7170  if (upline != address(0)) {... */\n      tag_350\n      jumpi\n        /* \"ICO AFFILIATE/Copy_staker3lv.sol\":6547:6561  uint256 amount */\n      0x00\n        /* \"ICO AFFILIATE/Copy_staker3lv.sol\":6564:6621  msg.value.mul(REFERRAL_PERCENTS[i]).div(PERCENTS_DIVIDER) */\n      tag_351\n        /* \"ICO AFFILIATE/Copy_staker3lv.sol\":1734:1738  1000 */\n      0x03e8\n        /* \"ICO AFFILIATE/Copy_staker3lv.sol\":6564:6599  msg.value.mul(REFERRAL_PERCENTS[i]) */\n      tag_352\n        /* \"ICO AFFILIATE/Copy_staker3lv.sol\":6578:6595  REFERRAL_PERCENTS */\n      0x00\n        /* \"ICO AFFILIATE/Copy_staker3lv.sol\":6596:6597  i */\n      dup6\n        /* \"ICO AFFILIATE/Copy_staker3lv.sol\":6578:6598  REFERRAL_PERCENTS[i] */\n      dup2\n      sload\n      dup2\n      lt\n      tag_353\n      jumpi\n      invalid\n    tag_353:\n      swap1\n      0x00\n      mstore\n      keccak256(0x00, 0x20)\n      add\n      sload\n        /* \"ICO AFFILIATE/Copy_staker3lv.sol\":6564:6573  msg.value */\n      callvalue\n        /* \"ICO AFFILIATE/Copy_staker3lv.sol\":6564:6577  msg.value.mul */\n      tag_263\n      swap1\n        /* \"ICO AFFILIATE/Copy_staker3lv.sol\":6564:6599  msg.value.mul(REFERRAL_PERCENTS[i]) */\n      swap2\n      swap1\n      0xffffffff\n      and\n      jump\t// in\n    tag_352:\n        /* \"ICO AFFILIATE/Copy_staker3lv.sol\":6564:6603  msg.value.mul(REFERRAL_PERCENTS[i]).div */\n      tag_264\n      swap1\n        /* \"ICO AFFILIATE/Copy_staker3lv.sol\":6564:6621  msg.value.mul(REFERRAL_PERCENTS[i]).div(PERCENTS_DIVIDER) */\n      swap2\n      swap1\n      0xffffffff\n      and\n      jump\t// in\n    tag_351:\n        /* \"ICO AFFILIATE/Copy_staker3lv.sol\":6547:6621  uint256 amount = msg.value.mul(REFERRAL_PERCENTS[i]).div(PERCENTS_DIVIDER) */\n      swap1\n      pop\n        /* \"ICO AFFILIATE/Copy_staker3lv.sol\":6644:6669  projectAmount.sub(amount) */\n      tag_355\n        /* \"ICO AFFILIATE/Copy_staker3lv.sol\":6662:6668  amount */\n      dup2\n        /* \"ICO AFFILIATE/Copy_staker3lv.sol\":6644:6657  projectAmount */\n      dup7\n        /* \"ICO AFFILIATE/Copy_staker3lv.sol\":6644:6661  projectAmount.sub */\n      tag_282\n      swap1\n        /* \"ICO AFFILIATE/Copy_staker3lv.sol\":6644:6669  projectAmount.sub(amount) */\n      swap2\n      swap1\n      0xffffffff\n      and\n      jump\t// in\n    tag_355:\n        /* \"ICO AFFILIATE/Copy_staker3lv.sol\":6628:6669  projectAmount = projectAmount.sub(amount) */\n      swap5\n      pop\n        /* \"ICO AFFILIATE/Copy_staker3lv.sol\":6783:6814  users[upline].bonus.add(amount) */\n      tag_356\n        /* \"ICO AFFILIATE/Copy_staker3lv.sol\":6807:6813  amount */\n      dup2\n        /* \"ICO AFFILIATE/Copy_staker3lv.sol\":6783:6788  users */\n      0x10\n        /* \"ICO AFFILIATE/Copy_staker3lv.sol\":6783:6796  users[upline] */\n      0x00\n        /* \"ICO AFFILIATE/Copy_staker3lv.sol\":6789:6795  upline */\n      dup7\n        /* \"ICO AFFILIATE/Copy_staker3lv.sol\":6783:6796  users[upline] */\n      0xffffffffffffffffffffffffffffffffffffffff\n      and\n      0xffffffffffffffffffffffffffffffffffffffff\n      and\n      dup2\n      mstore\n      0x20\n      add\n      swap1\n      dup2\n      mstore\n      0x20\n      add\n      0x00\n      keccak256\n        /* \"ICO AFFILIATE/Copy_staker3lv.sol\":6783:6802  users[upline].bonus */\n      0x06\n      add\n      sload\n        /* \"ICO AFFILIATE/Copy_staker3lv.sol\":6783:6806  users[upline].bonus.add */\n      tag_283\n      swap1\n        /* \"ICO AFFILIATE/Copy_staker3lv.sol\":6783:6814  users[upline].bonus.add(amount) */\n      swap2\n      swap1\n      0xffffffff\n      and\n      jump\t// in\n    tag_356:\n        /* \"ICO AFFILIATE/Copy_staker3lv.sol\":6761:6766  users */\n      0x10\n        /* \"ICO AFFILIATE/Copy_staker3lv.sol\":6761:6774  users[upline] */\n      0x00\n        /* \"ICO AFFILIATE/Copy_staker3lv.sol\":6767:6773  upline */\n      dup6\n        /* \"ICO AFFILIATE/Copy_staker3lv.sol\":6761:6774  users[upline] */\n      0xffffffffffffffffffffffffffffffffffffffff\n      and\n      0xffffffffffffffffffffffffffffffffffffffff\n      and\n      dup2\n      mstore\n      0x20\n      add\n      swap1\n      dup2\n      mstore\n      0x20\n      add\n      0x00\n      keccak256\n        /* \"ICO AFFILIATE/Copy_staker3lv.sol\":6761:6780  users[upline].bonus */\n      0x06\n      add\n        /* \"ICO AFFILIATE/Copy_staker3lv.sol\":6761:6814  users[upline].bonus = users[upline].bonus.add(amount) */\n      dup2\n      swap1\n      sstore\n      pop\n        /* \"ICO AFFILIATE/Copy_staker3lv.sol\":6848:6884  users[upline].totalBonus.add(amount) */\n      tag_357\n        /* \"ICO AFFILIATE/Copy_staker3lv.sol\":6877:6883  amount */\n      dup2\n        /* \"ICO AFFILIATE/Copy_staker3lv.sol\":6848:6853  users */\n      0x10\n        /* \"ICO AFFILIATE/Copy_staker3lv.sol\":6848:6861  users[upline] */\n      0x00\n        /* \"ICO AFFILIATE/Copy_staker3lv.sol\":6854:6860  upline */\n      dup7\n        /* \"ICO AFFILIATE/Copy_staker3lv.sol\":6848:6861  users[upline] */\n      0xffffffffffffffffffffffffffffffffffffffff\n      and\n      0xffffffffffffffffffffffffffffffffffffffff\n      and\n      dup2\n      mstore\n      0x20\n      add\n      swap1\n      dup2\n      mstore\n      0x20\n      add\n      0x00\n      keccak256\n        /* \"ICO AFFILIATE/Copy_staker3lv.sol\":6848:6872  users[upline].totalBonus */\n      0x07\n      add\n      sload\n        /* \"ICO AFFILIATE/Copy_staker3lv.sol\":6848:6876  users[upline].totalBonus.add */\n      tag_283\n      swap1\n        /* \"ICO AFFILIATE/Copy_staker3lv.sol\":6848:6884  users[upline].totalBonus.add(amount) */\n      swap2\n      swap1\n      0xffffffff\n      and\n      jump\t// in\n    tag_357:\n        /* \"ICO AFFILIATE/Copy_staker3lv.sol\":6821:6826  users */\n      0x10\n        /* \"ICO AFFILIATE/Copy_staker3lv.sol\":6821:6834  users[upline] */\n      0x00\n        /* \"ICO AFFILIATE/Copy_staker3lv.sol\":6827:6833  upline */\n      dup6\n        /* \"ICO AFFILIATE/Copy_staker3lv.sol\":6821:6834  users[upline] */\n      0xffffffffffffffffffffffffffffffffffffffff\n      and\n      0xffffffffffffffffffffffffffffffffffffffff\n      and\n      dup2\n      mstore\n      0x20\n      add\n      swap1\n      dup2\n      mstore\n      0x20\n      add\n      0x00\n      keccak256\n        /* \"ICO AFFILIATE/Copy_staker3lv.sol\":6821:6845  users[upline].totalBonus */\n      0x07\n      add\n        /* \"ICO AFFILIATE/Copy_staker3lv.sol\":6821:6884  users[upline].totalBonus = users[upline].totalBonus.add(amount) */\n      dup2\n      swap1\n      sstore\n      pop\n        /* \"ICO AFFILIATE/Copy_staker3lv.sol\":6898:6918  bool transferSuccess */\n      0x00\n        /* \"ICO AFFILIATE/Copy_staker3lv.sol\":6924:6930  upline */\n      dup4\n        /* \"ICO AFFILIATE/Copy_staker3lv.sol\":6924:6935  upline.call */\n      0xffffffffffffffffffffffffffffffffffffffff\n      and\n        /* \"ICO AFFILIATE/Copy_staker3lv.sol\":6943:6949  amount */\n      dup3\n        /* \"ICO AFFILIATE/Copy_staker3lv.sol\":6924:6954  upline.call{value: amount}(\"\") */\n      mload(0x40)\n      dup1\n      0x00\n      add\n      swap1\n      pop\n      0x00\n      mload(0x40)\n      dup1\n      dup4\n      sub\n      dup2\n      dup6\n      dup8\n      gas\n      call\n      swap3\n      pop\n      pop\n      pop\n      returndatasize\n      dup1\n      0x00\n      dup2\n      eq\n      tag_360\n      jumpi\n      mload(0x40)\n      swap2\n      pop\n      and(add(returndatasize, 0x3f), not(0x1f))\n      dup3\n      add\n      0x40\n      mstore\n      returndatasize\n      dup3\n      mstore\n      returndatasize\n      0x00\n      0x20\n      dup5\n      add\n      returndatacopy\n      jump(tag_359)\n    tag_360:\n      0x60\n      swap2\n      pop\n    tag_359:\n      pop\n        /* \"ICO AFFILIATE/Copy_staker3lv.sol\":6897:6954  (bool transferSuccess, ) = upline.call{value: amount}(\"\") */\n      pop\n      swap1\n      pop\n        /* \"ICO AFFILIATE/Copy_staker3lv.sol\":6993:7008  transferSuccess */\n      dup1\n        /* \"ICO AFFILIATE/Copy_staker3lv.sol\":6985:7029  require(transferSuccess, \"Failed to Invest\") */\n      tag_361\n      jumpi\n      mload(0x40)\n      0x08c379a000000000000000000000000000000000000000000000000000000000\n      dup2\n      mstore\n      0x04\n      add\n      dup1\n      dup1\n      0x20\n      add\n      dup3\n      dup2\n      sub\n      dup3\n      mstore\n      0x10\n      dup2\n      mstore\n      0x20\n      add\n      dup1\n      0x4661696c656420746f20496e7665737400000000000000000000000000000000\n      dup2\n      mstore\n      pop\n      0x20\n      add\n      swap2\n      pop\n      pop\n      mload(0x40)\n      dup1\n      swap2\n      sub\n      swap1\n      revert\n    tag_361:\n        /* \"ICO AFFILIATE/Copy_staker3lv.sol\":7071:7072  i */\n      dup3\n        /* \"ICO AFFILIATE/Copy_staker3lv.sol\":7059:7069  msg.sender */\n      caller\n        /* \"ICO AFFILIATE/Copy_staker3lv.sol\":7042:7081  RefBonus(upline, msg.sender, i, amount) */\n      0xffffffffffffffffffffffffffffffffffffffff\n      and\n        /* \"ICO AFFILIATE/Copy_staker3lv.sol\":7051:7057  upline */\n      dup6\n        /* \"ICO AFFILIATE/Copy_staker3lv.sol\":7042:7081  RefBonus(upline, msg.sender, i, amount) */\n      0xffffffffffffffffffffffffffffffffffffffff\n      and\n      0xd41f7e766eebcc7ff42b11ac8691bdf864db4afc0c55e71d629d54edce460d98\n        /* \"ICO AFFILIATE/Copy_staker3lv.sol\":7074:7080  amount */\n      dup6\n        /* \"ICO AFFILIATE/Copy_staker3lv.sol\":7042:7081  RefBonus(upline, msg.sender, i, amount) */\n      mload(0x40)\n      dup1\n      dup3\n      dup2\n      mstore\n      0x20\n      add\n      swap2\n      pop\n      pop\n      mload(0x40)\n      dup1\n      swap2\n      sub\n      swap1\n      log4\n        /* \"ICO AFFILIATE/Copy_staker3lv.sol\":7099:7104  users */\n      0x10\n        /* \"ICO AFFILIATE/Copy_staker3lv.sol\":7099:7112  users[upline] */\n      0x00\n        /* \"ICO AFFILIATE/Copy_staker3lv.sol\":7105:7111  upline */\n      dup6\n        /* \"ICO AFFILIATE/Copy_staker3lv.sol\":7099:7112  users[upline] */\n      0xffffffffffffffffffffffffffffffffffffffff\n      and\n      0xffffffffffffffffffffffffffffffffffffffff\n      and\n      dup2\n      mstore\n      0x20\n      add\n      swap1\n      dup2\n      mstore\n      0x20\n      add\n      0x00\n      keccak256\n        /* \"ICO AFFILIATE/Copy_staker3lv.sol\":7099:7121  users[upline].referrer */\n      0x02\n      add\n      0x00\n      swap1\n      sload\n      swap1\n      0x0100\n      exp\n      swap1\n      div\n      0xffffffffffffffffffffffffffffffffffffffff\n      and\n        /* \"ICO AFFILIATE/Copy_staker3lv.sol\":7090:7121  upline = users[upline].referrer */\n      swap4\n      pop\n        /* \"ICO AFFILIATE/Copy_staker3lv.sol\":6514:7170  if (upline != address(0)) {... */\n      pop\n      pop\n      jump(tag_362)\n    tag_350:\n        /* \"ICO AFFILIATE/Copy_staker3lv.sol\":7165:7170  break */\n      jump(tag_348)\n        /* \"ICO AFFILIATE/Copy_staker3lv.sol\":6514:7170  if (upline != address(0)) {... */\n    tag_362:\n        /* \"ICO AFFILIATE/Copy_staker3lv.sol\":6503:6506  i++ */\n      dup1\n      dup1\n      0x01\n      add\n      swap2\n      pop\n      pop\n        /* \"ICO AFFILIATE/Copy_staker3lv.sol\":6476:7176  for (uint256 i = 0; i < 3; i++) {... */\n      jump(tag_347)\n    tag_348:\n      pop\n        /* \"ICO AFFILIATE/Copy_staker3lv.sol\":6402:7181  if (user.referrer != address(0)) {... */\n      pop\n    tag_346:\n        /* \"ICO AFFILIATE/Copy_staker3lv.sol\":7213:7214  0 */\n      0x00\n        /* \"ICO AFFILIATE/Copy_staker3lv.sol\":7189:7193  user */\n      dup2\n        /* \"ICO AFFILIATE/Copy_staker3lv.sol\":7189:7202  user.deposits */\n      0x00\n      add\n        /* \"ICO AFFILIATE/Copy_staker3lv.sol\":7189:7209  user.deposits.length */\n      dup1\n      sload\n      swap1\n      pop\n        /* \"ICO AFFILIATE/Copy_staker3lv.sol\":7189:7214  user.deposits.length == 0 */\n      eq\n        /* \"ICO AFFILIATE/Copy_staker3lv.sol\":7185:7287  if (user.deposits.length == 0) {... */\n      iszero\n      tag_363\n      jumpi\n        /* \"ICO AFFILIATE/Copy_staker3lv.sol\":7239:7254  block.timestamp */\n      timestamp\n        /* \"ICO AFFILIATE/Copy_staker3lv.sol\":7221:7225  user */\n      dup2\n        /* \"ICO AFFILIATE/Copy_staker3lv.sol\":7221:7236  user.checkpoint */\n      0x01\n      add\n        /* \"ICO AFFILIATE/Copy_staker3lv.sol\":7221:7254  user.checkpoint = block.timestamp */\n      dup2\n      swap1\n      sstore\n      pop\n        /* \"ICO AFFILIATE/Copy_staker3lv.sol\":7264:7282  Newbie(msg.sender) */\n      0x9fd565cd14c3c391679eb0cad12a14dcf7534e9d3462bcb9b67a098a9bbbc24a\n        /* \"ICO AFFILIATE/Copy_staker3lv.sol\":7271:7281  msg.sender */\n      caller\n        /* \"ICO AFFILIATE/Copy_staker3lv.sol\":7264:7282  Newbie(msg.sender) */\n      mload(0x40)\n      dup1\n      dup3\n      0xffffffffffffffffffffffffffffffffffffffff\n      and\n      dup2\n      mstore\n      0x20\n      add\n      swap2\n      pop\n      pop\n      mload(0x40)\n      dup1\n      swap2\n      sub\n      swap1\n      log1\n        /* \"ICO AFFILIATE/Copy_staker3lv.sol\":7185:7287  if (user.deposits.length == 0) {... */\n    tag_363:\n        /* \"ICO AFFILIATE/Copy_staker3lv.sol\":7292:7307  uint256 percent */\n      0x00\n        /* \"ICO AFFILIATE/Copy_staker3lv.sol\":7309:7323  uint256 profit */\n      dup1\n        /* \"ICO AFFILIATE/Copy_staker3lv.sol\":7325:7339  uint256 finish */\n      0x00\n        /* \"ICO AFFILIATE/Copy_staker3lv.sol\":7343:7369  getResult(plan, msg.value) */\n      tag_364\n        /* \"ICO AFFILIATE/Copy_staker3lv.sol\":7353:7357  plan */\n      dup8\n        /* \"ICO AFFILIATE/Copy_staker3lv.sol\":7359:7368  msg.value */\n      callvalue\n        /* \"ICO AFFILIATE/Copy_staker3lv.sol\":7343:7352  getResult */\n      tag_129\n        /* \"ICO AFFILIATE/Copy_staker3lv.sol\":7343:7369  getResult(plan, msg.value) */\n      jump\t// in\n    tag_364:\n        /* \"ICO AFFILIATE/Copy_staker3lv.sol\":7291:7369  (uint256 percent, uint256 profit, uint256 finish) = getResult(plan, msg.value) */\n      swap3\n      pop\n      swap3\n      pop\n      swap3\n      pop\n        /* \"ICO AFFILIATE/Copy_staker3lv.sol\":7373:7377  user */\n      dup4\n        /* \"ICO AFFILIATE/Copy_staker3lv.sol\":7373:7386  user.deposits */\n      0x00\n      add\n        /* \"ICO AFFILIATE/Copy_staker3lv.sol\":7392:7458  Deposit(plan, percent, msg.value, profit, block.timestamp, finish) */\n      mload(0x40)\n      dup1\n      0xc0\n      add\n      0x40\n      mstore\n      dup1\n        /* \"ICO AFFILIATE/Copy_staker3lv.sol\":7400:7404  plan */\n      dup10\n        /* \"ICO AFFILIATE/Copy_staker3lv.sol\":7392:7458  Deposit(plan, percent, msg.value, profit, block.timestamp, finish) */\n      0xff\n      and\n      dup2\n      mstore\n      0x20\n      add\n        /* \"ICO AFFILIATE/Copy_staker3lv.sol\":7406:7413  percent */\n      dup6\n        /* \"ICO AFFILIATE/Copy_staker3lv.sol\":7392:7458  Deposit(plan, percent, msg.value, profit, block.timestamp, finish) */\n      dup2\n      mstore\n      0x20\n      add\n        /* \"ICO AFFILIATE/Copy_staker3lv.sol\":7415:7424  msg.value */\n      callvalue\n        /* \"ICO AFFILIATE/Copy_staker3lv.sol\":7392:7458  Deposit(plan, percent, msg.value, profit, block.timestamp, finish) */\n      dup2\n      mstore\n      0x20\n      add\n        /* \"ICO AFFILIATE/Copy_staker3lv.sol\":7426:7432  profit */\n      dup5\n        /* \"ICO AFFILIATE/Copy_staker3lv.sol\":7392:7458  Deposit(plan, percent, msg.value, profit, block.timestamp, finish) */\n      dup2\n      mstore\n      0x20\n      add\n        /* \"ICO AFFILIATE/Copy_staker3lv.sol\":7434:7449  block.timestamp */\n      timestamp\n        /* \"ICO AFFILIATE/Copy_staker3lv.sol\":7392:7458  Deposit(plan, percent, msg.value, profit, block.timestamp, finish) */\n      dup2\n      mstore\n      0x20\n      add\n        /* \"ICO AFFILIATE/Copy_staker3lv.sol\":7451:7457  finish */\n      dup4\n        /* \"ICO AFFILIATE/Copy_staker3lv.sol\":7392:7458  Deposit(plan, percent, msg.value, profit, block.timestamp, finish) */\n      dup2\n      mstore\n      pop\n        /* \"ICO AFFILIATE/Copy_staker3lv.sol\":7373:7459  user.deposits.push(Deposit(plan, percent, msg.value, profit, block.timestamp, finish)) */\n      swap1\n      dup1\n      0x01\n      dup2\n      sload\n      add\n      dup1\n      dup3\n      sstore\n      dup1\n      swap2\n      pop\n      pop\n      0x01\n      swap1\n      sub\n      swap1\n      0x00\n      mstore\n      keccak256(0x00, 0x20)\n      swap1\n      0x06\n      mul\n      add\n      0x00\n      swap1\n      swap2\n      swap1\n      swap2\n      swap1\n      swap2\n      pop\n      0x00\n      dup3\n      add\n      mload\n      dup2\n      0x00\n      add\n      exp(0x0100, 0x00)\n      dup2\n      sload\n      dup2\n      0xff\n      mul\n      not\n      and\n      swap1\n      dup4\n      0xff\n      and\n      mul\n      or\n      swap1\n      sstore\n      pop\n      0x20\n      dup3\n      add\n      mload\n      dup2\n      0x01\n      add\n      sstore\n      0x40\n      dup3\n      add\n      mload\n      dup2\n      0x02\n      add\n      sstore\n      0x60\n      dup3\n      add\n      mload\n      dup2\n      0x03\n      add\n      sstore\n      0x80\n      dup3\n      add\n      mload\n      dup2\n      0x04\n      add\n      sstore\n      0xa0\n      dup3\n      add\n      mload\n      dup2\n      0x05\n      add\n      sstore\n      pop\n      pop\n        /* \"ICO AFFILIATE/Copy_staker3lv.sol\":7478:7504  totalStaked.add(msg.value) */\n      tag_366\n        /* \"ICO AFFILIATE/Copy_staker3lv.sol\":7494:7503  msg.value */\n      callvalue\n        /* \"ICO AFFILIATE/Copy_staker3lv.sol\":7478:7489  totalStaked */\n      sload(0x01)\n        /* \"ICO AFFILIATE/Copy_staker3lv.sol\":7478:7493  totalStaked.add */\n      tag_283\n      swap1\n        /* \"ICO AFFILIATE/Copy_staker3lv.sol\":7478:7504  totalStaked.add(msg.value) */\n      swap2\n      swap1\n      0xffffffff\n      and\n      jump\t// in\n    tag_366:\n        /* \"ICO AFFILIATE/Copy_staker3lv.sol\":7464:7475  totalStaked */\n      0x01\n        /* \"ICO AFFILIATE/Copy_staker3lv.sol\":7464:7504  totalStaked = totalStaked.add(msg.value) */\n      dup2\n      swap1\n      sstore\n      pop\n        /* \"ICO AFFILIATE/Copy_staker3lv.sol\":7524:7534  msg.sender */\n      caller\n        /* \"ICO AFFILIATE/Copy_staker3lv.sol\":7513:7594  NewDeposit(msg.sender, plan, percent, msg.value, profit, block.timestamp, finish) */\n      0xffffffffffffffffffffffffffffffffffffffff\n      and\n      0x84e02daa69bdb087c9fe8d3041abca495512cb14e723070f6d1d4efface82e5d\n        /* \"ICO AFFILIATE/Copy_staker3lv.sol\":7536:7540  plan */\n      dup9\n        /* \"ICO AFFILIATE/Copy_staker3lv.sol\":7542:7549  percent */\n      dup6\n        /* \"ICO AFFILIATE/Copy_staker3lv.sol\":7551:7560  msg.value */\n      callvalue\n        /* \"ICO AFFILIATE/Copy_staker3lv.sol\":7562:7568  profit */\n      dup7\n        /* \"ICO AFFILIATE/Copy_staker3lv.sol\":7570:7585  block.timestamp */\n      timestamp\n        /* \"ICO AFFILIATE/Copy_staker3lv.sol\":7587:7593  finish */\n      dup8\n        /* \"ICO AFFILIATE/Copy_staker3lv.sol\":7513:7594  NewDeposit(msg.sender, plan, percent, msg.value, profit, block.timestamp, finish) */\n      mload(0x40)\n      dup1\n      dup8\n      0xff\n      and\n      dup2\n      mstore\n      0x20\n      add\n      dup7\n      dup2\n      mstore\n      0x20\n      add\n      dup6\n      dup2\n      mstore\n      0x20\n      add\n      dup5\n      dup2\n      mstore\n      0x20\n      add\n      dup4\n      dup2\n      mstore\n      0x20\n      add\n      dup3\n      dup2\n      mstore\n      0x20\n      add\n      swap7\n      pop\n      pop\n      pop\n      pop\n      pop\n      pop\n      pop\n      mload(0x40)\n      dup1\n      swap2\n      sub\n      swap1\n      log2\n        /* \"ICO AFFILIATE/Copy_staker3lv.sol\":7645:7658  State.RUNNING */\n      0x01\n        /* \"ICO AFFILIATE/Copy_staker3lv.sol\":7633:7658  ICOState == State.RUNNING */\n      0x03\n      dup2\n      gt\n      iszero\n      tag_367\n      jumpi\n      invalid\n    tag_367:\n        /* \"ICO AFFILIATE/Copy_staker3lv.sol\":7633:7641  ICOState */\n      0x0e\n      0x00\n      swap1\n      sload\n      swap1\n      0x0100\n      exp\n      swap1\n      div\n      0xff\n      and\n        /* \"ICO AFFILIATE/Copy_staker3lv.sol\":7633:7658  ICOState == State.RUNNING */\n      0x03\n      dup2\n      gt\n      iszero\n      tag_368\n      jumpi\n      invalid\n    tag_368:\n      eq\n        /* \"ICO AFFILIATE/Copy_staker3lv.sol\":7625:7680  require(ICOState == State.RUNNING, \"ICO isn't running\") */\n      tag_369\n      jumpi\n      mload(0x40)\n      0x08c379a000000000000000000000000000000000000000000000000000000000\n      dup2\n      mstore\n      0x04\n      add\n      dup1\n      dup1\n      0x20\n      add\n      dup3\n      dup2\n      sub\n      dup3\n      mstore\n      0x11\n      dup2\n      mstore\n      0x20\n      add\n      dup1\n      0x49434f2069736e27742072756e6e696e67000000000000000000000000000000\n      dup2\n      mstore\n      pop\n      0x20\n      add\n      swap2\n      pop\n      pop\n      mload(0x40)\n      dup1\n      swap2\n      sub\n      swap1\n      revert\n    tag_369:\n        /* \"ICO AFFILIATE/Copy_staker3lv.sol\":7724:7737  minInvestment */\n      sload(0x09)\n        /* \"ICO AFFILIATE/Copy_staker3lv.sol\":7711:7720  msg.value */\n      callvalue\n        /* \"ICO AFFILIATE/Copy_staker3lv.sol\":7711:7737  msg.value >= minInvestment */\n      lt\n      iszero\n        /* \"ICO AFFILIATE/Copy_staker3lv.sol\":7711:7767  msg.value >= minInvestment && msg.value <= maxInvestment */\n      dup1\n      iszero\n      tag_370\n      jumpi\n      pop\n        /* \"ICO AFFILIATE/Copy_staker3lv.sol\":7754:7767  maxInvestment */\n      sload(0x0a)\n        /* \"ICO AFFILIATE/Copy_staker3lv.sol\":7741:7750  msg.value */\n      callvalue\n        /* \"ICO AFFILIATE/Copy_staker3lv.sol\":7741:7767  msg.value <= maxInvestment */\n      gt\n      iszero\n        /* \"ICO AFFILIATE/Copy_staker3lv.sol\":7711:7767  msg.value >= minInvestment && msg.value <= maxInvestment */\n    tag_370:\n        /* \"ICO AFFILIATE/Copy_staker3lv.sol\":7690:7821  require(... */\n      tag_371\n      jumpi\n      mload(0x40)\n      0x08c379a000000000000000000000000000000000000000000000000000000000\n      dup2\n      mstore\n      0x04\n      add\n      dup1\n      dup1\n      0x20\n      add\n      dup3\n      dup2\n      sub\n      dup3\n      mstore\n      0x1c\n      dup2\n      mstore\n      0x20\n      add\n      dup1\n      0x436865636b204d696e20616e64204d617820496e766573746d656e7400000000\n      dup2\n      mstore\n      pop\n      0x20\n      add\n      swap2\n      pop\n      pop\n      mload(0x40)\n      dup1\n      swap2\n      sub\n      swap1\n      revert\n    tag_371:\n        /* \"ICO AFFILIATE/Copy_staker3lv.sol\":7896:7909  maxInvestment */\n      sload(0x0a)\n        /* \"ICO AFFILIATE/Copy_staker3lv.sol\":7883:7892  msg.value */\n      callvalue\n        /* \"ICO AFFILIATE/Copy_staker3lv.sol\":7852:7868  investedAmountOf */\n      0x0d\n        /* \"ICO AFFILIATE/Copy_staker3lv.sol\":7852:7880  investedAmountOf[msg.sender] */\n      0x00\n        /* \"ICO AFFILIATE/Copy_staker3lv.sol\":7869:7879  msg.sender */\n      caller\n        /* \"ICO AFFILIATE/Copy_staker3lv.sol\":7852:7880  investedAmountOf[msg.sender] */\n      0xffffffffffffffffffffffffffffffffffffffff\n      and\n      0xffffffffffffffffffffffffffffffffffffffff\n      and\n      dup2\n      mstore\n      0x20\n      add\n      swap1\n      dup2\n      mstore\n      0x20\n      add\n      0x00\n      keccak256\n      sload\n        /* \"ICO AFFILIATE/Copy_staker3lv.sol\":7852:7892  investedAmountOf[msg.sender] + msg.value */\n      add\n        /* \"ICO AFFILIATE/Copy_staker3lv.sol\":7852:7909  investedAmountOf[msg.sender] + msg.value <= maxInvestment */\n      gt\n      iszero\n        /* \"ICO AFFILIATE/Copy_staker3lv.sol\":7831:7977  require(... */\n      tag_372\n      jumpi\n      mload(0x40)\n      0x08c379a000000000000000000000000000000000000000000000000000000000\n      dup2\n      mstore\n      0x04\n      add\n      dup1\n      dup1\n      0x20\n      add\n      dup3\n      dup2\n      sub\n      dup3\n      mstore\n      0x2a\n      dup2\n      mstore\n      0x20\n      add\n      dup1\n      data_b19041b147863dd1e2485ec122191c4070e71be557889d8f39b29cf78e2bf81d\n      0x2a\n      swap2\n      codecopy\n      0x40\n      add\n      swap2\n      pop\n      pop\n      mload(0x40)\n      dup1\n      swap2\n      sub\n      swap1\n      revert\n    tag_372:\n        /* \"ICO AFFILIATE/Copy_staker3lv.sol\":8037:8044  hardCap */\n      sload(0x07)\n        /* \"ICO AFFILIATE/Copy_staker3lv.sol\":8024:8033  msg.value */\n      callvalue\n        /* \"ICO AFFILIATE/Copy_staker3lv.sol\":8009:8021  raisedAmount */\n      sload(0x08)\n        /* \"ICO AFFILIATE/Copy_staker3lv.sol\":8009:8033  raisedAmount + msg.value */\n      add\n        /* \"ICO AFFILIATE/Copy_staker3lv.sol\":8009:8044  raisedAmount + msg.value <= hardCap */\n      gt\n      iszero\n        /* \"ICO AFFILIATE/Copy_staker3lv.sol\":7988:8095  require(... */\n      tag_373\n      jumpi\n      mload(0x40)\n      0x08c379a000000000000000000000000000000000000000000000000000000000\n      dup2\n      mstore\n      0x04\n      add\n      dup1\n      dup1\n      0x20\n      add\n      dup3\n      dup2\n      sub\n      dup3\n      mstore\n      0x19\n      dup2\n      mstore\n      0x20\n      add\n      dup1\n      0x53656e642077697468696e20686172646361702072616e676500000000000000\n      dup2\n      mstore\n      pop\n      0x20\n      add\n      swap2\n      pop\n      pop\n      mload(0x40)\n      dup1\n      swap2\n      sub\n      swap1\n      revert\n    tag_373:\n        /* \"ICO AFFILIATE/Copy_staker3lv.sol\":8145:8155  icoEndTime */\n      sload(0x0c)\n        /* \"ICO AFFILIATE/Copy_staker3lv.sol\":8126:8141  block.timestamp */\n      timestamp\n        /* \"ICO AFFILIATE/Copy_staker3lv.sol\":8126:8155  block.timestamp <= icoEndTime */\n      gt\n      iszero\n        /* \"ICO AFFILIATE/Copy_staker3lv.sol\":8105:8219  require(... */\n      tag_374\n      jumpi\n      mload(0x40)\n      0x08c379a000000000000000000000000000000000000000000000000000000000\n      dup2\n      mstore\n      0x04\n      add\n      dup1\n      dup1\n      0x20\n      add\n      dup3\n      dup2\n      sub\n      dup3\n      mstore\n      0x26\n      dup2\n      mstore\n      0x20\n      add\n      dup1\n      data_f13fcb773ad89e9f621cb28d77b09fbd23fdcc64ec1eb1ebce4ad7e788cdc486\n      0x26\n      swap2\n      codecopy\n      0x40\n      add\n      swap2\n      pop\n      pop\n      mload(0x40)\n      dup1\n      swap2\n      sub\n      swap1\n      revert\n    tag_374:\n        /* \"ICO AFFILIATE/Copy_staker3lv.sol\":8246:8255  msg.value */\n      callvalue\n        /* \"ICO AFFILIATE/Copy_staker3lv.sol\":8230:8242  raisedAmount */\n      0x08\n      0x00\n        /* \"ICO AFFILIATE/Copy_staker3lv.sol\":8230:8255  raisedAmount += msg.value */\n      dup3\n      dup3\n      sload\n      add\n      swap3\n      pop\n      pop\n      dup2\n      swap1\n      sstore\n      pop\n        /* \"ICO AFFILIATE/Copy_staker3lv.sol\":8297:8306  msg.value */\n      callvalue\n        /* \"ICO AFFILIATE/Copy_staker3lv.sol\":8265:8281  investedAmountOf */\n      0x0d\n        /* \"ICO AFFILIATE/Copy_staker3lv.sol\":8265:8293  investedAmountOf[msg.sender] */\n      0x00\n        /* \"ICO AFFILIATE/Copy_staker3lv.sol\":8282:8292  msg.sender */\n      caller\n        /* \"ICO AFFILIATE/Copy_staker3lv.sol\":8265:8293  investedAmountOf[msg.sender] */\n      0xffffffffffffffffffffffffffffffffffffffff\n      and\n      0xffffffffffffffffffffffffffffffffffffffff\n      and\n      dup2\n      mstore\n      0x20\n      add\n      swap1\n      dup2\n      mstore\n      0x20\n      add\n      0x00\n      keccak256\n      0x00\n        /* \"ICO AFFILIATE/Copy_staker3lv.sol\":8265:8306  investedAmountOf[msg.sender] += msg.value */\n      dup3\n      dup3\n      sload\n      add\n      swap3\n      pop\n      pop\n      dup2\n      swap1\n      sstore\n      pop\n        /* \"ICO AFFILIATE/Copy_staker3lv.sol\":8318:8338  bool transferSuccess */\n      0x00\n        /* \"ICO AFFILIATE/Copy_staker3lv.sol\":8344:8353  ICOWallet */\n      0x04\n      0x00\n      swap1\n      sload\n      swap1\n      0x0100\n      exp\n      swap1\n      div\n      0xffffffffffffffffffffffffffffffffffffffff\n      and\n        /* \"ICO AFFILIATE/Copy_staker3lv.sol\":8344:8358  ICOWallet.call */\n      0xffffffffffffffffffffffffffffffffffffffff\n      and\n        /* \"ICO AFFILIATE/Copy_staker3lv.sol\":8366:8379  projectAmount */\n      dup7\n        /* \"ICO AFFILIATE/Copy_staker3lv.sol\":8344:8384  ICOWallet.call{value: projectAmount}(\"\") */\n      mload(0x40)\n      dup1\n      0x00\n      add\n      swap1\n      pop\n      0x00\n      mload(0x40)\n      dup1\n      dup4\n      sub\n      dup2\n      dup6\n      dup8\n      gas\n      call\n      swap3\n      pop\n      pop\n      pop\n      returndatasize\n      dup1\n      0x00\n      dup2\n      eq\n      tag_377\n      jumpi\n      mload(0x40)\n      swap2\n      pop\n      and(add(returndatasize, 0x3f), not(0x1f))\n      dup3\n      add\n      0x40\n      mstore\n      returndatasize\n      dup3\n      mstore\n      returndatasize\n      0x00\n      0x20\n      dup5\n      add\n      returndatacopy\n      jump(tag_376)\n    tag_377:\n      0x60\n      swap2\n      pop\n    tag_376:\n      pop\n        /* \"ICO AFFILIATE/Copy_staker3lv.sol\":8317:8384  (bool transferSuccess, ) = ICOWallet.call{value: projectAmount}(\"\") */\n      pop\n      swap1\n      pop\n        /* \"ICO AFFILIATE/Copy_staker3lv.sol\":8402:8417  transferSuccess */\n      dup1\n        /* \"ICO AFFILIATE/Copy_staker3lv.sol\":8394:8438  require(transferSuccess, \"Failed to Invest\") */\n      tag_378\n      jumpi\n      mload(0x40)\n      0x08c379a000000000000000000000000000000000000000000000000000000000\n      dup2\n      mstore\n      0x04\n      add\n      dup1\n      dup1\n      0x20\n      add\n      dup3\n      dup2\n      sub\n      dup3\n      mstore\n      0x10\n      dup2\n      mstore\n      0x20\n      add\n      dup1\n      0x4661696c656420746f20496e7665737400000000000000000000000000000000\n      dup2\n      mstore\n      pop\n      0x20\n      add\n      swap2\n      pop\n      pop\n      mload(0x40)\n      dup1\n      swap2\n      sub\n      swap1\n      revert\n    tag_378:\n        /* \"ICO AFFILIATE/Copy_staker3lv.sol\":8449:8460  uint tokens */\n      0x00\n        /* \"ICO AFFILIATE/Copy_staker3lv.sol\":8490:8494  1e18 */\n      0x0de0b6b3a7640000\n        /* \"ICO AFFILIATE/Copy_staker3lv.sol\":8476:8486  tokenPrice */\n      sload(0x06)\n        /* \"ICO AFFILIATE/Copy_staker3lv.sol\":8464:8473  msg.value */\n      callvalue\n        /* \"ICO AFFILIATE/Copy_staker3lv.sol\":8464:8486  msg.value / tokenPrice */\n      dup2\n      tag_379\n      jumpi\n      invalid\n    tag_379:\n      div\n        /* \"ICO AFFILIATE/Copy_staker3lv.sol\":8463:8494  (msg.value / tokenPrice) * 1e18 */\n      mul\n        /* \"ICO AFFILIATE/Copy_staker3lv.sol\":8449:8494  uint tokens = (msg.value / tokenPrice) * 1e18 */\n      swap1\n      pop\n        /* \"ICO AFFILIATE/Copy_staker3lv.sol\":8504:8520  bool saleSuccess */\n      0x00\n        /* \"ICO AFFILIATE/Copy_staker3lv.sol\":8523:8528  token */\n      0x05\n      0x00\n      swap1\n      sload\n      swap1\n      0x0100\n      exp\n      swap1\n      div\n      0xffffffffffffffffffffffffffffffffffffffff\n      and\n        /* \"ICO AFFILIATE/Copy_staker3lv.sol\":8523:8537  token.transfer */\n      0xffffffffffffffffffffffffffffffffffffffff\n      and\n      0xa9059cbb\n        /* \"ICO AFFILIATE/Copy_staker3lv.sol\":8538:8548  msg.sender */\n      caller\n        /* \"ICO AFFILIATE/Copy_staker3lv.sol\":8550:8556  tokens */\n      dup5\n        /* \"ICO AFFILIATE/Copy_staker3lv.sol\":8523:8557  token.transfer(msg.sender, tokens) */\n      mload(0x40)\n      dup4\n      0xffffffff\n      and\n      0xe0\n      shl\n      dup2\n      mstore\n      0x04\n      add\n      dup1\n      dup4\n      0xffffffffffffffffffffffffffffffffffffffff\n      and\n      dup2\n      mstore\n      0x20\n      add\n      dup3\n      dup2\n      mstore\n      0x20\n      add\n      swap3\n      pop\n      pop\n      pop\n      0x20\n      mload(0x40)\n      dup1\n      dup4\n      sub\n      dup2\n      0x00\n      dup8\n      dup1\n      extcodesize\n      iszero\n      dup1\n      iszero\n      tag_380\n      jumpi\n      0x00\n      dup1\n      revert\n    tag_380:\n      pop\n      gas\n      call\n      iszero\n      dup1\n      iszero\n      tag_382\n      jumpi\n      returndatasize\n      0x00\n      dup1\n      returndatacopy\n      revert(0x00, returndatasize)\n    tag_382:\n      pop\n      pop\n      pop\n      pop\n      mload(0x40)\n      returndatasize\n      0x20\n      dup2\n      lt\n      iszero\n      tag_383\n      jumpi\n      0x00\n      dup1\n      revert\n    tag_383:\n      dup2\n      add\n      swap1\n      dup1\n      dup1\n      mload\n      swap1\n      0x20\n      add\n      swap1\n      swap3\n      swap2\n      swap1\n      pop\n      pop\n      pop\n        /* \"ICO AFFILIATE/Copy_staker3lv.sol\":8504:8557  bool saleSuccess = token.transfer(msg.sender, tokens) */\n      swap1\n      pop\n        /* \"ICO AFFILIATE/Copy_staker3lv.sol\":8575:8586  saleSuccess */\n      dup1\n        /* \"ICO AFFILIATE/Copy_staker3lv.sol\":8567:8607  require(saleSuccess, \"Failed to Invest\") */\n      tag_384\n      jumpi\n      mload(0x40)\n      0x08c379a000000000000000000000000000000000000000000000000000000000\n      dup2\n      mstore\n      0x04\n      add\n      dup1\n      dup1\n      0x20\n      add\n      dup3\n      dup2\n      sub\n      dup3\n      mstore\n      0x10\n      dup2\n      mstore\n      0x20\n      add\n      dup1\n      0x4661696c656420746f20496e7665737400000000000000000000000000000000\n      dup2\n      mstore\n      pop\n      0x20\n      add\n      swap2\n      pop\n      pop\n      mload(0x40)\n      dup1\n      swap2\n      sub\n      swap1\n      revert\n    tag_384:\n        /* \"ICO AFFILIATE/Copy_staker3lv.sol\":8645:8655  msg.sender */\n      caller\n        /* \"ICO AFFILIATE/Copy_staker3lv.sol\":8623:8675  Invest(address(this), msg.sender, msg.value, tokens) */\n      0xffffffffffffffffffffffffffffffffffffffff\n      and\n        /* \"ICO AFFILIATE/Copy_staker3lv.sol\":8638:8642  this */\n      address\n        /* \"ICO AFFILIATE/Copy_staker3lv.sol\":8623:8675  Invest(address(this), msg.sender, msg.value, tokens) */\n      0xffffffffffffffffffffffffffffffffffffffff\n      and\n      0x2e206bbdd5787cd6d3e97144dec044f9f15dd77a257afd27fa70cad6f03feae3\n        /* \"ICO AFFILIATE/Copy_staker3lv.sol\":8657:8666  msg.value */\n      callvalue\n        /* \"ICO AFFILIATE/Copy_staker3lv.sol\":8668:8674  tokens */\n      dup6\n        /* \"ICO AFFILIATE/Copy_staker3lv.sol\":8623:8675  Invest(address(this), msg.sender, msg.value, tokens) */\n      mload(0x40)\n      dup1\n      dup4\n      dup2\n      mstore\n      0x20\n      add\n      dup3\n      dup2\n      mstore\n      0x20\n      add\n      swap3\n      pop\n      pop\n      pop\n      mload(0x40)\n      dup1\n      swap2\n      sub\n      swap1\n      log3\n        /* \"ICO AFFILIATE/Copy_staker3lv.sol\":8692:8696  true */\n      0x01\n        /* \"ICO AFFILIATE/Copy_staker3lv.sol\":8685:8696  return true */\n      swap9\n      pop\n      pop\n      pop\n      pop\n      pop\n      pop\n      pop\n      pop\n      pop\n        /* \"ICO AFFILIATE/Copy_staker3lv.sol\":5610:8700  function invest(address referrer, uint8 plan) public payable returns (bool){... */\n      swap3\n      swap2\n      pop\n      pop\n      jump\t// out\n        /* \"ICO AFFILIATE/Copy_staker3lv.sol\":9962:10446  function getResult(uint8 plan, uint256 deposit) public view returns (uint256 percent, uint256 profit, uint256 finish) {... */\n    tag_129:\n        /* \"ICO AFFILIATE/Copy_staker3lv.sol\":10031:10046  uint256 percent */\n      0x00\n        /* \"ICO AFFILIATE/Copy_staker3lv.sol\":10048:10062  uint256 profit */\n      dup1\n        /* \"ICO AFFILIATE/Copy_staker3lv.sol\":10064:10078  uint256 finish */\n      0x00\n        /* \"ICO AFFILIATE/Copy_staker3lv.sol\":10094:10110  getPercent(plan) */\n      tag_386\n        /* \"ICO AFFILIATE/Copy_staker3lv.sol\":10105:10109  plan */\n      dup6\n        /* \"ICO AFFILIATE/Copy_staker3lv.sol\":10094:10104  getPercent */\n      tag_187\n        /* \"ICO AFFILIATE/Copy_staker3lv.sol\":10094:10110  getPercent(plan) */\n      jump\t// in\n    tag_386:\n        /* \"ICO AFFILIATE/Copy_staker3lv.sol\":10084:10110  percent = getPercent(plan) */\n      swap3\n      pop\n        /* \"ICO AFFILIATE/Copy_staker3lv.sol\":10126:10127  3 */\n      0x03\n        /* \"ICO AFFILIATE/Copy_staker3lv.sol\":10119:10123  plan */\n      dup6\n        /* \"ICO AFFILIATE/Copy_staker3lv.sol\":10119:10127  plan < 3 */\n      0xff\n      and\n      lt\n        /* \"ICO AFFILIATE/Copy_staker3lv.sol\":10115:10377  if (plan < 3) {... */\n      iszero\n      tag_387\n      jumpi\n        /* \"ICO AFFILIATE/Copy_staker3lv.sol\":10143:10207  deposit.mul(percent).div(PERCENTS_DIVIDER).mul(plans[plan].time) */\n      tag_388\n        /* \"ICO AFFILIATE/Copy_staker3lv.sol\":10190:10195  plans */\n      0x0f\n        /* \"ICO AFFILIATE/Copy_staker3lv.sol\":10196:10200  plan */\n      dup7\n        /* \"ICO AFFILIATE/Copy_staker3lv.sol\":10190:10201  plans[plan] */\n      0xff\n      and\n      dup2\n      sload\n      dup2\n      lt\n      tag_389\n      jumpi\n      invalid\n    tag_389:\n      swap1\n      0x00\n      mstore\n      keccak256(0x00, 0x20)\n      swap1\n      0x02\n      mul\n      add\n        /* \"ICO AFFILIATE/Copy_staker3lv.sol\":10190:10206  plans[plan].time */\n      0x00\n      add\n      sload\n        /* \"ICO AFFILIATE/Copy_staker3lv.sol\":10143:10185  deposit.mul(percent).div(PERCENTS_DIVIDER) */\n      tag_391\n        /* \"ICO AFFILIATE/Copy_staker3lv.sol\":1734:1738  1000 */\n      0x03e8\n        /* \"ICO AFFILIATE/Copy_staker3lv.sol\":10143:10163  deposit.mul(percent) */\n      tag_392\n        /* \"ICO AFFILIATE/Copy_staker3lv.sol\":10155:10162  percent */\n      dup8\n        /* \"ICO AFFILIATE/Copy_staker3lv.sol\":10143:10150  deposit */\n      dup10\n        /* \"ICO AFFILIATE/Copy_staker3lv.sol\":10143:10154  deposit.mul */\n      tag_263\n      swap1\n        /* \"ICO AFFILIATE/Copy_staker3lv.sol\":10143:10163  deposit.mul(percent) */\n      swap2\n      swap1\n      0xffffffff\n      and\n      jump\t// in\n    tag_392:\n        /* \"ICO AFFILIATE/Copy_staker3lv.sol\":10143:10167  deposit.mul(percent).div */\n      tag_264\n      swap1\n        /* \"ICO AFFILIATE/Copy_staker3lv.sol\":10143:10185  deposit.mul(percent).div(PERCENTS_DIVIDER) */\n      swap2\n      swap1\n      0xffffffff\n      and\n      jump\t// in\n    tag_391:\n        /* \"ICO AFFILIATE/Copy_staker3lv.sol\":10143:10189  deposit.mul(percent).div(PERCENTS_DIVIDER).mul */\n      tag_263\n      swap1\n        /* \"ICO AFFILIATE/Copy_staker3lv.sol\":10143:10207  deposit.mul(percent).div(PERCENTS_DIVIDER).mul(plans[plan].time) */\n      swap2\n      swap1\n      0xffffffff\n      and\n      jump\t// in\n    tag_388:\n        /* \"ICO AFFILIATE/Copy_staker3lv.sol\":10134:10207  profit = deposit.mul(percent).div(PERCENTS_DIVIDER).mul(plans[plan].time) */\n      swap2\n      pop\n        /* \"ICO AFFILIATE/Copy_staker3lv.sol\":10115:10377  if (plan < 3) {... */\n      jump(tag_393)\n    tag_387:\n        /* \"ICO AFFILIATE/Copy_staker3lv.sol\":10229:10230  6 */\n      0x06\n        /* \"ICO AFFILIATE/Copy_staker3lv.sol\":10222:10226  plan */\n      dup6\n        /* \"ICO AFFILIATE/Copy_staker3lv.sol\":10222:10230  plan < 6 */\n      0xff\n      and\n      lt\n        /* \"ICO AFFILIATE/Copy_staker3lv.sol\":10218:10377  if (plan < 6) {... */\n      iszero\n      tag_394\n      jumpi\n        /* \"ICO AFFILIATE/Copy_staker3lv.sol\":10242:10251  uint256 i */\n      0x00\n        /* \"ICO AFFILIATE/Copy_staker3lv.sol\":10237:10373  for (uint256 i = 0; i < plans[plan].time; i++) {... */\n    tag_395:\n        /* \"ICO AFFILIATE/Copy_staker3lv.sol\":10261:10266  plans */\n      0x0f\n        /* \"ICO AFFILIATE/Copy_staker3lv.sol\":10267:10271  plan */\n      dup7\n        /* \"ICO AFFILIATE/Copy_staker3lv.sol\":10261:10272  plans[plan] */\n      0xff\n      and\n      dup2\n      sload\n      dup2\n      lt\n      tag_398\n      jumpi\n      invalid\n    tag_398:\n      swap1\n      0x00\n      mstore\n      keccak256(0x00, 0x20)\n      swap1\n      0x02\n      mul\n      add\n        /* \"ICO AFFILIATE/Copy_staker3lv.sol\":10261:10277  plans[plan].time */\n      0x00\n      add\n      sload\n        /* \"ICO AFFILIATE/Copy_staker3lv.sol\":10257:10258  i */\n      dup2\n        /* \"ICO AFFILIATE/Copy_staker3lv.sol\":10257:10277  i < plans[plan].time */\n      lt\n        /* \"ICO AFFILIATE/Copy_staker3lv.sol\":10237:10373  for (uint256 i = 0; i < plans[plan].time; i++) {... */\n      iszero\n      tag_396\n      jumpi\n        /* \"ICO AFFILIATE/Copy_staker3lv.sol\":10299:10367  profit.add((deposit.add(profit)).mul(percent).div(PERCENTS_DIVIDER)) */\n      tag_400\n        /* \"ICO AFFILIATE/Copy_staker3lv.sol\":10310:10366  (deposit.add(profit)).mul(percent).div(PERCENTS_DIVIDER) */\n      tag_401\n        /* \"ICO AFFILIATE/Copy_staker3lv.sol\":1734:1738  1000 */\n      0x03e8\n        /* \"ICO AFFILIATE/Copy_staker3lv.sol\":10310:10344  (deposit.add(profit)).mul(percent) */\n      tag_402\n        /* \"ICO AFFILIATE/Copy_staker3lv.sol\":10336:10343  percent */\n      dup8\n        /* \"ICO AFFILIATE/Copy_staker3lv.sol\":10311:10330  deposit.add(profit) */\n      tag_403\n        /* \"ICO AFFILIATE/Copy_staker3lv.sol\":10323:10329  profit */\n      dup9\n        /* \"ICO AFFILIATE/Copy_staker3lv.sol\":10311:10318  deposit */\n      dup12\n        /* \"ICO AFFILIATE/Copy_staker3lv.sol\":10311:10322  deposit.add */\n      tag_283\n      swap1\n        /* \"ICO AFFILIATE/Copy_staker3lv.sol\":10311:10330  deposit.add(profit) */\n      swap2\n      swap1\n      0xffffffff\n      and\n      jump\t// in\n    tag_403:\n        /* \"ICO AFFILIATE/Copy_staker3lv.sol\":10310:10335  (deposit.add(profit)).mul */\n      tag_263\n      swap1\n        /* \"ICO AFFILIATE/Copy_staker3lv.sol\":10310:10344  (deposit.add(profit)).mul(percent) */\n      swap2\n      swap1\n      0xffffffff\n      and\n      jump\t// in\n    tag_402:\n        /* \"ICO AFFILIATE/Copy_staker3lv.sol\":10310:10348  (deposit.add(profit)).mul(percent).div */\n      tag_264\n      swap1\n        /* \"ICO AFFILIATE/Copy_staker3lv.sol\":10310:10366  (deposit.add(profit)).mul(percent).div(PERCENTS_DIVIDER) */\n      swap2\n      swap1\n      0xffffffff\n      and\n      jump\t// in\n    tag_401:\n        /* \"ICO AFFILIATE/Copy_staker3lv.sol\":10299:10305  profit */\n      dup5\n        /* \"ICO AFFILIATE/Copy_staker3lv.sol\":10299:10309  profit.add */\n      tag_283\n      swap1\n        /* \"ICO AFFILIATE/Copy_staker3lv.sol\":10299:10367  profit.add((deposit.add(profit)).mul(percent).div(PERCENTS_DIVIDER)) */\n      swap2\n      swap1\n      0xffffffff\n      and\n      jump\t// in\n    tag_400:\n        /* \"ICO AFFILIATE/Copy_staker3lv.sol\":10290:10367  profit = profit.add((deposit.add(profit)).mul(percent).div(PERCENTS_DIVIDER)) */\n      swap3\n      pop\n        /* \"ICO AFFILIATE/Copy_staker3lv.sol\":10279:10282  i++ */\n      dup1\n      dup1\n      0x01\n      add\n      swap2\n      pop\n      pop\n        /* \"ICO AFFILIATE/Copy_staker3lv.sol\":10237:10373  for (uint256 i = 0; i < plans[plan].time; i++) {... */\n      jump(tag_395)\n    tag_396:\n      pop\n        /* \"ICO AFFILIATE/Copy_staker3lv.sol\":10218:10377  if (plan < 6) {... */\n    tag_394:\n        /* \"ICO AFFILIATE/Copy_staker3lv.sol\":10115:10377  if (plan < 3) {... */\n    tag_393:\n        /* \"ICO AFFILIATE/Copy_staker3lv.sol\":10390:10442  block.timestamp.add(plans[plan].time.mul(TIME_STEP)) */\n      tag_404\n        /* \"ICO AFFILIATE/Copy_staker3lv.sol\":10410:10441  plans[plan].time.mul(TIME_STEP) */\n      tag_405\n        /* \"ICO AFFILIATE/Copy_staker3lv.sol\":1777:1783  1 days */\n      0x015180\n        /* \"ICO AFFILIATE/Copy_staker3lv.sol\":10410:10415  plans */\n      0x0f\n        /* \"ICO AFFILIATE/Copy_staker3lv.sol\":10416:10420  plan */\n      dup9\n        /* \"ICO AFFILIATE/Copy_staker3lv.sol\":10410:10421  plans[plan] */\n      0xff\n      and\n      dup2\n      sload\n      dup2\n      lt\n      tag_406\n      jumpi\n      invalid\n    tag_406:\n      swap1\n      0x00\n      mstore\n      keccak256(0x00, 0x20)\n      swap1\n      0x02\n      mul\n      add\n        /* \"ICO AFFILIATE/Copy_staker3lv.sol\":10410:10426  plans[plan].time */\n      0x00\n      add\n      sload\n        /* \"ICO AFFILIATE/Copy_staker3lv.sol\":10410:10430  plans[plan].time.mul */\n      tag_263\n      swap1\n        /* \"ICO AFFILIATE/Copy_staker3lv.sol\":10410:10441  plans[plan].time.mul(TIME_STEP) */\n      swap2\n      swap1\n      0xffffffff\n      and\n      jump\t// in\n    tag_405:\n        /* \"ICO AFFILIATE/Copy_staker3lv.sol\":10390:10405  block.timestamp */\n      timestamp\n        /* \"ICO AFFILIATE/Copy_staker3lv.sol\":10390:10409  block.timestamp.add */\n      tag_283\n      swap1\n        /* \"ICO AFFILIATE/Copy_staker3lv.sol\":10390:10442  block.timestamp.add(plans[plan].time.mul(TIME_STEP)) */\n      swap2\n      swap1\n      0xffffffff\n      and\n      jump\t// in\n    tag_404:\n        /* \"ICO AFFILIATE/Copy_staker3lv.sol\":10381:10442  finish = block.timestamp.add(plans[plan].time.mul(TIME_STEP)) */\n      swap1\n      pop\n        /* \"ICO AFFILIATE/Copy_staker3lv.sol\":9962:10446  function getResult(uint8 plan, uint256 deposit) public view returns (uint256 percent, uint256 profit, uint256 finish) {... */\n      swap3\n      pop\n      swap3\n      pop\n      swap3\n      jump\t// out\n        /* \"ICO AFFILIATE/Copy_staker3lv.sol\":1491:1539  uint256[] public REFERRAL_PERCENTS = [50, 25, 5] */\n    tag_133:\n      0x00\n      dup2\n      dup2\n      sload\n      dup2\n      lt\n      tag_408\n      jumpi\n      invalid\n    tag_408:\n      swap1\n      0x00\n      mstore\n      keccak256(0x00, 0x20)\n      add\n      0x00\n      swap2\n      pop\n      swap1\n      pop\n      sload\n      dup2\n      jump\t// out\n        /* \"ICO AFFILIATE/Copy_staker3lv.sol\":14147:14260  function getICOTokenBalance() external view returns (uint) {... */\n    tag_136:\n        /* \"ICO AFFILIATE/Copy_staker3lv.sol\":14200:14204  uint */\n      0x00\n        /* \"ICO AFFILIATE/Copy_staker3lv.sol\":14223:14228  token */\n      0x05\n      0x00\n      swap1\n      sload\n      swap1\n      0x0100\n      exp\n      swap1\n      div\n      0xffffffffffffffffffffffffffffffffffffffff\n      and\n        /* \"ICO AFFILIATE/Copy_staker3lv.sol\":14223:14238  token.balanceOf */\n      0xffffffffffffffffffffffffffffffffffffffff\n      and\n      0x70a08231\n        /* \"ICO AFFILIATE/Copy_staker3lv.sol\":14247:14251  this */\n      address\n        /* \"ICO AFFILIATE/Copy_staker3lv.sol\":14223:14253  token.balanceOf(address(this)) */\n      mload(0x40)\n      dup3\n      0xffffffff\n      and\n      0xe0\n      shl\n      dup2\n      mstore\n      0x04\n      add\n      dup1\n      dup3\n      0xffffffffffffffffffffffffffffffffffffffff\n      and\n      dup2\n      mstore\n      0x20\n      add\n      swap2\n      pop\n      pop\n      0x20\n      mload(0x40)\n      dup1\n      dup4\n      sub\n      dup2\n      dup7\n      dup1\n      extcodesize\n      iszero\n      dup1\n      iszero\n      tag_411\n      jumpi\n      0x00\n      dup1\n      revert\n    tag_411:\n      pop\n      gas\n      staticcall\n      iszero\n      dup1\n      iszero\n      tag_413\n      jumpi\n      returndatasize\n      0x00\n      dup1\n      returndatacopy\n      revert(0x00, returndatasize)\n    tag_413:\n      pop\n      pop\n      pop\n      pop\n      mload(0x40)\n      returndatasize\n      0x20\n      dup2\n      lt\n      iszero\n      tag_414\n      jumpi\n      0x00\n      dup1\n      revert\n    tag_414:\n      dup2\n      add\n      swap1\n      dup1\n      dup1\n      mload\n      swap1\n      0x20\n      add\n      swap1\n      swap3\n      swap2\n      swap1\n      pop\n      pop\n      pop\n        /* \"ICO AFFILIATE/Copy_staker3lv.sol\":14216:14253  return token.balanceOf(address(this)) */\n      swap1\n      pop\n        /* \"ICO AFFILIATE/Copy_staker3lv.sol\":14147:14260  function getICOTokenBalance() external view returns (uint) {... */\n      swap1\n      jump\t// out\n        /* \"ICO AFFILIATE/Copy_staker3lv.sol\":14314:14439  function investorBalanceOf(address _investor) external view returns (uint) {... */\n    tag_140:\n        /* \"ICO AFFILIATE/Copy_staker3lv.sol\":14383:14387  uint */\n      0x00\n        /* \"ICO AFFILIATE/Copy_staker3lv.sol\":14406:14411  token */\n      0x05\n      0x00\n      swap1\n      sload\n      swap1\n      0x0100\n      exp\n      swap1\n      div\n      0xffffffffffffffffffffffffffffffffffffffff\n      and\n        /* \"ICO AFFILIATE/Copy_staker3lv.sol\":14406:14421  token.balanceOf */\n      0xffffffffffffffffffffffffffffffffffffffff\n      and\n      0x70a08231\n        /* \"ICO AFFILIATE/Copy_staker3lv.sol\":14422:14431  _investor */\n      dup4\n        /* \"ICO AFFILIATE/Copy_staker3lv.sol\":14406:14432  token.balanceOf(_investor) */\n      mload(0x40)\n      dup3\n      0xffffffff\n      and\n      0xe0\n      shl\n      dup2\n      mstore\n      0x04\n      add\n      dup1\n      dup3\n      0xffffffffffffffffffffffffffffffffffffffff\n      and\n      dup2\n      mstore\n      0x20\n      add\n      swap2\n      pop\n      pop\n      0x20\n      mload(0x40)\n      dup1\n      dup4\n      sub\n      dup2\n      dup7\n      dup1\n      extcodesize\n      iszero\n      dup1\n      iszero\n      tag_416\n      jumpi\n      0x00\n      dup1\n      revert\n    tag_416:\n      pop\n      gas\n      staticcall\n      iszero\n      dup1\n      iszero\n      tag_418\n      jumpi\n      returndatasize\n      0x00\n      dup1\n      returndatacopy\n      revert(0x00, returndatasize)\n    tag_418:\n      pop\n      pop\n      pop\n      pop\n      mload(0x40)\n      returndatasize\n      0x20\n      dup2\n      lt\n      iszero\n      tag_419\n      jumpi\n      0x00\n      dup1\n      revert\n    tag_419:\n      dup2\n      add\n      swap1\n      dup1\n      dup1\n      mload\n      swap1\n      0x20\n      add\n      swap1\n      swap3\n      swap2\n      swap1\n      pop\n      pop\n      pop\n        /* \"ICO AFFILIATE/Copy_staker3lv.sol\":14399:14432  return token.balanceOf(_investor) */\n      swap1\n      pop\n        /* \"ICO AFFILIATE/Copy_staker3lv.sol\":14314:14439  function investorBalanceOf(address _investor) external view returns (uint) {... */\n      swap2\n      swap1\n      pop\n      jump\t// out\n        /* \"ICO AFFILIATE/Copy_staker3lv.sol\":1816:1844  uint256 public totalRefBonus */\n    tag_143:\n      sload(0x02)\n      dup2\n      jump\t// out\n        /* \"ICO AFFILIATE/Copy_staker3lv.sol\":12021:12179  function getUserReferralWithdrawn(address userAddress) public view returns(uint256) {... */\n    tag_147:\n        /* \"ICO AFFILIATE/Copy_staker3lv.sol\":12096:12103  uint256 */\n      0x00\n        /* \"ICO AFFILIATE/Copy_staker3lv.sol\":12116:12175  users[userAddress].totalBonus.sub(users[userAddress].bonus) */\n      tag_421\n        /* \"ICO AFFILIATE/Copy_staker3lv.sol\":12150:12155  users */\n      0x10\n        /* \"ICO AFFILIATE/Copy_staker3lv.sol\":12150:12168  users[userAddress] */\n      0x00\n        /* \"ICO AFFILIATE/Copy_staker3lv.sol\":12156:12167  userAddress */\n      dup5\n        /* \"ICO AFFILIATE/Copy_staker3lv.sol\":12150:12168  users[userAddress] */\n      0xffffffffffffffffffffffffffffffffffffffff\n      and\n      0xffffffffffffffffffffffffffffffffffffffff\n      and\n      dup2\n      mstore\n      0x20\n      add\n      swap1\n      dup2\n      mstore\n      0x20\n      add\n      0x00\n      keccak256\n        /* \"ICO AFFILIATE/Copy_staker3lv.sol\":12150:12174  users[userAddress].bonus */\n      0x06\n      add\n      sload\n        /* \"ICO AFFILIATE/Copy_staker3lv.sol\":12116:12121  users */\n      0x10\n        /* \"ICO AFFILIATE/Copy_staker3lv.sol\":12116:12134  users[userAddress] */\n      0x00\n        /* \"ICO AFFILIATE/Copy_staker3lv.sol\":12122:12133  userAddress */\n      dup6\n        /* \"ICO AFFILIATE/Copy_staker3lv.sol\":12116:12134  users[userAddress] */\n      0xffffffffffffffffffffffffffffffffffffffff\n      and\n      0xffffffffffffffffffffffffffffffffffffffff\n      and\n      dup2\n      mstore\n      0x20\n      add\n      swap1\n      dup2\n      mstore\n      0x20\n      add\n      0x00\n      keccak256\n        /* \"ICO AFFILIATE/Copy_staker3lv.sol\":12116:12145  users[userAddress].totalBonus */\n      0x07\n      add\n      sload\n        /* \"ICO AFFILIATE/Copy_staker3lv.sol\":12116:12149  users[userAddress].totalBonus.sub */\n      tag_282\n      swap1\n        /* \"ICO AFFILIATE/Copy_staker3lv.sol\":12116:12175  users[userAddress].totalBonus.sub(users[userAddress].bonus) */\n      swap2\n      swap1\n      0xffffffff\n      and\n      jump\t// in\n    tag_421:\n        /* \"ICO AFFILIATE/Copy_staker3lv.sol\":12109:12175  return users[userAddress].totalBonus.sub(users[userAddress].bonus) */\n      swap1\n      pop\n        /* \"ICO AFFILIATE/Copy_staker3lv.sol\":12021:12179  function getUserReferralWithdrawn(address userAddress) public view returns(uint256) {... */\n      swap2\n      swap1\n      pop\n      jump\t// out\n        /* \"ICO AFFILIATE/Copy_staker3lv.sol\":9457:9553  function getContractBalance() public view returns (uint256) {... */\n    tag_150:\n        /* \"ICO AFFILIATE/Copy_staker3lv.sol\":9508:9515  uint256 */\n      0x00\n        /* \"ICO AFFILIATE/Copy_staker3lv.sol\":9528:9549  address(this).balance */\n      selfbalance\n        /* \"ICO AFFILIATE/Copy_staker3lv.sol\":9521:9549  return address(this).balance */\n      swap1\n      pop\n        /* \"ICO AFFILIATE/Copy_staker3lv.sol\":9457:9553  function getContractBalance() public view returns (uint256) {... */\n      swap1\n      jump\t// out\n        /* \"ICO AFFILIATE/Copy_staker3lv.sol\":2194:2216  uint public icoEndTime */\n    tag_153:\n      sload(0x0c)\n      dup2\n      jump\t// out\n        /* \"ICO AFFILIATE/Copy_staker3lv.sol\":12479:12706  function getUserTotalDeposits(address userAddress) public view returns(uint256 amount) {... */\n    tag_157:\n        /* \"ICO AFFILIATE/Copy_staker3lv.sol\":12550:12564  uint256 amount */\n      0x00\n        /* \"ICO AFFILIATE/Copy_staker3lv.sol\":12575:12584  uint256 i */\n      dup1\n        /* \"ICO AFFILIATE/Copy_staker3lv.sol\":12587:12588  0 */\n      0x00\n        /* \"ICO AFFILIATE/Copy_staker3lv.sol\":12575:12588  uint256 i = 0 */\n      swap1\n      pop\n        /* \"ICO AFFILIATE/Copy_staker3lv.sol\":12570:12703  for (uint256 i = 0; i < users[userAddress].deposits.length; i++) {... */\n    tag_424:\n        /* \"ICO AFFILIATE/Copy_staker3lv.sol\":12594:12599  users */\n      0x10\n        /* \"ICO AFFILIATE/Copy_staker3lv.sol\":12594:12612  users[userAddress] */\n      0x00\n        /* \"ICO AFFILIATE/Copy_staker3lv.sol\":12600:12611  userAddress */\n      dup5\n        /* \"ICO AFFILIATE/Copy_staker3lv.sol\":12594:12612  users[userAddress] */\n      0xffffffffffffffffffffffffffffffffffffffff\n      and\n      0xffffffffffffffffffffffffffffffffffffffff\n      and\n      dup2\n      mstore\n      0x20\n      add\n      swap1\n      dup2\n      mstore\n      0x20\n      add\n      0x00\n      keccak256\n        /* \"ICO AFFILIATE/Copy_staker3lv.sol\":12594:12621  users[userAddress].deposits */\n      0x00\n      add\n        /* \"ICO AFFILIATE/Copy_staker3lv.sol\":12594:12628  users[userAddress].deposits.length */\n      dup1\n      sload\n      swap1\n      pop\n        /* \"ICO AFFILIATE/Copy_staker3lv.sol\":12590:12591  i */\n      dup2\n        /* \"ICO AFFILIATE/Copy_staker3lv.sol\":12590:12628  i < users[userAddress].deposits.length */\n      lt\n        /* \"ICO AFFILIATE/Copy_staker3lv.sol\":12570:12703  for (uint256 i = 0; i < users[userAddress].deposits.length; i++) {... */\n      iszero\n      tag_425\n      jumpi\n        /* \"ICO AFFILIATE/Copy_staker3lv.sol\":12649:12698  amount.add(users[userAddress].deposits[i].amount) */\n      tag_427\n        /* \"ICO AFFILIATE/Copy_staker3lv.sol\":12660:12665  users */\n      0x10\n        /* \"ICO AFFILIATE/Copy_staker3lv.sol\":12660:12678  users[userAddress] */\n      0x00\n        /* \"ICO AFFILIATE/Copy_staker3lv.sol\":12666:12677  userAddress */\n      dup6\n        /* \"ICO AFFILIATE/Copy_staker3lv.sol\":12660:12678  users[userAddress] */\n      0xffffffffffffffffffffffffffffffffffffffff\n      and\n      0xffffffffffffffffffffffffffffffffffffffff\n      and\n      dup2\n      mstore\n      0x20\n      add\n      swap1\n      dup2\n      mstore\n      0x20\n      add\n      0x00\n      keccak256\n        /* \"ICO AFFILIATE/Copy_staker3lv.sol\":12660:12687  users[userAddress].deposits */\n      0x00\n      add\n        /* \"ICO AFFILIATE/Copy_staker3lv.sol\":12688:12689  i */\n      dup3\n        /* \"ICO AFFILIATE/Copy_staker3lv.sol\":12660:12690  users[userAddress].deposits[i] */\n      dup2\n      sload\n      dup2\n      lt\n      tag_428\n      jumpi\n      invalid\n    tag_428:\n      swap1\n      0x00\n      mstore\n      keccak256(0x00, 0x20)\n      swap1\n      0x06\n      mul\n      add\n        /* \"ICO AFFILIATE/Copy_staker3lv.sol\":12660:12697  users[userAddress].deposits[i].amount */\n      0x02\n      add\n      sload\n        /* \"ICO AFFILIATE/Copy_staker3lv.sol\":12649:12655  amount */\n      dup4\n        /* \"ICO AFFILIATE/Copy_staker3lv.sol\":12649:12659  amount.add */\n      tag_283\n      swap1\n        /* \"ICO AFFILIATE/Copy_staker3lv.sol\":12649:12698  amount.add(users[userAddress].deposits[i].amount) */\n      swap2\n      swap1\n      0xffffffff\n      and\n      jump\t// in\n    tag_427:\n        /* \"ICO AFFILIATE/Copy_staker3lv.sol\":12640:12698  amount = amount.add(users[userAddress].deposits[i].amount) */\n      swap2\n      pop\n        /* \"ICO AFFILIATE/Copy_staker3lv.sol\":12630:12633  i++ */\n      dup1\n      dup1\n      0x01\n      add\n      swap2\n      pop\n      pop\n        /* \"ICO AFFILIATE/Copy_staker3lv.sol\":12570:12703  for (uint256 i = 0; i < users[userAddress].deposits.length; i++) {... */\n      jump(tag_424)\n    tag_425:\n      pop\n        /* \"ICO AFFILIATE/Copy_staker3lv.sol\":12479:12706  function getUserTotalDeposits(address userAddress) public view returns(uint256 amount) {... */\n      swap2\n      swap1\n      pop\n      jump\t// out\n        /* \"ICO AFFILIATE/Copy_staker3lv.sol\":4746:4990  function startICO() external onlyAdmin {... */\n    tag_160:\n        /* \"ICO AFFILIATE/Copy_staker3lv.sol\":4095:4100  admin */\n      0x03\n      0x00\n      swap1\n      sload\n      swap1\n      0x0100\n      exp\n      swap1\n      div\n      0xffffffffffffffffffffffffffffffffffffffff\n      and\n        /* \"ICO AFFILIATE/Copy_staker3lv.sol\":4081:4100  msg.sender == admin */\n      0xffffffffffffffffffffffffffffffffffffffff\n      and\n        /* \"ICO AFFILIATE/Copy_staker3lv.sol\":4081:4091  msg.sender */\n      caller\n        /* \"ICO AFFILIATE/Copy_staker3lv.sol\":4081:4100  msg.sender == admin */\n      0xffffffffffffffffffffffffffffffffffffffff\n      and\n      eq\n        /* \"ICO AFFILIATE/Copy_staker3lv.sol\":4073:4124  require(msg.sender == admin, \"Admin Only function\") */\n      tag_431\n      jumpi\n      mload(0x40)\n      0x08c379a000000000000000000000000000000000000000000000000000000000\n      dup2\n      mstore\n      0x04\n      add\n      dup1\n      dup1\n      0x20\n      add\n      dup3\n      dup2\n      sub\n      dup3\n      mstore\n      0x13\n      dup2\n      mstore\n      0x20\n      add\n      dup1\n      0x41646d696e204f6e6c792066756e6374696f6e00000000000000000000000000\n      dup2\n      mstore\n      pop\n      0x20\n      add\n      swap2\n      pop\n      pop\n      mload(0x40)\n      dup1\n      swap2\n      sub\n      swap1\n      revert\n    tag_431:\n        /* \"ICO AFFILIATE/Copy_staker3lv.sol\":4815:4827  State.BEFORE */\n      0x00\n        /* \"ICO AFFILIATE/Copy_staker3lv.sol\":4803:4827  ICOState == State.BEFORE */\n      0x03\n      dup2\n      gt\n      iszero\n      tag_433\n      jumpi\n      invalid\n    tag_433:\n        /* \"ICO AFFILIATE/Copy_staker3lv.sol\":4803:4811  ICOState */\n      0x0e\n      0x00\n      swap1\n      sload\n      swap1\n      0x0100\n      exp\n      swap1\n      div\n      0xff\n      and\n        /* \"ICO AFFILIATE/Copy_staker3lv.sol\":4803:4827  ICOState == State.BEFORE */\n      0x03\n      dup2\n      gt\n      iszero\n      tag_434\n      jumpi\n      invalid\n    tag_434:\n      eq\n        /* \"ICO AFFILIATE/Copy_staker3lv.sol\":4795:4857  require(ICOState == State.BEFORE, \"ICO isn't in before state\") */\n      tag_435\n      jumpi\n      mload(0x40)\n      0x08c379a000000000000000000000000000000000000000000000000000000000\n      dup2\n      mstore\n      0x04\n      add\n      dup1\n      dup1\n      0x20\n      add\n      dup3\n      dup2\n      sub\n      dup3\n      mstore\n      0x19\n      dup2\n      mstore\n      0x20\n      add\n      dup1\n      0x49434f2069736e277420696e206265666f726520737461746500000000000000\n      dup2\n      mstore\n      pop\n      0x20\n      add\n      swap2\n      pop\n      pop\n      mload(0x40)\n      dup1\n      swap2\n      sub\n      swap1\n      revert\n    tag_435:\n        /* \"ICO AFFILIATE/Copy_staker3lv.sol\":4883:4898  block.timestamp */\n      timestamp\n        /* \"ICO AFFILIATE/Copy_staker3lv.sol\":4868:4880  icoStartTime */\n      0x0b\n        /* \"ICO AFFILIATE/Copy_staker3lv.sol\":4868:4898  icoStartTime = block.timestamp */\n      dup2\n      swap1\n      sstore\n      pop\n        /* \"ICO AFFILIATE/Copy_staker3lv.sol\":4937:4948  86400 * 365 */\n      0x01e13380\n        /* \"ICO AFFILIATE/Copy_staker3lv.sol\":4921:4933  icoStartTime */\n      sload(0x0b)\n        /* \"ICO AFFILIATE/Copy_staker3lv.sol\":4921:4949  icoStartTime + (86400 * 365) */\n      add\n        /* \"ICO AFFILIATE/Copy_staker3lv.sol\":4908:4918  icoEndTime */\n      0x0c\n        /* \"ICO AFFILIATE/Copy_staker3lv.sol\":4908:4949  icoEndTime = icoStartTime + (86400 * 365) */\n      dup2\n      swap1\n      sstore\n      pop\n        /* \"ICO AFFILIATE/Copy_staker3lv.sol\":4970:4983  State.RUNNING */\n      0x01\n        /* \"ICO AFFILIATE/Copy_staker3lv.sol\":4959:4967  ICOState */\n      0x0e\n      0x00\n        /* \"ICO AFFILIATE/Copy_staker3lv.sol\":4959:4983  ICOState = State.RUNNING */\n      0x0100\n      exp\n      dup2\n      sload\n      dup2\n      0xff\n      mul\n      not\n      and\n      swap1\n      dup4\n      0x03\n      dup2\n      gt\n      iszero\n      tag_436\n      jumpi\n      invalid\n    tag_436:\n      mul\n      or\n      swap1\n      sstore\n      pop\n        /* \"ICO AFFILIATE/Copy_staker3lv.sol\":4746:4990  function startICO() external onlyAdmin {... */\n      jump\t// out\n        /* \"ICO AFFILIATE/Copy_staker3lv.sol\":1968:2005  uint public tokenPrice = 0.0001 ether */\n    tag_163:\n      sload(0x06)\n      dup2\n      jump\t// out\n        /* \"ICO AFFILIATE/Copy_staker3lv.sol\":1787:1813  uint256 public totalStaked */\n    tag_166:\n      sload(0x01)\n      dup2\n      jump\t// out\n        /* \"ICO AFFILIATE/Copy_staker3lv.sol\":2078:2117  uint public minInvestment = 0.001 ether */\n    tag_169:\n      sload(0x09)\n      dup2\n      jump\t// out\n        /* \"ICO AFFILIATE/Copy_staker3lv.sol\":5475:5568  function changeAdmin(address _newAdmin) external onlyAdmin {... */\n    tag_173:\n        /* \"ICO AFFILIATE/Copy_staker3lv.sol\":4095:4100  admin */\n      0x03\n      0x00\n      swap1\n      sload\n      swap1\n      0x0100\n      exp\n      swap1\n      div\n      0xffffffffffffffffffffffffffffffffffffffff\n      and\n        /* \"ICO AFFILIATE/Copy_staker3lv.sol\":4081:4100  msg.sender == admin */\n      0xffffffffffffffffffffffffffffffffffffffff\n      and\n        /* \"ICO AFFILIATE/Copy_staker3lv.sol\":4081:4091  msg.sender */\n      caller\n        /* \"ICO AFFILIATE/Copy_staker3lv.sol\":4081:4100  msg.sender == admin */\n      0xffffffffffffffffffffffffffffffffffffffff\n      and\n      eq\n        /* \"ICO AFFILIATE/Copy_staker3lv.sol\":4073:4124  require(msg.sender == admin, \"Admin Only function\") */\n      tag_438\n      jumpi\n      mload(0x40)\n      0x08c379a000000000000000000000000000000000000000000000000000000000\n      dup2\n      mstore\n      0x04\n      add\n      dup1\n      dup1\n      0x20\n      add\n      dup3\n      dup2\n      sub\n      dup3\n      mstore\n      0x13\n      dup2\n      mstore\n      0x20\n      add\n      dup1\n      0x41646d696e204f6e6c792066756e6374696f6e00000000000000000000000000\n      dup2\n      mstore\n      pop\n      0x20\n      add\n      swap2\n      pop\n      pop\n      mload(0x40)\n      dup1\n      swap2\n      sub\n      swap1\n      revert\n    tag_438:\n        /* \"ICO AFFILIATE/Copy_staker3lv.sol\":5552:5561  _newAdmin */\n      dup1\n        /* \"ICO AFFILIATE/Copy_staker3lv.sol\":5544:5549  admin */\n      0x03\n      0x00\n        /* \"ICO AFFILIATE/Copy_staker3lv.sol\":5544:5561  admin = _newAdmin */\n      0x0100\n      exp\n      dup2\n      sload\n      dup2\n      0xffffffffffffffffffffffffffffffffffffffff\n      mul\n      not\n      and\n      swap1\n      dup4\n      0xffffffffffffffffffffffffffffffffffffffff\n      and\n      mul\n      or\n      swap1\n      sstore\n      pop\n        /* \"ICO AFFILIATE/Copy_staker3lv.sol\":5475:5568  function changeAdmin(address _newAdmin) external onlyAdmin {... */\n      pop\n      jump\t// out\n        /* \"ICO AFFILIATE/Copy_staker3lv.sol\":3067:3106  address payable public commissionWallet */\n    tag_177:\n      0x12\n      0x00\n      swap1\n      sload\n      swap1\n      0x0100\n      exp\n      swap1\n      div\n      0xffffffffffffffffffffffffffffffffffffffff\n      and\n      dup2\n      jump\t// out\n        /* \"ICO AFFILIATE/Copy_staker3lv.sol\":1629:1672  uint256 constant public WITHDRAW_FEE = 1000 */\n    tag_180:\n        /* \"ICO AFFILIATE/Copy_staker3lv.sol\":1668:1672  1000 */\n      0x03e8\n        /* \"ICO AFFILIATE/Copy_staker3lv.sol\":1629:1672  uint256 constant public WITHDRAW_FEE = 1000 */\n      dup2\n      jump\t// out\n        /* \"ICO AFFILIATE/Copy_staker3lv.sol\":5149:5303  function resumeICO() external onlyAdmin {... */\n    tag_183:\n        /* \"ICO AFFILIATE/Copy_staker3lv.sol\":4095:4100  admin */\n      0x03\n      0x00\n      swap1\n      sload\n      swap1\n      0x0100\n      exp\n      swap1\n      div\n      0xffffffffffffffffffffffffffffffffffffffff\n      and\n        /* \"ICO AFFILIATE/Copy_staker3lv.sol\":4081:4100  msg.sender == admin */\n      0xffffffffffffffffffffffffffffffffffffffff\n      and\n        /* \"ICO AFFILIATE/Copy_staker3lv.sol\":4081:4091  msg.sender */\n      caller\n        /* \"ICO AFFILIATE/Copy_staker3lv.sol\":4081:4100  msg.sender == admin */\n      0xffffffffffffffffffffffffffffffffffffffff\n      and\n      eq\n        /* \"ICO AFFILIATE/Copy_staker3lv.sol\":4073:4124  require(msg.sender == admin, \"Admin Only function\") */\n      tag_441\n      jumpi\n      mload(0x40)\n      0x08c379a000000000000000000000000000000000000000000000000000000000\n      dup2\n      mstore\n      0x04\n      add\n      dup1\n      dup1\n      0x20\n      add\n      dup3\n      dup2\n      sub\n      dup3\n      mstore\n      0x13\n      dup2\n      mstore\n      0x20\n      add\n      dup1\n      0x41646d696e204f6e6c792066756e6374696f6e00000000000000000000000000\n      dup2\n      mstore\n      pop\n      0x20\n      add\n      swap2\n      pop\n      pop\n      mload(0x40)\n      dup1\n      swap2\n      sub\n      swap1\n      revert\n    tag_441:\n        /* \"ICO AFFILIATE/Copy_staker3lv.sol\":5219:5231  State.HALTED */\n      0x03\n        /* \"ICO AFFILIATE/Copy_staker3lv.sol\":5207:5231  ICOState == State.HALTED */\n      dup1\n      dup2\n      gt\n      iszero\n      tag_443\n      jumpi\n      invalid\n    tag_443:\n        /* \"ICO AFFILIATE/Copy_staker3lv.sol\":5207:5215  ICOState */\n      0x0e\n      0x00\n      swap1\n      sload\n      swap1\n      0x0100\n      exp\n      swap1\n      div\n      0xff\n      and\n        /* \"ICO AFFILIATE/Copy_staker3lv.sol\":5207:5231  ICOState == State.HALTED */\n      0x03\n      dup2\n      gt\n      iszero\n      tag_444\n      jumpi\n      invalid\n    tag_444:\n      eq\n        /* \"ICO AFFILIATE/Copy_staker3lv.sol\":5199:5262  require(ICOState == State.HALTED, \"ICO State isn't halted yet\") */\n      tag_445\n      jumpi\n      mload(0x40)\n      0x08c379a000000000000000000000000000000000000000000000000000000000\n      dup2\n      mstore\n      0x04\n      add\n      dup1\n      dup1\n      0x20\n      add\n      dup3\n      dup2\n      sub\n      dup3\n      mstore\n      0x1a\n      dup2\n      mstore\n      0x20\n      add\n      dup1\n      0x49434f2053746174652069736e27742068616c74656420796574000000000000\n      dup2\n      mstore\n      pop\n      0x20\n      add\n      swap2\n      pop\n      pop\n      mload(0x40)\n      dup1\n      swap2\n      sub\n      swap1\n      revert\n    tag_445:\n        /* \"ICO AFFILIATE/Copy_staker3lv.sol\":5283:5296  State.RUNNING */\n      0x01\n        /* \"ICO AFFILIATE/Copy_staker3lv.sol\":5272:5280  ICOState */\n      0x0e\n      0x00\n        /* \"ICO AFFILIATE/Copy_staker3lv.sol\":5272:5296  ICOState = State.RUNNING */\n      0x0100\n      exp\n      dup2\n      sload\n      dup2\n      0xff\n      mul\n      not\n      and\n      swap1\n      dup4\n      0x03\n      dup2\n      gt\n      iszero\n      tag_446\n      jumpi\n      invalid\n    tag_446:\n      mul\n      or\n      swap1\n      sstore\n      pop\n        /* \"ICO AFFILIATE/Copy_staker3lv.sol\":5149:5303  function resumeICO() external onlyAdmin {... */\n      jump\t// out\n        /* \"ICO AFFILIATE/Copy_staker3lv.sol\":9707:9959  function getPercent(uint8 plan) public view returns (uint256) {... */\n    tag_187:\n        /* \"ICO AFFILIATE/Copy_staker3lv.sol\":9760:9767  uint256 */\n      0x00\n        /* \"ICO AFFILIATE/Copy_staker3lv.sol\":9795:9804  startUNIX */\n      sload(0x11)\n        /* \"ICO AFFILIATE/Copy_staker3lv.sol\":9777:9792  block.timestamp */\n      timestamp\n        /* \"ICO AFFILIATE/Copy_staker3lv.sol\":9777:9804  block.timestamp > startUNIX */\n      gt\n        /* \"ICO AFFILIATE/Copy_staker3lv.sol\":9773:9953  if (block.timestamp > startUNIX) {... */\n      iszero\n      tag_448\n      jumpi\n        /* \"ICO AFFILIATE/Copy_staker3lv.sol\":9818:9906  plans[plan].percent.add(PERCENT_STEP.mul(block.timestamp.sub(startUNIX)).div(TIME_STEP)) */\n      tag_449\n        /* \"ICO AFFILIATE/Copy_staker3lv.sol\":9842:9905  PERCENT_STEP.mul(block.timestamp.sub(startUNIX)).div(TIME_STEP) */\n      tag_450\n        /* \"ICO AFFILIATE/Copy_staker3lv.sol\":1777:1783  1 days */\n      0x015180\n        /* \"ICO AFFILIATE/Copy_staker3lv.sol\":9842:9890  PERCENT_STEP.mul(block.timestamp.sub(startUNIX)) */\n      tag_451\n        /* \"ICO AFFILIATE/Copy_staker3lv.sol\":9859:9889  block.timestamp.sub(startUNIX) */\n      tag_452\n        /* \"ICO AFFILIATE/Copy_staker3lv.sol\":9879:9888  startUNIX */\n      sload(0x11)\n        /* \"ICO AFFILIATE/Copy_staker3lv.sol\":9859:9874  block.timestamp */\n      timestamp\n        /* \"ICO AFFILIATE/Copy_staker3lv.sol\":9859:9878  block.timestamp.sub */\n      tag_282\n      swap1\n        /* \"ICO AFFILIATE/Copy_staker3lv.sol\":9859:9889  block.timestamp.sub(startUNIX) */\n      swap2\n      swap1\n      0xffffffff\n      and\n      jump\t// in\n    tag_452:\n        /* \"ICO AFFILIATE/Copy_staker3lv.sol\":1625:1626  5 */\n      0x05\n        /* \"ICO AFFILIATE/Copy_staker3lv.sol\":9842:9858  PERCENT_STEP.mul */\n      tag_263\n      swap1\n        /* \"ICO AFFILIATE/Copy_staker3lv.sol\":9842:9890  PERCENT_STEP.mul(block.timestamp.sub(startUNIX)) */\n      swap2\n      swap1\n      0xffffffff\n      and\n      jump\t// in\n    tag_451:\n        /* \"ICO AFFILIATE/Copy_staker3lv.sol\":9842:9894  PERCENT_STEP.mul(block.timestamp.sub(startUNIX)).div */\n      tag_264\n      swap1\n        /* \"ICO AFFILIATE/Copy_staker3lv.sol\":9842:9905  PERCENT_STEP.mul(block.timestamp.sub(startUNIX)).div(TIME_STEP) */\n      swap2\n      swap1\n      0xffffffff\n      and\n      jump\t// in\n    tag_450:\n        /* \"ICO AFFILIATE/Copy_staker3lv.sol\":9818:9823  plans */\n      0x0f\n        /* \"ICO AFFILIATE/Copy_staker3lv.sol\":9824:9828  plan */\n      dup5\n        /* \"ICO AFFILIATE/Copy_staker3lv.sol\":9818:9829  plans[plan] */\n      0xff\n      and\n      dup2\n      sload\n      dup2\n      lt\n      tag_453\n      jumpi\n      invalid\n    tag_453:\n      swap1\n      0x00\n      mstore\n      keccak256(0x00, 0x20)\n      swap1\n      0x02\n      mul\n      add\n        /* \"ICO AFFILIATE/Copy_staker3lv.sol\":9818:9837  plans[plan].percent */\n      0x01\n      add\n      sload\n        /* \"ICO AFFILIATE/Copy_staker3lv.sol\":9818:9841  plans[plan].percent.add */\n      tag_283\n      swap1\n        /* \"ICO AFFILIATE/Copy_staker3lv.sol\":9818:9906  plans[plan].percent.add(PERCENT_STEP.mul(block.timestamp.sub(startUNIX)).div(TIME_STEP)) */\n      swap2\n      swap1\n      0xffffffff\n      and\n      jump\t// in\n    tag_449:\n        /* \"ICO AFFILIATE/Copy_staker3lv.sol\":9811:9906  return plans[plan].percent.add(PERCENT_STEP.mul(block.timestamp.sub(startUNIX)).div(TIME_STEP)) */\n      swap1\n      pop\n      jump(tag_447)\n        /* \"ICO AFFILIATE/Copy_staker3lv.sol\":9773:9953  if (block.timestamp > startUNIX) {... */\n    tag_448:\n        /* \"ICO AFFILIATE/Copy_staker3lv.sol\":9929:9934  plans */\n      0x0f\n        /* \"ICO AFFILIATE/Copy_staker3lv.sol\":9935:9939  plan */\n      dup3\n        /* \"ICO AFFILIATE/Copy_staker3lv.sol\":9929:9940  plans[plan] */\n      0xff\n      and\n      dup2\n      sload\n      dup2\n      lt\n      tag_456\n      jumpi\n      invalid\n    tag_456:\n      swap1\n      0x00\n      mstore\n      keccak256(0x00, 0x20)\n      swap1\n      0x02\n      mul\n      add\n        /* \"ICO AFFILIATE/Copy_staker3lv.sol\":9929:9948  plans[plan].percent */\n      0x01\n      add\n      sload\n        /* \"ICO AFFILIATE/Copy_staker3lv.sol\":9922:9948  return plans[plan].percent */\n      swap1\n      pop\n        /* \"ICO AFFILIATE/Copy_staker3lv.sol\":9707:9959  function getPercent(uint8 plan) public view returns (uint256) {... */\n    tag_447:\n      swap2\n      swap1\n      pop\n      jump\t// out\n        /* \"ICO AFFILIATE/Copy_staker3lv.sol\":2164:2188  uint public icoStartTime */\n    tag_190:\n      sload(0x0b)\n      dup2\n      jump\t// out\n        /* \"ICO AFFILIATE/Copy_staker3lv.sol\":12344:12476  function getUserAmountOfDeposits(address userAddress) public view returns(uint256) {... */\n    tag_194:\n        /* \"ICO AFFILIATE/Copy_staker3lv.sol\":12418:12425  uint256 */\n      0x00\n        /* \"ICO AFFILIATE/Copy_staker3lv.sol\":12438:12443  users */\n      0x10\n        /* \"ICO AFFILIATE/Copy_staker3lv.sol\":12438:12456  users[userAddress] */\n      0x00\n        /* \"ICO AFFILIATE/Copy_staker3lv.sol\":12444:12455  userAddress */\n      dup4\n        /* \"ICO AFFILIATE/Copy_staker3lv.sol\":12438:12456  users[userAddress] */\n      0xffffffffffffffffffffffffffffffffffffffff\n      and\n      0xffffffffffffffffffffffffffffffffffffffff\n      and\n      dup2\n      mstore\n      0x20\n      add\n      swap1\n      dup2\n      mstore\n      0x20\n      add\n      0x00\n      keccak256\n        /* \"ICO AFFILIATE/Copy_staker3lv.sol\":12438:12465  users[userAddress].deposits */\n      0x00\n      add\n        /* \"ICO AFFILIATE/Copy_staker3lv.sol\":12438:12472  users[userAddress].deposits.length */\n      dup1\n      sload\n      swap1\n      pop\n        /* \"ICO AFFILIATE/Copy_staker3lv.sol\":12431:12472  return users[userAddress].deposits.length */\n      swap1\n      pop\n        /* \"ICO AFFILIATE/Copy_staker3lv.sol\":12344:12476  function getUserAmountOfDeposits(address userAddress) public view returns(uint256) {... */\n      swap2\n      swap1\n      pop\n      jump\t// out\n        /* \"ICO AFFILIATE/Copy_staker3lv.sol\":1873:1905  address payable public ICOWallet */\n    tag_197:\n      0x04\n      0x00\n      swap1\n      sload\n      swap1\n      0x0100\n      exp\n      swap1\n      div\n      0xffffffffffffffffffffffffffffffffffffffff\n      and\n      dup2\n      jump\t// out\n        /* \"ICO AFFILIATE/Copy_staker3lv.sol\":9556:9704  function getPlanInfo(uint8 plan) public view returns(uint256 time, uint256 percent) {... */\n    tag_201:\n        /* \"ICO AFFILIATE/Copy_staker3lv.sol\":9609:9621  uint256 time */\n      0x00\n        /* \"ICO AFFILIATE/Copy_staker3lv.sol\":9623:9638  uint256 percent */\n      dup1\n        /* \"ICO AFFILIATE/Copy_staker3lv.sol\":9651:9656  plans */\n      0x0f\n        /* \"ICO AFFILIATE/Copy_staker3lv.sol\":9657:9661  plan */\n      dup4\n        /* \"ICO AFFILIATE/Copy_staker3lv.sol\":9651:9662  plans[plan] */\n      0xff\n      and\n      dup2\n      sload\n      dup2\n      lt\n      tag_460\n      jumpi\n      invalid\n    tag_460:\n      swap1\n      0x00\n      mstore\n      keccak256(0x00, 0x20)\n      swap1\n      0x02\n      mul\n      add\n        /* \"ICO AFFILIATE/Copy_staker3lv.sol\":9651:9667  plans[plan].time */\n      0x00\n      add\n      sload\n        /* \"ICO AFFILIATE/Copy_staker3lv.sol\":9644:9667  time = plans[plan].time */\n      swap2\n      pop\n        /* \"ICO AFFILIATE/Copy_staker3lv.sol\":9681:9686  plans */\n      0x0f\n        /* \"ICO AFFILIATE/Copy_staker3lv.sol\":9687:9691  plan */\n      dup4\n        /* \"ICO AFFILIATE/Copy_staker3lv.sol\":9681:9692  plans[plan] */\n      0xff\n      and\n      dup2\n      sload\n      dup2\n      lt\n      tag_462\n      jumpi\n      invalid\n    tag_462:\n      swap1\n      0x00\n      mstore\n      keccak256(0x00, 0x20)\n      swap1\n      0x02\n      mul\n      add\n        /* \"ICO AFFILIATE/Copy_staker3lv.sol\":9681:9700  plans[plan].percent */\n      0x01\n      add\n      sload\n        /* \"ICO AFFILIATE/Copy_staker3lv.sol\":9671:9700  percent = plans[plan].percent */\n      swap1\n      pop\n        /* \"ICO AFFILIATE/Copy_staker3lv.sol\":9556:9704  function getPlanInfo(uint8 plan) public view returns(uint256 time, uint256 percent) {... */\n      swap2\n      pop\n      swap2\n      jump\t// out\n        /* \"ICO AFFILIATE/Copy_staker3lv.sol\":2393:2414  State public ICOState */\n    tag_204:\n      0x0e\n      0x00\n      swap1\n      sload\n      swap1\n      0x0100\n      exp\n      swap1\n      div\n      0xff\n      and\n      dup2\n      jump\t// out\n        /* \"ICO AFFILIATE/Copy_staker3lv.sol\":12709:13171  function getUserDepositInfo(address userAddress, uint256 index) public view returns(uint8 plan, uint256 percent, uint256 amount, uint256 profit, uint256 start, uint256 finish) {... */\n    tag_209:\n        /* \"ICO AFFILIATE/Copy_staker3lv.sol\":12793:12803  uint8 plan */\n      0x00\n        /* \"ICO AFFILIATE/Copy_staker3lv.sol\":12805:12820  uint256 percent */\n      dup1\n        /* \"ICO AFFILIATE/Copy_staker3lv.sol\":12822:12836  uint256 amount */\n      0x00\n        /* \"ICO AFFILIATE/Copy_staker3lv.sol\":12838:12852  uint256 profit */\n      dup1\n        /* \"ICO AFFILIATE/Copy_staker3lv.sol\":12854:12867  uint256 start */\n      0x00\n        /* \"ICO AFFILIATE/Copy_staker3lv.sol\":12869:12883  uint256 finish */\n      dup1\n        /* \"ICO AFFILIATE/Copy_staker3lv.sol\":12892:12909  User storage user */\n      0x00\n        /* \"ICO AFFILIATE/Copy_staker3lv.sol\":12912:12917  users */\n      0x10\n        /* \"ICO AFFILIATE/Copy_staker3lv.sol\":12912:12930  users[userAddress] */\n      0x00\n        /* \"ICO AFFILIATE/Copy_staker3lv.sol\":12918:12929  userAddress */\n      dup11\n        /* \"ICO AFFILIATE/Copy_staker3lv.sol\":12912:12930  users[userAddress] */\n      0xffffffffffffffffffffffffffffffffffffffff\n      and\n      0xffffffffffffffffffffffffffffffffffffffff\n      and\n      dup2\n      mstore\n      0x20\n      add\n      swap1\n      dup2\n      mstore\n      0x20\n      add\n      0x00\n      keccak256\n        /* \"ICO AFFILIATE/Copy_staker3lv.sol\":12892:12930  User storage user = users[userAddress] */\n      swap1\n      pop\n        /* \"ICO AFFILIATE/Copy_staker3lv.sol\":12942:12946  user */\n      dup1\n        /* \"ICO AFFILIATE/Copy_staker3lv.sol\":12942:12955  user.deposits */\n      0x00\n      add\n        /* \"ICO AFFILIATE/Copy_staker3lv.sol\":12956:12961  index */\n      dup9\n        /* \"ICO AFFILIATE/Copy_staker3lv.sol\":12942:12962  user.deposits[index] */\n      dup2\n      sload\n      dup2\n      lt\n      tag_465\n      jumpi\n      invalid\n    tag_465:\n      swap1\n      0x00\n      mstore\n      keccak256(0x00, 0x20)\n      swap1\n      0x06\n      mul\n      add\n        /* \"ICO AFFILIATE/Copy_staker3lv.sol\":12942:12967  user.deposits[index].plan */\n      0x00\n      add\n      0x00\n      swap1\n      sload\n      swap1\n      0x0100\n      exp\n      swap1\n      div\n      0xff\n      and\n        /* \"ICO AFFILIATE/Copy_staker3lv.sol\":12935:12967  plan = user.deposits[index].plan */\n      swap7\n      pop\n        /* \"ICO AFFILIATE/Copy_staker3lv.sol\":12981:12985  user */\n      dup1\n        /* \"ICO AFFILIATE/Copy_staker3lv.sol\":12981:12994  user.deposits */\n      0x00\n      add\n        /* \"ICO AFFILIATE/Copy_staker3lv.sol\":12995:13000  index */\n      dup9\n        /* \"ICO AFFILIATE/Copy_staker3lv.sol\":12981:13001  user.deposits[index] */\n      dup2\n      sload\n      dup2\n      lt\n      tag_467\n      jumpi\n      invalid\n    tag_467:\n      swap1\n      0x00\n      mstore\n      keccak256(0x00, 0x20)\n      swap1\n      0x06\n      mul\n      add\n        /* \"ICO AFFILIATE/Copy_staker3lv.sol\":12981:13009  user.deposits[index].percent */\n      0x01\n      add\n      sload\n        /* \"ICO AFFILIATE/Copy_staker3lv.sol\":12971:13009  percent = user.deposits[index].percent */\n      swap6\n      pop\n        /* \"ICO AFFILIATE/Copy_staker3lv.sol\":13022:13026  user */\n      dup1\n        /* \"ICO AFFILIATE/Copy_staker3lv.sol\":13022:13035  user.deposits */\n      0x00\n      add\n        /* \"ICO AFFILIATE/Copy_staker3lv.sol\":13036:13041  index */\n      dup9\n        /* \"ICO AFFILIATE/Copy_staker3lv.sol\":13022:13042  user.deposits[index] */\n      dup2\n      sload\n      dup2\n      lt\n      tag_469\n      jumpi\n      invalid\n    tag_469:\n      swap1\n      0x00\n      mstore\n      keccak256(0x00, 0x20)\n      swap1\n      0x06\n      mul\n      add\n        /* \"ICO AFFILIATE/Copy_staker3lv.sol\":13022:13049  user.deposits[index].amount */\n      0x02\n      add\n      sload\n        /* \"ICO AFFILIATE/Copy_staker3lv.sol\":13013:13049  amount = user.deposits[index].amount */\n      swap5\n      pop\n        /* \"ICO AFFILIATE/Copy_staker3lv.sol\":13062:13066  user */\n      dup1\n        /* \"ICO AFFILIATE/Copy_staker3lv.sol\":13062:13075  user.deposits */\n      0x00\n      add\n        /* \"ICO AFFILIATE/Copy_staker3lv.sol\":13076:13081  index */\n      dup9\n        /* \"ICO AFFILIATE/Copy_staker3lv.sol\":13062:13082  user.deposits[index] */\n      dup2\n      sload\n      dup2\n      lt\n      tag_471\n      jumpi\n      invalid\n    tag_471:\n      swap1\n      0x00\n      mstore\n      keccak256(0x00, 0x20)\n      swap1\n      0x06\n      mul\n      add\n        /* \"ICO AFFILIATE/Copy_staker3lv.sol\":13062:13089  user.deposits[index].profit */\n      0x03\n      add\n      sload\n        /* \"ICO AFFILIATE/Copy_staker3lv.sol\":13053:13089  profit = user.deposits[index].profit */\n      swap4\n      pop\n        /* \"ICO AFFILIATE/Copy_staker3lv.sol\":13101:13105  user */\n      dup1\n        /* \"ICO AFFILIATE/Copy_staker3lv.sol\":13101:13114  user.deposits */\n      0x00\n      add\n        /* \"ICO AFFILIATE/Copy_staker3lv.sol\":13115:13120  index */\n      dup9\n        /* \"ICO AFFILIATE/Copy_staker3lv.sol\":13101:13121  user.deposits[index] */\n      dup2\n      sload\n      dup2\n      lt\n      tag_473\n      jumpi\n      invalid\n    tag_473:\n      swap1\n      0x00\n      mstore\n      keccak256(0x00, 0x20)\n      swap1\n      0x06\n      mul\n      add\n        /* \"ICO AFFILIATE/Copy_staker3lv.sol\":13101:13127  user.deposits[index].start */\n      0x04\n      add\n      sload\n        /* \"ICO AFFILIATE/Copy_staker3lv.sol\":13093:13127  start = user.deposits[index].start */\n      swap3\n      pop\n        /* \"ICO AFFILIATE/Copy_staker3lv.sol\":13140:13144  user */\n      dup1\n        /* \"ICO AFFILIATE/Copy_staker3lv.sol\":13140:13153  user.deposits */\n      0x00\n      add\n        /* \"ICO AFFILIATE/Copy_staker3lv.sol\":13154:13159  index */\n      dup9\n        /* \"ICO AFFILIATE/Copy_staker3lv.sol\":13140:13160  user.deposits[index] */\n      dup2\n      sload\n      dup2\n      lt\n      tag_475\n      jumpi\n      invalid\n    tag_475:\n      swap1\n      0x00\n      mstore\n      keccak256(0x00, 0x20)\n      swap1\n      0x06\n      mul\n      add\n        /* \"ICO AFFILIATE/Copy_staker3lv.sol\":13140:13167  user.deposits[index].finish */\n      0x05\n      add\n      sload\n        /* \"ICO AFFILIATE/Copy_staker3lv.sol\":13131:13167  finish = user.deposits[index].finish */\n      swap2\n      pop\n        /* \"ICO AFFILIATE/Copy_staker3lv.sol\":12709:13171  function getUserDepositInfo(address userAddress, uint256 index) public view returns(uint8 plan, uint256 percent, uint256 amount, uint256 profit, uint256 start, uint256 finish) {... */\n      pop\n      swap3\n      swap6\n      pop\n      swap3\n      swap6\n      pop\n      swap3\n      swap6\n      jump\t// out\n        /* \"ICO AFFILIATE/Copy_staker3lv.sol\":3040:3064  uint256 public startUNIX */\n    tag_212:\n      sload(0x11)\n      dup2\n      jump\t// out\n        /* \"ICO AFFILIATE/Copy_staker3lv.sol\":2048:2072  uint public raisedAmount */\n    tag_215:\n      sload(0x08)\n      dup2\n      jump\t// out\n        /* \"ICO AFFILIATE/Copy_staker3lv.sol\":11317:11438  function getUserCheckpoint(address userAddress) public view returns(uint256) {... */\n    tag_219:\n        /* \"ICO AFFILIATE/Copy_staker3lv.sol\":11385:11392  uint256 */\n      0x00\n        /* \"ICO AFFILIATE/Copy_staker3lv.sol\":11405:11410  users */\n      0x10\n        /* \"ICO AFFILIATE/Copy_staker3lv.sol\":11405:11423  users[userAddress] */\n      0x00\n        /* \"ICO AFFILIATE/Copy_staker3lv.sol\":11411:11422  userAddress */\n      dup4\n        /* \"ICO AFFILIATE/Copy_staker3lv.sol\":11405:11423  users[userAddress] */\n      0xffffffffffffffffffffffffffffffffffffffff\n      and\n      0xffffffffffffffffffffffffffffffffffffffff\n      and\n      dup2\n      mstore\n      0x20\n      add\n      swap1\n      dup2\n      mstore\n      0x20\n      add\n      0x00\n      keccak256\n        /* \"ICO AFFILIATE/Copy_staker3lv.sol\":11405:11434  users[userAddress].checkpoint */\n      0x01\n      add\n      sload\n        /* \"ICO AFFILIATE/Copy_staker3lv.sol\":11398:11434  return users[userAddress].checkpoint */\n      swap1\n      pop\n        /* \"ICO AFFILIATE/Copy_staker3lv.sol\":11317:11438  function getUserCheckpoint(address userAddress) public view returns(uint256) {... */\n      swap2\n      swap1\n      pop\n      jump\t// out\n        /* \"ICO AFFILIATE/Copy_staker3lv.sol\":13814:14102  function endIco() public {... */\n    tag_222:\n        /* \"ICO AFFILIATE/Copy_staker3lv.sol\":13869:13882  State.RUNNING */\n      0x01\n        /* \"ICO AFFILIATE/Copy_staker3lv.sol\":13857:13882  ICOState == State.RUNNING */\n      0x03\n      dup2\n      gt\n      iszero\n      tag_479\n      jumpi\n      invalid\n    tag_479:\n        /* \"ICO AFFILIATE/Copy_staker3lv.sol\":13857:13865  ICOState */\n      0x0e\n      0x00\n      swap1\n      sload\n      swap1\n      0x0100\n      exp\n      swap1\n      div\n      0xff\n      and\n        /* \"ICO AFFILIATE/Copy_staker3lv.sol\":13857:13882  ICOState == State.RUNNING */\n      0x03\n      dup2\n      gt\n      iszero\n      tag_480\n      jumpi\n      invalid\n    tag_480:\n      eq\n        /* \"ICO AFFILIATE/Copy_staker3lv.sol\":13849:13917  require(ICOState == State.RUNNING, \"ICO Should be in Running State\") */\n      tag_481\n      jumpi\n      mload(0x40)\n      0x08c379a000000000000000000000000000000000000000000000000000000000\n      dup2\n      mstore\n      0x04\n      add\n      dup1\n      dup1\n      0x20\n      add\n      dup3\n      dup2\n      sub\n      dup3\n      mstore\n      0x1e\n      dup2\n      mstore\n      0x20\n      add\n      dup1\n      0x49434f2053686f756c6420626520696e2052756e6e696e672053746174650000\n      dup2\n      mstore\n      pop\n      0x20\n      add\n      swap2\n      pop\n      pop\n      mload(0x40)\n      dup1\n      swap2\n      sub\n      swap1\n      revert\n    tag_481:\n        /* \"ICO AFFILIATE/Copy_staker3lv.sol\":13966:13976  icoEndTime */\n      sload(0x0c)\n        /* \"ICO AFFILIATE/Copy_staker3lv.sol\":13948:13963  block.timestamp */\n      timestamp\n        /* \"ICO AFFILIATE/Copy_staker3lv.sol\":13948:13976  block.timestamp > icoEndTime */\n      gt\n        /* \"ICO AFFILIATE/Copy_staker3lv.sol\":13948:14003  block.timestamp > icoEndTime || raisedAmount >= hardCap */\n      dup1\n      tag_482\n      jumpi\n      pop\n        /* \"ICO AFFILIATE/Copy_staker3lv.sol\":13996:14003  hardCap */\n      sload(0x07)\n        /* \"ICO AFFILIATE/Copy_staker3lv.sol\":13980:13992  raisedAmount */\n      sload(0x08)\n        /* \"ICO AFFILIATE/Copy_staker3lv.sol\":13980:14003  raisedAmount >= hardCap */\n      lt\n      iszero\n        /* \"ICO AFFILIATE/Copy_staker3lv.sol\":13948:14003  block.timestamp > icoEndTime || raisedAmount >= hardCap */\n    tag_482:\n        /* \"ICO AFFILIATE/Copy_staker3lv.sol\":13927:14065  require(... */\n      tag_483\n      jumpi\n      mload(0x40)\n      0x08c379a000000000000000000000000000000000000000000000000000000000\n      dup2\n      mstore\n      0x04\n      add\n      dup1\n      dup1\n      0x20\n      add\n      dup3\n      dup2\n      sub\n      dup3\n      mstore\n      0x24\n      dup2\n      mstore\n      0x20\n      add\n      dup1\n      data_dc7fa2e80399799691b973c960ff16c142e88d2d122b55a780d570b72441b8f9\n      0x24\n      swap2\n      codecopy\n      0x40\n      add\n      swap2\n      pop\n      pop\n      mload(0x40)\n      dup1\n      swap2\n      sub\n      swap1\n      revert\n    tag_483:\n        /* \"ICO AFFILIATE/Copy_staker3lv.sol\":14086:14095  State.END */\n      0x02\n        /* \"ICO AFFILIATE/Copy_staker3lv.sol\":14075:14083  ICOState */\n      0x0e\n      0x00\n        /* \"ICO AFFILIATE/Copy_staker3lv.sol\":14075:14095  ICOState = State.END */\n      0x0100\n      exp\n      dup2\n      sload\n      dup2\n      0xff\n      mul\n      not\n      and\n      swap1\n      dup4\n      0x03\n      dup2\n      gt\n      iszero\n      tag_484\n      jumpi\n      invalid\n    tag_484:\n      mul\n      or\n      swap1\n      sstore\n      pop\n        /* \"ICO AFFILIATE/Copy_staker3lv.sol\":13814:14102  function endIco() public {... */\n      jump\t// out\n        /* \"ICO AFFILIATE/Copy_staker3lv.sol\":11767:11886  function getUserReferralBonus(address userAddress) public view returns(uint256) {... */\n    tag_226:\n        /* \"ICO AFFILIATE/Copy_staker3lv.sol\":11838:11845  uint256 */\n      0x00\n        /* \"ICO AFFILIATE/Copy_staker3lv.sol\":11858:11863  users */\n      0x10\n        /* \"ICO AFFILIATE/Copy_staker3lv.sol\":11858:11876  users[userAddress] */\n      0x00\n        /* \"ICO AFFILIATE/Copy_staker3lv.sol\":11864:11875  userAddress */\n      dup4\n        /* \"ICO AFFILIATE/Copy_staker3lv.sol\":11858:11876  users[userAddress] */\n      0xffffffffffffffffffffffffffffffffffffffff\n      and\n      0xffffffffffffffffffffffffffffffffffffffff\n      and\n      dup2\n      mstore\n      0x20\n      add\n      swap1\n      dup2\n      mstore\n      0x20\n      add\n      0x00\n      keccak256\n        /* \"ICO AFFILIATE/Copy_staker3lv.sol\":11858:11882  users[userAddress].bonus */\n      0x06\n      add\n      sload\n        /* \"ICO AFFILIATE/Copy_staker3lv.sol\":11851:11882  return users[userAddress].bonus */\n      swap1\n      pop\n        /* \"ICO AFFILIATE/Copy_staker3lv.sol\":11767:11886  function getUserReferralBonus(address userAddress) public view returns(uint256) {... */\n      swap2\n      swap1\n      pop\n      jump\t// out\n        /* \"ICO AFFILIATE/Copy_staker3lv.sol\":1847:1867  address public admin */\n    tag_229:\n      0x03\n      0x00\n      swap1\n      sload\n      swap1\n      0x0100\n      exp\n      swap1\n      div\n      0xffffffffffffffffffffffffffffffffffffffff\n      and\n      dup2\n      jump\t// out\n        /* \"ICO AFFILIATE/Copy_staker3lv.sol\":2011:2042  uint public hardCap = 500 ether */\n    tag_232:\n      sload(0x07)\n      dup2\n      jump\t// out\n        /* \"ICO AFFILIATE/Copy_staker3lv.sol\":1924:1943  IERC20 public token */\n    tag_235:\n      0x05\n      0x00\n      swap1\n      sload\n      swap1\n      0x0100\n      exp\n      swap1\n      div\n      0xffffffffffffffffffffffffffffffffffffffff\n      and\n      dup2\n      jump\t// out\n        /* \"https://github.com/OpenZeppelin/openzeppelin-contracts/blob/v3.0.0/contracts/math/SafeMath.sol\":2119:2578  function mul(uint256 a, uint256 b) internal pure returns (uint256) {... */\n    tag_263:\n        /* \"https://github.com/OpenZeppelin/openzeppelin-contracts/blob/v3.0.0/contracts/math/SafeMath.sol\":2177:2184  uint256 */\n      0x00\n        /* \"https://github.com/OpenZeppelin/openzeppelin-contracts/blob/v3.0.0/contracts/math/SafeMath.sol\":2423:2424  0 */\n      dup1\n        /* \"https://github.com/OpenZeppelin/openzeppelin-contracts/blob/v3.0.0/contracts/math/SafeMath.sol\":2418:2419  a */\n      dup4\n        /* \"https://github.com/OpenZeppelin/openzeppelin-contracts/blob/v3.0.0/contracts/math/SafeMath.sol\":2418:2424  a == 0 */\n      eq\n        /* \"https://github.com/OpenZeppelin/openzeppelin-contracts/blob/v3.0.0/contracts/math/SafeMath.sol\":2414:2459  if (a == 0) {... */\n      iszero\n      tag_487\n      jumpi\n        /* \"https://github.com/OpenZeppelin/openzeppelin-contracts/blob/v3.0.0/contracts/math/SafeMath.sol\":2447:2448  0 */\n      0x00\n        /* \"https://github.com/OpenZeppelin/openzeppelin-contracts/blob/v3.0.0/contracts/math/SafeMath.sol\":2440:2448  return 0 */\n      swap1\n      pop\n      jump(tag_486)\n        /* \"https://github.com/OpenZeppelin/openzeppelin-contracts/blob/v3.0.0/contracts/math/SafeMath.sol\":2414:2459  if (a == 0) {... */\n    tag_487:\n        /* \"https://github.com/OpenZeppelin/openzeppelin-contracts/blob/v3.0.0/contracts/math/SafeMath.sol\":2469:2478  uint256 c */\n      0x00\n        /* \"https://github.com/OpenZeppelin/openzeppelin-contracts/blob/v3.0.0/contracts/math/SafeMath.sol\":2485:2486  b */\n      dup3\n        /* \"https://github.com/OpenZeppelin/openzeppelin-contracts/blob/v3.0.0/contracts/math/SafeMath.sol\":2481:2482  a */\n      dup5\n        /* \"https://github.com/OpenZeppelin/openzeppelin-contracts/blob/v3.0.0/contracts/math/SafeMath.sol\":2481:2486  a * b */\n      mul\n        /* \"https://github.com/OpenZeppelin/openzeppelin-contracts/blob/v3.0.0/contracts/math/SafeMath.sol\":2469:2486  uint256 c = a * b */\n      swap1\n      pop\n        /* \"https://github.com/OpenZeppelin/openzeppelin-contracts/blob/v3.0.0/contracts/math/SafeMath.sol\":2513:2514  b */\n      dup3\n        /* \"https://github.com/OpenZeppelin/openzeppelin-contracts/blob/v3.0.0/contracts/math/SafeMath.sol\":2508:2509  a */\n      dup5\n        /* \"https://github.com/OpenZeppelin/openzeppelin-contracts/blob/v3.0.0/contracts/math/SafeMath.sol\":2504:2505  c */\n      dup3\n        /* \"https://github.com/OpenZeppelin/openzeppelin-contracts/blob/v3.0.0/contracts/math/SafeMath.sol\":2504:2509  c / a */\n      dup2\n      tag_488\n      jumpi\n      invalid\n    tag_488:\n      div\n        /* \"https://github.com/OpenZeppelin/openzeppelin-contracts/blob/v3.0.0/contracts/math/SafeMath.sol\":2504:2514  c / a == b */\n      eq\n        /* \"https://github.com/OpenZeppelin/openzeppelin-contracts/blob/v3.0.0/contracts/math/SafeMath.sol\":2496:2552  require(c / a == b, \"SafeMath: multiplication overflow\") */\n      tag_489\n      jumpi\n      mload(0x40)\n      0x08c379a000000000000000000000000000000000000000000000000000000000\n      dup2\n      mstore\n      0x04\n      add\n      dup1\n      dup1\n      0x20\n      add\n      dup3\n      dup2\n      sub\n      dup3\n      mstore\n      0x21\n      dup2\n      mstore\n      0x20\n      add\n      dup1\n      data_9113bb53c2876a3805b2c9242029423fc540a728243ce887ab24c82cf119fba3\n      0x21\n      swap2\n      codecopy\n      0x40\n      add\n      swap2\n      pop\n      pop\n      mload(0x40)\n      dup1\n      swap2\n      sub\n      swap1\n      revert\n    tag_489:\n        /* \"https://github.com/OpenZeppelin/openzeppelin-contracts/blob/v3.0.0/contracts/math/SafeMath.sol\":2570:2571  c */\n      dup1\n        /* \"https://github.com/OpenZeppelin/openzeppelin-contracts/blob/v3.0.0/contracts/math/SafeMath.sol\":2563:2571  return c */\n      swap2\n      pop\n      pop\n        /* \"https://github.com/OpenZeppelin/openzeppelin-contracts/blob/v3.0.0/contracts/math/SafeMath.sol\":2119:2578  function mul(uint256 a, uint256 b) internal pure returns (uint256) {... */\n    tag_486:\n      swap3\n      swap2\n      pop\n      pop\n      jump\t// out\n        /* \"https://github.com/OpenZeppelin/openzeppelin-contracts/blob/v3.0.0/contracts/math/SafeMath.sol\":3033:3163  function div(uint256 a, uint256 b) internal pure returns (uint256) {... */\n    tag_264:\n        /* \"https://github.com/OpenZeppelin/openzeppelin-contracts/blob/v3.0.0/contracts/math/SafeMath.sol\":3091:3098  uint256 */\n      0x00\n        /* \"https://github.com/OpenZeppelin/openzeppelin-contracts/blob/v3.0.0/contracts/math/SafeMath.sol\":3117:3156  div(a, b, \"SafeMath: division by zero\") */\n      tag_491\n        /* \"https://github.com/OpenZeppelin/openzeppelin-contracts/blob/v3.0.0/contracts/math/SafeMath.sol\":3121:3122  a */\n      dup4\n        /* \"https://github.com/OpenZeppelin/openzeppelin-contracts/blob/v3.0.0/contracts/math/SafeMath.sol\":3124:3125  b */\n      dup4\n        /* \"https://github.com/OpenZeppelin/openzeppelin-contracts/blob/v3.0.0/contracts/math/SafeMath.sol\":3117:3156  div(a, b, \"SafeMath: division by zero\") */\n      mload(0x40)\n      dup1\n      0x40\n      add\n      0x40\n      mstore\n      dup1\n      0x1a\n      dup2\n      mstore\n      0x20\n      add\n      0x536166654d6174683a206469766973696f6e206279207a65726f000000000000\n      dup2\n      mstore\n      pop\n        /* \"https://github.com/OpenZeppelin/openzeppelin-contracts/blob/v3.0.0/contracts/math/SafeMath.sol\":3117:3120  div */\n      tag_492\n        /* \"https://github.com/OpenZeppelin/openzeppelin-contracts/blob/v3.0.0/contracts/math/SafeMath.sol\":3117:3156  div(a, b, \"SafeMath: division by zero\") */\n      jump\t// in\n    tag_491:\n        /* \"https://github.com/OpenZeppelin/openzeppelin-contracts/blob/v3.0.0/contracts/math/SafeMath.sol\":3110:3156  return div(a, b, \"SafeMath: division by zero\") */\n      swap1\n      pop\n        /* \"https://github.com/OpenZeppelin/openzeppelin-contracts/blob/v3.0.0/contracts/math/SafeMath.sol\":3033:3163  function div(uint256 a, uint256 b) internal pure returns (uint256) {... */\n      swap3\n      swap2\n      pop\n      pop\n      jump\t// out\n        /* \"https://github.com/OpenZeppelin/openzeppelin-contracts/blob/v3.0.0/contracts/math/SafeMath.sol\":1274:1408  function sub(uint256 a, uint256 b) internal pure returns (uint256) {... */\n    tag_282:\n        /* \"https://github.com/OpenZeppelin/openzeppelin-contracts/blob/v3.0.0/contracts/math/SafeMath.sol\":1332:1339  uint256 */\n      0x00\n        /* \"https://github.com/OpenZeppelin/openzeppelin-contracts/blob/v3.0.0/contracts/math/SafeMath.sol\":1358:1401  sub(a, b, \"SafeMath: subtraction overflow\") */\n      tag_494\n        /* \"https://github.com/OpenZeppelin/openzeppelin-contracts/blob/v3.0.0/contracts/math/SafeMath.sol\":1362:1363  a */\n      dup4\n        /* \"https://github.com/OpenZeppelin/openzeppelin-contracts/blob/v3.0.0/contracts/math/SafeMath.sol\":1365:1366  b */\n      dup4\n        /* \"https://github.com/OpenZeppelin/openzeppelin-contracts/blob/v3.0.0/contracts/math/SafeMath.sol\":1358:1401  sub(a, b, \"SafeMath: subtraction overflow\") */\n      mload(0x40)\n      dup1\n      0x40\n      add\n      0x40\n      mstore\n      dup1\n      0x1e\n      dup2\n      mstore\n      0x20\n      add\n      0x536166654d6174683a207375627472616374696f6e206f766572666c6f770000\n      dup2\n      mstore\n      pop\n        /* \"https://github.com/OpenZeppelin/openzeppelin-contracts/blob/v3.0.0/contracts/math/SafeMath.sol\":1358:1361  sub */\n      tag_495\n        /* \"https://github.com/OpenZeppelin/openzeppelin-contracts/blob/v3.0.0/contracts/math/SafeMath.sol\":1358:1401  sub(a, b, \"SafeMath: subtraction overflow\") */\n      jump\t// in\n    tag_494:\n        /* \"https://github.com/OpenZeppelin/openzeppelin-contracts/blob/v3.0.0/contracts/math/SafeMath.sol\":1351:1401  return sub(a, b, \"SafeMath: subtraction overflow\") */\n      swap1\n      pop\n        /* \"https://github.com/OpenZeppelin/openzeppelin-contracts/blob/v3.0.0/contracts/math/SafeMath.sol\":1274:1408  function sub(uint256 a, uint256 b) internal pure returns (uint256) {... */\n      swap3\n      swap2\n      pop\n      pop\n      jump\t// out\n        /* \"https://github.com/OpenZeppelin/openzeppelin-contracts/blob/v3.0.0/contracts/math/SafeMath.sol\":834:1010  function add(uint256 a, uint256 b) internal pure returns (uint256) {... */\n    tag_283:\n        /* \"https://github.com/OpenZeppelin/openzeppelin-contracts/blob/v3.0.0/contracts/math/SafeMath.sol\":892:899  uint256 */\n      0x00\n        /* \"https://github.com/OpenZeppelin/openzeppelin-contracts/blob/v3.0.0/contracts/math/SafeMath.sol\":911:920  uint256 c */\n      dup1\n        /* \"https://github.com/OpenZeppelin/openzeppelin-contracts/blob/v3.0.0/contracts/math/SafeMath.sol\":927:928  b */\n      dup3\n        /* \"https://github.com/OpenZeppelin/openzeppelin-contracts/blob/v3.0.0/contracts/math/SafeMath.sol\":923:924  a */\n      dup5\n        /* \"https://github.com/OpenZeppelin/openzeppelin-contracts/blob/v3.0.0/contracts/math/SafeMath.sol\":923:928  a + b */\n      add\n        /* \"https://github.com/OpenZeppelin/openzeppelin-contracts/blob/v3.0.0/contracts/math/SafeMath.sol\":911:928  uint256 c = a + b */\n      swap1\n      pop\n        /* \"https://github.com/OpenZeppelin/openzeppelin-contracts/blob/v3.0.0/contracts/math/SafeMath.sol\":951:952  a */\n      dup4\n        /* \"https://github.com/OpenZeppelin/openzeppelin-contracts/blob/v3.0.0/contracts/math/SafeMath.sol\":946:947  c */\n      dup2\n        /* \"https://github.com/OpenZeppelin/openzeppelin-contracts/blob/v3.0.0/contracts/math/SafeMath.sol\":946:952  c >= a */\n      lt\n      iszero\n        /* \"https://github.com/OpenZeppelin/openzeppelin-contracts/blob/v3.0.0/contracts/math/SafeMath.sol\":938:984  require(c >= a, \"SafeMath: addition overflow\") */\n      tag_497\n      jumpi\n      mload(0x40)\n      0x08c379a000000000000000000000000000000000000000000000000000000000\n      dup2\n      mstore\n      0x04\n      add\n      dup1\n      dup1\n      0x20\n      add\n      dup3\n      dup2\n      sub\n      dup3\n      mstore\n      0x1b\n      dup2\n      mstore\n      0x20\n      add\n      dup1\n      0x536166654d6174683a206164646974696f6e206f766572666c6f770000000000\n      dup2\n      mstore\n      pop\n      0x20\n      add\n      swap2\n      pop\n      pop\n      mload(0x40)\n      dup1\n      swap2\n      sub\n      swap1\n      revert\n    tag_497:\n        /* \"https://github.com/OpenZeppelin/openzeppelin-contracts/blob/v3.0.0/contracts/math/SafeMath.sol\":1002:1003  c */\n      dup1\n        /* \"https://github.com/OpenZeppelin/openzeppelin-contracts/blob/v3.0.0/contracts/math/SafeMath.sol\":995:1003  return c */\n      swap2\n      pop\n      pop\n        /* \"https://github.com/OpenZeppelin/openzeppelin-contracts/blob/v3.0.0/contracts/math/SafeMath.sol\":834:1010  function add(uint256 a, uint256 b) internal pure returns (uint256) {... */\n      swap3\n      swap2\n      pop\n      pop\n      jump\t// out\n        /* \"https://github.com/OpenZeppelin/openzeppelin-contracts/blob/v3.0.0/contracts/math/SafeMath.sol\":3638:3976  function div(uint256 a, uint256 b, string memory errorMessage) internal pure returns (uint256) {... */\n    tag_492:\n        /* \"https://github.com/OpenZeppelin/openzeppelin-contracts/blob/v3.0.0/contracts/math/SafeMath.sol\":3724:3731  uint256 */\n      0x00\n        /* \"https://github.com/OpenZeppelin/openzeppelin-contracts/blob/v3.0.0/contracts/math/SafeMath.sol\":3821:3822  0 */\n      dup1\n        /* \"https://github.com/OpenZeppelin/openzeppelin-contracts/blob/v3.0.0/contracts/math/SafeMath.sol\":3817:3818  b */\n      dup4\n        /* \"https://github.com/OpenZeppelin/openzeppelin-contracts/blob/v3.0.0/contracts/math/SafeMath.sol\":3817:3822  b > 0 */\n      gt\n        /* \"https://github.com/OpenZeppelin/openzeppelin-contracts/blob/v3.0.0/contracts/math/SafeMath.sol\":3824:3836  errorMessage */\n      dup3\n        /* \"https://github.com/OpenZeppelin/openzeppelin-contracts/blob/v3.0.0/contracts/math/SafeMath.sol\":3809:3837  require(b > 0, errorMessage) */\n      swap1\n      tag_499\n      jumpi\n      mload(0x40)\n      0x08c379a000000000000000000000000000000000000000000000000000000000\n      dup2\n      mstore\n      0x04\n      add\n      dup1\n      dup1\n      0x20\n      add\n      dup3\n      dup2\n      sub\n      dup3\n      mstore\n      dup4\n      dup2\n      dup2\n      mload\n      dup2\n      mstore\n      0x20\n      add\n      swap2\n      pop\n      dup1\n      mload\n      swap1\n      0x20\n      add\n      swap1\n      dup1\n      dup4\n      dup4\n      0x00\n    tag_500:\n      dup4\n      dup2\n      lt\n      iszero\n      tag_502\n      jumpi\n      dup1\n      dup3\n      add\n      mload\n      dup2\n      dup5\n      add\n      mstore\n      0x20\n      dup2\n      add\n      swap1\n      pop\n      jump(tag_500)\n    tag_502:\n      pop\n      pop\n      pop\n      pop\n      swap1\n      pop\n      swap1\n      dup2\n      add\n      swap1\n      0x1f\n      and\n      dup1\n      iszero\n      tag_503\n      jumpi\n      dup1\n      dup3\n      sub\n      dup1\n      mload\n      0x01\n      dup4\n      0x20\n      sub\n      0x0100\n      exp\n      sub\n      not\n      and\n      dup2\n      mstore\n      0x20\n      add\n      swap2\n      pop\n    tag_503:\n      pop\n      swap3\n      pop\n      pop\n      pop\n      mload(0x40)\n      dup1\n      swap2\n      sub\n      swap1\n      revert\n    tag_499:\n      pop\n        /* \"https://github.com/OpenZeppelin/openzeppelin-contracts/blob/v3.0.0/contracts/math/SafeMath.sol\":3847:3856  uint256 c */\n      0x00\n        /* \"https://github.com/OpenZeppelin/openzeppelin-contracts/blob/v3.0.0/contracts/math/SafeMath.sol\":3863:3864  b */\n      dup4\n        /* \"https://github.com/OpenZeppelin/openzeppelin-contracts/blob/v3.0.0/contracts/math/SafeMath.sol\":3859:3860  a */\n      dup6\n        /* \"https://github.com/OpenZeppelin/openzeppelin-contracts/blob/v3.0.0/contracts/math/SafeMath.sol\":3859:3864  a / b */\n      dup2\n      tag_504\n      jumpi\n      invalid\n    tag_504:\n      div\n        /* \"https://github.com/OpenZeppelin/openzeppelin-contracts/blob/v3.0.0/contracts/math/SafeMath.sol\":3847:3864  uint256 c = a / b */\n      swap1\n      pop\n        /* \"https://github.com/OpenZeppelin/openzeppelin-contracts/blob/v3.0.0/contracts/math/SafeMath.sol\":3968:3969  c */\n      dup1\n        /* \"https://github.com/OpenZeppelin/openzeppelin-contracts/blob/v3.0.0/contracts/math/SafeMath.sol\":3961:3969  return c */\n      swap2\n      pop\n      pop\n        /* \"https://github.com/OpenZeppelin/openzeppelin-contracts/blob/v3.0.0/contracts/math/SafeMath.sol\":3638:3976  function div(uint256 a, uint256 b, string memory errorMessage) internal pure returns (uint256) {... */\n      swap4\n      swap3\n      pop\n      pop\n      pop\n      jump\t// out\n        /* \"https://github.com/OpenZeppelin/openzeppelin-contracts/blob/v3.0.0/contracts/math/SafeMath.sol\":1692:1879  function sub(uint256 a, uint256 b, string memory errorMessage) internal pure returns (uint256) {... */\n    tag_495:\n        /* \"https://github.com/OpenZeppelin/openzeppelin-contracts/blob/v3.0.0/contracts/math/SafeMath.sol\":1778:1785  uint256 */\n      0x00\n        /* \"https://github.com/OpenZeppelin/openzeppelin-contracts/blob/v3.0.0/contracts/math/SafeMath.sol\":1810:1811  a */\n      dup4\n        /* \"https://github.com/OpenZeppelin/openzeppelin-contracts/blob/v3.0.0/contracts/math/SafeMath.sol\":1805:1806  b */\n      dup4\n        /* \"https://github.com/OpenZeppelin/openzeppelin-contracts/blob/v3.0.0/contracts/math/SafeMath.sol\":1805:1811  b <= a */\n      gt\n      iszero\n        /* \"https://github.com/OpenZeppelin/openzeppelin-contracts/blob/v3.0.0/contracts/math/SafeMath.sol\":1813:1825  errorMessage */\n      dup3\n        /* \"https://github.com/OpenZeppelin/openzeppelin-contracts/blob/v3.0.0/contracts/math/SafeMath.sol\":1797:1826  require(b <= a, errorMessage) */\n      swap1\n      tag_506\n      jumpi\n      mload(0x40)\n      0x08c379a000000000000000000000000000000000000000000000000000000000\n      dup2\n      mstore\n      0x04\n      add\n      dup1\n      dup1\n      0x20\n      add\n      dup3\n      dup2\n      sub\n      dup3\n      mstore\n      dup4\n      dup2\n      dup2\n      mload\n      dup2\n      mstore\n      0x20\n      add\n      swap2\n      pop\n      dup1\n      mload\n      swap1\n      0x20\n      add\n      swap1\n      dup1\n      dup4\n      dup4\n      0x00\n    tag_507:\n      dup4\n      dup2\n      lt\n      iszero\n      tag_509\n      jumpi\n      dup1\n      dup3\n      add\n      mload\n      dup2\n      dup5\n      add\n      mstore\n      0x20\n      dup2\n      add\n      swap1\n      pop\n      jump(tag_507)\n    tag_509:\n      pop\n      pop\n      pop\n      pop\n      swap1\n      pop\n      swap1\n      dup2\n      add\n      swap1\n      0x1f\n      and\n      dup1\n      iszero\n      tag_510\n      jumpi\n      dup1\n      dup3\n      sub\n      dup1\n      mload\n      0x01\n      dup4\n      0x20\n      sub\n      0x0100\n      exp\n      sub\n      not\n      and\n      dup2\n      mstore\n      0x20\n      add\n      swap2\n      pop\n    tag_510:\n      pop\n      swap3\n      pop\n      pop\n      pop\n      mload(0x40)\n      dup1\n      swap2\n      sub\n      swap1\n      revert\n    tag_506:\n      pop\n        /* \"https://github.com/OpenZeppelin/openzeppelin-contracts/blob/v3.0.0/contracts/math/SafeMath.sol\":1836:1845  uint256 c */\n      0x00\n        /* \"https://github.com/OpenZeppelin/openzeppelin-contracts/blob/v3.0.0/contracts/math/SafeMath.sol\":1852:1853  b */\n      dup4\n        /* \"https://github.com/OpenZeppelin/openzeppelin-contracts/blob/v3.0.0/contracts/math/SafeMath.sol\":1848:1849  a */\n      dup6\n        /* \"https://github.com/OpenZeppelin/openzeppelin-contracts/blob/v3.0.0/contracts/math/SafeMath.sol\":1848:1853  a - b */\n      sub\n        /* \"https://github.com/OpenZeppelin/openzeppelin-contracts/blob/v3.0.0/contracts/math/SafeMath.sol\":1836:1853  uint256 c = a - b */\n      swap1\n      pop\n        /* \"https://github.com/OpenZeppelin/openzeppelin-contracts/blob/v3.0.0/contracts/math/SafeMath.sol\":1871:1872  c */\n      dup1\n        /* \"https://github.com/OpenZeppelin/openzeppelin-contracts/blob/v3.0.0/contracts/math/SafeMath.sol\":1864:1872  return c */\n      swap2\n      pop\n      pop\n        /* \"https://github.com/OpenZeppelin/openzeppelin-contracts/blob/v3.0.0/contracts/math/SafeMath.sol\":1692:1879  function sub(uint256 a, uint256 b, string memory errorMessage) internal pure returns (uint256) {... */\n      swap4\n      swap3\n      pop\n      pop\n      pop\n      jump\t// out\n    stop\n    data_9113bb53c2876a3805b2c9242029423fc540a728243ce887ab24c82cf119fba3 536166654d6174683a206d756c7469706c69636174696f6e206f766572666c6f77\n    data_b19041b147863dd1e2485ec122191c4070e71be557889d8f39b29cf78e2bf81d 496e766573746f722072656163686564206d6178696d756d20496e766573746d656e7420416d6f756e74\n    data_dc7fa2e80399799691b973c960ff16c142e88d2d122b55a780d570b72441b8f9 49434f2048617264636170206f722074696d656c696d6974206e6f742072656163686564\n    data_f13fcb773ad89e9f621cb28d77b09fbd23fdcc64ec1eb1ebce4ad7e788cdc486 49434f20616c72656164792052656163686564204d6178696d756d2074696d65206c696d6974\n\n    auxdata: 0xa2646970667358221220a64ea84bb6f0055c8e2f1bccbdf0452d4fed97e2641aca1d0528d4b6250ddfd364736f6c634300060c0033\n}\n",
				"bytecode": {
					"linkReferences": {},
					"object": "60806040526040518060600160405280603260ff168152602001601960ff168152602001600560ff1681525060009060036200003d92919062000430565b50655af3107a4000600655681b1ae4d6e2ef50000060075566038d7ea4c680006009556729a2241af62c0000600a553480156200007957600080fd5b506040516200419538038062004195833981810160405260808110156200009f57600080fd5b8101908080519060200190929190805190602001909291908051906020019092919080519060200190929190505050620000df846200041d60201b60201c565b15620000ea57600080fd5b60008311620000f857600080fd5b33600360006101000a81548173ffffffffffffffffffffffffffffffffffffffff021916908373ffffffffffffffffffffffffffffffffffffffff16021790555081600460006101000a81548173ffffffffffffffffffffffffffffffffffffffff021916908373ffffffffffffffffffffffffffffffffffffffff16021790555080600560006101000a81548173ffffffffffffffffffffffffffffffffffffffff021916908373ffffffffffffffffffffffffffffffffffffffff16021790555083601260006101000a81548173ffffffffffffffffffffffffffffffffffffffff021916908373ffffffffffffffffffffffffffffffffffffffff16021790555082601181905550600f6040518060400160405280600e81526020016050815250908060018154018082558091505060019003906000526020600020906002020160009091909190915060008201518160000155602082015181600101555050600f6040518060400160405280601581526020016041815250908060018154018082558091505060019003906000526020600020906002020160009091909190915060008201518160000155602082015181600101555050600f6040518060400160405280601c81526020016032815250908060018154018082558091505060019003906000526020600020906002020160009091909190915060008201518160000155602082015181600101555050600f6040518060400160405280600e81526020016050815250908060018154018082558091505060019003906000526020600020906002020160009091909190915060008201518160000155602082015181600101555050600f6040518060400160405280601581526020016041815250908060018154018082558091505060019003906000526020600020906002020160009091909190915060008201518160000155602082015181600101555050600f6040518060400160405280601c8152602001603281525090806001815401808255809150506001900390600052602060002090600202016000909190919091506000820151816000015560208201518160010155505050505050620004a6565b600080823b905060008111915050919050565b82805482825590600052602060002090810192821562000474579160200282015b8281111562000473578251829060ff1690559160200191906001019062000451565b5b50905062000483919062000487565b5090565b5b80821115620004a257600081600090555060010162000488565b5090565b613cdf80620004b66000396000f3fe6080604052600436106102b05760003560e01c80637e3abeea11610175578063a8aeb6c2116100dc578063c59ee1dc11610095578063e85abe091161006f578063e85abe0914610ed1578063f851a44014610f36578063fb86a40414610f77578063fc0c546a14610fa2576102bf565b8063c59ee1dc14610e2a578063d7ffca9114610e55578063e657807b14610eba576102bf565b8063a8aeb6c214610c35578063ae764df314610c9a578063aecaa63414610cdb578063aeecdc2c14610d34578063c0806b0314610d6a578063c234123814610dff576102bf565b80639641119e1161012e5780639641119e14610b2b57806397c0262a14610b355780639bff5ddb14610b765780639cbd7da514610ba1578063a51b953314610bb8578063a7c3d71b14610c0a576102bf565b80637e3abeea146109dd5780637fa8c15814610a425780637ff9b59614610a59578063817b1cd214610a845780638ac2c68014610aaf5780638f28397014610ada576102bf565b806348c37203116102195780636127b2ca116101d25780636127b2ca1461086757806361fba37d1461089257806369b11dd5146108f75780636bb18556146109225780636f9fb98a146109875780637e1055b6146109b2576102bf565b806348c372031461068c57806348d44bd1146106f157806357fc86b41461071c578063581c5ae6146107475780635936cf61146107ae578063600d20ce14610818576102bf565b8063153ab9df1161026b578063153ab9df1461045f5780631aae3460146104c45780632e659d931461052957806332bc298c146105b957806336144c9a146105e457806344df8e701461065f576102bf565b80622e1316146102c9578062f53e69146102f457806301c234a81461034557806303a93c0c14610370578063040a772e146103e3578063129caa1814610448576102bf565b366102bf576102bd610fe3565b005b6102c7610fe3565b005b3480156102d557600080fd5b506102de610fe5565b6040518082815260200191505060405180910390f35b34801561030057600080fd5b506103436004803603602081101561031757600080fd5b81019080803573ffffffffffffffffffffffffffffffffffffffff169060200190929190505050610feb565b005b34801561035157600080fd5b5061035a6110f2565b6040518082815260200191505060405180910390f35b34801561037c57600080fd5b506103bf6004803603602081101561039357600080fd5b81019080803573ffffffffffffffffffffffffffffffffffffffff1690602001909291905050506110f8565b60405180848152602001838152602001828152602001935050505060405180910390f35b3480156103ef57600080fd5b506104326004803603602081101561040657600080fd5b81019080803573ffffffffffffffffffffffffffffffffffffffff1690602001909291905050506111fa565b6040518082815260200191505060405180910390f35b34801561045457600080fd5b5061045d6114aa565b005b34801561046b57600080fd5b506104ae6004803603602081101561048257600080fd5b81019080803573ffffffffffffffffffffffffffffffffffffffff16906020019092919050505061162e565b6040518082815260200191505060405180910390f35b3480156104d057600080fd5b50610513600480360360208110156104e757600080fd5b81019080803573ffffffffffffffffffffffffffffffffffffffff16906020019092919050505061165a565b6040518082815260200191505060405180910390f35b34801561053557600080fd5b5061053e611672565b6040518080602001828103825283818151815260200191508051906020019080838360005b8381101561057e578082015181840152602081019050610563565b50505050905090810190601f1680156105ab5780820380516001836020036101000a031916815260200191505b509250505060405180910390f35b3480156105c557600080fd5b506105ce6117f1565b6040518082815260200191505060405180910390f35b3480156105f057600080fd5b506106336004803603602081101561060757600080fd5b81019080803573ffffffffffffffffffffffffffffffffffffffff1690602001909291905050506117f8565b604051808273ffffffffffffffffffffffffffffffffffffffff16815260200191505060405180910390f35b34801561066b57600080fd5b50610674611864565b60405180821515815260200191505060405180910390f35b34801561069857600080fd5b506106db600480360360208110156106af57600080fd5b81019080803573ffffffffffffffffffffffffffffffffffffffff169060200190929190505050611b76565b6040518082815260200191505060405180910390f35b3480156106fd57600080fd5b50610706611bc2565b6040518082815260200191505060405180910390f35b34801561072857600080fd5b50610731611bc7565b6040518082815260200191505060405180910390f35b6107966004803603604081101561075d57600080fd5b81019080803573ffffffffffffffffffffffffffffffffffffffff169060200190929190803560ff169060200190929190505050611bcc565b60405180821515815260200191505060405180910390f35b3480156107ba57600080fd5b506107f4600480360360408110156107d157600080fd5b81019080803560ff16906020019092919080359060200190929190505050612afd565b60405180848152602001838152602001828152602001935050505060405180910390f35b34801561082457600080fd5b506108516004803603602081101561083b57600080fd5b8101908080359060200190929190505050612c61565b6040518082815260200191505060405180910390f35b34801561087357600080fd5b5061087c612c82565b6040518082815260200191505060405180910390f35b34801561089e57600080fd5b506108e1600480360360208110156108b557600080fd5b81019080803573ffffffffffffffffffffffffffffffffffffffff169060200190929190505050612d4d565b6040518082815260200191505060405180910390f35b34801561090357600080fd5b5061090c612e1a565b6040518082815260200191505060405180910390f35b34801561092e57600080fd5b506109716004803603602081101561094557600080fd5b81019080803573ffffffffffffffffffffffffffffffffffffffff169060200190929190505050612e20565b6040518082815260200191505060405180910390f35b34801561099357600080fd5b5061099c612ec0565b6040518082815260200191505060405180910390f35b3480156109be57600080fd5b506109c7612ec8565b6040518082815260200191505060405180910390f35b3480156109e957600080fd5b50610a2c60048036036020811015610a0057600080fd5b81019080803573ffffffffffffffffffffffffffffffffffffffff169060200190929190505050612ece565b6040518082815260200191505060405180910390f35b348015610a4e57600080fd5b50610a57612fa9565b005b348015610a6557600080fd5b50610a6e613143565b6040518082815260200191505060405180910390f35b348015610a9057600080fd5b50610a99613149565b6040518082815260200191505060405180910390f35b348015610abb57600080fd5b50610ac461314f565b6040518082815260200191505060405180910390f35b348015610ae657600080fd5b50610b2960048036036020811015610afd57600080fd5b81019080803573ffffffffffffffffffffffffffffffffffffffff169060200190929190505050613155565b005b610b33610fe3565b005b348015610b4157600080fd5b50610b4a61325c565b604051808273ffffffffffffffffffffffffffffffffffffffff16815260200191505060405180910390f35b348015610b8257600080fd5b50610b8b613282565b6040518082815260200191505060405180910390f35b348015610bad57600080fd5b50610bb6613288565b005b348015610bc457600080fd5b50610bf460048036036020811015610bdb57600080fd5b81019080803560ff16906020019092919050505061340b565b6040518082815260200191505060405180910390f35b348015610c1657600080fd5b50610c1f6134b8565b6040518082815260200191505060405180910390f35b348015610c4157600080fd5b50610c8460048036036020811015610c5857600080fd5b81019080803573ffffffffffffffffffffffffffffffffffffffff1690602001909291905050506134be565b6040518082815260200191505060405180910390f35b348015610ca657600080fd5b50610caf61350d565b604051808273ffffffffffffffffffffffffffffffffffffffff16815260200191505060405180910390f35b348015610ce757600080fd5b50610d1760048036036020811015610cfe57600080fd5b81019080803560ff169060200190929190505050613533565b604051808381526020018281526020019250505060405180910390f35b348015610d4057600080fd5b50610d49613583565b60405180826003811115610d5957fe5b815260200191505060405180910390f35b348015610d7657600080fd5b50610dc360048036036040811015610d8d57600080fd5b81019080803573ffffffffffffffffffffffffffffffffffffffff16906020019092919080359060200190929190505050613596565b604051808760ff168152602001868152602001858152602001848152602001838152602001828152602001965050505050505060405180910390f35b348015610e0b57600080fd5b50610e146136cc565b6040518082815260200191505060405180910390f35b348015610e3657600080fd5b50610e3f6136d2565b6040518082815260200191505060405180910390f35b348015610e6157600080fd5b50610ea460048036036020811015610e7857600080fd5b81019080803573ffffffffffffffffffffffffffffffffffffffff1690602001909291905050506136d8565b6040518082815260200191505060405180910390f35b348015610ec657600080fd5b50610ecf613724565b005b348015610edd57600080fd5b50610f2060048036036020811015610ef457600080fd5b81019080803573ffffffffffffffffffffffffffffffffffffffff16906020019092919050505061384e565b6040518082815260200191505060405180910390f35b348015610f4257600080fd5b50610f4b61389a565b604051808273ffffffffffffffffffffffffffffffffffffffff16815260200191505060405180910390f35b348015610f8357600080fd5b50610f8c6138c0565b6040518082815260200191505060405180910390f35b348015610fae57600080fd5b50610fb76138c6565b604051808273ffffffffffffffffffffffffffffffffffffffff16815260200191505060405180910390f35b565b600a5481565b600360009054906101000a900473ffffffffffffffffffffffffffffffffffffffff1673ffffffffffffffffffffffffffffffffffffffff163373ffffffffffffffffffffffffffffffffffffffff16146110ae576040517f08c379a00000000000000000000000000000000000000000000000000000000081526004018080602001828103825260138152602001807f41646d696e204f6e6c792066756e6374696f6e0000000000000000000000000081525060200191505060405180910390fd5b80600460006101000a81548173ffffffffffffffffffffffffffffffffffffffff021916908373ffffffffffffffffffffffffffffffffffffffff16021790555050565b6103e881565b6000806000601060008573ffffffffffffffffffffffffffffffffffffffff1673ffffffffffffffffffffffffffffffffffffffff16815260200190815260200160002060030160006003811061114b57fe5b0154601060008673ffffffffffffffffffffffffffffffffffffffff1673ffffffffffffffffffffffffffffffffffffffff16815260200190815260200160002060030160016003811061119b57fe5b0154601060008773ffffffffffffffffffffffffffffffffffffffff1673ffffffffffffffffffffffffffffffffffffffff1681526020019081526020016000206003016002600381106111eb57fe5b01549250925092509193909250565b600080601060008473ffffffffffffffffffffffffffffffffffffffff1673ffffffffffffffffffffffffffffffffffffffff1681526020019081526020016000209050600080600090505b826000018054905081101561149f5782600001818154811061126457fe5b9060005260206000209060060201600501548360010154101561149257600383600001828154811061129257fe5b906000526020600020906006020160000160009054906101000a900460ff1660ff1610156114325760006113236103e86113158660000185815481106112d457fe5b9060005260206000209060060201600101548760000186815481106112f557fe5b9060005260206000209060060201600201546138ec90919063ffffffff16565b61397290919063ffffffff16565b90506000846001015485600001848154811061133b57fe5b9060005260206000209060060201600401541161135c57846001015461137e565b84600001838154811061136b57fe5b9060005260206000209060060201600401545b905060004286600001858154811061139257fe5b906000526020600020906006020160050154106113af57426113d1565b8560000184815481106113be57fe5b9060005260206000209060060201600501545b90508082101561142a576114276114186201518061140a6113fb86866139bc90919063ffffffff16565b876138ec90919063ffffffff16565b61397290919063ffffffff16565b86613a0690919063ffffffff16565b94505b505050611491565b82600001818154811061144157fe5b9060005260206000209060060201600501544211156114905761148d83600001828154811061146c57fe5b90600052602060002090600602016003015483613a0690919063ffffffff16565b91505b5b5b8080600101915050611246565b508092505050919050565b600360009054906101000a900473ffffffffffffffffffffffffffffffffffffffff1673ffffffffffffffffffffffffffffffffffffffff163373ffffffffffffffffffffffffffffffffffffffff161461156d576040517f08c379a00000000000000000000000000000000000000000000000000000000081526004018080602001828103825260138152602001807f41646d696e204f6e6c792066756e6374696f6e0000000000000000000000000081525060200191505060405180910390fd5b6001600381111561157a57fe5b600e60009054906101000a900460ff16600381111561159557fe5b14611608576040517f08c379a00000000000000000000000000000000000000000000000000000000081526004018080602001828103825260158152602001807f49434f2069736e27742072756e6e696e6720796574000000000000000000000081525060200191505060405180910390fd5b6003600e60006101000a81548160ff0219169083600381111561162757fe5b0217905550565b600061165361163c836111fa565b6116458461384e565b613a0690919063ffffffff16565b9050919050565b600d6020528060005260406000206000915090505481565b60606000600381111561168157fe5b600e60009054906101000a900460ff16600381111561169c57fe5b14156116df576040518060400160405280600b81526020017f4e6f74205374617274656400000000000000000000000000000000000000000081525090506117ee565b600160038111156116ec57fe5b600e60009054906101000a900460ff16600381111561170757fe5b141561174a576040518060400160405280600781526020017f52756e6e696e670000000000000000000000000000000000000000000000000081525090506117ee565b6002600381111561175757fe5b600e60009054906101000a900460ff16600381111561177257fe5b14156117b5576040518060400160405280600381526020017f456e64000000000000000000000000000000000000000000000000000000000081525090506117ee565b6040518060400160405280600681526020017f48616c746564000000000000000000000000000000000000000000000000000081525090505b90565b6201518081565b6000601060008373ffffffffffffffffffffffffffffffffffffffff1673ffffffffffffffffffffffffffffffffffffffff16815260200190815260200160002060020160009054906101000a900473ffffffffffffffffffffffffffffffffffffffff169050919050565b60006002600381111561187357fe5b600e60009054906101000a900460ff16600381111561188e57fe5b14611901576040517f08c379a00000000000000000000000000000000000000000000000000000000081526004018080602001828103825260128152602001807f49434f2069736e2774206f76657220796574000000000000000000000000000081525060200191505060405180910390fd5b6000600560009054906101000a900473ffffffffffffffffffffffffffffffffffffffff1673ffffffffffffffffffffffffffffffffffffffff166370a08231306040518263ffffffff1660e01b8152600401808273ffffffffffffffffffffffffffffffffffffffff16815260200191505060206040518083038186803b15801561198c57600080fd5b505afa1580156119a0573d6000803e3d6000fd5b505050506040513d60208110156119b657600080fd5b810190808051906020019092919050505090506000600560009054906101000a900473ffffffffffffffffffffffffffffffffffffffff1673ffffffffffffffffffffffffffffffffffffffff1663a9059cbb6000846040518363ffffffff1660e01b8152600401808373ffffffffffffffffffffffffffffffffffffffff16815260200182815260200192505050602060405180830381600087803b158015611a5f57600080fd5b505af1158015611a73573d6000803e3d6000fd5b505050506040513d6020811015611a8957600080fd5b8101908080519060200190929190505050905080611b0f576040517f08c379a000000000000000000000000000000000000000000000000000000000815260040180806020018281038252601f8152602001807f4661696c656420746f206275726e2072656d61696e696e6720746f6b656e730081525060200191505060405180910390fd5b7ffe9e0b0c1e3e9216717d5f66d10bc310b12c366417e150b4b1af9fb9620bca9160008342604051808473ffffffffffffffffffffffffffffffffffffffff168152602001838152602001828152602001935050505060405180910390a160019250505090565b6000601060008373ffffffffffffffffffffffffffffffffffffffff1673ffffffffffffffffffffffffffffffffffffffff168152602001908152602001600020600701549050919050565b606481565b600581565b6000600954341015611bdd57600080fd5b60068260ff1610611c56576040517f08c379a000000000000000000000000000000000000000000000000000000000815260040180806020018281038252600c8152602001807f496e76616c696420706c616e000000000000000000000000000000000000000081525060200191505060405180910390fd5b60003490506000601060003373ffffffffffffffffffffffffffffffffffffffff1673ffffffffffffffffffffffffffffffffffffffff1681526020019081526020016000209050600073ffffffffffffffffffffffffffffffffffffffff168160020160009054906101000a900473ffffffffffffffffffffffffffffffffffffffff1673ffffffffffffffffffffffffffffffffffffffff161415611f5d576000601060008773ffffffffffffffffffffffffffffffffffffffff1673ffffffffffffffffffffffffffffffffffffffff16815260200190815260200160002060000180549050118015611d7857503373ffffffffffffffffffffffffffffffffffffffff168573ffffffffffffffffffffffffffffffffffffffff1614155b15611dc157848160020160006101000a81548173ffffffffffffffffffffffffffffffffffffffff021916908373ffffffffffffffffffffffffffffffffffffffff1602179055505b60008160020160009054906101000a900473ffffffffffffffffffffffffffffffffffffffff16905060005b6003811015611f5a57600073ffffffffffffffffffffffffffffffffffffffff168273ffffffffffffffffffffffffffffffffffffffff1614611f4857611e8c6001601060008573ffffffffffffffffffffffffffffffffffffffff1673ffffffffffffffffffffffffffffffffffffffff1681526020019081526020016000206003018360038110611e7c57fe5b0154613a0690919063ffffffff16565b601060008473ffffffffffffffffffffffffffffffffffffffff1673ffffffffffffffffffffffffffffffffffffffff1681526020019081526020016000206003018260038110611ed957fe5b0181905550601060008373ffffffffffffffffffffffffffffffffffffffff1673ffffffffffffffffffffffffffffffffffffffff16815260200190815260200160002060020160009054906101000a900473ffffffffffffffffffffffffffffffffffffffff169150611f4d565b611f5a565b8080600101915050611ded565b50505b600073ffffffffffffffffffffffffffffffffffffffff168160020160009054906101000a900473ffffffffffffffffffffffffffffffffffffffff1673ffffffffffffffffffffffffffffffffffffffff161461236e5760008160020160009054906101000a900473ffffffffffffffffffffffffffffffffffffffff16905060005b600381101561236b57600073ffffffffffffffffffffffffffffffffffffffff168273ffffffffffffffffffffffffffffffffffffffff161461235957600061205e6103e86120506000858154811061203657fe5b9060005260206000200154346138ec90919063ffffffff16565b61397290919063ffffffff16565b905061207381866139bc90919063ffffffff16565b94506120ca81601060008673ffffffffffffffffffffffffffffffffffffffff1673ffffffffffffffffffffffffffffffffffffffff16815260200190815260200160002060060154613a0690919063ffffffff16565b601060008573ffffffffffffffffffffffffffffffffffffffff1673ffffffffffffffffffffffffffffffffffffffff1681526020019081526020016000206006018190555061216581601060008673ffffffffffffffffffffffffffffffffffffffff1673ffffffffffffffffffffffffffffffffffffffff16815260200190815260200160002060070154613a0690919063ffffffff16565b601060008573ffffffffffffffffffffffffffffffffffffffff1673ffffffffffffffffffffffffffffffffffffffff1681526020019081526020016000206007018190555060008373ffffffffffffffffffffffffffffffffffffffff168260405180600001905060006040518083038185875af1925050503d806000811461220b576040519150601f19603f3d011682016040523d82523d6000602084013e612210565b606091505b5050905080612287576040517f08c379a00000000000000000000000000000000000000000000000000000000081526004018080602001828103825260108152602001807f4661696c656420746f20496e766573740000000000000000000000000000000081525060200191505060405180910390fd5b823373ffffffffffffffffffffffffffffffffffffffff168573ffffffffffffffffffffffffffffffffffffffff167fd41f7e766eebcc7ff42b11ac8691bdf864db4afc0c55e71d629d54edce460d98856040518082815260200191505060405180910390a4601060008573ffffffffffffffffffffffffffffffffffffffff1673ffffffffffffffffffffffffffffffffffffffff16815260200190815260200160002060020160009054906101000a900473ffffffffffffffffffffffffffffffffffffffff169350505061235e565b61236b565b8080600101915050611fe1565b50505b6000816000018054905014156123d5574281600101819055507f9fd565cd14c3c391679eb0cad12a14dcf7534e9d3462bcb9b67a098a9bbbc24a33604051808273ffffffffffffffffffffffffffffffffffffffff16815260200191505060405180910390a15b60008060006123e48734612afd565b925092509250836000016040518060c001604052808960ff16815260200185815260200134815260200184815260200142815260200183815250908060018154018082558091505060019003906000526020600020906006020160009091909190915060008201518160000160006101000a81548160ff021916908360ff1602179055506020820151816001015560408201518160020155606082015181600301556080820151816004015560a0820151816005015550506124b134600154613a0690919063ffffffff16565b6001819055503373ffffffffffffffffffffffffffffffffffffffff167f84e02daa69bdb087c9fe8d3041abca495512cb14e723070f6d1d4efface82e5d888534864287604051808760ff168152602001868152602001858152602001848152602001838152602001828152602001965050505050505060405180910390a26001600381111561253d57fe5b600e60009054906101000a900460ff16600381111561255857fe5b146125cb576040517f08c379a00000000000000000000000000000000000000000000000000000000081526004018080602001828103825260118152602001807f49434f2069736e27742072756e6e696e6700000000000000000000000000000081525060200191505060405180910390fd5b60095434101580156125df5750600a543411155b612651576040517f08c379a000000000000000000000000000000000000000000000000000000000815260040180806020018281038252601c8152602001807f436865636b204d696e20616e64204d617820496e766573746d656e740000000081525060200191505060405180910390fd5b600a5434600d60003373ffffffffffffffffffffffffffffffffffffffff1673ffffffffffffffffffffffffffffffffffffffff168152602001908152602001600020540111156126ed576040517f08c379a000000000000000000000000000000000000000000000000000000000815260040180806020018281038252602a815260200180613c36602a913960400191505060405180910390fd5b60075434600854011115612769576040517f08c379a00000000000000000000000000000000000000000000000000000000081526004018080602001828103825260198152602001807f53656e642077697468696e20686172646361702072616e67650000000000000081525060200191505060405180910390fd5b600c544211156127c4576040517f08c379a0000000000000000000000000000000000000000000000000000000008152600401808060200182810382526026815260200180613c846026913960400191505060405180910390fd5b3460086000828254019250508190555034600d60003373ffffffffffffffffffffffffffffffffffffffff1673ffffffffffffffffffffffffffffffffffffffff168152602001908152602001600020600082825401925050819055506000600460009054906101000a900473ffffffffffffffffffffffffffffffffffffffff1673ffffffffffffffffffffffffffffffffffffffff168660405180600001905060006040518083038185875af1925050503d80600081146128a3576040519150601f19603f3d011682016040523d82523d6000602084013e6128a8565b606091505b505090508061291f576040517f08c379a00000000000000000000000000000000000000000000000000000000081526004018080602001828103825260108152602001807f4661696c656420746f20496e766573740000000000000000000000000000000081525060200191505060405180910390fd5b6000670de0b6b3a7640000600654348161293557fe5b040290506000600560009054906101000a900473ffffffffffffffffffffffffffffffffffffffff1673ffffffffffffffffffffffffffffffffffffffff1663a9059cbb33846040518363ffffffff1660e01b8152600401808373ffffffffffffffffffffffffffffffffffffffff16815260200182815260200192505050602060405180830381600087803b1580156129ce57600080fd5b505af11580156129e2573d6000803e3d6000fd5b505050506040513d60208110156129f857600080fd5b8101908080519060200190929190505050905080612a7e576040517f08c379a00000000000000000000000000000000000000000000000000000000081526004018080602001828103825260108152602001807f4661696c656420746f20496e766573740000000000000000000000000000000081525060200191505060405180910390fd5b3373ffffffffffffffffffffffffffffffffffffffff163073ffffffffffffffffffffffffffffffffffffffff167f2e206bbdd5787cd6d3e97144dec044f9f15dd77a257afd27fa70cad6f03feae33485604051808381526020018281526020019250505060405180910390a360019850505050505050505092915050565b6000806000612b0b8561340b565b925060038560ff161015612b7a57612b73600f8660ff1681548110612b2c57fe5b906000526020600020906002020160000154612b656103e8612b5787896138ec90919063ffffffff16565b61397290919063ffffffff16565b6138ec90919063ffffffff16565b9150612c0f565b60068560ff161015612c0e5760005b600f8660ff1681548110612b9957fe5b906000526020600020906002020160000154811015612c0c57612bfd612bee6103e8612be087612bd2888b613a0690919063ffffffff16565b6138ec90919063ffffffff16565b61397290919063ffffffff16565b84613a0690919063ffffffff16565b92508080600101915050612b89565b505b5b612c58612c4962015180600f8860ff1681548110612c2957fe5b9060005260206000209060020201600001546138ec90919063ffffffff16565b42613a0690919063ffffffff16565b90509250925092565b60008181548110612c6e57fe5b906000526020600020016000915090505481565b6000600560009054906101000a900473ffffffffffffffffffffffffffffffffffffffff1673ffffffffffffffffffffffffffffffffffffffff166370a08231306040518263ffffffff1660e01b8152600401808273ffffffffffffffffffffffffffffffffffffffff16815260200191505060206040518083038186803b158015612d0d57600080fd5b505afa158015612d21573d6000803e3d6000fd5b505050506040513d6020811015612d3757600080fd5b8101908080519060200190929190505050905090565b6000600560009054906101000a900473ffffffffffffffffffffffffffffffffffffffff1673ffffffffffffffffffffffffffffffffffffffff166370a08231836040518263ffffffff1660e01b8152600401808273ffffffffffffffffffffffffffffffffffffffff16815260200191505060206040518083038186803b158015612dd857600080fd5b505afa158015612dec573d6000803e3d6000fd5b505050506040513d6020811015612e0257600080fd5b81019080805190602001909291905050509050919050565b60025481565b6000612eb9601060008473ffffffffffffffffffffffffffffffffffffffff1673ffffffffffffffffffffffffffffffffffffffff16815260200190815260200160002060060154601060008573ffffffffffffffffffffffffffffffffffffffff1673ffffffffffffffffffffffffffffffffffffffff168152602001908152602001600020600701546139bc90919063ffffffff16565b9050919050565b600047905090565b600c5481565b600080600090505b601060008473ffffffffffffffffffffffffffffffffffffffff1673ffffffffffffffffffffffffffffffffffffffff16815260200190815260200160002060000180549050811015612fa357612f94601060008573ffffffffffffffffffffffffffffffffffffffff1673ffffffffffffffffffffffffffffffffffffffff1681526020019081526020016000206000018281548110612f7357fe5b90600052602060002090600602016002015483613a0690919063ffffffff16565b91508080600101915050612ed6565b50919050565b600360009054906101000a900473ffffffffffffffffffffffffffffffffffffffff1673ffffffffffffffffffffffffffffffffffffffff163373ffffffffffffffffffffffffffffffffffffffff161461306c576040517f08c379a00000000000000000000000000000000000000000000000000000000081526004018080602001828103825260138152602001807f41646d696e204f6e6c792066756e6374696f6e0000000000000000000000000081525060200191505060405180910390fd5b6000600381111561307957fe5b600e60009054906101000a900460ff16600381111561309457fe5b14613107576040517f08c379a00000000000000000000000000000000000000000000000000000000081526004018080602001828103825260198152602001807f49434f2069736e277420696e206265666f72652073746174650000000000000081525060200191505060405180910390fd5b42600b819055506301e13380600b5401600c819055506001600e60006101000a81548160ff0219169083600381111561313c57fe5b0217905550565b60065481565b60015481565b60095481565b600360009054906101000a900473ffffffffffffffffffffffffffffffffffffffff1673ffffffffffffffffffffffffffffffffffffffff163373ffffffffffffffffffffffffffffffffffffffff1614613218576040517f08c379a00000000000000000000000000000000000000000000000000000000081526004018080602001828103825260138152602001807f41646d696e204f6e6c792066756e6374696f6e0000000000000000000000000081525060200191505060405180910390fd5b80600360006101000a81548173ffffffffffffffffffffffffffffffffffffffff021916908373ffffffffffffffffffffffffffffffffffffffff16021790555050565b601260009054906101000a900473ffffffffffffffffffffffffffffffffffffffff1681565b6103e881565b600360009054906101000a900473ffffffffffffffffffffffffffffffffffffffff1673ffffffffffffffffffffffffffffffffffffffff163373ffffffffffffffffffffffffffffffffffffffff161461334b576040517f08c379a00000000000000000000000000000000000000000000000000000000081526004018080602001828103825260138152602001807f41646d696e204f6e6c792066756e6374696f6e0000000000000000000000000081525060200191505060405180910390fd5b60038081111561335757fe5b600e60009054906101000a900460ff16600381111561337257fe5b146133e5576040517f08c379a000000000000000000000000000000000000000000000000000000000815260040180806020018281038252601a8152602001807f49434f2053746174652069736e27742068616c7465642079657400000000000081525060200191505060405180910390fd5b6001600e60006101000a81548160ff0219169083600381111561340457fe5b0217905550565b600060115442111561348e5761348761345762015180613449613439601154426139bc90919063ffffffff16565b60056138ec90919063ffffffff16565b61397290919063ffffffff16565b600f8460ff168154811061346757fe5b906000526020600020906002020160010154613a0690919063ffffffff16565b90506134b3565b600f8260ff168154811061349e57fe5b90600052602060002090600202016001015490505b919050565b600b5481565b6000601060008373ffffffffffffffffffffffffffffffffffffffff1673ffffffffffffffffffffffffffffffffffffffff168152602001908152602001600020600001805490509050919050565b600460009054906101000a900473ffffffffffffffffffffffffffffffffffffffff1681565b600080600f8360ff168154811061354657fe5b9060005260206000209060020201600001549150600f8360ff168154811061356a57fe5b9060005260206000209060020201600101549050915091565b600e60009054906101000a900460ff1681565b6000806000806000806000601060008a73ffffffffffffffffffffffffffffffffffffffff1673ffffffffffffffffffffffffffffffffffffffff16815260200190815260200160002090508060000188815481106135f157fe5b906000526020600020906006020160000160009054906101000a900460ff16965080600001888154811061362157fe5b906000526020600020906006020160010154955080600001888154811061364457fe5b906000526020600020906006020160020154945080600001888154811061366757fe5b906000526020600020906006020160030154935080600001888154811061368a57fe5b90600052602060002090600602016004015492508060000188815481106136ad57fe5b9060005260206000209060060201600501549150509295509295509295565b60115481565b60085481565b6000601060008373ffffffffffffffffffffffffffffffffffffffff1673ffffffffffffffffffffffffffffffffffffffff168152602001908152602001600020600101549050919050565b6001600381111561373157fe5b600e60009054906101000a900460ff16600381111561374c57fe5b146137bf576040517f08c379a000000000000000000000000000000000000000000000000000000000815260040180806020018281038252601e8152602001807f49434f2053686f756c6420626520696e2052756e6e696e67205374617465000081525060200191505060405180910390fd5b600c544211806137d3575060075460085410155b613828576040517f08c379a0000000000000000000000000000000000000000000000000000000008152600401808060200182810382526024815260200180613c606024913960400191505060405180910390fd5b6002600e60006101000a81548160ff0219169083600381111561384757fe5b0217905550565b6000601060008373ffffffffffffffffffffffffffffffffffffffff1673ffffffffffffffffffffffffffffffffffffffff168152602001908152602001600020600601549050919050565b600360009054906101000a900473ffffffffffffffffffffffffffffffffffffffff1681565b60075481565b600560009054906101000a900473ffffffffffffffffffffffffffffffffffffffff1681565b6000808314156138ff576000905061396c565b600082840290508284828161391057fe5b0414613967576040517f08c379a0000000000000000000000000000000000000000000000000000000008152600401808060200182810382526021815260200180613c156021913960400191505060405180910390fd5b809150505b92915050565b60006139b483836040518060400160405280601a81526020017f536166654d6174683a206469766973696f6e206279207a65726f000000000000815250613a8e565b905092915050565b60006139fe83836040518060400160405280601e81526020017f536166654d6174683a207375627472616374696f6e206f766572666c6f770000815250613b54565b905092915050565b600080828401905083811015613a84576040517f08c379a000000000000000000000000000000000000000000000000000000000815260040180806020018281038252601b8152602001807f536166654d6174683a206164646974696f6e206f766572666c6f77000000000081525060200191505060405180910390fd5b8091505092915050565b60008083118290613b3a576040517f08c379a00000000000000000000000000000000000000000000000000000000081526004018080602001828103825283818151815260200191508051906020019080838360005b83811015613aff578082015181840152602081019050613ae4565b50505050905090810190601f168015613b2c5780820380516001836020036101000a031916815260200191505b509250505060405180910390fd5b506000838581613b4657fe5b049050809150509392505050565b6000838311158290613c01576040517f08c379a00000000000000000000000000000000000000000000000000000000081526004018080602001828103825283818151815260200191508051906020019080838360005b83811015613bc6578082015181840152602081019050613bab565b50505050905090810190601f168015613bf35780820380516001836020036101000a031916815260200191505b509250505060405180910390fd5b506000838503905080915050939250505056fe536166654d6174683a206d756c7469706c69636174696f6e206f766572666c6f77496e766573746f722072656163686564206d6178696d756d20496e766573746d656e7420416d6f756e7449434f2048617264636170206f722074696d656c696d6974206e6f74207265616368656449434f20616c72656164792052656163686564204d6178696d756d2074696d65206c696d6974a2646970667358221220a64ea84bb6f0055c8e2f1bccbdf0452d4fed97e2641aca1d0528d4b6250ddfd364736f6c634300060c0033",
					"opcodes": "PUSH1 0x80 PUSH1 0x40 MSTORE PUSH1 0x40 MLOAD DUP1 PUSH1 0x60 ADD PUSH1 0x40 MSTORE DUP1 PUSH1 0x32 PUSH1 0xFF AND DUP2 MSTORE PUSH1 0x20 ADD PUSH1 0x19 PUSH1 0xFF AND DUP2 MSTORE PUSH1 0x20 ADD PUSH1 0x5 PUSH1 0xFF AND DUP2 MSTORE POP PUSH1 0x0 SWAP1 PUSH1 0x3 PUSH3 0x3D SWAP3 SWAP2 SWAP1 PUSH3 0x430 JUMP JUMPDEST POP PUSH6 0x5AF3107A4000 PUSH1 0x6 SSTORE PUSH9 0x1B1AE4D6E2EF500000 PUSH1 0x7 SSTORE PUSH7 0x38D7EA4C68000 PUSH1 0x9 SSTORE PUSH8 0x29A2241AF62C0000 PUSH1 0xA SSTORE CALLVALUE DUP1 ISZERO PUSH3 0x79 JUMPI PUSH1 0x0 DUP1 REVERT JUMPDEST POP PUSH1 0x40 MLOAD PUSH3 0x4195 CODESIZE SUB DUP1 PUSH3 0x4195 DUP4 CODECOPY DUP2 DUP2 ADD PUSH1 0x40 MSTORE PUSH1 0x80 DUP2 LT ISZERO PUSH3 0x9F JUMPI PUSH1 0x0 DUP1 REVERT JUMPDEST DUP2 ADD SWAP1 DUP1 DUP1 MLOAD SWAP1 PUSH1 0x20 ADD SWAP1 SWAP3 SWAP2 SWAP1 DUP1 MLOAD SWAP1 PUSH1 0x20 ADD SWAP1 SWAP3 SWAP2 SWAP1 DUP1 MLOAD SWAP1 PUSH1 0x20 ADD SWAP1 SWAP3 SWAP2 SWAP1 DUP1 MLOAD SWAP1 PUSH1 0x20 ADD SWAP1 SWAP3 SWAP2 SWAP1 POP POP POP PUSH3 0xDF DUP5 PUSH3 0x41D PUSH1 0x20 SHL PUSH1 0x20 SHR JUMP JUMPDEST ISZERO PUSH3 0xEA JUMPI PUSH1 0x0 DUP1 REVERT JUMPDEST PUSH1 0x0 DUP4 GT PUSH3 0xF8 JUMPI PUSH1 0x0 DUP1 REVERT JUMPDEST CALLER PUSH1 0x3 PUSH1 0x0 PUSH2 0x100 EXP DUP2 SLOAD DUP2 PUSH20 0xFFFFFFFFFFFFFFFFFFFFFFFFFFFFFFFFFFFFFFFF MUL NOT AND SWAP1 DUP4 PUSH20 0xFFFFFFFFFFFFFFFFFFFFFFFFFFFFFFFFFFFFFFFF AND MUL OR SWAP1 SSTORE POP DUP2 PUSH1 0x4 PUSH1 0x0 PUSH2 0x100 EXP DUP2 SLOAD DUP2 PUSH20 0xFFFFFFFFFFFFFFFFFFFFFFFFFFFFFFFFFFFFFFFF MUL NOT AND SWAP1 DUP4 PUSH20 0xFFFFFFFFFFFFFFFFFFFFFFFFFFFFFFFFFFFFFFFF AND MUL OR SWAP1 SSTORE POP DUP1 PUSH1 0x5 PUSH1 0x0 PUSH2 0x100 EXP DUP2 SLOAD DUP2 PUSH20 0xFFFFFFFFFFFFFFFFFFFFFFFFFFFFFFFFFFFFFFFF MUL NOT AND SWAP1 DUP4 PUSH20 0xFFFFFFFFFFFFFFFFFFFFFFFFFFFFFFFFFFFFFFFF AND MUL OR SWAP1 SSTORE POP DUP4 PUSH1 0x12 PUSH1 0x0 PUSH2 0x100 EXP DUP2 SLOAD DUP2 PUSH20 0xFFFFFFFFFFFFFFFFFFFFFFFFFFFFFFFFFFFFFFFF MUL NOT AND SWAP1 DUP4 PUSH20 0xFFFFFFFFFFFFFFFFFFFFFFFFFFFFFFFFFFFFFFFF AND MUL OR SWAP1 SSTORE POP DUP3 PUSH1 0x11 DUP2 SWAP1 SSTORE POP PUSH1 0xF PUSH1 0x40 MLOAD DUP1 PUSH1 0x40 ADD PUSH1 0x40 MSTORE DUP1 PUSH1 0xE DUP2 MSTORE PUSH1 0x20 ADD PUSH1 0x50 DUP2 MSTORE POP SWAP1 DUP1 PUSH1 0x1 DUP2 SLOAD ADD DUP1 DUP3 SSTORE DUP1 SWAP2 POP POP PUSH1 0x1 SWAP1 SUB SWAP1 PUSH1 0x0 MSTORE PUSH1 0x20 PUSH1 0x0 KECCAK256 SWAP1 PUSH1 0x2 MUL ADD PUSH1 0x0 SWAP1 SWAP2 SWAP1 SWAP2 SWAP1 SWAP2 POP PUSH1 0x0 DUP3 ADD MLOAD DUP2 PUSH1 0x0 ADD SSTORE PUSH1 0x20 DUP3 ADD MLOAD DUP2 PUSH1 0x1 ADD SSTORE POP POP PUSH1 0xF PUSH1 0x40 MLOAD DUP1 PUSH1 0x40 ADD PUSH1 0x40 MSTORE DUP1 PUSH1 0x15 DUP2 MSTORE PUSH1 0x20 ADD PUSH1 0x41 DUP2 MSTORE POP SWAP1 DUP1 PUSH1 0x1 DUP2 SLOAD ADD DUP1 DUP3 SSTORE DUP1 SWAP2 POP POP PUSH1 0x1 SWAP1 SUB SWAP1 PUSH1 0x0 MSTORE PUSH1 0x20 PUSH1 0x0 KECCAK256 SWAP1 PUSH1 0x2 MUL ADD PUSH1 0x0 SWAP1 SWAP2 SWAP1 SWAP2 SWAP1 SWAP2 POP PUSH1 0x0 DUP3 ADD MLOAD DUP2 PUSH1 0x0 ADD SSTORE PUSH1 0x20 DUP3 ADD MLOAD DUP2 PUSH1 0x1 ADD SSTORE POP POP PUSH1 0xF PUSH1 0x40 MLOAD DUP1 PUSH1 0x40 ADD PUSH1 0x40 MSTORE DUP1 PUSH1 0x1C DUP2 MSTORE PUSH1 0x20 ADD PUSH1 0x32 DUP2 MSTORE POP SWAP1 DUP1 PUSH1 0x1 DUP2 SLOAD ADD DUP1 DUP3 SSTORE DUP1 SWAP2 POP POP PUSH1 0x1 SWAP1 SUB SWAP1 PUSH1 0x0 MSTORE PUSH1 0x20 PUSH1 0x0 KECCAK256 SWAP1 PUSH1 0x2 MUL ADD PUSH1 0x0 SWAP1 SWAP2 SWAP1 SWAP2 SWAP1 SWAP2 POP PUSH1 0x0 DUP3 ADD MLOAD DUP2 PUSH1 0x0 ADD SSTORE PUSH1 0x20 DUP3 ADD MLOAD DUP2 PUSH1 0x1 ADD SSTORE POP POP PUSH1 0xF PUSH1 0x40 MLOAD DUP1 PUSH1 0x40 ADD PUSH1 0x40 MSTORE DUP1 PUSH1 0xE DUP2 MSTORE PUSH1 0x20 ADD PUSH1 0x50 DUP2 MSTORE POP SWAP1 DUP1 PUSH1 0x1 DUP2 SLOAD ADD DUP1 DUP3 SSTORE DUP1 SWAP2 POP POP PUSH1 0x1 SWAP1 SUB SWAP1 PUSH1 0x0 MSTORE PUSH1 0x20 PUSH1 0x0 KECCAK256 SWAP1 PUSH1 0x2 MUL ADD PUSH1 0x0 SWAP1 SWAP2 SWAP1 SWAP2 SWAP1 SWAP2 POP PUSH1 0x0 DUP3 ADD MLOAD DUP2 PUSH1 0x0 ADD SSTORE PUSH1 0x20 DUP3 ADD MLOAD DUP2 PUSH1 0x1 ADD SSTORE POP POP PUSH1 0xF PUSH1 0x40 MLOAD DUP1 PUSH1 0x40 ADD PUSH1 0x40 MSTORE DUP1 PUSH1 0x15 DUP2 MSTORE PUSH1 0x20 ADD PUSH1 0x41 DUP2 MSTORE POP SWAP1 DUP1 PUSH1 0x1 DUP2 SLOAD ADD DUP1 DUP3 SSTORE DUP1 SWAP2 POP POP PUSH1 0x1 SWAP1 SUB SWAP1 PUSH1 0x0 MSTORE PUSH1 0x20 PUSH1 0x0 KECCAK256 SWAP1 PUSH1 0x2 MUL ADD PUSH1 0x0 SWAP1 SWAP2 SWAP1 SWAP2 SWAP1 SWAP2 POP PUSH1 0x0 DUP3 ADD MLOAD DUP2 PUSH1 0x0 ADD SSTORE PUSH1 0x20 DUP3 ADD MLOAD DUP2 PUSH1 0x1 ADD SSTORE POP POP PUSH1 0xF PUSH1 0x40 MLOAD DUP1 PUSH1 0x40 ADD PUSH1 0x40 MSTORE DUP1 PUSH1 0x1C DUP2 MSTORE PUSH1 0x20 ADD PUSH1 0x32 DUP2 MSTORE POP SWAP1 DUP1 PUSH1 0x1 DUP2 SLOAD ADD DUP1 DUP3 SSTORE DUP1 SWAP2 POP POP PUSH1 0x1 SWAP1 SUB SWAP1 PUSH1 0x0 MSTORE PUSH1 0x20 PUSH1 0x0 KECCAK256 SWAP1 PUSH1 0x2 MUL ADD PUSH1 0x0 SWAP1 SWAP2 SWAP1 SWAP2 SWAP1 SWAP2 POP PUSH1 0x0 DUP3 ADD MLOAD DUP2 PUSH1 0x0 ADD SSTORE PUSH1 0x20 DUP3 ADD MLOAD DUP2 PUSH1 0x1 ADD SSTORE POP POP POP POP POP POP PUSH3 0x4A6 JUMP JUMPDEST PUSH1 0x0 DUP1 DUP3 EXTCODESIZE SWAP1 POP PUSH1 0x0 DUP2 GT SWAP2 POP POP SWAP2 SWAP1 POP JUMP JUMPDEST DUP3 DUP1 SLOAD DUP3 DUP3 SSTORE SWAP1 PUSH1 0x0 MSTORE PUSH1 0x20 PUSH1 0x0 KECCAK256 SWAP1 DUP2 ADD SWAP3 DUP3 ISZERO PUSH3 0x474 JUMPI SWAP2 PUSH1 0x20 MUL DUP3 ADD JUMPDEST DUP3 DUP2 GT ISZERO PUSH3 0x473 JUMPI DUP3 MLOAD DUP3 SWAP1 PUSH1 0xFF AND SWAP1 SSTORE SWAP2 PUSH1 0x20 ADD SWAP2 SWAP1 PUSH1 0x1 ADD SWAP1 PUSH3 0x451 JUMP JUMPDEST JUMPDEST POP SWAP1 POP PUSH3 0x483 SWAP2 SWAP1 PUSH3 0x487 JUMP JUMPDEST POP SWAP1 JUMP JUMPDEST JUMPDEST DUP1 DUP3 GT ISZERO PUSH3 0x4A2 JUMPI PUSH1 0x0 DUP2 PUSH1 0x0 SWAP1 SSTORE POP PUSH1 0x1 ADD PUSH3 0x488 JUMP JUMPDEST POP SWAP1 JUMP JUMPDEST PUSH2 0x3CDF DUP1 PUSH3 0x4B6 PUSH1 0x0 CODECOPY PUSH1 0x0 RETURN INVALID PUSH1 0x80 PUSH1 0x40 MSTORE PUSH1 0x4 CALLDATASIZE LT PUSH2 0x2B0 JUMPI PUSH1 0x0 CALLDATALOAD PUSH1 0xE0 SHR DUP1 PUSH4 0x7E3ABEEA GT PUSH2 0x175 JUMPI DUP1 PUSH4 0xA8AEB6C2 GT PUSH2 0xDC JUMPI DUP1 PUSH4 0xC59EE1DC GT PUSH2 0x95 JUMPI DUP1 PUSH4 0xE85ABE09 GT PUSH2 0x6F JUMPI DUP1 PUSH4 0xE85ABE09 EQ PUSH2 0xED1 JUMPI DUP1 PUSH4 0xF851A440 EQ PUSH2 0xF36 JUMPI DUP1 PUSH4 0xFB86A404 EQ PUSH2 0xF77 JUMPI DUP1 PUSH4 0xFC0C546A EQ PUSH2 0xFA2 JUMPI PUSH2 0x2BF JUMP JUMPDEST DUP1 PUSH4 0xC59EE1DC EQ PUSH2 0xE2A JUMPI DUP1 PUSH4 0xD7FFCA91 EQ PUSH2 0xE55 JUMPI DUP1 PUSH4 0xE657807B EQ PUSH2 0xEBA JUMPI PUSH2 0x2BF JUMP JUMPDEST DUP1 PUSH4 0xA8AEB6C2 EQ PUSH2 0xC35 JUMPI DUP1 PUSH4 0xAE764DF3 EQ PUSH2 0xC9A JUMPI DUP1 PUSH4 0xAECAA634 EQ PUSH2 0xCDB JUMPI DUP1 PUSH4 0xAEECDC2C EQ PUSH2 0xD34 JUMPI DUP1 PUSH4 0xC0806B03 EQ PUSH2 0xD6A JUMPI DUP1 PUSH4 0xC2341238 EQ PUSH2 0xDFF JUMPI PUSH2 0x2BF JUMP JUMPDEST DUP1 PUSH4 0x9641119E GT PUSH2 0x12E JUMPI DUP1 PUSH4 0x9641119E EQ PUSH2 0xB2B JUMPI DUP1 PUSH4 0x97C0262A EQ PUSH2 0xB35 JUMPI DUP1 PUSH4 0x9BFF5DDB EQ PUSH2 0xB76 JUMPI DUP1 PUSH4 0x9CBD7DA5 EQ PUSH2 0xBA1 JUMPI DUP1 PUSH4 0xA51B9533 EQ PUSH2 0xBB8 JUMPI DUP1 PUSH4 0xA7C3D71B EQ PUSH2 0xC0A JUMPI PUSH2 0x2BF JUMP JUMPDEST DUP1 PUSH4 0x7E3ABEEA EQ PUSH2 0x9DD JUMPI DUP1 PUSH4 0x7FA8C158 EQ PUSH2 0xA42 JUMPI DUP1 PUSH4 0x7FF9B596 EQ PUSH2 0xA59 JUMPI DUP1 PUSH4 0x817B1CD2 EQ PUSH2 0xA84 JUMPI DUP1 PUSH4 0x8AC2C680 EQ PUSH2 0xAAF JUMPI DUP1 PUSH4 0x8F283970 EQ PUSH2 0xADA JUMPI PUSH2 0x2BF JUMP JUMPDEST DUP1 PUSH4 0x48C37203 GT PUSH2 0x219 JUMPI DUP1 PUSH4 0x6127B2CA GT PUSH2 0x1D2 JUMPI DUP1 PUSH4 0x6127B2CA EQ PUSH2 0x867 JUMPI DUP1 PUSH4 0x61FBA37D EQ PUSH2 0x892 JUMPI DUP1 PUSH4 0x69B11DD5 EQ PUSH2 0x8F7 JUMPI DUP1 PUSH4 0x6BB18556 EQ PUSH2 0x922 JUMPI DUP1 PUSH4 0x6F9FB98A EQ PUSH2 0x987 JUMPI DUP1 PUSH4 0x7E1055B6 EQ PUSH2 0x9B2 JUMPI PUSH2 0x2BF JUMP JUMPDEST DUP1 PUSH4 0x48C37203 EQ PUSH2 0x68C JUMPI DUP1 PUSH4 0x48D44BD1 EQ PUSH2 0x6F1 JUMPI DUP1 PUSH4 0x57FC86B4 EQ PUSH2 0x71C JUMPI DUP1 PUSH4 0x581C5AE6 EQ PUSH2 0x747 JUMPI DUP1 PUSH4 0x5936CF61 EQ PUSH2 0x7AE JUMPI DUP1 PUSH4 0x600D20CE EQ PUSH2 0x818 JUMPI PUSH2 0x2BF JUMP JUMPDEST DUP1 PUSH4 0x153AB9DF GT PUSH2 0x26B JUMPI DUP1 PUSH4 0x153AB9DF EQ PUSH2 0x45F JUMPI DUP1 PUSH4 0x1AAE3460 EQ PUSH2 0x4C4 JUMPI DUP1 PUSH4 0x2E659D93 EQ PUSH2 0x529 JUMPI DUP1 PUSH4 0x32BC298C EQ PUSH2 0x5B9 JUMPI DUP1 PUSH4 0x36144C9A EQ PUSH2 0x5E4 JUMPI DUP1 PUSH4 0x44DF8E70 EQ PUSH2 0x65F JUMPI PUSH2 0x2BF JUMP JUMPDEST DUP1 PUSH3 0x2E1316 EQ PUSH2 0x2C9 JUMPI DUP1 PUSH3 0xF53E69 EQ PUSH2 0x2F4 JUMPI DUP1 PUSH4 0x1C234A8 EQ PUSH2 0x345 JUMPI DUP1 PUSH4 0x3A93C0C EQ PUSH2 0x370 JUMPI DUP1 PUSH4 0x40A772E EQ PUSH2 0x3E3 JUMPI DUP1 PUSH4 0x129CAA18 EQ PUSH2 0x448 JUMPI PUSH2 0x2BF JUMP JUMPDEST CALLDATASIZE PUSH2 0x2BF JUMPI PUSH2 0x2BD PUSH2 0xFE3 JUMP JUMPDEST STOP JUMPDEST PUSH2 0x2C7 PUSH2 0xFE3 JUMP JUMPDEST STOP JUMPDEST CALLVALUE DUP1 ISZERO PUSH2 0x2D5 JUMPI PUSH1 0x0 DUP1 REVERT JUMPDEST POP PUSH2 0x2DE PUSH2 0xFE5 JUMP JUMPDEST PUSH1 0x40 MLOAD DUP1 DUP3 DUP2 MSTORE PUSH1 0x20 ADD SWAP2 POP POP PUSH1 0x40 MLOAD DUP1 SWAP2 SUB SWAP1 RETURN JUMPDEST CALLVALUE DUP1 ISZERO PUSH2 0x300 JUMPI PUSH1 0x0 DUP1 REVERT JUMPDEST POP PUSH2 0x343 PUSH1 0x4 DUP1 CALLDATASIZE SUB PUSH1 0x20 DUP2 LT ISZERO PUSH2 0x317 JUMPI PUSH1 0x0 DUP1 REVERT JUMPDEST DUP2 ADD SWAP1 DUP1 DUP1 CALLDATALOAD PUSH20 0xFFFFFFFFFFFFFFFFFFFFFFFFFFFFFFFFFFFFFFFF AND SWAP1 PUSH1 0x20 ADD SWAP1 SWAP3 SWAP2 SWAP1 POP POP POP PUSH2 0xFEB JUMP JUMPDEST STOP JUMPDEST CALLVALUE DUP1 ISZERO PUSH2 0x351 JUMPI PUSH1 0x0 DUP1 REVERT JUMPDEST POP PUSH2 0x35A PUSH2 0x10F2 JUMP JUMPDEST PUSH1 0x40 MLOAD DUP1 DUP3 DUP2 MSTORE PUSH1 0x20 ADD SWAP2 POP POP PUSH1 0x40 MLOAD DUP1 SWAP2 SUB SWAP1 RETURN JUMPDEST CALLVALUE DUP1 ISZERO PUSH2 0x37C JUMPI PUSH1 0x0 DUP1 REVERT JUMPDEST POP PUSH2 0x3BF PUSH1 0x4 DUP1 CALLDATASIZE SUB PUSH1 0x20 DUP2 LT ISZERO PUSH2 0x393 JUMPI PUSH1 0x0 DUP1 REVERT JUMPDEST DUP2 ADD SWAP1 DUP1 DUP1 CALLDATALOAD PUSH20 0xFFFFFFFFFFFFFFFFFFFFFFFFFFFFFFFFFFFFFFFF AND SWAP1 PUSH1 0x20 ADD SWAP1 SWAP3 SWAP2 SWAP1 POP POP POP PUSH2 0x10F8 JUMP JUMPDEST PUSH1 0x40 MLOAD DUP1 DUP5 DUP2 MSTORE PUSH1 0x20 ADD DUP4 DUP2 MSTORE PUSH1 0x20 ADD DUP3 DUP2 MSTORE PUSH1 0x20 ADD SWAP4 POP POP POP POP PUSH1 0x40 MLOAD DUP1 SWAP2 SUB SWAP1 RETURN JUMPDEST CALLVALUE DUP1 ISZERO PUSH2 0x3EF JUMPI PUSH1 0x0 DUP1 REVERT JUMPDEST POP PUSH2 0x432 PUSH1 0x4 DUP1 CALLDATASIZE SUB PUSH1 0x20 DUP2 LT ISZERO PUSH2 0x406 JUMPI PUSH1 0x0 DUP1 REVERT JUMPDEST DUP2 ADD SWAP1 DUP1 DUP1 CALLDATALOAD PUSH20 0xFFFFFFFFFFFFFFFFFFFFFFFFFFFFFFFFFFFFFFFF AND SWAP1 PUSH1 0x20 ADD SWAP1 SWAP3 SWAP2 SWAP1 POP POP POP PUSH2 0x11FA JUMP JUMPDEST PUSH1 0x40 MLOAD DUP1 DUP3 DUP2 MSTORE PUSH1 0x20 ADD SWAP2 POP POP PUSH1 0x40 MLOAD DUP1 SWAP2 SUB SWAP1 RETURN JUMPDEST CALLVALUE DUP1 ISZERO PUSH2 0x454 JUMPI PUSH1 0x0 DUP1 REVERT JUMPDEST POP PUSH2 0x45D PUSH2 0x14AA JUMP JUMPDEST STOP JUMPDEST CALLVALUE DUP1 ISZERO PUSH2 0x46B JUMPI PUSH1 0x0 DUP1 REVERT JUMPDEST POP PUSH2 0x4AE PUSH1 0x4 DUP1 CALLDATASIZE SUB PUSH1 0x20 DUP2 LT ISZERO PUSH2 0x482 JUMPI PUSH1 0x0 DUP1 REVERT JUMPDEST DUP2 ADD SWAP1 DUP1 DUP1 CALLDATALOAD PUSH20 0xFFFFFFFFFFFFFFFFFFFFFFFFFFFFFFFFFFFFFFFF AND SWAP1 PUSH1 0x20 ADD SWAP1 SWAP3 SWAP2 SWAP1 POP POP POP PUSH2 0x162E JUMP JUMPDEST PUSH1 0x40 MLOAD DUP1 DUP3 DUP2 MSTORE PUSH1 0x20 ADD SWAP2 POP POP PUSH1 0x40 MLOAD DUP1 SWAP2 SUB SWAP1 RETURN JUMPDEST CALLVALUE DUP1 ISZERO PUSH2 0x4D0 JUMPI PUSH1 0x0 DUP1 REVERT JUMPDEST POP PUSH2 0x513 PUSH1 0x4 DUP1 CALLDATASIZE SUB PUSH1 0x20 DUP2 LT ISZERO PUSH2 0x4E7 JUMPI PUSH1 0x0 DUP1 REVERT JUMPDEST DUP2 ADD SWAP1 DUP1 DUP1 CALLDATALOAD PUSH20 0xFFFFFFFFFFFFFFFFFFFFFFFFFFFFFFFFFFFFFFFF AND SWAP1 PUSH1 0x20 ADD SWAP1 SWAP3 SWAP2 SWAP1 POP POP POP PUSH2 0x165A JUMP JUMPDEST PUSH1 0x40 MLOAD DUP1 DUP3 DUP2 MSTORE PUSH1 0x20 ADD SWAP2 POP POP PUSH1 0x40 MLOAD DUP1 SWAP2 SUB SWAP1 RETURN JUMPDEST CALLVALUE DUP1 ISZERO PUSH2 0x535 JUMPI PUSH1 0x0 DUP1 REVERT JUMPDEST POP PUSH2 0x53E PUSH2 0x1672 JUMP JUMPDEST PUSH1 0x40 MLOAD DUP1 DUP1 PUSH1 0x20 ADD DUP3 DUP2 SUB DUP3 MSTORE DUP4 DUP2 DUP2 MLOAD DUP2 MSTORE PUSH1 0x20 ADD SWAP2 POP DUP1 MLOAD SWAP1 PUSH1 0x20 ADD SWAP1 DUP1 DUP4 DUP4 PUSH1 0x0 JUMPDEST DUP4 DUP2 LT ISZERO PUSH2 0x57E JUMPI DUP1 DUP3 ADD MLOAD DUP2 DUP5 ADD MSTORE PUSH1 0x20 DUP2 ADD SWAP1 POP PUSH2 0x563 JUMP JUMPDEST POP POP POP POP SWAP1 POP SWAP1 DUP2 ADD SWAP1 PUSH1 0x1F AND DUP1 ISZERO PUSH2 0x5AB JUMPI DUP1 DUP3 SUB DUP1 MLOAD PUSH1 0x1 DUP4 PUSH1 0x20 SUB PUSH2 0x100 EXP SUB NOT AND DUP2 MSTORE PUSH1 0x20 ADD SWAP2 POP JUMPDEST POP SWAP3 POP POP POP PUSH1 0x40 MLOAD DUP1 SWAP2 SUB SWAP1 RETURN JUMPDEST CALLVALUE DUP1 ISZERO PUSH2 0x5C5 JUMPI PUSH1 0x0 DUP1 REVERT JUMPDEST POP PUSH2 0x5CE PUSH2 0x17F1 JUMP JUMPDEST PUSH1 0x40 MLOAD DUP1 DUP3 DUP2 MSTORE PUSH1 0x20 ADD SWAP2 POP POP PUSH1 0x40 MLOAD DUP1 SWAP2 SUB SWAP1 RETURN JUMPDEST CALLVALUE DUP1 ISZERO PUSH2 0x5F0 JUMPI PUSH1 0x0 DUP1 REVERT JUMPDEST POP PUSH2 0x633 PUSH1 0x4 DUP1 CALLDATASIZE SUB PUSH1 0x20 DUP2 LT ISZERO PUSH2 0x607 JUMPI PUSH1 0x0 DUP1 REVERT JUMPDEST DUP2 ADD SWAP1 DUP1 DUP1 CALLDATALOAD PUSH20 0xFFFFFFFFFFFFFFFFFFFFFFFFFFFFFFFFFFFFFFFF AND SWAP1 PUSH1 0x20 ADD SWAP1 SWAP3 SWAP2 SWAP1 POP POP POP PUSH2 0x17F8 JUMP JUMPDEST PUSH1 0x40 MLOAD DUP1 DUP3 PUSH20 0xFFFFFFFFFFFFFFFFFFFFFFFFFFFFFFFFFFFFFFFF AND DUP2 MSTORE PUSH1 0x20 ADD SWAP2 POP POP PUSH1 0x40 MLOAD DUP1 SWAP2 SUB SWAP1 RETURN JUMPDEST CALLVALUE DUP1 ISZERO PUSH2 0x66B JUMPI PUSH1 0x0 DUP1 REVERT JUMPDEST POP PUSH2 0x674 PUSH2 0x1864 JUMP JUMPDEST PUSH1 0x40 MLOAD DUP1 DUP3 ISZERO ISZERO DUP2 MSTORE PUSH1 0x20 ADD SWAP2 POP POP PUSH1 0x40 MLOAD DUP1 SWAP2 SUB SWAP1 RETURN JUMPDEST CALLVALUE DUP1 ISZERO PUSH2 0x698 JUMPI PUSH1 0x0 DUP1 REVERT JUMPDEST POP PUSH2 0x6DB PUSH1 0x4 DUP1 CALLDATASIZE SUB PUSH1 0x20 DUP2 LT ISZERO PUSH2 0x6AF JUMPI PUSH1 0x0 DUP1 REVERT JUMPDEST DUP2 ADD SWAP1 DUP1 DUP1 CALLDATALOAD PUSH20 0xFFFFFFFFFFFFFFFFFFFFFFFFFFFFFFFFFFFFFFFF AND SWAP1 PUSH1 0x20 ADD SWAP1 SWAP3 SWAP2 SWAP1 POP POP POP PUSH2 0x1B76 JUMP JUMPDEST PUSH1 0x40 MLOAD DUP1 DUP3 DUP2 MSTORE PUSH1 0x20 ADD SWAP2 POP POP PUSH1 0x40 MLOAD DUP1 SWAP2 SUB SWAP1 RETURN JUMPDEST CALLVALUE DUP1 ISZERO PUSH2 0x6FD JUMPI PUSH1 0x0 DUP1 REVERT JUMPDEST POP PUSH2 0x706 PUSH2 0x1BC2 JUMP JUMPDEST PUSH1 0x40 MLOAD DUP1 DUP3 DUP2 MSTORE PUSH1 0x20 ADD SWAP2 POP POP PUSH1 0x40 MLOAD DUP1 SWAP2 SUB SWAP1 RETURN JUMPDEST CALLVALUE DUP1 ISZERO PUSH2 0x728 JUMPI PUSH1 0x0 DUP1 REVERT JUMPDEST POP PUSH2 0x731 PUSH2 0x1BC7 JUMP JUMPDEST PUSH1 0x40 MLOAD DUP1 DUP3 DUP2 MSTORE PUSH1 0x20 ADD SWAP2 POP POP PUSH1 0x40 MLOAD DUP1 SWAP2 SUB SWAP1 RETURN JUMPDEST PUSH2 0x796 PUSH1 0x4 DUP1 CALLDATASIZE SUB PUSH1 0x40 DUP2 LT ISZERO PUSH2 0x75D JUMPI PUSH1 0x0 DUP1 REVERT JUMPDEST DUP2 ADD SWAP1 DUP1 DUP1 CALLDATALOAD PUSH20 0xFFFFFFFFFFFFFFFFFFFFFFFFFFFFFFFFFFFFFFFF AND SWAP1 PUSH1 0x20 ADD SWAP1 SWAP3 SWAP2 SWAP1 DUP1 CALLDATALOAD PUSH1 0xFF AND SWAP1 PUSH1 0x20 ADD SWAP1 SWAP3 SWAP2 SWAP1 POP POP POP PUSH2 0x1BCC JUMP JUMPDEST PUSH1 0x40 MLOAD DUP1 DUP3 ISZERO ISZERO DUP2 MSTORE PUSH1 0x20 ADD SWAP2 POP POP PUSH1 0x40 MLOAD DUP1 SWAP2 SUB SWAP1 RETURN JUMPDEST CALLVALUE DUP1 ISZERO PUSH2 0x7BA JUMPI PUSH1 0x0 DUP1 REVERT JUMPDEST POP PUSH2 0x7F4 PUSH1 0x4 DUP1 CALLDATASIZE SUB PUSH1 0x40 DUP2 LT ISZERO PUSH2 0x7D1 JUMPI PUSH1 0x0 DUP1 REVERT JUMPDEST DUP2 ADD SWAP1 DUP1 DUP1 CALLDATALOAD PUSH1 0xFF AND SWAP1 PUSH1 0x20 ADD SWAP1 SWAP3 SWAP2 SWAP1 DUP1 CALLDATALOAD SWAP1 PUSH1 0x20 ADD SWAP1 SWAP3 SWAP2 SWAP1 POP POP POP PUSH2 0x2AFD JUMP JUMPDEST PUSH1 0x40 MLOAD DUP1 DUP5 DUP2 MSTORE PUSH1 0x20 ADD DUP4 DUP2 MSTORE PUSH1 0x20 ADD DUP3 DUP2 MSTORE PUSH1 0x20 ADD SWAP4 POP POP POP POP PUSH1 0x40 MLOAD DUP1 SWAP2 SUB SWAP1 RETURN JUMPDEST CALLVALUE DUP1 ISZERO PUSH2 0x824 JUMPI PUSH1 0x0 DUP1 REVERT JUMPDEST POP PUSH2 0x851 PUSH1 0x4 DUP1 CALLDATASIZE SUB PUSH1 0x20 DUP2 LT ISZERO PUSH2 0x83B JUMPI PUSH1 0x0 DUP1 REVERT JUMPDEST DUP2 ADD SWAP1 DUP1 DUP1 CALLDATALOAD SWAP1 PUSH1 0x20 ADD SWAP1 SWAP3 SWAP2 SWAP1 POP POP POP PUSH2 0x2C61 JUMP JUMPDEST PUSH1 0x40 MLOAD DUP1 DUP3 DUP2 MSTORE PUSH1 0x20 ADD SWAP2 POP POP PUSH1 0x40 MLOAD DUP1 SWAP2 SUB SWAP1 RETURN JUMPDEST CALLVALUE DUP1 ISZERO PUSH2 0x873 JUMPI PUSH1 0x0 DUP1 REVERT JUMPDEST POP PUSH2 0x87C PUSH2 0x2C82 JUMP JUMPDEST PUSH1 0x40 MLOAD DUP1 DUP3 DUP2 MSTORE PUSH1 0x20 ADD SWAP2 POP POP PUSH1 0x40 MLOAD DUP1 SWAP2 SUB SWAP1 RETURN JUMPDEST CALLVALUE DUP1 ISZERO PUSH2 0x89E JUMPI PUSH1 0x0 DUP1 REVERT JUMPDEST POP PUSH2 0x8E1 PUSH1 0x4 DUP1 CALLDATASIZE SUB PUSH1 0x20 DUP2 LT ISZERO PUSH2 0x8B5 JUMPI PUSH1 0x0 DUP1 REVERT JUMPDEST DUP2 ADD SWAP1 DUP1 DUP1 CALLDATALOAD PUSH20 0xFFFFFFFFFFFFFFFFFFFFFFFFFFFFFFFFFFFFFFFF AND SWAP1 PUSH1 0x20 ADD SWAP1 SWAP3 SWAP2 SWAP1 POP POP POP PUSH2 0x2D4D JUMP JUMPDEST PUSH1 0x40 MLOAD DUP1 DUP3 DUP2 MSTORE PUSH1 0x20 ADD SWAP2 POP POP PUSH1 0x40 MLOAD DUP1 SWAP2 SUB SWAP1 RETURN JUMPDEST CALLVALUE DUP1 ISZERO PUSH2 0x903 JUMPI PUSH1 0x0 DUP1 REVERT JUMPDEST POP PUSH2 0x90C PUSH2 0x2E1A JUMP JUMPDEST PUSH1 0x40 MLOAD DUP1 DUP3 DUP2 MSTORE PUSH1 0x20 ADD SWAP2 POP POP PUSH1 0x40 MLOAD DUP1 SWAP2 SUB SWAP1 RETURN JUMPDEST CALLVALUE DUP1 ISZERO PUSH2 0x92E JUMPI PUSH1 0x0 DUP1 REVERT JUMPDEST POP PUSH2 0x971 PUSH1 0x4 DUP1 CALLDATASIZE SUB PUSH1 0x20 DUP2 LT ISZERO PUSH2 0x945 JUMPI PUSH1 0x0 DUP1 REVERT JUMPDEST DUP2 ADD SWAP1 DUP1 DUP1 CALLDATALOAD PUSH20 0xFFFFFFFFFFFFFFFFFFFFFFFFFFFFFFFFFFFFFFFF AND SWAP1 PUSH1 0x20 ADD SWAP1 SWAP3 SWAP2 SWAP1 POP POP POP PUSH2 0x2E20 JUMP JUMPDEST PUSH1 0x40 MLOAD DUP1 DUP3 DUP2 MSTORE PUSH1 0x20 ADD SWAP2 POP POP PUSH1 0x40 MLOAD DUP1 SWAP2 SUB SWAP1 RETURN JUMPDEST CALLVALUE DUP1 ISZERO PUSH2 0x993 JUMPI PUSH1 0x0 DUP1 REVERT JUMPDEST POP PUSH2 0x99C PUSH2 0x2EC0 JUMP JUMPDEST PUSH1 0x40 MLOAD DUP1 DUP3 DUP2 MSTORE PUSH1 0x20 ADD SWAP2 POP POP PUSH1 0x40 MLOAD DUP1 SWAP2 SUB SWAP1 RETURN JUMPDEST CALLVALUE DUP1 ISZERO PUSH2 0x9BE JUMPI PUSH1 0x0 DUP1 REVERT JUMPDEST POP PUSH2 0x9C7 PUSH2 0x2EC8 JUMP JUMPDEST PUSH1 0x40 MLOAD DUP1 DUP3 DUP2 MSTORE PUSH1 0x20 ADD SWAP2 POP POP PUSH1 0x40 MLOAD DUP1 SWAP2 SUB SWAP1 RETURN JUMPDEST CALLVALUE DUP1 ISZERO PUSH2 0x9E9 JUMPI PUSH1 0x0 DUP1 REVERT JUMPDEST POP PUSH2 0xA2C PUSH1 0x4 DUP1 CALLDATASIZE SUB PUSH1 0x20 DUP2 LT ISZERO PUSH2 0xA00 JUMPI PUSH1 0x0 DUP1 REVERT JUMPDEST DUP2 ADD SWAP1 DUP1 DUP1 CALLDATALOAD PUSH20 0xFFFFFFFFFFFFFFFFFFFFFFFFFFFFFFFFFFFFFFFF AND SWAP1 PUSH1 0x20 ADD SWAP1 SWAP3 SWAP2 SWAP1 POP POP POP PUSH2 0x2ECE JUMP JUMPDEST PUSH1 0x40 MLOAD DUP1 DUP3 DUP2 MSTORE PUSH1 0x20 ADD SWAP2 POP POP PUSH1 0x40 MLOAD DUP1 SWAP2 SUB SWAP1 RETURN JUMPDEST CALLVALUE DUP1 ISZERO PUSH2 0xA4E JUMPI PUSH1 0x0 DUP1 REVERT JUMPDEST POP PUSH2 0xA57 PUSH2 0x2FA9 JUMP JUMPDEST STOP JUMPDEST CALLVALUE DUP1 ISZERO PUSH2 0xA65 JUMPI PUSH1 0x0 DUP1 REVERT JUMPDEST POP PUSH2 0xA6E PUSH2 0x3143 JUMP JUMPDEST PUSH1 0x40 MLOAD DUP1 DUP3 DUP2 MSTORE PUSH1 0x20 ADD SWAP2 POP POP PUSH1 0x40 MLOAD DUP1 SWAP2 SUB SWAP1 RETURN JUMPDEST CALLVALUE DUP1 ISZERO PUSH2 0xA90 JUMPI PUSH1 0x0 DUP1 REVERT JUMPDEST POP PUSH2 0xA99 PUSH2 0x3149 JUMP JUMPDEST PUSH1 0x40 MLOAD DUP1 DUP3 DUP2 MSTORE PUSH1 0x20 ADD SWAP2 POP POP PUSH1 0x40 MLOAD DUP1 SWAP2 SUB SWAP1 RETURN JUMPDEST CALLVALUE DUP1 ISZERO PUSH2 0xABB JUMPI PUSH1 0x0 DUP1 REVERT JUMPDEST POP PUSH2 0xAC4 PUSH2 0x314F JUMP JUMPDEST PUSH1 0x40 MLOAD DUP1 DUP3 DUP2 MSTORE PUSH1 0x20 ADD SWAP2 POP POP PUSH1 0x40 MLOAD DUP1 SWAP2 SUB SWAP1 RETURN JUMPDEST CALLVALUE DUP1 ISZERO PUSH2 0xAE6 JUMPI PUSH1 0x0 DUP1 REVERT JUMPDEST POP PUSH2 0xB29 PUSH1 0x4 DUP1 CALLDATASIZE SUB PUSH1 0x20 DUP2 LT ISZERO PUSH2 0xAFD JUMPI PUSH1 0x0 DUP1 REVERT JUMPDEST DUP2 ADD SWAP1 DUP1 DUP1 CALLDATALOAD PUSH20 0xFFFFFFFFFFFFFFFFFFFFFFFFFFFFFFFFFFFFFFFF AND SWAP1 PUSH1 0x20 ADD SWAP1 SWAP3 SWAP2 SWAP1 POP POP POP PUSH2 0x3155 JUMP JUMPDEST STOP JUMPDEST PUSH2 0xB33 PUSH2 0xFE3 JUMP JUMPDEST STOP JUMPDEST CALLVALUE DUP1 ISZERO PUSH2 0xB41 JUMPI PUSH1 0x0 DUP1 REVERT JUMPDEST POP PUSH2 0xB4A PUSH2 0x325C JUMP JUMPDEST PUSH1 0x40 MLOAD DUP1 DUP3 PUSH20 0xFFFFFFFFFFFFFFFFFFFFFFFFFFFFFFFFFFFFFFFF AND DUP2 MSTORE PUSH1 0x20 ADD SWAP2 POP POP PUSH1 0x40 MLOAD DUP1 SWAP2 SUB SWAP1 RETURN JUMPDEST CALLVALUE DUP1 ISZERO PUSH2 0xB82 JUMPI PUSH1 0x0 DUP1 REVERT JUMPDEST POP PUSH2 0xB8B PUSH2 0x3282 JUMP JUMPDEST PUSH1 0x40 MLOAD DUP1 DUP3 DUP2 MSTORE PUSH1 0x20 ADD SWAP2 POP POP PUSH1 0x40 MLOAD DUP1 SWAP2 SUB SWAP1 RETURN JUMPDEST CALLVALUE DUP1 ISZERO PUSH2 0xBAD JUMPI PUSH1 0x0 DUP1 REVERT JUMPDEST POP PUSH2 0xBB6 PUSH2 0x3288 JUMP JUMPDEST STOP JUMPDEST CALLVALUE DUP1 ISZERO PUSH2 0xBC4 JUMPI PUSH1 0x0 DUP1 REVERT JUMPDEST POP PUSH2 0xBF4 PUSH1 0x4 DUP1 CALLDATASIZE SUB PUSH1 0x20 DUP2 LT ISZERO PUSH2 0xBDB JUMPI PUSH1 0x0 DUP1 REVERT JUMPDEST DUP2 ADD SWAP1 DUP1 DUP1 CALLDATALOAD PUSH1 0xFF AND SWAP1 PUSH1 0x20 ADD SWAP1 SWAP3 SWAP2 SWAP1 POP POP POP PUSH2 0x340B JUMP JUMPDEST PUSH1 0x40 MLOAD DUP1 DUP3 DUP2 MSTORE PUSH1 0x20 ADD SWAP2 POP POP PUSH1 0x40 MLOAD DUP1 SWAP2 SUB SWAP1 RETURN JUMPDEST CALLVALUE DUP1 ISZERO PUSH2 0xC16 JUMPI PUSH1 0x0 DUP1 REVERT JUMPDEST POP PUSH2 0xC1F PUSH2 0x34B8 JUMP JUMPDEST PUSH1 0x40 MLOAD DUP1 DUP3 DUP2 MSTORE PUSH1 0x20 ADD SWAP2 POP POP PUSH1 0x40 MLOAD DUP1 SWAP2 SUB SWAP1 RETURN JUMPDEST CALLVALUE DUP1 ISZERO PUSH2 0xC41 JUMPI PUSH1 0x0 DUP1 REVERT JUMPDEST POP PUSH2 0xC84 PUSH1 0x4 DUP1 CALLDATASIZE SUB PUSH1 0x20 DUP2 LT ISZERO PUSH2 0xC58 JUMPI PUSH1 0x0 DUP1 REVERT JUMPDEST DUP2 ADD SWAP1 DUP1 DUP1 CALLDATALOAD PUSH20 0xFFFFFFFFFFFFFFFFFFFFFFFFFFFFFFFFFFFFFFFF AND SWAP1 PUSH1 0x20 ADD SWAP1 SWAP3 SWAP2 SWAP1 POP POP POP PUSH2 0x34BE JUMP JUMPDEST PUSH1 0x40 MLOAD DUP1 DUP3 DUP2 MSTORE PUSH1 0x20 ADD SWAP2 POP POP PUSH1 0x40 MLOAD DUP1 SWAP2 SUB SWAP1 RETURN JUMPDEST CALLVALUE DUP1 ISZERO PUSH2 0xCA6 JUMPI PUSH1 0x0 DUP1 REVERT JUMPDEST POP PUSH2 0xCAF PUSH2 0x350D JUMP JUMPDEST PUSH1 0x40 MLOAD DUP1 DUP3 PUSH20 0xFFFFFFFFFFFFFFFFFFFFFFFFFFFFFFFFFFFFFFFF AND DUP2 MSTORE PUSH1 0x20 ADD SWAP2 POP POP PUSH1 0x40 MLOAD DUP1 SWAP2 SUB SWAP1 RETURN JUMPDEST CALLVALUE DUP1 ISZERO PUSH2 0xCE7 JUMPI PUSH1 0x0 DUP1 REVERT JUMPDEST POP PUSH2 0xD17 PUSH1 0x4 DUP1 CALLDATASIZE SUB PUSH1 0x20 DUP2 LT ISZERO PUSH2 0xCFE JUMPI PUSH1 0x0 DUP1 REVERT JUMPDEST DUP2 ADD SWAP1 DUP1 DUP1 CALLDATALOAD PUSH1 0xFF AND SWAP1 PUSH1 0x20 ADD SWAP1 SWAP3 SWAP2 SWAP1 POP POP POP PUSH2 0x3533 JUMP JUMPDEST PUSH1 0x40 MLOAD DUP1 DUP4 DUP2 MSTORE PUSH1 0x20 ADD DUP3 DUP2 MSTORE PUSH1 0x20 ADD SWAP3 POP POP POP PUSH1 0x40 MLOAD DUP1 SWAP2 SUB SWAP1 RETURN JUMPDEST CALLVALUE DUP1 ISZERO PUSH2 0xD40 JUMPI PUSH1 0x0 DUP1 REVERT JUMPDEST POP PUSH2 0xD49 PUSH2 0x3583 JUMP JUMPDEST PUSH1 0x40 MLOAD DUP1 DUP3 PUSH1 0x3 DUP2 GT ISZERO PUSH2 0xD59 JUMPI INVALID JUMPDEST DUP2 MSTORE PUSH1 0x20 ADD SWAP2 POP POP PUSH1 0x40 MLOAD DUP1 SWAP2 SUB SWAP1 RETURN JUMPDEST CALLVALUE DUP1 ISZERO PUSH2 0xD76 JUMPI PUSH1 0x0 DUP1 REVERT JUMPDEST POP PUSH2 0xDC3 PUSH1 0x4 DUP1 CALLDATASIZE SUB PUSH1 0x40 DUP2 LT ISZERO PUSH2 0xD8D JUMPI PUSH1 0x0 DUP1 REVERT JUMPDEST DUP2 ADD SWAP1 DUP1 DUP1 CALLDATALOAD PUSH20 0xFFFFFFFFFFFFFFFFFFFFFFFFFFFFFFFFFFFFFFFF AND SWAP1 PUSH1 0x20 ADD SWAP1 SWAP3 SWAP2 SWAP1 DUP1 CALLDATALOAD SWAP1 PUSH1 0x20 ADD SWAP1 SWAP3 SWAP2 SWAP1 POP POP POP PUSH2 0x3596 JUMP JUMPDEST PUSH1 0x40 MLOAD DUP1 DUP8 PUSH1 0xFF AND DUP2 MSTORE PUSH1 0x20 ADD DUP7 DUP2 MSTORE PUSH1 0x20 ADD DUP6 DUP2 MSTORE PUSH1 0x20 ADD DUP5 DUP2 MSTORE PUSH1 0x20 ADD DUP4 DUP2 MSTORE PUSH1 0x20 ADD DUP3 DUP2 MSTORE PUSH1 0x20 ADD SWAP7 POP POP POP POP POP POP POP PUSH1 0x40 MLOAD DUP1 SWAP2 SUB SWAP1 RETURN JUMPDEST CALLVALUE DUP1 ISZERO PUSH2 0xE0B JUMPI PUSH1 0x0 DUP1 REVERT JUMPDEST POP PUSH2 0xE14 PUSH2 0x36CC JUMP JUMPDEST PUSH1 0x40 MLOAD DUP1 DUP3 DUP2 MSTORE PUSH1 0x20 ADD SWAP2 POP POP PUSH1 0x40 MLOAD DUP1 SWAP2 SUB SWAP1 RETURN JUMPDEST CALLVALUE DUP1 ISZERO PUSH2 0xE36 JUMPI PUSH1 0x0 DUP1 REVERT JUMPDEST POP PUSH2 0xE3F PUSH2 0x36D2 JUMP JUMPDEST PUSH1 0x40 MLOAD DUP1 DUP3 DUP2 MSTORE PUSH1 0x20 ADD SWAP2 POP POP PUSH1 0x40 MLOAD DUP1 SWAP2 SUB SWAP1 RETURN JUMPDEST CALLVALUE DUP1 ISZERO PUSH2 0xE61 JUMPI PUSH1 0x0 DUP1 REVERT JUMPDEST POP PUSH2 0xEA4 PUSH1 0x4 DUP1 CALLDATASIZE SUB PUSH1 0x20 DUP2 LT ISZERO PUSH2 0xE78 JUMPI PUSH1 0x0 DUP1 REVERT JUMPDEST DUP2 ADD SWAP1 DUP1 DUP1 CALLDATALOAD PUSH20 0xFFFFFFFFFFFFFFFFFFFFFFFFFFFFFFFFFFFFFFFF AND SWAP1 PUSH1 0x20 ADD SWAP1 SWAP3 SWAP2 SWAP1 POP POP POP PUSH2 0x36D8 JUMP JUMPDEST PUSH1 0x40 MLOAD DUP1 DUP3 DUP2 MSTORE PUSH1 0x20 ADD SWAP2 POP POP PUSH1 0x40 MLOAD DUP1 SWAP2 SUB SWAP1 RETURN JUMPDEST CALLVALUE DUP1 ISZERO PUSH2 0xEC6 JUMPI PUSH1 0x0 DUP1 REVERT JUMPDEST POP PUSH2 0xECF PUSH2 0x3724 JUMP JUMPDEST STOP JUMPDEST CALLVALUE DUP1 ISZERO PUSH2 0xEDD JUMPI PUSH1 0x0 DUP1 REVERT JUMPDEST POP PUSH2 0xF20 PUSH1 0x4 DUP1 CALLDATASIZE SUB PUSH1 0x20 DUP2 LT ISZERO PUSH2 0xEF4 JUMPI PUSH1 0x0 DUP1 REVERT JUMPDEST DUP2 ADD SWAP1 DUP1 DUP1 CALLDATALOAD PUSH20 0xFFFFFFFFFFFFFFFFFFFFFFFFFFFFFFFFFFFFFFFF AND SWAP1 PUSH1 0x20 ADD SWAP1 SWAP3 SWAP2 SWAP1 POP POP POP PUSH2 0x384E JUMP JUMPDEST PUSH1 0x40 MLOAD DUP1 DUP3 DUP2 MSTORE PUSH1 0x20 ADD SWAP2 POP POP PUSH1 0x40 MLOAD DUP1 SWAP2 SUB SWAP1 RETURN JUMPDEST CALLVALUE DUP1 ISZERO PUSH2 0xF42 JUMPI PUSH1 0x0 DUP1 REVERT JUMPDEST POP PUSH2 0xF4B PUSH2 0x389A JUMP JUMPDEST PUSH1 0x40 MLOAD DUP1 DUP3 PUSH20 0xFFFFFFFFFFFFFFFFFFFFFFFFFFFFFFFFFFFFFFFF AND DUP2 MSTORE PUSH1 0x20 ADD SWAP2 POP POP PUSH1 0x40 MLOAD DUP1 SWAP2 SUB SWAP1 RETURN JUMPDEST CALLVALUE DUP1 ISZERO PUSH2 0xF83 JUMPI PUSH1 0x0 DUP1 REVERT JUMPDEST POP PUSH2 0xF8C PUSH2 0x38C0 JUMP JUMPDEST PUSH1 0x40 MLOAD DUP1 DUP3 DUP2 MSTORE PUSH1 0x20 ADD SWAP2 POP POP PUSH1 0x40 MLOAD DUP1 SWAP2 SUB SWAP1 RETURN JUMPDEST CALLVALUE DUP1 ISZERO PUSH2 0xFAE JUMPI PUSH1 0x0 DUP1 REVERT JUMPDEST POP PUSH2 0xFB7 PUSH2 0x38C6 JUMP JUMPDEST PUSH1 0x40 MLOAD DUP1 DUP3 PUSH20 0xFFFFFFFFFFFFFFFFFFFFFFFFFFFFFFFFFFFFFFFF AND DUP2 MSTORE PUSH1 0x20 ADD SWAP2 POP POP PUSH1 0x40 MLOAD DUP1 SWAP2 SUB SWAP1 RETURN JUMPDEST JUMP JUMPDEST PUSH1 0xA SLOAD DUP2 JUMP JUMPDEST PUSH1 0x3 PUSH1 0x0 SWAP1 SLOAD SWAP1 PUSH2 0x100 EXP SWAP1 DIV PUSH20 0xFFFFFFFFFFFFFFFFFFFFFFFFFFFFFFFFFFFFFFFF AND PUSH20 0xFFFFFFFFFFFFFFFFFFFFFFFFFFFFFFFFFFFFFFFF AND CALLER PUSH20 0xFFFFFFFFFFFFFFFFFFFFFFFFFFFFFFFFFFFFFFFF AND EQ PUSH2 0x10AE JUMPI PUSH1 0x40 MLOAD PUSH32 0x8C379A000000000000000000000000000000000000000000000000000000000 DUP2 MSTORE PUSH1 0x4 ADD DUP1 DUP1 PUSH1 0x20 ADD DUP3 DUP2 SUB DUP3 MSTORE PUSH1 0x13 DUP2 MSTORE PUSH1 0x20 ADD DUP1 PUSH32 0x41646D696E204F6E6C792066756E6374696F6E00000000000000000000000000 DUP2 MSTORE POP PUSH1 0x20 ADD SWAP2 POP POP PUSH1 0x40 MLOAD DUP1 SWAP2 SUB SWAP1 REVERT JUMPDEST DUP1 PUSH1 0x4 PUSH1 0x0 PUSH2 0x100 EXP DUP2 SLOAD DUP2 PUSH20 0xFFFFFFFFFFFFFFFFFFFFFFFFFFFFFFFFFFFFFFFF MUL NOT AND SWAP1 DUP4 PUSH20 0xFFFFFFFFFFFFFFFFFFFFFFFFFFFFFFFFFFFFFFFF AND MUL OR SWAP1 SSTORE POP POP JUMP JUMPDEST PUSH2 0x3E8 DUP2 JUMP JUMPDEST PUSH1 0x0 DUP1 PUSH1 0x0 PUSH1 0x10 PUSH1 0x0 DUP6 PUSH20 0xFFFFFFFFFFFFFFFFFFFFFFFFFFFFFFFFFFFFFFFF AND PUSH20 0xFFFFFFFFFFFFFFFFFFFFFFFFFFFFFFFFFFFFFFFF AND DUP2 MSTORE PUSH1 0x20 ADD SWAP1 DUP2 MSTORE PUSH1 0x20 ADD PUSH1 0x0 KECCAK256 PUSH1 0x3 ADD PUSH1 0x0 PUSH1 0x3 DUP2 LT PUSH2 0x114B JUMPI INVALID JUMPDEST ADD SLOAD PUSH1 0x10 PUSH1 0x0 DUP7 PUSH20 0xFFFFFFFFFFFFFFFFFFFFFFFFFFFFFFFFFFFFFFFF AND PUSH20 0xFFFFFFFFFFFFFFFFFFFFFFFFFFFFFFFFFFFFFFFF AND DUP2 MSTORE PUSH1 0x20 ADD SWAP1 DUP2 MSTORE PUSH1 0x20 ADD PUSH1 0x0 KECCAK256 PUSH1 0x3 ADD PUSH1 0x1 PUSH1 0x3 DUP2 LT PUSH2 0x119B JUMPI INVALID JUMPDEST ADD SLOAD PUSH1 0x10 PUSH1 0x0 DUP8 PUSH20 0xFFFFFFFFFFFFFFFFFFFFFFFFFFFFFFFFFFFFFFFF AND PUSH20 0xFFFFFFFFFFFFFFFFFFFFFFFFFFFFFFFFFFFFFFFF AND DUP2 MSTORE PUSH1 0x20 ADD SWAP1 DUP2 MSTORE PUSH1 0x20 ADD PUSH1 0x0 KECCAK256 PUSH1 0x3 ADD PUSH1 0x2 PUSH1 0x3 DUP2 LT PUSH2 0x11EB JUMPI INVALID JUMPDEST ADD SLOAD SWAP3 POP SWAP3 POP SWAP3 POP SWAP2 SWAP4 SWAP1 SWAP3 POP JUMP JUMPDEST PUSH1 0x0 DUP1 PUSH1 0x10 PUSH1 0x0 DUP5 PUSH20 0xFFFFFFFFFFFFFFFFFFFFFFFFFFFFFFFFFFFFFFFF AND PUSH20 0xFFFFFFFFFFFFFFFFFFFFFFFFFFFFFFFFFFFFFFFF AND DUP2 MSTORE PUSH1 0x20 ADD SWAP1 DUP2 MSTORE PUSH1 0x20 ADD PUSH1 0x0 KECCAK256 SWAP1 POP PUSH1 0x0 DUP1 PUSH1 0x0 SWAP1 POP JUMPDEST DUP3 PUSH1 0x0 ADD DUP1 SLOAD SWAP1 POP DUP2 LT ISZERO PUSH2 0x149F JUMPI DUP3 PUSH1 0x0 ADD DUP2 DUP2 SLOAD DUP2 LT PUSH2 0x1264 JUMPI INVALID JUMPDEST SWAP1 PUSH1 0x0 MSTORE PUSH1 0x20 PUSH1 0x0 KECCAK256 SWAP1 PUSH1 0x6 MUL ADD PUSH1 0x5 ADD SLOAD DUP4 PUSH1 0x1 ADD SLOAD LT ISZERO PUSH2 0x1492 JUMPI PUSH1 0x3 DUP4 PUSH1 0x0 ADD DUP3 DUP2 SLOAD DUP2 LT PUSH2 0x1292 JUMPI INVALID JUMPDEST SWAP1 PUSH1 0x0 MSTORE PUSH1 0x20 PUSH1 0x0 KECCAK256 SWAP1 PUSH1 0x6 MUL ADD PUSH1 0x0 ADD PUSH1 0x0 SWAP1 SLOAD SWAP1 PUSH2 0x100 EXP SWAP1 DIV PUSH1 0xFF AND PUSH1 0xFF AND LT ISZERO PUSH2 0x1432 JUMPI PUSH1 0x0 PUSH2 0x1323 PUSH2 0x3E8 PUSH2 0x1315 DUP7 PUSH1 0x0 ADD DUP6 DUP2 SLOAD DUP2 LT PUSH2 0x12D4 JUMPI INVALID JUMPDEST SWAP1 PUSH1 0x0 MSTORE PUSH1 0x20 PUSH1 0x0 KECCAK256 SWAP1 PUSH1 0x6 MUL ADD PUSH1 0x1 ADD SLOAD DUP8 PUSH1 0x0 ADD DUP7 DUP2 SLOAD DUP2 LT PUSH2 0x12F5 JUMPI INVALID JUMPDEST SWAP1 PUSH1 0x0 MSTORE PUSH1 0x20 PUSH1 0x0 KECCAK256 SWAP1 PUSH1 0x6 MUL ADD PUSH1 0x2 ADD SLOAD PUSH2 0x38EC SWAP1 SWAP2 SWAP1 PUSH4 0xFFFFFFFF AND JUMP JUMPDEST PUSH2 0x3972 SWAP1 SWAP2 SWAP1 PUSH4 0xFFFFFFFF AND JUMP JUMPDEST SWAP1 POP PUSH1 0x0 DUP5 PUSH1 0x1 ADD SLOAD DUP6 PUSH1 0x0 ADD DUP5 DUP2 SLOAD DUP2 LT PUSH2 0x133B JUMPI INVALID JUMPDEST SWAP1 PUSH1 0x0 MSTORE PUSH1 0x20 PUSH1 0x0 KECCAK256 SWAP1 PUSH1 0x6 MUL ADD PUSH1 0x4 ADD SLOAD GT PUSH2 0x135C JUMPI DUP5 PUSH1 0x1 ADD SLOAD PUSH2 0x137E JUMP JUMPDEST DUP5 PUSH1 0x0 ADD DUP4 DUP2 SLOAD DUP2 LT PUSH2 0x136B JUMPI INVALID JUMPDEST SWAP1 PUSH1 0x0 MSTORE PUSH1 0x20 PUSH1 0x0 KECCAK256 SWAP1 PUSH1 0x6 MUL ADD PUSH1 0x4 ADD SLOAD JUMPDEST SWAP1 POP PUSH1 0x0 TIMESTAMP DUP7 PUSH1 0x0 ADD DUP6 DUP2 SLOAD DUP2 LT PUSH2 0x1392 JUMPI INVALID JUMPDEST SWAP1 PUSH1 0x0 MSTORE PUSH1 0x20 PUSH1 0x0 KECCAK256 SWAP1 PUSH1 0x6 MUL ADD PUSH1 0x5 ADD SLOAD LT PUSH2 0x13AF JUMPI TIMESTAMP PUSH2 0x13D1 JUMP JUMPDEST DUP6 PUSH1 0x0 ADD DUP5 DUP2 SLOAD DUP2 LT PUSH2 0x13BE JUMPI INVALID JUMPDEST SWAP1 PUSH1 0x0 MSTORE PUSH1 0x20 PUSH1 0x0 KECCAK256 SWAP1 PUSH1 0x6 MUL ADD PUSH1 0x5 ADD SLOAD JUMPDEST SWAP1 POP DUP1 DUP3 LT ISZERO PUSH2 0x142A JUMPI PUSH2 0x1427 PUSH2 0x1418 PUSH3 0x15180 PUSH2 0x140A PUSH2 0x13FB DUP7 DUP7 PUSH2 0x39BC SWAP1 SWAP2 SWAP1 PUSH4 0xFFFFFFFF AND JUMP JUMPDEST DUP8 PUSH2 0x38EC SWAP1 SWAP2 SWAP1 PUSH4 0xFFFFFFFF AND JUMP JUMPDEST PUSH2 0x3972 SWAP1 SWAP2 SWAP1 PUSH4 0xFFFFFFFF AND JUMP JUMPDEST DUP7 PUSH2 0x3A06 SWAP1 SWAP2 SWAP1 PUSH4 0xFFFFFFFF AND JUMP JUMPDEST SWAP5 POP JUMPDEST POP POP POP PUSH2 0x1491 JUMP JUMPDEST DUP3 PUSH1 0x0 ADD DUP2 DUP2 SLOAD DUP2 LT PUSH2 0x1441 JUMPI INVALID JUMPDEST SWAP1 PUSH1 0x0 MSTORE PUSH1 0x20 PUSH1 0x0 KECCAK256 SWAP1 PUSH1 0x6 MUL ADD PUSH1 0x5 ADD SLOAD TIMESTAMP GT ISZERO PUSH2 0x1490 JUMPI PUSH2 0x148D DUP4 PUSH1 0x0 ADD DUP3 DUP2 SLOAD DUP2 LT PUSH2 0x146C JUMPI INVALID JUMPDEST SWAP1 PUSH1 0x0 MSTORE PUSH1 0x20 PUSH1 0x0 KECCAK256 SWAP1 PUSH1 0x6 MUL ADD PUSH1 0x3 ADD SLOAD DUP4 PUSH2 0x3A06 SWAP1 SWAP2 SWAP1 PUSH4 0xFFFFFFFF AND JUMP JUMPDEST SWAP2 POP JUMPDEST JUMPDEST JUMPDEST DUP1 DUP1 PUSH1 0x1 ADD SWAP2 POP POP PUSH2 0x1246 JUMP JUMPDEST POP DUP1 SWAP3 POP POP POP SWAP2 SWAP1 POP JUMP JUMPDEST PUSH1 0x3 PUSH1 0x0 SWAP1 SLOAD SWAP1 PUSH2 0x100 EXP SWAP1 DIV PUSH20 0xFFFFFFFFFFFFFFFFFFFFFFFFFFFFFFFFFFFFFFFF AND PUSH20 0xFFFFFFFFFFFFFFFFFFFFFFFFFFFFFFFFFFFFFFFF AND CALLER PUSH20 0xFFFFFFFFFFFFFFFFFFFFFFFFFFFFFFFFFFFFFFFF AND EQ PUSH2 0x156D JUMPI PUSH1 0x40 MLOAD PUSH32 0x8C379A000000000000000000000000000000000000000000000000000000000 DUP2 MSTORE PUSH1 0x4 ADD DUP1 DUP1 PUSH1 0x20 ADD DUP3 DUP2 SUB DUP3 MSTORE PUSH1 0x13 DUP2 MSTORE PUSH1 0x20 ADD DUP1 PUSH32 0x41646D696E204F6E6C792066756E6374696F6E00000000000000000000000000 DUP2 MSTORE POP PUSH1 0x20 ADD SWAP2 POP POP PUSH1 0x40 MLOAD DUP1 SWAP2 SUB SWAP1 REVERT JUMPDEST PUSH1 0x1 PUSH1 0x3 DUP2 GT ISZERO PUSH2 0x157A JUMPI INVALID JUMPDEST PUSH1 0xE PUSH1 0x0 SWAP1 SLOAD SWAP1 PUSH2 0x100 EXP SWAP1 DIV PUSH1 0xFF AND PUSH1 0x3 DUP2 GT ISZERO PUSH2 0x1595 JUMPI INVALID JUMPDEST EQ PUSH2 0x1608 JUMPI PUSH1 0x40 MLOAD PUSH32 0x8C379A000000000000000000000000000000000000000000000000000000000 DUP2 MSTORE PUSH1 0x4 ADD DUP1 DUP1 PUSH1 0x20 ADD DUP3 DUP2 SUB DUP3 MSTORE PUSH1 0x15 DUP2 MSTORE PUSH1 0x20 ADD DUP1 PUSH32 0x49434F2069736E27742072756E6E696E67207965740000000000000000000000 DUP2 MSTORE POP PUSH1 0x20 ADD SWAP2 POP POP PUSH1 0x40 MLOAD DUP1 SWAP2 SUB SWAP1 REVERT JUMPDEST PUSH1 0x3 PUSH1 0xE PUSH1 0x0 PUSH2 0x100 EXP DUP2 SLOAD DUP2 PUSH1 0xFF MUL NOT AND SWAP1 DUP4 PUSH1 0x3 DUP2 GT ISZERO PUSH2 0x1627 JUMPI INVALID JUMPDEST MUL OR SWAP1 SSTORE POP JUMP JUMPDEST PUSH1 0x0 PUSH2 0x1653 PUSH2 0x163C DUP4 PUSH2 0x11FA JUMP JUMPDEST PUSH2 0x1645 DUP5 PUSH2 0x384E JUMP JUMPDEST PUSH2 0x3A06 SWAP1 SWAP2 SWAP1 PUSH4 0xFFFFFFFF AND JUMP JUMPDEST SWAP1 POP SWAP2 SWAP1 POP JUMP JUMPDEST PUSH1 0xD PUSH1 0x20 MSTORE DUP1 PUSH1 0x0 MSTORE PUSH1 0x40 PUSH1 0x0 KECCAK256 PUSH1 0x0 SWAP2 POP SWAP1 POP SLOAD DUP2 JUMP JUMPDEST PUSH1 0x60 PUSH1 0x0 PUSH1 0x3 DUP2 GT ISZERO PUSH2 0x1681 JUMPI INVALID JUMPDEST PUSH1 0xE PUSH1 0x0 SWAP1 SLOAD SWAP1 PUSH2 0x100 EXP SWAP1 DIV PUSH1 0xFF AND PUSH1 0x3 DUP2 GT ISZERO PUSH2 0x169C JUMPI INVALID JUMPDEST EQ ISZERO PUSH2 0x16DF JUMPI PUSH1 0x40 MLOAD DUP1 PUSH1 0x40 ADD PUSH1 0x40 MSTORE DUP1 PUSH1 0xB DUP2 MSTORE PUSH1 0x20 ADD PUSH32 0x4E6F742053746172746564000000000000000000000000000000000000000000 DUP2 MSTORE POP SWAP1 POP PUSH2 0x17EE JUMP JUMPDEST PUSH1 0x1 PUSH1 0x3 DUP2 GT ISZERO PUSH2 0x16EC JUMPI INVALID JUMPDEST PUSH1 0xE PUSH1 0x0 SWAP1 SLOAD SWAP1 PUSH2 0x100 EXP SWAP1 DIV PUSH1 0xFF AND PUSH1 0x3 DUP2 GT ISZERO PUSH2 0x1707 JUMPI INVALID JUMPDEST EQ ISZERO PUSH2 0x174A JUMPI PUSH1 0x40 MLOAD DUP1 PUSH1 0x40 ADD PUSH1 0x40 MSTORE DUP1 PUSH1 0x7 DUP2 MSTORE PUSH1 0x20 ADD PUSH32 0x52756E6E696E6700000000000000000000000000000000000000000000000000 DUP2 MSTORE POP SWAP1 POP PUSH2 0x17EE JUMP JUMPDEST PUSH1 0x2 PUSH1 0x3 DUP2 GT ISZERO PUSH2 0x1757 JUMPI INVALID JUMPDEST PUSH1 0xE PUSH1 0x0 SWAP1 SLOAD SWAP1 PUSH2 0x100 EXP SWAP1 DIV PUSH1 0xFF AND PUSH1 0x3 DUP2 GT ISZERO PUSH2 0x1772 JUMPI INVALID JUMPDEST EQ ISZERO PUSH2 0x17B5 JUMPI PUSH1 0x40 MLOAD DUP1 PUSH1 0x40 ADD PUSH1 0x40 MSTORE DUP1 PUSH1 0x3 DUP2 MSTORE PUSH1 0x20 ADD PUSH32 0x456E640000000000000000000000000000000000000000000000000000000000 DUP2 MSTORE POP SWAP1 POP PUSH2 0x17EE JUMP JUMPDEST PUSH1 0x40 MLOAD DUP1 PUSH1 0x40 ADD PUSH1 0x40 MSTORE DUP1 PUSH1 0x6 DUP2 MSTORE PUSH1 0x20 ADD PUSH32 0x48616C7465640000000000000000000000000000000000000000000000000000 DUP2 MSTORE POP SWAP1 POP JUMPDEST SWAP1 JUMP JUMPDEST PUSH3 0x15180 DUP2 JUMP JUMPDEST PUSH1 0x0 PUSH1 0x10 PUSH1 0x0 DUP4 PUSH20 0xFFFFFFFFFFFFFFFFFFFFFFFFFFFFFFFFFFFFFFFF AND PUSH20 0xFFFFFFFFFFFFFFFFFFFFFFFFFFFFFFFFFFFFFFFF AND DUP2 MSTORE PUSH1 0x20 ADD SWAP1 DUP2 MSTORE PUSH1 0x20 ADD PUSH1 0x0 KECCAK256 PUSH1 0x2 ADD PUSH1 0x0 SWAP1 SLOAD SWAP1 PUSH2 0x100 EXP SWAP1 DIV PUSH20 0xFFFFFFFFFFFFFFFFFFFFFFFFFFFFFFFFFFFFFFFF AND SWAP1 POP SWAP2 SWAP1 POP JUMP JUMPDEST PUSH1 0x0 PUSH1 0x2 PUSH1 0x3 DUP2 GT ISZERO PUSH2 0x1873 JUMPI INVALID JUMPDEST PUSH1 0xE PUSH1 0x0 SWAP1 SLOAD SWAP1 PUSH2 0x100 EXP SWAP1 DIV PUSH1 0xFF AND PUSH1 0x3 DUP2 GT ISZERO PUSH2 0x188E JUMPI INVALID JUMPDEST EQ PUSH2 0x1901 JUMPI PUSH1 0x40 MLOAD PUSH32 0x8C379A000000000000000000000000000000000000000000000000000000000 DUP2 MSTORE PUSH1 0x4 ADD DUP1 DUP1 PUSH1 0x20 ADD DUP3 DUP2 SUB DUP3 MSTORE PUSH1 0x12 DUP2 MSTORE PUSH1 0x20 ADD DUP1 PUSH32 0x49434F2069736E2774206F766572207965740000000000000000000000000000 DUP2 MSTORE POP PUSH1 0x20 ADD SWAP2 POP POP PUSH1 0x40 MLOAD DUP1 SWAP2 SUB SWAP1 REVERT JUMPDEST PUSH1 0x0 PUSH1 0x5 PUSH1 0x0 SWAP1 SLOAD SWAP1 PUSH2 0x100 EXP SWAP1 DIV PUSH20 0xFFFFFFFFFFFFFFFFFFFFFFFFFFFFFFFFFFFFFFFF AND PUSH20 0xFFFFFFFFFFFFFFFFFFFFFFFFFFFFFFFFFFFFFFFF AND PUSH4 0x70A08231 ADDRESS PUSH1 0x40 MLOAD DUP3 PUSH4 0xFFFFFFFF AND PUSH1 0xE0 SHL DUP2 MSTORE PUSH1 0x4 ADD DUP1 DUP3 PUSH20 0xFFFFFFFFFFFFFFFFFFFFFFFFFFFFFFFFFFFFFFFF AND DUP2 MSTORE PUSH1 0x20 ADD SWAP2 POP POP PUSH1 0x20 PUSH1 0x40 MLOAD DUP1 DUP4 SUB DUP2 DUP7 DUP1 EXTCODESIZE ISZERO DUP1 ISZERO PUSH2 0x198C JUMPI PUSH1 0x0 DUP1 REVERT JUMPDEST POP GAS STATICCALL ISZERO DUP1 ISZERO PUSH2 0x19A0 JUMPI RETURNDATASIZE PUSH1 0x0 DUP1 RETURNDATACOPY RETURNDATASIZE PUSH1 0x0 REVERT JUMPDEST POP POP POP POP PUSH1 0x40 MLOAD RETURNDATASIZE PUSH1 0x20 DUP2 LT ISZERO PUSH2 0x19B6 JUMPI PUSH1 0x0 DUP1 REVERT JUMPDEST DUP2 ADD SWAP1 DUP1 DUP1 MLOAD SWAP1 PUSH1 0x20 ADD SWAP1 SWAP3 SWAP2 SWAP1 POP POP POP SWAP1 POP PUSH1 0x0 PUSH1 0x5 PUSH1 0x0 SWAP1 SLOAD SWAP1 PUSH2 0x100 EXP SWAP1 DIV PUSH20 0xFFFFFFFFFFFFFFFFFFFFFFFFFFFFFFFFFFFFFFFF AND PUSH20 0xFFFFFFFFFFFFFFFFFFFFFFFFFFFFFFFFFFFFFFFF AND PUSH4 0xA9059CBB PUSH1 0x0 DUP5 PUSH1 0x40 MLOAD DUP4 PUSH4 0xFFFFFFFF AND PUSH1 0xE0 SHL DUP2 MSTORE PUSH1 0x4 ADD DUP1 DUP4 PUSH20 0xFFFFFFFFFFFFFFFFFFFFFFFFFFFFFFFFFFFFFFFF AND DUP2 MSTORE PUSH1 0x20 ADD DUP3 DUP2 MSTORE PUSH1 0x20 ADD SWAP3 POP POP POP PUSH1 0x20 PUSH1 0x40 MLOAD DUP1 DUP4 SUB DUP2 PUSH1 0x0 DUP8 DUP1 EXTCODESIZE ISZERO DUP1 ISZERO PUSH2 0x1A5F JUMPI PUSH1 0x0 DUP1 REVERT JUMPDEST POP GAS CALL ISZERO DUP1 ISZERO PUSH2 0x1A73 JUMPI RETURNDATASIZE PUSH1 0x0 DUP1 RETURNDATACOPY RETURNDATASIZE PUSH1 0x0 REVERT JUMPDEST POP POP POP POP PUSH1 0x40 MLOAD RETURNDATASIZE PUSH1 0x20 DUP2 LT ISZERO PUSH2 0x1A89 JUMPI PUSH1 0x0 DUP1 REVERT JUMPDEST DUP2 ADD SWAP1 DUP1 DUP1 MLOAD SWAP1 PUSH1 0x20 ADD SWAP1 SWAP3 SWAP2 SWAP1 POP POP POP SWAP1 POP DUP1 PUSH2 0x1B0F JUMPI PUSH1 0x40 MLOAD PUSH32 0x8C379A000000000000000000000000000000000000000000000000000000000 DUP2 MSTORE PUSH1 0x4 ADD DUP1 DUP1 PUSH1 0x20 ADD DUP3 DUP2 SUB DUP3 MSTORE PUSH1 0x1F DUP2 MSTORE PUSH1 0x20 ADD DUP1 PUSH32 0x4661696C656420746F206275726E2072656D61696E696E6720746F6B656E7300 DUP2 MSTORE POP PUSH1 0x20 ADD SWAP2 POP POP PUSH1 0x40 MLOAD DUP1 SWAP2 SUB SWAP1 REVERT JUMPDEST PUSH32 0xFE9E0B0C1E3E9216717D5F66D10BC310B12C366417E150B4B1AF9FB9620BCA91 PUSH1 0x0 DUP4 TIMESTAMP PUSH1 0x40 MLOAD DUP1 DUP5 PUSH20 0xFFFFFFFFFFFFFFFFFFFFFFFFFFFFFFFFFFFFFFFF AND DUP2 MSTORE PUSH1 0x20 ADD DUP4 DUP2 MSTORE PUSH1 0x20 ADD DUP3 DUP2 MSTORE PUSH1 0x20 ADD SWAP4 POP POP POP POP PUSH1 0x40 MLOAD DUP1 SWAP2 SUB SWAP1 LOG1 PUSH1 0x1 SWAP3 POP POP POP SWAP1 JUMP JUMPDEST PUSH1 0x0 PUSH1 0x10 PUSH1 0x0 DUP4 PUSH20 0xFFFFFFFFFFFFFFFFFFFFFFFFFFFFFFFFFFFFFFFF AND PUSH20 0xFFFFFFFFFFFFFFFFFFFFFFFFFFFFFFFFFFFFFFFF AND DUP2 MSTORE PUSH1 0x20 ADD SWAP1 DUP2 MSTORE PUSH1 0x20 ADD PUSH1 0x0 KECCAK256 PUSH1 0x7 ADD SLOAD SWAP1 POP SWAP2 SWAP1 POP JUMP JUMPDEST PUSH1 0x64 DUP2 JUMP JUMPDEST PUSH1 0x5 DUP2 JUMP JUMPDEST PUSH1 0x0 PUSH1 0x9 SLOAD CALLVALUE LT ISZERO PUSH2 0x1BDD JUMPI PUSH1 0x0 DUP1 REVERT JUMPDEST PUSH1 0x6 DUP3 PUSH1 0xFF AND LT PUSH2 0x1C56 JUMPI PUSH1 0x40 MLOAD PUSH32 0x8C379A000000000000000000000000000000000000000000000000000000000 DUP2 MSTORE PUSH1 0x4 ADD DUP1 DUP1 PUSH1 0x20 ADD DUP3 DUP2 SUB DUP3 MSTORE PUSH1 0xC DUP2 MSTORE PUSH1 0x20 ADD DUP1 PUSH32 0x496E76616C696420706C616E0000000000000000000000000000000000000000 DUP2 MSTORE POP PUSH1 0x20 ADD SWAP2 POP POP PUSH1 0x40 MLOAD DUP1 SWAP2 SUB SWAP1 REVERT JUMPDEST PUSH1 0x0 CALLVALUE SWAP1 POP PUSH1 0x0 PUSH1 0x10 PUSH1 0x0 CALLER PUSH20 0xFFFFFFFFFFFFFFFFFFFFFFFFFFFFFFFFFFFFFFFF AND PUSH20 0xFFFFFFFFFFFFFFFFFFFFFFFFFFFFFFFFFFFFFFFF AND DUP2 MSTORE PUSH1 0x20 ADD SWAP1 DUP2 MSTORE PUSH1 0x20 ADD PUSH1 0x0 KECCAK256 SWAP1 POP PUSH1 0x0 PUSH20 0xFFFFFFFFFFFFFFFFFFFFFFFFFFFFFFFFFFFFFFFF AND DUP2 PUSH1 0x2 ADD PUSH1 0x0 SWAP1 SLOAD SWAP1 PUSH2 0x100 EXP SWAP1 DIV PUSH20 0xFFFFFFFFFFFFFFFFFFFFFFFFFFFFFFFFFFFFFFFF AND PUSH20 0xFFFFFFFFFFFFFFFFFFFFFFFFFFFFFFFFFFFFFFFF AND EQ ISZERO PUSH2 0x1F5D JUMPI PUSH1 0x0 PUSH1 0x10 PUSH1 0x0 DUP8 PUSH20 0xFFFFFFFFFFFFFFFFFFFFFFFFFFFFFFFFFFFFFFFF AND PUSH20 0xFFFFFFFFFFFFFFFFFFFFFFFFFFFFFFFFFFFFFFFF AND DUP2 MSTORE PUSH1 0x20 ADD SWAP1 DUP2 MSTORE PUSH1 0x20 ADD PUSH1 0x0 KECCAK256 PUSH1 0x0 ADD DUP1 SLOAD SWAP1 POP GT DUP1 ISZERO PUSH2 0x1D78 JUMPI POP CALLER PUSH20 0xFFFFFFFFFFFFFFFFFFFFFFFFFFFFFFFFFFFFFFFF AND DUP6 PUSH20 0xFFFFFFFFFFFFFFFFFFFFFFFFFFFFFFFFFFFFFFFF AND EQ ISZERO JUMPDEST ISZERO PUSH2 0x1DC1 JUMPI DUP5 DUP2 PUSH1 0x2 ADD PUSH1 0x0 PUSH2 0x100 EXP DUP2 SLOAD DUP2 PUSH20 0xFFFFFFFFFFFFFFFFFFFFFFFFFFFFFFFFFFFFFFFF MUL NOT AND SWAP1 DUP4 PUSH20 0xFFFFFFFFFFFFFFFFFFFFFFFFFFFFFFFFFFFFFFFF AND MUL OR SWAP1 SSTORE POP JUMPDEST PUSH1 0x0 DUP2 PUSH1 0x2 ADD PUSH1 0x0 SWAP1 SLOAD SWAP1 PUSH2 0x100 EXP SWAP1 DIV PUSH20 0xFFFFFFFFFFFFFFFFFFFFFFFFFFFFFFFFFFFFFFFF AND SWAP1 POP PUSH1 0x0 JUMPDEST PUSH1 0x3 DUP2 LT ISZERO PUSH2 0x1F5A JUMPI PUSH1 0x0 PUSH20 0xFFFFFFFFFFFFFFFFFFFFFFFFFFFFFFFFFFFFFFFF AND DUP3 PUSH20 0xFFFFFFFFFFFFFFFFFFFFFFFFFFFFFFFFFFFFFFFF AND EQ PUSH2 0x1F48 JUMPI PUSH2 0x1E8C PUSH1 0x1 PUSH1 0x10 PUSH1 0x0 DUP6 PUSH20 0xFFFFFFFFFFFFFFFFFFFFFFFFFFFFFFFFFFFFFFFF AND PUSH20 0xFFFFFFFFFFFFFFFFFFFFFFFFFFFFFFFFFFFFFFFF AND DUP2 MSTORE PUSH1 0x20 ADD SWAP1 DUP2 MSTORE PUSH1 0x20 ADD PUSH1 0x0 KECCAK256 PUSH1 0x3 ADD DUP4 PUSH1 0x3 DUP2 LT PUSH2 0x1E7C JUMPI INVALID JUMPDEST ADD SLOAD PUSH2 0x3A06 SWAP1 SWAP2 SWAP1 PUSH4 0xFFFFFFFF AND JUMP JUMPDEST PUSH1 0x10 PUSH1 0x0 DUP5 PUSH20 0xFFFFFFFFFFFFFFFFFFFFFFFFFFFFFFFFFFFFFFFF AND PUSH20 0xFFFFFFFFFFFFFFFFFFFFFFFFFFFFFFFFFFFFFFFF AND DUP2 MSTORE PUSH1 0x20 ADD SWAP1 DUP2 MSTORE PUSH1 0x20 ADD PUSH1 0x0 KECCAK256 PUSH1 0x3 ADD DUP3 PUSH1 0x3 DUP2 LT PUSH2 0x1ED9 JUMPI INVALID JUMPDEST ADD DUP2 SWAP1 SSTORE POP PUSH1 0x10 PUSH1 0x0 DUP4 PUSH20 0xFFFFFFFFFFFFFFFFFFFFFFFFFFFFFFFFFFFFFFFF AND PUSH20 0xFFFFFFFFFFFFFFFFFFFFFFFFFFFFFFFFFFFFFFFF AND DUP2 MSTORE PUSH1 0x20 ADD SWAP1 DUP2 MSTORE PUSH1 0x20 ADD PUSH1 0x0 KECCAK256 PUSH1 0x2 ADD PUSH1 0x0 SWAP1 SLOAD SWAP1 PUSH2 0x100 EXP SWAP1 DIV PUSH20 0xFFFFFFFFFFFFFFFFFFFFFFFFFFFFFFFFFFFFFFFF AND SWAP2 POP PUSH2 0x1F4D JUMP JUMPDEST PUSH2 0x1F5A JUMP JUMPDEST DUP1 DUP1 PUSH1 0x1 ADD SWAP2 POP POP PUSH2 0x1DED JUMP JUMPDEST POP POP JUMPDEST PUSH1 0x0 PUSH20 0xFFFFFFFFFFFFFFFFFFFFFFFFFFFFFFFFFFFFFFFF AND DUP2 PUSH1 0x2 ADD PUSH1 0x0 SWAP1 SLOAD SWAP1 PUSH2 0x100 EXP SWAP1 DIV PUSH20 0xFFFFFFFFFFFFFFFFFFFFFFFFFFFFFFFFFFFFFFFF AND PUSH20 0xFFFFFFFFFFFFFFFFFFFFFFFFFFFFFFFFFFFFFFFF AND EQ PUSH2 0x236E JUMPI PUSH1 0x0 DUP2 PUSH1 0x2 ADD PUSH1 0x0 SWAP1 SLOAD SWAP1 PUSH2 0x100 EXP SWAP1 DIV PUSH20 0xFFFFFFFFFFFFFFFFFFFFFFFFFFFFFFFFFFFFFFFF AND SWAP1 POP PUSH1 0x0 JUMPDEST PUSH1 0x3 DUP2 LT ISZERO PUSH2 0x236B JUMPI PUSH1 0x0 PUSH20 0xFFFFFFFFFFFFFFFFFFFFFFFFFFFFFFFFFFFFFFFF AND DUP3 PUSH20 0xFFFFFFFFFFFFFFFFFFFFFFFFFFFFFFFFFFFFFFFF AND EQ PUSH2 0x2359 JUMPI PUSH1 0x0 PUSH2 0x205E PUSH2 0x3E8 PUSH2 0x2050 PUSH1 0x0 DUP6 DUP2 SLOAD DUP2 LT PUSH2 0x2036 JUMPI INVALID JUMPDEST SWAP1 PUSH1 0x0 MSTORE PUSH1 0x20 PUSH1 0x0 KECCAK256 ADD SLOAD CALLVALUE PUSH2 0x38EC SWAP1 SWAP2 SWAP1 PUSH4 0xFFFFFFFF AND JUMP JUMPDEST PUSH2 0x3972 SWAP1 SWAP2 SWAP1 PUSH4 0xFFFFFFFF AND JUMP JUMPDEST SWAP1 POP PUSH2 0x2073 DUP2 DUP7 PUSH2 0x39BC SWAP1 SWAP2 SWAP1 PUSH4 0xFFFFFFFF AND JUMP JUMPDEST SWAP5 POP PUSH2 0x20CA DUP2 PUSH1 0x10 PUSH1 0x0 DUP7 PUSH20 0xFFFFFFFFFFFFFFFFFFFFFFFFFFFFFFFFFFFFFFFF AND PUSH20 0xFFFFFFFFFFFFFFFFFFFFFFFFFFFFFFFFFFFFFFFF AND DUP2 MSTORE PUSH1 0x20 ADD SWAP1 DUP2 MSTORE PUSH1 0x20 ADD PUSH1 0x0 KECCAK256 PUSH1 0x6 ADD SLOAD PUSH2 0x3A06 SWAP1 SWAP2 SWAP1 PUSH4 0xFFFFFFFF AND JUMP JUMPDEST PUSH1 0x10 PUSH1 0x0 DUP6 PUSH20 0xFFFFFFFFFFFFFFFFFFFFFFFFFFFFFFFFFFFFFFFF AND PUSH20 0xFFFFFFFFFFFFFFFFFFFFFFFFFFFFFFFFFFFFFFFF AND DUP2 MSTORE PUSH1 0x20 ADD SWAP1 DUP2 MSTORE PUSH1 0x20 ADD PUSH1 0x0 KECCAK256 PUSH1 0x6 ADD DUP2 SWAP1 SSTORE POP PUSH2 0x2165 DUP2 PUSH1 0x10 PUSH1 0x0 DUP7 PUSH20 0xFFFFFFFFFFFFFFFFFFFFFFFFFFFFFFFFFFFFFFFF AND PUSH20 0xFFFFFFFFFFFFFFFFFFFFFFFFFFFFFFFFFFFFFFFF AND DUP2 MSTORE PUSH1 0x20 ADD SWAP1 DUP2 MSTORE PUSH1 0x20 ADD PUSH1 0x0 KECCAK256 PUSH1 0x7 ADD SLOAD PUSH2 0x3A06 SWAP1 SWAP2 SWAP1 PUSH4 0xFFFFFFFF AND JUMP JUMPDEST PUSH1 0x10 PUSH1 0x0 DUP6 PUSH20 0xFFFFFFFFFFFFFFFFFFFFFFFFFFFFFFFFFFFFFFFF AND PUSH20 0xFFFFFFFFFFFFFFFFFFFFFFFFFFFFFFFFFFFFFFFF AND DUP2 MSTORE PUSH1 0x20 ADD SWAP1 DUP2 MSTORE PUSH1 0x20 ADD PUSH1 0x0 KECCAK256 PUSH1 0x7 ADD DUP2 SWAP1 SSTORE POP PUSH1 0x0 DUP4 PUSH20 0xFFFFFFFFFFFFFFFFFFFFFFFFFFFFFFFFFFFFFFFF AND DUP3 PUSH1 0x40 MLOAD DUP1 PUSH1 0x0 ADD SWAP1 POP PUSH1 0x0 PUSH1 0x40 MLOAD DUP1 DUP4 SUB DUP2 DUP6 DUP8 GAS CALL SWAP3 POP POP POP RETURNDATASIZE DUP1 PUSH1 0x0 DUP2 EQ PUSH2 0x220B JUMPI PUSH1 0x40 MLOAD SWAP2 POP PUSH1 0x1F NOT PUSH1 0x3F RETURNDATASIZE ADD AND DUP3 ADD PUSH1 0x40 MSTORE RETURNDATASIZE DUP3 MSTORE RETURNDATASIZE PUSH1 0x0 PUSH1 0x20 DUP5 ADD RETURNDATACOPY PUSH2 0x2210 JUMP JUMPDEST PUSH1 0x60 SWAP2 POP JUMPDEST POP POP SWAP1 POP DUP1 PUSH2 0x2287 JUMPI PUSH1 0x40 MLOAD PUSH32 0x8C379A000000000000000000000000000000000000000000000000000000000 DUP2 MSTORE PUSH1 0x4 ADD DUP1 DUP1 PUSH1 0x20 ADD DUP3 DUP2 SUB DUP3 MSTORE PUSH1 0x10 DUP2 MSTORE PUSH1 0x20 ADD DUP1 PUSH32 0x4661696C656420746F20496E7665737400000000000000000000000000000000 DUP2 MSTORE POP PUSH1 0x20 ADD SWAP2 POP POP PUSH1 0x40 MLOAD DUP1 SWAP2 SUB SWAP1 REVERT JUMPDEST DUP3 CALLER PUSH20 0xFFFFFFFFFFFFFFFFFFFFFFFFFFFFFFFFFFFFFFFF AND DUP6 PUSH20 0xFFFFFFFFFFFFFFFFFFFFFFFFFFFFFFFFFFFFFFFF AND PUSH32 0xD41F7E766EEBCC7FF42B11AC8691BDF864DB4AFC0C55E71D629D54EDCE460D98 DUP6 PUSH1 0x40 MLOAD DUP1 DUP3 DUP2 MSTORE PUSH1 0x20 ADD SWAP2 POP POP PUSH1 0x40 MLOAD DUP1 SWAP2 SUB SWAP1 LOG4 PUSH1 0x10 PUSH1 0x0 DUP6 PUSH20 0xFFFFFFFFFFFFFFFFFFFFFFFFFFFFFFFFFFFFFFFF AND PUSH20 0xFFFFFFFFFFFFFFFFFFFFFFFFFFFFFFFFFFFFFFFF AND DUP2 MSTORE PUSH1 0x20 ADD SWAP1 DUP2 MSTORE PUSH1 0x20 ADD PUSH1 0x0 KECCAK256 PUSH1 0x2 ADD PUSH1 0x0 SWAP1 SLOAD SWAP1 PUSH2 0x100 EXP SWAP1 DIV PUSH20 0xFFFFFFFFFFFFFFFFFFFFFFFFFFFFFFFFFFFFFFFF AND SWAP4 POP POP POP PUSH2 0x235E JUMP JUMPDEST PUSH2 0x236B JUMP JUMPDEST DUP1 DUP1 PUSH1 0x1 ADD SWAP2 POP POP PUSH2 0x1FE1 JUMP JUMPDEST POP POP JUMPDEST PUSH1 0x0 DUP2 PUSH1 0x0 ADD DUP1 SLOAD SWAP1 POP EQ ISZERO PUSH2 0x23D5 JUMPI TIMESTAMP DUP2 PUSH1 0x1 ADD DUP2 SWAP1 SSTORE POP PUSH32 0x9FD565CD14C3C391679EB0CAD12A14DCF7534E9D3462BCB9B67A098A9BBBC24A CALLER PUSH1 0x40 MLOAD DUP1 DUP3 PUSH20 0xFFFFFFFFFFFFFFFFFFFFFFFFFFFFFFFFFFFFFFFF AND DUP2 MSTORE PUSH1 0x20 ADD SWAP2 POP POP PUSH1 0x40 MLOAD DUP1 SWAP2 SUB SWAP1 LOG1 JUMPDEST PUSH1 0x0 DUP1 PUSH1 0x0 PUSH2 0x23E4 DUP8 CALLVALUE PUSH2 0x2AFD JUMP JUMPDEST SWAP3 POP SWAP3 POP SWAP3 POP DUP4 PUSH1 0x0 ADD PUSH1 0x40 MLOAD DUP1 PUSH1 0xC0 ADD PUSH1 0x40 MSTORE DUP1 DUP10 PUSH1 0xFF AND DUP2 MSTORE PUSH1 0x20 ADD DUP6 DUP2 MSTORE PUSH1 0x20 ADD CALLVALUE DUP2 MSTORE PUSH1 0x20 ADD DUP5 DUP2 MSTORE PUSH1 0x20 ADD TIMESTAMP DUP2 MSTORE PUSH1 0x20 ADD DUP4 DUP2 MSTORE POP SWAP1 DUP1 PUSH1 0x1 DUP2 SLOAD ADD DUP1 DUP3 SSTORE DUP1 SWAP2 POP POP PUSH1 0x1 SWAP1 SUB SWAP1 PUSH1 0x0 MSTORE PUSH1 0x20 PUSH1 0x0 KECCAK256 SWAP1 PUSH1 0x6 MUL ADD PUSH1 0x0 SWAP1 SWAP2 SWAP1 SWAP2 SWAP1 SWAP2 POP PUSH1 0x0 DUP3 ADD MLOAD DUP2 PUSH1 0x0 ADD PUSH1 0x0 PUSH2 0x100 EXP DUP2 SLOAD DUP2 PUSH1 0xFF MUL NOT AND SWAP1 DUP4 PUSH1 0xFF AND MUL OR SWAP1 SSTORE POP PUSH1 0x20 DUP3 ADD MLOAD DUP2 PUSH1 0x1 ADD SSTORE PUSH1 0x40 DUP3 ADD MLOAD DUP2 PUSH1 0x2 ADD SSTORE PUSH1 0x60 DUP3 ADD MLOAD DUP2 PUSH1 0x3 ADD SSTORE PUSH1 0x80 DUP3 ADD MLOAD DUP2 PUSH1 0x4 ADD SSTORE PUSH1 0xA0 DUP3 ADD MLOAD DUP2 PUSH1 0x5 ADD SSTORE POP POP PUSH2 0x24B1 CALLVALUE PUSH1 0x1 SLOAD PUSH2 0x3A06 SWAP1 SWAP2 SWAP1 PUSH4 0xFFFFFFFF AND JUMP JUMPDEST PUSH1 0x1 DUP2 SWAP1 SSTORE POP CALLER PUSH20 0xFFFFFFFFFFFFFFFFFFFFFFFFFFFFFFFFFFFFFFFF AND PUSH32 0x84E02DAA69BDB087C9FE8D3041ABCA495512CB14E723070F6D1D4EFFACE82E5D DUP9 DUP6 CALLVALUE DUP7 TIMESTAMP DUP8 PUSH1 0x40 MLOAD DUP1 DUP8 PUSH1 0xFF AND DUP2 MSTORE PUSH1 0x20 ADD DUP7 DUP2 MSTORE PUSH1 0x20 ADD DUP6 DUP2 MSTORE PUSH1 0x20 ADD DUP5 DUP2 MSTORE PUSH1 0x20 ADD DUP4 DUP2 MSTORE PUSH1 0x20 ADD DUP3 DUP2 MSTORE PUSH1 0x20 ADD SWAP7 POP POP POP POP POP POP POP PUSH1 0x40 MLOAD DUP1 SWAP2 SUB SWAP1 LOG2 PUSH1 0x1 PUSH1 0x3 DUP2 GT ISZERO PUSH2 0x253D JUMPI INVALID JUMPDEST PUSH1 0xE PUSH1 0x0 SWAP1 SLOAD SWAP1 PUSH2 0x100 EXP SWAP1 DIV PUSH1 0xFF AND PUSH1 0x3 DUP2 GT ISZERO PUSH2 0x2558 JUMPI INVALID JUMPDEST EQ PUSH2 0x25CB JUMPI PUSH1 0x40 MLOAD PUSH32 0x8C379A000000000000000000000000000000000000000000000000000000000 DUP2 MSTORE PUSH1 0x4 ADD DUP1 DUP1 PUSH1 0x20 ADD DUP3 DUP2 SUB DUP3 MSTORE PUSH1 0x11 DUP2 MSTORE PUSH1 0x20 ADD DUP1 PUSH32 0x49434F2069736E27742072756E6E696E67000000000000000000000000000000 DUP2 MSTORE POP PUSH1 0x20 ADD SWAP2 POP POP PUSH1 0x40 MLOAD DUP1 SWAP2 SUB SWAP1 REVERT JUMPDEST PUSH1 0x9 SLOAD CALLVALUE LT ISZERO DUP1 ISZERO PUSH2 0x25DF JUMPI POP PUSH1 0xA SLOAD CALLVALUE GT ISZERO JUMPDEST PUSH2 0x2651 JUMPI PUSH1 0x40 MLOAD PUSH32 0x8C379A000000000000000000000000000000000000000000000000000000000 DUP2 MSTORE PUSH1 0x4 ADD DUP1 DUP1 PUSH1 0x20 ADD DUP3 DUP2 SUB DUP3 MSTORE PUSH1 0x1C DUP2 MSTORE PUSH1 0x20 ADD DUP1 PUSH32 0x436865636B204D696E20616E64204D617820496E766573746D656E7400000000 DUP2 MSTORE POP PUSH1 0x20 ADD SWAP2 POP POP PUSH1 0x40 MLOAD DUP1 SWAP2 SUB SWAP1 REVERT JUMPDEST PUSH1 0xA SLOAD CALLVALUE PUSH1 0xD PUSH1 0x0 CALLER PUSH20 0xFFFFFFFFFFFFFFFFFFFFFFFFFFFFFFFFFFFFFFFF AND PUSH20 0xFFFFFFFFFFFFFFFFFFFFFFFFFFFFFFFFFFFFFFFF AND DUP2 MSTORE PUSH1 0x20 ADD SWAP1 DUP2 MSTORE PUSH1 0x20 ADD PUSH1 0x0 KECCAK256 SLOAD ADD GT ISZERO PUSH2 0x26ED JUMPI PUSH1 0x40 MLOAD PUSH32 0x8C379A000000000000000000000000000000000000000000000000000000000 DUP2 MSTORE PUSH1 0x4 ADD DUP1 DUP1 PUSH1 0x20 ADD DUP3 DUP2 SUB DUP3 MSTORE PUSH1 0x2A DUP2 MSTORE PUSH1 0x20 ADD DUP1 PUSH2 0x3C36 PUSH1 0x2A SWAP2 CODECOPY PUSH1 0x40 ADD SWAP2 POP POP PUSH1 0x40 MLOAD DUP1 SWAP2 SUB SWAP1 REVERT JUMPDEST PUSH1 0x7 SLOAD CALLVALUE PUSH1 0x8 SLOAD ADD GT ISZERO PUSH2 0x2769 JUMPI PUSH1 0x40 MLOAD PUSH32 0x8C379A000000000000000000000000000000000000000000000000000000000 DUP2 MSTORE PUSH1 0x4 ADD DUP1 DUP1 PUSH1 0x20 ADD DUP3 DUP2 SUB DUP3 MSTORE PUSH1 0x19 DUP2 MSTORE PUSH1 0x20 ADD DUP1 PUSH32 0x53656E642077697468696E20686172646361702072616E676500000000000000 DUP2 MSTORE POP PUSH1 0x20 ADD SWAP2 POP POP PUSH1 0x40 MLOAD DUP1 SWAP2 SUB SWAP1 REVERT JUMPDEST PUSH1 0xC SLOAD TIMESTAMP GT ISZERO PUSH2 0x27C4 JUMPI PUSH1 0x40 MLOAD PUSH32 0x8C379A000000000000000000000000000000000000000000000000000000000 DUP2 MSTORE PUSH1 0x4 ADD DUP1 DUP1 PUSH1 0x20 ADD DUP3 DUP2 SUB DUP3 MSTORE PUSH1 0x26 DUP2 MSTORE PUSH1 0x20 ADD DUP1 PUSH2 0x3C84 PUSH1 0x26 SWAP2 CODECOPY PUSH1 0x40 ADD SWAP2 POP POP PUSH1 0x40 MLOAD DUP1 SWAP2 SUB SWAP1 REVERT JUMPDEST CALLVALUE PUSH1 0x8 PUSH1 0x0 DUP3 DUP3 SLOAD ADD SWAP3 POP POP DUP2 SWAP1 SSTORE POP CALLVALUE PUSH1 0xD PUSH1 0x0 CALLER PUSH20 0xFFFFFFFFFFFFFFFFFFFFFFFFFFFFFFFFFFFFFFFF AND PUSH20 0xFFFFFFFFFFFFFFFFFFFFFFFFFFFFFFFFFFFFFFFF AND DUP2 MSTORE PUSH1 0x20 ADD SWAP1 DUP2 MSTORE PUSH1 0x20 ADD PUSH1 0x0 KECCAK256 PUSH1 0x0 DUP3 DUP3 SLOAD ADD SWAP3 POP POP DUP2 SWAP1 SSTORE POP PUSH1 0x0 PUSH1 0x4 PUSH1 0x0 SWAP1 SLOAD SWAP1 PUSH2 0x100 EXP SWAP1 DIV PUSH20 0xFFFFFFFFFFFFFFFFFFFFFFFFFFFFFFFFFFFFFFFF AND PUSH20 0xFFFFFFFFFFFFFFFFFFFFFFFFFFFFFFFFFFFFFFFF AND DUP7 PUSH1 0x40 MLOAD DUP1 PUSH1 0x0 ADD SWAP1 POP PUSH1 0x0 PUSH1 0x40 MLOAD DUP1 DUP4 SUB DUP2 DUP6 DUP8 GAS CALL SWAP3 POP POP POP RETURNDATASIZE DUP1 PUSH1 0x0 DUP2 EQ PUSH2 0x28A3 JUMPI PUSH1 0x40 MLOAD SWAP2 POP PUSH1 0x1F NOT PUSH1 0x3F RETURNDATASIZE ADD AND DUP3 ADD PUSH1 0x40 MSTORE RETURNDATASIZE DUP3 MSTORE RETURNDATASIZE PUSH1 0x0 PUSH1 0x20 DUP5 ADD RETURNDATACOPY PUSH2 0x28A8 JUMP JUMPDEST PUSH1 0x60 SWAP2 POP JUMPDEST POP POP SWAP1 POP DUP1 PUSH2 0x291F JUMPI PUSH1 0x40 MLOAD PUSH32 0x8C379A000000000000000000000000000000000000000000000000000000000 DUP2 MSTORE PUSH1 0x4 ADD DUP1 DUP1 PUSH1 0x20 ADD DUP3 DUP2 SUB DUP3 MSTORE PUSH1 0x10 DUP2 MSTORE PUSH1 0x20 ADD DUP1 PUSH32 0x4661696C656420746F20496E7665737400000000000000000000000000000000 DUP2 MSTORE POP PUSH1 0x20 ADD SWAP2 POP POP PUSH1 0x40 MLOAD DUP1 SWAP2 SUB SWAP1 REVERT JUMPDEST PUSH1 0x0 PUSH8 0xDE0B6B3A7640000 PUSH1 0x6 SLOAD CALLVALUE DUP2 PUSH2 0x2935 JUMPI INVALID JUMPDEST DIV MUL SWAP1 POP PUSH1 0x0 PUSH1 0x5 PUSH1 0x0 SWAP1 SLOAD SWAP1 PUSH2 0x100 EXP SWAP1 DIV PUSH20 0xFFFFFFFFFFFFFFFFFFFFFFFFFFFFFFFFFFFFFFFF AND PUSH20 0xFFFFFFFFFFFFFFFFFFFFFFFFFFFFFFFFFFFFFFFF AND PUSH4 0xA9059CBB CALLER DUP5 PUSH1 0x40 MLOAD DUP4 PUSH4 0xFFFFFFFF AND PUSH1 0xE0 SHL DUP2 MSTORE PUSH1 0x4 ADD DUP1 DUP4 PUSH20 0xFFFFFFFFFFFFFFFFFFFFFFFFFFFFFFFFFFFFFFFF AND DUP2 MSTORE PUSH1 0x20 ADD DUP3 DUP2 MSTORE PUSH1 0x20 ADD SWAP3 POP POP POP PUSH1 0x20 PUSH1 0x40 MLOAD DUP1 DUP4 SUB DUP2 PUSH1 0x0 DUP8 DUP1 EXTCODESIZE ISZERO DUP1 ISZERO PUSH2 0x29CE JUMPI PUSH1 0x0 DUP1 REVERT JUMPDEST POP GAS CALL ISZERO DUP1 ISZERO PUSH2 0x29E2 JUMPI RETURNDATASIZE PUSH1 0x0 DUP1 RETURNDATACOPY RETURNDATASIZE PUSH1 0x0 REVERT JUMPDEST POP POP POP POP PUSH1 0x40 MLOAD RETURNDATASIZE PUSH1 0x20 DUP2 LT ISZERO PUSH2 0x29F8 JUMPI PUSH1 0x0 DUP1 REVERT JUMPDEST DUP2 ADD SWAP1 DUP1 DUP1 MLOAD SWAP1 PUSH1 0x20 ADD SWAP1 SWAP3 SWAP2 SWAP1 POP POP POP SWAP1 POP DUP1 PUSH2 0x2A7E JUMPI PUSH1 0x40 MLOAD PUSH32 0x8C379A000000000000000000000000000000000000000000000000000000000 DUP2 MSTORE PUSH1 0x4 ADD DUP1 DUP1 PUSH1 0x20 ADD DUP3 DUP2 SUB DUP3 MSTORE PUSH1 0x10 DUP2 MSTORE PUSH1 0x20 ADD DUP1 PUSH32 0x4661696C656420746F20496E7665737400000000000000000000000000000000 DUP2 MSTORE POP PUSH1 0x20 ADD SWAP2 POP POP PUSH1 0x40 MLOAD DUP1 SWAP2 SUB SWAP1 REVERT JUMPDEST CALLER PUSH20 0xFFFFFFFFFFFFFFFFFFFFFFFFFFFFFFFFFFFFFFFF AND ADDRESS PUSH20 0xFFFFFFFFFFFFFFFFFFFFFFFFFFFFFFFFFFFFFFFF AND PUSH32 0x2E206BBDD5787CD6D3E97144DEC044F9F15DD77A257AFD27FA70CAD6F03FEAE3 CALLVALUE DUP6 PUSH1 0x40 MLOAD DUP1 DUP4 DUP2 MSTORE PUSH1 0x20 ADD DUP3 DUP2 MSTORE PUSH1 0x20 ADD SWAP3 POP POP POP PUSH1 0x40 MLOAD DUP1 SWAP2 SUB SWAP1 LOG3 PUSH1 0x1 SWAP9 POP POP POP POP POP POP POP POP POP SWAP3 SWAP2 POP POP JUMP JUMPDEST PUSH1 0x0 DUP1 PUSH1 0x0 PUSH2 0x2B0B DUP6 PUSH2 0x340B JUMP JUMPDEST SWAP3 POP PUSH1 0x3 DUP6 PUSH1 0xFF AND LT ISZERO PUSH2 0x2B7A JUMPI PUSH2 0x2B73 PUSH1 0xF DUP7 PUSH1 0xFF AND DUP2 SLOAD DUP2 LT PUSH2 0x2B2C JUMPI INVALID JUMPDEST SWAP1 PUSH1 0x0 MSTORE PUSH1 0x20 PUSH1 0x0 KECCAK256 SWAP1 PUSH1 0x2 MUL ADD PUSH1 0x0 ADD SLOAD PUSH2 0x2B65 PUSH2 0x3E8 PUSH2 0x2B57 DUP8 DUP10 PUSH2 0x38EC SWAP1 SWAP2 SWAP1 PUSH4 0xFFFFFFFF AND JUMP JUMPDEST PUSH2 0x3972 SWAP1 SWAP2 SWAP1 PUSH4 0xFFFFFFFF AND JUMP JUMPDEST PUSH2 0x38EC SWAP1 SWAP2 SWAP1 PUSH4 0xFFFFFFFF AND JUMP JUMPDEST SWAP2 POP PUSH2 0x2C0F JUMP JUMPDEST PUSH1 0x6 DUP6 PUSH1 0xFF AND LT ISZERO PUSH2 0x2C0E JUMPI PUSH1 0x0 JUMPDEST PUSH1 0xF DUP7 PUSH1 0xFF AND DUP2 SLOAD DUP2 LT PUSH2 0x2B99 JUMPI INVALID JUMPDEST SWAP1 PUSH1 0x0 MSTORE PUSH1 0x20 PUSH1 0x0 KECCAK256 SWAP1 PUSH1 0x2 MUL ADD PUSH1 0x0 ADD SLOAD DUP2 LT ISZERO PUSH2 0x2C0C JUMPI PUSH2 0x2BFD PUSH2 0x2BEE PUSH2 0x3E8 PUSH2 0x2BE0 DUP8 PUSH2 0x2BD2 DUP9 DUP12 PUSH2 0x3A06 SWAP1 SWAP2 SWAP1 PUSH4 0xFFFFFFFF AND JUMP JUMPDEST PUSH2 0x38EC SWAP1 SWAP2 SWAP1 PUSH4 0xFFFFFFFF AND JUMP JUMPDEST PUSH2 0x3972 SWAP1 SWAP2 SWAP1 PUSH4 0xFFFFFFFF AND JUMP JUMPDEST DUP5 PUSH2 0x3A06 SWAP1 SWAP2 SWAP1 PUSH4 0xFFFFFFFF AND JUMP JUMPDEST SWAP3 POP DUP1 DUP1 PUSH1 0x1 ADD SWAP2 POP POP PUSH2 0x2B89 JUMP JUMPDEST POP JUMPDEST JUMPDEST PUSH2 0x2C58 PUSH2 0x2C49 PUSH3 0x15180 PUSH1 0xF DUP9 PUSH1 0xFF AND DUP2 SLOAD DUP2 LT PUSH2 0x2C29 JUMPI INVALID JUMPDEST SWAP1 PUSH1 0x0 MSTORE PUSH1 0x20 PUSH1 0x0 KECCAK256 SWAP1 PUSH1 0x2 MUL ADD PUSH1 0x0 ADD SLOAD PUSH2 0x38EC SWAP1 SWAP2 SWAP1 PUSH4 0xFFFFFFFF AND JUMP JUMPDEST TIMESTAMP PUSH2 0x3A06 SWAP1 SWAP2 SWAP1 PUSH4 0xFFFFFFFF AND JUMP JUMPDEST SWAP1 POP SWAP3 POP SWAP3 POP SWAP3 JUMP JUMPDEST PUSH1 0x0 DUP2 DUP2 SLOAD DUP2 LT PUSH2 0x2C6E JUMPI INVALID JUMPDEST SWAP1 PUSH1 0x0 MSTORE PUSH1 0x20 PUSH1 0x0 KECCAK256 ADD PUSH1 0x0 SWAP2 POP SWAP1 POP SLOAD DUP2 JUMP JUMPDEST PUSH1 0x0 PUSH1 0x5 PUSH1 0x0 SWAP1 SLOAD SWAP1 PUSH2 0x100 EXP SWAP1 DIV PUSH20 0xFFFFFFFFFFFFFFFFFFFFFFFFFFFFFFFFFFFFFFFF AND PUSH20 0xFFFFFFFFFFFFFFFFFFFFFFFFFFFFFFFFFFFFFFFF AND PUSH4 0x70A08231 ADDRESS PUSH1 0x40 MLOAD DUP3 PUSH4 0xFFFFFFFF AND PUSH1 0xE0 SHL DUP2 MSTORE PUSH1 0x4 ADD DUP1 DUP3 PUSH20 0xFFFFFFFFFFFFFFFFFFFFFFFFFFFFFFFFFFFFFFFF AND DUP2 MSTORE PUSH1 0x20 ADD SWAP2 POP POP PUSH1 0x20 PUSH1 0x40 MLOAD DUP1 DUP4 SUB DUP2 DUP7 DUP1 EXTCODESIZE ISZERO DUP1 ISZERO PUSH2 0x2D0D JUMPI PUSH1 0x0 DUP1 REVERT JUMPDEST POP GAS STATICCALL ISZERO DUP1 ISZERO PUSH2 0x2D21 JUMPI RETURNDATASIZE PUSH1 0x0 DUP1 RETURNDATACOPY RETURNDATASIZE PUSH1 0x0 REVERT JUMPDEST POP POP POP POP PUSH1 0x40 MLOAD RETURNDATASIZE PUSH1 0x20 DUP2 LT ISZERO PUSH2 0x2D37 JUMPI PUSH1 0x0 DUP1 REVERT JUMPDEST DUP2 ADD SWAP1 DUP1 DUP1 MLOAD SWAP1 PUSH1 0x20 ADD SWAP1 SWAP3 SWAP2 SWAP1 POP POP POP SWAP1 POP SWAP1 JUMP JUMPDEST PUSH1 0x0 PUSH1 0x5 PUSH1 0x0 SWAP1 SLOAD SWAP1 PUSH2 0x100 EXP SWAP1 DIV PUSH20 0xFFFFFFFFFFFFFFFFFFFFFFFFFFFFFFFFFFFFFFFF AND PUSH20 0xFFFFFFFFFFFFFFFFFFFFFFFFFFFFFFFFFFFFFFFF AND PUSH4 0x70A08231 DUP4 PUSH1 0x40 MLOAD DUP3 PUSH4 0xFFFFFFFF AND PUSH1 0xE0 SHL DUP2 MSTORE PUSH1 0x4 ADD DUP1 DUP3 PUSH20 0xFFFFFFFFFFFFFFFFFFFFFFFFFFFFFFFFFFFFFFFF AND DUP2 MSTORE PUSH1 0x20 ADD SWAP2 POP POP PUSH1 0x20 PUSH1 0x40 MLOAD DUP1 DUP4 SUB DUP2 DUP7 DUP1 EXTCODESIZE ISZERO DUP1 ISZERO PUSH2 0x2DD8 JUMPI PUSH1 0x0 DUP1 REVERT JUMPDEST POP GAS STATICCALL ISZERO DUP1 ISZERO PUSH2 0x2DEC JUMPI RETURNDATASIZE PUSH1 0x0 DUP1 RETURNDATACOPY RETURNDATASIZE PUSH1 0x0 REVERT JUMPDEST POP POP POP POP PUSH1 0x40 MLOAD RETURNDATASIZE PUSH1 0x20 DUP2 LT ISZERO PUSH2 0x2E02 JUMPI PUSH1 0x0 DUP1 REVERT JUMPDEST DUP2 ADD SWAP1 DUP1 DUP1 MLOAD SWAP1 PUSH1 0x20 ADD SWAP1 SWAP3 SWAP2 SWAP1 POP POP POP SWAP1 POP SWAP2 SWAP1 POP JUMP JUMPDEST PUSH1 0x2 SLOAD DUP2 JUMP JUMPDEST PUSH1 0x0 PUSH2 0x2EB9 PUSH1 0x10 PUSH1 0x0 DUP5 PUSH20 0xFFFFFFFFFFFFFFFFFFFFFFFFFFFFFFFFFFFFFFFF AND PUSH20 0xFFFFFFFFFFFFFFFFFFFFFFFFFFFFFFFFFFFFFFFF AND DUP2 MSTORE PUSH1 0x20 ADD SWAP1 DUP2 MSTORE PUSH1 0x20 ADD PUSH1 0x0 KECCAK256 PUSH1 0x6 ADD SLOAD PUSH1 0x10 PUSH1 0x0 DUP6 PUSH20 0xFFFFFFFFFFFFFFFFFFFFFFFFFFFFFFFFFFFFFFFF AND PUSH20 0xFFFFFFFFFFFFFFFFFFFFFFFFFFFFFFFFFFFFFFFF AND DUP2 MSTORE PUSH1 0x20 ADD SWAP1 DUP2 MSTORE PUSH1 0x20 ADD PUSH1 0x0 KECCAK256 PUSH1 0x7 ADD SLOAD PUSH2 0x39BC SWAP1 SWAP2 SWAP1 PUSH4 0xFFFFFFFF AND JUMP JUMPDEST SWAP1 POP SWAP2 SWAP1 POP JUMP JUMPDEST PUSH1 0x0 SELFBALANCE SWAP1 POP SWAP1 JUMP JUMPDEST PUSH1 0xC SLOAD DUP2 JUMP JUMPDEST PUSH1 0x0 DUP1 PUSH1 0x0 SWAP1 POP JUMPDEST PUSH1 0x10 PUSH1 0x0 DUP5 PUSH20 0xFFFFFFFFFFFFFFFFFFFFFFFFFFFFFFFFFFFFFFFF AND PUSH20 0xFFFFFFFFFFFFFFFFFFFFFFFFFFFFFFFFFFFFFFFF AND DUP2 MSTORE PUSH1 0x20 ADD SWAP1 DUP2 MSTORE PUSH1 0x20 ADD PUSH1 0x0 KECCAK256 PUSH1 0x0 ADD DUP1 SLOAD SWAP1 POP DUP2 LT ISZERO PUSH2 0x2FA3 JUMPI PUSH2 0x2F94 PUSH1 0x10 PUSH1 0x0 DUP6 PUSH20 0xFFFFFFFFFFFFFFFFFFFFFFFFFFFFFFFFFFFFFFFF AND PUSH20 0xFFFFFFFFFFFFFFFFFFFFFFFFFFFFFFFFFFFFFFFF AND DUP2 MSTORE PUSH1 0x20 ADD SWAP1 DUP2 MSTORE PUSH1 0x20 ADD PUSH1 0x0 KECCAK256 PUSH1 0x0 ADD DUP3 DUP2 SLOAD DUP2 LT PUSH2 0x2F73 JUMPI INVALID JUMPDEST SWAP1 PUSH1 0x0 MSTORE PUSH1 0x20 PUSH1 0x0 KECCAK256 SWAP1 PUSH1 0x6 MUL ADD PUSH1 0x2 ADD SLOAD DUP4 PUSH2 0x3A06 SWAP1 SWAP2 SWAP1 PUSH4 0xFFFFFFFF AND JUMP JUMPDEST SWAP2 POP DUP1 DUP1 PUSH1 0x1 ADD SWAP2 POP POP PUSH2 0x2ED6 JUMP JUMPDEST POP SWAP2 SWAP1 POP JUMP JUMPDEST PUSH1 0x3 PUSH1 0x0 SWAP1 SLOAD SWAP1 PUSH2 0x100 EXP SWAP1 DIV PUSH20 0xFFFFFFFFFFFFFFFFFFFFFFFFFFFFFFFFFFFFFFFF AND PUSH20 0xFFFFFFFFFFFFFFFFFFFFFFFFFFFFFFFFFFFFFFFF AND CALLER PUSH20 0xFFFFFFFFFFFFFFFFFFFFFFFFFFFFFFFFFFFFFFFF AND EQ PUSH2 0x306C JUMPI PUSH1 0x40 MLOAD PUSH32 0x8C379A000000000000000000000000000000000000000000000000000000000 DUP2 MSTORE PUSH1 0x4 ADD DUP1 DUP1 PUSH1 0x20 ADD DUP3 DUP2 SUB DUP3 MSTORE PUSH1 0x13 DUP2 MSTORE PUSH1 0x20 ADD DUP1 PUSH32 0x41646D696E204F6E6C792066756E6374696F6E00000000000000000000000000 DUP2 MSTORE POP PUSH1 0x20 ADD SWAP2 POP POP PUSH1 0x40 MLOAD DUP1 SWAP2 SUB SWAP1 REVERT JUMPDEST PUSH1 0x0 PUSH1 0x3 DUP2 GT ISZERO PUSH2 0x3079 JUMPI INVALID JUMPDEST PUSH1 0xE PUSH1 0x0 SWAP1 SLOAD SWAP1 PUSH2 0x100 EXP SWAP1 DIV PUSH1 0xFF AND PUSH1 0x3 DUP2 GT ISZERO PUSH2 0x3094 JUMPI INVALID JUMPDEST EQ PUSH2 0x3107 JUMPI PUSH1 0x40 MLOAD PUSH32 0x8C379A000000000000000000000000000000000000000000000000000000000 DUP2 MSTORE PUSH1 0x4 ADD DUP1 DUP1 PUSH1 0x20 ADD DUP3 DUP2 SUB DUP3 MSTORE PUSH1 0x19 DUP2 MSTORE PUSH1 0x20 ADD DUP1 PUSH32 0x49434F2069736E277420696E206265666F726520737461746500000000000000 DUP2 MSTORE POP PUSH1 0x20 ADD SWAP2 POP POP PUSH1 0x40 MLOAD DUP1 SWAP2 SUB SWAP1 REVERT JUMPDEST TIMESTAMP PUSH1 0xB DUP2 SWAP1 SSTORE POP PUSH4 0x1E13380 PUSH1 0xB SLOAD ADD PUSH1 0xC DUP2 SWAP1 SSTORE POP PUSH1 0x1 PUSH1 0xE PUSH1 0x0 PUSH2 0x100 EXP DUP2 SLOAD DUP2 PUSH1 0xFF MUL NOT AND SWAP1 DUP4 PUSH1 0x3 DUP2 GT ISZERO PUSH2 0x313C JUMPI INVALID JUMPDEST MUL OR SWAP1 SSTORE POP JUMP JUMPDEST PUSH1 0x6 SLOAD DUP2 JUMP JUMPDEST PUSH1 0x1 SLOAD DUP2 JUMP JUMPDEST PUSH1 0x9 SLOAD DUP2 JUMP JUMPDEST PUSH1 0x3 PUSH1 0x0 SWAP1 SLOAD SWAP1 PUSH2 0x100 EXP SWAP1 DIV PUSH20 0xFFFFFFFFFFFFFFFFFFFFFFFFFFFFFFFFFFFFFFFF AND PUSH20 0xFFFFFFFFFFFFFFFFFFFFFFFFFFFFFFFFFFFFFFFF AND CALLER PUSH20 0xFFFFFFFFFFFFFFFFFFFFFFFFFFFFFFFFFFFFFFFF AND EQ PUSH2 0x3218 JUMPI PUSH1 0x40 MLOAD PUSH32 0x8C379A000000000000000000000000000000000000000000000000000000000 DUP2 MSTORE PUSH1 0x4 ADD DUP1 DUP1 PUSH1 0x20 ADD DUP3 DUP2 SUB DUP3 MSTORE PUSH1 0x13 DUP2 MSTORE PUSH1 0x20 ADD DUP1 PUSH32 0x41646D696E204F6E6C792066756E6374696F6E00000000000000000000000000 DUP2 MSTORE POP PUSH1 0x20 ADD SWAP2 POP POP PUSH1 0x40 MLOAD DUP1 SWAP2 SUB SWAP1 REVERT JUMPDEST DUP1 PUSH1 0x3 PUSH1 0x0 PUSH2 0x100 EXP DUP2 SLOAD DUP2 PUSH20 0xFFFFFFFFFFFFFFFFFFFFFFFFFFFFFFFFFFFFFFFF MUL NOT AND SWAP1 DUP4 PUSH20 0xFFFFFFFFFFFFFFFFFFFFFFFFFFFFFFFFFFFFFFFF AND MUL OR SWAP1 SSTORE POP POP JUMP JUMPDEST PUSH1 0x12 PUSH1 0x0 SWAP1 SLOAD SWAP1 PUSH2 0x100 EXP SWAP1 DIV PUSH20 0xFFFFFFFFFFFFFFFFFFFFFFFFFFFFFFFFFFFFFFFF AND DUP2 JUMP JUMPDEST PUSH2 0x3E8 DUP2 JUMP JUMPDEST PUSH1 0x3 PUSH1 0x0 SWAP1 SLOAD SWAP1 PUSH2 0x100 EXP SWAP1 DIV PUSH20 0xFFFFFFFFFFFFFFFFFFFFFFFFFFFFFFFFFFFFFFFF AND PUSH20 0xFFFFFFFFFFFFFFFFFFFFFFFFFFFFFFFFFFFFFFFF AND CALLER PUSH20 0xFFFFFFFFFFFFFFFFFFFFFFFFFFFFFFFFFFFFFFFF AND EQ PUSH2 0x334B JUMPI PUSH1 0x40 MLOAD PUSH32 0x8C379A000000000000000000000000000000000000000000000000000000000 DUP2 MSTORE PUSH1 0x4 ADD DUP1 DUP1 PUSH1 0x20 ADD DUP3 DUP2 SUB DUP3 MSTORE PUSH1 0x13 DUP2 MSTORE PUSH1 0x20 ADD DUP1 PUSH32 0x41646D696E204F6E6C792066756E6374696F6E00000000000000000000000000 DUP2 MSTORE POP PUSH1 0x20 ADD SWAP2 POP POP PUSH1 0x40 MLOAD DUP1 SWAP2 SUB SWAP1 REVERT JUMPDEST PUSH1 0x3 DUP1 DUP2 GT ISZERO PUSH2 0x3357 JUMPI INVALID JUMPDEST PUSH1 0xE PUSH1 0x0 SWAP1 SLOAD SWAP1 PUSH2 0x100 EXP SWAP1 DIV PUSH1 0xFF AND PUSH1 0x3 DUP2 GT ISZERO PUSH2 0x3372 JUMPI INVALID JUMPDEST EQ PUSH2 0x33E5 JUMPI PUSH1 0x40 MLOAD PUSH32 0x8C379A000000000000000000000000000000000000000000000000000000000 DUP2 MSTORE PUSH1 0x4 ADD DUP1 DUP1 PUSH1 0x20 ADD DUP3 DUP2 SUB DUP3 MSTORE PUSH1 0x1A DUP2 MSTORE PUSH1 0x20 ADD DUP1 PUSH32 0x49434F2053746174652069736E27742068616C74656420796574000000000000 DUP2 MSTORE POP PUSH1 0x20 ADD SWAP2 POP POP PUSH1 0x40 MLOAD DUP1 SWAP2 SUB SWAP1 REVERT JUMPDEST PUSH1 0x1 PUSH1 0xE PUSH1 0x0 PUSH2 0x100 EXP DUP2 SLOAD DUP2 PUSH1 0xFF MUL NOT AND SWAP1 DUP4 PUSH1 0x3 DUP2 GT ISZERO PUSH2 0x3404 JUMPI INVALID JUMPDEST MUL OR SWAP1 SSTORE POP JUMP JUMPDEST PUSH1 0x0 PUSH1 0x11 SLOAD TIMESTAMP GT ISZERO PUSH2 0x348E JUMPI PUSH2 0x3487 PUSH2 0x3457 PUSH3 0x15180 PUSH2 0x3449 PUSH2 0x3439 PUSH1 0x11 SLOAD TIMESTAMP PUSH2 0x39BC SWAP1 SWAP2 SWAP1 PUSH4 0xFFFFFFFF AND JUMP JUMPDEST PUSH1 0x5 PUSH2 0x38EC SWAP1 SWAP2 SWAP1 PUSH4 0xFFFFFFFF AND JUMP JUMPDEST PUSH2 0x3972 SWAP1 SWAP2 SWAP1 PUSH4 0xFFFFFFFF AND JUMP JUMPDEST PUSH1 0xF DUP5 PUSH1 0xFF AND DUP2 SLOAD DUP2 LT PUSH2 0x3467 JUMPI INVALID JUMPDEST SWAP1 PUSH1 0x0 MSTORE PUSH1 0x20 PUSH1 0x0 KECCAK256 SWAP1 PUSH1 0x2 MUL ADD PUSH1 0x1 ADD SLOAD PUSH2 0x3A06 SWAP1 SWAP2 SWAP1 PUSH4 0xFFFFFFFF AND JUMP JUMPDEST SWAP1 POP PUSH2 0x34B3 JUMP JUMPDEST PUSH1 0xF DUP3 PUSH1 0xFF AND DUP2 SLOAD DUP2 LT PUSH2 0x349E JUMPI INVALID JUMPDEST SWAP1 PUSH1 0x0 MSTORE PUSH1 0x20 PUSH1 0x0 KECCAK256 SWAP1 PUSH1 0x2 MUL ADD PUSH1 0x1 ADD SLOAD SWAP1 POP JUMPDEST SWAP2 SWAP1 POP JUMP JUMPDEST PUSH1 0xB SLOAD DUP2 JUMP JUMPDEST PUSH1 0x0 PUSH1 0x10 PUSH1 0x0 DUP4 PUSH20 0xFFFFFFFFFFFFFFFFFFFFFFFFFFFFFFFFFFFFFFFF AND PUSH20 0xFFFFFFFFFFFFFFFFFFFFFFFFFFFFFFFFFFFFFFFF AND DUP2 MSTORE PUSH1 0x20 ADD SWAP1 DUP2 MSTORE PUSH1 0x20 ADD PUSH1 0x0 KECCAK256 PUSH1 0x0 ADD DUP1 SLOAD SWAP1 POP SWAP1 POP SWAP2 SWAP1 POP JUMP JUMPDEST PUSH1 0x4 PUSH1 0x0 SWAP1 SLOAD SWAP1 PUSH2 0x100 EXP SWAP1 DIV PUSH20 0xFFFFFFFFFFFFFFFFFFFFFFFFFFFFFFFFFFFFFFFF AND DUP2 JUMP JUMPDEST PUSH1 0x0 DUP1 PUSH1 0xF DUP4 PUSH1 0xFF AND DUP2 SLOAD DUP2 LT PUSH2 0x3546 JUMPI INVALID JUMPDEST SWAP1 PUSH1 0x0 MSTORE PUSH1 0x20 PUSH1 0x0 KECCAK256 SWAP1 PUSH1 0x2 MUL ADD PUSH1 0x0 ADD SLOAD SWAP2 POP PUSH1 0xF DUP4 PUSH1 0xFF AND DUP2 SLOAD DUP2 LT PUSH2 0x356A JUMPI INVALID JUMPDEST SWAP1 PUSH1 0x0 MSTORE PUSH1 0x20 PUSH1 0x0 KECCAK256 SWAP1 PUSH1 0x2 MUL ADD PUSH1 0x1 ADD SLOAD SWAP1 POP SWAP2 POP SWAP2 JUMP JUMPDEST PUSH1 0xE PUSH1 0x0 SWAP1 SLOAD SWAP1 PUSH2 0x100 EXP SWAP1 DIV PUSH1 0xFF AND DUP2 JUMP JUMPDEST PUSH1 0x0 DUP1 PUSH1 0x0 DUP1 PUSH1 0x0 DUP1 PUSH1 0x0 PUSH1 0x10 PUSH1 0x0 DUP11 PUSH20 0xFFFFFFFFFFFFFFFFFFFFFFFFFFFFFFFFFFFFFFFF AND PUSH20 0xFFFFFFFFFFFFFFFFFFFFFFFFFFFFFFFFFFFFFFFF AND DUP2 MSTORE PUSH1 0x20 ADD SWAP1 DUP2 MSTORE PUSH1 0x20 ADD PUSH1 0x0 KECCAK256 SWAP1 POP DUP1 PUSH1 0x0 ADD DUP9 DUP2 SLOAD DUP2 LT PUSH2 0x35F1 JUMPI INVALID JUMPDEST SWAP1 PUSH1 0x0 MSTORE PUSH1 0x20 PUSH1 0x0 KECCAK256 SWAP1 PUSH1 0x6 MUL ADD PUSH1 0x0 ADD PUSH1 0x0 SWAP1 SLOAD SWAP1 PUSH2 0x100 EXP SWAP1 DIV PUSH1 0xFF AND SWAP7 POP DUP1 PUSH1 0x0 ADD DUP9 DUP2 SLOAD DUP2 LT PUSH2 0x3621 JUMPI INVALID JUMPDEST SWAP1 PUSH1 0x0 MSTORE PUSH1 0x20 PUSH1 0x0 KECCAK256 SWAP1 PUSH1 0x6 MUL ADD PUSH1 0x1 ADD SLOAD SWAP6 POP DUP1 PUSH1 0x0 ADD DUP9 DUP2 SLOAD DUP2 LT PUSH2 0x3644 JUMPI INVALID JUMPDEST SWAP1 PUSH1 0x0 MSTORE PUSH1 0x20 PUSH1 0x0 KECCAK256 SWAP1 PUSH1 0x6 MUL ADD PUSH1 0x2 ADD SLOAD SWAP5 POP DUP1 PUSH1 0x0 ADD DUP9 DUP2 SLOAD DUP2 LT PUSH2 0x3667 JUMPI INVALID JUMPDEST SWAP1 PUSH1 0x0 MSTORE PUSH1 0x20 PUSH1 0x0 KECCAK256 SWAP1 PUSH1 0x6 MUL ADD PUSH1 0x3 ADD SLOAD SWAP4 POP DUP1 PUSH1 0x0 ADD DUP9 DUP2 SLOAD DUP2 LT PUSH2 0x368A JUMPI INVALID JUMPDEST SWAP1 PUSH1 0x0 MSTORE PUSH1 0x20 PUSH1 0x0 KECCAK256 SWAP1 PUSH1 0x6 MUL ADD PUSH1 0x4 ADD SLOAD SWAP3 POP DUP1 PUSH1 0x0 ADD DUP9 DUP2 SLOAD DUP2 LT PUSH2 0x36AD JUMPI INVALID JUMPDEST SWAP1 PUSH1 0x0 MSTORE PUSH1 0x20 PUSH1 0x0 KECCAK256 SWAP1 PUSH1 0x6 MUL ADD PUSH1 0x5 ADD SLOAD SWAP2 POP POP SWAP3 SWAP6 POP SWAP3 SWAP6 POP SWAP3 SWAP6 JUMP JUMPDEST PUSH1 0x11 SLOAD DUP2 JUMP JUMPDEST PUSH1 0x8 SLOAD DUP2 JUMP JUMPDEST PUSH1 0x0 PUSH1 0x10 PUSH1 0x0 DUP4 PUSH20 0xFFFFFFFFFFFFFFFFFFFFFFFFFFFFFFFFFFFFFFFF AND PUSH20 0xFFFFFFFFFFFFFFFFFFFFFFFFFFFFFFFFFFFFFFFF AND DUP2 MSTORE PUSH1 0x20 ADD SWAP1 DUP2 MSTORE PUSH1 0x20 ADD PUSH1 0x0 KECCAK256 PUSH1 0x1 ADD SLOAD SWAP1 POP SWAP2 SWAP1 POP JUMP JUMPDEST PUSH1 0x1 PUSH1 0x3 DUP2 GT ISZERO PUSH2 0x3731 JUMPI INVALID JUMPDEST PUSH1 0xE PUSH1 0x0 SWAP1 SLOAD SWAP1 PUSH2 0x100 EXP SWAP1 DIV PUSH1 0xFF AND PUSH1 0x3 DUP2 GT ISZERO PUSH2 0x374C JUMPI INVALID JUMPDEST EQ PUSH2 0x37BF JUMPI PUSH1 0x40 MLOAD PUSH32 0x8C379A000000000000000000000000000000000000000000000000000000000 DUP2 MSTORE PUSH1 0x4 ADD DUP1 DUP1 PUSH1 0x20 ADD DUP3 DUP2 SUB DUP3 MSTORE PUSH1 0x1E DUP2 MSTORE PUSH1 0x20 ADD DUP1 PUSH32 0x49434F2053686F756C6420626520696E2052756E6E696E672053746174650000 DUP2 MSTORE POP PUSH1 0x20 ADD SWAP2 POP POP PUSH1 0x40 MLOAD DUP1 SWAP2 SUB SWAP1 REVERT JUMPDEST PUSH1 0xC SLOAD TIMESTAMP GT DUP1 PUSH2 0x37D3 JUMPI POP PUSH1 0x7 SLOAD PUSH1 0x8 SLOAD LT ISZERO JUMPDEST PUSH2 0x3828 JUMPI PUSH1 0x40 MLOAD PUSH32 0x8C379A000000000000000000000000000000000000000000000000000000000 DUP2 MSTORE PUSH1 0x4 ADD DUP1 DUP1 PUSH1 0x20 ADD DUP3 DUP2 SUB DUP3 MSTORE PUSH1 0x24 DUP2 MSTORE PUSH1 0x20 ADD DUP1 PUSH2 0x3C60 PUSH1 0x24 SWAP2 CODECOPY PUSH1 0x40 ADD SWAP2 POP POP PUSH1 0x40 MLOAD DUP1 SWAP2 SUB SWAP1 REVERT JUMPDEST PUSH1 0x2 PUSH1 0xE PUSH1 0x0 PUSH2 0x100 EXP DUP2 SLOAD DUP2 PUSH1 0xFF MUL NOT AND SWAP1 DUP4 PUSH1 0x3 DUP2 GT ISZERO PUSH2 0x3847 JUMPI INVALID JUMPDEST MUL OR SWAP1 SSTORE POP JUMP JUMPDEST PUSH1 0x0 PUSH1 0x10 PUSH1 0x0 DUP4 PUSH20 0xFFFFFFFFFFFFFFFFFFFFFFFFFFFFFFFFFFFFFFFF AND PUSH20 0xFFFFFFFFFFFFFFFFFFFFFFFFFFFFFFFFFFFFFFFF AND DUP2 MSTORE PUSH1 0x20 ADD SWAP1 DUP2 MSTORE PUSH1 0x20 ADD PUSH1 0x0 KECCAK256 PUSH1 0x6 ADD SLOAD SWAP1 POP SWAP2 SWAP1 POP JUMP JUMPDEST PUSH1 0x3 PUSH1 0x0 SWAP1 SLOAD SWAP1 PUSH2 0x100 EXP SWAP1 DIV PUSH20 0xFFFFFFFFFFFFFFFFFFFFFFFFFFFFFFFFFFFFFFFF AND DUP2 JUMP JUMPDEST PUSH1 0x7 SLOAD DUP2 JUMP JUMPDEST PUSH1 0x5 PUSH1 0x0 SWAP1 SLOAD SWAP1 PUSH2 0x100 EXP SWAP1 DIV PUSH20 0xFFFFFFFFFFFFFFFFFFFFFFFFFFFFFFFFFFFFFFFF AND DUP2 JUMP JUMPDEST PUSH1 0x0 DUP1 DUP4 EQ ISZERO PUSH2 0x38FF JUMPI PUSH1 0x0 SWAP1 POP PUSH2 0x396C JUMP JUMPDEST PUSH1 0x0 DUP3 DUP5 MUL SWAP1 POP DUP3 DUP5 DUP3 DUP2 PUSH2 0x3910 JUMPI INVALID JUMPDEST DIV EQ PUSH2 0x3967 JUMPI PUSH1 0x40 MLOAD PUSH32 0x8C379A000000000000000000000000000000000000000000000000000000000 DUP2 MSTORE PUSH1 0x4 ADD DUP1 DUP1 PUSH1 0x20 ADD DUP3 DUP2 SUB DUP3 MSTORE PUSH1 0x21 DUP2 MSTORE PUSH1 0x20 ADD DUP1 PUSH2 0x3C15 PUSH1 0x21 SWAP2 CODECOPY PUSH1 0x40 ADD SWAP2 POP POP PUSH1 0x40 MLOAD DUP1 SWAP2 SUB SWAP1 REVERT JUMPDEST DUP1 SWAP2 POP POP JUMPDEST SWAP3 SWAP2 POP POP JUMP JUMPDEST PUSH1 0x0 PUSH2 0x39B4 DUP4 DUP4 PUSH1 0x40 MLOAD DUP1 PUSH1 0x40 ADD PUSH1 0x40 MSTORE DUP1 PUSH1 0x1A DUP2 MSTORE PUSH1 0x20 ADD PUSH32 0x536166654D6174683A206469766973696F6E206279207A65726F000000000000 DUP2 MSTORE POP PUSH2 0x3A8E JUMP JUMPDEST SWAP1 POP SWAP3 SWAP2 POP POP JUMP JUMPDEST PUSH1 0x0 PUSH2 0x39FE DUP4 DUP4 PUSH1 0x40 MLOAD DUP1 PUSH1 0x40 ADD PUSH1 0x40 MSTORE DUP1 PUSH1 0x1E DUP2 MSTORE PUSH1 0x20 ADD PUSH32 0x536166654D6174683A207375627472616374696F6E206F766572666C6F770000 DUP2 MSTORE POP PUSH2 0x3B54 JUMP JUMPDEST SWAP1 POP SWAP3 SWAP2 POP POP JUMP JUMPDEST PUSH1 0x0 DUP1 DUP3 DUP5 ADD SWAP1 POP DUP4 DUP2 LT ISZERO PUSH2 0x3A84 JUMPI PUSH1 0x40 MLOAD PUSH32 0x8C379A000000000000000000000000000000000000000000000000000000000 DUP2 MSTORE PUSH1 0x4 ADD DUP1 DUP1 PUSH1 0x20 ADD DUP3 DUP2 SUB DUP3 MSTORE PUSH1 0x1B DUP2 MSTORE PUSH1 0x20 ADD DUP1 PUSH32 0x536166654D6174683A206164646974696F6E206F766572666C6F770000000000 DUP2 MSTORE POP PUSH1 0x20 ADD SWAP2 POP POP PUSH1 0x40 MLOAD DUP1 SWAP2 SUB SWAP1 REVERT JUMPDEST DUP1 SWAP2 POP POP SWAP3 SWAP2 POP POP JUMP JUMPDEST PUSH1 0x0 DUP1 DUP4 GT DUP3 SWAP1 PUSH2 0x3B3A JUMPI PUSH1 0x40 MLOAD PUSH32 0x8C379A000000000000000000000000000000000000000000000000000000000 DUP2 MSTORE PUSH1 0x4 ADD DUP1 DUP1 PUSH1 0x20 ADD DUP3 DUP2 SUB DUP3 MSTORE DUP4 DUP2 DUP2 MLOAD DUP2 MSTORE PUSH1 0x20 ADD SWAP2 POP DUP1 MLOAD SWAP1 PUSH1 0x20 ADD SWAP1 DUP1 DUP4 DUP4 PUSH1 0x0 JUMPDEST DUP4 DUP2 LT ISZERO PUSH2 0x3AFF JUMPI DUP1 DUP3 ADD MLOAD DUP2 DUP5 ADD MSTORE PUSH1 0x20 DUP2 ADD SWAP1 POP PUSH2 0x3AE4 JUMP JUMPDEST POP POP POP POP SWAP1 POP SWAP1 DUP2 ADD SWAP1 PUSH1 0x1F AND DUP1 ISZERO PUSH2 0x3B2C JUMPI DUP1 DUP3 SUB DUP1 MLOAD PUSH1 0x1 DUP4 PUSH1 0x20 SUB PUSH2 0x100 EXP SUB NOT AND DUP2 MSTORE PUSH1 0x20 ADD SWAP2 POP JUMPDEST POP SWAP3 POP POP POP PUSH1 0x40 MLOAD DUP1 SWAP2 SUB SWAP1 REVERT JUMPDEST POP PUSH1 0x0 DUP4 DUP6 DUP2 PUSH2 0x3B46 JUMPI INVALID JUMPDEST DIV SWAP1 POP DUP1 SWAP2 POP POP SWAP4 SWAP3 POP POP POP JUMP JUMPDEST PUSH1 0x0 DUP4 DUP4 GT ISZERO DUP3 SWAP1 PUSH2 0x3C01 JUMPI PUSH1 0x40 MLOAD PUSH32 0x8C379A000000000000000000000000000000000000000000000000000000000 DUP2 MSTORE PUSH1 0x4 ADD DUP1 DUP1 PUSH1 0x20 ADD DUP3 DUP2 SUB DUP3 MSTORE DUP4 DUP2 DUP2 MLOAD DUP2 MSTORE PUSH1 0x20 ADD SWAP2 POP DUP1 MLOAD SWAP1 PUSH1 0x20 ADD SWAP1 DUP1 DUP4 DUP4 PUSH1 0x0 JUMPDEST DUP4 DUP2 LT ISZERO PUSH2 0x3BC6 JUMPI DUP1 DUP3 ADD MLOAD DUP2 DUP5 ADD MSTORE PUSH1 0x20 DUP2 ADD SWAP1 POP PUSH2 0x3BAB JUMP JUMPDEST POP POP POP POP SWAP1 POP SWAP1 DUP2 ADD SWAP1 PUSH1 0x1F AND DUP1 ISZERO PUSH2 0x3BF3 JUMPI DUP1 DUP3 SUB DUP1 MLOAD PUSH1 0x1 DUP4 PUSH1 0x20 SUB PUSH2 0x100 EXP SUB NOT AND DUP2 MSTORE PUSH1 0x20 ADD SWAP2 POP JUMPDEST POP SWAP3 POP POP POP PUSH1 0x40 MLOAD DUP1 SWAP2 SUB SWAP1 REVERT JUMPDEST POP PUSH1 0x0 DUP4 DUP6 SUB SWAP1 POP DUP1 SWAP2 POP POP SWAP4 SWAP3 POP POP POP JUMP INVALID MSTORE8 PUSH2 0x6665 0x4D PUSH2 0x7468 GASPRICE KECCAK256 PUSH14 0x756C7469706C69636174696F6E20 PUSH16 0x766572666C6F77496E766573746F7220 PUSH19 0x656163686564206D6178696D756D20496E7665 PUSH20 0x746D656E7420416D6F756E7449434F2048617264 PUSH4 0x6170206F PUSH19 0x2074696D656C696D6974206E6F742072656163 PUSH9 0x656449434F20616C72 PUSH6 0x616479205265 PUSH2 0x6368 PUSH6 0x64204D617869 PUSH14 0x756D2074696D65206C696D6974A2 PUSH5 0x6970667358 0x22 SLT KECCAK256 0xA6 0x4E 0xA8 0x4B 0xB6 CREATE SDIV 0x5C DUP15 0x2F SHL 0xCC 0xBD CREATE GASLIMIT 0x2D 0x4F 0xED SWAP8 0xE2 PUSH5 0x1ACA1D0528 0xD4 0xB6 0x25 0xD 0xDF 0xD3 PUSH5 0x736F6C6343 STOP MOD 0xC STOP CALLER "
				},
				"gasEstimates": {
					"creation": {
						"codeDepositCost": "3116600",
						"executionCost": "infinite",
						"totalCost": "infinite"
					},
					"external": {
						"": "288",
						"ICOState()": "1178",
						"ICOWallet()": "1114",
						"PERCENTS_DIVIDER()": "296",
						"PERCENT_STEP()": "295",
						"PROJECT_FEE()": "273",
						"REFERRAL_PERCENTS(uint256)": "2136",
						"TIME_STEP()": "317",
						"WITHDRAW_FEE()": "294",
						"admin()": "1135",
						"burn()": "infinite",
						"changeAdmin(address)": "22127",
						"changeICOWallet(address)": "22040",
						"commissionWallet()": "1114",
						"endIco()": "infinite",
						"getContractBalance()": "348",
						"getICOState()": "infinite",
						"getICOTokenBalance()": "infinite",
						"getPercent(uint8)": "infinite",
						"getPlanInfo(uint8)": "3832",
						"getResult(uint8,uint256)": "infinite",
						"getUserAmountOfDeposits(address)": "1255",
						"getUserAvailable(address)": "infinite",
						"getUserCheckpoint(address)": "1291",
						"getUserDepositInfo(address,uint256)": "10998",
						"getUserDividends(address)": "infinite",
						"getUserDownlineCount(address)": "3262",
						"getUserReferralBonus(address)": "1268",
						"getUserReferralTotalBonus(address)": "1248",
						"getUserReferralWithdrawn(address)": "infinite",
						"getUserReferrer(address)": "1378",
						"getUserTotalDeposits(address)": "infinite",
						"haltICO()": "22969",
						"hardCap()": "1115",
						"icoEndTime()": "1160",
						"icoStartTime()": "1160",
						"invest(address,uint8)": "infinite",
						"invest1()": "165",
						"investedAmountOf(address)": "1237",
						"investorBalanceOf(address)": "infinite",
						"maxInvestment()": "1052",
						"minInvestment()": "1139",
						"raisedAmount()": "1072",
						"resumeICO()": "22923",
						"startICO()": "63713",
						"startUNIX()": "1160",
						"token()": "1179",
						"tokenPrice()": "1095",
						"totalRefBonus()": "1094",
						"totalStaked()": "1117"
					},
					"internal": {
						"isContract(address)": "infinite"
					}
				},
				"methodIdentifiers": {
					"ICOState()": "aeecdc2c",
					"ICOWallet()": "ae764df3",
					"PERCENTS_DIVIDER()": "01c234a8",
					"PERCENT_STEP()": "57fc86b4",
					"PROJECT_FEE()": "48d44bd1",
					"REFERRAL_PERCENTS(uint256)": "600d20ce",
					"TIME_STEP()": "32bc298c",
					"WITHDRAW_FEE()": "9bff5ddb",
					"admin()": "f851a440",
					"burn()": "44df8e70",
					"changeAdmin(address)": "8f283970",
					"changeICOWallet(address)": "00f53e69",
					"commissionWallet()": "97c0262a",
					"endIco()": "e657807b",
					"getContractBalance()": "6f9fb98a",
					"getICOState()": "2e659d93",
					"getICOTokenBalance()": "6127b2ca",
					"getPercent(uint8)": "a51b9533",
					"getPlanInfo(uint8)": "aecaa634",
					"getResult(uint8,uint256)": "5936cf61",
					"getUserAmountOfDeposits(address)": "a8aeb6c2",
					"getUserAvailable(address)": "153ab9df",
					"getUserCheckpoint(address)": "d7ffca91",
					"getUserDepositInfo(address,uint256)": "c0806b03",
					"getUserDividends(address)": "040a772e",
					"getUserDownlineCount(address)": "03a93c0c",
					"getUserReferralBonus(address)": "e85abe09",
					"getUserReferralTotalBonus(address)": "48c37203",
					"getUserReferralWithdrawn(address)": "6bb18556",
					"getUserReferrer(address)": "36144c9a",
					"getUserTotalDeposits(address)": "7e3abeea",
					"haltICO()": "129caa18",
					"hardCap()": "fb86a404",
					"icoEndTime()": "7e1055b6",
					"icoStartTime()": "a7c3d71b",
					"invest(address,uint8)": "581c5ae6",
					"invest1()": "9641119e",
					"investedAmountOf(address)": "1aae3460",
					"investorBalanceOf(address)": "61fba37d",
					"maxInvestment()": "002e1316",
					"minInvestment()": "8ac2c680",
					"raisedAmount()": "c59ee1dc",
					"resumeICO()": "9cbd7da5",
					"startICO()": "7fa8c158",
					"startUNIX()": "c2341238",
					"token()": "fc0c546a",
					"tokenPrice()": "7ff9b596",
					"totalRefBonus()": "69b11dd5",
					"totalStaked()": "817b1cd2"
				}
			},
			"storageLayout": {
				"storage": [
					{
						"astId": 12,
						"contract": "ICO AFFILIATE/Copy_staker3lv.sol:MaticStaker",
						"label": "REFERRAL_PERCENTS",
						"offset": 0,
						"slot": "0",
						"type": "t_array(t_uint256)dyn_storage"
					},
					{
						"astId": 29,
						"contract": "ICO AFFILIATE/Copy_staker3lv.sol:MaticStaker",
						"label": "totalStaked",
						"offset": 0,
						"slot": "1",
						"type": "t_uint256"
					},
					{
						"astId": 31,
						"contract": "ICO AFFILIATE/Copy_staker3lv.sol:MaticStaker",
						"label": "totalRefBonus",
						"offset": 0,
						"slot": "2",
						"type": "t_uint256"
					},
					{
						"astId": 33,
						"contract": "ICO AFFILIATE/Copy_staker3lv.sol:MaticStaker",
						"label": "admin",
						"offset": 0,
						"slot": "3",
						"type": "t_address"
					},
					{
						"astId": 35,
						"contract": "ICO AFFILIATE/Copy_staker3lv.sol:MaticStaker",
						"label": "ICOWallet",
						"offset": 0,
						"slot": "4",
						"type": "t_address_payable"
					},
					{
						"astId": 37,
						"contract": "ICO AFFILIATE/Copy_staker3lv.sol:MaticStaker",
						"label": "token",
						"offset": 0,
						"slot": "5",
						"type": "t_contract(IERC20)2336"
					},
					{
						"astId": 40,
						"contract": "ICO AFFILIATE/Copy_staker3lv.sol:MaticStaker",
						"label": "tokenPrice",
						"offset": 0,
						"slot": "6",
						"type": "t_uint256"
					},
					{
						"astId": 43,
						"contract": "ICO AFFILIATE/Copy_staker3lv.sol:MaticStaker",
						"label": "hardCap",
						"offset": 0,
						"slot": "7",
						"type": "t_uint256"
					},
					{
						"astId": 45,
						"contract": "ICO AFFILIATE/Copy_staker3lv.sol:MaticStaker",
						"label": "raisedAmount",
						"offset": 0,
						"slot": "8",
						"type": "t_uint256"
					},
					{
						"astId": 48,
						"contract": "ICO AFFILIATE/Copy_staker3lv.sol:MaticStaker",
						"label": "minInvestment",
						"offset": 0,
						"slot": "9",
						"type": "t_uint256"
					},
					{
						"astId": 51,
						"contract": "ICO AFFILIATE/Copy_staker3lv.sol:MaticStaker",
						"label": "maxInvestment",
						"offset": 0,
						"slot": "10",
						"type": "t_uint256"
					},
					{
						"astId": 53,
						"contract": "ICO AFFILIATE/Copy_staker3lv.sol:MaticStaker",
						"label": "icoStartTime",
						"offset": 0,
						"slot": "11",
						"type": "t_uint256"
					},
					{
						"astId": 55,
						"contract": "ICO AFFILIATE/Copy_staker3lv.sol:MaticStaker",
						"label": "icoEndTime",
						"offset": 0,
						"slot": "12",
						"type": "t_uint256"
					},
					{
						"astId": 59,
						"contract": "ICO AFFILIATE/Copy_staker3lv.sol:MaticStaker",
						"label": "investedAmountOf",
						"offset": 0,
						"slot": "13",
						"type": "t_mapping(t_address,t_uint256)"
					},
					{
						"astId": 66,
						"contract": "ICO AFFILIATE/Copy_staker3lv.sol:MaticStaker",
						"label": "ICOState",
						"offset": 0,
						"slot": "14",
						"type": "t_enum(State)64"
					},
					{
						"astId": 92,
						"contract": "ICO AFFILIATE/Copy_staker3lv.sol:MaticStaker",
						"label": "plans",
						"offset": 0,
						"slot": "15",
						"type": "t_array(t_struct(Plan)89_storage)dyn_storage"
					},
					{
						"astId": 125,
						"contract": "ICO AFFILIATE/Copy_staker3lv.sol:MaticStaker",
						"label": "users",
						"offset": 0,
						"slot": "16",
						"type": "t_mapping(t_address,t_struct(User)121_storage)"
					},
					{
						"astId": 127,
						"contract": "ICO AFFILIATE/Copy_staker3lv.sol:MaticStaker",
						"label": "startUNIX",
						"offset": 0,
						"slot": "17",
						"type": "t_uint256"
					},
					{
						"astId": 129,
						"contract": "ICO AFFILIATE/Copy_staker3lv.sol:MaticStaker",
						"label": "commissionWallet",
						"offset": 0,
						"slot": "18",
						"type": "t_address_payable"
					}
				],
				"types": {
					"t_address": {
						"encoding": "inplace",
						"label": "address",
						"numberOfBytes": "20"
					},
					"t_address_payable": {
						"encoding": "inplace",
						"label": "address payable",
						"numberOfBytes": "20"
					},
					"t_array(t_struct(Deposit)105_storage)dyn_storage": {
						"base": "t_struct(Deposit)105_storage",
						"encoding": "dynamic_array",
						"label": "struct MaticStaker.Deposit[]",
						"numberOfBytes": "32"
					},
					"t_array(t_struct(Plan)89_storage)dyn_storage": {
						"base": "t_struct(Plan)89_storage",
						"encoding": "dynamic_array",
						"label": "struct MaticStaker.Plan[]",
						"numberOfBytes": "32"
					},
					"t_array(t_uint256)3_storage": {
						"base": "t_uint256",
						"encoding": "inplace",
						"label": "uint256[3]",
						"numberOfBytes": "96"
					},
					"t_array(t_uint256)dyn_storage": {
						"base": "t_uint256",
						"encoding": "dynamic_array",
						"label": "uint256[]",
						"numberOfBytes": "32"
					},
					"t_contract(IERC20)2336": {
						"encoding": "inplace",
						"label": "contract IERC20",
						"numberOfBytes": "20"
					},
					"t_enum(State)64": {
						"encoding": "inplace",
						"label": "enum MaticStaker.State",
						"numberOfBytes": "1"
					},
					"t_mapping(t_address,t_struct(User)121_storage)": {
						"encoding": "mapping",
						"key": "t_address",
						"label": "mapping(address => struct MaticStaker.User)",
						"numberOfBytes": "32",
						"value": "t_struct(User)121_storage"
					},
					"t_mapping(t_address,t_uint256)": {
						"encoding": "mapping",
						"key": "t_address",
						"label": "mapping(address => uint256)",
						"numberOfBytes": "32",
						"value": "t_uint256"
					},
					"t_struct(Deposit)105_storage": {
						"encoding": "inplace",
						"label": "struct MaticStaker.Deposit",
						"members": [
							{
								"astId": 94,
								"contract": "ICO AFFILIATE/Copy_staker3lv.sol:MaticStaker",
								"label": "plan",
								"offset": 0,
								"slot": "0",
								"type": "t_uint8"
							},
							{
								"astId": 96,
								"contract": "ICO AFFILIATE/Copy_staker3lv.sol:MaticStaker",
								"label": "percent",
								"offset": 0,
								"slot": "1",
								"type": "t_uint256"
							},
							{
								"astId": 98,
								"contract": "ICO AFFILIATE/Copy_staker3lv.sol:MaticStaker",
								"label": "amount",
								"offset": 0,
								"slot": "2",
								"type": "t_uint256"
							},
							{
								"astId": 100,
								"contract": "ICO AFFILIATE/Copy_staker3lv.sol:MaticStaker",
								"label": "profit",
								"offset": 0,
								"slot": "3",
								"type": "t_uint256"
							},
							{
								"astId": 102,
								"contract": "ICO AFFILIATE/Copy_staker3lv.sol:MaticStaker",
								"label": "start",
								"offset": 0,
								"slot": "4",
								"type": "t_uint256"
							},
							{
								"astId": 104,
								"contract": "ICO AFFILIATE/Copy_staker3lv.sol:MaticStaker",
								"label": "finish",
								"offset": 0,
								"slot": "5",
								"type": "t_uint256"
							}
						],
						"numberOfBytes": "192"
					},
					"t_struct(Plan)89_storage": {
						"encoding": "inplace",
						"label": "struct MaticStaker.Plan",
						"members": [
							{
								"astId": 86,
								"contract": "ICO AFFILIATE/Copy_staker3lv.sol:MaticStaker",
								"label": "time",
								"offset": 0,
								"slot": "0",
								"type": "t_uint256"
							},
							{
								"astId": 88,
								"contract": "ICO AFFILIATE/Copy_staker3lv.sol:MaticStaker",
								"label": "percent",
								"offset": 0,
								"slot": "1",
								"type": "t_uint256"
							}
						],
						"numberOfBytes": "64"
					},
					"t_struct(User)121_storage": {
						"encoding": "inplace",
						"label": "struct MaticStaker.User",
						"members": [
							{
								"astId": 108,
								"contract": "ICO AFFILIATE/Copy_staker3lv.sol:MaticStaker",
								"label": "deposits",
								"offset": 0,
								"slot": "0",
								"type": "t_array(t_struct(Deposit)105_storage)dyn_storage"
							},
							{
								"astId": 110,
								"contract": "ICO AFFILIATE/Copy_staker3lv.sol:MaticStaker",
								"label": "checkpoint",
								"offset": 0,
								"slot": "1",
								"type": "t_uint256"
							},
							{
								"astId": 112,
								"contract": "ICO AFFILIATE/Copy_staker3lv.sol:MaticStaker",
								"label": "referrer",
								"offset": 0,
								"slot": "2",
								"type": "t_address"
							},
							{
								"astId": 116,
								"contract": "ICO AFFILIATE/Copy_staker3lv.sol:MaticStaker",
								"label": "levels",
								"offset": 0,
								"slot": "3",
								"type": "t_array(t_uint256)3_storage"
							},
							{
								"astId": 118,
								"contract": "ICO AFFILIATE/Copy_staker3lv.sol:MaticStaker",
								"label": "bonus",
								"offset": 0,
								"slot": "6",
								"type": "t_uint256"
							},
							{
								"astId": 120,
								"contract": "ICO AFFILIATE/Copy_staker3lv.sol:MaticStaker",
								"label": "totalBonus",
								"offset": 0,
								"slot": "7",
								"type": "t_uint256"
							}
						],
						"numberOfBytes": "256"
					},
					"t_uint256": {
						"encoding": "inplace",
						"label": "uint256",
						"numberOfBytes": "32"
					},
					"t_uint8": {
						"encoding": "inplace",
						"label": "uint8",
						"numberOfBytes": "1"
					}
				}
			},
			"userdoc": {
				"kind": "user",
				"methods": {},
				"version": 1
			}
		}
	}
}