{
	"ICO AFFILIATE/ico3lv.sol": {
		"ico3lv": {
			"abi": [
				{
					"inputs": [
						{
							"internalType": "address payable",
							"name": "_icoWallet",
							"type": "address"
						},
						{
							"internalType": "address",
							"name": "_token",
							"type": "address"
						}
					],
					"stateMutability": "nonpayable",
					"type": "constructor"
				},
				{
					"anonymous": false,
					"inputs": [
						{
							"indexed": true,
							"internalType": "address",
							"name": "user",
							"type": "address"
						},
						{
							"indexed": false,
							"internalType": "uint256",
							"name": "totalAmount",
							"type": "uint256"
						}
					],
					"name": "FeePayed",
					"type": "event"
				},
				{
					"anonymous": false,
					"inputs": [
						{
							"indexed": true,
							"internalType": "address",
							"name": "from",
							"type": "address"
						},
						{
							"indexed": true,
							"internalType": "address",
							"name": "to",
							"type": "address"
						},
						{
							"indexed": false,
							"internalType": "uint256",
							"name": "value",
							"type": "uint256"
						},
						{
							"indexed": false,
							"internalType": "uint256",
							"name": "tokens",
							"type": "uint256"
						}
					],
					"name": "Invest",
					"type": "event"
				},
				{
					"anonymous": false,
					"inputs": [
						{
							"indexed": true,
							"internalType": "address",
							"name": "user",
							"type": "address"
						},
						{
							"indexed": false,
							"internalType": "uint8",
							"name": "plan",
							"type": "uint8"
						},
						{
							"indexed": false,
							"internalType": "uint256",
							"name": "percent",
							"type": "uint256"
						},
						{
							"indexed": false,
							"internalType": "uint256",
							"name": "amount",
							"type": "uint256"
						},
						{
							"indexed": false,
							"internalType": "uint256",
							"name": "profit",
							"type": "uint256"
						},
						{
							"indexed": false,
							"internalType": "uint256",
							"name": "start",
							"type": "uint256"
						},
						{
							"indexed": false,
							"internalType": "uint256",
							"name": "finish",
							"type": "uint256"
						}
					],
					"name": "NewDeposit",
					"type": "event"
				},
				{
					"anonymous": false,
					"inputs": [
						{
							"indexed": false,
							"internalType": "address",
							"name": "user",
							"type": "address"
						}
					],
					"name": "Newbie",
					"type": "event"
				},
				{
					"anonymous": false,
					"inputs": [
						{
							"indexed": true,
							"internalType": "address",
							"name": "referrer",
							"type": "address"
						},
						{
							"indexed": true,
							"internalType": "address",
							"name": "referral",
							"type": "address"
						},
						{
							"indexed": true,
							"internalType": "uint256",
							"name": "level",
							"type": "uint256"
						},
						{
							"indexed": false,
							"internalType": "uint256",
							"name": "amount",
							"type": "uint256"
						}
					],
					"name": "RefBonus",
					"type": "event"
				},
				{
					"anonymous": false,
					"inputs": [
						{
							"indexed": false,
							"internalType": "address",
							"name": "to",
							"type": "address"
						},
						{
							"indexed": false,
							"internalType": "uint256",
							"name": "amount",
							"type": "uint256"
						},
						{
							"indexed": false,
							"internalType": "uint256",
							"name": "time",
							"type": "uint256"
						}
					],
					"name": "TokenBurn",
					"type": "event"
				},
				{
					"anonymous": false,
					"inputs": [
						{
							"indexed": true,
							"internalType": "address",
							"name": "user",
							"type": "address"
						},
						{
							"indexed": false,
							"internalType": "uint256",
							"name": "amount",
							"type": "uint256"
						}
					],
					"name": "Withdrawn",
					"type": "event"
				},
				{
					"stateMutability": "payable",
					"type": "fallback"
				},
				{
					"inputs": [],
					"name": "ICOState",
					"outputs": [
						{
							"internalType": "enum ico3lv.State",
							"name": "",
							"type": "uint8"
						}
					],
					"stateMutability": "view",
					"type": "function"
				},
				{
					"inputs": [],
					"name": "ICOWallet",
					"outputs": [
						{
							"internalType": "address payable",
							"name": "",
							"type": "address"
						}
					],
					"stateMutability": "view",
					"type": "function"
				},
				{
					"inputs": [],
					"name": "PERCENTS_DIVIDER",
					"outputs": [
						{
							"internalType": "uint256",
							"name": "",
							"type": "uint256"
						}
					],
					"stateMutability": "view",
					"type": "function"
				},
				{
					"inputs": [],
					"name": "PERCENT_STEP",
					"outputs": [
						{
							"internalType": "uint256",
							"name": "",
							"type": "uint256"
						}
					],
					"stateMutability": "view",
					"type": "function"
				},
				{
					"inputs": [
						{
							"internalType": "uint256",
							"name": "",
							"type": "uint256"
						}
					],
					"name": "REFERRAL_PERCENTS",
					"outputs": [
						{
							"internalType": "uint256",
							"name": "",
							"type": "uint256"
						}
					],
					"stateMutability": "view",
					"type": "function"
				},
				{
					"inputs": [],
					"name": "TIME_STEP",
					"outputs": [
						{
							"internalType": "uint256",
							"name": "",
							"type": "uint256"
						}
					],
					"stateMutability": "view",
					"type": "function"
				},
				{
					"inputs": [],
					"name": "admin",
					"outputs": [
						{
							"internalType": "address",
							"name": "",
							"type": "address"
						}
					],
					"stateMutability": "view",
					"type": "function"
				},
				{
					"inputs": [],
					"name": "burn",
					"outputs": [
						{
							"internalType": "bool",
							"name": "",
							"type": "bool"
						}
					],
					"stateMutability": "nonpayable",
					"type": "function"
				},
				{
					"inputs": [
						{
							"internalType": "address",
							"name": "_newAdmin",
							"type": "address"
						}
					],
					"name": "changeAdmin",
					"outputs": [],
					"stateMutability": "nonpayable",
					"type": "function"
				},
				{
					"inputs": [
						{
							"internalType": "address payable",
							"name": "_newICOWallet",
							"type": "address"
						}
					],
					"name": "changeICOWallet",
					"outputs": [],
					"stateMutability": "nonpayable",
					"type": "function"
				},
				{
					"inputs": [],
					"name": "commissionWallet",
					"outputs": [
						{
							"internalType": "address payable",
							"name": "",
							"type": "address"
						}
					],
					"stateMutability": "view",
					"type": "function"
				},
				{
					"inputs": [],
					"name": "endIco",
					"outputs": [],
					"stateMutability": "nonpayable",
					"type": "function"
				},
				{
					"inputs": [],
					"name": "getContractBalance",
					"outputs": [
						{
							"internalType": "uint256",
							"name": "",
							"type": "uint256"
						}
					],
					"stateMutability": "view",
					"type": "function"
				},
				{
					"inputs": [],
					"name": "getICOState",
					"outputs": [
						{
							"internalType": "string",
							"name": "",
							"type": "string"
						}
					],
					"stateMutability": "view",
					"type": "function"
				},
				{
					"inputs": [],
					"name": "getICOTokenBalance",
					"outputs": [
						{
							"internalType": "uint256",
							"name": "",
							"type": "uint256"
						}
					],
					"stateMutability": "view",
					"type": "function"
				},
				{
					"inputs": [
						{
							"internalType": "uint8",
							"name": "plan",
							"type": "uint8"
						}
					],
					"name": "getPercent",
					"outputs": [
						{
							"internalType": "uint256",
							"name": "",
							"type": "uint256"
						}
					],
					"stateMutability": "view",
					"type": "function"
				},
				{
					"inputs": [
						{
							"internalType": "uint8",
							"name": "plan",
							"type": "uint8"
						}
					],
					"name": "getPlanInfo",
					"outputs": [
						{
							"internalType": "uint256",
							"name": "time",
							"type": "uint256"
						},
						{
							"internalType": "uint256",
							"name": "percent",
							"type": "uint256"
						}
					],
					"stateMutability": "view",
					"type": "function"
				},
				{
					"inputs": [
						{
							"internalType": "uint8",
							"name": "plan",
							"type": "uint8"
						},
						{
							"internalType": "uint256",
							"name": "deposit",
							"type": "uint256"
						}
					],
					"name": "getResult",
					"outputs": [
						{
							"internalType": "uint256",
							"name": "percent",
							"type": "uint256"
						},
						{
							"internalType": "uint256",
							"name": "profit",
							"type": "uint256"
						},
						{
							"internalType": "uint256",
							"name": "finish",
							"type": "uint256"
						}
					],
					"stateMutability": "view",
					"type": "function"
				},
				{
					"inputs": [
						{
							"internalType": "address",
							"name": "userAddress",
							"type": "address"
						}
					],
					"name": "getUserAmountOfDeposits",
					"outputs": [
						{
							"internalType": "uint256",
							"name": "",
							"type": "uint256"
						}
					],
					"stateMutability": "view",
					"type": "function"
				},
				{
					"inputs": [
						{
							"internalType": "address",
							"name": "userAddress",
							"type": "address"
						}
					],
					"name": "getUserAvailable",
					"outputs": [
						{
							"internalType": "uint256",
							"name": "",
							"type": "uint256"
						}
					],
					"stateMutability": "view",
					"type": "function"
				},
				{
					"inputs": [
						{
							"internalType": "address",
							"name": "userAddress",
							"type": "address"
						}
					],
					"name": "getUserCheckpoint",
					"outputs": [
						{
							"internalType": "uint256",
							"name": "",
							"type": "uint256"
						}
					],
					"stateMutability": "view",
					"type": "function"
				},
				{
					"inputs": [
						{
							"internalType": "address",
							"name": "userAddress",
							"type": "address"
						},
						{
							"internalType": "uint256",
							"name": "index",
							"type": "uint256"
						}
					],
					"name": "getUserDepositInfo",
					"outputs": [
						{
							"internalType": "uint8",
							"name": "plan",
							"type": "uint8"
						},
						{
							"internalType": "uint256",
							"name": "percent",
							"type": "uint256"
						},
						{
							"internalType": "uint256",
							"name": "amount",
							"type": "uint256"
						},
						{
							"internalType": "uint256",
							"name": "profit",
							"type": "uint256"
						},
						{
							"internalType": "uint256",
							"name": "start",
							"type": "uint256"
						},
						{
							"internalType": "uint256",
							"name": "finish",
							"type": "uint256"
						}
					],
					"stateMutability": "view",
					"type": "function"
				},
				{
					"inputs": [
						{
							"internalType": "address",
							"name": "userAddress",
							"type": "address"
						}
					],
					"name": "getUserDividends",
					"outputs": [
						{
							"internalType": "uint256",
							"name": "",
							"type": "uint256"
						}
					],
					"stateMutability": "view",
					"type": "function"
				},
				{
					"inputs": [
						{
							"internalType": "address",
							"name": "userAddress",
							"type": "address"
						}
					],
					"name": "getUserDownlineCount",
					"outputs": [
						{
							"internalType": "uint256",
							"name": "",
							"type": "uint256"
						},
						{
							"internalType": "uint256",
							"name": "",
							"type": "uint256"
						},
						{
							"internalType": "uint256",
							"name": "",
							"type": "uint256"
						}
					],
					"stateMutability": "view",
					"type": "function"
				},
				{
					"inputs": [
						{
							"internalType": "address",
							"name": "userAddress",
							"type": "address"
						}
					],
					"name": "getUserReferralBonus",
					"outputs": [
						{
							"internalType": "uint256",
							"name": "",
							"type": "uint256"
						}
					],
					"stateMutability": "view",
					"type": "function"
				},
				{
					"inputs": [
						{
							"internalType": "address",
							"name": "userAddress",
							"type": "address"
						}
					],
					"name": "getUserReferralTotalBonus",
					"outputs": [
						{
							"internalType": "uint256",
							"name": "",
							"type": "uint256"
						}
					],
					"stateMutability": "view",
					"type": "function"
				},
				{
					"inputs": [
						{
							"internalType": "address",
							"name": "userAddress",
							"type": "address"
						}
					],
					"name": "getUserReferralWithdrawn",
					"outputs": [
						{
							"internalType": "uint256",
							"name": "",
							"type": "uint256"
						}
					],
					"stateMutability": "view",
					"type": "function"
				},
				{
					"inputs": [
						{
							"internalType": "address",
							"name": "userAddress",
							"type": "address"
						}
					],
					"name": "getUserReferrer",
					"outputs": [
						{
							"internalType": "address",
							"name": "",
							"type": "address"
						}
					],
					"stateMutability": "view",
					"type": "function"
				},
				{
					"inputs": [
						{
							"internalType": "address",
							"name": "userAddress",
							"type": "address"
						}
					],
					"name": "getUserTotalDeposits",
					"outputs": [
						{
							"internalType": "uint256",
							"name": "amount",
							"type": "uint256"
						}
					],
					"stateMutability": "view",
					"type": "function"
				},
				{
					"inputs": [],
					"name": "haltICO",
					"outputs": [],
					"stateMutability": "nonpayable",
					"type": "function"
				},
				{
					"inputs": [],
					"name": "hardCap",
					"outputs": [
						{
							"internalType": "uint256",
							"name": "",
							"type": "uint256"
						}
					],
					"stateMutability": "view",
					"type": "function"
				},
				{
					"inputs": [],
					"name": "icoEndTime",
					"outputs": [
						{
							"internalType": "uint256",
							"name": "",
							"type": "uint256"
						}
					],
					"stateMutability": "view",
					"type": "function"
				},
				{
					"inputs": [],
					"name": "icoStartTime",
					"outputs": [
						{
							"internalType": "uint256",
							"name": "",
							"type": "uint256"
						}
					],
					"stateMutability": "view",
					"type": "function"
				},
				{
					"inputs": [
						{
							"internalType": "address",
							"name": "referrer",
							"type": "address"
						}
					],
					"name": "invest",
					"outputs": [
						{
							"internalType": "bool",
							"name": "",
							"type": "bool"
						}
					],
					"stateMutability": "payable",
					"type": "function"
				},
				{
					"inputs": [],
					"name": "invest1",
					"outputs": [],
					"stateMutability": "payable",
					"type": "function"
				},
				{
					"inputs": [
						{
							"internalType": "address",
							"name": "",
							"type": "address"
						}
					],
					"name": "investedAmountOf",
					"outputs": [
						{
							"internalType": "uint256",
							"name": "",
							"type": "uint256"
						}
					],
					"stateMutability": "view",
					"type": "function"
				},
				{
					"inputs": [
						{
							"internalType": "address",
							"name": "_investor",
							"type": "address"
						}
					],
					"name": "investorBalanceOf",
					"outputs": [
						{
							"internalType": "uint256",
							"name": "",
							"type": "uint256"
						}
					],
					"stateMutability": "view",
					"type": "function"
				},
				{
					"inputs": [],
					"name": "maxInvestment",
					"outputs": [
						{
							"internalType": "uint256",
							"name": "",
							"type": "uint256"
						}
					],
					"stateMutability": "view",
					"type": "function"
				},
				{
					"inputs": [],
					"name": "minInvestment",
					"outputs": [
						{
							"internalType": "uint256",
							"name": "",
							"type": "uint256"
						}
					],
					"stateMutability": "view",
					"type": "function"
				},
				{
					"inputs": [],
					"name": "raisedAmount",
					"outputs": [
						{
							"internalType": "uint256",
							"name": "",
							"type": "uint256"
						}
					],
					"stateMutability": "view",
					"type": "function"
				},
				{
					"inputs": [],
					"name": "resumeICO",
					"outputs": [],
					"stateMutability": "nonpayable",
					"type": "function"
				},
				{
					"inputs": [],
					"name": "startICO",
					"outputs": [],
					"stateMutability": "nonpayable",
					"type": "function"
				},
				{
					"inputs": [],
					"name": "startUNIX",
					"outputs": [
						{
							"internalType": "uint256",
							"name": "",
							"type": "uint256"
						}
					],
					"stateMutability": "view",
					"type": "function"
				},
				{
					"inputs": [],
					"name": "token",
					"outputs": [
						{
							"internalType": "contract IERC20",
							"name": "",
							"type": "address"
						}
					],
					"stateMutability": "view",
					"type": "function"
				},
				{
					"inputs": [],
					"name": "tokenPrice",
					"outputs": [
						{
							"internalType": "uint256",
							"name": "",
							"type": "uint256"
						}
					],
					"stateMutability": "view",
					"type": "function"
				},
				{
					"inputs": [],
					"name": "totalRefBonus",
					"outputs": [
						{
							"internalType": "uint256",
							"name": "",
							"type": "uint256"
						}
					],
					"stateMutability": "view",
					"type": "function"
				},
				{
					"inputs": [],
					"name": "totalStaked",
					"outputs": [
						{
							"internalType": "uint256",
							"name": "",
							"type": "uint256"
						}
					],
					"stateMutability": "view",
					"type": "function"
				},
				{
					"stateMutability": "payable",
					"type": "receive"
				}
			],
			"devdoc": {
				"kind": "dev",
				"methods": {},
				"version": 1
			},
			"evm": {
				"assembly": "    /* \"ICO AFFILIATE/ico3lv.sol\":1437:14377  contract ico3lv {... */\n  mstore(0x40, 0x80)\n    /* \"ICO AFFILIATE/ico3lv.sol\":1486:1534  uint256[] public REFERRAL_PERCENTS = [50, 25, 5] */\n  mload(0x40)\n  dup1\n  0x60\n  add\n  0x40\n  mstore\n  dup1\n    /* \"ICO AFFILIATE/ico3lv.sol\":1524:1526  50 */\n  0x32\n    /* \"ICO AFFILIATE/ico3lv.sol\":1486:1534  uint256[] public REFERRAL_PERCENTS = [50, 25, 5] */\n  0xff\n  and\n  dup2\n  mstore\n  0x20\n  add\n    /* \"ICO AFFILIATE/ico3lv.sol\":1528:1530  25 */\n  0x19\n    /* \"ICO AFFILIATE/ico3lv.sol\":1486:1534  uint256[] public REFERRAL_PERCENTS = [50, 25, 5] */\n  0xff\n  and\n  dup2\n  mstore\n  0x20\n  add\n    /* \"ICO AFFILIATE/ico3lv.sol\":1532:1533  5 */\n  0x05\n    /* \"ICO AFFILIATE/ico3lv.sol\":1486:1534  uint256[] public REFERRAL_PERCENTS = [50, 25, 5] */\n  0xff\n  and\n  dup2\n  mstore\n  pop\n  0x00\n  swap1\n  0x03\n  tag_1\n  swap3\n  swap2\n  swap1\n  tag_2\n  jump\t// in\ntag_1:\n  pop\n    /* \"ICO AFFILIATE/ico3lv.sol\":1994:2006  0.0001 ether */\n  0x5af3107a4000\n    /* \"ICO AFFILIATE/ico3lv.sol\":1969:2006  uint public tokenPrice = 0.0001 ether */\n  0x06\n  sstore\n    /* \"ICO AFFILIATE/ico3lv.sol\":2034:2043  500 ether */\n  0x1b1ae4d6e2ef500000\n    /* \"ICO AFFILIATE/ico3lv.sol\":2012:2043  uint public hardCap = 500 ether */\n  0x07\n  sstore\n    /* \"ICO AFFILIATE/ico3lv.sol\":2107:2118  0.001 ether */\n  0x038d7ea4c68000\n    /* \"ICO AFFILIATE/ico3lv.sol\":2079:2118  uint public minInvestment = 0.001 ether */\n  0x09\n  sstore\n    /* \"ICO AFFILIATE/ico3lv.sol\":2152:2159  3 ether */\n  0x29a2241af62c0000\n    /* \"ICO AFFILIATE/ico3lv.sol\":2124:2159  uint public maxInvestment = 3 ether */\n  0x0a\n  sstore\n    /* \"ICO AFFILIATE/ico3lv.sol\":3498:3942  constructor(address payable _icoWallet, address _token) public {... */\n  callvalue\n  dup1\n  iszero\n  tag_3\n  jumpi\n  0x00\n  dup1\n  revert\ntag_3:\n  pop\n  mload(0x40)\n  sub(codesize, bytecodeSize)\n  dup1\n  bytecodeSize\n  dup4\n  codecopy\n  dup2\n  dup2\n  add\n  0x40\n  mstore\n  0x40\n  dup2\n  lt\n  iszero\n  tag_4\n  jumpi\n  0x00\n  dup1\n  revert\ntag_4:\n  dup2\n  add\n  swap1\n  dup1\n  dup1\n  mload\n  swap1\n  0x20\n  add\n  swap1\n  swap3\n  swap2\n  swap1\n  dup1\n  mload\n  swap1\n  0x20\n  add\n  swap1\n  swap3\n  swap2\n  swap1\n  pop\n  pop\n  pop\n    /* \"ICO AFFILIATE/ico3lv.sol\":3574:3596  isContract(_icoWallet) */\n  tag_7\n    /* \"ICO AFFILIATE/ico3lv.sol\":3585:3595  _icoWallet */\n  dup3\n    /* \"ICO AFFILIATE/ico3lv.sol\":3574:3584  isContract */\n  shl(0x20, tag_8)\n    /* \"ICO AFFILIATE/ico3lv.sol\":3574:3596  isContract(_icoWallet) */\n  0x20\n  shr\n  jump\t// in\ntag_7:\n    /* \"ICO AFFILIATE/ico3lv.sol\":3573:3596  !isContract(_icoWallet) */\n  iszero\n    /* \"ICO AFFILIATE/ico3lv.sol\":3565:3597  require(!isContract(_icoWallet)) */\n  tag_9\n  jumpi\n  0x00\n  dup1\n  revert\ntag_9:\n    /* \"ICO AFFILIATE/ico3lv.sol\":3639:3649  msg.sender */\n  caller\n    /* \"ICO AFFILIATE/ico3lv.sol\":3631:3636  admin */\n  0x03\n  0x00\n    /* \"ICO AFFILIATE/ico3lv.sol\":3631:3649  admin = msg.sender */\n  0x0100\n  exp\n  dup2\n  sload\n  dup2\n  0xffffffffffffffffffffffffffffffffffffffff\n  mul\n  not\n  and\n  swap1\n  dup4\n  0xffffffffffffffffffffffffffffffffffffffff\n  and\n  mul\n  or\n  swap1\n  sstore\n  pop\n    /* \"ICO AFFILIATE/ico3lv.sol\":3671:3681  _icoWallet */\n  dup2\n    /* \"ICO AFFILIATE/ico3lv.sol\":3659:3668  ICOWallet */\n  0x04\n  0x00\n    /* \"ICO AFFILIATE/ico3lv.sol\":3659:3681  ICOWallet = _icoWallet */\n  0x0100\n  exp\n  dup2\n  sload\n  dup2\n  0xffffffffffffffffffffffffffffffffffffffff\n  mul\n  not\n  and\n  swap1\n  dup4\n  0xffffffffffffffffffffffffffffffffffffffff\n  and\n  mul\n  or\n  swap1\n  sstore\n  pop\n    /* \"ICO AFFILIATE/ico3lv.sol\":3706:3712  _token */\n  dup1\n    /* \"ICO AFFILIATE/ico3lv.sol\":3691:3696  token */\n  0x05\n  0x00\n    /* \"ICO AFFILIATE/ico3lv.sol\":3691:3713  token = IERC20(_token) */\n  0x0100\n  exp\n  dup2\n  sload\n  dup2\n  0xffffffffffffffffffffffffffffffffffffffff\n  mul\n  not\n  and\n  swap1\n  dup4\n  0xffffffffffffffffffffffffffffffffffffffff\n  and\n  mul\n  or\n  swap1\n  sstore\n  pop\n    /* \"ICO AFFILIATE/ico3lv.sol\":3730:3731  1 */\n  0x01\n    /* \"ICO AFFILIATE/ico3lv.sol\":3718:3727  startUNIX */\n  0x11\n    /* \"ICO AFFILIATE/ico3lv.sol\":3718:3731  startUNIX = 1 */\n  dup2\n  swap1\n  sstore\n  pop\n    /* \"ICO AFFILIATE/ico3lv.sol\":3744:3749  plans */\n  0x0f\n    /* \"ICO AFFILIATE/ico3lv.sol\":3755:3767  Plan(14, 80) */\n  mload(0x40)\n  dup1\n  0x40\n  add\n  0x40\n  mstore\n  dup1\n    /* \"ICO AFFILIATE/ico3lv.sol\":3760:3762  14 */\n  0x0e\n    /* \"ICO AFFILIATE/ico3lv.sol\":3755:3767  Plan(14, 80) */\n  dup2\n  mstore\n  0x20\n  add\n    /* \"ICO AFFILIATE/ico3lv.sol\":3764:3766  80 */\n  0x50\n    /* \"ICO AFFILIATE/ico3lv.sol\":3755:3767  Plan(14, 80) */\n  dup2\n  mstore\n  pop\n    /* \"ICO AFFILIATE/ico3lv.sol\":3744:3768  plans.push(Plan(14, 80)) */\n  swap1\n  dup1\n  0x01\n  dup2\n  sload\n  add\n  dup1\n  dup3\n  sstore\n  dup1\n  swap2\n  pop\n  pop\n  0x01\n  swap1\n  sub\n  swap1\n  0x00\n  mstore\n  keccak256(0x00, 0x20)\n  swap1\n  0x02\n  mul\n  add\n  0x00\n  swap1\n  swap2\n  swap1\n  swap2\n  swap1\n  swap2\n  pop\n  0x00\n  dup3\n  add\n  mload\n  dup2\n  0x00\n  add\n  sstore\n  0x20\n  dup3\n  add\n  mload\n  dup2\n  0x01\n  add\n  sstore\n  pop\n  pop\n    /* \"ICO AFFILIATE/ico3lv.sol\":3778:3783  plans */\n  0x0f\n    /* \"ICO AFFILIATE/ico3lv.sol\":3789:3801  Plan(21, 65) */\n  mload(0x40)\n  dup1\n  0x40\n  add\n  0x40\n  mstore\n  dup1\n    /* \"ICO AFFILIATE/ico3lv.sol\":3794:3796  21 */\n  0x15\n    /* \"ICO AFFILIATE/ico3lv.sol\":3789:3801  Plan(21, 65) */\n  dup2\n  mstore\n  0x20\n  add\n    /* \"ICO AFFILIATE/ico3lv.sol\":3798:3800  65 */\n  0x41\n    /* \"ICO AFFILIATE/ico3lv.sol\":3789:3801  Plan(21, 65) */\n  dup2\n  mstore\n  pop\n    /* \"ICO AFFILIATE/ico3lv.sol\":3778:3802  plans.push(Plan(21, 65)) */\n  swap1\n  dup1\n  0x01\n  dup2\n  sload\n  add\n  dup1\n  dup3\n  sstore\n  dup1\n  swap2\n  pop\n  pop\n  0x01\n  swap1\n  sub\n  swap1\n  0x00\n  mstore\n  keccak256(0x00, 0x20)\n  swap1\n  0x02\n  mul\n  add\n  0x00\n  swap1\n  swap2\n  swap1\n  swap2\n  swap1\n  swap2\n  pop\n  0x00\n  dup3\n  add\n  mload\n  dup2\n  0x00\n  add\n  sstore\n  0x20\n  dup3\n  add\n  mload\n  dup2\n  0x01\n  add\n  sstore\n  pop\n  pop\n    /* \"ICO AFFILIATE/ico3lv.sol\":3812:3817  plans */\n  0x0f\n    /* \"ICO AFFILIATE/ico3lv.sol\":3823:3835  Plan(28, 50) */\n  mload(0x40)\n  dup1\n  0x40\n  add\n  0x40\n  mstore\n  dup1\n    /* \"ICO AFFILIATE/ico3lv.sol\":3828:3830  28 */\n  0x1c\n    /* \"ICO AFFILIATE/ico3lv.sol\":3823:3835  Plan(28, 50) */\n  dup2\n  mstore\n  0x20\n  add\n    /* \"ICO AFFILIATE/ico3lv.sol\":3832:3834  50 */\n  0x32\n    /* \"ICO AFFILIATE/ico3lv.sol\":3823:3835  Plan(28, 50) */\n  dup2\n  mstore\n  pop\n    /* \"ICO AFFILIATE/ico3lv.sol\":3812:3836  plans.push(Plan(28, 50)) */\n  swap1\n  dup1\n  0x01\n  dup2\n  sload\n  add\n  dup1\n  dup3\n  sstore\n  dup1\n  swap2\n  pop\n  pop\n  0x01\n  swap1\n  sub\n  swap1\n  0x00\n  mstore\n  keccak256(0x00, 0x20)\n  swap1\n  0x02\n  mul\n  add\n  0x00\n  swap1\n  swap2\n  swap1\n  swap2\n  swap1\n  swap2\n  pop\n  0x00\n  dup3\n  add\n  mload\n  dup2\n  0x00\n  add\n  sstore\n  0x20\n  dup3\n  add\n  mload\n  dup2\n  0x01\n  add\n  sstore\n  pop\n  pop\n    /* \"ICO AFFILIATE/ico3lv.sol\":3846:3851  plans */\n  0x0f\n    /* \"ICO AFFILIATE/ico3lv.sol\":3857:3869  Plan(14, 80) */\n  mload(0x40)\n  dup1\n  0x40\n  add\n  0x40\n  mstore\n  dup1\n    /* \"ICO AFFILIATE/ico3lv.sol\":3862:3864  14 */\n  0x0e\n    /* \"ICO AFFILIATE/ico3lv.sol\":3857:3869  Plan(14, 80) */\n  dup2\n  mstore\n  0x20\n  add\n    /* \"ICO AFFILIATE/ico3lv.sol\":3866:3868  80 */\n  0x50\n    /* \"ICO AFFILIATE/ico3lv.sol\":3857:3869  Plan(14, 80) */\n  dup2\n  mstore\n  pop\n    /* \"ICO AFFILIATE/ico3lv.sol\":3846:3870  plans.push(Plan(14, 80)) */\n  swap1\n  dup1\n  0x01\n  dup2\n  sload\n  add\n  dup1\n  dup3\n  sstore\n  dup1\n  swap2\n  pop\n  pop\n  0x01\n  swap1\n  sub\n  swap1\n  0x00\n  mstore\n  keccak256(0x00, 0x20)\n  swap1\n  0x02\n  mul\n  add\n  0x00\n  swap1\n  swap2\n  swap1\n  swap2\n  swap1\n  swap2\n  pop\n  0x00\n  dup3\n  add\n  mload\n  dup2\n  0x00\n  add\n  sstore\n  0x20\n  dup3\n  add\n  mload\n  dup2\n  0x01\n  add\n  sstore\n  pop\n  pop\n    /* \"ICO AFFILIATE/ico3lv.sol\":3880:3885  plans */\n  0x0f\n    /* \"ICO AFFILIATE/ico3lv.sol\":3891:3903  Plan(21, 65) */\n  mload(0x40)\n  dup1\n  0x40\n  add\n  0x40\n  mstore\n  dup1\n    /* \"ICO AFFILIATE/ico3lv.sol\":3896:3898  21 */\n  0x15\n    /* \"ICO AFFILIATE/ico3lv.sol\":3891:3903  Plan(21, 65) */\n  dup2\n  mstore\n  0x20\n  add\n    /* \"ICO AFFILIATE/ico3lv.sol\":3900:3902  65 */\n  0x41\n    /* \"ICO AFFILIATE/ico3lv.sol\":3891:3903  Plan(21, 65) */\n  dup2\n  mstore\n  pop\n    /* \"ICO AFFILIATE/ico3lv.sol\":3880:3904  plans.push(Plan(21, 65)) */\n  swap1\n  dup1\n  0x01\n  dup2\n  sload\n  add\n  dup1\n  dup3\n  sstore\n  dup1\n  swap2\n  pop\n  pop\n  0x01\n  swap1\n  sub\n  swap1\n  0x00\n  mstore\n  keccak256(0x00, 0x20)\n  swap1\n  0x02\n  mul\n  add\n  0x00\n  swap1\n  swap2\n  swap1\n  swap2\n  swap1\n  swap2\n  pop\n  0x00\n  dup3\n  add\n  mload\n  dup2\n  0x00\n  add\n  sstore\n  0x20\n  dup3\n  add\n  mload\n  dup2\n  0x01\n  add\n  sstore\n  pop\n  pop\n    /* \"ICO AFFILIATE/ico3lv.sol\":3914:3919  plans */\n  0x0f\n    /* \"ICO AFFILIATE/ico3lv.sol\":3925:3937  Plan(28, 50) */\n  mload(0x40)\n  dup1\n  0x40\n  add\n  0x40\n  mstore\n  dup1\n    /* \"ICO AFFILIATE/ico3lv.sol\":3930:3932  28 */\n  0x1c\n    /* \"ICO AFFILIATE/ico3lv.sol\":3925:3937  Plan(28, 50) */\n  dup2\n  mstore\n  0x20\n  add\n    /* \"ICO AFFILIATE/ico3lv.sol\":3934:3936  50 */\n  0x32\n    /* \"ICO AFFILIATE/ico3lv.sol\":3925:3937  Plan(28, 50) */\n  dup2\n  mstore\n  pop\n    /* \"ICO AFFILIATE/ico3lv.sol\":3914:3938  plans.push(Plan(28, 50)) */\n  swap1\n  dup1\n  0x01\n  dup2\n  sload\n  add\n  dup1\n  dup3\n  sstore\n  dup1\n  swap2\n  pop\n  pop\n  0x01\n  swap1\n  sub\n  swap1\n  0x00\n  mstore\n  keccak256(0x00, 0x20)\n  swap1\n  0x02\n  mul\n  add\n  0x00\n  swap1\n  swap2\n  swap1\n  swap2\n  swap1\n  swap2\n  pop\n  0x00\n  dup3\n  add\n  mload\n  dup2\n  0x00\n  add\n  sstore\n  0x20\n  dup3\n  add\n  mload\n  dup2\n  0x01\n  add\n  sstore\n  pop\n  pop\n    /* \"ICO AFFILIATE/ico3lv.sol\":3498:3942  constructor(address payable _icoWallet, address _token) public {... */\n  pop\n  pop\n    /* \"ICO AFFILIATE/ico3lv.sol\":1437:14377  contract ico3lv {... */\n  jump(tag_16)\n    /* \"ICO AFFILIATE/ico3lv.sol\":13110:13271  function isContract(address addr) internal view returns (bool) {... */\ntag_8:\n    /* \"ICO AFFILIATE/ico3lv.sol\":13167:13171  bool */\n  0x00\n    /* \"ICO AFFILIATE/ico3lv.sol\":13183:13192  uint size */\n  dup1\n    /* \"ICO AFFILIATE/ico3lv.sol\":13233:13237  addr */\n  dup3\n    /* \"ICO AFFILIATE/ico3lv.sol\":13221:13238  extcodesize(addr) */\n  extcodesize\n    /* \"ICO AFFILIATE/ico3lv.sol\":13213:13238  size := extcodesize(addr) */\n  swap1\n  pop\n    /* \"ICO AFFILIATE/ico3lv.sol\":13263:13264  0 */\n  0x00\n    /* \"ICO AFFILIATE/ico3lv.sol\":13256:13260  size */\n  dup2\n    /* \"ICO AFFILIATE/ico3lv.sol\":13256:13264  size > 0 */\n  gt\n    /* \"ICO AFFILIATE/ico3lv.sol\":13249:13264  return size > 0 */\n  swap2\n  pop\n  pop\n    /* \"ICO AFFILIATE/ico3lv.sol\":13110:13271  function isContract(address addr) internal view returns (bool) {... */\n  swap2\n  swap1\n  pop\n  jump\t// out\n    /* \"ICO AFFILIATE/ico3lv.sol\":1437:14377  contract ico3lv {... */\ntag_2:\n  dup3\n  dup1\n  sload\n  dup3\n  dup3\n  sstore\n  swap1\n  0x00\n  mstore\n  keccak256(0x00, 0x20)\n  swap1\n  dup2\n  add\n  swap3\n  dup3\n  iszero\n  tag_18\n  jumpi\n  swap2\n  0x20\n  mul\n  dup3\n  add\ntag_19:\n  dup3\n  dup2\n  gt\n  iszero\n  tag_20\n  jumpi\n  dup3\n  mload\n  dup3\n  swap1\n  0xff\n  and\n  swap1\n  sstore\n  swap2\n  0x20\n  add\n  swap2\n  swap1\n  0x01\n  add\n  swap1\n  jump(tag_19)\ntag_20:\ntag_18:\n  pop\n  swap1\n  pop\n  tag_21\n  swap2\n  swap1\n  tag_22\n  jump\t// in\ntag_21:\n  pop\n  swap1\n  jump\t// out\ntag_22:\ntag_23:\n  dup1\n  dup3\n  gt\n  iszero\n  tag_24\n  jumpi\n  0x00\n  dup2\n  0x00\n  swap1\n  sstore\n  pop\n  0x01\n  add\n  jump(tag_23)\ntag_24:\n  pop\n  swap1\n  jump\t// out\ntag_16:\n  dataSize(sub_0)\n  dup1\n  dataOffset(sub_0)\n  0x00\n  codecopy\n  0x00\n  return\nstop\n\nsub_0: assembly {\n        /* \"ICO AFFILIATE/ico3lv.sol\":1437:14377  contract ico3lv {... */\n      mstore(0x40, 0x80)\n      jumpi(tag_1, lt(calldatasize, 0x04))\n      shr(0xe0, calldataload(0x00))\n      dup1\n      0x7e3abeea\n      gt\n      tag_50\n      jumpi\n      dup1\n      0xae764df3\n      gt\n      tag_51\n      jumpi\n      dup1\n      0xd7ffca91\n      gt\n      tag_52\n      jumpi\n      dup1\n      0xd7ffca91\n      eq\n      tag_44\n      jumpi\n      dup1\n      0xe657807b\n      eq\n      tag_45\n      jumpi\n      dup1\n      0xe85abe09\n      eq\n      tag_46\n      jumpi\n      dup1\n      0xf851a440\n      eq\n      tag_47\n      jumpi\n      dup1\n      0xfb86a404\n      eq\n      tag_48\n      jumpi\n      dup1\n      0xfc0c546a\n      eq\n      tag_49\n      jumpi\n      jump(tag_2)\n    tag_52:\n      dup1\n      0xae764df3\n      eq\n      tag_38\n      jumpi\n      dup1\n      0xaecaa634\n      eq\n      tag_39\n      jumpi\n      dup1\n      0xaeecdc2c\n      eq\n      tag_40\n      jumpi\n      dup1\n      0xc0806b03\n      eq\n      tag_41\n      jumpi\n      dup1\n      0xc2341238\n      eq\n      tag_42\n      jumpi\n      dup1\n      0xc59ee1dc\n      eq\n      tag_43\n      jumpi\n      jump(tag_2)\n    tag_51:\n      dup1\n      0x9641119e\n      gt\n      tag_53\n      jumpi\n      dup1\n      0x9641119e\n      eq\n      tag_32\n      jumpi\n      dup1\n      0x97c0262a\n      eq\n      tag_33\n      jumpi\n      dup1\n      0x9cbd7da5\n      eq\n      tag_34\n      jumpi\n      dup1\n      0xa51b9533\n      eq\n      tag_35\n      jumpi\n      dup1\n      0xa7c3d71b\n      eq\n      tag_36\n      jumpi\n      dup1\n      0xa8aeb6c2\n      eq\n      tag_37\n      jumpi\n      jump(tag_2)\n    tag_53:\n      dup1\n      0x7e3abeea\n      eq\n      tag_26\n      jumpi\n      dup1\n      0x7fa8c158\n      eq\n      tag_27\n      jumpi\n      dup1\n      0x7ff9b596\n      eq\n      tag_28\n      jumpi\n      dup1\n      0x817b1cd2\n      eq\n      tag_29\n      jumpi\n      dup1\n      0x8ac2c680\n      eq\n      tag_30\n      jumpi\n      dup1\n      0x8f283970\n      eq\n      tag_31\n      jumpi\n      jump(tag_2)\n    tag_50:\n      dup1\n      0x36144c9a\n      gt\n      tag_54\n      jumpi\n      dup1\n      0x6127b2ca\n      gt\n      tag_55\n      jumpi\n      dup1\n      0x6127b2ca\n      eq\n      tag_20\n      jumpi\n      dup1\n      0x61fba37d\n      eq\n      tag_21\n      jumpi\n      dup1\n      0x69b11dd5\n      eq\n      tag_22\n      jumpi\n      dup1\n      0x6bb18556\n      eq\n      tag_23\n      jumpi\n      dup1\n      0x6f9fb98a\n      eq\n      tag_24\n      jumpi\n      dup1\n      0x7e1055b6\n      eq\n      tag_25\n      jumpi\n      jump(tag_2)\n    tag_55:\n      dup1\n      0x36144c9a\n      eq\n      tag_14\n      jumpi\n      dup1\n      0x44df8e70\n      eq\n      tag_15\n      jumpi\n      dup1\n      0x48c37203\n      eq\n      tag_16\n      jumpi\n      dup1\n      0x57fc86b4\n      eq\n      tag_17\n      jumpi\n      dup1\n      0x5936cf61\n      eq\n      tag_18\n      jumpi\n      dup1\n      0x600d20ce\n      eq\n      tag_19\n      jumpi\n      jump(tag_2)\n    tag_54:\n      dup1\n      0x040a772e\n      gt\n      tag_56\n      jumpi\n      dup1\n      0x040a772e\n      eq\n      tag_8\n      jumpi\n      dup1\n      0x129caa18\n      eq\n      tag_9\n      jumpi\n      dup1\n      0x153ab9df\n      eq\n      tag_10\n      jumpi\n      dup1\n      0x1aae3460\n      eq\n      tag_11\n      jumpi\n      dup1\n      0x2e659d93\n      eq\n      tag_12\n      jumpi\n      dup1\n      0x32bc298c\n      eq\n      tag_13\n      jumpi\n      jump(tag_2)\n    tag_56:\n      dup1\n      0x2e1316\n      eq\n      tag_3\n      jumpi\n      dup1\n      0xf53e69\n      eq\n      tag_4\n      jumpi\n      dup1\n      0x01c234a8\n      eq\n      tag_5\n      jumpi\n      dup1\n      0x03a93c0c\n      eq\n      tag_6\n      jumpi\n      dup1\n      0x03f9c793\n      eq\n      tag_7\n      jumpi\n      jump(tag_2)\n    tag_1:\n      jumpi(tag_2, calldatasize)\n        /* \"ICO AFFILIATE/ico3lv.sol\":4142:4151  invest1() */\n      tag_59\n        /* \"ICO AFFILIATE/ico3lv.sol\":4142:4149  invest1 */\n      tag_60\n        /* \"ICO AFFILIATE/ico3lv.sol\":4142:4151  invest1() */\n      jump\t// in\n    tag_59:\n        /* \"ICO AFFILIATE/ico3lv.sol\":1437:14377  contract ico3lv {... */\n      stop\n    tag_2:\n        /* \"ICO AFFILIATE/ico3lv.sol\":4202:4211  invest1() */\n      tag_63\n        /* \"ICO AFFILIATE/ico3lv.sol\":4202:4209  invest1 */\n      tag_60\n        /* \"ICO AFFILIATE/ico3lv.sol\":4202:4211  invest1() */\n      jump\t// in\n    tag_63:\n        /* \"ICO AFFILIATE/ico3lv.sol\":1437:14377  contract ico3lv {... */\n      stop\n        /* \"ICO AFFILIATE/ico3lv.sol\":2124:2159  uint public maxInvestment = 3 ether */\n    tag_3:\n      callvalue\n      dup1\n      iszero\n      tag_64\n      jumpi\n      0x00\n      dup1\n      revert\n    tag_64:\n      pop\n      tag_65\n      tag_66\n      jump\t// in\n    tag_65:\n      mload(0x40)\n      dup1\n      dup3\n      dup2\n      mstore\n      0x20\n      add\n      swap2\n      pop\n      pop\n      mload(0x40)\n      dup1\n      swap2\n      sub\n      swap1\n      return\n        /* \"ICO AFFILIATE/ico3lv.sol\":5261:5378  function changeICOWallet(address payable _newICOWallet) external onlyAdmin {... */\n    tag_4:\n      callvalue\n      dup1\n      iszero\n      tag_67\n      jumpi\n      0x00\n      dup1\n      revert\n    tag_67:\n      pop\n      tag_68\n      0x04\n      dup1\n      calldatasize\n      sub\n      0x20\n      dup2\n      lt\n      iszero\n      tag_69\n      jumpi\n      0x00\n      dup1\n      revert\n    tag_69:\n      dup2\n      add\n      swap1\n      dup1\n      dup1\n      calldataload\n      0xffffffffffffffffffffffffffffffffffffffff\n      and\n      swap1\n      0x20\n      add\n      swap1\n      swap3\n      swap2\n      swap1\n      pop\n      pop\n      pop\n      tag_70\n      jump\t// in\n    tag_68:\n      stop\n        /* \"ICO AFFILIATE/ico3lv.sol\":1692:1739  uint256 constant public PERCENTS_DIVIDER = 1000 */\n    tag_5:\n      callvalue\n      dup1\n      iszero\n      tag_71\n      jumpi\n      0x00\n      dup1\n      revert\n    tag_71:\n      pop\n      tag_72\n      tag_73\n      jump\t// in\n    tag_72:\n      mload(0x40)\n      dup1\n      dup3\n      dup2\n      mstore\n      0x20\n      add\n      swap2\n      pop\n      pop\n      mload(0x40)\n      dup1\n      swap2\n      sub\n      swap1\n      return\n        /* \"ICO AFFILIATE/ico3lv.sol\":11497:11700  function getUserDownlineCount(address userAddress) public view returns(uint256, uint256, uint256) {... */\n    tag_6:\n      callvalue\n      dup1\n      iszero\n      tag_74\n      jumpi\n      0x00\n      dup1\n      revert\n    tag_74:\n      pop\n      tag_75\n      0x04\n      dup1\n      calldatasize\n      sub\n      0x20\n      dup2\n      lt\n      iszero\n      tag_76\n      jumpi\n      0x00\n      dup1\n      revert\n    tag_76:\n      dup2\n      add\n      swap1\n      dup1\n      dup1\n      calldataload\n      0xffffffffffffffffffffffffffffffffffffffff\n      and\n      swap1\n      0x20\n      add\n      swap1\n      swap3\n      swap2\n      swap1\n      pop\n      pop\n      pop\n      tag_77\n      jump\t// in\n    tag_75:\n      mload(0x40)\n      dup1\n      dup5\n      dup2\n      mstore\n      0x20\n      add\n      dup4\n      dup2\n      mstore\n      0x20\n      add\n      dup3\n      dup2\n      mstore\n      0x20\n      add\n      swap4\n      pop\n      pop\n      pop\n      pop\n      mload(0x40)\n      dup1\n      swap2\n      sub\n      swap1\n      return\n        /* \"ICO AFFILIATE/ico3lv.sol\":5538:8636  function invest(address referrer) public payable returns (bool){... */\n    tag_7:\n      tag_78\n      0x04\n      dup1\n      calldatasize\n      sub\n      0x20\n      dup2\n      lt\n      iszero\n      tag_79\n      jumpi\n      0x00\n      dup1\n      revert\n    tag_79:\n      dup2\n      add\n      swap1\n      dup1\n      dup1\n      calldataload\n      0xffffffffffffffffffffffffffffffffffffffff\n      and\n      swap1\n      0x20\n      add\n      swap1\n      swap3\n      swap2\n      swap1\n      pop\n      pop\n      pop\n      tag_80\n      jump\t// in\n    tag_78:\n      mload(0x40)\n      dup1\n      dup3\n      iszero\n      iszero\n      dup2\n      mstore\n      0x20\n      add\n      swap2\n      pop\n      pop\n      mload(0x40)\n      dup1\n      swap2\n      sub\n      swap1\n      return\n        /* \"ICO AFFILIATE/ico3lv.sol\":10385:11250  function getUserDividends(address userAddress) public view returns (uint256) {... */\n    tag_8:\n      callvalue\n      dup1\n      iszero\n      tag_81\n      jumpi\n      0x00\n      dup1\n      revert\n    tag_81:\n      pop\n      tag_82\n      0x04\n      dup1\n      calldatasize\n      sub\n      0x20\n      dup2\n      lt\n      iszero\n      tag_83\n      jumpi\n      0x00\n      dup1\n      revert\n    tag_83:\n      dup2\n      add\n      swap1\n      dup1\n      dup1\n      calldataload\n      0xffffffffffffffffffffffffffffffffffffffff\n      and\n      swap1\n      0x20\n      add\n      swap1\n      swap3\n      swap2\n      swap1\n      pop\n      pop\n      pop\n      tag_84\n      jump\t// in\n    tag_82:\n      mload(0x40)\n      dup1\n      dup3\n      dup2\n      mstore\n      0x20\n      add\n      swap2\n      pop\n      pop\n      mload(0x40)\n      dup1\n      swap2\n      sub\n      swap1\n      return\n        /* \"ICO AFFILIATE/ico3lv.sol\":4924:5071  function haltICO() external onlyAdmin {... */\n    tag_9:\n      callvalue\n      dup1\n      iszero\n      tag_85\n      jumpi\n      0x00\n      dup1\n      revert\n    tag_85:\n      pop\n      tag_86\n      tag_87\n      jump\t// in\n    tag_86:\n      stop\n        /* \"ICO AFFILIATE/ico3lv.sol\":12118:12277  function getUserAvailable(address userAddress) public view returns(uint256) {... */\n    tag_10:\n      callvalue\n      dup1\n      iszero\n      tag_88\n      jumpi\n      0x00\n      dup1\n      revert\n    tag_88:\n      pop\n      tag_89\n      0x04\n      dup1\n      calldatasize\n      sub\n      0x20\n      dup2\n      lt\n      iszero\n      tag_90\n      jumpi\n      0x00\n      dup1\n      revert\n    tag_90:\n      dup2\n      add\n      swap1\n      dup1\n      dup1\n      calldataload\n      0xffffffffffffffffffffffffffffffffffffffff\n      and\n      swap1\n      0x20\n      add\n      swap1\n      swap3\n      swap2\n      swap1\n      pop\n      pop\n      pop\n      tag_91\n      jump\t// in\n    tag_89:\n      mload(0x40)\n      dup1\n      dup3\n      dup2\n      mstore\n      0x20\n      add\n      swap2\n      pop\n      pop\n      mload(0x40)\n      dup1\n      swap2\n      sub\n      swap1\n      return\n        /* \"ICO AFFILIATE/ico3lv.sol\":2239:2287  mapping(address => uint) public investedAmountOf */\n    tag_11:\n      callvalue\n      dup1\n      iszero\n      tag_92\n      jumpi\n      0x00\n      dup1\n      revert\n    tag_92:\n      pop\n      tag_93\n      0x04\n      dup1\n      calldatasize\n      sub\n      0x20\n      dup2\n      lt\n      iszero\n      tag_94\n      jumpi\n      0x00\n      dup1\n      revert\n    tag_94:\n      dup2\n      add\n      swap1\n      dup1\n      dup1\n      calldataload\n      0xffffffffffffffffffffffffffffffffffffffff\n      and\n      swap1\n      0x20\n      add\n      swap1\n      swap3\n      swap2\n      swap1\n      pop\n      pop\n      pop\n      tag_95\n      jump\t// in\n    tag_93:\n      mload(0x40)\n      dup1\n      dup3\n      dup2\n      mstore\n      0x20\n      add\n      swap2\n      pop\n      pop\n      mload(0x40)\n      dup1\n      swap2\n      sub\n      swap1\n      return\n        /* \"ICO AFFILIATE/ico3lv.sol\":4265:4611  function getICOState() external view returns (string memory) {... */\n    tag_12:\n      callvalue\n      dup1\n      iszero\n      tag_96\n      jumpi\n      0x00\n      dup1\n      revert\n    tag_96:\n      pop\n      tag_97\n      tag_98\n      jump\t// in\n    tag_97:\n      mload(0x40)\n      dup1\n      dup1\n      0x20\n      add\n      dup3\n      dup2\n      sub\n      dup3\n      mstore\n      dup4\n      dup2\n      dup2\n      mload\n      dup2\n      mstore\n      0x20\n      add\n      swap2\n      pop\n      dup1\n      mload\n      swap1\n      0x20\n      add\n      swap1\n      dup1\n      dup4\n      dup4\n      0x00\n    tag_99:\n      dup4\n      dup2\n      lt\n      iszero\n      tag_101\n      jumpi\n      dup1\n      dup3\n      add\n      mload\n      dup2\n      dup5\n      add\n      mstore\n      0x20\n      dup2\n      add\n      swap1\n      pop\n      jump(tag_99)\n    tag_101:\n      pop\n      pop\n      pop\n      pop\n      swap1\n      pop\n      swap1\n      dup2\n      add\n      swap1\n      0x1f\n      and\n      dup1\n      iszero\n      tag_102\n      jumpi\n      dup1\n      dup3\n      sub\n      dup1\n      mload\n      0x01\n      dup4\n      0x20\n      sub\n      0x0100\n      exp\n      sub\n      not\n      and\n      dup2\n      mstore\n      0x20\n      add\n      swap2\n      pop\n    tag_102:\n      pop\n      swap3\n      pop\n      pop\n      pop\n      mload(0x40)\n      dup1\n      swap2\n      sub\n      swap1\n      return\n        /* \"ICO AFFILIATE/ico3lv.sol\":1742:1784  uint256 constant public TIME_STEP = 1 days */\n    tag_13:\n      callvalue\n      dup1\n      iszero\n      tag_103\n      jumpi\n      0x00\n      dup1\n      revert\n    tag_103:\n      pop\n      tag_104\n      tag_105\n      jump\t// in\n    tag_104:\n      mload(0x40)\n      dup1\n      dup3\n      dup2\n      mstore\n      0x20\n      add\n      swap2\n      pop\n      pop\n      mload(0x40)\n      dup1\n      swap2\n      sub\n      swap1\n      return\n        /* \"ICO AFFILIATE/ico3lv.sol\":11377:11494  function getUserReferrer(address userAddress) public view returns(address) {... */\n    tag_14:\n      callvalue\n      dup1\n      iszero\n      tag_106\n      jumpi\n      0x00\n      dup1\n      revert\n    tag_106:\n      pop\n      tag_107\n      0x04\n      dup1\n      calldatasize\n      sub\n      0x20\n      dup2\n      lt\n      iszero\n      tag_108\n      jumpi\n      0x00\n      dup1\n      revert\n    tag_108:\n      dup2\n      add\n      swap1\n      dup1\n      dup1\n      calldataload\n      0xffffffffffffffffffffffffffffffffffffffff\n      and\n      swap1\n      0x20\n      add\n      swap1\n      swap3\n      swap2\n      swap1\n      pop\n      pop\n      pop\n      tag_109\n      jump\t// in\n    tag_107:\n      mload(0x40)\n      dup1\n      dup3\n      0xffffffffffffffffffffffffffffffffffffffff\n      and\n      dup2\n      mstore\n      0x20\n      add\n      swap2\n      pop\n      pop\n      mload(0x40)\n      dup1\n      swap2\n      sub\n      swap1\n      return\n        /* \"ICO AFFILIATE/ico3lv.sol\":13296:13690  function burn() external returns (bool) {... */\n    tag_15:\n      callvalue\n      dup1\n      iszero\n      tag_110\n      jumpi\n      0x00\n      dup1\n      revert\n    tag_110:\n      pop\n      tag_111\n      tag_112\n      jump\t// in\n    tag_111:\n      mload(0x40)\n      dup1\n      dup3\n      iszero\n      iszero\n      dup2\n      mstore\n      0x20\n      add\n      swap2\n      pop\n      pop\n      mload(0x40)\n      dup1\n      swap2\n      sub\n      swap1\n      return\n        /* \"ICO AFFILIATE/ico3lv.sol\":11825:11954  function getUserReferralTotalBonus(address userAddress) public view returns(uint256) {... */\n    tag_16:\n      callvalue\n      dup1\n      iszero\n      tag_113\n      jumpi\n      0x00\n      dup1\n      revert\n    tag_113:\n      pop\n      tag_114\n      0x04\n      dup1\n      calldatasize\n      sub\n      0x20\n      dup2\n      lt\n      iszero\n      tag_115\n      jumpi\n      0x00\n      dup1\n      revert\n    tag_115:\n      dup2\n      add\n      swap1\n      dup1\n      dup1\n      calldataload\n      0xffffffffffffffffffffffffffffffffffffffff\n      and\n      swap1\n      0x20\n      add\n      swap1\n      swap3\n      swap2\n      swap1\n      pop\n      pop\n      pop\n      tag_116\n      jump\t// in\n    tag_114:\n      mload(0x40)\n      dup1\n      dup3\n      dup2\n      mstore\n      0x20\n      add\n      swap2\n      pop\n      pop\n      mload(0x40)\n      dup1\n      swap2\n      sub\n      swap1\n      return\n        /* \"ICO AFFILIATE/ico3lv.sol\":1584:1624  uint256 constant public PERCENT_STEP = 5 */\n    tag_17:\n      callvalue\n      dup1\n      iszero\n      tag_117\n      jumpi\n      0x00\n      dup1\n      revert\n    tag_117:\n      pop\n      tag_118\n      tag_119\n      jump\t// in\n    tag_118:\n      mload(0x40)\n      dup1\n      dup3\n      dup2\n      mstore\n      0x20\n      add\n      swap2\n      pop\n      pop\n      mload(0x40)\n      dup1\n      swap2\n      sub\n      swap1\n      return\n        /* \"ICO AFFILIATE/ico3lv.sol\":9898:10382  function getResult(uint8 plan, uint256 deposit) public view returns (uint256 percent, uint256 profit, uint256 finish) {... */\n    tag_18:\n      callvalue\n      dup1\n      iszero\n      tag_120\n      jumpi\n      0x00\n      dup1\n      revert\n    tag_120:\n      pop\n      tag_121\n      0x04\n      dup1\n      calldatasize\n      sub\n      0x40\n      dup2\n      lt\n      iszero\n      tag_122\n      jumpi\n      0x00\n      dup1\n      revert\n    tag_122:\n      dup2\n      add\n      swap1\n      dup1\n      dup1\n      calldataload\n      0xff\n      and\n      swap1\n      0x20\n      add\n      swap1\n      swap3\n      swap2\n      swap1\n      dup1\n      calldataload\n      swap1\n      0x20\n      add\n      swap1\n      swap3\n      swap2\n      swap1\n      pop\n      pop\n      pop\n      tag_123\n      jump\t// in\n    tag_121:\n      mload(0x40)\n      dup1\n      dup5\n      dup2\n      mstore\n      0x20\n      add\n      dup4\n      dup2\n      mstore\n      0x20\n      add\n      dup3\n      dup2\n      mstore\n      0x20\n      add\n      swap4\n      pop\n      pop\n      pop\n      pop\n      mload(0x40)\n      dup1\n      swap2\n      sub\n      swap1\n      return\n        /* \"ICO AFFILIATE/ico3lv.sol\":1486:1534  uint256[] public REFERRAL_PERCENTS = [50, 25, 5] */\n    tag_19:\n      callvalue\n      dup1\n      iszero\n      tag_124\n      jumpi\n      0x00\n      dup1\n      revert\n    tag_124:\n      pop\n      tag_125\n      0x04\n      dup1\n      calldatasize\n      sub\n      0x20\n      dup2\n      lt\n      iszero\n      tag_126\n      jumpi\n      0x00\n      dup1\n      revert\n    tag_126:\n      dup2\n      add\n      swap1\n      dup1\n      dup1\n      calldataload\n      swap1\n      0x20\n      add\n      swap1\n      swap3\n      swap2\n      swap1\n      pop\n      pop\n      pop\n      tag_127\n      jump\t// in\n    tag_125:\n      mload(0x40)\n      dup1\n      dup3\n      dup2\n      mstore\n      0x20\n      add\n      swap2\n      pop\n      pop\n      mload(0x40)\n      dup1\n      swap2\n      sub\n      swap1\n      return\n        /* \"ICO AFFILIATE/ico3lv.sol\":14083:14196  function getICOTokenBalance() external view returns (uint) {... */\n    tag_20:\n      callvalue\n      dup1\n      iszero\n      tag_128\n      jumpi\n      0x00\n      dup1\n      revert\n    tag_128:\n      pop\n      tag_129\n      tag_130\n      jump\t// in\n    tag_129:\n      mload(0x40)\n      dup1\n      dup3\n      dup2\n      mstore\n      0x20\n      add\n      swap2\n      pop\n      pop\n      mload(0x40)\n      dup1\n      swap2\n      sub\n      swap1\n      return\n        /* \"ICO AFFILIATE/ico3lv.sol\":14250:14375  function investorBalanceOf(address _investor) external view returns (uint) {... */\n    tag_21:\n      callvalue\n      dup1\n      iszero\n      tag_131\n      jumpi\n      0x00\n      dup1\n      revert\n    tag_131:\n      pop\n      tag_132\n      0x04\n      dup1\n      calldatasize\n      sub\n      0x20\n      dup2\n      lt\n      iszero\n      tag_133\n      jumpi\n      0x00\n      dup1\n      revert\n    tag_133:\n      dup2\n      add\n      swap1\n      dup1\n      dup1\n      calldataload\n      0xffffffffffffffffffffffffffffffffffffffff\n      and\n      swap1\n      0x20\n      add\n      swap1\n      swap3\n      swap2\n      swap1\n      pop\n      pop\n      pop\n      tag_134\n      jump\t// in\n    tag_132:\n      mload(0x40)\n      dup1\n      dup3\n      dup2\n      mstore\n      0x20\n      add\n      swap2\n      pop\n      pop\n      mload(0x40)\n      dup1\n      swap2\n      sub\n      swap1\n      return\n        /* \"ICO AFFILIATE/ico3lv.sol\":1817:1845  uint256 public totalRefBonus */\n    tag_22:\n      callvalue\n      dup1\n      iszero\n      tag_135\n      jumpi\n      0x00\n      dup1\n      revert\n    tag_135:\n      pop\n      tag_136\n      tag_137\n      jump\t// in\n    tag_136:\n      mload(0x40)\n      dup1\n      dup3\n      dup2\n      mstore\n      0x20\n      add\n      swap2\n      pop\n      pop\n      mload(0x40)\n      dup1\n      swap2\n      sub\n      swap1\n      return\n        /* \"ICO AFFILIATE/ico3lv.sol\":11957:12115  function getUserReferralWithdrawn(address userAddress) public view returns(uint256) {... */\n    tag_23:\n      callvalue\n      dup1\n      iszero\n      tag_138\n      jumpi\n      0x00\n      dup1\n      revert\n    tag_138:\n      pop\n      tag_139\n      0x04\n      dup1\n      calldatasize\n      sub\n      0x20\n      dup2\n      lt\n      iszero\n      tag_140\n      jumpi\n      0x00\n      dup1\n      revert\n    tag_140:\n      dup2\n      add\n      swap1\n      dup1\n      dup1\n      calldataload\n      0xffffffffffffffffffffffffffffffffffffffff\n      and\n      swap1\n      0x20\n      add\n      swap1\n      swap3\n      swap2\n      swap1\n      pop\n      pop\n      pop\n      tag_141\n      jump\t// in\n    tag_139:\n      mload(0x40)\n      dup1\n      dup3\n      dup2\n      mstore\n      0x20\n      add\n      swap2\n      pop\n      pop\n      mload(0x40)\n      dup1\n      swap2\n      sub\n      swap1\n      return\n        /* \"ICO AFFILIATE/ico3lv.sol\":9393:9489  function getContractBalance() public view returns (uint256) {... */\n    tag_24:\n      callvalue\n      dup1\n      iszero\n      tag_142\n      jumpi\n      0x00\n      dup1\n      revert\n    tag_142:\n      pop\n      tag_143\n      tag_144\n      jump\t// in\n    tag_143:\n      mload(0x40)\n      dup1\n      dup3\n      dup2\n      mstore\n      0x20\n      add\n      swap2\n      pop\n      pop\n      mload(0x40)\n      dup1\n      swap2\n      sub\n      swap1\n      return\n        /* \"ICO AFFILIATE/ico3lv.sol\":2195:2217  uint public icoEndTime */\n    tag_25:\n      callvalue\n      dup1\n      iszero\n      tag_145\n      jumpi\n      0x00\n      dup1\n      revert\n    tag_145:\n      pop\n      tag_146\n      tag_147\n      jump\t// in\n    tag_146:\n      mload(0x40)\n      dup1\n      dup3\n      dup2\n      mstore\n      0x20\n      add\n      swap2\n      pop\n      pop\n      mload(0x40)\n      dup1\n      swap2\n      sub\n      swap1\n      return\n        /* \"ICO AFFILIATE/ico3lv.sol\":12415:12642  function getUserTotalDeposits(address userAddress) public view returns(uint256 amount) {... */\n    tag_26:\n      callvalue\n      dup1\n      iszero\n      tag_148\n      jumpi\n      0x00\n      dup1\n      revert\n    tag_148:\n      pop\n      tag_149\n      0x04\n      dup1\n      calldatasize\n      sub\n      0x20\n      dup2\n      lt\n      iszero\n      tag_150\n      jumpi\n      0x00\n      dup1\n      revert\n    tag_150:\n      dup2\n      add\n      swap1\n      dup1\n      dup1\n      calldataload\n      0xffffffffffffffffffffffffffffffffffffffff\n      and\n      swap1\n      0x20\n      add\n      swap1\n      swap3\n      swap2\n      swap1\n      pop\n      pop\n      pop\n      tag_151\n      jump\t// in\n    tag_149:\n      mload(0x40)\n      dup1\n      dup3\n      dup2\n      mstore\n      0x20\n      add\n      swap2\n      pop\n      pop\n      mload(0x40)\n      dup1\n      swap2\n      sub\n      swap1\n      return\n        /* \"ICO AFFILIATE/ico3lv.sol\":4674:4918  function startICO() external onlyAdmin {... */\n    tag_27:\n      callvalue\n      dup1\n      iszero\n      tag_152\n      jumpi\n      0x00\n      dup1\n      revert\n    tag_152:\n      pop\n      tag_153\n      tag_154\n      jump\t// in\n    tag_153:\n      stop\n        /* \"ICO AFFILIATE/ico3lv.sol\":1969:2006  uint public tokenPrice = 0.0001 ether */\n    tag_28:\n      callvalue\n      dup1\n      iszero\n      tag_155\n      jumpi\n      0x00\n      dup1\n      revert\n    tag_155:\n      pop\n      tag_156\n      tag_157\n      jump\t// in\n    tag_156:\n      mload(0x40)\n      dup1\n      dup3\n      dup2\n      mstore\n      0x20\n      add\n      swap2\n      pop\n      pop\n      mload(0x40)\n      dup1\n      swap2\n      sub\n      swap1\n      return\n        /* \"ICO AFFILIATE/ico3lv.sol\":1788:1814  uint256 public totalStaked */\n    tag_29:\n      callvalue\n      dup1\n      iszero\n      tag_158\n      jumpi\n      0x00\n      dup1\n      revert\n    tag_158:\n      pop\n      tag_159\n      tag_160\n      jump\t// in\n    tag_159:\n      mload(0x40)\n      dup1\n      dup3\n      dup2\n      mstore\n      0x20\n      add\n      swap2\n      pop\n      pop\n      mload(0x40)\n      dup1\n      swap2\n      sub\n      swap1\n      return\n        /* \"ICO AFFILIATE/ico3lv.sol\":2079:2118  uint public minInvestment = 0.001 ether */\n    tag_30:\n      callvalue\n      dup1\n      iszero\n      tag_161\n      jumpi\n      0x00\n      dup1\n      revert\n    tag_161:\n      pop\n      tag_162\n      tag_163\n      jump\t// in\n    tag_162:\n      mload(0x40)\n      dup1\n      dup3\n      dup2\n      mstore\n      0x20\n      add\n      swap2\n      pop\n      pop\n      mload(0x40)\n      dup1\n      swap2\n      sub\n      swap1\n      return\n        /* \"ICO AFFILIATE/ico3lv.sol\":5403:5496  function changeAdmin(address _newAdmin) external onlyAdmin {... */\n    tag_31:\n      callvalue\n      dup1\n      iszero\n      tag_164\n      jumpi\n      0x00\n      dup1\n      revert\n    tag_164:\n      pop\n      tag_165\n      0x04\n      dup1\n      calldatasize\n      sub\n      0x20\n      dup2\n      lt\n      iszero\n      tag_166\n      jumpi\n      0x00\n      dup1\n      revert\n    tag_166:\n      dup2\n      add\n      swap1\n      dup1\n      dup1\n      calldataload\n      0xffffffffffffffffffffffffffffffffffffffff\n      and\n      swap1\n      0x20\n      add\n      swap1\n      swap3\n      swap2\n      swap1\n      pop\n      pop\n      pop\n      tag_167\n      jump\t// in\n    tag_165:\n      stop\n        /* \"ICO AFFILIATE/ico3lv.sol\":5499:5535  function invest1() public payable {} */\n    tag_32:\n      tag_168\n      tag_60\n      jump\t// in\n    tag_168:\n      stop\n        /* \"ICO AFFILIATE/ico3lv.sol\":3068:3107  address payable public commissionWallet */\n    tag_33:\n      callvalue\n      dup1\n      iszero\n      tag_169\n      jumpi\n      0x00\n      dup1\n      revert\n    tag_169:\n      pop\n      tag_170\n      tag_171\n      jump\t// in\n    tag_170:\n      mload(0x40)\n      dup1\n      dup3\n      0xffffffffffffffffffffffffffffffffffffffff\n      and\n      dup2\n      mstore\n      0x20\n      add\n      swap2\n      pop\n      pop\n      mload(0x40)\n      dup1\n      swap2\n      sub\n      swap1\n      return\n        /* \"ICO AFFILIATE/ico3lv.sol\":5077:5231  function resumeICO() external onlyAdmin {... */\n    tag_34:\n      callvalue\n      dup1\n      iszero\n      tag_172\n      jumpi\n      0x00\n      dup1\n      revert\n    tag_172:\n      pop\n      tag_173\n      tag_174\n      jump\t// in\n    tag_173:\n      stop\n        /* \"ICO AFFILIATE/ico3lv.sol\":9643:9895  function getPercent(uint8 plan) public view returns (uint256) {... */\n    tag_35:\n      callvalue\n      dup1\n      iszero\n      tag_175\n      jumpi\n      0x00\n      dup1\n      revert\n    tag_175:\n      pop\n      tag_176\n      0x04\n      dup1\n      calldatasize\n      sub\n      0x20\n      dup2\n      lt\n      iszero\n      tag_177\n      jumpi\n      0x00\n      dup1\n      revert\n    tag_177:\n      dup2\n      add\n      swap1\n      dup1\n      dup1\n      calldataload\n      0xff\n      and\n      swap1\n      0x20\n      add\n      swap1\n      swap3\n      swap2\n      swap1\n      pop\n      pop\n      pop\n      tag_178\n      jump\t// in\n    tag_176:\n      mload(0x40)\n      dup1\n      dup3\n      dup2\n      mstore\n      0x20\n      add\n      swap2\n      pop\n      pop\n      mload(0x40)\n      dup1\n      swap2\n      sub\n      swap1\n      return\n        /* \"ICO AFFILIATE/ico3lv.sol\":2165:2189  uint public icoStartTime */\n    tag_36:\n      callvalue\n      dup1\n      iszero\n      tag_179\n      jumpi\n      0x00\n      dup1\n      revert\n    tag_179:\n      pop\n      tag_180\n      tag_181\n      jump\t// in\n    tag_180:\n      mload(0x40)\n      dup1\n      dup3\n      dup2\n      mstore\n      0x20\n      add\n      swap2\n      pop\n      pop\n      mload(0x40)\n      dup1\n      swap2\n      sub\n      swap1\n      return\n        /* \"ICO AFFILIATE/ico3lv.sol\":12280:12412  function getUserAmountOfDeposits(address userAddress) public view returns(uint256) {... */\n    tag_37:\n      callvalue\n      dup1\n      iszero\n      tag_182\n      jumpi\n      0x00\n      dup1\n      revert\n    tag_182:\n      pop\n      tag_183\n      0x04\n      dup1\n      calldatasize\n      sub\n      0x20\n      dup2\n      lt\n      iszero\n      tag_184\n      jumpi\n      0x00\n      dup1\n      revert\n    tag_184:\n      dup2\n      add\n      swap1\n      dup1\n      dup1\n      calldataload\n      0xffffffffffffffffffffffffffffffffffffffff\n      and\n      swap1\n      0x20\n      add\n      swap1\n      swap3\n      swap2\n      swap1\n      pop\n      pop\n      pop\n      tag_185\n      jump\t// in\n    tag_183:\n      mload(0x40)\n      dup1\n      dup3\n      dup2\n      mstore\n      0x20\n      add\n      swap2\n      pop\n      pop\n      mload(0x40)\n      dup1\n      swap2\n      sub\n      swap1\n      return\n        /* \"ICO AFFILIATE/ico3lv.sol\":1874:1906  address payable public ICOWallet */\n    tag_38:\n      callvalue\n      dup1\n      iszero\n      tag_186\n      jumpi\n      0x00\n      dup1\n      revert\n    tag_186:\n      pop\n      tag_187\n      tag_188\n      jump\t// in\n    tag_187:\n      mload(0x40)\n      dup1\n      dup3\n      0xffffffffffffffffffffffffffffffffffffffff\n      and\n      dup2\n      mstore\n      0x20\n      add\n      swap2\n      pop\n      pop\n      mload(0x40)\n      dup1\n      swap2\n      sub\n      swap1\n      return\n        /* \"ICO AFFILIATE/ico3lv.sol\":9492:9640  function getPlanInfo(uint8 plan) public view returns(uint256 time, uint256 percent) {... */\n    tag_39:\n      callvalue\n      dup1\n      iszero\n      tag_189\n      jumpi\n      0x00\n      dup1\n      revert\n    tag_189:\n      pop\n      tag_190\n      0x04\n      dup1\n      calldatasize\n      sub\n      0x20\n      dup2\n      lt\n      iszero\n      tag_191\n      jumpi\n      0x00\n      dup1\n      revert\n    tag_191:\n      dup2\n      add\n      swap1\n      dup1\n      dup1\n      calldataload\n      0xff\n      and\n      swap1\n      0x20\n      add\n      swap1\n      swap3\n      swap2\n      swap1\n      pop\n      pop\n      pop\n      tag_192\n      jump\t// in\n    tag_190:\n      mload(0x40)\n      dup1\n      dup4\n      dup2\n      mstore\n      0x20\n      add\n      dup3\n      dup2\n      mstore\n      0x20\n      add\n      swap3\n      pop\n      pop\n      pop\n      mload(0x40)\n      dup1\n      swap2\n      sub\n      swap1\n      return\n        /* \"ICO AFFILIATE/ico3lv.sol\":2394:2415  State public ICOState */\n    tag_40:\n      callvalue\n      dup1\n      iszero\n      tag_193\n      jumpi\n      0x00\n      dup1\n      revert\n    tag_193:\n      pop\n      tag_194\n      tag_195\n      jump\t// in\n    tag_194:\n      mload(0x40)\n      dup1\n      dup3\n      0x03\n      dup2\n      gt\n      iszero\n      tag_196\n      jumpi\n      invalid\n    tag_196:\n      dup2\n      mstore\n      0x20\n      add\n      swap2\n      pop\n      pop\n      mload(0x40)\n      dup1\n      swap2\n      sub\n      swap1\n      return\n        /* \"ICO AFFILIATE/ico3lv.sol\":12645:13107  function getUserDepositInfo(address userAddress, uint256 index) public view returns(uint8 plan, uint256 percent, uint256 amount, uint256 profit, uint256 start, uint256 finish) {... */\n    tag_41:\n      callvalue\n      dup1\n      iszero\n      tag_197\n      jumpi\n      0x00\n      dup1\n      revert\n    tag_197:\n      pop\n      tag_198\n      0x04\n      dup1\n      calldatasize\n      sub\n      0x40\n      dup2\n      lt\n      iszero\n      tag_199\n      jumpi\n      0x00\n      dup1\n      revert\n    tag_199:\n      dup2\n      add\n      swap1\n      dup1\n      dup1\n      calldataload\n      0xffffffffffffffffffffffffffffffffffffffff\n      and\n      swap1\n      0x20\n      add\n      swap1\n      swap3\n      swap2\n      swap1\n      dup1\n      calldataload\n      swap1\n      0x20\n      add\n      swap1\n      swap3\n      swap2\n      swap1\n      pop\n      pop\n      pop\n      tag_200\n      jump\t// in\n    tag_198:\n      mload(0x40)\n      dup1\n      dup8\n      0xff\n      and\n      dup2\n      mstore\n      0x20\n      add\n      dup7\n      dup2\n      mstore\n      0x20\n      add\n      dup6\n      dup2\n      mstore\n      0x20\n      add\n      dup5\n      dup2\n      mstore\n      0x20\n      add\n      dup4\n      dup2\n      mstore\n      0x20\n      add\n      dup3\n      dup2\n      mstore\n      0x20\n      add\n      swap7\n      pop\n      pop\n      pop\n      pop\n      pop\n      pop\n      pop\n      mload(0x40)\n      dup1\n      swap2\n      sub\n      swap1\n      return\n        /* \"ICO AFFILIATE/ico3lv.sol\":3041:3065  uint256 public startUNIX */\n    tag_42:\n      callvalue\n      dup1\n      iszero\n      tag_201\n      jumpi\n      0x00\n      dup1\n      revert\n    tag_201:\n      pop\n      tag_202\n      tag_203\n      jump\t// in\n    tag_202:\n      mload(0x40)\n      dup1\n      dup3\n      dup2\n      mstore\n      0x20\n      add\n      swap2\n      pop\n      pop\n      mload(0x40)\n      dup1\n      swap2\n      sub\n      swap1\n      return\n        /* \"ICO AFFILIATE/ico3lv.sol\":2049:2073  uint public raisedAmount */\n    tag_43:\n      callvalue\n      dup1\n      iszero\n      tag_204\n      jumpi\n      0x00\n      dup1\n      revert\n    tag_204:\n      pop\n      tag_205\n      tag_206\n      jump\t// in\n    tag_205:\n      mload(0x40)\n      dup1\n      dup3\n      dup2\n      mstore\n      0x20\n      add\n      swap2\n      pop\n      pop\n      mload(0x40)\n      dup1\n      swap2\n      sub\n      swap1\n      return\n        /* \"ICO AFFILIATE/ico3lv.sol\":11253:11374  function getUserCheckpoint(address userAddress) public view returns(uint256) {... */\n    tag_44:\n      callvalue\n      dup1\n      iszero\n      tag_207\n      jumpi\n      0x00\n      dup1\n      revert\n    tag_207:\n      pop\n      tag_208\n      0x04\n      dup1\n      calldatasize\n      sub\n      0x20\n      dup2\n      lt\n      iszero\n      tag_209\n      jumpi\n      0x00\n      dup1\n      revert\n    tag_209:\n      dup2\n      add\n      swap1\n      dup1\n      dup1\n      calldataload\n      0xffffffffffffffffffffffffffffffffffffffff\n      and\n      swap1\n      0x20\n      add\n      swap1\n      swap3\n      swap2\n      swap1\n      pop\n      pop\n      pop\n      tag_210\n      jump\t// in\n    tag_208:\n      mload(0x40)\n      dup1\n      dup3\n      dup2\n      mstore\n      0x20\n      add\n      swap2\n      pop\n      pop\n      mload(0x40)\n      dup1\n      swap2\n      sub\n      swap1\n      return\n        /* \"ICO AFFILIATE/ico3lv.sol\":13750:14038  function endIco() public {... */\n    tag_45:\n      callvalue\n      dup1\n      iszero\n      tag_211\n      jumpi\n      0x00\n      dup1\n      revert\n    tag_211:\n      pop\n      tag_212\n      tag_213\n      jump\t// in\n    tag_212:\n      stop\n        /* \"ICO AFFILIATE/ico3lv.sol\":11703:11822  function getUserReferralBonus(address userAddress) public view returns(uint256) {... */\n    tag_46:\n      callvalue\n      dup1\n      iszero\n      tag_214\n      jumpi\n      0x00\n      dup1\n      revert\n    tag_214:\n      pop\n      tag_215\n      0x04\n      dup1\n      calldatasize\n      sub\n      0x20\n      dup2\n      lt\n      iszero\n      tag_216\n      jumpi\n      0x00\n      dup1\n      revert\n    tag_216:\n      dup2\n      add\n      swap1\n      dup1\n      dup1\n      calldataload\n      0xffffffffffffffffffffffffffffffffffffffff\n      and\n      swap1\n      0x20\n      add\n      swap1\n      swap3\n      swap2\n      swap1\n      pop\n      pop\n      pop\n      tag_217\n      jump\t// in\n    tag_215:\n      mload(0x40)\n      dup1\n      dup3\n      dup2\n      mstore\n      0x20\n      add\n      swap2\n      pop\n      pop\n      mload(0x40)\n      dup1\n      swap2\n      sub\n      swap1\n      return\n        /* \"ICO AFFILIATE/ico3lv.sol\":1848:1868  address public admin */\n    tag_47:\n      callvalue\n      dup1\n      iszero\n      tag_218\n      jumpi\n      0x00\n      dup1\n      revert\n    tag_218:\n      pop\n      tag_219\n      tag_220\n      jump\t// in\n    tag_219:\n      mload(0x40)\n      dup1\n      dup3\n      0xffffffffffffffffffffffffffffffffffffffff\n      and\n      dup2\n      mstore\n      0x20\n      add\n      swap2\n      pop\n      pop\n      mload(0x40)\n      dup1\n      swap2\n      sub\n      swap1\n      return\n        /* \"ICO AFFILIATE/ico3lv.sol\":2012:2043  uint public hardCap = 500 ether */\n    tag_48:\n      callvalue\n      dup1\n      iszero\n      tag_221\n      jumpi\n      0x00\n      dup1\n      revert\n    tag_221:\n      pop\n      tag_222\n      tag_223\n      jump\t// in\n    tag_222:\n      mload(0x40)\n      dup1\n      dup3\n      dup2\n      mstore\n      0x20\n      add\n      swap2\n      pop\n      pop\n      mload(0x40)\n      dup1\n      swap2\n      sub\n      swap1\n      return\n        /* \"ICO AFFILIATE/ico3lv.sol\":1925:1944  IERC20 public token */\n    tag_49:\n      callvalue\n      dup1\n      iszero\n      tag_224\n      jumpi\n      0x00\n      dup1\n      revert\n    tag_224:\n      pop\n      tag_225\n      tag_226\n      jump\t// in\n    tag_225:\n      mload(0x40)\n      dup1\n      dup3\n      0xffffffffffffffffffffffffffffffffffffffff\n      and\n      dup2\n      mstore\n      0x20\n      add\n      swap2\n      pop\n      pop\n      mload(0x40)\n      dup1\n      swap2\n      sub\n      swap1\n      return\n        /* \"ICO AFFILIATE/ico3lv.sol\":5499:5535  function invest1() public payable {} */\n    tag_60:\n      jump\t// out\n        /* \"ICO AFFILIATE/ico3lv.sol\":2124:2159  uint public maxInvestment = 3 ether */\n    tag_66:\n      sload(0x0a)\n      dup2\n      jump\t// out\n        /* \"ICO AFFILIATE/ico3lv.sol\":5261:5378  function changeICOWallet(address payable _newICOWallet) external onlyAdmin {... */\n    tag_70:\n        /* \"ICO AFFILIATE/ico3lv.sol\":4023:4028  admin */\n      0x03\n      0x00\n      swap1\n      sload\n      swap1\n      0x0100\n      exp\n      swap1\n      div\n      0xffffffffffffffffffffffffffffffffffffffff\n      and\n        /* \"ICO AFFILIATE/ico3lv.sol\":4009:4028  msg.sender == admin */\n      0xffffffffffffffffffffffffffffffffffffffff\n      and\n        /* \"ICO AFFILIATE/ico3lv.sol\":4009:4019  msg.sender */\n      caller\n        /* \"ICO AFFILIATE/ico3lv.sol\":4009:4028  msg.sender == admin */\n      0xffffffffffffffffffffffffffffffffffffffff\n      and\n      eq\n        /* \"ICO AFFILIATE/ico3lv.sol\":4001:4052  require(msg.sender == admin, \"Admin Only function\") */\n      tag_229\n      jumpi\n      mload(0x40)\n      0x08c379a000000000000000000000000000000000000000000000000000000000\n      dup2\n      mstore\n      0x04\n      add\n      dup1\n      dup1\n      0x20\n      add\n      dup3\n      dup2\n      sub\n      dup3\n      mstore\n      0x13\n      dup2\n      mstore\n      0x20\n      add\n      dup1\n      0x41646d696e204f6e6c792066756e6374696f6e00000000000000000000000000\n      dup2\n      mstore\n      pop\n      0x20\n      add\n      swap2\n      pop\n      pop\n      mload(0x40)\n      dup1\n      swap2\n      sub\n      swap1\n      revert\n    tag_229:\n        /* \"ICO AFFILIATE/ico3lv.sol\":5358:5371  _newICOWallet */\n      dup1\n        /* \"ICO AFFILIATE/ico3lv.sol\":5346:5355  ICOWallet */\n      0x04\n      0x00\n        /* \"ICO AFFILIATE/ico3lv.sol\":5346:5371  ICOWallet = _newICOWallet */\n      0x0100\n      exp\n      dup2\n      sload\n      dup2\n      0xffffffffffffffffffffffffffffffffffffffff\n      mul\n      not\n      and\n      swap1\n      dup4\n      0xffffffffffffffffffffffffffffffffffffffff\n      and\n      mul\n      or\n      swap1\n      sstore\n      pop\n        /* \"ICO AFFILIATE/ico3lv.sol\":5261:5378  function changeICOWallet(address payable _newICOWallet) external onlyAdmin {... */\n      pop\n      jump\t// out\n        /* \"ICO AFFILIATE/ico3lv.sol\":1692:1739  uint256 constant public PERCENTS_DIVIDER = 1000 */\n    tag_73:\n        /* \"ICO AFFILIATE/ico3lv.sol\":1735:1739  1000 */\n      0x03e8\n        /* \"ICO AFFILIATE/ico3lv.sol\":1692:1739  uint256 constant public PERCENTS_DIVIDER = 1000 */\n      dup2\n      jump\t// out\n        /* \"ICO AFFILIATE/ico3lv.sol\":11497:11700  function getUserDownlineCount(address userAddress) public view returns(uint256, uint256, uint256) {... */\n    tag_77:\n        /* \"ICO AFFILIATE/ico3lv.sol\":11568:11575  uint256 */\n      0x00\n        /* \"ICO AFFILIATE/ico3lv.sol\":11577:11584  uint256 */\n      dup1\n        /* \"ICO AFFILIATE/ico3lv.sol\":11586:11593  uint256 */\n      0x00\n        /* \"ICO AFFILIATE/ico3lv.sol\":11607:11612  users */\n      0x10\n        /* \"ICO AFFILIATE/ico3lv.sol\":11607:11625  users[userAddress] */\n      0x00\n        /* \"ICO AFFILIATE/ico3lv.sol\":11613:11624  userAddress */\n      dup6\n        /* \"ICO AFFILIATE/ico3lv.sol\":11607:11625  users[userAddress] */\n      0xffffffffffffffffffffffffffffffffffffffff\n      and\n      0xffffffffffffffffffffffffffffffffffffffff\n      and\n      dup2\n      mstore\n      0x20\n      add\n      swap1\n      dup2\n      mstore\n      0x20\n      add\n      0x00\n      keccak256\n        /* \"ICO AFFILIATE/ico3lv.sol\":11607:11632  users[userAddress].levels */\n      0x03\n      add\n        /* \"ICO AFFILIATE/ico3lv.sol\":11633:11634  0 */\n      0x00\n        /* \"ICO AFFILIATE/ico3lv.sol\":11607:11635  users[userAddress].levels[0] */\n      0x03\n      dup2\n      lt\n      tag_232\n      jumpi\n      invalid\n    tag_232:\n      add\n      sload\n        /* \"ICO AFFILIATE/ico3lv.sol\":11637:11642  users */\n      0x10\n        /* \"ICO AFFILIATE/ico3lv.sol\":11637:11655  users[userAddress] */\n      0x00\n        /* \"ICO AFFILIATE/ico3lv.sol\":11643:11654  userAddress */\n      dup7\n        /* \"ICO AFFILIATE/ico3lv.sol\":11637:11655  users[userAddress] */\n      0xffffffffffffffffffffffffffffffffffffffff\n      and\n      0xffffffffffffffffffffffffffffffffffffffff\n      and\n      dup2\n      mstore\n      0x20\n      add\n      swap1\n      dup2\n      mstore\n      0x20\n      add\n      0x00\n      keccak256\n        /* \"ICO AFFILIATE/ico3lv.sol\":11637:11662  users[userAddress].levels */\n      0x03\n      add\n        /* \"ICO AFFILIATE/ico3lv.sol\":11663:11664  1 */\n      0x01\n        /* \"ICO AFFILIATE/ico3lv.sol\":11637:11665  users[userAddress].levels[1] */\n      0x03\n      dup2\n      lt\n      tag_234\n      jumpi\n      invalid\n    tag_234:\n      add\n      sload\n        /* \"ICO AFFILIATE/ico3lv.sol\":11667:11672  users */\n      0x10\n        /* \"ICO AFFILIATE/ico3lv.sol\":11667:11685  users[userAddress] */\n      0x00\n        /* \"ICO AFFILIATE/ico3lv.sol\":11673:11684  userAddress */\n      dup8\n        /* \"ICO AFFILIATE/ico3lv.sol\":11667:11685  users[userAddress] */\n      0xffffffffffffffffffffffffffffffffffffffff\n      and\n      0xffffffffffffffffffffffffffffffffffffffff\n      and\n      dup2\n      mstore\n      0x20\n      add\n      swap1\n      dup2\n      mstore\n      0x20\n      add\n      0x00\n      keccak256\n        /* \"ICO AFFILIATE/ico3lv.sol\":11667:11692  users[userAddress].levels */\n      0x03\n      add\n        /* \"ICO AFFILIATE/ico3lv.sol\":11693:11694  2 */\n      0x02\n        /* \"ICO AFFILIATE/ico3lv.sol\":11667:11695  users[userAddress].levels[2] */\n      0x03\n      dup2\n      lt\n      tag_236\n      jumpi\n      invalid\n    tag_236:\n      add\n      sload\n        /* \"ICO AFFILIATE/ico3lv.sol\":11599:11696  return (users[userAddress].levels[0], users[userAddress].levels[1], users[userAddress].levels[2]) */\n      swap3\n      pop\n      swap3\n      pop\n      swap3\n      pop\n        /* \"ICO AFFILIATE/ico3lv.sol\":11497:11700  function getUserDownlineCount(address userAddress) public view returns(uint256, uint256, uint256) {... */\n      swap2\n      swap4\n      swap1\n      swap3\n      pop\n      jump\t// out\n        /* \"ICO AFFILIATE/ico3lv.sol\":5538:8636  function invest(address referrer) public payable returns (bool){... */\n    tag_80:\n        /* \"ICO AFFILIATE/ico3lv.sol\":5596:5600  bool */\n      0x00\n        /* \"ICO AFFILIATE/ico3lv.sol\":5605:5615  uint8 plan */\n      dup1\n        /* \"ICO AFFILIATE/ico3lv.sol\":5618:5619  1 */\n      0x01\n        /* \"ICO AFFILIATE/ico3lv.sol\":5605:5619  uint8 plan = 1 */\n      swap1\n      pop\n        /* \"ICO AFFILIATE/ico3lv.sol\":5671:5684  minInvestment */\n      sload(0x09)\n        /* \"ICO AFFILIATE/ico3lv.sol\":5658:5667  msg.value */\n      callvalue\n        /* \"ICO AFFILIATE/ico3lv.sol\":5658:5684  msg.value >= minInvestment */\n      lt\n      iszero\n        /* \"ICO AFFILIATE/ico3lv.sol\":5650:5685  require(msg.value >= minInvestment) */\n      tag_239\n      jumpi\n      0x00\n      dup1\n      revert\n    tag_239:\n        /* \"ICO AFFILIATE/ico3lv.sol\":5736:5757  uint256 projectAmount */\n      0x00\n        /* \"ICO AFFILIATE/ico3lv.sol\":5760:5769  msg.value */\n      callvalue\n        /* \"ICO AFFILIATE/ico3lv.sol\":5736:5769  uint256 projectAmount = msg.value */\n      swap1\n      pop\n        /* \"ICO AFFILIATE/ico3lv.sol\":5918:5935  User storage user */\n      0x00\n        /* \"ICO AFFILIATE/ico3lv.sol\":5938:5943  users */\n      0x10\n        /* \"ICO AFFILIATE/ico3lv.sol\":5938:5955  users[msg.sender] */\n      0x00\n        /* \"ICO AFFILIATE/ico3lv.sol\":5944:5954  msg.sender */\n      caller\n        /* \"ICO AFFILIATE/ico3lv.sol\":5938:5955  users[msg.sender] */\n      0xffffffffffffffffffffffffffffffffffffffff\n      and\n      0xffffffffffffffffffffffffffffffffffffffff\n      and\n      dup2\n      mstore\n      0x20\n      add\n      swap1\n      dup2\n      mstore\n      0x20\n      add\n      0x00\n      keccak256\n        /* \"ICO AFFILIATE/ico3lv.sol\":5918:5955  User storage user = users[msg.sender] */\n      swap1\n      pop\n        /* \"ICO AFFILIATE/ico3lv.sol\":5989:5990  0 */\n      0x00\n        /* \"ICO AFFILIATE/ico3lv.sol\":5964:5991  user.referrer == address(0) */\n      0xffffffffffffffffffffffffffffffffffffffff\n      and\n        /* \"ICO AFFILIATE/ico3lv.sol\":5964:5968  user */\n      dup2\n        /* \"ICO AFFILIATE/ico3lv.sol\":5964:5977  user.referrer */\n      0x02\n      add\n      0x00\n      swap1\n      sload\n      swap1\n      0x0100\n      exp\n      swap1\n      div\n      0xffffffffffffffffffffffffffffffffffffffff\n      and\n        /* \"ICO AFFILIATE/ico3lv.sol\":5964:5991  user.referrer == address(0) */\n      0xffffffffffffffffffffffffffffffffffffffff\n      and\n      eq\n        /* \"ICO AFFILIATE/ico3lv.sol\":5960:6334  if (user.referrer == address(0)) {... */\n      iszero\n      tag_240\n      jumpi\n        /* \"ICO AFFILIATE/ico3lv.sol\":6036:6037  0 */\n      0x00\n        /* \"ICO AFFILIATE/ico3lv.sol\":6002:6007  users */\n      0x10\n        /* \"ICO AFFILIATE/ico3lv.sol\":6002:6017  users[referrer] */\n      0x00\n        /* \"ICO AFFILIATE/ico3lv.sol\":6008:6016  referrer */\n      dup8\n        /* \"ICO AFFILIATE/ico3lv.sol\":6002:6017  users[referrer] */\n      0xffffffffffffffffffffffffffffffffffffffff\n      and\n      0xffffffffffffffffffffffffffffffffffffffff\n      and\n      dup2\n      mstore\n      0x20\n      add\n      swap1\n      dup2\n      mstore\n      0x20\n      add\n      0x00\n      keccak256\n        /* \"ICO AFFILIATE/ico3lv.sol\":6002:6026  users[referrer].deposits */\n      0x00\n      add\n        /* \"ICO AFFILIATE/ico3lv.sol\":6002:6033  users[referrer].deposits.length */\n      dup1\n      sload\n      swap1\n      pop\n        /* \"ICO AFFILIATE/ico3lv.sol\":6002:6037  users[referrer].deposits.length > 0 */\n      gt\n        /* \"ICO AFFILIATE/ico3lv.sol\":6002:6063  users[referrer].deposits.length > 0 && referrer != msg.sender */\n      dup1\n      iszero\n      tag_241\n      jumpi\n      pop\n        /* \"ICO AFFILIATE/ico3lv.sol\":6053:6063  msg.sender */\n      caller\n        /* \"ICO AFFILIATE/ico3lv.sol\":6041:6063  referrer != msg.sender */\n      0xffffffffffffffffffffffffffffffffffffffff\n      and\n        /* \"ICO AFFILIATE/ico3lv.sol\":6041:6049  referrer */\n      dup6\n        /* \"ICO AFFILIATE/ico3lv.sol\":6041:6063  referrer != msg.sender */\n      0xffffffffffffffffffffffffffffffffffffffff\n      and\n      eq\n      iszero\n        /* \"ICO AFFILIATE/ico3lv.sol\":6002:6063  users[referrer].deposits.length > 0 && referrer != msg.sender */\n    tag_241:\n        /* \"ICO AFFILIATE/ico3lv.sol\":5998:6101  if (users[referrer].deposits.length > 0 && referrer != msg.sender) {... */\n      iszero\n      tag_242\n      jumpi\n        /* \"ICO AFFILIATE/ico3lv.sol\":6087:6095  referrer */\n      dup5\n        /* \"ICO AFFILIATE/ico3lv.sol\":6071:6075  user */\n      dup2\n        /* \"ICO AFFILIATE/ico3lv.sol\":6071:6084  user.referrer */\n      0x02\n      add\n      0x00\n        /* \"ICO AFFILIATE/ico3lv.sol\":6071:6095  user.referrer = referrer */\n      0x0100\n      exp\n      dup2\n      sload\n      dup2\n      0xffffffffffffffffffffffffffffffffffffffff\n      mul\n      not\n      and\n      swap1\n      dup4\n      0xffffffffffffffffffffffffffffffffffffffff\n      and\n      mul\n      or\n      swap1\n      sstore\n      pop\n        /* \"ICO AFFILIATE/ico3lv.sol\":5998:6101  if (users[referrer].deposits.length > 0 && referrer != msg.sender) {... */\n    tag_242:\n        /* \"ICO AFFILIATE/ico3lv.sol\":6106:6120  address upline */\n      0x00\n        /* \"ICO AFFILIATE/ico3lv.sol\":6123:6127  user */\n      dup2\n        /* \"ICO AFFILIATE/ico3lv.sol\":6123:6136  user.referrer */\n      0x02\n      add\n      0x00\n      swap1\n      sload\n      swap1\n      0x0100\n      exp\n      swap1\n      div\n      0xffffffffffffffffffffffffffffffffffffffff\n      and\n        /* \"ICO AFFILIATE/ico3lv.sol\":6106:6136  address upline = user.referrer */\n      swap1\n      pop\n        /* \"ICO AFFILIATE/ico3lv.sol\":6146:6155  uint256 i */\n      0x00\n        /* \"ICO AFFILIATE/ico3lv.sol\":6141:6330  for (uint256 i = 0; i < 3; i++) {... */\n    tag_243:\n        /* \"ICO AFFILIATE/ico3lv.sol\":6165:6166  3 */\n      0x03\n        /* \"ICO AFFILIATE/ico3lv.sol\":6161:6162  i */\n      dup2\n        /* \"ICO AFFILIATE/ico3lv.sol\":6161:6166  i < 3 */\n      lt\n        /* \"ICO AFFILIATE/ico3lv.sol\":6141:6330  for (uint256 i = 0; i < 3; i++) {... */\n      iszero\n      tag_244\n      jumpi\n        /* \"ICO AFFILIATE/ico3lv.sol\":6201:6202  0 */\n      0x00\n        /* \"ICO AFFILIATE/ico3lv.sol\":6183:6203  upline != address(0) */\n      0xffffffffffffffffffffffffffffffffffffffff\n      and\n        /* \"ICO AFFILIATE/ico3lv.sol\":6183:6189  upline */\n      dup3\n        /* \"ICO AFFILIATE/ico3lv.sol\":6183:6203  upline != address(0) */\n      0xffffffffffffffffffffffffffffffffffffffff\n      and\n      eq\n        /* \"ICO AFFILIATE/ico3lv.sol\":6179:6324  if (upline != address(0)) {... */\n      tag_246\n      jumpi\n        /* \"ICO AFFILIATE/ico3lv.sol\":6238:6268  users[upline].levels[i].add(1) */\n      tag_247\n        /* \"ICO AFFILIATE/ico3lv.sol\":6266:6267  1 */\n      0x01\n        /* \"ICO AFFILIATE/ico3lv.sol\":6238:6243  users */\n      0x10\n        /* \"ICO AFFILIATE/ico3lv.sol\":6238:6251  users[upline] */\n      0x00\n        /* \"ICO AFFILIATE/ico3lv.sol\":6244:6250  upline */\n      dup6\n        /* \"ICO AFFILIATE/ico3lv.sol\":6238:6251  users[upline] */\n      0xffffffffffffffffffffffffffffffffffffffff\n      and\n      0xffffffffffffffffffffffffffffffffffffffff\n      and\n      dup2\n      mstore\n      0x20\n      add\n      swap1\n      dup2\n      mstore\n      0x20\n      add\n      0x00\n      keccak256\n        /* \"ICO AFFILIATE/ico3lv.sol\":6238:6258  users[upline].levels */\n      0x03\n      add\n        /* \"ICO AFFILIATE/ico3lv.sol\":6259:6260  i */\n      dup4\n        /* \"ICO AFFILIATE/ico3lv.sol\":6238:6261  users[upline].levels[i] */\n      0x03\n      dup2\n      lt\n      tag_248\n      jumpi\n      invalid\n    tag_248:\n      add\n      sload\n        /* \"ICO AFFILIATE/ico3lv.sol\":6238:6265  users[upline].levels[i].add */\n      tag_250\n      swap1\n        /* \"ICO AFFILIATE/ico3lv.sol\":6238:6268  users[upline].levels[i].add(1) */\n      swap2\n      swap1\n      0xffffffff\n      and\n      jump\t// in\n    tag_247:\n        /* \"ICO AFFILIATE/ico3lv.sol\":6212:6217  users */\n      0x10\n        /* \"ICO AFFILIATE/ico3lv.sol\":6212:6225  users[upline] */\n      0x00\n        /* \"ICO AFFILIATE/ico3lv.sol\":6218:6224  upline */\n      dup5\n        /* \"ICO AFFILIATE/ico3lv.sol\":6212:6225  users[upline] */\n      0xffffffffffffffffffffffffffffffffffffffff\n      and\n      0xffffffffffffffffffffffffffffffffffffffff\n      and\n      dup2\n      mstore\n      0x20\n      add\n      swap1\n      dup2\n      mstore\n      0x20\n      add\n      0x00\n      keccak256\n        /* \"ICO AFFILIATE/ico3lv.sol\":6212:6232  users[upline].levels */\n      0x03\n      add\n        /* \"ICO AFFILIATE/ico3lv.sol\":6233:6234  i */\n      dup3\n        /* \"ICO AFFILIATE/ico3lv.sol\":6212:6235  users[upline].levels[i] */\n      0x03\n      dup2\n      lt\n      tag_251\n      jumpi\n      invalid\n    tag_251:\n      add\n        /* \"ICO AFFILIATE/ico3lv.sol\":6212:6268  users[upline].levels[i] = users[upline].levels[i].add(1) */\n      dup2\n      swap1\n      sstore\n      pop\n        /* \"ICO AFFILIATE/ico3lv.sol\":6284:6289  users */\n      0x10\n        /* \"ICO AFFILIATE/ico3lv.sol\":6284:6297  users[upline] */\n      0x00\n        /* \"ICO AFFILIATE/ico3lv.sol\":6290:6296  upline */\n      dup4\n        /* \"ICO AFFILIATE/ico3lv.sol\":6284:6297  users[upline] */\n      0xffffffffffffffffffffffffffffffffffffffff\n      and\n      0xffffffffffffffffffffffffffffffffffffffff\n      and\n      dup2\n      mstore\n      0x20\n      add\n      swap1\n      dup2\n      mstore\n      0x20\n      add\n      0x00\n      keccak256\n        /* \"ICO AFFILIATE/ico3lv.sol\":6284:6306  users[upline].referrer */\n      0x02\n      add\n      0x00\n      swap1\n      sload\n      swap1\n      0x0100\n      exp\n      swap1\n      div\n      0xffffffffffffffffffffffffffffffffffffffff\n      and\n        /* \"ICO AFFILIATE/ico3lv.sol\":6275:6306  upline = users[upline].referrer */\n      swap2\n      pop\n        /* \"ICO AFFILIATE/ico3lv.sol\":6179:6324  if (upline != address(0)) {... */\n      jump(tag_253)\n    tag_246:\n        /* \"ICO AFFILIATE/ico3lv.sol\":6319:6324  break */\n      jump(tag_244)\n        /* \"ICO AFFILIATE/ico3lv.sol\":6179:6324  if (upline != address(0)) {... */\n    tag_253:\n        /* \"ICO AFFILIATE/ico3lv.sol\":6168:6171  i++ */\n      dup1\n      dup1\n      0x01\n      add\n      swap2\n      pop\n      pop\n        /* \"ICO AFFILIATE/ico3lv.sol\":6141:6330  for (uint256 i = 0; i < 3; i++) {... */\n      jump(tag_243)\n    tag_244:\n      pop\n        /* \"ICO AFFILIATE/ico3lv.sol\":5960:6334  if (user.referrer == address(0)) {... */\n      pop\n    tag_240:\n        /* \"ICO AFFILIATE/ico3lv.sol\":6367:6368  0 */\n      0x00\n        /* \"ICO AFFILIATE/ico3lv.sol\":6342:6369  user.referrer != address(0) */\n      0xffffffffffffffffffffffffffffffffffffffff\n      and\n        /* \"ICO AFFILIATE/ico3lv.sol\":6342:6346  user */\n      dup2\n        /* \"ICO AFFILIATE/ico3lv.sol\":6342:6355  user.referrer */\n      0x02\n      add\n      0x00\n      swap1\n      sload\n      swap1\n      0x0100\n      exp\n      swap1\n      div\n      0xffffffffffffffffffffffffffffffffffffffff\n      and\n        /* \"ICO AFFILIATE/ico3lv.sol\":6342:6369  user.referrer != address(0) */\n      0xffffffffffffffffffffffffffffffffffffffff\n      and\n      eq\n        /* \"ICO AFFILIATE/ico3lv.sol\":6338:7117  if (user.referrer != address(0)) {... */\n      tag_254\n      jumpi\n        /* \"ICO AFFILIATE/ico3lv.sol\":6377:6391  address upline */\n      0x00\n        /* \"ICO AFFILIATE/ico3lv.sol\":6394:6398  user */\n      dup2\n        /* \"ICO AFFILIATE/ico3lv.sol\":6394:6407  user.referrer */\n      0x02\n      add\n      0x00\n      swap1\n      sload\n      swap1\n      0x0100\n      exp\n      swap1\n      div\n      0xffffffffffffffffffffffffffffffffffffffff\n      and\n        /* \"ICO AFFILIATE/ico3lv.sol\":6377:6407  address upline = user.referrer */\n      swap1\n      pop\n        /* \"ICO AFFILIATE/ico3lv.sol\":6417:6426  uint256 i */\n      0x00\n        /* \"ICO AFFILIATE/ico3lv.sol\":6412:7112  for (uint256 i = 0; i < 3; i++) {... */\n    tag_255:\n        /* \"ICO AFFILIATE/ico3lv.sol\":6436:6437  3 */\n      0x03\n        /* \"ICO AFFILIATE/ico3lv.sol\":6432:6433  i */\n      dup2\n        /* \"ICO AFFILIATE/ico3lv.sol\":6432:6437  i < 3 */\n      lt\n        /* \"ICO AFFILIATE/ico3lv.sol\":6412:7112  for (uint256 i = 0; i < 3; i++) {... */\n      iszero\n      tag_256\n      jumpi\n        /* \"ICO AFFILIATE/ico3lv.sol\":6472:6473  0 */\n      0x00\n        /* \"ICO AFFILIATE/ico3lv.sol\":6454:6474  upline != address(0) */\n      0xffffffffffffffffffffffffffffffffffffffff\n      and\n        /* \"ICO AFFILIATE/ico3lv.sol\":6454:6460  upline */\n      dup3\n        /* \"ICO AFFILIATE/ico3lv.sol\":6454:6474  upline != address(0) */\n      0xffffffffffffffffffffffffffffffffffffffff\n      and\n      eq\n        /* \"ICO AFFILIATE/ico3lv.sol\":6450:7106  if (upline != address(0)) {... */\n      tag_258\n      jumpi\n        /* \"ICO AFFILIATE/ico3lv.sol\":6483:6497  uint256 amount */\n      0x00\n        /* \"ICO AFFILIATE/ico3lv.sol\":6500:6557  msg.value.mul(REFERRAL_PERCENTS[i]).div(PERCENTS_DIVIDER) */\n      tag_259\n        /* \"ICO AFFILIATE/ico3lv.sol\":1735:1739  1000 */\n      0x03e8\n        /* \"ICO AFFILIATE/ico3lv.sol\":6500:6535  msg.value.mul(REFERRAL_PERCENTS[i]) */\n      tag_260\n        /* \"ICO AFFILIATE/ico3lv.sol\":6514:6531  REFERRAL_PERCENTS */\n      0x00\n        /* \"ICO AFFILIATE/ico3lv.sol\":6532:6533  i */\n      dup6\n        /* \"ICO AFFILIATE/ico3lv.sol\":6514:6534  REFERRAL_PERCENTS[i] */\n      dup2\n      sload\n      dup2\n      lt\n      tag_261\n      jumpi\n      invalid\n    tag_261:\n      swap1\n      0x00\n      mstore\n      keccak256(0x00, 0x20)\n      add\n      sload\n        /* \"ICO AFFILIATE/ico3lv.sol\":6500:6509  msg.value */\n      callvalue\n        /* \"ICO AFFILIATE/ico3lv.sol\":6500:6513  msg.value.mul */\n      tag_263\n      swap1\n        /* \"ICO AFFILIATE/ico3lv.sol\":6500:6535  msg.value.mul(REFERRAL_PERCENTS[i]) */\n      swap2\n      swap1\n      0xffffffff\n      and\n      jump\t// in\n    tag_260:\n        /* \"ICO AFFILIATE/ico3lv.sol\":6500:6539  msg.value.mul(REFERRAL_PERCENTS[i]).div */\n      tag_264\n      swap1\n        /* \"ICO AFFILIATE/ico3lv.sol\":6500:6557  msg.value.mul(REFERRAL_PERCENTS[i]).div(PERCENTS_DIVIDER) */\n      swap2\n      swap1\n      0xffffffff\n      and\n      jump\t// in\n    tag_259:\n        /* \"ICO AFFILIATE/ico3lv.sol\":6483:6557  uint256 amount = msg.value.mul(REFERRAL_PERCENTS[i]).div(PERCENTS_DIVIDER) */\n      swap1\n      pop\n        /* \"ICO AFFILIATE/ico3lv.sol\":6580:6605  projectAmount.sub(amount) */\n      tag_265\n        /* \"ICO AFFILIATE/ico3lv.sol\":6598:6604  amount */\n      dup2\n        /* \"ICO AFFILIATE/ico3lv.sol\":6580:6593  projectAmount */\n      dup7\n        /* \"ICO AFFILIATE/ico3lv.sol\":6580:6597  projectAmount.sub */\n      tag_266\n      swap1\n        /* \"ICO AFFILIATE/ico3lv.sol\":6580:6605  projectAmount.sub(amount) */\n      swap2\n      swap1\n      0xffffffff\n      and\n      jump\t// in\n    tag_265:\n        /* \"ICO AFFILIATE/ico3lv.sol\":6564:6605  projectAmount = projectAmount.sub(amount) */\n      swap5\n      pop\n        /* \"ICO AFFILIATE/ico3lv.sol\":6719:6750  users[upline].bonus.add(amount) */\n      tag_267\n        /* \"ICO AFFILIATE/ico3lv.sol\":6743:6749  amount */\n      dup2\n        /* \"ICO AFFILIATE/ico3lv.sol\":6719:6724  users */\n      0x10\n        /* \"ICO AFFILIATE/ico3lv.sol\":6719:6732  users[upline] */\n      0x00\n        /* \"ICO AFFILIATE/ico3lv.sol\":6725:6731  upline */\n      dup7\n        /* \"ICO AFFILIATE/ico3lv.sol\":6719:6732  users[upline] */\n      0xffffffffffffffffffffffffffffffffffffffff\n      and\n      0xffffffffffffffffffffffffffffffffffffffff\n      and\n      dup2\n      mstore\n      0x20\n      add\n      swap1\n      dup2\n      mstore\n      0x20\n      add\n      0x00\n      keccak256\n        /* \"ICO AFFILIATE/ico3lv.sol\":6719:6738  users[upline].bonus */\n      0x06\n      add\n      sload\n        /* \"ICO AFFILIATE/ico3lv.sol\":6719:6742  users[upline].bonus.add */\n      tag_250\n      swap1\n        /* \"ICO AFFILIATE/ico3lv.sol\":6719:6750  users[upline].bonus.add(amount) */\n      swap2\n      swap1\n      0xffffffff\n      and\n      jump\t// in\n    tag_267:\n        /* \"ICO AFFILIATE/ico3lv.sol\":6697:6702  users */\n      0x10\n        /* \"ICO AFFILIATE/ico3lv.sol\":6697:6710  users[upline] */\n      0x00\n        /* \"ICO AFFILIATE/ico3lv.sol\":6703:6709  upline */\n      dup6\n        /* \"ICO AFFILIATE/ico3lv.sol\":6697:6710  users[upline] */\n      0xffffffffffffffffffffffffffffffffffffffff\n      and\n      0xffffffffffffffffffffffffffffffffffffffff\n      and\n      dup2\n      mstore\n      0x20\n      add\n      swap1\n      dup2\n      mstore\n      0x20\n      add\n      0x00\n      keccak256\n        /* \"ICO AFFILIATE/ico3lv.sol\":6697:6716  users[upline].bonus */\n      0x06\n      add\n        /* \"ICO AFFILIATE/ico3lv.sol\":6697:6750  users[upline].bonus = users[upline].bonus.add(amount) */\n      dup2\n      swap1\n      sstore\n      pop\n        /* \"ICO AFFILIATE/ico3lv.sol\":6784:6820  users[upline].totalBonus.add(amount) */\n      tag_268\n        /* \"ICO AFFILIATE/ico3lv.sol\":6813:6819  amount */\n      dup2\n        /* \"ICO AFFILIATE/ico3lv.sol\":6784:6789  users */\n      0x10\n        /* \"ICO AFFILIATE/ico3lv.sol\":6784:6797  users[upline] */\n      0x00\n        /* \"ICO AFFILIATE/ico3lv.sol\":6790:6796  upline */\n      dup7\n        /* \"ICO AFFILIATE/ico3lv.sol\":6784:6797  users[upline] */\n      0xffffffffffffffffffffffffffffffffffffffff\n      and\n      0xffffffffffffffffffffffffffffffffffffffff\n      and\n      dup2\n      mstore\n      0x20\n      add\n      swap1\n      dup2\n      mstore\n      0x20\n      add\n      0x00\n      keccak256\n        /* \"ICO AFFILIATE/ico3lv.sol\":6784:6808  users[upline].totalBonus */\n      0x07\n      add\n      sload\n        /* \"ICO AFFILIATE/ico3lv.sol\":6784:6812  users[upline].totalBonus.add */\n      tag_250\n      swap1\n        /* \"ICO AFFILIATE/ico3lv.sol\":6784:6820  users[upline].totalBonus.add(amount) */\n      swap2\n      swap1\n      0xffffffff\n      and\n      jump\t// in\n    tag_268:\n        /* \"ICO AFFILIATE/ico3lv.sol\":6757:6762  users */\n      0x10\n        /* \"ICO AFFILIATE/ico3lv.sol\":6757:6770  users[upline] */\n      0x00\n        /* \"ICO AFFILIATE/ico3lv.sol\":6763:6769  upline */\n      dup6\n        /* \"ICO AFFILIATE/ico3lv.sol\":6757:6770  users[upline] */\n      0xffffffffffffffffffffffffffffffffffffffff\n      and\n      0xffffffffffffffffffffffffffffffffffffffff\n      and\n      dup2\n      mstore\n      0x20\n      add\n      swap1\n      dup2\n      mstore\n      0x20\n      add\n      0x00\n      keccak256\n        /* \"ICO AFFILIATE/ico3lv.sol\":6757:6781  users[upline].totalBonus */\n      0x07\n      add\n        /* \"ICO AFFILIATE/ico3lv.sol\":6757:6820  users[upline].totalBonus = users[upline].totalBonus.add(amount) */\n      dup2\n      swap1\n      sstore\n      pop\n        /* \"ICO AFFILIATE/ico3lv.sol\":6834:6854  bool transferSuccess */\n      0x00\n        /* \"ICO AFFILIATE/ico3lv.sol\":6860:6866  upline */\n      dup4\n        /* \"ICO AFFILIATE/ico3lv.sol\":6860:6871  upline.call */\n      0xffffffffffffffffffffffffffffffffffffffff\n      and\n        /* \"ICO AFFILIATE/ico3lv.sol\":6879:6885  amount */\n      dup3\n        /* \"ICO AFFILIATE/ico3lv.sol\":6860:6890  upline.call{value: amount}(\"\") */\n      mload(0x40)\n      dup1\n      0x00\n      add\n      swap1\n      pop\n      0x00\n      mload(0x40)\n      dup1\n      dup4\n      sub\n      dup2\n      dup6\n      dup8\n      gas\n      call\n      swap3\n      pop\n      pop\n      pop\n      returndatasize\n      dup1\n      0x00\n      dup2\n      eq\n      tag_271\n      jumpi\n      mload(0x40)\n      swap2\n      pop\n      and(add(returndatasize, 0x3f), not(0x1f))\n      dup3\n      add\n      0x40\n      mstore\n      returndatasize\n      dup3\n      mstore\n      returndatasize\n      0x00\n      0x20\n      dup5\n      add\n      returndatacopy\n      jump(tag_270)\n    tag_271:\n      0x60\n      swap2\n      pop\n    tag_270:\n      pop\n        /* \"ICO AFFILIATE/ico3lv.sol\":6833:6890  (bool transferSuccess, ) = upline.call{value: amount}(\"\") */\n      pop\n      swap1\n      pop\n        /* \"ICO AFFILIATE/ico3lv.sol\":6929:6944  transferSuccess */\n      dup1\n        /* \"ICO AFFILIATE/ico3lv.sol\":6921:6965  require(transferSuccess, \"Failed to Invest\") */\n      tag_272\n      jumpi\n      mload(0x40)\n      0x08c379a000000000000000000000000000000000000000000000000000000000\n      dup2\n      mstore\n      0x04\n      add\n      dup1\n      dup1\n      0x20\n      add\n      dup3\n      dup2\n      sub\n      dup3\n      mstore\n      0x10\n      dup2\n      mstore\n      0x20\n      add\n      dup1\n      0x4661696c656420746f20496e7665737400000000000000000000000000000000\n      dup2\n      mstore\n      pop\n      0x20\n      add\n      swap2\n      pop\n      pop\n      mload(0x40)\n      dup1\n      swap2\n      sub\n      swap1\n      revert\n    tag_272:\n        /* \"ICO AFFILIATE/ico3lv.sol\":7007:7008  i */\n      dup3\n        /* \"ICO AFFILIATE/ico3lv.sol\":6995:7005  msg.sender */\n      caller\n        /* \"ICO AFFILIATE/ico3lv.sol\":6978:7017  RefBonus(upline, msg.sender, i, amount) */\n      0xffffffffffffffffffffffffffffffffffffffff\n      and\n        /* \"ICO AFFILIATE/ico3lv.sol\":6987:6993  upline */\n      dup6\n        /* \"ICO AFFILIATE/ico3lv.sol\":6978:7017  RefBonus(upline, msg.sender, i, amount) */\n      0xffffffffffffffffffffffffffffffffffffffff\n      and\n      0xd41f7e766eebcc7ff42b11ac8691bdf864db4afc0c55e71d629d54edce460d98\n        /* \"ICO AFFILIATE/ico3lv.sol\":7010:7016  amount */\n      dup6\n        /* \"ICO AFFILIATE/ico3lv.sol\":6978:7017  RefBonus(upline, msg.sender, i, amount) */\n      mload(0x40)\n      dup1\n      dup3\n      dup2\n      mstore\n      0x20\n      add\n      swap2\n      pop\n      pop\n      mload(0x40)\n      dup1\n      swap2\n      sub\n      swap1\n      log4\n        /* \"ICO AFFILIATE/ico3lv.sol\":7035:7040  users */\n      0x10\n        /* \"ICO AFFILIATE/ico3lv.sol\":7035:7048  users[upline] */\n      0x00\n        /* \"ICO AFFILIATE/ico3lv.sol\":7041:7047  upline */\n      dup6\n        /* \"ICO AFFILIATE/ico3lv.sol\":7035:7048  users[upline] */\n      0xffffffffffffffffffffffffffffffffffffffff\n      and\n      0xffffffffffffffffffffffffffffffffffffffff\n      and\n      dup2\n      mstore\n      0x20\n      add\n      swap1\n      dup2\n      mstore\n      0x20\n      add\n      0x00\n      keccak256\n        /* \"ICO AFFILIATE/ico3lv.sol\":7035:7057  users[upline].referrer */\n      0x02\n      add\n      0x00\n      swap1\n      sload\n      swap1\n      0x0100\n      exp\n      swap1\n      div\n      0xffffffffffffffffffffffffffffffffffffffff\n      and\n        /* \"ICO AFFILIATE/ico3lv.sol\":7026:7057  upline = users[upline].referrer */\n      swap4\n      pop\n        /* \"ICO AFFILIATE/ico3lv.sol\":6450:7106  if (upline != address(0)) {... */\n      pop\n      pop\n      jump(tag_273)\n    tag_258:\n        /* \"ICO AFFILIATE/ico3lv.sol\":7101:7106  break */\n      jump(tag_256)\n        /* \"ICO AFFILIATE/ico3lv.sol\":6450:7106  if (upline != address(0)) {... */\n    tag_273:\n        /* \"ICO AFFILIATE/ico3lv.sol\":6439:6442  i++ */\n      dup1\n      dup1\n      0x01\n      add\n      swap2\n      pop\n      pop\n        /* \"ICO AFFILIATE/ico3lv.sol\":6412:7112  for (uint256 i = 0; i < 3; i++) {... */\n      jump(tag_255)\n    tag_256:\n      pop\n        /* \"ICO AFFILIATE/ico3lv.sol\":6338:7117  if (user.referrer != address(0)) {... */\n      pop\n    tag_254:\n        /* \"ICO AFFILIATE/ico3lv.sol\":7149:7150  0 */\n      0x00\n        /* \"ICO AFFILIATE/ico3lv.sol\":7125:7129  user */\n      dup2\n        /* \"ICO AFFILIATE/ico3lv.sol\":7125:7138  user.deposits */\n      0x00\n      add\n        /* \"ICO AFFILIATE/ico3lv.sol\":7125:7145  user.deposits.length */\n      dup1\n      sload\n      swap1\n      pop\n        /* \"ICO AFFILIATE/ico3lv.sol\":7125:7150  user.deposits.length == 0 */\n      eq\n        /* \"ICO AFFILIATE/ico3lv.sol\":7121:7223  if (user.deposits.length == 0) {... */\n      iszero\n      tag_274\n      jumpi\n        /* \"ICO AFFILIATE/ico3lv.sol\":7175:7190  block.timestamp */\n      timestamp\n        /* \"ICO AFFILIATE/ico3lv.sol\":7157:7161  user */\n      dup2\n        /* \"ICO AFFILIATE/ico3lv.sol\":7157:7172  user.checkpoint */\n      0x01\n      add\n        /* \"ICO AFFILIATE/ico3lv.sol\":7157:7190  user.checkpoint = block.timestamp */\n      dup2\n      swap1\n      sstore\n      pop\n        /* \"ICO AFFILIATE/ico3lv.sol\":7200:7218  Newbie(msg.sender) */\n      0x9fd565cd14c3c391679eb0cad12a14dcf7534e9d3462bcb9b67a098a9bbbc24a\n        /* \"ICO AFFILIATE/ico3lv.sol\":7207:7217  msg.sender */\n      caller\n        /* \"ICO AFFILIATE/ico3lv.sol\":7200:7218  Newbie(msg.sender) */\n      mload(0x40)\n      dup1\n      dup3\n      0xffffffffffffffffffffffffffffffffffffffff\n      and\n      dup2\n      mstore\n      0x20\n      add\n      swap2\n      pop\n      pop\n      mload(0x40)\n      dup1\n      swap2\n      sub\n      swap1\n      log1\n        /* \"ICO AFFILIATE/ico3lv.sol\":7121:7223  if (user.deposits.length == 0) {... */\n    tag_274:\n        /* \"ICO AFFILIATE/ico3lv.sol\":7228:7243  uint256 percent */\n      0x00\n        /* \"ICO AFFILIATE/ico3lv.sol\":7245:7259  uint256 profit */\n      dup1\n        /* \"ICO AFFILIATE/ico3lv.sol\":7261:7275  uint256 finish */\n      0x00\n        /* \"ICO AFFILIATE/ico3lv.sol\":7279:7305  getResult(plan, msg.value) */\n      tag_275\n        /* \"ICO AFFILIATE/ico3lv.sol\":7289:7293  plan */\n      dup7\n        /* \"ICO AFFILIATE/ico3lv.sol\":7295:7304  msg.value */\n      callvalue\n        /* \"ICO AFFILIATE/ico3lv.sol\":7279:7288  getResult */\n      tag_123\n        /* \"ICO AFFILIATE/ico3lv.sol\":7279:7305  getResult(plan, msg.value) */\n      jump\t// in\n    tag_275:\n        /* \"ICO AFFILIATE/ico3lv.sol\":7227:7305  (uint256 percent, uint256 profit, uint256 finish) = getResult(plan, msg.value) */\n      swap3\n      pop\n      swap3\n      pop\n      swap3\n      pop\n        /* \"ICO AFFILIATE/ico3lv.sol\":7309:7313  user */\n      dup4\n        /* \"ICO AFFILIATE/ico3lv.sol\":7309:7322  user.deposits */\n      0x00\n      add\n        /* \"ICO AFFILIATE/ico3lv.sol\":7328:7394  Deposit(plan, percent, msg.value, profit, block.timestamp, finish) */\n      mload(0x40)\n      dup1\n      0xc0\n      add\n      0x40\n      mstore\n      dup1\n        /* \"ICO AFFILIATE/ico3lv.sol\":7336:7340  plan */\n      dup9\n        /* \"ICO AFFILIATE/ico3lv.sol\":7328:7394  Deposit(plan, percent, msg.value, profit, block.timestamp, finish) */\n      0xff\n      and\n      dup2\n      mstore\n      0x20\n      add\n        /* \"ICO AFFILIATE/ico3lv.sol\":7342:7349  percent */\n      dup6\n        /* \"ICO AFFILIATE/ico3lv.sol\":7328:7394  Deposit(plan, percent, msg.value, profit, block.timestamp, finish) */\n      dup2\n      mstore\n      0x20\n      add\n        /* \"ICO AFFILIATE/ico3lv.sol\":7351:7360  msg.value */\n      callvalue\n        /* \"ICO AFFILIATE/ico3lv.sol\":7328:7394  Deposit(plan, percent, msg.value, profit, block.timestamp, finish) */\n      dup2\n      mstore\n      0x20\n      add\n        /* \"ICO AFFILIATE/ico3lv.sol\":7362:7368  profit */\n      dup5\n        /* \"ICO AFFILIATE/ico3lv.sol\":7328:7394  Deposit(plan, percent, msg.value, profit, block.timestamp, finish) */\n      dup2\n      mstore\n      0x20\n      add\n        /* \"ICO AFFILIATE/ico3lv.sol\":7370:7385  block.timestamp */\n      timestamp\n        /* \"ICO AFFILIATE/ico3lv.sol\":7328:7394  Deposit(plan, percent, msg.value, profit, block.timestamp, finish) */\n      dup2\n      mstore\n      0x20\n      add\n        /* \"ICO AFFILIATE/ico3lv.sol\":7387:7393  finish */\n      dup4\n        /* \"ICO AFFILIATE/ico3lv.sol\":7328:7394  Deposit(plan, percent, msg.value, profit, block.timestamp, finish) */\n      dup2\n      mstore\n      pop\n        /* \"ICO AFFILIATE/ico3lv.sol\":7309:7395  user.deposits.push(Deposit(plan, percent, msg.value, profit, block.timestamp, finish)) */\n      swap1\n      dup1\n      0x01\n      dup2\n      sload\n      add\n      dup1\n      dup3\n      sstore\n      dup1\n      swap2\n      pop\n      pop\n      0x01\n      swap1\n      sub\n      swap1\n      0x00\n      mstore\n      keccak256(0x00, 0x20)\n      swap1\n      0x06\n      mul\n      add\n      0x00\n      swap1\n      swap2\n      swap1\n      swap2\n      swap1\n      swap2\n      pop\n      0x00\n      dup3\n      add\n      mload\n      dup2\n      0x00\n      add\n      exp(0x0100, 0x00)\n      dup2\n      sload\n      dup2\n      0xff\n      mul\n      not\n      and\n      swap1\n      dup4\n      0xff\n      and\n      mul\n      or\n      swap1\n      sstore\n      pop\n      0x20\n      dup3\n      add\n      mload\n      dup2\n      0x01\n      add\n      sstore\n      0x40\n      dup3\n      add\n      mload\n      dup2\n      0x02\n      add\n      sstore\n      0x60\n      dup3\n      add\n      mload\n      dup2\n      0x03\n      add\n      sstore\n      0x80\n      dup3\n      add\n      mload\n      dup2\n      0x04\n      add\n      sstore\n      0xa0\n      dup3\n      add\n      mload\n      dup2\n      0x05\n      add\n      sstore\n      pop\n      pop\n        /* \"ICO AFFILIATE/ico3lv.sol\":7414:7440  totalStaked.add(msg.value) */\n      tag_277\n        /* \"ICO AFFILIATE/ico3lv.sol\":7430:7439  msg.value */\n      callvalue\n        /* \"ICO AFFILIATE/ico3lv.sol\":7414:7425  totalStaked */\n      sload(0x01)\n        /* \"ICO AFFILIATE/ico3lv.sol\":7414:7429  totalStaked.add */\n      tag_250\n      swap1\n        /* \"ICO AFFILIATE/ico3lv.sol\":7414:7440  totalStaked.add(msg.value) */\n      swap2\n      swap1\n      0xffffffff\n      and\n      jump\t// in\n    tag_277:\n        /* \"ICO AFFILIATE/ico3lv.sol\":7400:7411  totalStaked */\n      0x01\n        /* \"ICO AFFILIATE/ico3lv.sol\":7400:7440  totalStaked = totalStaked.add(msg.value) */\n      dup2\n      swap1\n      sstore\n      pop\n        /* \"ICO AFFILIATE/ico3lv.sol\":7460:7470  msg.sender */\n      caller\n        /* \"ICO AFFILIATE/ico3lv.sol\":7449:7530  NewDeposit(msg.sender, plan, percent, msg.value, profit, block.timestamp, finish) */\n      0xffffffffffffffffffffffffffffffffffffffff\n      and\n      0x84e02daa69bdb087c9fe8d3041abca495512cb14e723070f6d1d4efface82e5d\n        /* \"ICO AFFILIATE/ico3lv.sol\":7472:7476  plan */\n      dup8\n        /* \"ICO AFFILIATE/ico3lv.sol\":7478:7485  percent */\n      dup6\n        /* \"ICO AFFILIATE/ico3lv.sol\":7487:7496  msg.value */\n      callvalue\n        /* \"ICO AFFILIATE/ico3lv.sol\":7498:7504  profit */\n      dup7\n        /* \"ICO AFFILIATE/ico3lv.sol\":7506:7521  block.timestamp */\n      timestamp\n        /* \"ICO AFFILIATE/ico3lv.sol\":7523:7529  finish */\n      dup8\n        /* \"ICO AFFILIATE/ico3lv.sol\":7449:7530  NewDeposit(msg.sender, plan, percent, msg.value, profit, block.timestamp, finish) */\n      mload(0x40)\n      dup1\n      dup8\n      0xff\n      and\n      dup2\n      mstore\n      0x20\n      add\n      dup7\n      dup2\n      mstore\n      0x20\n      add\n      dup6\n      dup2\n      mstore\n      0x20\n      add\n      dup5\n      dup2\n      mstore\n      0x20\n      add\n      dup4\n      dup2\n      mstore\n      0x20\n      add\n      dup3\n      dup2\n      mstore\n      0x20\n      add\n      swap7\n      pop\n      pop\n      pop\n      pop\n      pop\n      pop\n      pop\n      mload(0x40)\n      dup1\n      swap2\n      sub\n      swap1\n      log2\n        /* \"ICO AFFILIATE/ico3lv.sol\":7581:7594  State.RUNNING */\n      0x01\n        /* \"ICO AFFILIATE/ico3lv.sol\":7569:7594  ICOState == State.RUNNING */\n      0x03\n      dup2\n      gt\n      iszero\n      tag_278\n      jumpi\n      invalid\n    tag_278:\n        /* \"ICO AFFILIATE/ico3lv.sol\":7569:7577  ICOState */\n      0x0e\n      0x00\n      swap1\n      sload\n      swap1\n      0x0100\n      exp\n      swap1\n      div\n      0xff\n      and\n        /* \"ICO AFFILIATE/ico3lv.sol\":7569:7594  ICOState == State.RUNNING */\n      0x03\n      dup2\n      gt\n      iszero\n      tag_279\n      jumpi\n      invalid\n    tag_279:\n      eq\n        /* \"ICO AFFILIATE/ico3lv.sol\":7561:7616  require(ICOState == State.RUNNING, \"ICO isn't running\") */\n      tag_280\n      jumpi\n      mload(0x40)\n      0x08c379a000000000000000000000000000000000000000000000000000000000\n      dup2\n      mstore\n      0x04\n      add\n      dup1\n      dup1\n      0x20\n      add\n      dup3\n      dup2\n      sub\n      dup3\n      mstore\n      0x11\n      dup2\n      mstore\n      0x20\n      add\n      dup1\n      0x49434f2069736e27742072756e6e696e67000000000000000000000000000000\n      dup2\n      mstore\n      pop\n      0x20\n      add\n      swap2\n      pop\n      pop\n      mload(0x40)\n      dup1\n      swap2\n      sub\n      swap1\n      revert\n    tag_280:\n        /* \"ICO AFFILIATE/ico3lv.sol\":7660:7673  minInvestment */\n      sload(0x09)\n        /* \"ICO AFFILIATE/ico3lv.sol\":7647:7656  msg.value */\n      callvalue\n        /* \"ICO AFFILIATE/ico3lv.sol\":7647:7673  msg.value >= minInvestment */\n      lt\n      iszero\n        /* \"ICO AFFILIATE/ico3lv.sol\":7647:7703  msg.value >= minInvestment && msg.value <= maxInvestment */\n      dup1\n      iszero\n      tag_281\n      jumpi\n      pop\n        /* \"ICO AFFILIATE/ico3lv.sol\":7690:7703  maxInvestment */\n      sload(0x0a)\n        /* \"ICO AFFILIATE/ico3lv.sol\":7677:7686  msg.value */\n      callvalue\n        /* \"ICO AFFILIATE/ico3lv.sol\":7677:7703  msg.value <= maxInvestment */\n      gt\n      iszero\n        /* \"ICO AFFILIATE/ico3lv.sol\":7647:7703  msg.value >= minInvestment && msg.value <= maxInvestment */\n    tag_281:\n        /* \"ICO AFFILIATE/ico3lv.sol\":7626:7757  require(... */\n      tag_282\n      jumpi\n      mload(0x40)\n      0x08c379a000000000000000000000000000000000000000000000000000000000\n      dup2\n      mstore\n      0x04\n      add\n      dup1\n      dup1\n      0x20\n      add\n      dup3\n      dup2\n      sub\n      dup3\n      mstore\n      0x1c\n      dup2\n      mstore\n      0x20\n      add\n      dup1\n      0x436865636b204d696e20616e64204d617820496e766573746d656e7400000000\n      dup2\n      mstore\n      pop\n      0x20\n      add\n      swap2\n      pop\n      pop\n      mload(0x40)\n      dup1\n      swap2\n      sub\n      swap1\n      revert\n    tag_282:\n        /* \"ICO AFFILIATE/ico3lv.sol\":7832:7845  maxInvestment */\n      sload(0x0a)\n        /* \"ICO AFFILIATE/ico3lv.sol\":7819:7828  msg.value */\n      callvalue\n        /* \"ICO AFFILIATE/ico3lv.sol\":7788:7804  investedAmountOf */\n      0x0d\n        /* \"ICO AFFILIATE/ico3lv.sol\":7788:7816  investedAmountOf[msg.sender] */\n      0x00\n        /* \"ICO AFFILIATE/ico3lv.sol\":7805:7815  msg.sender */\n      caller\n        /* \"ICO AFFILIATE/ico3lv.sol\":7788:7816  investedAmountOf[msg.sender] */\n      0xffffffffffffffffffffffffffffffffffffffff\n      and\n      0xffffffffffffffffffffffffffffffffffffffff\n      and\n      dup2\n      mstore\n      0x20\n      add\n      swap1\n      dup2\n      mstore\n      0x20\n      add\n      0x00\n      keccak256\n      sload\n        /* \"ICO AFFILIATE/ico3lv.sol\":7788:7828  investedAmountOf[msg.sender] + msg.value */\n      add\n        /* \"ICO AFFILIATE/ico3lv.sol\":7788:7845  investedAmountOf[msg.sender] + msg.value <= maxInvestment */\n      gt\n      iszero\n        /* \"ICO AFFILIATE/ico3lv.sol\":7767:7913  require(... */\n      tag_283\n      jumpi\n      mload(0x40)\n      0x08c379a000000000000000000000000000000000000000000000000000000000\n      dup2\n      mstore\n      0x04\n      add\n      dup1\n      dup1\n      0x20\n      add\n      dup3\n      dup2\n      sub\n      dup3\n      mstore\n      0x2a\n      dup2\n      mstore\n      0x20\n      add\n      dup1\n      data_b19041b147863dd1e2485ec122191c4070e71be557889d8f39b29cf78e2bf81d\n      0x2a\n      swap2\n      codecopy\n      0x40\n      add\n      swap2\n      pop\n      pop\n      mload(0x40)\n      dup1\n      swap2\n      sub\n      swap1\n      revert\n    tag_283:\n        /* \"ICO AFFILIATE/ico3lv.sol\":7973:7980  hardCap */\n      sload(0x07)\n        /* \"ICO AFFILIATE/ico3lv.sol\":7960:7969  msg.value */\n      callvalue\n        /* \"ICO AFFILIATE/ico3lv.sol\":7945:7957  raisedAmount */\n      sload(0x08)\n        /* \"ICO AFFILIATE/ico3lv.sol\":7945:7969  raisedAmount + msg.value */\n      add\n        /* \"ICO AFFILIATE/ico3lv.sol\":7945:7980  raisedAmount + msg.value <= hardCap */\n      gt\n      iszero\n        /* \"ICO AFFILIATE/ico3lv.sol\":7924:8031  require(... */\n      tag_284\n      jumpi\n      mload(0x40)\n      0x08c379a000000000000000000000000000000000000000000000000000000000\n      dup2\n      mstore\n      0x04\n      add\n      dup1\n      dup1\n      0x20\n      add\n      dup3\n      dup2\n      sub\n      dup3\n      mstore\n      0x19\n      dup2\n      mstore\n      0x20\n      add\n      dup1\n      0x53656e642077697468696e20686172646361702072616e676500000000000000\n      dup2\n      mstore\n      pop\n      0x20\n      add\n      swap2\n      pop\n      pop\n      mload(0x40)\n      dup1\n      swap2\n      sub\n      swap1\n      revert\n    tag_284:\n        /* \"ICO AFFILIATE/ico3lv.sol\":8081:8091  icoEndTime */\n      sload(0x0c)\n        /* \"ICO AFFILIATE/ico3lv.sol\":8062:8077  block.timestamp */\n      timestamp\n        /* \"ICO AFFILIATE/ico3lv.sol\":8062:8091  block.timestamp <= icoEndTime */\n      gt\n      iszero\n        /* \"ICO AFFILIATE/ico3lv.sol\":8041:8155  require(... */\n      tag_285\n      jumpi\n      mload(0x40)\n      0x08c379a000000000000000000000000000000000000000000000000000000000\n      dup2\n      mstore\n      0x04\n      add\n      dup1\n      dup1\n      0x20\n      add\n      dup3\n      dup2\n      sub\n      dup3\n      mstore\n      0x26\n      dup2\n      mstore\n      0x20\n      add\n      dup1\n      data_f13fcb773ad89e9f621cb28d77b09fbd23fdcc64ec1eb1ebce4ad7e788cdc486\n      0x26\n      swap2\n      codecopy\n      0x40\n      add\n      swap2\n      pop\n      pop\n      mload(0x40)\n      dup1\n      swap2\n      sub\n      swap1\n      revert\n    tag_285:\n        /* \"ICO AFFILIATE/ico3lv.sol\":8182:8191  msg.value */\n      callvalue\n        /* \"ICO AFFILIATE/ico3lv.sol\":8166:8178  raisedAmount */\n      0x08\n      0x00\n        /* \"ICO AFFILIATE/ico3lv.sol\":8166:8191  raisedAmount += msg.value */\n      dup3\n      dup3\n      sload\n      add\n      swap3\n      pop\n      pop\n      dup2\n      swap1\n      sstore\n      pop\n        /* \"ICO AFFILIATE/ico3lv.sol\":8233:8242  msg.value */\n      callvalue\n        /* \"ICO AFFILIATE/ico3lv.sol\":8201:8217  investedAmountOf */\n      0x0d\n        /* \"ICO AFFILIATE/ico3lv.sol\":8201:8229  investedAmountOf[msg.sender] */\n      0x00\n        /* \"ICO AFFILIATE/ico3lv.sol\":8218:8228  msg.sender */\n      caller\n        /* \"ICO AFFILIATE/ico3lv.sol\":8201:8229  investedAmountOf[msg.sender] */\n      0xffffffffffffffffffffffffffffffffffffffff\n      and\n      0xffffffffffffffffffffffffffffffffffffffff\n      and\n      dup2\n      mstore\n      0x20\n      add\n      swap1\n      dup2\n      mstore\n      0x20\n      add\n      0x00\n      keccak256\n      0x00\n        /* \"ICO AFFILIATE/ico3lv.sol\":8201:8242  investedAmountOf[msg.sender] += msg.value */\n      dup3\n      dup3\n      sload\n      add\n      swap3\n      pop\n      pop\n      dup2\n      swap1\n      sstore\n      pop\n        /* \"ICO AFFILIATE/ico3lv.sol\":8254:8274  bool transferSuccess */\n      0x00\n        /* \"ICO AFFILIATE/ico3lv.sol\":8280:8289  ICOWallet */\n      0x04\n      0x00\n      swap1\n      sload\n      swap1\n      0x0100\n      exp\n      swap1\n      div\n      0xffffffffffffffffffffffffffffffffffffffff\n      and\n        /* \"ICO AFFILIATE/ico3lv.sol\":8280:8294  ICOWallet.call */\n      0xffffffffffffffffffffffffffffffffffffffff\n      and\n        /* \"ICO AFFILIATE/ico3lv.sol\":8302:8315  projectAmount */\n      dup7\n        /* \"ICO AFFILIATE/ico3lv.sol\":8280:8320  ICOWallet.call{value: projectAmount}(\"\") */\n      mload(0x40)\n      dup1\n      0x00\n      add\n      swap1\n      pop\n      0x00\n      mload(0x40)\n      dup1\n      dup4\n      sub\n      dup2\n      dup6\n      dup8\n      gas\n      call\n      swap3\n      pop\n      pop\n      pop\n      returndatasize\n      dup1\n      0x00\n      dup2\n      eq\n      tag_288\n      jumpi\n      mload(0x40)\n      swap2\n      pop\n      and(add(returndatasize, 0x3f), not(0x1f))\n      dup3\n      add\n      0x40\n      mstore\n      returndatasize\n      dup3\n      mstore\n      returndatasize\n      0x00\n      0x20\n      dup5\n      add\n      returndatacopy\n      jump(tag_287)\n    tag_288:\n      0x60\n      swap2\n      pop\n    tag_287:\n      pop\n        /* \"ICO AFFILIATE/ico3lv.sol\":8253:8320  (bool transferSuccess, ) = ICOWallet.call{value: projectAmount}(\"\") */\n      pop\n      swap1\n      pop\n        /* \"ICO AFFILIATE/ico3lv.sol\":8338:8353  transferSuccess */\n      dup1\n        /* \"ICO AFFILIATE/ico3lv.sol\":8330:8374  require(transferSuccess, \"Failed to Invest\") */\n      tag_289\n      jumpi\n      mload(0x40)\n      0x08c379a000000000000000000000000000000000000000000000000000000000\n      dup2\n      mstore\n      0x04\n      add\n      dup1\n      dup1\n      0x20\n      add\n      dup3\n      dup2\n      sub\n      dup3\n      mstore\n      0x10\n      dup2\n      mstore\n      0x20\n      add\n      dup1\n      0x4661696c656420746f20496e7665737400000000000000000000000000000000\n      dup2\n      mstore\n      pop\n      0x20\n      add\n      swap2\n      pop\n      pop\n      mload(0x40)\n      dup1\n      swap2\n      sub\n      swap1\n      revert\n    tag_289:\n        /* \"ICO AFFILIATE/ico3lv.sol\":8385:8396  uint tokens */\n      0x00\n        /* \"ICO AFFILIATE/ico3lv.sol\":8426:8430  1e18 */\n      0x0de0b6b3a7640000\n        /* \"ICO AFFILIATE/ico3lv.sol\":8412:8422  tokenPrice */\n      sload(0x06)\n        /* \"ICO AFFILIATE/ico3lv.sol\":8400:8409  msg.value */\n      callvalue\n        /* \"ICO AFFILIATE/ico3lv.sol\":8400:8422  msg.value / tokenPrice */\n      dup2\n      tag_290\n      jumpi\n      invalid\n    tag_290:\n      div\n        /* \"ICO AFFILIATE/ico3lv.sol\":8399:8430  (msg.value / tokenPrice) * 1e18 */\n      mul\n        /* \"ICO AFFILIATE/ico3lv.sol\":8385:8430  uint tokens = (msg.value / tokenPrice) * 1e18 */\n      swap1\n      pop\n        /* \"ICO AFFILIATE/ico3lv.sol\":8440:8456  bool saleSuccess */\n      0x00\n        /* \"ICO AFFILIATE/ico3lv.sol\":8459:8464  token */\n      0x05\n      0x00\n      swap1\n      sload\n      swap1\n      0x0100\n      exp\n      swap1\n      div\n      0xffffffffffffffffffffffffffffffffffffffff\n      and\n        /* \"ICO AFFILIATE/ico3lv.sol\":8459:8473  token.transfer */\n      0xffffffffffffffffffffffffffffffffffffffff\n      and\n      0xa9059cbb\n        /* \"ICO AFFILIATE/ico3lv.sol\":8474:8484  msg.sender */\n      caller\n        /* \"ICO AFFILIATE/ico3lv.sol\":8486:8492  tokens */\n      dup5\n        /* \"ICO AFFILIATE/ico3lv.sol\":8459:8493  token.transfer(msg.sender, tokens) */\n      mload(0x40)\n      dup4\n      0xffffffff\n      and\n      0xe0\n      shl\n      dup2\n      mstore\n      0x04\n      add\n      dup1\n      dup4\n      0xffffffffffffffffffffffffffffffffffffffff\n      and\n      dup2\n      mstore\n      0x20\n      add\n      dup3\n      dup2\n      mstore\n      0x20\n      add\n      swap3\n      pop\n      pop\n      pop\n      0x20\n      mload(0x40)\n      dup1\n      dup4\n      sub\n      dup2\n      0x00\n      dup8\n      dup1\n      extcodesize\n      iszero\n      dup1\n      iszero\n      tag_291\n      jumpi\n      0x00\n      dup1\n      revert\n    tag_291:\n      pop\n      gas\n      call\n      iszero\n      dup1\n      iszero\n      tag_293\n      jumpi\n      returndatasize\n      0x00\n      dup1\n      returndatacopy\n      revert(0x00, returndatasize)\n    tag_293:\n      pop\n      pop\n      pop\n      pop\n      mload(0x40)\n      returndatasize\n      0x20\n      dup2\n      lt\n      iszero\n      tag_294\n      jumpi\n      0x00\n      dup1\n      revert\n    tag_294:\n      dup2\n      add\n      swap1\n      dup1\n      dup1\n      mload\n      swap1\n      0x20\n      add\n      swap1\n      swap3\n      swap2\n      swap1\n      pop\n      pop\n      pop\n        /* \"ICO AFFILIATE/ico3lv.sol\":8440:8493  bool saleSuccess = token.transfer(msg.sender, tokens) */\n      swap1\n      pop\n        /* \"ICO AFFILIATE/ico3lv.sol\":8511:8522  saleSuccess */\n      dup1\n        /* \"ICO AFFILIATE/ico3lv.sol\":8503:8543  require(saleSuccess, \"Failed to Invest\") */\n      tag_295\n      jumpi\n      mload(0x40)\n      0x08c379a000000000000000000000000000000000000000000000000000000000\n      dup2\n      mstore\n      0x04\n      add\n      dup1\n      dup1\n      0x20\n      add\n      dup3\n      dup2\n      sub\n      dup3\n      mstore\n      0x10\n      dup2\n      mstore\n      0x20\n      add\n      dup1\n      0x4661696c656420746f20496e7665737400000000000000000000000000000000\n      dup2\n      mstore\n      pop\n      0x20\n      add\n      swap2\n      pop\n      pop\n      mload(0x40)\n      dup1\n      swap2\n      sub\n      swap1\n      revert\n    tag_295:\n        /* \"ICO AFFILIATE/ico3lv.sol\":8581:8591  msg.sender */\n      caller\n        /* \"ICO AFFILIATE/ico3lv.sol\":8559:8611  Invest(address(this), msg.sender, msg.value, tokens) */\n      0xffffffffffffffffffffffffffffffffffffffff\n      and\n        /* \"ICO AFFILIATE/ico3lv.sol\":8574:8578  this */\n      address\n        /* \"ICO AFFILIATE/ico3lv.sol\":8559:8611  Invest(address(this), msg.sender, msg.value, tokens) */\n      0xffffffffffffffffffffffffffffffffffffffff\n      and\n      0x2e206bbdd5787cd6d3e97144dec044f9f15dd77a257afd27fa70cad6f03feae3\n        /* \"ICO AFFILIATE/ico3lv.sol\":8593:8602  msg.value */\n      callvalue\n        /* \"ICO AFFILIATE/ico3lv.sol\":8604:8610  tokens */\n      dup6\n        /* \"ICO AFFILIATE/ico3lv.sol\":8559:8611  Invest(address(this), msg.sender, msg.value, tokens) */\n      mload(0x40)\n      dup1\n      dup4\n      dup2\n      mstore\n      0x20\n      add\n      dup3\n      dup2\n      mstore\n      0x20\n      add\n      swap3\n      pop\n      pop\n      pop\n      mload(0x40)\n      dup1\n      swap2\n      sub\n      swap1\n      log3\n        /* \"ICO AFFILIATE/ico3lv.sol\":8628:8632  true */\n      0x01\n        /* \"ICO AFFILIATE/ico3lv.sol\":8621:8632  return true */\n      swap10\n      pop\n      pop\n      pop\n      pop\n      pop\n      pop\n      pop\n      pop\n      pop\n      pop\n        /* \"ICO AFFILIATE/ico3lv.sol\":5538:8636  function invest(address referrer) public payable returns (bool){... */\n      swap2\n      swap1\n      pop\n      jump\t// out\n        /* \"ICO AFFILIATE/ico3lv.sol\":10385:11250  function getUserDividends(address userAddress) public view returns (uint256) {... */\n    tag_84:\n        /* \"ICO AFFILIATE/ico3lv.sol\":10453:10460  uint256 */\n      0x00\n        /* \"ICO AFFILIATE/ico3lv.sol\":10466:10483  User storage user */\n      dup1\n        /* \"ICO AFFILIATE/ico3lv.sol\":10486:10491  users */\n      0x10\n        /* \"ICO AFFILIATE/ico3lv.sol\":10486:10504  users[userAddress] */\n      0x00\n        /* \"ICO AFFILIATE/ico3lv.sol\":10492:10503  userAddress */\n      dup5\n        /* \"ICO AFFILIATE/ico3lv.sol\":10486:10504  users[userAddress] */\n      0xffffffffffffffffffffffffffffffffffffffff\n      and\n      0xffffffffffffffffffffffffffffffffffffffff\n      and\n      dup2\n      mstore\n      0x20\n      add\n      swap1\n      dup2\n      mstore\n      0x20\n      add\n      0x00\n      keccak256\n        /* \"ICO AFFILIATE/ico3lv.sol\":10466:10504  User storage user = users[userAddress] */\n      swap1\n      pop\n        /* \"ICO AFFILIATE/ico3lv.sol\":10509:10528  uint256 totalAmount */\n      0x00\n        /* \"ICO AFFILIATE/ico3lv.sol\":10538:10547  uint256 i */\n      dup1\n        /* \"ICO AFFILIATE/ico3lv.sol\":10550:10551  0 */\n      0x00\n        /* \"ICO AFFILIATE/ico3lv.sol\":10538:10551  uint256 i = 0 */\n      swap1\n      pop\n        /* \"ICO AFFILIATE/ico3lv.sol\":10533:11224  for (uint256 i = 0; i < user.deposits.length; i++) {... */\n    tag_297:\n        /* \"ICO AFFILIATE/ico3lv.sol\":10557:10561  user */\n      dup3\n        /* \"ICO AFFILIATE/ico3lv.sol\":10557:10570  user.deposits */\n      0x00\n      add\n        /* \"ICO AFFILIATE/ico3lv.sol\":10557:10577  user.deposits.length */\n      dup1\n      sload\n      swap1\n      pop\n        /* \"ICO AFFILIATE/ico3lv.sol\":10553:10554  i */\n      dup2\n        /* \"ICO AFFILIATE/ico3lv.sol\":10553:10577  i < user.deposits.length */\n      lt\n        /* \"ICO AFFILIATE/ico3lv.sol\":10533:11224  for (uint256 i = 0; i < user.deposits.length; i++) {... */\n      iszero\n      tag_298\n      jumpi\n        /* \"ICO AFFILIATE/ico3lv.sol\":10611:10615  user */\n      dup3\n        /* \"ICO AFFILIATE/ico3lv.sol\":10611:10624  user.deposits */\n      0x00\n      add\n        /* \"ICO AFFILIATE/ico3lv.sol\":10625:10626  i */\n      dup2\n        /* \"ICO AFFILIATE/ico3lv.sol\":10611:10627  user.deposits[i] */\n      dup2\n      sload\n      dup2\n      lt\n      tag_300\n      jumpi\n      invalid\n    tag_300:\n      swap1\n      0x00\n      mstore\n      keccak256(0x00, 0x20)\n      swap1\n      0x06\n      mul\n      add\n        /* \"ICO AFFILIATE/ico3lv.sol\":10611:10634  user.deposits[i].finish */\n      0x05\n      add\n      sload\n        /* \"ICO AFFILIATE/ico3lv.sol\":10593:10597  user */\n      dup4\n        /* \"ICO AFFILIATE/ico3lv.sol\":10593:10608  user.checkpoint */\n      0x01\n      add\n      sload\n        /* \"ICO AFFILIATE/ico3lv.sol\":10593:10634  user.checkpoint < user.deposits[i].finish */\n      lt\n        /* \"ICO AFFILIATE/ico3lv.sol\":10589:11220  if (user.checkpoint < user.deposits[i].finish) {... */\n      iszero\n      tag_302\n      jumpi\n        /* \"ICO AFFILIATE/ico3lv.sol\":10670:10671  3 */\n      0x03\n        /* \"ICO AFFILIATE/ico3lv.sol\":10646:10650  user */\n      dup4\n        /* \"ICO AFFILIATE/ico3lv.sol\":10646:10659  user.deposits */\n      0x00\n      add\n        /* \"ICO AFFILIATE/ico3lv.sol\":10660:10661  i */\n      dup3\n        /* \"ICO AFFILIATE/ico3lv.sol\":10646:10662  user.deposits[i] */\n      dup2\n      sload\n      dup2\n      lt\n      tag_303\n      jumpi\n      invalid\n    tag_303:\n      swap1\n      0x00\n      mstore\n      keccak256(0x00, 0x20)\n      swap1\n      0x06\n      mul\n      add\n        /* \"ICO AFFILIATE/ico3lv.sol\":10646:10667  user.deposits[i].plan */\n      0x00\n      add\n      0x00\n      swap1\n      sload\n      swap1\n      0x0100\n      exp\n      swap1\n      div\n      0xff\n      and\n        /* \"ICO AFFILIATE/ico3lv.sol\":10646:10671  user.deposits[i].plan < 3 */\n      0xff\n      and\n      lt\n        /* \"ICO AFFILIATE/ico3lv.sol\":10642:11215  if (user.deposits[i].plan < 3) {... */\n      iszero\n      tag_305\n      jumpi\n        /* \"ICO AFFILIATE/ico3lv.sol\":10680:10693  uint256 share */\n      0x00\n        /* \"ICO AFFILIATE/ico3lv.sol\":10696:10771  user.deposits[i].amount.mul(user.deposits[i].percent).div(PERCENTS_DIVIDER) */\n      tag_306\n        /* \"ICO AFFILIATE/ico3lv.sol\":1735:1739  1000 */\n      0x03e8\n        /* \"ICO AFFILIATE/ico3lv.sol\":10696:10749  user.deposits[i].amount.mul(user.deposits[i].percent) */\n      tag_307\n        /* \"ICO AFFILIATE/ico3lv.sol\":10724:10728  user */\n      dup7\n        /* \"ICO AFFILIATE/ico3lv.sol\":10724:10737  user.deposits */\n      0x00\n      add\n        /* \"ICO AFFILIATE/ico3lv.sol\":10738:10739  i */\n      dup6\n        /* \"ICO AFFILIATE/ico3lv.sol\":10724:10740  user.deposits[i] */\n      dup2\n      sload\n      dup2\n      lt\n      tag_308\n      jumpi\n      invalid\n    tag_308:\n      swap1\n      0x00\n      mstore\n      keccak256(0x00, 0x20)\n      swap1\n      0x06\n      mul\n      add\n        /* \"ICO AFFILIATE/ico3lv.sol\":10724:10748  user.deposits[i].percent */\n      0x01\n      add\n      sload\n        /* \"ICO AFFILIATE/ico3lv.sol\":10696:10700  user */\n      dup8\n        /* \"ICO AFFILIATE/ico3lv.sol\":10696:10709  user.deposits */\n      0x00\n      add\n        /* \"ICO AFFILIATE/ico3lv.sol\":10710:10711  i */\n      dup7\n        /* \"ICO AFFILIATE/ico3lv.sol\":10696:10712  user.deposits[i] */\n      dup2\n      sload\n      dup2\n      lt\n      tag_310\n      jumpi\n      invalid\n    tag_310:\n      swap1\n      0x00\n      mstore\n      keccak256(0x00, 0x20)\n      swap1\n      0x06\n      mul\n      add\n        /* \"ICO AFFILIATE/ico3lv.sol\":10696:10719  user.deposits[i].amount */\n      0x02\n      add\n      sload\n        /* \"ICO AFFILIATE/ico3lv.sol\":10696:10723  user.deposits[i].amount.mul */\n      tag_263\n      swap1\n        /* \"ICO AFFILIATE/ico3lv.sol\":10696:10749  user.deposits[i].amount.mul(user.deposits[i].percent) */\n      swap2\n      swap1\n      0xffffffff\n      and\n      jump\t// in\n    tag_307:\n        /* \"ICO AFFILIATE/ico3lv.sol\":10696:10753  user.deposits[i].amount.mul(user.deposits[i].percent).div */\n      tag_264\n      swap1\n        /* \"ICO AFFILIATE/ico3lv.sol\":10696:10771  user.deposits[i].amount.mul(user.deposits[i].percent).div(PERCENTS_DIVIDER) */\n      swap2\n      swap1\n      0xffffffff\n      and\n      jump\t// in\n    tag_306:\n        /* \"ICO AFFILIATE/ico3lv.sol\":10680:10771  uint256 share = user.deposits[i].amount.mul(user.deposits[i].percent).div(PERCENTS_DIVIDER) */\n      swap1\n      pop\n        /* \"ICO AFFILIATE/ico3lv.sol\":10778:10790  uint256 from */\n      0x00\n        /* \"ICO AFFILIATE/ico3lv.sol\":10818:10822  user */\n      dup5\n        /* \"ICO AFFILIATE/ico3lv.sol\":10818:10833  user.checkpoint */\n      0x01\n      add\n      sload\n        /* \"ICO AFFILIATE/ico3lv.sol\":10793:10797  user */\n      dup6\n        /* \"ICO AFFILIATE/ico3lv.sol\":10793:10806  user.deposits */\n      0x00\n      add\n        /* \"ICO AFFILIATE/ico3lv.sol\":10807:10808  i */\n      dup5\n        /* \"ICO AFFILIATE/ico3lv.sol\":10793:10809  user.deposits[i] */\n      dup2\n      sload\n      dup2\n      lt\n      tag_312\n      jumpi\n      invalid\n    tag_312:\n      swap1\n      0x00\n      mstore\n      keccak256(0x00, 0x20)\n      swap1\n      0x06\n      mul\n      add\n        /* \"ICO AFFILIATE/ico3lv.sol\":10793:10815  user.deposits[i].start */\n      0x04\n      add\n      sload\n        /* \"ICO AFFILIATE/ico3lv.sol\":10793:10833  user.deposits[i].start > user.checkpoint */\n      gt\n        /* \"ICO AFFILIATE/ico3lv.sol\":10793:10876  user.deposits[i].start > user.checkpoint ? user.deposits[i].start : user.checkpoint */\n      tag_314\n      jumpi\n        /* \"ICO AFFILIATE/ico3lv.sol\":10861:10865  user */\n      dup5\n        /* \"ICO AFFILIATE/ico3lv.sol\":10861:10876  user.checkpoint */\n      0x01\n      add\n      sload\n        /* \"ICO AFFILIATE/ico3lv.sol\":10793:10876  user.deposits[i].start > user.checkpoint ? user.deposits[i].start : user.checkpoint */\n      jump(tag_315)\n    tag_314:\n        /* \"ICO AFFILIATE/ico3lv.sol\":10836:10840  user */\n      dup5\n        /* \"ICO AFFILIATE/ico3lv.sol\":10836:10849  user.deposits */\n      0x00\n      add\n        /* \"ICO AFFILIATE/ico3lv.sol\":10850:10851  i */\n      dup4\n        /* \"ICO AFFILIATE/ico3lv.sol\":10836:10852  user.deposits[i] */\n      dup2\n      sload\n      dup2\n      lt\n      tag_316\n      jumpi\n      invalid\n    tag_316:\n      swap1\n      0x00\n      mstore\n      keccak256(0x00, 0x20)\n      swap1\n      0x06\n      mul\n      add\n        /* \"ICO AFFILIATE/ico3lv.sol\":10836:10858  user.deposits[i].start */\n      0x04\n      add\n      sload\n        /* \"ICO AFFILIATE/ico3lv.sol\":10793:10876  user.deposits[i].start > user.checkpoint ? user.deposits[i].start : user.checkpoint */\n    tag_315:\n        /* \"ICO AFFILIATE/ico3lv.sol\":10778:10876  uint256 from = user.deposits[i].start > user.checkpoint ? user.deposits[i].start : user.checkpoint */\n      swap1\n      pop\n        /* \"ICO AFFILIATE/ico3lv.sol\":10883:10893  uint256 to */\n      0x00\n        /* \"ICO AFFILIATE/ico3lv.sol\":10922:10937  block.timestamp */\n      timestamp\n        /* \"ICO AFFILIATE/ico3lv.sol\":10896:10900  user */\n      dup7\n        /* \"ICO AFFILIATE/ico3lv.sol\":10896:10909  user.deposits */\n      0x00\n      add\n        /* \"ICO AFFILIATE/ico3lv.sol\":10910:10911  i */\n      dup6\n        /* \"ICO AFFILIATE/ico3lv.sol\":10896:10912  user.deposits[i] */\n      dup2\n      sload\n      dup2\n      lt\n      tag_318\n      jumpi\n      invalid\n    tag_318:\n      swap1\n      0x00\n      mstore\n      keccak256(0x00, 0x20)\n      swap1\n      0x06\n      mul\n      add\n        /* \"ICO AFFILIATE/ico3lv.sol\":10896:10919  user.deposits[i].finish */\n      0x05\n      add\n      sload\n        /* \"ICO AFFILIATE/ico3lv.sol\":10896:10937  user.deposits[i].finish < block.timestamp */\n      lt\n        /* \"ICO AFFILIATE/ico3lv.sol\":10896:10981  user.deposits[i].finish < block.timestamp ? user.deposits[i].finish : block.timestamp */\n      tag_320\n      jumpi\n        /* \"ICO AFFILIATE/ico3lv.sol\":10966:10981  block.timestamp */\n      timestamp\n        /* \"ICO AFFILIATE/ico3lv.sol\":10896:10981  user.deposits[i].finish < block.timestamp ? user.deposits[i].finish : block.timestamp */\n      jump(tag_321)\n    tag_320:\n        /* \"ICO AFFILIATE/ico3lv.sol\":10940:10944  user */\n      dup6\n        /* \"ICO AFFILIATE/ico3lv.sol\":10940:10953  user.deposits */\n      0x00\n      add\n        /* \"ICO AFFILIATE/ico3lv.sol\":10954:10955  i */\n      dup5\n        /* \"ICO AFFILIATE/ico3lv.sol\":10940:10956  user.deposits[i] */\n      dup2\n      sload\n      dup2\n      lt\n      tag_322\n      jumpi\n      invalid\n    tag_322:\n      swap1\n      0x00\n      mstore\n      keccak256(0x00, 0x20)\n      swap1\n      0x06\n      mul\n      add\n        /* \"ICO AFFILIATE/ico3lv.sol\":10940:10963  user.deposits[i].finish */\n      0x05\n      add\n      sload\n        /* \"ICO AFFILIATE/ico3lv.sol\":10896:10981  user.deposits[i].finish < block.timestamp ? user.deposits[i].finish : block.timestamp */\n    tag_321:\n        /* \"ICO AFFILIATE/ico3lv.sol\":10883:10981  uint256 to = user.deposits[i].finish < block.timestamp ? user.deposits[i].finish : block.timestamp */\n      swap1\n      pop\n        /* \"ICO AFFILIATE/ico3lv.sol\":10999:11001  to */\n      dup1\n        /* \"ICO AFFILIATE/ico3lv.sol\":10992:10996  from */\n      dup3\n        /* \"ICO AFFILIATE/ico3lv.sol\":10992:11001  from < to */\n      lt\n        /* \"ICO AFFILIATE/ico3lv.sol\":10988:11088  if (from < to) {... */\n      iszero\n      tag_324\n      jumpi\n        /* \"ICO AFFILIATE/ico3lv.sol\":11025:11080  totalAmount.add(share.mul(to.sub(from)).div(TIME_STEP)) */\n      tag_325\n        /* \"ICO AFFILIATE/ico3lv.sol\":11041:11079  share.mul(to.sub(from)).div(TIME_STEP) */\n      tag_326\n        /* \"ICO AFFILIATE/ico3lv.sol\":1778:1784  1 days */\n      0x015180\n        /* \"ICO AFFILIATE/ico3lv.sol\":11041:11064  share.mul(to.sub(from)) */\n      tag_327\n        /* \"ICO AFFILIATE/ico3lv.sol\":11051:11063  to.sub(from) */\n      tag_328\n        /* \"ICO AFFILIATE/ico3lv.sol\":11058:11062  from */\n      dup7\n        /* \"ICO AFFILIATE/ico3lv.sol\":11051:11053  to */\n      dup7\n        /* \"ICO AFFILIATE/ico3lv.sol\":11051:11057  to.sub */\n      tag_266\n      swap1\n        /* \"ICO AFFILIATE/ico3lv.sol\":11051:11063  to.sub(from) */\n      swap2\n      swap1\n      0xffffffff\n      and\n      jump\t// in\n    tag_328:\n        /* \"ICO AFFILIATE/ico3lv.sol\":11041:11046  share */\n      dup8\n        /* \"ICO AFFILIATE/ico3lv.sol\":11041:11050  share.mul */\n      tag_263\n      swap1\n        /* \"ICO AFFILIATE/ico3lv.sol\":11041:11064  share.mul(to.sub(from)) */\n      swap2\n      swap1\n      0xffffffff\n      and\n      jump\t// in\n    tag_327:\n        /* \"ICO AFFILIATE/ico3lv.sol\":11041:11068  share.mul(to.sub(from)).div */\n      tag_264\n      swap1\n        /* \"ICO AFFILIATE/ico3lv.sol\":11041:11079  share.mul(to.sub(from)).div(TIME_STEP) */\n      swap2\n      swap1\n      0xffffffff\n      and\n      jump\t// in\n    tag_326:\n        /* \"ICO AFFILIATE/ico3lv.sol\":11025:11036  totalAmount */\n      dup7\n        /* \"ICO AFFILIATE/ico3lv.sol\":11025:11040  totalAmount.add */\n      tag_250\n      swap1\n        /* \"ICO AFFILIATE/ico3lv.sol\":11025:11080  totalAmount.add(share.mul(to.sub(from)).div(TIME_STEP)) */\n      swap2\n      swap1\n      0xffffffff\n      and\n      jump\t// in\n    tag_325:\n        /* \"ICO AFFILIATE/ico3lv.sol\":11011:11080  totalAmount = totalAmount.add(share.mul(to.sub(from)).div(TIME_STEP)) */\n      swap5\n      pop\n        /* \"ICO AFFILIATE/ico3lv.sol\":10988:11088  if (from < to) {... */\n    tag_324:\n        /* \"ICO AFFILIATE/ico3lv.sol\":10642:11215  if (user.deposits[i].plan < 3) {... */\n      pop\n      pop\n      pop\n      jump(tag_329)\n    tag_305:\n        /* \"ICO AFFILIATE/ico3lv.sol\":11122:11126  user */\n      dup3\n        /* \"ICO AFFILIATE/ico3lv.sol\":11122:11135  user.deposits */\n      0x00\n      add\n        /* \"ICO AFFILIATE/ico3lv.sol\":11136:11137  i */\n      dup2\n        /* \"ICO AFFILIATE/ico3lv.sol\":11122:11138  user.deposits[i] */\n      dup2\n      sload\n      dup2\n      lt\n      tag_330\n      jumpi\n      invalid\n    tag_330:\n      swap1\n      0x00\n      mstore\n      keccak256(0x00, 0x20)\n      swap1\n      0x06\n      mul\n      add\n        /* \"ICO AFFILIATE/ico3lv.sol\":11122:11145  user.deposits[i].finish */\n      0x05\n      add\n      sload\n        /* \"ICO AFFILIATE/ico3lv.sol\":11104:11119  block.timestamp */\n      timestamp\n        /* \"ICO AFFILIATE/ico3lv.sol\":11104:11145  block.timestamp > user.deposits[i].finish */\n      gt\n        /* \"ICO AFFILIATE/ico3lv.sol\":11100:11215  if (block.timestamp > user.deposits[i].finish) {... */\n      iszero\n      tag_332\n      jumpi\n        /* \"ICO AFFILIATE/ico3lv.sol\":11168:11208  totalAmount.add(user.deposits[i].profit) */\n      tag_333\n        /* \"ICO AFFILIATE/ico3lv.sol\":11184:11188  user */\n      dup4\n        /* \"ICO AFFILIATE/ico3lv.sol\":11184:11197  user.deposits */\n      0x00\n      add\n        /* \"ICO AFFILIATE/ico3lv.sol\":11198:11199  i */\n      dup3\n        /* \"ICO AFFILIATE/ico3lv.sol\":11184:11200  user.deposits[i] */\n      dup2\n      sload\n      dup2\n      lt\n      tag_334\n      jumpi\n      invalid\n    tag_334:\n      swap1\n      0x00\n      mstore\n      keccak256(0x00, 0x20)\n      swap1\n      0x06\n      mul\n      add\n        /* \"ICO AFFILIATE/ico3lv.sol\":11184:11207  user.deposits[i].profit */\n      0x03\n      add\n      sload\n        /* \"ICO AFFILIATE/ico3lv.sol\":11168:11179  totalAmount */\n      dup4\n        /* \"ICO AFFILIATE/ico3lv.sol\":11168:11183  totalAmount.add */\n      tag_250\n      swap1\n        /* \"ICO AFFILIATE/ico3lv.sol\":11168:11208  totalAmount.add(user.deposits[i].profit) */\n      swap2\n      swap1\n      0xffffffff\n      and\n      jump\t// in\n    tag_333:\n        /* \"ICO AFFILIATE/ico3lv.sol\":11154:11208  totalAmount = totalAmount.add(user.deposits[i].profit) */\n      swap2\n      pop\n        /* \"ICO AFFILIATE/ico3lv.sol\":11100:11215  if (block.timestamp > user.deposits[i].finish) {... */\n    tag_332:\n        /* \"ICO AFFILIATE/ico3lv.sol\":10642:11215  if (user.deposits[i].plan < 3) {... */\n    tag_329:\n        /* \"ICO AFFILIATE/ico3lv.sol\":10589:11220  if (user.checkpoint < user.deposits[i].finish) {... */\n    tag_302:\n        /* \"ICO AFFILIATE/ico3lv.sol\":10579:10582  i++ */\n      dup1\n      dup1\n      0x01\n      add\n      swap2\n      pop\n      pop\n        /* \"ICO AFFILIATE/ico3lv.sol\":10533:11224  for (uint256 i = 0; i < user.deposits.length; i++) {... */\n      jump(tag_297)\n    tag_298:\n      pop\n        /* \"ICO AFFILIATE/ico3lv.sol\":11235:11246  totalAmount */\n      dup1\n        /* \"ICO AFFILIATE/ico3lv.sol\":11228:11246  return totalAmount */\n      swap3\n      pop\n      pop\n      pop\n        /* \"ICO AFFILIATE/ico3lv.sol\":10385:11250  function getUserDividends(address userAddress) public view returns (uint256) {... */\n      swap2\n      swap1\n      pop\n      jump\t// out\n        /* \"ICO AFFILIATE/ico3lv.sol\":4924:5071  function haltICO() external onlyAdmin {... */\n    tag_87:\n        /* \"ICO AFFILIATE/ico3lv.sol\":4023:4028  admin */\n      0x03\n      0x00\n      swap1\n      sload\n      swap1\n      0x0100\n      exp\n      swap1\n      div\n      0xffffffffffffffffffffffffffffffffffffffff\n      and\n        /* \"ICO AFFILIATE/ico3lv.sol\":4009:4028  msg.sender == admin */\n      0xffffffffffffffffffffffffffffffffffffffff\n      and\n        /* \"ICO AFFILIATE/ico3lv.sol\":4009:4019  msg.sender */\n      caller\n        /* \"ICO AFFILIATE/ico3lv.sol\":4009:4028  msg.sender == admin */\n      0xffffffffffffffffffffffffffffffffffffffff\n      and\n      eq\n        /* \"ICO AFFILIATE/ico3lv.sol\":4001:4052  require(msg.sender == admin, \"Admin Only function\") */\n      tag_337\n      jumpi\n      mload(0x40)\n      0x08c379a000000000000000000000000000000000000000000000000000000000\n      dup2\n      mstore\n      0x04\n      add\n      dup1\n      dup1\n      0x20\n      add\n      dup3\n      dup2\n      sub\n      dup3\n      mstore\n      0x13\n      dup2\n      mstore\n      0x20\n      add\n      dup1\n      0x41646d696e204f6e6c792066756e6374696f6e00000000000000000000000000\n      dup2\n      mstore\n      pop\n      0x20\n      add\n      swap2\n      pop\n      pop\n      mload(0x40)\n      dup1\n      swap2\n      sub\n      swap1\n      revert\n    tag_337:\n        /* \"ICO AFFILIATE/ico3lv.sol\":4992:5005  State.RUNNING */\n      0x01\n        /* \"ICO AFFILIATE/ico3lv.sol\":4980:5005  ICOState == State.RUNNING */\n      0x03\n      dup2\n      gt\n      iszero\n      tag_339\n      jumpi\n      invalid\n    tag_339:\n        /* \"ICO AFFILIATE/ico3lv.sol\":4980:4988  ICOState */\n      0x0e\n      0x00\n      swap1\n      sload\n      swap1\n      0x0100\n      exp\n      swap1\n      div\n      0xff\n      and\n        /* \"ICO AFFILIATE/ico3lv.sol\":4980:5005  ICOState == State.RUNNING */\n      0x03\n      dup2\n      gt\n      iszero\n      tag_340\n      jumpi\n      invalid\n    tag_340:\n      eq\n        /* \"ICO AFFILIATE/ico3lv.sol\":4972:5031  require(ICOState == State.RUNNING, \"ICO isn't running yet\") */\n      tag_341\n      jumpi\n      mload(0x40)\n      0x08c379a000000000000000000000000000000000000000000000000000000000\n      dup2\n      mstore\n      0x04\n      add\n      dup1\n      dup1\n      0x20\n      add\n      dup3\n      dup2\n      sub\n      dup3\n      mstore\n      0x15\n      dup2\n      mstore\n      0x20\n      add\n      dup1\n      0x49434f2069736e27742072756e6e696e67207965740000000000000000000000\n      dup2\n      mstore\n      pop\n      0x20\n      add\n      swap2\n      pop\n      pop\n      mload(0x40)\n      dup1\n      swap2\n      sub\n      swap1\n      revert\n    tag_341:\n        /* \"ICO AFFILIATE/ico3lv.sol\":5052:5064  State.HALTED */\n      0x03\n        /* \"ICO AFFILIATE/ico3lv.sol\":5041:5049  ICOState */\n      0x0e\n      0x00\n        /* \"ICO AFFILIATE/ico3lv.sol\":5041:5064  ICOState = State.HALTED */\n      0x0100\n      exp\n      dup2\n      sload\n      dup2\n      0xff\n      mul\n      not\n      and\n      swap1\n      dup4\n      0x03\n      dup2\n      gt\n      iszero\n      tag_342\n      jumpi\n      invalid\n    tag_342:\n      mul\n      or\n      swap1\n      sstore\n      pop\n        /* \"ICO AFFILIATE/ico3lv.sol\":4924:5071  function haltICO() external onlyAdmin {... */\n      jump\t// out\n        /* \"ICO AFFILIATE/ico3lv.sol\":12118:12277  function getUserAvailable(address userAddress) public view returns(uint256) {... */\n    tag_91:\n        /* \"ICO AFFILIATE/ico3lv.sol\":12185:12192  uint256 */\n      0x00\n        /* \"ICO AFFILIATE/ico3lv.sol\":12205:12273  getUserReferralBonus(userAddress).add(getUserDividends(userAddress)) */\n      tag_344\n        /* \"ICO AFFILIATE/ico3lv.sol\":12243:12272  getUserDividends(userAddress) */\n      tag_345\n        /* \"ICO AFFILIATE/ico3lv.sol\":12260:12271  userAddress */\n      dup4\n        /* \"ICO AFFILIATE/ico3lv.sol\":12243:12259  getUserDividends */\n      tag_84\n        /* \"ICO AFFILIATE/ico3lv.sol\":12243:12272  getUserDividends(userAddress) */\n      jump\t// in\n    tag_345:\n        /* \"ICO AFFILIATE/ico3lv.sol\":12205:12238  getUserReferralBonus(userAddress) */\n      tag_346\n        /* \"ICO AFFILIATE/ico3lv.sol\":12226:12237  userAddress */\n      dup5\n        /* \"ICO AFFILIATE/ico3lv.sol\":12205:12225  getUserReferralBonus */\n      tag_217\n        /* \"ICO AFFILIATE/ico3lv.sol\":12205:12238  getUserReferralBonus(userAddress) */\n      jump\t// in\n    tag_346:\n        /* \"ICO AFFILIATE/ico3lv.sol\":12205:12242  getUserReferralBonus(userAddress).add */\n      tag_250\n      swap1\n        /* \"ICO AFFILIATE/ico3lv.sol\":12205:12273  getUserReferralBonus(userAddress).add(getUserDividends(userAddress)) */\n      swap2\n      swap1\n      0xffffffff\n      and\n      jump\t// in\n    tag_344:\n        /* \"ICO AFFILIATE/ico3lv.sol\":12198:12273  return getUserReferralBonus(userAddress).add(getUserDividends(userAddress)) */\n      swap1\n      pop\n        /* \"ICO AFFILIATE/ico3lv.sol\":12118:12277  function getUserAvailable(address userAddress) public view returns(uint256) {... */\n      swap2\n      swap1\n      pop\n      jump\t// out\n        /* \"ICO AFFILIATE/ico3lv.sol\":2239:2287  mapping(address => uint) public investedAmountOf */\n    tag_95:\n      mstore(0x20, 0x0d)\n      dup1\n      0x00\n      mstore\n      keccak256(0x00, 0x40)\n      0x00\n      swap2\n      pop\n      swap1\n      pop\n      sload\n      dup2\n      jump\t// out\n        /* \"ICO AFFILIATE/ico3lv.sol\":4265:4611  function getICOState() external view returns (string memory) {... */\n    tag_98:\n        /* \"ICO AFFILIATE/ico3lv.sol\":4311:4324  string memory */\n      0x60\n        /* \"ICO AFFILIATE/ico3lv.sol\":4352:4364  State.BEFORE */\n      0x00\n        /* \"ICO AFFILIATE/ico3lv.sol\":4340:4364  ICOState == State.BEFORE */\n      0x03\n      dup2\n      gt\n      iszero\n      tag_348\n      jumpi\n      invalid\n    tag_348:\n        /* \"ICO AFFILIATE/ico3lv.sol\":4340:4348  ICOState */\n      0x0e\n      0x00\n      swap1\n      sload\n      swap1\n      0x0100\n      exp\n      swap1\n      div\n      0xff\n      and\n        /* \"ICO AFFILIATE/ico3lv.sol\":4340:4364  ICOState == State.BEFORE */\n      0x03\n      dup2\n      gt\n      iszero\n      tag_349\n      jumpi\n      invalid\n    tag_349:\n      eq\n        /* \"ICO AFFILIATE/ico3lv.sol\":4336:4605  if (ICOState == State.BEFORE) {... */\n      iszero\n      tag_350\n      jumpi\n        /* \"ICO AFFILIATE/ico3lv.sol\":4380:4400  return \"Not Started\" */\n      mload(0x40)\n      dup1\n      0x40\n      add\n      0x40\n      mstore\n      dup1\n      0x0b\n      dup2\n      mstore\n      0x20\n      add\n      0x4e6f742053746172746564000000000000000000000000000000000000000000\n      dup2\n      mstore\n      pop\n      swap1\n      pop\n      jump(tag_347)\n        /* \"ICO AFFILIATE/ico3lv.sol\":4336:4605  if (ICOState == State.BEFORE) {... */\n    tag_350:\n        /* \"ICO AFFILIATE/ico3lv.sol\":4433:4446  State.RUNNING */\n      0x01\n        /* \"ICO AFFILIATE/ico3lv.sol\":4421:4446  ICOState == State.RUNNING */\n      0x03\n      dup2\n      gt\n      iszero\n      tag_352\n      jumpi\n      invalid\n    tag_352:\n        /* \"ICO AFFILIATE/ico3lv.sol\":4421:4429  ICOState */\n      0x0e\n      0x00\n      swap1\n      sload\n      swap1\n      0x0100\n      exp\n      swap1\n      div\n      0xff\n      and\n        /* \"ICO AFFILIATE/ico3lv.sol\":4421:4446  ICOState == State.RUNNING */\n      0x03\n      dup2\n      gt\n      iszero\n      tag_353\n      jumpi\n      invalid\n    tag_353:\n      eq\n        /* \"ICO AFFILIATE/ico3lv.sol\":4417:4605  if (ICOState == State.RUNNING) {... */\n      iszero\n      tag_354\n      jumpi\n        /* \"ICO AFFILIATE/ico3lv.sol\":4462:4478  return \"Running\" */\n      mload(0x40)\n      dup1\n      0x40\n      add\n      0x40\n      mstore\n      dup1\n      0x07\n      dup2\n      mstore\n      0x20\n      add\n      0x52756e6e696e6700000000000000000000000000000000000000000000000000\n      dup2\n      mstore\n      pop\n      swap1\n      pop\n      jump(tag_347)\n        /* \"ICO AFFILIATE/ico3lv.sol\":4417:4605  if (ICOState == State.RUNNING) {... */\n    tag_354:\n        /* \"ICO AFFILIATE/ico3lv.sol\":4511:4520  State.END */\n      0x02\n        /* \"ICO AFFILIATE/ico3lv.sol\":4499:4520  ICOState == State.END */\n      0x03\n      dup2\n      gt\n      iszero\n      tag_356\n      jumpi\n      invalid\n    tag_356:\n        /* \"ICO AFFILIATE/ico3lv.sol\":4499:4507  ICOState */\n      0x0e\n      0x00\n      swap1\n      sload\n      swap1\n      0x0100\n      exp\n      swap1\n      div\n      0xff\n      and\n        /* \"ICO AFFILIATE/ico3lv.sol\":4499:4520  ICOState == State.END */\n      0x03\n      dup2\n      gt\n      iszero\n      tag_357\n      jumpi\n      invalid\n    tag_357:\n      eq\n        /* \"ICO AFFILIATE/ico3lv.sol\":4495:4605  if (ICOState == State.END) {... */\n      iszero\n      tag_358\n      jumpi\n        /* \"ICO AFFILIATE/ico3lv.sol\":4536:4548  return \"End\" */\n      mload(0x40)\n      dup1\n      0x40\n      add\n      0x40\n      mstore\n      dup1\n      0x03\n      dup2\n      mstore\n      0x20\n      add\n      0x456e640000000000000000000000000000000000000000000000000000000000\n      dup2\n      mstore\n      pop\n      swap1\n      pop\n      jump(tag_347)\n        /* \"ICO AFFILIATE/ico3lv.sol\":4495:4605  if (ICOState == State.END) {... */\n    tag_358:\n        /* \"ICO AFFILIATE/ico3lv.sol\":4579:4594  return \"Halted\" */\n      mload(0x40)\n      dup1\n      0x40\n      add\n      0x40\n      mstore\n      dup1\n      0x06\n      dup2\n      mstore\n      0x20\n      add\n      0x48616c7465640000000000000000000000000000000000000000000000000000\n      dup2\n      mstore\n      pop\n      swap1\n      pop\n        /* \"ICO AFFILIATE/ico3lv.sol\":4265:4611  function getICOState() external view returns (string memory) {... */\n    tag_347:\n      swap1\n      jump\t// out\n        /* \"ICO AFFILIATE/ico3lv.sol\":1742:1784  uint256 constant public TIME_STEP = 1 days */\n    tag_105:\n        /* \"ICO AFFILIATE/ico3lv.sol\":1778:1784  1 days */\n      0x015180\n        /* \"ICO AFFILIATE/ico3lv.sol\":1742:1784  uint256 constant public TIME_STEP = 1 days */\n      dup2\n      jump\t// out\n        /* \"ICO AFFILIATE/ico3lv.sol\":11377:11494  function getUserReferrer(address userAddress) public view returns(address) {... */\n    tag_109:\n        /* \"ICO AFFILIATE/ico3lv.sol\":11443:11450  address */\n      0x00\n        /* \"ICO AFFILIATE/ico3lv.sol\":11463:11468  users */\n      0x10\n        /* \"ICO AFFILIATE/ico3lv.sol\":11463:11481  users[userAddress] */\n      0x00\n        /* \"ICO AFFILIATE/ico3lv.sol\":11469:11480  userAddress */\n      dup4\n        /* \"ICO AFFILIATE/ico3lv.sol\":11463:11481  users[userAddress] */\n      0xffffffffffffffffffffffffffffffffffffffff\n      and\n      0xffffffffffffffffffffffffffffffffffffffff\n      and\n      dup2\n      mstore\n      0x20\n      add\n      swap1\n      dup2\n      mstore\n      0x20\n      add\n      0x00\n      keccak256\n        /* \"ICO AFFILIATE/ico3lv.sol\":11463:11490  users[userAddress].referrer */\n      0x02\n      add\n      0x00\n      swap1\n      sload\n      swap1\n      0x0100\n      exp\n      swap1\n      div\n      0xffffffffffffffffffffffffffffffffffffffff\n      and\n        /* \"ICO AFFILIATE/ico3lv.sol\":11456:11490  return users[userAddress].referrer */\n      swap1\n      pop\n        /* \"ICO AFFILIATE/ico3lv.sol\":11377:11494  function getUserReferrer(address userAddress) public view returns(address) {... */\n      swap2\n      swap1\n      pop\n      jump\t// out\n        /* \"ICO AFFILIATE/ico3lv.sol\":13296:13690  function burn() external returns (bool) {... */\n    tag_112:\n        /* \"ICO AFFILIATE/ico3lv.sol\":13330:13334  bool */\n      0x00\n        /* \"ICO AFFILIATE/ico3lv.sol\":13366:13375  State.END */\n      0x02\n        /* \"ICO AFFILIATE/ico3lv.sol\":13354:13375  ICOState == State.END */\n      0x03\n      dup2\n      gt\n      iszero\n      tag_362\n      jumpi\n      invalid\n    tag_362:\n        /* \"ICO AFFILIATE/ico3lv.sol\":13354:13362  ICOState */\n      0x0e\n      0x00\n      swap1\n      sload\n      swap1\n      0x0100\n      exp\n      swap1\n      div\n      0xff\n      and\n        /* \"ICO AFFILIATE/ico3lv.sol\":13354:13375  ICOState == State.END */\n      0x03\n      dup2\n      gt\n      iszero\n      tag_363\n      jumpi\n      invalid\n    tag_363:\n      eq\n        /* \"ICO AFFILIATE/ico3lv.sol\":13346:13398  require(ICOState == State.END, \"ICO isn't over yet\") */\n      tag_364\n      jumpi\n      mload(0x40)\n      0x08c379a000000000000000000000000000000000000000000000000000000000\n      dup2\n      mstore\n      0x04\n      add\n      dup1\n      dup1\n      0x20\n      add\n      dup3\n      dup2\n      sub\n      dup3\n      mstore\n      0x12\n      dup2\n      mstore\n      0x20\n      add\n      dup1\n      0x49434f2069736e2774206f766572207965740000000000000000000000000000\n      dup2\n      mstore\n      pop\n      0x20\n      add\n      swap2\n      pop\n      pop\n      mload(0x40)\n      dup1\n      swap2\n      sub\n      swap1\n      revert\n    tag_364:\n        /* \"ICO AFFILIATE/ico3lv.sol\":13409:13429  uint remainingTokens */\n      0x00\n        /* \"ICO AFFILIATE/ico3lv.sol\":13432:13437  token */\n      0x05\n      0x00\n      swap1\n      sload\n      swap1\n      0x0100\n      exp\n      swap1\n      div\n      0xffffffffffffffffffffffffffffffffffffffff\n      and\n        /* \"ICO AFFILIATE/ico3lv.sol\":13432:13447  token.balanceOf */\n      0xffffffffffffffffffffffffffffffffffffffff\n      and\n      0x70a08231\n        /* \"ICO AFFILIATE/ico3lv.sol\":13456:13460  this */\n      address\n        /* \"ICO AFFILIATE/ico3lv.sol\":13432:13462  token.balanceOf(address(this)) */\n      mload(0x40)\n      dup3\n      0xffffffff\n      and\n      0xe0\n      shl\n      dup2\n      mstore\n      0x04\n      add\n      dup1\n      dup3\n      0xffffffffffffffffffffffffffffffffffffffff\n      and\n      dup2\n      mstore\n      0x20\n      add\n      swap2\n      pop\n      pop\n      0x20\n      mload(0x40)\n      dup1\n      dup4\n      sub\n      dup2\n      dup7\n      dup1\n      extcodesize\n      iszero\n      dup1\n      iszero\n      tag_365\n      jumpi\n      0x00\n      dup1\n      revert\n    tag_365:\n      pop\n      gas\n      staticcall\n      iszero\n      dup1\n      iszero\n      tag_367\n      jumpi\n      returndatasize\n      0x00\n      dup1\n      returndatacopy\n      revert(0x00, returndatasize)\n    tag_367:\n      pop\n      pop\n      pop\n      pop\n      mload(0x40)\n      returndatasize\n      0x20\n      dup2\n      lt\n      iszero\n      tag_368\n      jumpi\n      0x00\n      dup1\n      revert\n    tag_368:\n      dup2\n      add\n      swap1\n      dup1\n      dup1\n      mload\n      swap1\n      0x20\n      add\n      swap1\n      swap3\n      swap2\n      swap1\n      pop\n      pop\n      pop\n        /* \"ICO AFFILIATE/ico3lv.sol\":13409:13462  uint remainingTokens = token.balanceOf(address(this)) */\n      swap1\n      pop\n        /* \"ICO AFFILIATE/ico3lv.sol\":13472:13484  bool success */\n      0x00\n        /* \"ICO AFFILIATE/ico3lv.sol\":13487:13492  token */\n      0x05\n      0x00\n      swap1\n      sload\n      swap1\n      0x0100\n      exp\n      swap1\n      div\n      0xffffffffffffffffffffffffffffffffffffffff\n      and\n        /* \"ICO AFFILIATE/ico3lv.sol\":13487:13501  token.transfer */\n      0xffffffffffffffffffffffffffffffffffffffff\n      and\n      0xa9059cbb\n        /* \"ICO AFFILIATE/ico3lv.sol\":13510:13511  0 */\n      0x00\n        /* \"ICO AFFILIATE/ico3lv.sol\":13514:13529  remainingTokens */\n      dup5\n        /* \"ICO AFFILIATE/ico3lv.sol\":13487:13530  token.transfer(address(0), remainingTokens) */\n      mload(0x40)\n      dup4\n      0xffffffff\n      and\n      0xe0\n      shl\n      dup2\n      mstore\n      0x04\n      add\n      dup1\n      dup4\n      0xffffffffffffffffffffffffffffffffffffffff\n      and\n      dup2\n      mstore\n      0x20\n      add\n      dup3\n      dup2\n      mstore\n      0x20\n      add\n      swap3\n      pop\n      pop\n      pop\n      0x20\n      mload(0x40)\n      dup1\n      dup4\n      sub\n      dup2\n      0x00\n      dup8\n      dup1\n      extcodesize\n      iszero\n      dup1\n      iszero\n      tag_369\n      jumpi\n      0x00\n      dup1\n      revert\n    tag_369:\n      pop\n      gas\n      call\n      iszero\n      dup1\n      iszero\n      tag_371\n      jumpi\n      returndatasize\n      0x00\n      dup1\n      returndatacopy\n      revert(0x00, returndatasize)\n    tag_371:\n      pop\n      pop\n      pop\n      pop\n      mload(0x40)\n      returndatasize\n      0x20\n      dup2\n      lt\n      iszero\n      tag_372\n      jumpi\n      0x00\n      dup1\n      revert\n    tag_372:\n      dup2\n      add\n      swap1\n      dup1\n      dup1\n      mload\n      swap1\n      0x20\n      add\n      swap1\n      swap3\n      swap2\n      swap1\n      pop\n      pop\n      pop\n        /* \"ICO AFFILIATE/ico3lv.sol\":13472:13530  bool success = token.transfer(address(0), remainingTokens) */\n      swap1\n      pop\n        /* \"ICO AFFILIATE/ico3lv.sol\":13548:13555  success */\n      dup1\n        /* \"ICO AFFILIATE/ico3lv.sol\":13540:13591  require(success, \"Failed to burn remaining tokens\") */\n      tag_373\n      jumpi\n      mload(0x40)\n      0x08c379a000000000000000000000000000000000000000000000000000000000\n      dup2\n      mstore\n      0x04\n      add\n      dup1\n      dup1\n      0x20\n      add\n      dup3\n      dup2\n      sub\n      dup3\n      mstore\n      0x1f\n      dup2\n      mstore\n      0x20\n      add\n      dup1\n      0x4661696c656420746f206275726e2072656d61696e696e6720746f6b656e7300\n      dup2\n      mstore\n      pop\n      0x20\n      add\n      swap2\n      pop\n      pop\n      mload(0x40)\n      dup1\n      swap2\n      sub\n      swap1\n      revert\n    tag_373:\n        /* \"ICO AFFILIATE/ico3lv.sol\":13607:13662  TokenBurn(address(0), remainingTokens, block.timestamp) */\n      0xfe9e0b0c1e3e9216717d5f66d10bc310b12c366417e150b4b1af9fb9620bca91\n        /* \"ICO AFFILIATE/ico3lv.sol\":13625:13626  0 */\n      0x00\n        /* \"ICO AFFILIATE/ico3lv.sol\":13629:13644  remainingTokens */\n      dup4\n        /* \"ICO AFFILIATE/ico3lv.sol\":13646:13661  block.timestamp */\n      timestamp\n        /* \"ICO AFFILIATE/ico3lv.sol\":13607:13662  TokenBurn(address(0), remainingTokens, block.timestamp) */\n      mload(0x40)\n      dup1\n      dup5\n      0xffffffffffffffffffffffffffffffffffffffff\n      and\n      dup2\n      mstore\n      0x20\n      add\n      dup4\n      dup2\n      mstore\n      0x20\n      add\n      dup3\n      dup2\n      mstore\n      0x20\n      add\n      swap4\n      pop\n      pop\n      pop\n      pop\n      mload(0x40)\n      dup1\n      swap2\n      sub\n      swap1\n      log1\n        /* \"ICO AFFILIATE/ico3lv.sol\":13679:13683  true */\n      0x01\n        /* \"ICO AFFILIATE/ico3lv.sol\":13672:13683  return true */\n      swap3\n      pop\n      pop\n      pop\n        /* \"ICO AFFILIATE/ico3lv.sol\":13296:13690  function burn() external returns (bool) {... */\n      swap1\n      jump\t// out\n        /* \"ICO AFFILIATE/ico3lv.sol\":11825:11954  function getUserReferralTotalBonus(address userAddress) public view returns(uint256) {... */\n    tag_116:\n        /* \"ICO AFFILIATE/ico3lv.sol\":11901:11908  uint256 */\n      0x00\n        /* \"ICO AFFILIATE/ico3lv.sol\":11921:11926  users */\n      0x10\n        /* \"ICO AFFILIATE/ico3lv.sol\":11921:11939  users[userAddress] */\n      0x00\n        /* \"ICO AFFILIATE/ico3lv.sol\":11927:11938  userAddress */\n      dup4\n        /* \"ICO AFFILIATE/ico3lv.sol\":11921:11939  users[userAddress] */\n      0xffffffffffffffffffffffffffffffffffffffff\n      and\n      0xffffffffffffffffffffffffffffffffffffffff\n      and\n      dup2\n      mstore\n      0x20\n      add\n      swap1\n      dup2\n      mstore\n      0x20\n      add\n      0x00\n      keccak256\n        /* \"ICO AFFILIATE/ico3lv.sol\":11921:11950  users[userAddress].totalBonus */\n      0x07\n      add\n      sload\n        /* \"ICO AFFILIATE/ico3lv.sol\":11914:11950  return users[userAddress].totalBonus */\n      swap1\n      pop\n        /* \"ICO AFFILIATE/ico3lv.sol\":11825:11954  function getUserReferralTotalBonus(address userAddress) public view returns(uint256) {... */\n      swap2\n      swap1\n      pop\n      jump\t// out\n        /* \"ICO AFFILIATE/ico3lv.sol\":1584:1624  uint256 constant public PERCENT_STEP = 5 */\n    tag_119:\n        /* \"ICO AFFILIATE/ico3lv.sol\":1623:1624  5 */\n      0x05\n        /* \"ICO AFFILIATE/ico3lv.sol\":1584:1624  uint256 constant public PERCENT_STEP = 5 */\n      dup2\n      jump\t// out\n        /* \"ICO AFFILIATE/ico3lv.sol\":9898:10382  function getResult(uint8 plan, uint256 deposit) public view returns (uint256 percent, uint256 profit, uint256 finish) {... */\n    tag_123:\n        /* \"ICO AFFILIATE/ico3lv.sol\":9967:9982  uint256 percent */\n      0x00\n        /* \"ICO AFFILIATE/ico3lv.sol\":9984:9998  uint256 profit */\n      dup1\n        /* \"ICO AFFILIATE/ico3lv.sol\":10000:10014  uint256 finish */\n      0x00\n        /* \"ICO AFFILIATE/ico3lv.sol\":10030:10046  getPercent(plan) */\n      tag_376\n        /* \"ICO AFFILIATE/ico3lv.sol\":10041:10045  plan */\n      dup6\n        /* \"ICO AFFILIATE/ico3lv.sol\":10030:10040  getPercent */\n      tag_178\n        /* \"ICO AFFILIATE/ico3lv.sol\":10030:10046  getPercent(plan) */\n      jump\t// in\n    tag_376:\n        /* \"ICO AFFILIATE/ico3lv.sol\":10020:10046  percent = getPercent(plan) */\n      swap3\n      pop\n        /* \"ICO AFFILIATE/ico3lv.sol\":10062:10063  3 */\n      0x03\n        /* \"ICO AFFILIATE/ico3lv.sol\":10055:10059  plan */\n      dup6\n        /* \"ICO AFFILIATE/ico3lv.sol\":10055:10063  plan < 3 */\n      0xff\n      and\n      lt\n        /* \"ICO AFFILIATE/ico3lv.sol\":10051:10313  if (plan < 3) {... */\n      iszero\n      tag_377\n      jumpi\n        /* \"ICO AFFILIATE/ico3lv.sol\":10079:10143  deposit.mul(percent).div(PERCENTS_DIVIDER).mul(plans[plan].time) */\n      tag_378\n        /* \"ICO AFFILIATE/ico3lv.sol\":10126:10131  plans */\n      0x0f\n        /* \"ICO AFFILIATE/ico3lv.sol\":10132:10136  plan */\n      dup7\n        /* \"ICO AFFILIATE/ico3lv.sol\":10126:10137  plans[plan] */\n      0xff\n      and\n      dup2\n      sload\n      dup2\n      lt\n      tag_379\n      jumpi\n      invalid\n    tag_379:\n      swap1\n      0x00\n      mstore\n      keccak256(0x00, 0x20)\n      swap1\n      0x02\n      mul\n      add\n        /* \"ICO AFFILIATE/ico3lv.sol\":10126:10142  plans[plan].time */\n      0x00\n      add\n      sload\n        /* \"ICO AFFILIATE/ico3lv.sol\":10079:10121  deposit.mul(percent).div(PERCENTS_DIVIDER) */\n      tag_381\n        /* \"ICO AFFILIATE/ico3lv.sol\":1735:1739  1000 */\n      0x03e8\n        /* \"ICO AFFILIATE/ico3lv.sol\":10079:10099  deposit.mul(percent) */\n      tag_382\n        /* \"ICO AFFILIATE/ico3lv.sol\":10091:10098  percent */\n      dup8\n        /* \"ICO AFFILIATE/ico3lv.sol\":10079:10086  deposit */\n      dup10\n        /* \"ICO AFFILIATE/ico3lv.sol\":10079:10090  deposit.mul */\n      tag_263\n      swap1\n        /* \"ICO AFFILIATE/ico3lv.sol\":10079:10099  deposit.mul(percent) */\n      swap2\n      swap1\n      0xffffffff\n      and\n      jump\t// in\n    tag_382:\n        /* \"ICO AFFILIATE/ico3lv.sol\":10079:10103  deposit.mul(percent).div */\n      tag_264\n      swap1\n        /* \"ICO AFFILIATE/ico3lv.sol\":10079:10121  deposit.mul(percent).div(PERCENTS_DIVIDER) */\n      swap2\n      swap1\n      0xffffffff\n      and\n      jump\t// in\n    tag_381:\n        /* \"ICO AFFILIATE/ico3lv.sol\":10079:10125  deposit.mul(percent).div(PERCENTS_DIVIDER).mul */\n      tag_263\n      swap1\n        /* \"ICO AFFILIATE/ico3lv.sol\":10079:10143  deposit.mul(percent).div(PERCENTS_DIVIDER).mul(plans[plan].time) */\n      swap2\n      swap1\n      0xffffffff\n      and\n      jump\t// in\n    tag_378:\n        /* \"ICO AFFILIATE/ico3lv.sol\":10070:10143  profit = deposit.mul(percent).div(PERCENTS_DIVIDER).mul(plans[plan].time) */\n      swap2\n      pop\n        /* \"ICO AFFILIATE/ico3lv.sol\":10051:10313  if (plan < 3) {... */\n      jump(tag_383)\n    tag_377:\n        /* \"ICO AFFILIATE/ico3lv.sol\":10165:10166  6 */\n      0x06\n        /* \"ICO AFFILIATE/ico3lv.sol\":10158:10162  plan */\n      dup6\n        /* \"ICO AFFILIATE/ico3lv.sol\":10158:10166  plan < 6 */\n      0xff\n      and\n      lt\n        /* \"ICO AFFILIATE/ico3lv.sol\":10154:10313  if (plan < 6) {... */\n      iszero\n      tag_384\n      jumpi\n        /* \"ICO AFFILIATE/ico3lv.sol\":10178:10187  uint256 i */\n      0x00\n        /* \"ICO AFFILIATE/ico3lv.sol\":10173:10309  for (uint256 i = 0; i < plans[plan].time; i++) {... */\n    tag_385:\n        /* \"ICO AFFILIATE/ico3lv.sol\":10197:10202  plans */\n      0x0f\n        /* \"ICO AFFILIATE/ico3lv.sol\":10203:10207  plan */\n      dup7\n        /* \"ICO AFFILIATE/ico3lv.sol\":10197:10208  plans[plan] */\n      0xff\n      and\n      dup2\n      sload\n      dup2\n      lt\n      tag_388\n      jumpi\n      invalid\n    tag_388:\n      swap1\n      0x00\n      mstore\n      keccak256(0x00, 0x20)\n      swap1\n      0x02\n      mul\n      add\n        /* \"ICO AFFILIATE/ico3lv.sol\":10197:10213  plans[plan].time */\n      0x00\n      add\n      sload\n        /* \"ICO AFFILIATE/ico3lv.sol\":10193:10194  i */\n      dup2\n        /* \"ICO AFFILIATE/ico3lv.sol\":10193:10213  i < plans[plan].time */\n      lt\n        /* \"ICO AFFILIATE/ico3lv.sol\":10173:10309  for (uint256 i = 0; i < plans[plan].time; i++) {... */\n      iszero\n      tag_386\n      jumpi\n        /* \"ICO AFFILIATE/ico3lv.sol\":10235:10303  profit.add((deposit.add(profit)).mul(percent).div(PERCENTS_DIVIDER)) */\n      tag_390\n        /* \"ICO AFFILIATE/ico3lv.sol\":10246:10302  (deposit.add(profit)).mul(percent).div(PERCENTS_DIVIDER) */\n      tag_391\n        /* \"ICO AFFILIATE/ico3lv.sol\":1735:1739  1000 */\n      0x03e8\n        /* \"ICO AFFILIATE/ico3lv.sol\":10246:10280  (deposit.add(profit)).mul(percent) */\n      tag_392\n        /* \"ICO AFFILIATE/ico3lv.sol\":10272:10279  percent */\n      dup8\n        /* \"ICO AFFILIATE/ico3lv.sol\":10247:10266  deposit.add(profit) */\n      tag_393\n        /* \"ICO AFFILIATE/ico3lv.sol\":10259:10265  profit */\n      dup9\n        /* \"ICO AFFILIATE/ico3lv.sol\":10247:10254  deposit */\n      dup12\n        /* \"ICO AFFILIATE/ico3lv.sol\":10247:10258  deposit.add */\n      tag_250\n      swap1\n        /* \"ICO AFFILIATE/ico3lv.sol\":10247:10266  deposit.add(profit) */\n      swap2\n      swap1\n      0xffffffff\n      and\n      jump\t// in\n    tag_393:\n        /* \"ICO AFFILIATE/ico3lv.sol\":10246:10271  (deposit.add(profit)).mul */\n      tag_263\n      swap1\n        /* \"ICO AFFILIATE/ico3lv.sol\":10246:10280  (deposit.add(profit)).mul(percent) */\n      swap2\n      swap1\n      0xffffffff\n      and\n      jump\t// in\n    tag_392:\n        /* \"ICO AFFILIATE/ico3lv.sol\":10246:10284  (deposit.add(profit)).mul(percent).div */\n      tag_264\n      swap1\n        /* \"ICO AFFILIATE/ico3lv.sol\":10246:10302  (deposit.add(profit)).mul(percent).div(PERCENTS_DIVIDER) */\n      swap2\n      swap1\n      0xffffffff\n      and\n      jump\t// in\n    tag_391:\n        /* \"ICO AFFILIATE/ico3lv.sol\":10235:10241  profit */\n      dup5\n        /* \"ICO AFFILIATE/ico3lv.sol\":10235:10245  profit.add */\n      tag_250\n      swap1\n        /* \"ICO AFFILIATE/ico3lv.sol\":10235:10303  profit.add((deposit.add(profit)).mul(percent).div(PERCENTS_DIVIDER)) */\n      swap2\n      swap1\n      0xffffffff\n      and\n      jump\t// in\n    tag_390:\n        /* \"ICO AFFILIATE/ico3lv.sol\":10226:10303  profit = profit.add((deposit.add(profit)).mul(percent).div(PERCENTS_DIVIDER)) */\n      swap3\n      pop\n        /* \"ICO AFFILIATE/ico3lv.sol\":10215:10218  i++ */\n      dup1\n      dup1\n      0x01\n      add\n      swap2\n      pop\n      pop\n        /* \"ICO AFFILIATE/ico3lv.sol\":10173:10309  for (uint256 i = 0; i < plans[plan].time; i++) {... */\n      jump(tag_385)\n    tag_386:\n      pop\n        /* \"ICO AFFILIATE/ico3lv.sol\":10154:10313  if (plan < 6) {... */\n    tag_384:\n        /* \"ICO AFFILIATE/ico3lv.sol\":10051:10313  if (plan < 3) {... */\n    tag_383:\n        /* \"ICO AFFILIATE/ico3lv.sol\":10326:10378  block.timestamp.add(plans[plan].time.mul(TIME_STEP)) */\n      tag_394\n        /* \"ICO AFFILIATE/ico3lv.sol\":10346:10377  plans[plan].time.mul(TIME_STEP) */\n      tag_395\n        /* \"ICO AFFILIATE/ico3lv.sol\":1778:1784  1 days */\n      0x015180\n        /* \"ICO AFFILIATE/ico3lv.sol\":10346:10351  plans */\n      0x0f\n        /* \"ICO AFFILIATE/ico3lv.sol\":10352:10356  plan */\n      dup9\n        /* \"ICO AFFILIATE/ico3lv.sol\":10346:10357  plans[plan] */\n      0xff\n      and\n      dup2\n      sload\n      dup2\n      lt\n      tag_396\n      jumpi\n      invalid\n    tag_396:\n      swap1\n      0x00\n      mstore\n      keccak256(0x00, 0x20)\n      swap1\n      0x02\n      mul\n      add\n        /* \"ICO AFFILIATE/ico3lv.sol\":10346:10362  plans[plan].time */\n      0x00\n      add\n      sload\n        /* \"ICO AFFILIATE/ico3lv.sol\":10346:10366  plans[plan].time.mul */\n      tag_263\n      swap1\n        /* \"ICO AFFILIATE/ico3lv.sol\":10346:10377  plans[plan].time.mul(TIME_STEP) */\n      swap2\n      swap1\n      0xffffffff\n      and\n      jump\t// in\n    tag_395:\n        /* \"ICO AFFILIATE/ico3lv.sol\":10326:10341  block.timestamp */\n      timestamp\n        /* \"ICO AFFILIATE/ico3lv.sol\":10326:10345  block.timestamp.add */\n      tag_250\n      swap1\n        /* \"ICO AFFILIATE/ico3lv.sol\":10326:10378  block.timestamp.add(plans[plan].time.mul(TIME_STEP)) */\n      swap2\n      swap1\n      0xffffffff\n      and\n      jump\t// in\n    tag_394:\n        /* \"ICO AFFILIATE/ico3lv.sol\":10317:10378  finish = block.timestamp.add(plans[plan].time.mul(TIME_STEP)) */\n      swap1\n      pop\n        /* \"ICO AFFILIATE/ico3lv.sol\":9898:10382  function getResult(uint8 plan, uint256 deposit) public view returns (uint256 percent, uint256 profit, uint256 finish) {... */\n      swap3\n      pop\n      swap3\n      pop\n      swap3\n      jump\t// out\n        /* \"ICO AFFILIATE/ico3lv.sol\":1486:1534  uint256[] public REFERRAL_PERCENTS = [50, 25, 5] */\n    tag_127:\n      0x00\n      dup2\n      dup2\n      sload\n      dup2\n      lt\n      tag_398\n      jumpi\n      invalid\n    tag_398:\n      swap1\n      0x00\n      mstore\n      keccak256(0x00, 0x20)\n      add\n      0x00\n      swap2\n      pop\n      swap1\n      pop\n      sload\n      dup2\n      jump\t// out\n        /* \"ICO AFFILIATE/ico3lv.sol\":14083:14196  function getICOTokenBalance() external view returns (uint) {... */\n    tag_130:\n        /* \"ICO AFFILIATE/ico3lv.sol\":14136:14140  uint */\n      0x00\n        /* \"ICO AFFILIATE/ico3lv.sol\":14159:14164  token */\n      0x05\n      0x00\n      swap1\n      sload\n      swap1\n      0x0100\n      exp\n      swap1\n      div\n      0xffffffffffffffffffffffffffffffffffffffff\n      and\n        /* \"ICO AFFILIATE/ico3lv.sol\":14159:14174  token.balanceOf */\n      0xffffffffffffffffffffffffffffffffffffffff\n      and\n      0x70a08231\n        /* \"ICO AFFILIATE/ico3lv.sol\":14183:14187  this */\n      address\n        /* \"ICO AFFILIATE/ico3lv.sol\":14159:14189  token.balanceOf(address(this)) */\n      mload(0x40)\n      dup3\n      0xffffffff\n      and\n      0xe0\n      shl\n      dup2\n      mstore\n      0x04\n      add\n      dup1\n      dup3\n      0xffffffffffffffffffffffffffffffffffffffff\n      and\n      dup2\n      mstore\n      0x20\n      add\n      swap2\n      pop\n      pop\n      0x20\n      mload(0x40)\n      dup1\n      dup4\n      sub\n      dup2\n      dup7\n      dup1\n      extcodesize\n      iszero\n      dup1\n      iszero\n      tag_401\n      jumpi\n      0x00\n      dup1\n      revert\n    tag_401:\n      pop\n      gas\n      staticcall\n      iszero\n      dup1\n      iszero\n      tag_403\n      jumpi\n      returndatasize\n      0x00\n      dup1\n      returndatacopy\n      revert(0x00, returndatasize)\n    tag_403:\n      pop\n      pop\n      pop\n      pop\n      mload(0x40)\n      returndatasize\n      0x20\n      dup2\n      lt\n      iszero\n      tag_404\n      jumpi\n      0x00\n      dup1\n      revert\n    tag_404:\n      dup2\n      add\n      swap1\n      dup1\n      dup1\n      mload\n      swap1\n      0x20\n      add\n      swap1\n      swap3\n      swap2\n      swap1\n      pop\n      pop\n      pop\n        /* \"ICO AFFILIATE/ico3lv.sol\":14152:14189  return token.balanceOf(address(this)) */\n      swap1\n      pop\n        /* \"ICO AFFILIATE/ico3lv.sol\":14083:14196  function getICOTokenBalance() external view returns (uint) {... */\n      swap1\n      jump\t// out\n        /* \"ICO AFFILIATE/ico3lv.sol\":14250:14375  function investorBalanceOf(address _investor) external view returns (uint) {... */\n    tag_134:\n        /* \"ICO AFFILIATE/ico3lv.sol\":14319:14323  uint */\n      0x00\n        /* \"ICO AFFILIATE/ico3lv.sol\":14342:14347  token */\n      0x05\n      0x00\n      swap1\n      sload\n      swap1\n      0x0100\n      exp\n      swap1\n      div\n      0xffffffffffffffffffffffffffffffffffffffff\n      and\n        /* \"ICO AFFILIATE/ico3lv.sol\":14342:14357  token.balanceOf */\n      0xffffffffffffffffffffffffffffffffffffffff\n      and\n      0x70a08231\n        /* \"ICO AFFILIATE/ico3lv.sol\":14358:14367  _investor */\n      dup4\n        /* \"ICO AFFILIATE/ico3lv.sol\":14342:14368  token.balanceOf(_investor) */\n      mload(0x40)\n      dup3\n      0xffffffff\n      and\n      0xe0\n      shl\n      dup2\n      mstore\n      0x04\n      add\n      dup1\n      dup3\n      0xffffffffffffffffffffffffffffffffffffffff\n      and\n      dup2\n      mstore\n      0x20\n      add\n      swap2\n      pop\n      pop\n      0x20\n      mload(0x40)\n      dup1\n      dup4\n      sub\n      dup2\n      dup7\n      dup1\n      extcodesize\n      iszero\n      dup1\n      iszero\n      tag_406\n      jumpi\n      0x00\n      dup1\n      revert\n    tag_406:\n      pop\n      gas\n      staticcall\n      iszero\n      dup1\n      iszero\n      tag_408\n      jumpi\n      returndatasize\n      0x00\n      dup1\n      returndatacopy\n      revert(0x00, returndatasize)\n    tag_408:\n      pop\n      pop\n      pop\n      pop\n      mload(0x40)\n      returndatasize\n      0x20\n      dup2\n      lt\n      iszero\n      tag_409\n      jumpi\n      0x00\n      dup1\n      revert\n    tag_409:\n      dup2\n      add\n      swap1\n      dup1\n      dup1\n      mload\n      swap1\n      0x20\n      add\n      swap1\n      swap3\n      swap2\n      swap1\n      pop\n      pop\n      pop\n        /* \"ICO AFFILIATE/ico3lv.sol\":14335:14368  return token.balanceOf(_investor) */\n      swap1\n      pop\n        /* \"ICO AFFILIATE/ico3lv.sol\":14250:14375  function investorBalanceOf(address _investor) external view returns (uint) {... */\n      swap2\n      swap1\n      pop\n      jump\t// out\n        /* \"ICO AFFILIATE/ico3lv.sol\":1817:1845  uint256 public totalRefBonus */\n    tag_137:\n      sload(0x02)\n      dup2\n      jump\t// out\n        /* \"ICO AFFILIATE/ico3lv.sol\":11957:12115  function getUserReferralWithdrawn(address userAddress) public view returns(uint256) {... */\n    tag_141:\n        /* \"ICO AFFILIATE/ico3lv.sol\":12032:12039  uint256 */\n      0x00\n        /* \"ICO AFFILIATE/ico3lv.sol\":12052:12111  users[userAddress].totalBonus.sub(users[userAddress].bonus) */\n      tag_411\n        /* \"ICO AFFILIATE/ico3lv.sol\":12086:12091  users */\n      0x10\n        /* \"ICO AFFILIATE/ico3lv.sol\":12086:12104  users[userAddress] */\n      0x00\n        /* \"ICO AFFILIATE/ico3lv.sol\":12092:12103  userAddress */\n      dup5\n        /* \"ICO AFFILIATE/ico3lv.sol\":12086:12104  users[userAddress] */\n      0xffffffffffffffffffffffffffffffffffffffff\n      and\n      0xffffffffffffffffffffffffffffffffffffffff\n      and\n      dup2\n      mstore\n      0x20\n      add\n      swap1\n      dup2\n      mstore\n      0x20\n      add\n      0x00\n      keccak256\n        /* \"ICO AFFILIATE/ico3lv.sol\":12086:12110  users[userAddress].bonus */\n      0x06\n      add\n      sload\n        /* \"ICO AFFILIATE/ico3lv.sol\":12052:12057  users */\n      0x10\n        /* \"ICO AFFILIATE/ico3lv.sol\":12052:12070  users[userAddress] */\n      0x00\n        /* \"ICO AFFILIATE/ico3lv.sol\":12058:12069  userAddress */\n      dup6\n        /* \"ICO AFFILIATE/ico3lv.sol\":12052:12070  users[userAddress] */\n      0xffffffffffffffffffffffffffffffffffffffff\n      and\n      0xffffffffffffffffffffffffffffffffffffffff\n      and\n      dup2\n      mstore\n      0x20\n      add\n      swap1\n      dup2\n      mstore\n      0x20\n      add\n      0x00\n      keccak256\n        /* \"ICO AFFILIATE/ico3lv.sol\":12052:12081  users[userAddress].totalBonus */\n      0x07\n      add\n      sload\n        /* \"ICO AFFILIATE/ico3lv.sol\":12052:12085  users[userAddress].totalBonus.sub */\n      tag_266\n      swap1\n        /* \"ICO AFFILIATE/ico3lv.sol\":12052:12111  users[userAddress].totalBonus.sub(users[userAddress].bonus) */\n      swap2\n      swap1\n      0xffffffff\n      and\n      jump\t// in\n    tag_411:\n        /* \"ICO AFFILIATE/ico3lv.sol\":12045:12111  return users[userAddress].totalBonus.sub(users[userAddress].bonus) */\n      swap1\n      pop\n        /* \"ICO AFFILIATE/ico3lv.sol\":11957:12115  function getUserReferralWithdrawn(address userAddress) public view returns(uint256) {... */\n      swap2\n      swap1\n      pop\n      jump\t// out\n        /* \"ICO AFFILIATE/ico3lv.sol\":9393:9489  function getContractBalance() public view returns (uint256) {... */\n    tag_144:\n        /* \"ICO AFFILIATE/ico3lv.sol\":9444:9451  uint256 */\n      0x00\n        /* \"ICO AFFILIATE/ico3lv.sol\":9464:9485  address(this).balance */\n      selfbalance\n        /* \"ICO AFFILIATE/ico3lv.sol\":9457:9485  return address(this).balance */\n      swap1\n      pop\n        /* \"ICO AFFILIATE/ico3lv.sol\":9393:9489  function getContractBalance() public view returns (uint256) {... */\n      swap1\n      jump\t// out\n        /* \"ICO AFFILIATE/ico3lv.sol\":2195:2217  uint public icoEndTime */\n    tag_147:\n      sload(0x0c)\n      dup2\n      jump\t// out\n        /* \"ICO AFFILIATE/ico3lv.sol\":12415:12642  function getUserTotalDeposits(address userAddress) public view returns(uint256 amount) {... */\n    tag_151:\n        /* \"ICO AFFILIATE/ico3lv.sol\":12486:12500  uint256 amount */\n      0x00\n        /* \"ICO AFFILIATE/ico3lv.sol\":12511:12520  uint256 i */\n      dup1\n        /* \"ICO AFFILIATE/ico3lv.sol\":12523:12524  0 */\n      0x00\n        /* \"ICO AFFILIATE/ico3lv.sol\":12511:12524  uint256 i = 0 */\n      swap1\n      pop\n        /* \"ICO AFFILIATE/ico3lv.sol\":12506:12639  for (uint256 i = 0; i < users[userAddress].deposits.length; i++) {... */\n    tag_414:\n        /* \"ICO AFFILIATE/ico3lv.sol\":12530:12535  users */\n      0x10\n        /* \"ICO AFFILIATE/ico3lv.sol\":12530:12548  users[userAddress] */\n      0x00\n        /* \"ICO AFFILIATE/ico3lv.sol\":12536:12547  userAddress */\n      dup5\n        /* \"ICO AFFILIATE/ico3lv.sol\":12530:12548  users[userAddress] */\n      0xffffffffffffffffffffffffffffffffffffffff\n      and\n      0xffffffffffffffffffffffffffffffffffffffff\n      and\n      dup2\n      mstore\n      0x20\n      add\n      swap1\n      dup2\n      mstore\n      0x20\n      add\n      0x00\n      keccak256\n        /* \"ICO AFFILIATE/ico3lv.sol\":12530:12557  users[userAddress].deposits */\n      0x00\n      add\n        /* \"ICO AFFILIATE/ico3lv.sol\":12530:12564  users[userAddress].deposits.length */\n      dup1\n      sload\n      swap1\n      pop\n        /* \"ICO AFFILIATE/ico3lv.sol\":12526:12527  i */\n      dup2\n        /* \"ICO AFFILIATE/ico3lv.sol\":12526:12564  i < users[userAddress].deposits.length */\n      lt\n        /* \"ICO AFFILIATE/ico3lv.sol\":12506:12639  for (uint256 i = 0; i < users[userAddress].deposits.length; i++) {... */\n      iszero\n      tag_415\n      jumpi\n        /* \"ICO AFFILIATE/ico3lv.sol\":12585:12634  amount.add(users[userAddress].deposits[i].amount) */\n      tag_417\n        /* \"ICO AFFILIATE/ico3lv.sol\":12596:12601  users */\n      0x10\n        /* \"ICO AFFILIATE/ico3lv.sol\":12596:12614  users[userAddress] */\n      0x00\n        /* \"ICO AFFILIATE/ico3lv.sol\":12602:12613  userAddress */\n      dup6\n        /* \"ICO AFFILIATE/ico3lv.sol\":12596:12614  users[userAddress] */\n      0xffffffffffffffffffffffffffffffffffffffff\n      and\n      0xffffffffffffffffffffffffffffffffffffffff\n      and\n      dup2\n      mstore\n      0x20\n      add\n      swap1\n      dup2\n      mstore\n      0x20\n      add\n      0x00\n      keccak256\n        /* \"ICO AFFILIATE/ico3lv.sol\":12596:12623  users[userAddress].deposits */\n      0x00\n      add\n        /* \"ICO AFFILIATE/ico3lv.sol\":12624:12625  i */\n      dup3\n        /* \"ICO AFFILIATE/ico3lv.sol\":12596:12626  users[userAddress].deposits[i] */\n      dup2\n      sload\n      dup2\n      lt\n      tag_418\n      jumpi\n      invalid\n    tag_418:\n      swap1\n      0x00\n      mstore\n      keccak256(0x00, 0x20)\n      swap1\n      0x06\n      mul\n      add\n        /* \"ICO AFFILIATE/ico3lv.sol\":12596:12633  users[userAddress].deposits[i].amount */\n      0x02\n      add\n      sload\n        /* \"ICO AFFILIATE/ico3lv.sol\":12585:12591  amount */\n      dup4\n        /* \"ICO AFFILIATE/ico3lv.sol\":12585:12595  amount.add */\n      tag_250\n      swap1\n        /* \"ICO AFFILIATE/ico3lv.sol\":12585:12634  amount.add(users[userAddress].deposits[i].amount) */\n      swap2\n      swap1\n      0xffffffff\n      and\n      jump\t// in\n    tag_417:\n        /* \"ICO AFFILIATE/ico3lv.sol\":12576:12634  amount = amount.add(users[userAddress].deposits[i].amount) */\n      swap2\n      pop\n        /* \"ICO AFFILIATE/ico3lv.sol\":12566:12569  i++ */\n      dup1\n      dup1\n      0x01\n      add\n      swap2\n      pop\n      pop\n        /* \"ICO AFFILIATE/ico3lv.sol\":12506:12639  for (uint256 i = 0; i < users[userAddress].deposits.length; i++) {... */\n      jump(tag_414)\n    tag_415:\n      pop\n        /* \"ICO AFFILIATE/ico3lv.sol\":12415:12642  function getUserTotalDeposits(address userAddress) public view returns(uint256 amount) {... */\n      swap2\n      swap1\n      pop\n      jump\t// out\n        /* \"ICO AFFILIATE/ico3lv.sol\":4674:4918  function startICO() external onlyAdmin {... */\n    tag_154:\n        /* \"ICO AFFILIATE/ico3lv.sol\":4023:4028  admin */\n      0x03\n      0x00\n      swap1\n      sload\n      swap1\n      0x0100\n      exp\n      swap1\n      div\n      0xffffffffffffffffffffffffffffffffffffffff\n      and\n        /* \"ICO AFFILIATE/ico3lv.sol\":4009:4028  msg.sender == admin */\n      0xffffffffffffffffffffffffffffffffffffffff\n      and\n        /* \"ICO AFFILIATE/ico3lv.sol\":4009:4019  msg.sender */\n      caller\n        /* \"ICO AFFILIATE/ico3lv.sol\":4009:4028  msg.sender == admin */\n      0xffffffffffffffffffffffffffffffffffffffff\n      and\n      eq\n        /* \"ICO AFFILIATE/ico3lv.sol\":4001:4052  require(msg.sender == admin, \"Admin Only function\") */\n      tag_421\n      jumpi\n      mload(0x40)\n      0x08c379a000000000000000000000000000000000000000000000000000000000\n      dup2\n      mstore\n      0x04\n      add\n      dup1\n      dup1\n      0x20\n      add\n      dup3\n      dup2\n      sub\n      dup3\n      mstore\n      0x13\n      dup2\n      mstore\n      0x20\n      add\n      dup1\n      0x41646d696e204f6e6c792066756e6374696f6e00000000000000000000000000\n      dup2\n      mstore\n      pop\n      0x20\n      add\n      swap2\n      pop\n      pop\n      mload(0x40)\n      dup1\n      swap2\n      sub\n      swap1\n      revert\n    tag_421:\n        /* \"ICO AFFILIATE/ico3lv.sol\":4743:4755  State.BEFORE */\n      0x00\n        /* \"ICO AFFILIATE/ico3lv.sol\":4731:4755  ICOState == State.BEFORE */\n      0x03\n      dup2\n      gt\n      iszero\n      tag_423\n      jumpi\n      invalid\n    tag_423:\n        /* \"ICO AFFILIATE/ico3lv.sol\":4731:4739  ICOState */\n      0x0e\n      0x00\n      swap1\n      sload\n      swap1\n      0x0100\n      exp\n      swap1\n      div\n      0xff\n      and\n        /* \"ICO AFFILIATE/ico3lv.sol\":4731:4755  ICOState == State.BEFORE */\n      0x03\n      dup2\n      gt\n      iszero\n      tag_424\n      jumpi\n      invalid\n    tag_424:\n      eq\n        /* \"ICO AFFILIATE/ico3lv.sol\":4723:4785  require(ICOState == State.BEFORE, \"ICO isn't in before state\") */\n      tag_425\n      jumpi\n      mload(0x40)\n      0x08c379a000000000000000000000000000000000000000000000000000000000\n      dup2\n      mstore\n      0x04\n      add\n      dup1\n      dup1\n      0x20\n      add\n      dup3\n      dup2\n      sub\n      dup3\n      mstore\n      0x19\n      dup2\n      mstore\n      0x20\n      add\n      dup1\n      0x49434f2069736e277420696e206265666f726520737461746500000000000000\n      dup2\n      mstore\n      pop\n      0x20\n      add\n      swap2\n      pop\n      pop\n      mload(0x40)\n      dup1\n      swap2\n      sub\n      swap1\n      revert\n    tag_425:\n        /* \"ICO AFFILIATE/ico3lv.sol\":4811:4826  block.timestamp */\n      timestamp\n        /* \"ICO AFFILIATE/ico3lv.sol\":4796:4808  icoStartTime */\n      0x0b\n        /* \"ICO AFFILIATE/ico3lv.sol\":4796:4826  icoStartTime = block.timestamp */\n      dup2\n      swap1\n      sstore\n      pop\n        /* \"ICO AFFILIATE/ico3lv.sol\":4865:4876  86400 * 365 */\n      0x01e13380\n        /* \"ICO AFFILIATE/ico3lv.sol\":4849:4861  icoStartTime */\n      sload(0x0b)\n        /* \"ICO AFFILIATE/ico3lv.sol\":4849:4877  icoStartTime + (86400 * 365) */\n      add\n        /* \"ICO AFFILIATE/ico3lv.sol\":4836:4846  icoEndTime */\n      0x0c\n        /* \"ICO AFFILIATE/ico3lv.sol\":4836:4877  icoEndTime = icoStartTime + (86400 * 365) */\n      dup2\n      swap1\n      sstore\n      pop\n        /* \"ICO AFFILIATE/ico3lv.sol\":4898:4911  State.RUNNING */\n      0x01\n        /* \"ICO AFFILIATE/ico3lv.sol\":4887:4895  ICOState */\n      0x0e\n      0x00\n        /* \"ICO AFFILIATE/ico3lv.sol\":4887:4911  ICOState = State.RUNNING */\n      0x0100\n      exp\n      dup2\n      sload\n      dup2\n      0xff\n      mul\n      not\n      and\n      swap1\n      dup4\n      0x03\n      dup2\n      gt\n      iszero\n      tag_426\n      jumpi\n      invalid\n    tag_426:\n      mul\n      or\n      swap1\n      sstore\n      pop\n        /* \"ICO AFFILIATE/ico3lv.sol\":4674:4918  function startICO() external onlyAdmin {... */\n      jump\t// out\n        /* \"ICO AFFILIATE/ico3lv.sol\":1969:2006  uint public tokenPrice = 0.0001 ether */\n    tag_157:\n      sload(0x06)\n      dup2\n      jump\t// out\n        /* \"ICO AFFILIATE/ico3lv.sol\":1788:1814  uint256 public totalStaked */\n    tag_160:\n      sload(0x01)\n      dup2\n      jump\t// out\n        /* \"ICO AFFILIATE/ico3lv.sol\":2079:2118  uint public minInvestment = 0.001 ether */\n    tag_163:\n      sload(0x09)\n      dup2\n      jump\t// out\n        /* \"ICO AFFILIATE/ico3lv.sol\":5403:5496  function changeAdmin(address _newAdmin) external onlyAdmin {... */\n    tag_167:\n        /* \"ICO AFFILIATE/ico3lv.sol\":4023:4028  admin */\n      0x03\n      0x00\n      swap1\n      sload\n      swap1\n      0x0100\n      exp\n      swap1\n      div\n      0xffffffffffffffffffffffffffffffffffffffff\n      and\n        /* \"ICO AFFILIATE/ico3lv.sol\":4009:4028  msg.sender == admin */\n      0xffffffffffffffffffffffffffffffffffffffff\n      and\n        /* \"ICO AFFILIATE/ico3lv.sol\":4009:4019  msg.sender */\n      caller\n        /* \"ICO AFFILIATE/ico3lv.sol\":4009:4028  msg.sender == admin */\n      0xffffffffffffffffffffffffffffffffffffffff\n      and\n      eq\n        /* \"ICO AFFILIATE/ico3lv.sol\":4001:4052  require(msg.sender == admin, \"Admin Only function\") */\n      tag_428\n      jumpi\n      mload(0x40)\n      0x08c379a000000000000000000000000000000000000000000000000000000000\n      dup2\n      mstore\n      0x04\n      add\n      dup1\n      dup1\n      0x20\n      add\n      dup3\n      dup2\n      sub\n      dup3\n      mstore\n      0x13\n      dup2\n      mstore\n      0x20\n      add\n      dup1\n      0x41646d696e204f6e6c792066756e6374696f6e00000000000000000000000000\n      dup2\n      mstore\n      pop\n      0x20\n      add\n      swap2\n      pop\n      pop\n      mload(0x40)\n      dup1\n      swap2\n      sub\n      swap1\n      revert\n    tag_428:\n        /* \"ICO AFFILIATE/ico3lv.sol\":5480:5489  _newAdmin */\n      dup1\n        /* \"ICO AFFILIATE/ico3lv.sol\":5472:5477  admin */\n      0x03\n      0x00\n        /* \"ICO AFFILIATE/ico3lv.sol\":5472:5489  admin = _newAdmin */\n      0x0100\n      exp\n      dup2\n      sload\n      dup2\n      0xffffffffffffffffffffffffffffffffffffffff\n      mul\n      not\n      and\n      swap1\n      dup4\n      0xffffffffffffffffffffffffffffffffffffffff\n      and\n      mul\n      or\n      swap1\n      sstore\n      pop\n        /* \"ICO AFFILIATE/ico3lv.sol\":5403:5496  function changeAdmin(address _newAdmin) external onlyAdmin {... */\n      pop\n      jump\t// out\n        /* \"ICO AFFILIATE/ico3lv.sol\":3068:3107  address payable public commissionWallet */\n    tag_171:\n      0x12\n      0x00\n      swap1\n      sload\n      swap1\n      0x0100\n      exp\n      swap1\n      div\n      0xffffffffffffffffffffffffffffffffffffffff\n      and\n      dup2\n      jump\t// out\n        /* \"ICO AFFILIATE/ico3lv.sol\":5077:5231  function resumeICO() external onlyAdmin {... */\n    tag_174:\n        /* \"ICO AFFILIATE/ico3lv.sol\":4023:4028  admin */\n      0x03\n      0x00\n      swap1\n      sload\n      swap1\n      0x0100\n      exp\n      swap1\n      div\n      0xffffffffffffffffffffffffffffffffffffffff\n      and\n        /* \"ICO AFFILIATE/ico3lv.sol\":4009:4028  msg.sender == admin */\n      0xffffffffffffffffffffffffffffffffffffffff\n      and\n        /* \"ICO AFFILIATE/ico3lv.sol\":4009:4019  msg.sender */\n      caller\n        /* \"ICO AFFILIATE/ico3lv.sol\":4009:4028  msg.sender == admin */\n      0xffffffffffffffffffffffffffffffffffffffff\n      and\n      eq\n        /* \"ICO AFFILIATE/ico3lv.sol\":4001:4052  require(msg.sender == admin, \"Admin Only function\") */\n      tag_431\n      jumpi\n      mload(0x40)\n      0x08c379a000000000000000000000000000000000000000000000000000000000\n      dup2\n      mstore\n      0x04\n      add\n      dup1\n      dup1\n      0x20\n      add\n      dup3\n      dup2\n      sub\n      dup3\n      mstore\n      0x13\n      dup2\n      mstore\n      0x20\n      add\n      dup1\n      0x41646d696e204f6e6c792066756e6374696f6e00000000000000000000000000\n      dup2\n      mstore\n      pop\n      0x20\n      add\n      swap2\n      pop\n      pop\n      mload(0x40)\n      dup1\n      swap2\n      sub\n      swap1\n      revert\n    tag_431:\n        /* \"ICO AFFILIATE/ico3lv.sol\":5147:5159  State.HALTED */\n      0x03\n        /* \"ICO AFFILIATE/ico3lv.sol\":5135:5159  ICOState == State.HALTED */\n      dup1\n      dup2\n      gt\n      iszero\n      tag_433\n      jumpi\n      invalid\n    tag_433:\n        /* \"ICO AFFILIATE/ico3lv.sol\":5135:5143  ICOState */\n      0x0e\n      0x00\n      swap1\n      sload\n      swap1\n      0x0100\n      exp\n      swap1\n      div\n      0xff\n      and\n        /* \"ICO AFFILIATE/ico3lv.sol\":5135:5159  ICOState == State.HALTED */\n      0x03\n      dup2\n      gt\n      iszero\n      tag_434\n      jumpi\n      invalid\n    tag_434:\n      eq\n        /* \"ICO AFFILIATE/ico3lv.sol\":5127:5190  require(ICOState == State.HALTED, \"ICO State isn't halted yet\") */\n      tag_435\n      jumpi\n      mload(0x40)\n      0x08c379a000000000000000000000000000000000000000000000000000000000\n      dup2\n      mstore\n      0x04\n      add\n      dup1\n      dup1\n      0x20\n      add\n      dup3\n      dup2\n      sub\n      dup3\n      mstore\n      0x1a\n      dup2\n      mstore\n      0x20\n      add\n      dup1\n      0x49434f2053746174652069736e27742068616c74656420796574000000000000\n      dup2\n      mstore\n      pop\n      0x20\n      add\n      swap2\n      pop\n      pop\n      mload(0x40)\n      dup1\n      swap2\n      sub\n      swap1\n      revert\n    tag_435:\n        /* \"ICO AFFILIATE/ico3lv.sol\":5211:5224  State.RUNNING */\n      0x01\n        /* \"ICO AFFILIATE/ico3lv.sol\":5200:5208  ICOState */\n      0x0e\n      0x00\n        /* \"ICO AFFILIATE/ico3lv.sol\":5200:5224  ICOState = State.RUNNING */\n      0x0100\n      exp\n      dup2\n      sload\n      dup2\n      0xff\n      mul\n      not\n      and\n      swap1\n      dup4\n      0x03\n      dup2\n      gt\n      iszero\n      tag_436\n      jumpi\n      invalid\n    tag_436:\n      mul\n      or\n      swap1\n      sstore\n      pop\n        /* \"ICO AFFILIATE/ico3lv.sol\":5077:5231  function resumeICO() external onlyAdmin {... */\n      jump\t// out\n        /* \"ICO AFFILIATE/ico3lv.sol\":9643:9895  function getPercent(uint8 plan) public view returns (uint256) {... */\n    tag_178:\n        /* \"ICO AFFILIATE/ico3lv.sol\":9696:9703  uint256 */\n      0x00\n        /* \"ICO AFFILIATE/ico3lv.sol\":9731:9740  startUNIX */\n      sload(0x11)\n        /* \"ICO AFFILIATE/ico3lv.sol\":9713:9728  block.timestamp */\n      timestamp\n        /* \"ICO AFFILIATE/ico3lv.sol\":9713:9740  block.timestamp > startUNIX */\n      gt\n        /* \"ICO AFFILIATE/ico3lv.sol\":9709:9889  if (block.timestamp > startUNIX) {... */\n      iszero\n      tag_438\n      jumpi\n        /* \"ICO AFFILIATE/ico3lv.sol\":9754:9842  plans[plan].percent.add(PERCENT_STEP.mul(block.timestamp.sub(startUNIX)).div(TIME_STEP)) */\n      tag_439\n        /* \"ICO AFFILIATE/ico3lv.sol\":9778:9841  PERCENT_STEP.mul(block.timestamp.sub(startUNIX)).div(TIME_STEP) */\n      tag_440\n        /* \"ICO AFFILIATE/ico3lv.sol\":1778:1784  1 days */\n      0x015180\n        /* \"ICO AFFILIATE/ico3lv.sol\":9778:9826  PERCENT_STEP.mul(block.timestamp.sub(startUNIX)) */\n      tag_441\n        /* \"ICO AFFILIATE/ico3lv.sol\":9795:9825  block.timestamp.sub(startUNIX) */\n      tag_442\n        /* \"ICO AFFILIATE/ico3lv.sol\":9815:9824  startUNIX */\n      sload(0x11)\n        /* \"ICO AFFILIATE/ico3lv.sol\":9795:9810  block.timestamp */\n      timestamp\n        /* \"ICO AFFILIATE/ico3lv.sol\":9795:9814  block.timestamp.sub */\n      tag_266\n      swap1\n        /* \"ICO AFFILIATE/ico3lv.sol\":9795:9825  block.timestamp.sub(startUNIX) */\n      swap2\n      swap1\n      0xffffffff\n      and\n      jump\t// in\n    tag_442:\n        /* \"ICO AFFILIATE/ico3lv.sol\":1623:1624  5 */\n      0x05\n        /* \"ICO AFFILIATE/ico3lv.sol\":9778:9794  PERCENT_STEP.mul */\n      tag_263\n      swap1\n        /* \"ICO AFFILIATE/ico3lv.sol\":9778:9826  PERCENT_STEP.mul(block.timestamp.sub(startUNIX)) */\n      swap2\n      swap1\n      0xffffffff\n      and\n      jump\t// in\n    tag_441:\n        /* \"ICO AFFILIATE/ico3lv.sol\":9778:9830  PERCENT_STEP.mul(block.timestamp.sub(startUNIX)).div */\n      tag_264\n      swap1\n        /* \"ICO AFFILIATE/ico3lv.sol\":9778:9841  PERCENT_STEP.mul(block.timestamp.sub(startUNIX)).div(TIME_STEP) */\n      swap2\n      swap1\n      0xffffffff\n      and\n      jump\t// in\n    tag_440:\n        /* \"ICO AFFILIATE/ico3lv.sol\":9754:9759  plans */\n      0x0f\n        /* \"ICO AFFILIATE/ico3lv.sol\":9760:9764  plan */\n      dup5\n        /* \"ICO AFFILIATE/ico3lv.sol\":9754:9765  plans[plan] */\n      0xff\n      and\n      dup2\n      sload\n      dup2\n      lt\n      tag_443\n      jumpi\n      invalid\n    tag_443:\n      swap1\n      0x00\n      mstore\n      keccak256(0x00, 0x20)\n      swap1\n      0x02\n      mul\n      add\n        /* \"ICO AFFILIATE/ico3lv.sol\":9754:9773  plans[plan].percent */\n      0x01\n      add\n      sload\n        /* \"ICO AFFILIATE/ico3lv.sol\":9754:9777  plans[plan].percent.add */\n      tag_250\n      swap1\n        /* \"ICO AFFILIATE/ico3lv.sol\":9754:9842  plans[plan].percent.add(PERCENT_STEP.mul(block.timestamp.sub(startUNIX)).div(TIME_STEP)) */\n      swap2\n      swap1\n      0xffffffff\n      and\n      jump\t// in\n    tag_439:\n        /* \"ICO AFFILIATE/ico3lv.sol\":9747:9842  return plans[plan].percent.add(PERCENT_STEP.mul(block.timestamp.sub(startUNIX)).div(TIME_STEP)) */\n      swap1\n      pop\n      jump(tag_437)\n        /* \"ICO AFFILIATE/ico3lv.sol\":9709:9889  if (block.timestamp > startUNIX) {... */\n    tag_438:\n        /* \"ICO AFFILIATE/ico3lv.sol\":9865:9870  plans */\n      0x0f\n        /* \"ICO AFFILIATE/ico3lv.sol\":9871:9875  plan */\n      dup3\n        /* \"ICO AFFILIATE/ico3lv.sol\":9865:9876  plans[plan] */\n      0xff\n      and\n      dup2\n      sload\n      dup2\n      lt\n      tag_446\n      jumpi\n      invalid\n    tag_446:\n      swap1\n      0x00\n      mstore\n      keccak256(0x00, 0x20)\n      swap1\n      0x02\n      mul\n      add\n        /* \"ICO AFFILIATE/ico3lv.sol\":9865:9884  plans[plan].percent */\n      0x01\n      add\n      sload\n        /* \"ICO AFFILIATE/ico3lv.sol\":9858:9884  return plans[plan].percent */\n      swap1\n      pop\n        /* \"ICO AFFILIATE/ico3lv.sol\":9643:9895  function getPercent(uint8 plan) public view returns (uint256) {... */\n    tag_437:\n      swap2\n      swap1\n      pop\n      jump\t// out\n        /* \"ICO AFFILIATE/ico3lv.sol\":2165:2189  uint public icoStartTime */\n    tag_181:\n      sload(0x0b)\n      dup2\n      jump\t// out\n        /* \"ICO AFFILIATE/ico3lv.sol\":12280:12412  function getUserAmountOfDeposits(address userAddress) public view returns(uint256) {... */\n    tag_185:\n        /* \"ICO AFFILIATE/ico3lv.sol\":12354:12361  uint256 */\n      0x00\n        /* \"ICO AFFILIATE/ico3lv.sol\":12374:12379  users */\n      0x10\n        /* \"ICO AFFILIATE/ico3lv.sol\":12374:12392  users[userAddress] */\n      0x00\n        /* \"ICO AFFILIATE/ico3lv.sol\":12380:12391  userAddress */\n      dup4\n        /* \"ICO AFFILIATE/ico3lv.sol\":12374:12392  users[userAddress] */\n      0xffffffffffffffffffffffffffffffffffffffff\n      and\n      0xffffffffffffffffffffffffffffffffffffffff\n      and\n      dup2\n      mstore\n      0x20\n      add\n      swap1\n      dup2\n      mstore\n      0x20\n      add\n      0x00\n      keccak256\n        /* \"ICO AFFILIATE/ico3lv.sol\":12374:12401  users[userAddress].deposits */\n      0x00\n      add\n        /* \"ICO AFFILIATE/ico3lv.sol\":12374:12408  users[userAddress].deposits.length */\n      dup1\n      sload\n      swap1\n      pop\n        /* \"ICO AFFILIATE/ico3lv.sol\":12367:12408  return users[userAddress].deposits.length */\n      swap1\n      pop\n        /* \"ICO AFFILIATE/ico3lv.sol\":12280:12412  function getUserAmountOfDeposits(address userAddress) public view returns(uint256) {... */\n      swap2\n      swap1\n      pop\n      jump\t// out\n        /* \"ICO AFFILIATE/ico3lv.sol\":1874:1906  address payable public ICOWallet */\n    tag_188:\n      0x04\n      0x00\n      swap1\n      sload\n      swap1\n      0x0100\n      exp\n      swap1\n      div\n      0xffffffffffffffffffffffffffffffffffffffff\n      and\n      dup2\n      jump\t// out\n        /* \"ICO AFFILIATE/ico3lv.sol\":9492:9640  function getPlanInfo(uint8 plan) public view returns(uint256 time, uint256 percent) {... */\n    tag_192:\n        /* \"ICO AFFILIATE/ico3lv.sol\":9545:9557  uint256 time */\n      0x00\n        /* \"ICO AFFILIATE/ico3lv.sol\":9559:9574  uint256 percent */\n      dup1\n        /* \"ICO AFFILIATE/ico3lv.sol\":9587:9592  plans */\n      0x0f\n        /* \"ICO AFFILIATE/ico3lv.sol\":9593:9597  plan */\n      dup4\n        /* \"ICO AFFILIATE/ico3lv.sol\":9587:9598  plans[plan] */\n      0xff\n      and\n      dup2\n      sload\n      dup2\n      lt\n      tag_450\n      jumpi\n      invalid\n    tag_450:\n      swap1\n      0x00\n      mstore\n      keccak256(0x00, 0x20)\n      swap1\n      0x02\n      mul\n      add\n        /* \"ICO AFFILIATE/ico3lv.sol\":9587:9603  plans[plan].time */\n      0x00\n      add\n      sload\n        /* \"ICO AFFILIATE/ico3lv.sol\":9580:9603  time = plans[plan].time */\n      swap2\n      pop\n        /* \"ICO AFFILIATE/ico3lv.sol\":9617:9622  plans */\n      0x0f\n        /* \"ICO AFFILIATE/ico3lv.sol\":9623:9627  plan */\n      dup4\n        /* \"ICO AFFILIATE/ico3lv.sol\":9617:9628  plans[plan] */\n      0xff\n      and\n      dup2\n      sload\n      dup2\n      lt\n      tag_452\n      jumpi\n      invalid\n    tag_452:\n      swap1\n      0x00\n      mstore\n      keccak256(0x00, 0x20)\n      swap1\n      0x02\n      mul\n      add\n        /* \"ICO AFFILIATE/ico3lv.sol\":9617:9636  plans[plan].percent */\n      0x01\n      add\n      sload\n        /* \"ICO AFFILIATE/ico3lv.sol\":9607:9636  percent = plans[plan].percent */\n      swap1\n      pop\n        /* \"ICO AFFILIATE/ico3lv.sol\":9492:9640  function getPlanInfo(uint8 plan) public view returns(uint256 time, uint256 percent) {... */\n      swap2\n      pop\n      swap2\n      jump\t// out\n        /* \"ICO AFFILIATE/ico3lv.sol\":2394:2415  State public ICOState */\n    tag_195:\n      0x0e\n      0x00\n      swap1\n      sload\n      swap1\n      0x0100\n      exp\n      swap1\n      div\n      0xff\n      and\n      dup2\n      jump\t// out\n        /* \"ICO AFFILIATE/ico3lv.sol\":12645:13107  function getUserDepositInfo(address userAddress, uint256 index) public view returns(uint8 plan, uint256 percent, uint256 amount, uint256 profit, uint256 start, uint256 finish) {... */\n    tag_200:\n        /* \"ICO AFFILIATE/ico3lv.sol\":12729:12739  uint8 plan */\n      0x00\n        /* \"ICO AFFILIATE/ico3lv.sol\":12741:12756  uint256 percent */\n      dup1\n        /* \"ICO AFFILIATE/ico3lv.sol\":12758:12772  uint256 amount */\n      0x00\n        /* \"ICO AFFILIATE/ico3lv.sol\":12774:12788  uint256 profit */\n      dup1\n        /* \"ICO AFFILIATE/ico3lv.sol\":12790:12803  uint256 start */\n      0x00\n        /* \"ICO AFFILIATE/ico3lv.sol\":12805:12819  uint256 finish */\n      dup1\n        /* \"ICO AFFILIATE/ico3lv.sol\":12828:12845  User storage user */\n      0x00\n        /* \"ICO AFFILIATE/ico3lv.sol\":12848:12853  users */\n      0x10\n        /* \"ICO AFFILIATE/ico3lv.sol\":12848:12866  users[userAddress] */\n      0x00\n        /* \"ICO AFFILIATE/ico3lv.sol\":12854:12865  userAddress */\n      dup11\n        /* \"ICO AFFILIATE/ico3lv.sol\":12848:12866  users[userAddress] */\n      0xffffffffffffffffffffffffffffffffffffffff\n      and\n      0xffffffffffffffffffffffffffffffffffffffff\n      and\n      dup2\n      mstore\n      0x20\n      add\n      swap1\n      dup2\n      mstore\n      0x20\n      add\n      0x00\n      keccak256\n        /* \"ICO AFFILIATE/ico3lv.sol\":12828:12866  User storage user = users[userAddress] */\n      swap1\n      pop\n        /* \"ICO AFFILIATE/ico3lv.sol\":12878:12882  user */\n      dup1\n        /* \"ICO AFFILIATE/ico3lv.sol\":12878:12891  user.deposits */\n      0x00\n      add\n        /* \"ICO AFFILIATE/ico3lv.sol\":12892:12897  index */\n      dup9\n        /* \"ICO AFFILIATE/ico3lv.sol\":12878:12898  user.deposits[index] */\n      dup2\n      sload\n      dup2\n      lt\n      tag_455\n      jumpi\n      invalid\n    tag_455:\n      swap1\n      0x00\n      mstore\n      keccak256(0x00, 0x20)\n      swap1\n      0x06\n      mul\n      add\n        /* \"ICO AFFILIATE/ico3lv.sol\":12878:12903  user.deposits[index].plan */\n      0x00\n      add\n      0x00\n      swap1\n      sload\n      swap1\n      0x0100\n      exp\n      swap1\n      div\n      0xff\n      and\n        /* \"ICO AFFILIATE/ico3lv.sol\":12871:12903  plan = user.deposits[index].plan */\n      swap7\n      pop\n        /* \"ICO AFFILIATE/ico3lv.sol\":12917:12921  user */\n      dup1\n        /* \"ICO AFFILIATE/ico3lv.sol\":12917:12930  user.deposits */\n      0x00\n      add\n        /* \"ICO AFFILIATE/ico3lv.sol\":12931:12936  index */\n      dup9\n        /* \"ICO AFFILIATE/ico3lv.sol\":12917:12937  user.deposits[index] */\n      dup2\n      sload\n      dup2\n      lt\n      tag_457\n      jumpi\n      invalid\n    tag_457:\n      swap1\n      0x00\n      mstore\n      keccak256(0x00, 0x20)\n      swap1\n      0x06\n      mul\n      add\n        /* \"ICO AFFILIATE/ico3lv.sol\":12917:12945  user.deposits[index].percent */\n      0x01\n      add\n      sload\n        /* \"ICO AFFILIATE/ico3lv.sol\":12907:12945  percent = user.deposits[index].percent */\n      swap6\n      pop\n        /* \"ICO AFFILIATE/ico3lv.sol\":12958:12962  user */\n      dup1\n        /* \"ICO AFFILIATE/ico3lv.sol\":12958:12971  user.deposits */\n      0x00\n      add\n        /* \"ICO AFFILIATE/ico3lv.sol\":12972:12977  index */\n      dup9\n        /* \"ICO AFFILIATE/ico3lv.sol\":12958:12978  user.deposits[index] */\n      dup2\n      sload\n      dup2\n      lt\n      tag_459\n      jumpi\n      invalid\n    tag_459:\n      swap1\n      0x00\n      mstore\n      keccak256(0x00, 0x20)\n      swap1\n      0x06\n      mul\n      add\n        /* \"ICO AFFILIATE/ico3lv.sol\":12958:12985  user.deposits[index].amount */\n      0x02\n      add\n      sload\n        /* \"ICO AFFILIATE/ico3lv.sol\":12949:12985  amount = user.deposits[index].amount */\n      swap5\n      pop\n        /* \"ICO AFFILIATE/ico3lv.sol\":12998:13002  user */\n      dup1\n        /* \"ICO AFFILIATE/ico3lv.sol\":12998:13011  user.deposits */\n      0x00\n      add\n        /* \"ICO AFFILIATE/ico3lv.sol\":13012:13017  index */\n      dup9\n        /* \"ICO AFFILIATE/ico3lv.sol\":12998:13018  user.deposits[index] */\n      dup2\n      sload\n      dup2\n      lt\n      tag_461\n      jumpi\n      invalid\n    tag_461:\n      swap1\n      0x00\n      mstore\n      keccak256(0x00, 0x20)\n      swap1\n      0x06\n      mul\n      add\n        /* \"ICO AFFILIATE/ico3lv.sol\":12998:13025  user.deposits[index].profit */\n      0x03\n      add\n      sload\n        /* \"ICO AFFILIATE/ico3lv.sol\":12989:13025  profit = user.deposits[index].profit */\n      swap4\n      pop\n        /* \"ICO AFFILIATE/ico3lv.sol\":13037:13041  user */\n      dup1\n        /* \"ICO AFFILIATE/ico3lv.sol\":13037:13050  user.deposits */\n      0x00\n      add\n        /* \"ICO AFFILIATE/ico3lv.sol\":13051:13056  index */\n      dup9\n        /* \"ICO AFFILIATE/ico3lv.sol\":13037:13057  user.deposits[index] */\n      dup2\n      sload\n      dup2\n      lt\n      tag_463\n      jumpi\n      invalid\n    tag_463:\n      swap1\n      0x00\n      mstore\n      keccak256(0x00, 0x20)\n      swap1\n      0x06\n      mul\n      add\n        /* \"ICO AFFILIATE/ico3lv.sol\":13037:13063  user.deposits[index].start */\n      0x04\n      add\n      sload\n        /* \"ICO AFFILIATE/ico3lv.sol\":13029:13063  start = user.deposits[index].start */\n      swap3\n      pop\n        /* \"ICO AFFILIATE/ico3lv.sol\":13076:13080  user */\n      dup1\n        /* \"ICO AFFILIATE/ico3lv.sol\":13076:13089  user.deposits */\n      0x00\n      add\n        /* \"ICO AFFILIATE/ico3lv.sol\":13090:13095  index */\n      dup9\n        /* \"ICO AFFILIATE/ico3lv.sol\":13076:13096  user.deposits[index] */\n      dup2\n      sload\n      dup2\n      lt\n      tag_465\n      jumpi\n      invalid\n    tag_465:\n      swap1\n      0x00\n      mstore\n      keccak256(0x00, 0x20)\n      swap1\n      0x06\n      mul\n      add\n        /* \"ICO AFFILIATE/ico3lv.sol\":13076:13103  user.deposits[index].finish */\n      0x05\n      add\n      sload\n        /* \"ICO AFFILIATE/ico3lv.sol\":13067:13103  finish = user.deposits[index].finish */\n      swap2\n      pop\n        /* \"ICO AFFILIATE/ico3lv.sol\":12645:13107  function getUserDepositInfo(address userAddress, uint256 index) public view returns(uint8 plan, uint256 percent, uint256 amount, uint256 profit, uint256 start, uint256 finish) {... */\n      pop\n      swap3\n      swap6\n      pop\n      swap3\n      swap6\n      pop\n      swap3\n      swap6\n      jump\t// out\n        /* \"ICO AFFILIATE/ico3lv.sol\":3041:3065  uint256 public startUNIX */\n    tag_203:\n      sload(0x11)\n      dup2\n      jump\t// out\n        /* \"ICO AFFILIATE/ico3lv.sol\":2049:2073  uint public raisedAmount */\n    tag_206:\n      sload(0x08)\n      dup2\n      jump\t// out\n        /* \"ICO AFFILIATE/ico3lv.sol\":11253:11374  function getUserCheckpoint(address userAddress) public view returns(uint256) {... */\n    tag_210:\n        /* \"ICO AFFILIATE/ico3lv.sol\":11321:11328  uint256 */\n      0x00\n        /* \"ICO AFFILIATE/ico3lv.sol\":11341:11346  users */\n      0x10\n        /* \"ICO AFFILIATE/ico3lv.sol\":11341:11359  users[userAddress] */\n      0x00\n        /* \"ICO AFFILIATE/ico3lv.sol\":11347:11358  userAddress */\n      dup4\n        /* \"ICO AFFILIATE/ico3lv.sol\":11341:11359  users[userAddress] */\n      0xffffffffffffffffffffffffffffffffffffffff\n      and\n      0xffffffffffffffffffffffffffffffffffffffff\n      and\n      dup2\n      mstore\n      0x20\n      add\n      swap1\n      dup2\n      mstore\n      0x20\n      add\n      0x00\n      keccak256\n        /* \"ICO AFFILIATE/ico3lv.sol\":11341:11370  users[userAddress].checkpoint */\n      0x01\n      add\n      sload\n        /* \"ICO AFFILIATE/ico3lv.sol\":11334:11370  return users[userAddress].checkpoint */\n      swap1\n      pop\n        /* \"ICO AFFILIATE/ico3lv.sol\":11253:11374  function getUserCheckpoint(address userAddress) public view returns(uint256) {... */\n      swap2\n      swap1\n      pop\n      jump\t// out\n        /* \"ICO AFFILIATE/ico3lv.sol\":13750:14038  function endIco() public {... */\n    tag_213:\n        /* \"ICO AFFILIATE/ico3lv.sol\":13805:13818  State.RUNNING */\n      0x01\n        /* \"ICO AFFILIATE/ico3lv.sol\":13793:13818  ICOState == State.RUNNING */\n      0x03\n      dup2\n      gt\n      iszero\n      tag_469\n      jumpi\n      invalid\n    tag_469:\n        /* \"ICO AFFILIATE/ico3lv.sol\":13793:13801  ICOState */\n      0x0e\n      0x00\n      swap1\n      sload\n      swap1\n      0x0100\n      exp\n      swap1\n      div\n      0xff\n      and\n        /* \"ICO AFFILIATE/ico3lv.sol\":13793:13818  ICOState == State.RUNNING */\n      0x03\n      dup2\n      gt\n      iszero\n      tag_470\n      jumpi\n      invalid\n    tag_470:\n      eq\n        /* \"ICO AFFILIATE/ico3lv.sol\":13785:13853  require(ICOState == State.RUNNING, \"ICO Should be in Running State\") */\n      tag_471\n      jumpi\n      mload(0x40)\n      0x08c379a000000000000000000000000000000000000000000000000000000000\n      dup2\n      mstore\n      0x04\n      add\n      dup1\n      dup1\n      0x20\n      add\n      dup3\n      dup2\n      sub\n      dup3\n      mstore\n      0x1e\n      dup2\n      mstore\n      0x20\n      add\n      dup1\n      0x49434f2053686f756c6420626520696e2052756e6e696e672053746174650000\n      dup2\n      mstore\n      pop\n      0x20\n      add\n      swap2\n      pop\n      pop\n      mload(0x40)\n      dup1\n      swap2\n      sub\n      swap1\n      revert\n    tag_471:\n        /* \"ICO AFFILIATE/ico3lv.sol\":13902:13912  icoEndTime */\n      sload(0x0c)\n        /* \"ICO AFFILIATE/ico3lv.sol\":13884:13899  block.timestamp */\n      timestamp\n        /* \"ICO AFFILIATE/ico3lv.sol\":13884:13912  block.timestamp > icoEndTime */\n      gt\n        /* \"ICO AFFILIATE/ico3lv.sol\":13884:13939  block.timestamp > icoEndTime || raisedAmount >= hardCap */\n      dup1\n      tag_472\n      jumpi\n      pop\n        /* \"ICO AFFILIATE/ico3lv.sol\":13932:13939  hardCap */\n      sload(0x07)\n        /* \"ICO AFFILIATE/ico3lv.sol\":13916:13928  raisedAmount */\n      sload(0x08)\n        /* \"ICO AFFILIATE/ico3lv.sol\":13916:13939  raisedAmount >= hardCap */\n      lt\n      iszero\n        /* \"ICO AFFILIATE/ico3lv.sol\":13884:13939  block.timestamp > icoEndTime || raisedAmount >= hardCap */\n    tag_472:\n        /* \"ICO AFFILIATE/ico3lv.sol\":13863:14001  require(... */\n      tag_473\n      jumpi\n      mload(0x40)\n      0x08c379a000000000000000000000000000000000000000000000000000000000\n      dup2\n      mstore\n      0x04\n      add\n      dup1\n      dup1\n      0x20\n      add\n      dup3\n      dup2\n      sub\n      dup3\n      mstore\n      0x24\n      dup2\n      mstore\n      0x20\n      add\n      dup1\n      data_dc7fa2e80399799691b973c960ff16c142e88d2d122b55a780d570b72441b8f9\n      0x24\n      swap2\n      codecopy\n      0x40\n      add\n      swap2\n      pop\n      pop\n      mload(0x40)\n      dup1\n      swap2\n      sub\n      swap1\n      revert\n    tag_473:\n        /* \"ICO AFFILIATE/ico3lv.sol\":14022:14031  State.END */\n      0x02\n        /* \"ICO AFFILIATE/ico3lv.sol\":14011:14019  ICOState */\n      0x0e\n      0x00\n        /* \"ICO AFFILIATE/ico3lv.sol\":14011:14031  ICOState = State.END */\n      0x0100\n      exp\n      dup2\n      sload\n      dup2\n      0xff\n      mul\n      not\n      and\n      swap1\n      dup4\n      0x03\n      dup2\n      gt\n      iszero\n      tag_474\n      jumpi\n      invalid\n    tag_474:\n      mul\n      or\n      swap1\n      sstore\n      pop\n        /* \"ICO AFFILIATE/ico3lv.sol\":13750:14038  function endIco() public {... */\n      jump\t// out\n        /* \"ICO AFFILIATE/ico3lv.sol\":11703:11822  function getUserReferralBonus(address userAddress) public view returns(uint256) {... */\n    tag_217:\n        /* \"ICO AFFILIATE/ico3lv.sol\":11774:11781  uint256 */\n      0x00\n        /* \"ICO AFFILIATE/ico3lv.sol\":11794:11799  users */\n      0x10\n        /* \"ICO AFFILIATE/ico3lv.sol\":11794:11812  users[userAddress] */\n      0x00\n        /* \"ICO AFFILIATE/ico3lv.sol\":11800:11811  userAddress */\n      dup4\n        /* \"ICO AFFILIATE/ico3lv.sol\":11794:11812  users[userAddress] */\n      0xffffffffffffffffffffffffffffffffffffffff\n      and\n      0xffffffffffffffffffffffffffffffffffffffff\n      and\n      dup2\n      mstore\n      0x20\n      add\n      swap1\n      dup2\n      mstore\n      0x20\n      add\n      0x00\n      keccak256\n        /* \"ICO AFFILIATE/ico3lv.sol\":11794:11818  users[userAddress].bonus */\n      0x06\n      add\n      sload\n        /* \"ICO AFFILIATE/ico3lv.sol\":11787:11818  return users[userAddress].bonus */\n      swap1\n      pop\n        /* \"ICO AFFILIATE/ico3lv.sol\":11703:11822  function getUserReferralBonus(address userAddress) public view returns(uint256) {... */\n      swap2\n      swap1\n      pop\n      jump\t// out\n        /* \"ICO AFFILIATE/ico3lv.sol\":1848:1868  address public admin */\n    tag_220:\n      0x03\n      0x00\n      swap1\n      sload\n      swap1\n      0x0100\n      exp\n      swap1\n      div\n      0xffffffffffffffffffffffffffffffffffffffff\n      and\n      dup2\n      jump\t// out\n        /* \"ICO AFFILIATE/ico3lv.sol\":2012:2043  uint public hardCap = 500 ether */\n    tag_223:\n      sload(0x07)\n      dup2\n      jump\t// out\n        /* \"ICO AFFILIATE/ico3lv.sol\":1925:1944  IERC20 public token */\n    tag_226:\n      0x05\n      0x00\n      swap1\n      sload\n      swap1\n      0x0100\n      exp\n      swap1\n      div\n      0xffffffffffffffffffffffffffffffffffffffff\n      and\n      dup2\n      jump\t// out\n        /* \"https://github.com/OpenZeppelin/openzeppelin-contracts/blob/v3.0.0/contracts/math/SafeMath.sol\":834:1010  function add(uint256 a, uint256 b) internal pure returns (uint256) {... */\n    tag_250:\n        /* \"https://github.com/OpenZeppelin/openzeppelin-contracts/blob/v3.0.0/contracts/math/SafeMath.sol\":892:899  uint256 */\n      0x00\n        /* \"https://github.com/OpenZeppelin/openzeppelin-contracts/blob/v3.0.0/contracts/math/SafeMath.sol\":911:920  uint256 c */\n      dup1\n        /* \"https://github.com/OpenZeppelin/openzeppelin-contracts/blob/v3.0.0/contracts/math/SafeMath.sol\":927:928  b */\n      dup3\n        /* \"https://github.com/OpenZeppelin/openzeppelin-contracts/blob/v3.0.0/contracts/math/SafeMath.sol\":923:924  a */\n      dup5\n        /* \"https://github.com/OpenZeppelin/openzeppelin-contracts/blob/v3.0.0/contracts/math/SafeMath.sol\":923:928  a + b */\n      add\n        /* \"https://github.com/OpenZeppelin/openzeppelin-contracts/blob/v3.0.0/contracts/math/SafeMath.sol\":911:928  uint256 c = a + b */\n      swap1\n      pop\n        /* \"https://github.com/OpenZeppelin/openzeppelin-contracts/blob/v3.0.0/contracts/math/SafeMath.sol\":951:952  a */\n      dup4\n        /* \"https://github.com/OpenZeppelin/openzeppelin-contracts/blob/v3.0.0/contracts/math/SafeMath.sol\":946:947  c */\n      dup2\n        /* \"https://github.com/OpenZeppelin/openzeppelin-contracts/blob/v3.0.0/contracts/math/SafeMath.sol\":946:952  c >= a */\n      lt\n      iszero\n        /* \"https://github.com/OpenZeppelin/openzeppelin-contracts/blob/v3.0.0/contracts/math/SafeMath.sol\":938:984  require(c >= a, \"SafeMath: addition overflow\") */\n      tag_477\n      jumpi\n      mload(0x40)\n      0x08c379a000000000000000000000000000000000000000000000000000000000\n      dup2\n      mstore\n      0x04\n      add\n      dup1\n      dup1\n      0x20\n      add\n      dup3\n      dup2\n      sub\n      dup3\n      mstore\n      0x1b\n      dup2\n      mstore\n      0x20\n      add\n      dup1\n      0x536166654d6174683a206164646974696f6e206f766572666c6f770000000000\n      dup2\n      mstore\n      pop\n      0x20\n      add\n      swap2\n      pop\n      pop\n      mload(0x40)\n      dup1\n      swap2\n      sub\n      swap1\n      revert\n    tag_477:\n        /* \"https://github.com/OpenZeppelin/openzeppelin-contracts/blob/v3.0.0/contracts/math/SafeMath.sol\":1002:1003  c */\n      dup1\n        /* \"https://github.com/OpenZeppelin/openzeppelin-contracts/blob/v3.0.0/contracts/math/SafeMath.sol\":995:1003  return c */\n      swap2\n      pop\n      pop\n        /* \"https://github.com/OpenZeppelin/openzeppelin-contracts/blob/v3.0.0/contracts/math/SafeMath.sol\":834:1010  function add(uint256 a, uint256 b) internal pure returns (uint256) {... */\n      swap3\n      swap2\n      pop\n      pop\n      jump\t// out\n        /* \"https://github.com/OpenZeppelin/openzeppelin-contracts/blob/v3.0.0/contracts/math/SafeMath.sol\":2119:2578  function mul(uint256 a, uint256 b) internal pure returns (uint256) {... */\n    tag_263:\n        /* \"https://github.com/OpenZeppelin/openzeppelin-contracts/blob/v3.0.0/contracts/math/SafeMath.sol\":2177:2184  uint256 */\n      0x00\n        /* \"https://github.com/OpenZeppelin/openzeppelin-contracts/blob/v3.0.0/contracts/math/SafeMath.sol\":2423:2424  0 */\n      dup1\n        /* \"https://github.com/OpenZeppelin/openzeppelin-contracts/blob/v3.0.0/contracts/math/SafeMath.sol\":2418:2419  a */\n      dup4\n        /* \"https://github.com/OpenZeppelin/openzeppelin-contracts/blob/v3.0.0/contracts/math/SafeMath.sol\":2418:2424  a == 0 */\n      eq\n        /* \"https://github.com/OpenZeppelin/openzeppelin-contracts/blob/v3.0.0/contracts/math/SafeMath.sol\":2414:2459  if (a == 0) {... */\n      iszero\n      tag_479\n      jumpi\n        /* \"https://github.com/OpenZeppelin/openzeppelin-contracts/blob/v3.0.0/contracts/math/SafeMath.sol\":2447:2448  0 */\n      0x00\n        /* \"https://github.com/OpenZeppelin/openzeppelin-contracts/blob/v3.0.0/contracts/math/SafeMath.sol\":2440:2448  return 0 */\n      swap1\n      pop\n      jump(tag_478)\n        /* \"https://github.com/OpenZeppelin/openzeppelin-contracts/blob/v3.0.0/contracts/math/SafeMath.sol\":2414:2459  if (a == 0) {... */\n    tag_479:\n        /* \"https://github.com/OpenZeppelin/openzeppelin-contracts/blob/v3.0.0/contracts/math/SafeMath.sol\":2469:2478  uint256 c */\n      0x00\n        /* \"https://github.com/OpenZeppelin/openzeppelin-contracts/blob/v3.0.0/contracts/math/SafeMath.sol\":2485:2486  b */\n      dup3\n        /* \"https://github.com/OpenZeppelin/openzeppelin-contracts/blob/v3.0.0/contracts/math/SafeMath.sol\":2481:2482  a */\n      dup5\n        /* \"https://github.com/OpenZeppelin/openzeppelin-contracts/blob/v3.0.0/contracts/math/SafeMath.sol\":2481:2486  a * b */\n      mul\n        /* \"https://github.com/OpenZeppelin/openzeppelin-contracts/blob/v3.0.0/contracts/math/SafeMath.sol\":2469:2486  uint256 c = a * b */\n      swap1\n      pop\n        /* \"https://github.com/OpenZeppelin/openzeppelin-contracts/blob/v3.0.0/contracts/math/SafeMath.sol\":2513:2514  b */\n      dup3\n        /* \"https://github.com/OpenZeppelin/openzeppelin-contracts/blob/v3.0.0/contracts/math/SafeMath.sol\":2508:2509  a */\n      dup5\n        /* \"https://github.com/OpenZeppelin/openzeppelin-contracts/blob/v3.0.0/contracts/math/SafeMath.sol\":2504:2505  c */\n      dup3\n        /* \"https://github.com/OpenZeppelin/openzeppelin-contracts/blob/v3.0.0/contracts/math/SafeMath.sol\":2504:2509  c / a */\n      dup2\n      tag_480\n      jumpi\n      invalid\n    tag_480:\n      div\n        /* \"https://github.com/OpenZeppelin/openzeppelin-contracts/blob/v3.0.0/contracts/math/SafeMath.sol\":2504:2514  c / a == b */\n      eq\n        /* \"https://github.com/OpenZeppelin/openzeppelin-contracts/blob/v3.0.0/contracts/math/SafeMath.sol\":2496:2552  require(c / a == b, \"SafeMath: multiplication overflow\") */\n      tag_481\n      jumpi\n      mload(0x40)\n      0x08c379a000000000000000000000000000000000000000000000000000000000\n      dup2\n      mstore\n      0x04\n      add\n      dup1\n      dup1\n      0x20\n      add\n      dup3\n      dup2\n      sub\n      dup3\n      mstore\n      0x21\n      dup2\n      mstore\n      0x20\n      add\n      dup1\n      data_9113bb53c2876a3805b2c9242029423fc540a728243ce887ab24c82cf119fba3\n      0x21\n      swap2\n      codecopy\n      0x40\n      add\n      swap2\n      pop\n      pop\n      mload(0x40)\n      dup1\n      swap2\n      sub\n      swap1\n      revert\n    tag_481:\n        /* \"https://github.com/OpenZeppelin/openzeppelin-contracts/blob/v3.0.0/contracts/math/SafeMath.sol\":2570:2571  c */\n      dup1\n        /* \"https://github.com/OpenZeppelin/openzeppelin-contracts/blob/v3.0.0/contracts/math/SafeMath.sol\":2563:2571  return c */\n      swap2\n      pop\n      pop\n        /* \"https://github.com/OpenZeppelin/openzeppelin-contracts/blob/v3.0.0/contracts/math/SafeMath.sol\":2119:2578  function mul(uint256 a, uint256 b) internal pure returns (uint256) {... */\n    tag_478:\n      swap3\n      swap2\n      pop\n      pop\n      jump\t// out\n        /* \"https://github.com/OpenZeppelin/openzeppelin-contracts/blob/v3.0.0/contracts/math/SafeMath.sol\":3033:3163  function div(uint256 a, uint256 b) internal pure returns (uint256) {... */\n    tag_264:\n        /* \"https://github.com/OpenZeppelin/openzeppelin-contracts/blob/v3.0.0/contracts/math/SafeMath.sol\":3091:3098  uint256 */\n      0x00\n        /* \"https://github.com/OpenZeppelin/openzeppelin-contracts/blob/v3.0.0/contracts/math/SafeMath.sol\":3117:3156  div(a, b, \"SafeMath: division by zero\") */\n      tag_483\n        /* \"https://github.com/OpenZeppelin/openzeppelin-contracts/blob/v3.0.0/contracts/math/SafeMath.sol\":3121:3122  a */\n      dup4\n        /* \"https://github.com/OpenZeppelin/openzeppelin-contracts/blob/v3.0.0/contracts/math/SafeMath.sol\":3124:3125  b */\n      dup4\n        /* \"https://github.com/OpenZeppelin/openzeppelin-contracts/blob/v3.0.0/contracts/math/SafeMath.sol\":3117:3156  div(a, b, \"SafeMath: division by zero\") */\n      mload(0x40)\n      dup1\n      0x40\n      add\n      0x40\n      mstore\n      dup1\n      0x1a\n      dup2\n      mstore\n      0x20\n      add\n      0x536166654d6174683a206469766973696f6e206279207a65726f000000000000\n      dup2\n      mstore\n      pop\n        /* \"https://github.com/OpenZeppelin/openzeppelin-contracts/blob/v3.0.0/contracts/math/SafeMath.sol\":3117:3120  div */\n      tag_484\n        /* \"https://github.com/OpenZeppelin/openzeppelin-contracts/blob/v3.0.0/contracts/math/SafeMath.sol\":3117:3156  div(a, b, \"SafeMath: division by zero\") */\n      jump\t// in\n    tag_483:\n        /* \"https://github.com/OpenZeppelin/openzeppelin-contracts/blob/v3.0.0/contracts/math/SafeMath.sol\":3110:3156  return div(a, b, \"SafeMath: division by zero\") */\n      swap1\n      pop\n        /* \"https://github.com/OpenZeppelin/openzeppelin-contracts/blob/v3.0.0/contracts/math/SafeMath.sol\":3033:3163  function div(uint256 a, uint256 b) internal pure returns (uint256) {... */\n      swap3\n      swap2\n      pop\n      pop\n      jump\t// out\n        /* \"https://github.com/OpenZeppelin/openzeppelin-contracts/blob/v3.0.0/contracts/math/SafeMath.sol\":1274:1408  function sub(uint256 a, uint256 b) internal pure returns (uint256) {... */\n    tag_266:\n        /* \"https://github.com/OpenZeppelin/openzeppelin-contracts/blob/v3.0.0/contracts/math/SafeMath.sol\":1332:1339  uint256 */\n      0x00\n        /* \"https://github.com/OpenZeppelin/openzeppelin-contracts/blob/v3.0.0/contracts/math/SafeMath.sol\":1358:1401  sub(a, b, \"SafeMath: subtraction overflow\") */\n      tag_486\n        /* \"https://github.com/OpenZeppelin/openzeppelin-contracts/blob/v3.0.0/contracts/math/SafeMath.sol\":1362:1363  a */\n      dup4\n        /* \"https://github.com/OpenZeppelin/openzeppelin-contracts/blob/v3.0.0/contracts/math/SafeMath.sol\":1365:1366  b */\n      dup4\n        /* \"https://github.com/OpenZeppelin/openzeppelin-contracts/blob/v3.0.0/contracts/math/SafeMath.sol\":1358:1401  sub(a, b, \"SafeMath: subtraction overflow\") */\n      mload(0x40)\n      dup1\n      0x40\n      add\n      0x40\n      mstore\n      dup1\n      0x1e\n      dup2\n      mstore\n      0x20\n      add\n      0x536166654d6174683a207375627472616374696f6e206f766572666c6f770000\n      dup2\n      mstore\n      pop\n        /* \"https://github.com/OpenZeppelin/openzeppelin-contracts/blob/v3.0.0/contracts/math/SafeMath.sol\":1358:1361  sub */\n      tag_487\n        /* \"https://github.com/OpenZeppelin/openzeppelin-contracts/blob/v3.0.0/contracts/math/SafeMath.sol\":1358:1401  sub(a, b, \"SafeMath: subtraction overflow\") */\n      jump\t// in\n    tag_486:\n        /* \"https://github.com/OpenZeppelin/openzeppelin-contracts/blob/v3.0.0/contracts/math/SafeMath.sol\":1351:1401  return sub(a, b, \"SafeMath: subtraction overflow\") */\n      swap1\n      pop\n        /* \"https://github.com/OpenZeppelin/openzeppelin-contracts/blob/v3.0.0/contracts/math/SafeMath.sol\":1274:1408  function sub(uint256 a, uint256 b) internal pure returns (uint256) {... */\n      swap3\n      swap2\n      pop\n      pop\n      jump\t// out\n        /* \"https://github.com/OpenZeppelin/openzeppelin-contracts/blob/v3.0.0/contracts/math/SafeMath.sol\":3638:3976  function div(uint256 a, uint256 b, string memory errorMessage) internal pure returns (uint256) {... */\n    tag_484:\n        /* \"https://github.com/OpenZeppelin/openzeppelin-contracts/blob/v3.0.0/contracts/math/SafeMath.sol\":3724:3731  uint256 */\n      0x00\n        /* \"https://github.com/OpenZeppelin/openzeppelin-contracts/blob/v3.0.0/contracts/math/SafeMath.sol\":3821:3822  0 */\n      dup1\n        /* \"https://github.com/OpenZeppelin/openzeppelin-contracts/blob/v3.0.0/contracts/math/SafeMath.sol\":3817:3818  b */\n      dup4\n        /* \"https://github.com/OpenZeppelin/openzeppelin-contracts/blob/v3.0.0/contracts/math/SafeMath.sol\":3817:3822  b > 0 */\n      gt\n        /* \"https://github.com/OpenZeppelin/openzeppelin-contracts/blob/v3.0.0/contracts/math/SafeMath.sol\":3824:3836  errorMessage */\n      dup3\n        /* \"https://github.com/OpenZeppelin/openzeppelin-contracts/blob/v3.0.0/contracts/math/SafeMath.sol\":3809:3837  require(b > 0, errorMessage) */\n      swap1\n      tag_489\n      jumpi\n      mload(0x40)\n      0x08c379a000000000000000000000000000000000000000000000000000000000\n      dup2\n      mstore\n      0x04\n      add\n      dup1\n      dup1\n      0x20\n      add\n      dup3\n      dup2\n      sub\n      dup3\n      mstore\n      dup4\n      dup2\n      dup2\n      mload\n      dup2\n      mstore\n      0x20\n      add\n      swap2\n      pop\n      dup1\n      mload\n      swap1\n      0x20\n      add\n      swap1\n      dup1\n      dup4\n      dup4\n      0x00\n    tag_490:\n      dup4\n      dup2\n      lt\n      iszero\n      tag_492\n      jumpi\n      dup1\n      dup3\n      add\n      mload\n      dup2\n      dup5\n      add\n      mstore\n      0x20\n      dup2\n      add\n      swap1\n      pop\n      jump(tag_490)\n    tag_492:\n      pop\n      pop\n      pop\n      pop\n      swap1\n      pop\n      swap1\n      dup2\n      add\n      swap1\n      0x1f\n      and\n      dup1\n      iszero\n      tag_493\n      jumpi\n      dup1\n      dup3\n      sub\n      dup1\n      mload\n      0x01\n      dup4\n      0x20\n      sub\n      0x0100\n      exp\n      sub\n      not\n      and\n      dup2\n      mstore\n      0x20\n      add\n      swap2\n      pop\n    tag_493:\n      pop\n      swap3\n      pop\n      pop\n      pop\n      mload(0x40)\n      dup1\n      swap2\n      sub\n      swap1\n      revert\n    tag_489:\n      pop\n        /* \"https://github.com/OpenZeppelin/openzeppelin-contracts/blob/v3.0.0/contracts/math/SafeMath.sol\":3847:3856  uint256 c */\n      0x00\n        /* \"https://github.com/OpenZeppelin/openzeppelin-contracts/blob/v3.0.0/contracts/math/SafeMath.sol\":3863:3864  b */\n      dup4\n        /* \"https://github.com/OpenZeppelin/openzeppelin-contracts/blob/v3.0.0/contracts/math/SafeMath.sol\":3859:3860  a */\n      dup6\n        /* \"https://github.com/OpenZeppelin/openzeppelin-contracts/blob/v3.0.0/contracts/math/SafeMath.sol\":3859:3864  a / b */\n      dup2\n      tag_494\n      jumpi\n      invalid\n    tag_494:\n      div\n        /* \"https://github.com/OpenZeppelin/openzeppelin-contracts/blob/v3.0.0/contracts/math/SafeMath.sol\":3847:3864  uint256 c = a / b */\n      swap1\n      pop\n        /* \"https://github.com/OpenZeppelin/openzeppelin-contracts/blob/v3.0.0/contracts/math/SafeMath.sol\":3968:3969  c */\n      dup1\n        /* \"https://github.com/OpenZeppelin/openzeppelin-contracts/blob/v3.0.0/contracts/math/SafeMath.sol\":3961:3969  return c */\n      swap2\n      pop\n      pop\n        /* \"https://github.com/OpenZeppelin/openzeppelin-contracts/blob/v3.0.0/contracts/math/SafeMath.sol\":3638:3976  function div(uint256 a, uint256 b, string memory errorMessage) internal pure returns (uint256) {... */\n      swap4\n      swap3\n      pop\n      pop\n      pop\n      jump\t// out\n        /* \"https://github.com/OpenZeppelin/openzeppelin-contracts/blob/v3.0.0/contracts/math/SafeMath.sol\":1692:1879  function sub(uint256 a, uint256 b, string memory errorMessage) internal pure returns (uint256) {... */\n    tag_487:\n        /* \"https://github.com/OpenZeppelin/openzeppelin-contracts/blob/v3.0.0/contracts/math/SafeMath.sol\":1778:1785  uint256 */\n      0x00\n        /* \"https://github.com/OpenZeppelin/openzeppelin-contracts/blob/v3.0.0/contracts/math/SafeMath.sol\":1810:1811  a */\n      dup4\n        /* \"https://github.com/OpenZeppelin/openzeppelin-contracts/blob/v3.0.0/contracts/math/SafeMath.sol\":1805:1806  b */\n      dup4\n        /* \"https://github.com/OpenZeppelin/openzeppelin-contracts/blob/v3.0.0/contracts/math/SafeMath.sol\":1805:1811  b <= a */\n      gt\n      iszero\n        /* \"https://github.com/OpenZeppelin/openzeppelin-contracts/blob/v3.0.0/contracts/math/SafeMath.sol\":1813:1825  errorMessage */\n      dup3\n        /* \"https://github.com/OpenZeppelin/openzeppelin-contracts/blob/v3.0.0/contracts/math/SafeMath.sol\":1797:1826  require(b <= a, errorMessage) */\n      swap1\n      tag_496\n      jumpi\n      mload(0x40)\n      0x08c379a000000000000000000000000000000000000000000000000000000000\n      dup2\n      mstore\n      0x04\n      add\n      dup1\n      dup1\n      0x20\n      add\n      dup3\n      dup2\n      sub\n      dup3\n      mstore\n      dup4\n      dup2\n      dup2\n      mload\n      dup2\n      mstore\n      0x20\n      add\n      swap2\n      pop\n      dup1\n      mload\n      swap1\n      0x20\n      add\n      swap1\n      dup1\n      dup4\n      dup4\n      0x00\n    tag_497:\n      dup4\n      dup2\n      lt\n      iszero\n      tag_499\n      jumpi\n      dup1\n      dup3\n      add\n      mload\n      dup2\n      dup5\n      add\n      mstore\n      0x20\n      dup2\n      add\n      swap1\n      pop\n      jump(tag_497)\n    tag_499:\n      pop\n      pop\n      pop\n      pop\n      swap1\n      pop\n      swap1\n      dup2\n      add\n      swap1\n      0x1f\n      and\n      dup1\n      iszero\n      tag_500\n      jumpi\n      dup1\n      dup3\n      sub\n      dup1\n      mload\n      0x01\n      dup4\n      0x20\n      sub\n      0x0100\n      exp\n      sub\n      not\n      and\n      dup2\n      mstore\n      0x20\n      add\n      swap2\n      pop\n    tag_500:\n      pop\n      swap3\n      pop\n      pop\n      pop\n      mload(0x40)\n      dup1\n      swap2\n      sub\n      swap1\n      revert\n    tag_496:\n      pop\n        /* \"https://github.com/OpenZeppelin/openzeppelin-contracts/blob/v3.0.0/contracts/math/SafeMath.sol\":1836:1845  uint256 c */\n      0x00\n        /* \"https://github.com/OpenZeppelin/openzeppelin-contracts/blob/v3.0.0/contracts/math/SafeMath.sol\":1852:1853  b */\n      dup4\n        /* \"https://github.com/OpenZeppelin/openzeppelin-contracts/blob/v3.0.0/contracts/math/SafeMath.sol\":1848:1849  a */\n      dup6\n        /* \"https://github.com/OpenZeppelin/openzeppelin-contracts/blob/v3.0.0/contracts/math/SafeMath.sol\":1848:1853  a - b */\n      sub\n        /* \"https://github.com/OpenZeppelin/openzeppelin-contracts/blob/v3.0.0/contracts/math/SafeMath.sol\":1836:1853  uint256 c = a - b */\n      swap1\n      pop\n        /* \"https://github.com/OpenZeppelin/openzeppelin-contracts/blob/v3.0.0/contracts/math/SafeMath.sol\":1871:1872  c */\n      dup1\n        /* \"https://github.com/OpenZeppelin/openzeppelin-contracts/blob/v3.0.0/contracts/math/SafeMath.sol\":1864:1872  return c */\n      swap2\n      pop\n      pop\n        /* \"https://github.com/OpenZeppelin/openzeppelin-contracts/blob/v3.0.0/contracts/math/SafeMath.sol\":1692:1879  function sub(uint256 a, uint256 b, string memory errorMessage) internal pure returns (uint256) {... */\n      swap4\n      swap3\n      pop\n      pop\n      pop\n      jump\t// out\n    stop\n    data_9113bb53c2876a3805b2c9242029423fc540a728243ce887ab24c82cf119fba3 536166654d6174683a206d756c7469706c69636174696f6e206f766572666c6f77\n    data_b19041b147863dd1e2485ec122191c4070e71be557889d8f39b29cf78e2bf81d 496e766573746f722072656163686564206d6178696d756d20496e766573746d656e7420416d6f756e74\n    data_dc7fa2e80399799691b973c960ff16c142e88d2d122b55a780d570b72441b8f9 49434f2048617264636170206f722074696d656c696d6974206e6f742072656163686564\n    data_f13fcb773ad89e9f621cb28d77b09fbd23fdcc64ec1eb1ebce4ad7e788cdc486 49434f20616c72656164792052656163686564204d6178696d756d2074696d65206c696d6974\n\n    auxdata: 0xa26469706673582212201c39203b34472f69b7cd15e14bb956e59bc10b1375a1e6e713f346e3dd0f0b8b64736f6c634300060c0033\n}\n",
				"bytecode": {
					"linkReferences": {},
					"object": "60806040526040518060600160405280603260ff168152602001601960ff168152602001600560ff1681525060009060036200003d929190620003cc565b50655af3107a4000600655681b1ae4d6e2ef50000060075566038d7ea4c680006009556729a2241af62c0000600a553480156200007957600080fd5b506040516200402938038062004029833981810160405260408110156200009f57600080fd5b810190808051906020019092919080519060200190929190505050620000cb82620003b960201b60201c565b15620000d657600080fd5b33600360006101000a81548173ffffffffffffffffffffffffffffffffffffffff021916908373ffffffffffffffffffffffffffffffffffffffff16021790555081600460006101000a81548173ffffffffffffffffffffffffffffffffffffffff021916908373ffffffffffffffffffffffffffffffffffffffff16021790555080600560006101000a81548173ffffffffffffffffffffffffffffffffffffffff021916908373ffffffffffffffffffffffffffffffffffffffff1602179055506001601181905550600f6040518060400160405280600e81526020016050815250908060018154018082558091505060019003906000526020600020906002020160009091909190915060008201518160000155602082015181600101555050600f6040518060400160405280601581526020016041815250908060018154018082558091505060019003906000526020600020906002020160009091909190915060008201518160000155602082015181600101555050600f6040518060400160405280601c81526020016032815250908060018154018082558091505060019003906000526020600020906002020160009091909190915060008201518160000155602082015181600101555050600f6040518060400160405280600e81526020016050815250908060018154018082558091505060019003906000526020600020906002020160009091909190915060008201518160000155602082015181600101555050600f6040518060400160405280601581526020016041815250908060018154018082558091505060019003906000526020600020906002020160009091909190915060008201518160000155602082015181600101555050600f6040518060400160405280601c81526020016032815250908060018154018082558091505060019003906000526020600020906002020160009091909190915060008201518160000155602082015181600101555050505062000442565b600080823b905060008111915050919050565b82805482825590600052602060002090810192821562000410579160200282015b828111156200040f578251829060ff16905591602001919060010190620003ed565b5b5090506200041f919062000423565b5090565b5b808211156200043e57600081600090555060010162000424565b5090565b613bd780620004526000396000f3fe60806040526004361061028a5760003560e01c80637e3abeea1161015a578063ae764df3116100c1578063d7ffca911161007a578063d7ffca9114610dcc578063e657807b14610e31578063e85abe0914610e48578063f851a44014610ead578063fb86a40414610eee578063fc0c546a14610f1957610299565b8063ae764df314610c11578063aecaa63414610c52578063aeecdc2c14610cab578063c0806b0314610ce1578063c234123814610d76578063c59ee1dc14610da157610299565b80639641119e116101135780639641119e14610acd57806397c0262a14610ad75780639cbd7da514610b18578063a51b953314610b2f578063a7c3d71b14610b81578063a8aeb6c214610bac57610299565b80637e3abeea1461097f5780637fa8c158146109e45780637ff9b596146109fb578063817b1cd214610a265780638ac2c68014610a515780638f28397014610a7c57610299565b806336144c9a116101fe5780636127b2ca116101b75780636127b2ca1461080957806361fba37d1461083457806369b11dd5146108995780636bb18556146108c45780636f9fb98a146109295780637e1055b61461095457610299565b806336144c9a1461061857806344df8e701461069357806348c37203146106c057806357fc86b4146107255780635936cf6114610750578063600d20ce146107ba57610299565b8063040a772e11610250578063040a772e14610417578063129caa181461047c578063153ab9df146104935780631aae3460146104f85780632e659d931461055d57806332bc298c146105ed57610299565b80622e1316146102a3578062f53e69146102ce57806301c234a81461031f57806303a93c0c1461034a57806303f9c793146103bd57610299565b3661029957610297610f5a565b005b6102a1610f5a565b005b3480156102af57600080fd5b506102b8610f5c565b6040518082815260200191505060405180910390f35b3480156102da57600080fd5b5061031d600480360360208110156102f157600080fd5b81019080803573ffffffffffffffffffffffffffffffffffffffff169060200190929190505050610f62565b005b34801561032b57600080fd5b50610334611069565b6040518082815260200191505060405180910390f35b34801561035657600080fd5b506103996004803603602081101561036d57600080fd5b81019080803573ffffffffffffffffffffffffffffffffffffffff16906020019092919050505061106f565b60405180848152602001838152602001828152602001935050505060405180910390f35b6103ff600480360360208110156103d357600080fd5b81019080803573ffffffffffffffffffffffffffffffffffffffff169060200190929190505050611171565b60405180821515815260200191505060405180910390f35b34801561042357600080fd5b506104666004803603602081101561043a57600080fd5b81019080803573ffffffffffffffffffffffffffffffffffffffff16906020019092919050505061202e565b6040518082815260200191505060405180910390f35b34801561048857600080fd5b506104916122de565b005b34801561049f57600080fd5b506104e2600480360360208110156104b657600080fd5b81019080803573ffffffffffffffffffffffffffffffffffffffff169060200190929190505050612462565b6040518082815260200191505060405180910390f35b34801561050457600080fd5b506105476004803603602081101561051b57600080fd5b81019080803573ffffffffffffffffffffffffffffffffffffffff16906020019092919050505061248e565b6040518082815260200191505060405180910390f35b34801561056957600080fd5b506105726124a6565b6040518080602001828103825283818151815260200191508051906020019080838360005b838110156105b2578082015181840152602081019050610597565b50505050905090810190601f1680156105df5780820380516001836020036101000a031916815260200191505b509250505060405180910390f35b3480156105f957600080fd5b50610602612625565b6040518082815260200191505060405180910390f35b34801561062457600080fd5b506106676004803603602081101561063b57600080fd5b81019080803573ffffffffffffffffffffffffffffffffffffffff16906020019092919050505061262c565b604051808273ffffffffffffffffffffffffffffffffffffffff16815260200191505060405180910390f35b34801561069f57600080fd5b506106a8612698565b60405180821515815260200191505060405180910390f35b3480156106cc57600080fd5b5061070f600480360360208110156106e357600080fd5b81019080803573ffffffffffffffffffffffffffffffffffffffff1690602001909291905050506129aa565b6040518082815260200191505060405180910390f35b34801561073157600080fd5b5061073a6129f6565b6040518082815260200191505060405180910390f35b34801561075c57600080fd5b506107966004803603604081101561077357600080fd5b81019080803560ff169060200190929190803590602001909291905050506129fb565b60405180848152602001838152602001828152602001935050505060405180910390f35b3480156107c657600080fd5b506107f3600480360360208110156107dd57600080fd5b8101908080359060200190929190505050612b5f565b6040518082815260200191505060405180910390f35b34801561081557600080fd5b5061081e612b80565b6040518082815260200191505060405180910390f35b34801561084057600080fd5b506108836004803603602081101561085757600080fd5b81019080803573ffffffffffffffffffffffffffffffffffffffff169060200190929190505050612c4b565b6040518082815260200191505060405180910390f35b3480156108a557600080fd5b506108ae612d18565b6040518082815260200191505060405180910390f35b3480156108d057600080fd5b50610913600480360360208110156108e757600080fd5b81019080803573ffffffffffffffffffffffffffffffffffffffff169060200190929190505050612d1e565b6040518082815260200191505060405180910390f35b34801561093557600080fd5b5061093e612dbe565b6040518082815260200191505060405180910390f35b34801561096057600080fd5b50610969612dc6565b6040518082815260200191505060405180910390f35b34801561098b57600080fd5b506109ce600480360360208110156109a257600080fd5b81019080803573ffffffffffffffffffffffffffffffffffffffff169060200190929190505050612dcc565b6040518082815260200191505060405180910390f35b3480156109f057600080fd5b506109f9612ea7565b005b348015610a0757600080fd5b50610a10613041565b6040518082815260200191505060405180910390f35b348015610a3257600080fd5b50610a3b613047565b6040518082815260200191505060405180910390f35b348015610a5d57600080fd5b50610a6661304d565b6040518082815260200191505060405180910390f35b348015610a8857600080fd5b50610acb60048036036020811015610a9f57600080fd5b81019080803573ffffffffffffffffffffffffffffffffffffffff169060200190929190505050613053565b005b610ad5610f5a565b005b348015610ae357600080fd5b50610aec61315a565b604051808273ffffffffffffffffffffffffffffffffffffffff16815260200191505060405180910390f35b348015610b2457600080fd5b50610b2d613180565b005b348015610b3b57600080fd5b50610b6b60048036036020811015610b5257600080fd5b81019080803560ff169060200190929190505050613303565b6040518082815260200191505060405180910390f35b348015610b8d57600080fd5b50610b966133b0565b6040518082815260200191505060405180910390f35b348015610bb857600080fd5b50610bfb60048036036020811015610bcf57600080fd5b81019080803573ffffffffffffffffffffffffffffffffffffffff1690602001909291905050506133b6565b6040518082815260200191505060405180910390f35b348015610c1d57600080fd5b50610c26613405565b604051808273ffffffffffffffffffffffffffffffffffffffff16815260200191505060405180910390f35b348015610c5e57600080fd5b50610c8e60048036036020811015610c7557600080fd5b81019080803560ff16906020019092919050505061342b565b604051808381526020018281526020019250505060405180910390f35b348015610cb757600080fd5b50610cc061347b565b60405180826003811115610cd057fe5b815260200191505060405180910390f35b348015610ced57600080fd5b50610d3a60048036036040811015610d0457600080fd5b81019080803573ffffffffffffffffffffffffffffffffffffffff1690602001909291908035906020019092919050505061348e565b604051808760ff168152602001868152602001858152602001848152602001838152602001828152602001965050505050505060405180910390f35b348015610d8257600080fd5b50610d8b6135c4565b6040518082815260200191505060405180910390f35b348015610dad57600080fd5b50610db66135ca565b6040518082815260200191505060405180910390f35b348015610dd857600080fd5b50610e1b60048036036020811015610def57600080fd5b81019080803573ffffffffffffffffffffffffffffffffffffffff1690602001909291905050506135d0565b6040518082815260200191505060405180910390f35b348015610e3d57600080fd5b50610e4661361c565b005b348015610e5457600080fd5b50610e9760048036036020811015610e6b57600080fd5b81019080803573ffffffffffffffffffffffffffffffffffffffff169060200190929190505050613746565b6040518082815260200191505060405180910390f35b348015610eb957600080fd5b50610ec2613792565b604051808273ffffffffffffffffffffffffffffffffffffffff16815260200191505060405180910390f35b348015610efa57600080fd5b50610f036137b8565b6040518082815260200191505060405180910390f35b348015610f2557600080fd5b50610f2e6137be565b604051808273ffffffffffffffffffffffffffffffffffffffff16815260200191505060405180910390f35b565b600a5481565b600360009054906101000a900473ffffffffffffffffffffffffffffffffffffffff1673ffffffffffffffffffffffffffffffffffffffff163373ffffffffffffffffffffffffffffffffffffffff1614611025576040517f08c379a00000000000000000000000000000000000000000000000000000000081526004018080602001828103825260138152602001807f41646d696e204f6e6c792066756e6374696f6e0000000000000000000000000081525060200191505060405180910390fd5b80600460006101000a81548173ffffffffffffffffffffffffffffffffffffffff021916908373ffffffffffffffffffffffffffffffffffffffff16021790555050565b6103e881565b6000806000601060008573ffffffffffffffffffffffffffffffffffffffff1673ffffffffffffffffffffffffffffffffffffffff1681526020019081526020016000206003016000600381106110c257fe5b0154601060008673ffffffffffffffffffffffffffffffffffffffff1673ffffffffffffffffffffffffffffffffffffffff16815260200190815260200160002060030160016003811061111257fe5b0154601060008773ffffffffffffffffffffffffffffffffffffffff1673ffffffffffffffffffffffffffffffffffffffff16815260200190815260200160002060030160026003811061116257fe5b01549250925092509193909250565b6000806001905060095434101561118757600080fd5b60003490506000601060003373ffffffffffffffffffffffffffffffffffffffff1673ffffffffffffffffffffffffffffffffffffffff1681526020019081526020016000209050600073ffffffffffffffffffffffffffffffffffffffff168160020160009054906101000a900473ffffffffffffffffffffffffffffffffffffffff1673ffffffffffffffffffffffffffffffffffffffff16141561148e576000601060008773ffffffffffffffffffffffffffffffffffffffff1673ffffffffffffffffffffffffffffffffffffffff168152602001908152602001600020600001805490501180156112a957503373ffffffffffffffffffffffffffffffffffffffff168573ffffffffffffffffffffffffffffffffffffffff1614155b156112f257848160020160006101000a81548173ffffffffffffffffffffffffffffffffffffffff021916908373ffffffffffffffffffffffffffffffffffffffff1602179055505b60008160020160009054906101000a900473ffffffffffffffffffffffffffffffffffffffff16905060005b600381101561148b57600073ffffffffffffffffffffffffffffffffffffffff168273ffffffffffffffffffffffffffffffffffffffff1614611479576113bd6001601060008573ffffffffffffffffffffffffffffffffffffffff1673ffffffffffffffffffffffffffffffffffffffff16815260200190815260200160002060030183600381106113ad57fe5b01546137e490919063ffffffff16565b601060008473ffffffffffffffffffffffffffffffffffffffff1673ffffffffffffffffffffffffffffffffffffffff168152602001908152602001600020600301826003811061140a57fe5b0181905550601060008373ffffffffffffffffffffffffffffffffffffffff1673ffffffffffffffffffffffffffffffffffffffff16815260200190815260200160002060020160009054906101000a900473ffffffffffffffffffffffffffffffffffffffff16915061147e565b61148b565b808060010191505061131e565b50505b600073ffffffffffffffffffffffffffffffffffffffff168160020160009054906101000a900473ffffffffffffffffffffffffffffffffffffffff1673ffffffffffffffffffffffffffffffffffffffff161461189f5760008160020160009054906101000a900473ffffffffffffffffffffffffffffffffffffffff16905060005b600381101561189c57600073ffffffffffffffffffffffffffffffffffffffff168273ffffffffffffffffffffffffffffffffffffffff161461188a57600061158f6103e86115816000858154811061156757fe5b90600052602060002001543461386c90919063ffffffff16565b6138f290919063ffffffff16565b90506115a4818661393c90919063ffffffff16565b94506115fb81601060008673ffffffffffffffffffffffffffffffffffffffff1673ffffffffffffffffffffffffffffffffffffffff168152602001908152602001600020600601546137e490919063ffffffff16565b601060008573ffffffffffffffffffffffffffffffffffffffff1673ffffffffffffffffffffffffffffffffffffffff1681526020019081526020016000206006018190555061169681601060008673ffffffffffffffffffffffffffffffffffffffff1673ffffffffffffffffffffffffffffffffffffffff168152602001908152602001600020600701546137e490919063ffffffff16565b601060008573ffffffffffffffffffffffffffffffffffffffff1673ffffffffffffffffffffffffffffffffffffffff1681526020019081526020016000206007018190555060008373ffffffffffffffffffffffffffffffffffffffff168260405180600001905060006040518083038185875af1925050503d806000811461173c576040519150601f19603f3d011682016040523d82523d6000602084013e611741565b606091505b50509050806117b8576040517f08c379a00000000000000000000000000000000000000000000000000000000081526004018080602001828103825260108152602001807f4661696c656420746f20496e766573740000000000000000000000000000000081525060200191505060405180910390fd5b823373ffffffffffffffffffffffffffffffffffffffff168573ffffffffffffffffffffffffffffffffffffffff167fd41f7e766eebcc7ff42b11ac8691bdf864db4afc0c55e71d629d54edce460d98856040518082815260200191505060405180910390a4601060008573ffffffffffffffffffffffffffffffffffffffff1673ffffffffffffffffffffffffffffffffffffffff16815260200190815260200160002060020160009054906101000a900473ffffffffffffffffffffffffffffffffffffffff169350505061188f565b61189c565b8080600101915050611512565b50505b600081600001805490501415611906574281600101819055507f9fd565cd14c3c391679eb0cad12a14dcf7534e9d3462bcb9b67a098a9bbbc24a33604051808273ffffffffffffffffffffffffffffffffffffffff16815260200191505060405180910390a15b600080600061191586346129fb565b925092509250836000016040518060c001604052808860ff16815260200185815260200134815260200184815260200142815260200183815250908060018154018082558091505060019003906000526020600020906006020160009091909190915060008201518160000160006101000a81548160ff021916908360ff1602179055506020820151816001015560408201518160020155606082015181600301556080820151816004015560a0820151816005015550506119e2346001546137e490919063ffffffff16565b6001819055503373ffffffffffffffffffffffffffffffffffffffff167f84e02daa69bdb087c9fe8d3041abca495512cb14e723070f6d1d4efface82e5d878534864287604051808760ff168152602001868152602001858152602001848152602001838152602001828152602001965050505050505060405180910390a260016003811115611a6e57fe5b600e60009054906101000a900460ff166003811115611a8957fe5b14611afc576040517f08c379a00000000000000000000000000000000000000000000000000000000081526004018080602001828103825260118152602001807f49434f2069736e27742072756e6e696e6700000000000000000000000000000081525060200191505060405180910390fd5b6009543410158015611b105750600a543411155b611b82576040517f08c379a000000000000000000000000000000000000000000000000000000000815260040180806020018281038252601c8152602001807f436865636b204d696e20616e64204d617820496e766573746d656e740000000081525060200191505060405180910390fd5b600a5434600d60003373ffffffffffffffffffffffffffffffffffffffff1673ffffffffffffffffffffffffffffffffffffffff16815260200190815260200160002054011115611c1e576040517f08c379a000000000000000000000000000000000000000000000000000000000815260040180806020018281038252602a815260200180613b2e602a913960400191505060405180910390fd5b60075434600854011115611c9a576040517f08c379a00000000000000000000000000000000000000000000000000000000081526004018080602001828103825260198152602001807f53656e642077697468696e20686172646361702072616e67650000000000000081525060200191505060405180910390fd5b600c54421115611cf5576040517f08c379a0000000000000000000000000000000000000000000000000000000008152600401808060200182810382526026815260200180613b7c6026913960400191505060405180910390fd5b3460086000828254019250508190555034600d60003373ffffffffffffffffffffffffffffffffffffffff1673ffffffffffffffffffffffffffffffffffffffff168152602001908152602001600020600082825401925050819055506000600460009054906101000a900473ffffffffffffffffffffffffffffffffffffffff1673ffffffffffffffffffffffffffffffffffffffff168660405180600001905060006040518083038185875af1925050503d8060008114611dd4576040519150601f19603f3d011682016040523d82523d6000602084013e611dd9565b606091505b5050905080611e50576040517f08c379a00000000000000000000000000000000000000000000000000000000081526004018080602001828103825260108152602001807f4661696c656420746f20496e766573740000000000000000000000000000000081525060200191505060405180910390fd5b6000670de0b6b3a76400006006543481611e6657fe5b040290506000600560009054906101000a900473ffffffffffffffffffffffffffffffffffffffff1673ffffffffffffffffffffffffffffffffffffffff1663a9059cbb33846040518363ffffffff1660e01b8152600401808373ffffffffffffffffffffffffffffffffffffffff16815260200182815260200192505050602060405180830381600087803b158015611eff57600080fd5b505af1158015611f13573d6000803e3d6000fd5b505050506040513d6020811015611f2957600080fd5b8101908080519060200190929190505050905080611faf576040517f08c379a00000000000000000000000000000000000000000000000000000000081526004018080602001828103825260108152602001807f4661696c656420746f20496e766573740000000000000000000000000000000081525060200191505060405180910390fd5b3373ffffffffffffffffffffffffffffffffffffffff163073ffffffffffffffffffffffffffffffffffffffff167f2e206bbdd5787cd6d3e97144dec044f9f15dd77a257afd27fa70cad6f03feae33485604051808381526020018281526020019250505060405180910390a360019950505050505050505050919050565b600080601060008473ffffffffffffffffffffffffffffffffffffffff1673ffffffffffffffffffffffffffffffffffffffff1681526020019081526020016000209050600080600090505b82600001805490508110156122d35782600001818154811061209857fe5b906000526020600020906006020160050154836001015410156122c65760038360000182815481106120c657fe5b906000526020600020906006020160000160009054906101000a900460ff1660ff1610156122665760006121576103e861214986600001858154811061210857fe5b90600052602060002090600602016001015487600001868154811061212957fe5b90600052602060002090600602016002015461386c90919063ffffffff16565b6138f290919063ffffffff16565b90506000846001015485600001848154811061216f57fe5b906000526020600020906006020160040154116121905784600101546121b2565b84600001838154811061219f57fe5b9060005260206000209060060201600401545b90506000428660000185815481106121c657fe5b906000526020600020906006020160050154106121e35742612205565b8560000184815481106121f257fe5b9060005260206000209060060201600501545b90508082101561225e5761225b61224c6201518061223e61222f868661393c90919063ffffffff16565b8761386c90919063ffffffff16565b6138f290919063ffffffff16565b866137e490919063ffffffff16565b94505b5050506122c5565b82600001818154811061227557fe5b9060005260206000209060060201600501544211156122c4576122c18360000182815481106122a057fe5b906000526020600020906006020160030154836137e490919063ffffffff16565b91505b5b5b808060010191505061207a565b508092505050919050565b600360009054906101000a900473ffffffffffffffffffffffffffffffffffffffff1673ffffffffffffffffffffffffffffffffffffffff163373ffffffffffffffffffffffffffffffffffffffff16146123a1576040517f08c379a00000000000000000000000000000000000000000000000000000000081526004018080602001828103825260138152602001807f41646d696e204f6e6c792066756e6374696f6e0000000000000000000000000081525060200191505060405180910390fd5b600160038111156123ae57fe5b600e60009054906101000a900460ff1660038111156123c957fe5b1461243c576040517f08c379a00000000000000000000000000000000000000000000000000000000081526004018080602001828103825260158152602001807f49434f2069736e27742072756e6e696e6720796574000000000000000000000081525060200191505060405180910390fd5b6003600e60006101000a81548160ff0219169083600381111561245b57fe5b0217905550565b60006124876124708361202e565b61247984613746565b6137e490919063ffffffff16565b9050919050565b600d6020528060005260406000206000915090505481565b6060600060038111156124b557fe5b600e60009054906101000a900460ff1660038111156124d057fe5b1415612513576040518060400160405280600b81526020017f4e6f7420537461727465640000000000000000000000000000000000000000008152509050612622565b6001600381111561252057fe5b600e60009054906101000a900460ff16600381111561253b57fe5b141561257e576040518060400160405280600781526020017f52756e6e696e67000000000000000000000000000000000000000000000000008152509050612622565b6002600381111561258b57fe5b600e60009054906101000a900460ff1660038111156125a657fe5b14156125e9576040518060400160405280600381526020017f456e6400000000000000000000000000000000000000000000000000000000008152509050612622565b6040518060400160405280600681526020017f48616c746564000000000000000000000000000000000000000000000000000081525090505b90565b6201518081565b6000601060008373ffffffffffffffffffffffffffffffffffffffff1673ffffffffffffffffffffffffffffffffffffffff16815260200190815260200160002060020160009054906101000a900473ffffffffffffffffffffffffffffffffffffffff169050919050565b6000600260038111156126a757fe5b600e60009054906101000a900460ff1660038111156126c257fe5b14612735576040517f08c379a00000000000000000000000000000000000000000000000000000000081526004018080602001828103825260128152602001807f49434f2069736e2774206f76657220796574000000000000000000000000000081525060200191505060405180910390fd5b6000600560009054906101000a900473ffffffffffffffffffffffffffffffffffffffff1673ffffffffffffffffffffffffffffffffffffffff166370a08231306040518263ffffffff1660e01b8152600401808273ffffffffffffffffffffffffffffffffffffffff16815260200191505060206040518083038186803b1580156127c057600080fd5b505afa1580156127d4573d6000803e3d6000fd5b505050506040513d60208110156127ea57600080fd5b810190808051906020019092919050505090506000600560009054906101000a900473ffffffffffffffffffffffffffffffffffffffff1673ffffffffffffffffffffffffffffffffffffffff1663a9059cbb6000846040518363ffffffff1660e01b8152600401808373ffffffffffffffffffffffffffffffffffffffff16815260200182815260200192505050602060405180830381600087803b15801561289357600080fd5b505af11580156128a7573d6000803e3d6000fd5b505050506040513d60208110156128bd57600080fd5b8101908080519060200190929190505050905080612943576040517f08c379a000000000000000000000000000000000000000000000000000000000815260040180806020018281038252601f8152602001807f4661696c656420746f206275726e2072656d61696e696e6720746f6b656e730081525060200191505060405180910390fd5b7ffe9e0b0c1e3e9216717d5f66d10bc310b12c366417e150b4b1af9fb9620bca9160008342604051808473ffffffffffffffffffffffffffffffffffffffff168152602001838152602001828152602001935050505060405180910390a160019250505090565b6000601060008373ffffffffffffffffffffffffffffffffffffffff1673ffffffffffffffffffffffffffffffffffffffff168152602001908152602001600020600701549050919050565b600581565b6000806000612a0985613303565b925060038560ff161015612a7857612a71600f8660ff1681548110612a2a57fe5b906000526020600020906002020160000154612a636103e8612a55878961386c90919063ffffffff16565b6138f290919063ffffffff16565b61386c90919063ffffffff16565b9150612b0d565b60068560ff161015612b0c5760005b600f8660ff1681548110612a9757fe5b906000526020600020906002020160000154811015612b0a57612afb612aec6103e8612ade87612ad0888b6137e490919063ffffffff16565b61386c90919063ffffffff16565b6138f290919063ffffffff16565b846137e490919063ffffffff16565b92508080600101915050612a87565b505b5b612b56612b4762015180600f8860ff1681548110612b2757fe5b90600052602060002090600202016000015461386c90919063ffffffff16565b426137e490919063ffffffff16565b90509250925092565b60008181548110612b6c57fe5b906000526020600020016000915090505481565b6000600560009054906101000a900473ffffffffffffffffffffffffffffffffffffffff1673ffffffffffffffffffffffffffffffffffffffff166370a08231306040518263ffffffff1660e01b8152600401808273ffffffffffffffffffffffffffffffffffffffff16815260200191505060206040518083038186803b158015612c0b57600080fd5b505afa158015612c1f573d6000803e3d6000fd5b505050506040513d6020811015612c3557600080fd5b8101908080519060200190929190505050905090565b6000600560009054906101000a900473ffffffffffffffffffffffffffffffffffffffff1673ffffffffffffffffffffffffffffffffffffffff166370a08231836040518263ffffffff1660e01b8152600401808273ffffffffffffffffffffffffffffffffffffffff16815260200191505060206040518083038186803b158015612cd657600080fd5b505afa158015612cea573d6000803e3d6000fd5b505050506040513d6020811015612d0057600080fd5b81019080805190602001909291905050509050919050565b60025481565b6000612db7601060008473ffffffffffffffffffffffffffffffffffffffff1673ffffffffffffffffffffffffffffffffffffffff16815260200190815260200160002060060154601060008573ffffffffffffffffffffffffffffffffffffffff1673ffffffffffffffffffffffffffffffffffffffff1681526020019081526020016000206007015461393c90919063ffffffff16565b9050919050565b600047905090565b600c5481565b600080600090505b601060008473ffffffffffffffffffffffffffffffffffffffff1673ffffffffffffffffffffffffffffffffffffffff16815260200190815260200160002060000180549050811015612ea157612e92601060008573ffffffffffffffffffffffffffffffffffffffff1673ffffffffffffffffffffffffffffffffffffffff1681526020019081526020016000206000018281548110612e7157fe5b906000526020600020906006020160020154836137e490919063ffffffff16565b91508080600101915050612dd4565b50919050565b600360009054906101000a900473ffffffffffffffffffffffffffffffffffffffff1673ffffffffffffffffffffffffffffffffffffffff163373ffffffffffffffffffffffffffffffffffffffff1614612f6a576040517f08c379a00000000000000000000000000000000000000000000000000000000081526004018080602001828103825260138152602001807f41646d696e204f6e6c792066756e6374696f6e0000000000000000000000000081525060200191505060405180910390fd5b60006003811115612f7757fe5b600e60009054906101000a900460ff166003811115612f9257fe5b14613005576040517f08c379a00000000000000000000000000000000000000000000000000000000081526004018080602001828103825260198152602001807f49434f2069736e277420696e206265666f72652073746174650000000000000081525060200191505060405180910390fd5b42600b819055506301e13380600b5401600c819055506001600e60006101000a81548160ff0219169083600381111561303a57fe5b0217905550565b60065481565b60015481565b60095481565b600360009054906101000a900473ffffffffffffffffffffffffffffffffffffffff1673ffffffffffffffffffffffffffffffffffffffff163373ffffffffffffffffffffffffffffffffffffffff1614613116576040517f08c379a00000000000000000000000000000000000000000000000000000000081526004018080602001828103825260138152602001807f41646d696e204f6e6c792066756e6374696f6e0000000000000000000000000081525060200191505060405180910390fd5b80600360006101000a81548173ffffffffffffffffffffffffffffffffffffffff021916908373ffffffffffffffffffffffffffffffffffffffff16021790555050565b601260009054906101000a900473ffffffffffffffffffffffffffffffffffffffff1681565b600360009054906101000a900473ffffffffffffffffffffffffffffffffffffffff1673ffffffffffffffffffffffffffffffffffffffff163373ffffffffffffffffffffffffffffffffffffffff1614613243576040517f08c379a00000000000000000000000000000000000000000000000000000000081526004018080602001828103825260138152602001807f41646d696e204f6e6c792066756e6374696f6e0000000000000000000000000081525060200191505060405180910390fd5b60038081111561324f57fe5b600e60009054906101000a900460ff16600381111561326a57fe5b146132dd576040517f08c379a000000000000000000000000000000000000000000000000000000000815260040180806020018281038252601a8152602001807f49434f2053746174652069736e27742068616c7465642079657400000000000081525060200191505060405180910390fd5b6001600e60006101000a81548160ff021916908360038111156132fc57fe5b0217905550565b60006011544211156133865761337f61334f620151806133416133316011544261393c90919063ffffffff16565b600561386c90919063ffffffff16565b6138f290919063ffffffff16565b600f8460ff168154811061335f57fe5b9060005260206000209060020201600101546137e490919063ffffffff16565b90506133ab565b600f8260ff168154811061339657fe5b90600052602060002090600202016001015490505b919050565b600b5481565b6000601060008373ffffffffffffffffffffffffffffffffffffffff1673ffffffffffffffffffffffffffffffffffffffff168152602001908152602001600020600001805490509050919050565b600460009054906101000a900473ffffffffffffffffffffffffffffffffffffffff1681565b600080600f8360ff168154811061343e57fe5b9060005260206000209060020201600001549150600f8360ff168154811061346257fe5b9060005260206000209060020201600101549050915091565b600e60009054906101000a900460ff1681565b6000806000806000806000601060008a73ffffffffffffffffffffffffffffffffffffffff1673ffffffffffffffffffffffffffffffffffffffff16815260200190815260200160002090508060000188815481106134e957fe5b906000526020600020906006020160000160009054906101000a900460ff16965080600001888154811061351957fe5b906000526020600020906006020160010154955080600001888154811061353c57fe5b906000526020600020906006020160020154945080600001888154811061355f57fe5b906000526020600020906006020160030154935080600001888154811061358257fe5b90600052602060002090600602016004015492508060000188815481106135a557fe5b9060005260206000209060060201600501549150509295509295509295565b60115481565b60085481565b6000601060008373ffffffffffffffffffffffffffffffffffffffff1673ffffffffffffffffffffffffffffffffffffffff168152602001908152602001600020600101549050919050565b6001600381111561362957fe5b600e60009054906101000a900460ff16600381111561364457fe5b146136b7576040517f08c379a000000000000000000000000000000000000000000000000000000000815260040180806020018281038252601e8152602001807f49434f2053686f756c6420626520696e2052756e6e696e67205374617465000081525060200191505060405180910390fd5b600c544211806136cb575060075460085410155b613720576040517f08c379a0000000000000000000000000000000000000000000000000000000008152600401808060200182810382526024815260200180613b586024913960400191505060405180910390fd5b6002600e60006101000a81548160ff0219169083600381111561373f57fe5b0217905550565b6000601060008373ffffffffffffffffffffffffffffffffffffffff1673ffffffffffffffffffffffffffffffffffffffff168152602001908152602001600020600601549050919050565b600360009054906101000a900473ffffffffffffffffffffffffffffffffffffffff1681565b60075481565b600560009054906101000a900473ffffffffffffffffffffffffffffffffffffffff1681565b600080828401905083811015613862576040517f08c379a000000000000000000000000000000000000000000000000000000000815260040180806020018281038252601b8152602001807f536166654d6174683a206164646974696f6e206f766572666c6f77000000000081525060200191505060405180910390fd5b8091505092915050565b60008083141561387f57600090506138ec565b600082840290508284828161389057fe5b04146138e7576040517f08c379a0000000000000000000000000000000000000000000000000000000008152600401808060200182810382526021815260200180613b0d6021913960400191505060405180910390fd5b809150505b92915050565b600061393483836040518060400160405280601a81526020017f536166654d6174683a206469766973696f6e206279207a65726f000000000000815250613986565b905092915050565b600061397e83836040518060400160405280601e81526020017f536166654d6174683a207375627472616374696f6e206f766572666c6f770000815250613a4c565b905092915050565b60008083118290613a32576040517f08c379a00000000000000000000000000000000000000000000000000000000081526004018080602001828103825283818151815260200191508051906020019080838360005b838110156139f75780820151818401526020810190506139dc565b50505050905090810190601f168015613a245780820380516001836020036101000a031916815260200191505b509250505060405180910390fd5b506000838581613a3e57fe5b049050809150509392505050565b6000838311158290613af9576040517f08c379a00000000000000000000000000000000000000000000000000000000081526004018080602001828103825283818151815260200191508051906020019080838360005b83811015613abe578082015181840152602081019050613aa3565b50505050905090810190601f168015613aeb5780820380516001836020036101000a031916815260200191505b509250505060405180910390fd5b506000838503905080915050939250505056fe536166654d6174683a206d756c7469706c69636174696f6e206f766572666c6f77496e766573746f722072656163686564206d6178696d756d20496e766573746d656e7420416d6f756e7449434f2048617264636170206f722074696d656c696d6974206e6f74207265616368656449434f20616c72656164792052656163686564204d6178696d756d2074696d65206c696d6974a26469706673582212201c39203b34472f69b7cd15e14bb956e59bc10b1375a1e6e713f346e3dd0f0b8b64736f6c634300060c0033",
					"opcodes": "PUSH1 0x80 PUSH1 0x40 MSTORE PUSH1 0x40 MLOAD DUP1 PUSH1 0x60 ADD PUSH1 0x40 MSTORE DUP1 PUSH1 0x32 PUSH1 0xFF AND DUP2 MSTORE PUSH1 0x20 ADD PUSH1 0x19 PUSH1 0xFF AND DUP2 MSTORE PUSH1 0x20 ADD PUSH1 0x5 PUSH1 0xFF AND DUP2 MSTORE POP PUSH1 0x0 SWAP1 PUSH1 0x3 PUSH3 0x3D SWAP3 SWAP2 SWAP1 PUSH3 0x3CC JUMP JUMPDEST POP PUSH6 0x5AF3107A4000 PUSH1 0x6 SSTORE PUSH9 0x1B1AE4D6E2EF500000 PUSH1 0x7 SSTORE PUSH7 0x38D7EA4C68000 PUSH1 0x9 SSTORE PUSH8 0x29A2241AF62C0000 PUSH1 0xA SSTORE CALLVALUE DUP1 ISZERO PUSH3 0x79 JUMPI PUSH1 0x0 DUP1 REVERT JUMPDEST POP PUSH1 0x40 MLOAD PUSH3 0x4029 CODESIZE SUB DUP1 PUSH3 0x4029 DUP4 CODECOPY DUP2 DUP2 ADD PUSH1 0x40 MSTORE PUSH1 0x40 DUP2 LT ISZERO PUSH3 0x9F JUMPI PUSH1 0x0 DUP1 REVERT JUMPDEST DUP2 ADD SWAP1 DUP1 DUP1 MLOAD SWAP1 PUSH1 0x20 ADD SWAP1 SWAP3 SWAP2 SWAP1 DUP1 MLOAD SWAP1 PUSH1 0x20 ADD SWAP1 SWAP3 SWAP2 SWAP1 POP POP POP PUSH3 0xCB DUP3 PUSH3 0x3B9 PUSH1 0x20 SHL PUSH1 0x20 SHR JUMP JUMPDEST ISZERO PUSH3 0xD6 JUMPI PUSH1 0x0 DUP1 REVERT JUMPDEST CALLER PUSH1 0x3 PUSH1 0x0 PUSH2 0x100 EXP DUP2 SLOAD DUP2 PUSH20 0xFFFFFFFFFFFFFFFFFFFFFFFFFFFFFFFFFFFFFFFF MUL NOT AND SWAP1 DUP4 PUSH20 0xFFFFFFFFFFFFFFFFFFFFFFFFFFFFFFFFFFFFFFFF AND MUL OR SWAP1 SSTORE POP DUP2 PUSH1 0x4 PUSH1 0x0 PUSH2 0x100 EXP DUP2 SLOAD DUP2 PUSH20 0xFFFFFFFFFFFFFFFFFFFFFFFFFFFFFFFFFFFFFFFF MUL NOT AND SWAP1 DUP4 PUSH20 0xFFFFFFFFFFFFFFFFFFFFFFFFFFFFFFFFFFFFFFFF AND MUL OR SWAP1 SSTORE POP DUP1 PUSH1 0x5 PUSH1 0x0 PUSH2 0x100 EXP DUP2 SLOAD DUP2 PUSH20 0xFFFFFFFFFFFFFFFFFFFFFFFFFFFFFFFFFFFFFFFF MUL NOT AND SWAP1 DUP4 PUSH20 0xFFFFFFFFFFFFFFFFFFFFFFFFFFFFFFFFFFFFFFFF AND MUL OR SWAP1 SSTORE POP PUSH1 0x1 PUSH1 0x11 DUP2 SWAP1 SSTORE POP PUSH1 0xF PUSH1 0x40 MLOAD DUP1 PUSH1 0x40 ADD PUSH1 0x40 MSTORE DUP1 PUSH1 0xE DUP2 MSTORE PUSH1 0x20 ADD PUSH1 0x50 DUP2 MSTORE POP SWAP1 DUP1 PUSH1 0x1 DUP2 SLOAD ADD DUP1 DUP3 SSTORE DUP1 SWAP2 POP POP PUSH1 0x1 SWAP1 SUB SWAP1 PUSH1 0x0 MSTORE PUSH1 0x20 PUSH1 0x0 KECCAK256 SWAP1 PUSH1 0x2 MUL ADD PUSH1 0x0 SWAP1 SWAP2 SWAP1 SWAP2 SWAP1 SWAP2 POP PUSH1 0x0 DUP3 ADD MLOAD DUP2 PUSH1 0x0 ADD SSTORE PUSH1 0x20 DUP3 ADD MLOAD DUP2 PUSH1 0x1 ADD SSTORE POP POP PUSH1 0xF PUSH1 0x40 MLOAD DUP1 PUSH1 0x40 ADD PUSH1 0x40 MSTORE DUP1 PUSH1 0x15 DUP2 MSTORE PUSH1 0x20 ADD PUSH1 0x41 DUP2 MSTORE POP SWAP1 DUP1 PUSH1 0x1 DUP2 SLOAD ADD DUP1 DUP3 SSTORE DUP1 SWAP2 POP POP PUSH1 0x1 SWAP1 SUB SWAP1 PUSH1 0x0 MSTORE PUSH1 0x20 PUSH1 0x0 KECCAK256 SWAP1 PUSH1 0x2 MUL ADD PUSH1 0x0 SWAP1 SWAP2 SWAP1 SWAP2 SWAP1 SWAP2 POP PUSH1 0x0 DUP3 ADD MLOAD DUP2 PUSH1 0x0 ADD SSTORE PUSH1 0x20 DUP3 ADD MLOAD DUP2 PUSH1 0x1 ADD SSTORE POP POP PUSH1 0xF PUSH1 0x40 MLOAD DUP1 PUSH1 0x40 ADD PUSH1 0x40 MSTORE DUP1 PUSH1 0x1C DUP2 MSTORE PUSH1 0x20 ADD PUSH1 0x32 DUP2 MSTORE POP SWAP1 DUP1 PUSH1 0x1 DUP2 SLOAD ADD DUP1 DUP3 SSTORE DUP1 SWAP2 POP POP PUSH1 0x1 SWAP1 SUB SWAP1 PUSH1 0x0 MSTORE PUSH1 0x20 PUSH1 0x0 KECCAK256 SWAP1 PUSH1 0x2 MUL ADD PUSH1 0x0 SWAP1 SWAP2 SWAP1 SWAP2 SWAP1 SWAP2 POP PUSH1 0x0 DUP3 ADD MLOAD DUP2 PUSH1 0x0 ADD SSTORE PUSH1 0x20 DUP3 ADD MLOAD DUP2 PUSH1 0x1 ADD SSTORE POP POP PUSH1 0xF PUSH1 0x40 MLOAD DUP1 PUSH1 0x40 ADD PUSH1 0x40 MSTORE DUP1 PUSH1 0xE DUP2 MSTORE PUSH1 0x20 ADD PUSH1 0x50 DUP2 MSTORE POP SWAP1 DUP1 PUSH1 0x1 DUP2 SLOAD ADD DUP1 DUP3 SSTORE DUP1 SWAP2 POP POP PUSH1 0x1 SWAP1 SUB SWAP1 PUSH1 0x0 MSTORE PUSH1 0x20 PUSH1 0x0 KECCAK256 SWAP1 PUSH1 0x2 MUL ADD PUSH1 0x0 SWAP1 SWAP2 SWAP1 SWAP2 SWAP1 SWAP2 POP PUSH1 0x0 DUP3 ADD MLOAD DUP2 PUSH1 0x0 ADD SSTORE PUSH1 0x20 DUP3 ADD MLOAD DUP2 PUSH1 0x1 ADD SSTORE POP POP PUSH1 0xF PUSH1 0x40 MLOAD DUP1 PUSH1 0x40 ADD PUSH1 0x40 MSTORE DUP1 PUSH1 0x15 DUP2 MSTORE PUSH1 0x20 ADD PUSH1 0x41 DUP2 MSTORE POP SWAP1 DUP1 PUSH1 0x1 DUP2 SLOAD ADD DUP1 DUP3 SSTORE DUP1 SWAP2 POP POP PUSH1 0x1 SWAP1 SUB SWAP1 PUSH1 0x0 MSTORE PUSH1 0x20 PUSH1 0x0 KECCAK256 SWAP1 PUSH1 0x2 MUL ADD PUSH1 0x0 SWAP1 SWAP2 SWAP1 SWAP2 SWAP1 SWAP2 POP PUSH1 0x0 DUP3 ADD MLOAD DUP2 PUSH1 0x0 ADD SSTORE PUSH1 0x20 DUP3 ADD MLOAD DUP2 PUSH1 0x1 ADD SSTORE POP POP PUSH1 0xF PUSH1 0x40 MLOAD DUP1 PUSH1 0x40 ADD PUSH1 0x40 MSTORE DUP1 PUSH1 0x1C DUP2 MSTORE PUSH1 0x20 ADD PUSH1 0x32 DUP2 MSTORE POP SWAP1 DUP1 PUSH1 0x1 DUP2 SLOAD ADD DUP1 DUP3 SSTORE DUP1 SWAP2 POP POP PUSH1 0x1 SWAP1 SUB SWAP1 PUSH1 0x0 MSTORE PUSH1 0x20 PUSH1 0x0 KECCAK256 SWAP1 PUSH1 0x2 MUL ADD PUSH1 0x0 SWAP1 SWAP2 SWAP1 SWAP2 SWAP1 SWAP2 POP PUSH1 0x0 DUP3 ADD MLOAD DUP2 PUSH1 0x0 ADD SSTORE PUSH1 0x20 DUP3 ADD MLOAD DUP2 PUSH1 0x1 ADD SSTORE POP POP POP POP PUSH3 0x442 JUMP JUMPDEST PUSH1 0x0 DUP1 DUP3 EXTCODESIZE SWAP1 POP PUSH1 0x0 DUP2 GT SWAP2 POP POP SWAP2 SWAP1 POP JUMP JUMPDEST DUP3 DUP1 SLOAD DUP3 DUP3 SSTORE SWAP1 PUSH1 0x0 MSTORE PUSH1 0x20 PUSH1 0x0 KECCAK256 SWAP1 DUP2 ADD SWAP3 DUP3 ISZERO PUSH3 0x410 JUMPI SWAP2 PUSH1 0x20 MUL DUP3 ADD JUMPDEST DUP3 DUP2 GT ISZERO PUSH3 0x40F JUMPI DUP3 MLOAD DUP3 SWAP1 PUSH1 0xFF AND SWAP1 SSTORE SWAP2 PUSH1 0x20 ADD SWAP2 SWAP1 PUSH1 0x1 ADD SWAP1 PUSH3 0x3ED JUMP JUMPDEST JUMPDEST POP SWAP1 POP PUSH3 0x41F SWAP2 SWAP1 PUSH3 0x423 JUMP JUMPDEST POP SWAP1 JUMP JUMPDEST JUMPDEST DUP1 DUP3 GT ISZERO PUSH3 0x43E JUMPI PUSH1 0x0 DUP2 PUSH1 0x0 SWAP1 SSTORE POP PUSH1 0x1 ADD PUSH3 0x424 JUMP JUMPDEST POP SWAP1 JUMP JUMPDEST PUSH2 0x3BD7 DUP1 PUSH3 0x452 PUSH1 0x0 CODECOPY PUSH1 0x0 RETURN INVALID PUSH1 0x80 PUSH1 0x40 MSTORE PUSH1 0x4 CALLDATASIZE LT PUSH2 0x28A JUMPI PUSH1 0x0 CALLDATALOAD PUSH1 0xE0 SHR DUP1 PUSH4 0x7E3ABEEA GT PUSH2 0x15A JUMPI DUP1 PUSH4 0xAE764DF3 GT PUSH2 0xC1 JUMPI DUP1 PUSH4 0xD7FFCA91 GT PUSH2 0x7A JUMPI DUP1 PUSH4 0xD7FFCA91 EQ PUSH2 0xDCC JUMPI DUP1 PUSH4 0xE657807B EQ PUSH2 0xE31 JUMPI DUP1 PUSH4 0xE85ABE09 EQ PUSH2 0xE48 JUMPI DUP1 PUSH4 0xF851A440 EQ PUSH2 0xEAD JUMPI DUP1 PUSH4 0xFB86A404 EQ PUSH2 0xEEE JUMPI DUP1 PUSH4 0xFC0C546A EQ PUSH2 0xF19 JUMPI PUSH2 0x299 JUMP JUMPDEST DUP1 PUSH4 0xAE764DF3 EQ PUSH2 0xC11 JUMPI DUP1 PUSH4 0xAECAA634 EQ PUSH2 0xC52 JUMPI DUP1 PUSH4 0xAEECDC2C EQ PUSH2 0xCAB JUMPI DUP1 PUSH4 0xC0806B03 EQ PUSH2 0xCE1 JUMPI DUP1 PUSH4 0xC2341238 EQ PUSH2 0xD76 JUMPI DUP1 PUSH4 0xC59EE1DC EQ PUSH2 0xDA1 JUMPI PUSH2 0x299 JUMP JUMPDEST DUP1 PUSH4 0x9641119E GT PUSH2 0x113 JUMPI DUP1 PUSH4 0x9641119E EQ PUSH2 0xACD JUMPI DUP1 PUSH4 0x97C0262A EQ PUSH2 0xAD7 JUMPI DUP1 PUSH4 0x9CBD7DA5 EQ PUSH2 0xB18 JUMPI DUP1 PUSH4 0xA51B9533 EQ PUSH2 0xB2F JUMPI DUP1 PUSH4 0xA7C3D71B EQ PUSH2 0xB81 JUMPI DUP1 PUSH4 0xA8AEB6C2 EQ PUSH2 0xBAC JUMPI PUSH2 0x299 JUMP JUMPDEST DUP1 PUSH4 0x7E3ABEEA EQ PUSH2 0x97F JUMPI DUP1 PUSH4 0x7FA8C158 EQ PUSH2 0x9E4 JUMPI DUP1 PUSH4 0x7FF9B596 EQ PUSH2 0x9FB JUMPI DUP1 PUSH4 0x817B1CD2 EQ PUSH2 0xA26 JUMPI DUP1 PUSH4 0x8AC2C680 EQ PUSH2 0xA51 JUMPI DUP1 PUSH4 0x8F283970 EQ PUSH2 0xA7C JUMPI PUSH2 0x299 JUMP JUMPDEST DUP1 PUSH4 0x36144C9A GT PUSH2 0x1FE JUMPI DUP1 PUSH4 0x6127B2CA GT PUSH2 0x1B7 JUMPI DUP1 PUSH4 0x6127B2CA EQ PUSH2 0x809 JUMPI DUP1 PUSH4 0x61FBA37D EQ PUSH2 0x834 JUMPI DUP1 PUSH4 0x69B11DD5 EQ PUSH2 0x899 JUMPI DUP1 PUSH4 0x6BB18556 EQ PUSH2 0x8C4 JUMPI DUP1 PUSH4 0x6F9FB98A EQ PUSH2 0x929 JUMPI DUP1 PUSH4 0x7E1055B6 EQ PUSH2 0x954 JUMPI PUSH2 0x299 JUMP JUMPDEST DUP1 PUSH4 0x36144C9A EQ PUSH2 0x618 JUMPI DUP1 PUSH4 0x44DF8E70 EQ PUSH2 0x693 JUMPI DUP1 PUSH4 0x48C37203 EQ PUSH2 0x6C0 JUMPI DUP1 PUSH4 0x57FC86B4 EQ PUSH2 0x725 JUMPI DUP1 PUSH4 0x5936CF61 EQ PUSH2 0x750 JUMPI DUP1 PUSH4 0x600D20CE EQ PUSH2 0x7BA JUMPI PUSH2 0x299 JUMP JUMPDEST DUP1 PUSH4 0x40A772E GT PUSH2 0x250 JUMPI DUP1 PUSH4 0x40A772E EQ PUSH2 0x417 JUMPI DUP1 PUSH4 0x129CAA18 EQ PUSH2 0x47C JUMPI DUP1 PUSH4 0x153AB9DF EQ PUSH2 0x493 JUMPI DUP1 PUSH4 0x1AAE3460 EQ PUSH2 0x4F8 JUMPI DUP1 PUSH4 0x2E659D93 EQ PUSH2 0x55D JUMPI DUP1 PUSH4 0x32BC298C EQ PUSH2 0x5ED JUMPI PUSH2 0x299 JUMP JUMPDEST DUP1 PUSH3 0x2E1316 EQ PUSH2 0x2A3 JUMPI DUP1 PUSH3 0xF53E69 EQ PUSH2 0x2CE JUMPI DUP1 PUSH4 0x1C234A8 EQ PUSH2 0x31F JUMPI DUP1 PUSH4 0x3A93C0C EQ PUSH2 0x34A JUMPI DUP1 PUSH4 0x3F9C793 EQ PUSH2 0x3BD JUMPI PUSH2 0x299 JUMP JUMPDEST CALLDATASIZE PUSH2 0x299 JUMPI PUSH2 0x297 PUSH2 0xF5A JUMP JUMPDEST STOP JUMPDEST PUSH2 0x2A1 PUSH2 0xF5A JUMP JUMPDEST STOP JUMPDEST CALLVALUE DUP1 ISZERO PUSH2 0x2AF JUMPI PUSH1 0x0 DUP1 REVERT JUMPDEST POP PUSH2 0x2B8 PUSH2 0xF5C JUMP JUMPDEST PUSH1 0x40 MLOAD DUP1 DUP3 DUP2 MSTORE PUSH1 0x20 ADD SWAP2 POP POP PUSH1 0x40 MLOAD DUP1 SWAP2 SUB SWAP1 RETURN JUMPDEST CALLVALUE DUP1 ISZERO PUSH2 0x2DA JUMPI PUSH1 0x0 DUP1 REVERT JUMPDEST POP PUSH2 0x31D PUSH1 0x4 DUP1 CALLDATASIZE SUB PUSH1 0x20 DUP2 LT ISZERO PUSH2 0x2F1 JUMPI PUSH1 0x0 DUP1 REVERT JUMPDEST DUP2 ADD SWAP1 DUP1 DUP1 CALLDATALOAD PUSH20 0xFFFFFFFFFFFFFFFFFFFFFFFFFFFFFFFFFFFFFFFF AND SWAP1 PUSH1 0x20 ADD SWAP1 SWAP3 SWAP2 SWAP1 POP POP POP PUSH2 0xF62 JUMP JUMPDEST STOP JUMPDEST CALLVALUE DUP1 ISZERO PUSH2 0x32B JUMPI PUSH1 0x0 DUP1 REVERT JUMPDEST POP PUSH2 0x334 PUSH2 0x1069 JUMP JUMPDEST PUSH1 0x40 MLOAD DUP1 DUP3 DUP2 MSTORE PUSH1 0x20 ADD SWAP2 POP POP PUSH1 0x40 MLOAD DUP1 SWAP2 SUB SWAP1 RETURN JUMPDEST CALLVALUE DUP1 ISZERO PUSH2 0x356 JUMPI PUSH1 0x0 DUP1 REVERT JUMPDEST POP PUSH2 0x399 PUSH1 0x4 DUP1 CALLDATASIZE SUB PUSH1 0x20 DUP2 LT ISZERO PUSH2 0x36D JUMPI PUSH1 0x0 DUP1 REVERT JUMPDEST DUP2 ADD SWAP1 DUP1 DUP1 CALLDATALOAD PUSH20 0xFFFFFFFFFFFFFFFFFFFFFFFFFFFFFFFFFFFFFFFF AND SWAP1 PUSH1 0x20 ADD SWAP1 SWAP3 SWAP2 SWAP1 POP POP POP PUSH2 0x106F JUMP JUMPDEST PUSH1 0x40 MLOAD DUP1 DUP5 DUP2 MSTORE PUSH1 0x20 ADD DUP4 DUP2 MSTORE PUSH1 0x20 ADD DUP3 DUP2 MSTORE PUSH1 0x20 ADD SWAP4 POP POP POP POP PUSH1 0x40 MLOAD DUP1 SWAP2 SUB SWAP1 RETURN JUMPDEST PUSH2 0x3FF PUSH1 0x4 DUP1 CALLDATASIZE SUB PUSH1 0x20 DUP2 LT ISZERO PUSH2 0x3D3 JUMPI PUSH1 0x0 DUP1 REVERT JUMPDEST DUP2 ADD SWAP1 DUP1 DUP1 CALLDATALOAD PUSH20 0xFFFFFFFFFFFFFFFFFFFFFFFFFFFFFFFFFFFFFFFF AND SWAP1 PUSH1 0x20 ADD SWAP1 SWAP3 SWAP2 SWAP1 POP POP POP PUSH2 0x1171 JUMP JUMPDEST PUSH1 0x40 MLOAD DUP1 DUP3 ISZERO ISZERO DUP2 MSTORE PUSH1 0x20 ADD SWAP2 POP POP PUSH1 0x40 MLOAD DUP1 SWAP2 SUB SWAP1 RETURN JUMPDEST CALLVALUE DUP1 ISZERO PUSH2 0x423 JUMPI PUSH1 0x0 DUP1 REVERT JUMPDEST POP PUSH2 0x466 PUSH1 0x4 DUP1 CALLDATASIZE SUB PUSH1 0x20 DUP2 LT ISZERO PUSH2 0x43A JUMPI PUSH1 0x0 DUP1 REVERT JUMPDEST DUP2 ADD SWAP1 DUP1 DUP1 CALLDATALOAD PUSH20 0xFFFFFFFFFFFFFFFFFFFFFFFFFFFFFFFFFFFFFFFF AND SWAP1 PUSH1 0x20 ADD SWAP1 SWAP3 SWAP2 SWAP1 POP POP POP PUSH2 0x202E JUMP JUMPDEST PUSH1 0x40 MLOAD DUP1 DUP3 DUP2 MSTORE PUSH1 0x20 ADD SWAP2 POP POP PUSH1 0x40 MLOAD DUP1 SWAP2 SUB SWAP1 RETURN JUMPDEST CALLVALUE DUP1 ISZERO PUSH2 0x488 JUMPI PUSH1 0x0 DUP1 REVERT JUMPDEST POP PUSH2 0x491 PUSH2 0x22DE JUMP JUMPDEST STOP JUMPDEST CALLVALUE DUP1 ISZERO PUSH2 0x49F JUMPI PUSH1 0x0 DUP1 REVERT JUMPDEST POP PUSH2 0x4E2 PUSH1 0x4 DUP1 CALLDATASIZE SUB PUSH1 0x20 DUP2 LT ISZERO PUSH2 0x4B6 JUMPI PUSH1 0x0 DUP1 REVERT JUMPDEST DUP2 ADD SWAP1 DUP1 DUP1 CALLDATALOAD PUSH20 0xFFFFFFFFFFFFFFFFFFFFFFFFFFFFFFFFFFFFFFFF AND SWAP1 PUSH1 0x20 ADD SWAP1 SWAP3 SWAP2 SWAP1 POP POP POP PUSH2 0x2462 JUMP JUMPDEST PUSH1 0x40 MLOAD DUP1 DUP3 DUP2 MSTORE PUSH1 0x20 ADD SWAP2 POP POP PUSH1 0x40 MLOAD DUP1 SWAP2 SUB SWAP1 RETURN JUMPDEST CALLVALUE DUP1 ISZERO PUSH2 0x504 JUMPI PUSH1 0x0 DUP1 REVERT JUMPDEST POP PUSH2 0x547 PUSH1 0x4 DUP1 CALLDATASIZE SUB PUSH1 0x20 DUP2 LT ISZERO PUSH2 0x51B JUMPI PUSH1 0x0 DUP1 REVERT JUMPDEST DUP2 ADD SWAP1 DUP1 DUP1 CALLDATALOAD PUSH20 0xFFFFFFFFFFFFFFFFFFFFFFFFFFFFFFFFFFFFFFFF AND SWAP1 PUSH1 0x20 ADD SWAP1 SWAP3 SWAP2 SWAP1 POP POP POP PUSH2 0x248E JUMP JUMPDEST PUSH1 0x40 MLOAD DUP1 DUP3 DUP2 MSTORE PUSH1 0x20 ADD SWAP2 POP POP PUSH1 0x40 MLOAD DUP1 SWAP2 SUB SWAP1 RETURN JUMPDEST CALLVALUE DUP1 ISZERO PUSH2 0x569 JUMPI PUSH1 0x0 DUP1 REVERT JUMPDEST POP PUSH2 0x572 PUSH2 0x24A6 JUMP JUMPDEST PUSH1 0x40 MLOAD DUP1 DUP1 PUSH1 0x20 ADD DUP3 DUP2 SUB DUP3 MSTORE DUP4 DUP2 DUP2 MLOAD DUP2 MSTORE PUSH1 0x20 ADD SWAP2 POP DUP1 MLOAD SWAP1 PUSH1 0x20 ADD SWAP1 DUP1 DUP4 DUP4 PUSH1 0x0 JUMPDEST DUP4 DUP2 LT ISZERO PUSH2 0x5B2 JUMPI DUP1 DUP3 ADD MLOAD DUP2 DUP5 ADD MSTORE PUSH1 0x20 DUP2 ADD SWAP1 POP PUSH2 0x597 JUMP JUMPDEST POP POP POP POP SWAP1 POP SWAP1 DUP2 ADD SWAP1 PUSH1 0x1F AND DUP1 ISZERO PUSH2 0x5DF JUMPI DUP1 DUP3 SUB DUP1 MLOAD PUSH1 0x1 DUP4 PUSH1 0x20 SUB PUSH2 0x100 EXP SUB NOT AND DUP2 MSTORE PUSH1 0x20 ADD SWAP2 POP JUMPDEST POP SWAP3 POP POP POP PUSH1 0x40 MLOAD DUP1 SWAP2 SUB SWAP1 RETURN JUMPDEST CALLVALUE DUP1 ISZERO PUSH2 0x5F9 JUMPI PUSH1 0x0 DUP1 REVERT JUMPDEST POP PUSH2 0x602 PUSH2 0x2625 JUMP JUMPDEST PUSH1 0x40 MLOAD DUP1 DUP3 DUP2 MSTORE PUSH1 0x20 ADD SWAP2 POP POP PUSH1 0x40 MLOAD DUP1 SWAP2 SUB SWAP1 RETURN JUMPDEST CALLVALUE DUP1 ISZERO PUSH2 0x624 JUMPI PUSH1 0x0 DUP1 REVERT JUMPDEST POP PUSH2 0x667 PUSH1 0x4 DUP1 CALLDATASIZE SUB PUSH1 0x20 DUP2 LT ISZERO PUSH2 0x63B JUMPI PUSH1 0x0 DUP1 REVERT JUMPDEST DUP2 ADD SWAP1 DUP1 DUP1 CALLDATALOAD PUSH20 0xFFFFFFFFFFFFFFFFFFFFFFFFFFFFFFFFFFFFFFFF AND SWAP1 PUSH1 0x20 ADD SWAP1 SWAP3 SWAP2 SWAP1 POP POP POP PUSH2 0x262C JUMP JUMPDEST PUSH1 0x40 MLOAD DUP1 DUP3 PUSH20 0xFFFFFFFFFFFFFFFFFFFFFFFFFFFFFFFFFFFFFFFF AND DUP2 MSTORE PUSH1 0x20 ADD SWAP2 POP POP PUSH1 0x40 MLOAD DUP1 SWAP2 SUB SWAP1 RETURN JUMPDEST CALLVALUE DUP1 ISZERO PUSH2 0x69F JUMPI PUSH1 0x0 DUP1 REVERT JUMPDEST POP PUSH2 0x6A8 PUSH2 0x2698 JUMP JUMPDEST PUSH1 0x40 MLOAD DUP1 DUP3 ISZERO ISZERO DUP2 MSTORE PUSH1 0x20 ADD SWAP2 POP POP PUSH1 0x40 MLOAD DUP1 SWAP2 SUB SWAP1 RETURN JUMPDEST CALLVALUE DUP1 ISZERO PUSH2 0x6CC JUMPI PUSH1 0x0 DUP1 REVERT JUMPDEST POP PUSH2 0x70F PUSH1 0x4 DUP1 CALLDATASIZE SUB PUSH1 0x20 DUP2 LT ISZERO PUSH2 0x6E3 JUMPI PUSH1 0x0 DUP1 REVERT JUMPDEST DUP2 ADD SWAP1 DUP1 DUP1 CALLDATALOAD PUSH20 0xFFFFFFFFFFFFFFFFFFFFFFFFFFFFFFFFFFFFFFFF AND SWAP1 PUSH1 0x20 ADD SWAP1 SWAP3 SWAP2 SWAP1 POP POP POP PUSH2 0x29AA JUMP JUMPDEST PUSH1 0x40 MLOAD DUP1 DUP3 DUP2 MSTORE PUSH1 0x20 ADD SWAP2 POP POP PUSH1 0x40 MLOAD DUP1 SWAP2 SUB SWAP1 RETURN JUMPDEST CALLVALUE DUP1 ISZERO PUSH2 0x731 JUMPI PUSH1 0x0 DUP1 REVERT JUMPDEST POP PUSH2 0x73A PUSH2 0x29F6 JUMP JUMPDEST PUSH1 0x40 MLOAD DUP1 DUP3 DUP2 MSTORE PUSH1 0x20 ADD SWAP2 POP POP PUSH1 0x40 MLOAD DUP1 SWAP2 SUB SWAP1 RETURN JUMPDEST CALLVALUE DUP1 ISZERO PUSH2 0x75C JUMPI PUSH1 0x0 DUP1 REVERT JUMPDEST POP PUSH2 0x796 PUSH1 0x4 DUP1 CALLDATASIZE SUB PUSH1 0x40 DUP2 LT ISZERO PUSH2 0x773 JUMPI PUSH1 0x0 DUP1 REVERT JUMPDEST DUP2 ADD SWAP1 DUP1 DUP1 CALLDATALOAD PUSH1 0xFF AND SWAP1 PUSH1 0x20 ADD SWAP1 SWAP3 SWAP2 SWAP1 DUP1 CALLDATALOAD SWAP1 PUSH1 0x20 ADD SWAP1 SWAP3 SWAP2 SWAP1 POP POP POP PUSH2 0x29FB JUMP JUMPDEST PUSH1 0x40 MLOAD DUP1 DUP5 DUP2 MSTORE PUSH1 0x20 ADD DUP4 DUP2 MSTORE PUSH1 0x20 ADD DUP3 DUP2 MSTORE PUSH1 0x20 ADD SWAP4 POP POP POP POP PUSH1 0x40 MLOAD DUP1 SWAP2 SUB SWAP1 RETURN JUMPDEST CALLVALUE DUP1 ISZERO PUSH2 0x7C6 JUMPI PUSH1 0x0 DUP1 REVERT JUMPDEST POP PUSH2 0x7F3 PUSH1 0x4 DUP1 CALLDATASIZE SUB PUSH1 0x20 DUP2 LT ISZERO PUSH2 0x7DD JUMPI PUSH1 0x0 DUP1 REVERT JUMPDEST DUP2 ADD SWAP1 DUP1 DUP1 CALLDATALOAD SWAP1 PUSH1 0x20 ADD SWAP1 SWAP3 SWAP2 SWAP1 POP POP POP PUSH2 0x2B5F JUMP JUMPDEST PUSH1 0x40 MLOAD DUP1 DUP3 DUP2 MSTORE PUSH1 0x20 ADD SWAP2 POP POP PUSH1 0x40 MLOAD DUP1 SWAP2 SUB SWAP1 RETURN JUMPDEST CALLVALUE DUP1 ISZERO PUSH2 0x815 JUMPI PUSH1 0x0 DUP1 REVERT JUMPDEST POP PUSH2 0x81E PUSH2 0x2B80 JUMP JUMPDEST PUSH1 0x40 MLOAD DUP1 DUP3 DUP2 MSTORE PUSH1 0x20 ADD SWAP2 POP POP PUSH1 0x40 MLOAD DUP1 SWAP2 SUB SWAP1 RETURN JUMPDEST CALLVALUE DUP1 ISZERO PUSH2 0x840 JUMPI PUSH1 0x0 DUP1 REVERT JUMPDEST POP PUSH2 0x883 PUSH1 0x4 DUP1 CALLDATASIZE SUB PUSH1 0x20 DUP2 LT ISZERO PUSH2 0x857 JUMPI PUSH1 0x0 DUP1 REVERT JUMPDEST DUP2 ADD SWAP1 DUP1 DUP1 CALLDATALOAD PUSH20 0xFFFFFFFFFFFFFFFFFFFFFFFFFFFFFFFFFFFFFFFF AND SWAP1 PUSH1 0x20 ADD SWAP1 SWAP3 SWAP2 SWAP1 POP POP POP PUSH2 0x2C4B JUMP JUMPDEST PUSH1 0x40 MLOAD DUP1 DUP3 DUP2 MSTORE PUSH1 0x20 ADD SWAP2 POP POP PUSH1 0x40 MLOAD DUP1 SWAP2 SUB SWAP1 RETURN JUMPDEST CALLVALUE DUP1 ISZERO PUSH2 0x8A5 JUMPI PUSH1 0x0 DUP1 REVERT JUMPDEST POP PUSH2 0x8AE PUSH2 0x2D18 JUMP JUMPDEST PUSH1 0x40 MLOAD DUP1 DUP3 DUP2 MSTORE PUSH1 0x20 ADD SWAP2 POP POP PUSH1 0x40 MLOAD DUP1 SWAP2 SUB SWAP1 RETURN JUMPDEST CALLVALUE DUP1 ISZERO PUSH2 0x8D0 JUMPI PUSH1 0x0 DUP1 REVERT JUMPDEST POP PUSH2 0x913 PUSH1 0x4 DUP1 CALLDATASIZE SUB PUSH1 0x20 DUP2 LT ISZERO PUSH2 0x8E7 JUMPI PUSH1 0x0 DUP1 REVERT JUMPDEST DUP2 ADD SWAP1 DUP1 DUP1 CALLDATALOAD PUSH20 0xFFFFFFFFFFFFFFFFFFFFFFFFFFFFFFFFFFFFFFFF AND SWAP1 PUSH1 0x20 ADD SWAP1 SWAP3 SWAP2 SWAP1 POP POP POP PUSH2 0x2D1E JUMP JUMPDEST PUSH1 0x40 MLOAD DUP1 DUP3 DUP2 MSTORE PUSH1 0x20 ADD SWAP2 POP POP PUSH1 0x40 MLOAD DUP1 SWAP2 SUB SWAP1 RETURN JUMPDEST CALLVALUE DUP1 ISZERO PUSH2 0x935 JUMPI PUSH1 0x0 DUP1 REVERT JUMPDEST POP PUSH2 0x93E PUSH2 0x2DBE JUMP JUMPDEST PUSH1 0x40 MLOAD DUP1 DUP3 DUP2 MSTORE PUSH1 0x20 ADD SWAP2 POP POP PUSH1 0x40 MLOAD DUP1 SWAP2 SUB SWAP1 RETURN JUMPDEST CALLVALUE DUP1 ISZERO PUSH2 0x960 JUMPI PUSH1 0x0 DUP1 REVERT JUMPDEST POP PUSH2 0x969 PUSH2 0x2DC6 JUMP JUMPDEST PUSH1 0x40 MLOAD DUP1 DUP3 DUP2 MSTORE PUSH1 0x20 ADD SWAP2 POP POP PUSH1 0x40 MLOAD DUP1 SWAP2 SUB SWAP1 RETURN JUMPDEST CALLVALUE DUP1 ISZERO PUSH2 0x98B JUMPI PUSH1 0x0 DUP1 REVERT JUMPDEST POP PUSH2 0x9CE PUSH1 0x4 DUP1 CALLDATASIZE SUB PUSH1 0x20 DUP2 LT ISZERO PUSH2 0x9A2 JUMPI PUSH1 0x0 DUP1 REVERT JUMPDEST DUP2 ADD SWAP1 DUP1 DUP1 CALLDATALOAD PUSH20 0xFFFFFFFFFFFFFFFFFFFFFFFFFFFFFFFFFFFFFFFF AND SWAP1 PUSH1 0x20 ADD SWAP1 SWAP3 SWAP2 SWAP1 POP POP POP PUSH2 0x2DCC JUMP JUMPDEST PUSH1 0x40 MLOAD DUP1 DUP3 DUP2 MSTORE PUSH1 0x20 ADD SWAP2 POP POP PUSH1 0x40 MLOAD DUP1 SWAP2 SUB SWAP1 RETURN JUMPDEST CALLVALUE DUP1 ISZERO PUSH2 0x9F0 JUMPI PUSH1 0x0 DUP1 REVERT JUMPDEST POP PUSH2 0x9F9 PUSH2 0x2EA7 JUMP JUMPDEST STOP JUMPDEST CALLVALUE DUP1 ISZERO PUSH2 0xA07 JUMPI PUSH1 0x0 DUP1 REVERT JUMPDEST POP PUSH2 0xA10 PUSH2 0x3041 JUMP JUMPDEST PUSH1 0x40 MLOAD DUP1 DUP3 DUP2 MSTORE PUSH1 0x20 ADD SWAP2 POP POP PUSH1 0x40 MLOAD DUP1 SWAP2 SUB SWAP1 RETURN JUMPDEST CALLVALUE DUP1 ISZERO PUSH2 0xA32 JUMPI PUSH1 0x0 DUP1 REVERT JUMPDEST POP PUSH2 0xA3B PUSH2 0x3047 JUMP JUMPDEST PUSH1 0x40 MLOAD DUP1 DUP3 DUP2 MSTORE PUSH1 0x20 ADD SWAP2 POP POP PUSH1 0x40 MLOAD DUP1 SWAP2 SUB SWAP1 RETURN JUMPDEST CALLVALUE DUP1 ISZERO PUSH2 0xA5D JUMPI PUSH1 0x0 DUP1 REVERT JUMPDEST POP PUSH2 0xA66 PUSH2 0x304D JUMP JUMPDEST PUSH1 0x40 MLOAD DUP1 DUP3 DUP2 MSTORE PUSH1 0x20 ADD SWAP2 POP POP PUSH1 0x40 MLOAD DUP1 SWAP2 SUB SWAP1 RETURN JUMPDEST CALLVALUE DUP1 ISZERO PUSH2 0xA88 JUMPI PUSH1 0x0 DUP1 REVERT JUMPDEST POP PUSH2 0xACB PUSH1 0x4 DUP1 CALLDATASIZE SUB PUSH1 0x20 DUP2 LT ISZERO PUSH2 0xA9F JUMPI PUSH1 0x0 DUP1 REVERT JUMPDEST DUP2 ADD SWAP1 DUP1 DUP1 CALLDATALOAD PUSH20 0xFFFFFFFFFFFFFFFFFFFFFFFFFFFFFFFFFFFFFFFF AND SWAP1 PUSH1 0x20 ADD SWAP1 SWAP3 SWAP2 SWAP1 POP POP POP PUSH2 0x3053 JUMP JUMPDEST STOP JUMPDEST PUSH2 0xAD5 PUSH2 0xF5A JUMP JUMPDEST STOP JUMPDEST CALLVALUE DUP1 ISZERO PUSH2 0xAE3 JUMPI PUSH1 0x0 DUP1 REVERT JUMPDEST POP PUSH2 0xAEC PUSH2 0x315A JUMP JUMPDEST PUSH1 0x40 MLOAD DUP1 DUP3 PUSH20 0xFFFFFFFFFFFFFFFFFFFFFFFFFFFFFFFFFFFFFFFF AND DUP2 MSTORE PUSH1 0x20 ADD SWAP2 POP POP PUSH1 0x40 MLOAD DUP1 SWAP2 SUB SWAP1 RETURN JUMPDEST CALLVALUE DUP1 ISZERO PUSH2 0xB24 JUMPI PUSH1 0x0 DUP1 REVERT JUMPDEST POP PUSH2 0xB2D PUSH2 0x3180 JUMP JUMPDEST STOP JUMPDEST CALLVALUE DUP1 ISZERO PUSH2 0xB3B JUMPI PUSH1 0x0 DUP1 REVERT JUMPDEST POP PUSH2 0xB6B PUSH1 0x4 DUP1 CALLDATASIZE SUB PUSH1 0x20 DUP2 LT ISZERO PUSH2 0xB52 JUMPI PUSH1 0x0 DUP1 REVERT JUMPDEST DUP2 ADD SWAP1 DUP1 DUP1 CALLDATALOAD PUSH1 0xFF AND SWAP1 PUSH1 0x20 ADD SWAP1 SWAP3 SWAP2 SWAP1 POP POP POP PUSH2 0x3303 JUMP JUMPDEST PUSH1 0x40 MLOAD DUP1 DUP3 DUP2 MSTORE PUSH1 0x20 ADD SWAP2 POP POP PUSH1 0x40 MLOAD DUP1 SWAP2 SUB SWAP1 RETURN JUMPDEST CALLVALUE DUP1 ISZERO PUSH2 0xB8D JUMPI PUSH1 0x0 DUP1 REVERT JUMPDEST POP PUSH2 0xB96 PUSH2 0x33B0 JUMP JUMPDEST PUSH1 0x40 MLOAD DUP1 DUP3 DUP2 MSTORE PUSH1 0x20 ADD SWAP2 POP POP PUSH1 0x40 MLOAD DUP1 SWAP2 SUB SWAP1 RETURN JUMPDEST CALLVALUE DUP1 ISZERO PUSH2 0xBB8 JUMPI PUSH1 0x0 DUP1 REVERT JUMPDEST POP PUSH2 0xBFB PUSH1 0x4 DUP1 CALLDATASIZE SUB PUSH1 0x20 DUP2 LT ISZERO PUSH2 0xBCF JUMPI PUSH1 0x0 DUP1 REVERT JUMPDEST DUP2 ADD SWAP1 DUP1 DUP1 CALLDATALOAD PUSH20 0xFFFFFFFFFFFFFFFFFFFFFFFFFFFFFFFFFFFFFFFF AND SWAP1 PUSH1 0x20 ADD SWAP1 SWAP3 SWAP2 SWAP1 POP POP POP PUSH2 0x33B6 JUMP JUMPDEST PUSH1 0x40 MLOAD DUP1 DUP3 DUP2 MSTORE PUSH1 0x20 ADD SWAP2 POP POP PUSH1 0x40 MLOAD DUP1 SWAP2 SUB SWAP1 RETURN JUMPDEST CALLVALUE DUP1 ISZERO PUSH2 0xC1D JUMPI PUSH1 0x0 DUP1 REVERT JUMPDEST POP PUSH2 0xC26 PUSH2 0x3405 JUMP JUMPDEST PUSH1 0x40 MLOAD DUP1 DUP3 PUSH20 0xFFFFFFFFFFFFFFFFFFFFFFFFFFFFFFFFFFFFFFFF AND DUP2 MSTORE PUSH1 0x20 ADD SWAP2 POP POP PUSH1 0x40 MLOAD DUP1 SWAP2 SUB SWAP1 RETURN JUMPDEST CALLVALUE DUP1 ISZERO PUSH2 0xC5E JUMPI PUSH1 0x0 DUP1 REVERT JUMPDEST POP PUSH2 0xC8E PUSH1 0x4 DUP1 CALLDATASIZE SUB PUSH1 0x20 DUP2 LT ISZERO PUSH2 0xC75 JUMPI PUSH1 0x0 DUP1 REVERT JUMPDEST DUP2 ADD SWAP1 DUP1 DUP1 CALLDATALOAD PUSH1 0xFF AND SWAP1 PUSH1 0x20 ADD SWAP1 SWAP3 SWAP2 SWAP1 POP POP POP PUSH2 0x342B JUMP JUMPDEST PUSH1 0x40 MLOAD DUP1 DUP4 DUP2 MSTORE PUSH1 0x20 ADD DUP3 DUP2 MSTORE PUSH1 0x20 ADD SWAP3 POP POP POP PUSH1 0x40 MLOAD DUP1 SWAP2 SUB SWAP1 RETURN JUMPDEST CALLVALUE DUP1 ISZERO PUSH2 0xCB7 JUMPI PUSH1 0x0 DUP1 REVERT JUMPDEST POP PUSH2 0xCC0 PUSH2 0x347B JUMP JUMPDEST PUSH1 0x40 MLOAD DUP1 DUP3 PUSH1 0x3 DUP2 GT ISZERO PUSH2 0xCD0 JUMPI INVALID JUMPDEST DUP2 MSTORE PUSH1 0x20 ADD SWAP2 POP POP PUSH1 0x40 MLOAD DUP1 SWAP2 SUB SWAP1 RETURN JUMPDEST CALLVALUE DUP1 ISZERO PUSH2 0xCED JUMPI PUSH1 0x0 DUP1 REVERT JUMPDEST POP PUSH2 0xD3A PUSH1 0x4 DUP1 CALLDATASIZE SUB PUSH1 0x40 DUP2 LT ISZERO PUSH2 0xD04 JUMPI PUSH1 0x0 DUP1 REVERT JUMPDEST DUP2 ADD SWAP1 DUP1 DUP1 CALLDATALOAD PUSH20 0xFFFFFFFFFFFFFFFFFFFFFFFFFFFFFFFFFFFFFFFF AND SWAP1 PUSH1 0x20 ADD SWAP1 SWAP3 SWAP2 SWAP1 DUP1 CALLDATALOAD SWAP1 PUSH1 0x20 ADD SWAP1 SWAP3 SWAP2 SWAP1 POP POP POP PUSH2 0x348E JUMP JUMPDEST PUSH1 0x40 MLOAD DUP1 DUP8 PUSH1 0xFF AND DUP2 MSTORE PUSH1 0x20 ADD DUP7 DUP2 MSTORE PUSH1 0x20 ADD DUP6 DUP2 MSTORE PUSH1 0x20 ADD DUP5 DUP2 MSTORE PUSH1 0x20 ADD DUP4 DUP2 MSTORE PUSH1 0x20 ADD DUP3 DUP2 MSTORE PUSH1 0x20 ADD SWAP7 POP POP POP POP POP POP POP PUSH1 0x40 MLOAD DUP1 SWAP2 SUB SWAP1 RETURN JUMPDEST CALLVALUE DUP1 ISZERO PUSH2 0xD82 JUMPI PUSH1 0x0 DUP1 REVERT JUMPDEST POP PUSH2 0xD8B PUSH2 0x35C4 JUMP JUMPDEST PUSH1 0x40 MLOAD DUP1 DUP3 DUP2 MSTORE PUSH1 0x20 ADD SWAP2 POP POP PUSH1 0x40 MLOAD DUP1 SWAP2 SUB SWAP1 RETURN JUMPDEST CALLVALUE DUP1 ISZERO PUSH2 0xDAD JUMPI PUSH1 0x0 DUP1 REVERT JUMPDEST POP PUSH2 0xDB6 PUSH2 0x35CA JUMP JUMPDEST PUSH1 0x40 MLOAD DUP1 DUP3 DUP2 MSTORE PUSH1 0x20 ADD SWAP2 POP POP PUSH1 0x40 MLOAD DUP1 SWAP2 SUB SWAP1 RETURN JUMPDEST CALLVALUE DUP1 ISZERO PUSH2 0xDD8 JUMPI PUSH1 0x0 DUP1 REVERT JUMPDEST POP PUSH2 0xE1B PUSH1 0x4 DUP1 CALLDATASIZE SUB PUSH1 0x20 DUP2 LT ISZERO PUSH2 0xDEF JUMPI PUSH1 0x0 DUP1 REVERT JUMPDEST DUP2 ADD SWAP1 DUP1 DUP1 CALLDATALOAD PUSH20 0xFFFFFFFFFFFFFFFFFFFFFFFFFFFFFFFFFFFFFFFF AND SWAP1 PUSH1 0x20 ADD SWAP1 SWAP3 SWAP2 SWAP1 POP POP POP PUSH2 0x35D0 JUMP JUMPDEST PUSH1 0x40 MLOAD DUP1 DUP3 DUP2 MSTORE PUSH1 0x20 ADD SWAP2 POP POP PUSH1 0x40 MLOAD DUP1 SWAP2 SUB SWAP1 RETURN JUMPDEST CALLVALUE DUP1 ISZERO PUSH2 0xE3D JUMPI PUSH1 0x0 DUP1 REVERT JUMPDEST POP PUSH2 0xE46 PUSH2 0x361C JUMP JUMPDEST STOP JUMPDEST CALLVALUE DUP1 ISZERO PUSH2 0xE54 JUMPI PUSH1 0x0 DUP1 REVERT JUMPDEST POP PUSH2 0xE97 PUSH1 0x4 DUP1 CALLDATASIZE SUB PUSH1 0x20 DUP2 LT ISZERO PUSH2 0xE6B JUMPI PUSH1 0x0 DUP1 REVERT JUMPDEST DUP2 ADD SWAP1 DUP1 DUP1 CALLDATALOAD PUSH20 0xFFFFFFFFFFFFFFFFFFFFFFFFFFFFFFFFFFFFFFFF AND SWAP1 PUSH1 0x20 ADD SWAP1 SWAP3 SWAP2 SWAP1 POP POP POP PUSH2 0x3746 JUMP JUMPDEST PUSH1 0x40 MLOAD DUP1 DUP3 DUP2 MSTORE PUSH1 0x20 ADD SWAP2 POP POP PUSH1 0x40 MLOAD DUP1 SWAP2 SUB SWAP1 RETURN JUMPDEST CALLVALUE DUP1 ISZERO PUSH2 0xEB9 JUMPI PUSH1 0x0 DUP1 REVERT JUMPDEST POP PUSH2 0xEC2 PUSH2 0x3792 JUMP JUMPDEST PUSH1 0x40 MLOAD DUP1 DUP3 PUSH20 0xFFFFFFFFFFFFFFFFFFFFFFFFFFFFFFFFFFFFFFFF AND DUP2 MSTORE PUSH1 0x20 ADD SWAP2 POP POP PUSH1 0x40 MLOAD DUP1 SWAP2 SUB SWAP1 RETURN JUMPDEST CALLVALUE DUP1 ISZERO PUSH2 0xEFA JUMPI PUSH1 0x0 DUP1 REVERT JUMPDEST POP PUSH2 0xF03 PUSH2 0x37B8 JUMP JUMPDEST PUSH1 0x40 MLOAD DUP1 DUP3 DUP2 MSTORE PUSH1 0x20 ADD SWAP2 POP POP PUSH1 0x40 MLOAD DUP1 SWAP2 SUB SWAP1 RETURN JUMPDEST CALLVALUE DUP1 ISZERO PUSH2 0xF25 JUMPI PUSH1 0x0 DUP1 REVERT JUMPDEST POP PUSH2 0xF2E PUSH2 0x37BE JUMP JUMPDEST PUSH1 0x40 MLOAD DUP1 DUP3 PUSH20 0xFFFFFFFFFFFFFFFFFFFFFFFFFFFFFFFFFFFFFFFF AND DUP2 MSTORE PUSH1 0x20 ADD SWAP2 POP POP PUSH1 0x40 MLOAD DUP1 SWAP2 SUB SWAP1 RETURN JUMPDEST JUMP JUMPDEST PUSH1 0xA SLOAD DUP2 JUMP JUMPDEST PUSH1 0x3 PUSH1 0x0 SWAP1 SLOAD SWAP1 PUSH2 0x100 EXP SWAP1 DIV PUSH20 0xFFFFFFFFFFFFFFFFFFFFFFFFFFFFFFFFFFFFFFFF AND PUSH20 0xFFFFFFFFFFFFFFFFFFFFFFFFFFFFFFFFFFFFFFFF AND CALLER PUSH20 0xFFFFFFFFFFFFFFFFFFFFFFFFFFFFFFFFFFFFFFFF AND EQ PUSH2 0x1025 JUMPI PUSH1 0x40 MLOAD PUSH32 0x8C379A000000000000000000000000000000000000000000000000000000000 DUP2 MSTORE PUSH1 0x4 ADD DUP1 DUP1 PUSH1 0x20 ADD DUP3 DUP2 SUB DUP3 MSTORE PUSH1 0x13 DUP2 MSTORE PUSH1 0x20 ADD DUP1 PUSH32 0x41646D696E204F6E6C792066756E6374696F6E00000000000000000000000000 DUP2 MSTORE POP PUSH1 0x20 ADD SWAP2 POP POP PUSH1 0x40 MLOAD DUP1 SWAP2 SUB SWAP1 REVERT JUMPDEST DUP1 PUSH1 0x4 PUSH1 0x0 PUSH2 0x100 EXP DUP2 SLOAD DUP2 PUSH20 0xFFFFFFFFFFFFFFFFFFFFFFFFFFFFFFFFFFFFFFFF MUL NOT AND SWAP1 DUP4 PUSH20 0xFFFFFFFFFFFFFFFFFFFFFFFFFFFFFFFFFFFFFFFF AND MUL OR SWAP1 SSTORE POP POP JUMP JUMPDEST PUSH2 0x3E8 DUP2 JUMP JUMPDEST PUSH1 0x0 DUP1 PUSH1 0x0 PUSH1 0x10 PUSH1 0x0 DUP6 PUSH20 0xFFFFFFFFFFFFFFFFFFFFFFFFFFFFFFFFFFFFFFFF AND PUSH20 0xFFFFFFFFFFFFFFFFFFFFFFFFFFFFFFFFFFFFFFFF AND DUP2 MSTORE PUSH1 0x20 ADD SWAP1 DUP2 MSTORE PUSH1 0x20 ADD PUSH1 0x0 KECCAK256 PUSH1 0x3 ADD PUSH1 0x0 PUSH1 0x3 DUP2 LT PUSH2 0x10C2 JUMPI INVALID JUMPDEST ADD SLOAD PUSH1 0x10 PUSH1 0x0 DUP7 PUSH20 0xFFFFFFFFFFFFFFFFFFFFFFFFFFFFFFFFFFFFFFFF AND PUSH20 0xFFFFFFFFFFFFFFFFFFFFFFFFFFFFFFFFFFFFFFFF AND DUP2 MSTORE PUSH1 0x20 ADD SWAP1 DUP2 MSTORE PUSH1 0x20 ADD PUSH1 0x0 KECCAK256 PUSH1 0x3 ADD PUSH1 0x1 PUSH1 0x3 DUP2 LT PUSH2 0x1112 JUMPI INVALID JUMPDEST ADD SLOAD PUSH1 0x10 PUSH1 0x0 DUP8 PUSH20 0xFFFFFFFFFFFFFFFFFFFFFFFFFFFFFFFFFFFFFFFF AND PUSH20 0xFFFFFFFFFFFFFFFFFFFFFFFFFFFFFFFFFFFFFFFF AND DUP2 MSTORE PUSH1 0x20 ADD SWAP1 DUP2 MSTORE PUSH1 0x20 ADD PUSH1 0x0 KECCAK256 PUSH1 0x3 ADD PUSH1 0x2 PUSH1 0x3 DUP2 LT PUSH2 0x1162 JUMPI INVALID JUMPDEST ADD SLOAD SWAP3 POP SWAP3 POP SWAP3 POP SWAP2 SWAP4 SWAP1 SWAP3 POP JUMP JUMPDEST PUSH1 0x0 DUP1 PUSH1 0x1 SWAP1 POP PUSH1 0x9 SLOAD CALLVALUE LT ISZERO PUSH2 0x1187 JUMPI PUSH1 0x0 DUP1 REVERT JUMPDEST PUSH1 0x0 CALLVALUE SWAP1 POP PUSH1 0x0 PUSH1 0x10 PUSH1 0x0 CALLER PUSH20 0xFFFFFFFFFFFFFFFFFFFFFFFFFFFFFFFFFFFFFFFF AND PUSH20 0xFFFFFFFFFFFFFFFFFFFFFFFFFFFFFFFFFFFFFFFF AND DUP2 MSTORE PUSH1 0x20 ADD SWAP1 DUP2 MSTORE PUSH1 0x20 ADD PUSH1 0x0 KECCAK256 SWAP1 POP PUSH1 0x0 PUSH20 0xFFFFFFFFFFFFFFFFFFFFFFFFFFFFFFFFFFFFFFFF AND DUP2 PUSH1 0x2 ADD PUSH1 0x0 SWAP1 SLOAD SWAP1 PUSH2 0x100 EXP SWAP1 DIV PUSH20 0xFFFFFFFFFFFFFFFFFFFFFFFFFFFFFFFFFFFFFFFF AND PUSH20 0xFFFFFFFFFFFFFFFFFFFFFFFFFFFFFFFFFFFFFFFF AND EQ ISZERO PUSH2 0x148E JUMPI PUSH1 0x0 PUSH1 0x10 PUSH1 0x0 DUP8 PUSH20 0xFFFFFFFFFFFFFFFFFFFFFFFFFFFFFFFFFFFFFFFF AND PUSH20 0xFFFFFFFFFFFFFFFFFFFFFFFFFFFFFFFFFFFFFFFF AND DUP2 MSTORE PUSH1 0x20 ADD SWAP1 DUP2 MSTORE PUSH1 0x20 ADD PUSH1 0x0 KECCAK256 PUSH1 0x0 ADD DUP1 SLOAD SWAP1 POP GT DUP1 ISZERO PUSH2 0x12A9 JUMPI POP CALLER PUSH20 0xFFFFFFFFFFFFFFFFFFFFFFFFFFFFFFFFFFFFFFFF AND DUP6 PUSH20 0xFFFFFFFFFFFFFFFFFFFFFFFFFFFFFFFFFFFFFFFF AND EQ ISZERO JUMPDEST ISZERO PUSH2 0x12F2 JUMPI DUP5 DUP2 PUSH1 0x2 ADD PUSH1 0x0 PUSH2 0x100 EXP DUP2 SLOAD DUP2 PUSH20 0xFFFFFFFFFFFFFFFFFFFFFFFFFFFFFFFFFFFFFFFF MUL NOT AND SWAP1 DUP4 PUSH20 0xFFFFFFFFFFFFFFFFFFFFFFFFFFFFFFFFFFFFFFFF AND MUL OR SWAP1 SSTORE POP JUMPDEST PUSH1 0x0 DUP2 PUSH1 0x2 ADD PUSH1 0x0 SWAP1 SLOAD SWAP1 PUSH2 0x100 EXP SWAP1 DIV PUSH20 0xFFFFFFFFFFFFFFFFFFFFFFFFFFFFFFFFFFFFFFFF AND SWAP1 POP PUSH1 0x0 JUMPDEST PUSH1 0x3 DUP2 LT ISZERO PUSH2 0x148B JUMPI PUSH1 0x0 PUSH20 0xFFFFFFFFFFFFFFFFFFFFFFFFFFFFFFFFFFFFFFFF AND DUP3 PUSH20 0xFFFFFFFFFFFFFFFFFFFFFFFFFFFFFFFFFFFFFFFF AND EQ PUSH2 0x1479 JUMPI PUSH2 0x13BD PUSH1 0x1 PUSH1 0x10 PUSH1 0x0 DUP6 PUSH20 0xFFFFFFFFFFFFFFFFFFFFFFFFFFFFFFFFFFFFFFFF AND PUSH20 0xFFFFFFFFFFFFFFFFFFFFFFFFFFFFFFFFFFFFFFFF AND DUP2 MSTORE PUSH1 0x20 ADD SWAP1 DUP2 MSTORE PUSH1 0x20 ADD PUSH1 0x0 KECCAK256 PUSH1 0x3 ADD DUP4 PUSH1 0x3 DUP2 LT PUSH2 0x13AD JUMPI INVALID JUMPDEST ADD SLOAD PUSH2 0x37E4 SWAP1 SWAP2 SWAP1 PUSH4 0xFFFFFFFF AND JUMP JUMPDEST PUSH1 0x10 PUSH1 0x0 DUP5 PUSH20 0xFFFFFFFFFFFFFFFFFFFFFFFFFFFFFFFFFFFFFFFF AND PUSH20 0xFFFFFFFFFFFFFFFFFFFFFFFFFFFFFFFFFFFFFFFF AND DUP2 MSTORE PUSH1 0x20 ADD SWAP1 DUP2 MSTORE PUSH1 0x20 ADD PUSH1 0x0 KECCAK256 PUSH1 0x3 ADD DUP3 PUSH1 0x3 DUP2 LT PUSH2 0x140A JUMPI INVALID JUMPDEST ADD DUP2 SWAP1 SSTORE POP PUSH1 0x10 PUSH1 0x0 DUP4 PUSH20 0xFFFFFFFFFFFFFFFFFFFFFFFFFFFFFFFFFFFFFFFF AND PUSH20 0xFFFFFFFFFFFFFFFFFFFFFFFFFFFFFFFFFFFFFFFF AND DUP2 MSTORE PUSH1 0x20 ADD SWAP1 DUP2 MSTORE PUSH1 0x20 ADD PUSH1 0x0 KECCAK256 PUSH1 0x2 ADD PUSH1 0x0 SWAP1 SLOAD SWAP1 PUSH2 0x100 EXP SWAP1 DIV PUSH20 0xFFFFFFFFFFFFFFFFFFFFFFFFFFFFFFFFFFFFFFFF AND SWAP2 POP PUSH2 0x147E JUMP JUMPDEST PUSH2 0x148B JUMP JUMPDEST DUP1 DUP1 PUSH1 0x1 ADD SWAP2 POP POP PUSH2 0x131E JUMP JUMPDEST POP POP JUMPDEST PUSH1 0x0 PUSH20 0xFFFFFFFFFFFFFFFFFFFFFFFFFFFFFFFFFFFFFFFF AND DUP2 PUSH1 0x2 ADD PUSH1 0x0 SWAP1 SLOAD SWAP1 PUSH2 0x100 EXP SWAP1 DIV PUSH20 0xFFFFFFFFFFFFFFFFFFFFFFFFFFFFFFFFFFFFFFFF AND PUSH20 0xFFFFFFFFFFFFFFFFFFFFFFFFFFFFFFFFFFFFFFFF AND EQ PUSH2 0x189F JUMPI PUSH1 0x0 DUP2 PUSH1 0x2 ADD PUSH1 0x0 SWAP1 SLOAD SWAP1 PUSH2 0x100 EXP SWAP1 DIV PUSH20 0xFFFFFFFFFFFFFFFFFFFFFFFFFFFFFFFFFFFFFFFF AND SWAP1 POP PUSH1 0x0 JUMPDEST PUSH1 0x3 DUP2 LT ISZERO PUSH2 0x189C JUMPI PUSH1 0x0 PUSH20 0xFFFFFFFFFFFFFFFFFFFFFFFFFFFFFFFFFFFFFFFF AND DUP3 PUSH20 0xFFFFFFFFFFFFFFFFFFFFFFFFFFFFFFFFFFFFFFFF AND EQ PUSH2 0x188A JUMPI PUSH1 0x0 PUSH2 0x158F PUSH2 0x3E8 PUSH2 0x1581 PUSH1 0x0 DUP6 DUP2 SLOAD DUP2 LT PUSH2 0x1567 JUMPI INVALID JUMPDEST SWAP1 PUSH1 0x0 MSTORE PUSH1 0x20 PUSH1 0x0 KECCAK256 ADD SLOAD CALLVALUE PUSH2 0x386C SWAP1 SWAP2 SWAP1 PUSH4 0xFFFFFFFF AND JUMP JUMPDEST PUSH2 0x38F2 SWAP1 SWAP2 SWAP1 PUSH4 0xFFFFFFFF AND JUMP JUMPDEST SWAP1 POP PUSH2 0x15A4 DUP2 DUP7 PUSH2 0x393C SWAP1 SWAP2 SWAP1 PUSH4 0xFFFFFFFF AND JUMP JUMPDEST SWAP5 POP PUSH2 0x15FB DUP2 PUSH1 0x10 PUSH1 0x0 DUP7 PUSH20 0xFFFFFFFFFFFFFFFFFFFFFFFFFFFFFFFFFFFFFFFF AND PUSH20 0xFFFFFFFFFFFFFFFFFFFFFFFFFFFFFFFFFFFFFFFF AND DUP2 MSTORE PUSH1 0x20 ADD SWAP1 DUP2 MSTORE PUSH1 0x20 ADD PUSH1 0x0 KECCAK256 PUSH1 0x6 ADD SLOAD PUSH2 0x37E4 SWAP1 SWAP2 SWAP1 PUSH4 0xFFFFFFFF AND JUMP JUMPDEST PUSH1 0x10 PUSH1 0x0 DUP6 PUSH20 0xFFFFFFFFFFFFFFFFFFFFFFFFFFFFFFFFFFFFFFFF AND PUSH20 0xFFFFFFFFFFFFFFFFFFFFFFFFFFFFFFFFFFFFFFFF AND DUP2 MSTORE PUSH1 0x20 ADD SWAP1 DUP2 MSTORE PUSH1 0x20 ADD PUSH1 0x0 KECCAK256 PUSH1 0x6 ADD DUP2 SWAP1 SSTORE POP PUSH2 0x1696 DUP2 PUSH1 0x10 PUSH1 0x0 DUP7 PUSH20 0xFFFFFFFFFFFFFFFFFFFFFFFFFFFFFFFFFFFFFFFF AND PUSH20 0xFFFFFFFFFFFFFFFFFFFFFFFFFFFFFFFFFFFFFFFF AND DUP2 MSTORE PUSH1 0x20 ADD SWAP1 DUP2 MSTORE PUSH1 0x20 ADD PUSH1 0x0 KECCAK256 PUSH1 0x7 ADD SLOAD PUSH2 0x37E4 SWAP1 SWAP2 SWAP1 PUSH4 0xFFFFFFFF AND JUMP JUMPDEST PUSH1 0x10 PUSH1 0x0 DUP6 PUSH20 0xFFFFFFFFFFFFFFFFFFFFFFFFFFFFFFFFFFFFFFFF AND PUSH20 0xFFFFFFFFFFFFFFFFFFFFFFFFFFFFFFFFFFFFFFFF AND DUP2 MSTORE PUSH1 0x20 ADD SWAP1 DUP2 MSTORE PUSH1 0x20 ADD PUSH1 0x0 KECCAK256 PUSH1 0x7 ADD DUP2 SWAP1 SSTORE POP PUSH1 0x0 DUP4 PUSH20 0xFFFFFFFFFFFFFFFFFFFFFFFFFFFFFFFFFFFFFFFF AND DUP3 PUSH1 0x40 MLOAD DUP1 PUSH1 0x0 ADD SWAP1 POP PUSH1 0x0 PUSH1 0x40 MLOAD DUP1 DUP4 SUB DUP2 DUP6 DUP8 GAS CALL SWAP3 POP POP POP RETURNDATASIZE DUP1 PUSH1 0x0 DUP2 EQ PUSH2 0x173C JUMPI PUSH1 0x40 MLOAD SWAP2 POP PUSH1 0x1F NOT PUSH1 0x3F RETURNDATASIZE ADD AND DUP3 ADD PUSH1 0x40 MSTORE RETURNDATASIZE DUP3 MSTORE RETURNDATASIZE PUSH1 0x0 PUSH1 0x20 DUP5 ADD RETURNDATACOPY PUSH2 0x1741 JUMP JUMPDEST PUSH1 0x60 SWAP2 POP JUMPDEST POP POP SWAP1 POP DUP1 PUSH2 0x17B8 JUMPI PUSH1 0x40 MLOAD PUSH32 0x8C379A000000000000000000000000000000000000000000000000000000000 DUP2 MSTORE PUSH1 0x4 ADD DUP1 DUP1 PUSH1 0x20 ADD DUP3 DUP2 SUB DUP3 MSTORE PUSH1 0x10 DUP2 MSTORE PUSH1 0x20 ADD DUP1 PUSH32 0x4661696C656420746F20496E7665737400000000000000000000000000000000 DUP2 MSTORE POP PUSH1 0x20 ADD SWAP2 POP POP PUSH1 0x40 MLOAD DUP1 SWAP2 SUB SWAP1 REVERT JUMPDEST DUP3 CALLER PUSH20 0xFFFFFFFFFFFFFFFFFFFFFFFFFFFFFFFFFFFFFFFF AND DUP6 PUSH20 0xFFFFFFFFFFFFFFFFFFFFFFFFFFFFFFFFFFFFFFFF AND PUSH32 0xD41F7E766EEBCC7FF42B11AC8691BDF864DB4AFC0C55E71D629D54EDCE460D98 DUP6 PUSH1 0x40 MLOAD DUP1 DUP3 DUP2 MSTORE PUSH1 0x20 ADD SWAP2 POP POP PUSH1 0x40 MLOAD DUP1 SWAP2 SUB SWAP1 LOG4 PUSH1 0x10 PUSH1 0x0 DUP6 PUSH20 0xFFFFFFFFFFFFFFFFFFFFFFFFFFFFFFFFFFFFFFFF AND PUSH20 0xFFFFFFFFFFFFFFFFFFFFFFFFFFFFFFFFFFFFFFFF AND DUP2 MSTORE PUSH1 0x20 ADD SWAP1 DUP2 MSTORE PUSH1 0x20 ADD PUSH1 0x0 KECCAK256 PUSH1 0x2 ADD PUSH1 0x0 SWAP1 SLOAD SWAP1 PUSH2 0x100 EXP SWAP1 DIV PUSH20 0xFFFFFFFFFFFFFFFFFFFFFFFFFFFFFFFFFFFFFFFF AND SWAP4 POP POP POP PUSH2 0x188F JUMP JUMPDEST PUSH2 0x189C JUMP JUMPDEST DUP1 DUP1 PUSH1 0x1 ADD SWAP2 POP POP PUSH2 0x1512 JUMP JUMPDEST POP POP JUMPDEST PUSH1 0x0 DUP2 PUSH1 0x0 ADD DUP1 SLOAD SWAP1 POP EQ ISZERO PUSH2 0x1906 JUMPI TIMESTAMP DUP2 PUSH1 0x1 ADD DUP2 SWAP1 SSTORE POP PUSH32 0x9FD565CD14C3C391679EB0CAD12A14DCF7534E9D3462BCB9B67A098A9BBBC24A CALLER PUSH1 0x40 MLOAD DUP1 DUP3 PUSH20 0xFFFFFFFFFFFFFFFFFFFFFFFFFFFFFFFFFFFFFFFF AND DUP2 MSTORE PUSH1 0x20 ADD SWAP2 POP POP PUSH1 0x40 MLOAD DUP1 SWAP2 SUB SWAP1 LOG1 JUMPDEST PUSH1 0x0 DUP1 PUSH1 0x0 PUSH2 0x1915 DUP7 CALLVALUE PUSH2 0x29FB JUMP JUMPDEST SWAP3 POP SWAP3 POP SWAP3 POP DUP4 PUSH1 0x0 ADD PUSH1 0x40 MLOAD DUP1 PUSH1 0xC0 ADD PUSH1 0x40 MSTORE DUP1 DUP9 PUSH1 0xFF AND DUP2 MSTORE PUSH1 0x20 ADD DUP6 DUP2 MSTORE PUSH1 0x20 ADD CALLVALUE DUP2 MSTORE PUSH1 0x20 ADD DUP5 DUP2 MSTORE PUSH1 0x20 ADD TIMESTAMP DUP2 MSTORE PUSH1 0x20 ADD DUP4 DUP2 MSTORE POP SWAP1 DUP1 PUSH1 0x1 DUP2 SLOAD ADD DUP1 DUP3 SSTORE DUP1 SWAP2 POP POP PUSH1 0x1 SWAP1 SUB SWAP1 PUSH1 0x0 MSTORE PUSH1 0x20 PUSH1 0x0 KECCAK256 SWAP1 PUSH1 0x6 MUL ADD PUSH1 0x0 SWAP1 SWAP2 SWAP1 SWAP2 SWAP1 SWAP2 POP PUSH1 0x0 DUP3 ADD MLOAD DUP2 PUSH1 0x0 ADD PUSH1 0x0 PUSH2 0x100 EXP DUP2 SLOAD DUP2 PUSH1 0xFF MUL NOT AND SWAP1 DUP4 PUSH1 0xFF AND MUL OR SWAP1 SSTORE POP PUSH1 0x20 DUP3 ADD MLOAD DUP2 PUSH1 0x1 ADD SSTORE PUSH1 0x40 DUP3 ADD MLOAD DUP2 PUSH1 0x2 ADD SSTORE PUSH1 0x60 DUP3 ADD MLOAD DUP2 PUSH1 0x3 ADD SSTORE PUSH1 0x80 DUP3 ADD MLOAD DUP2 PUSH1 0x4 ADD SSTORE PUSH1 0xA0 DUP3 ADD MLOAD DUP2 PUSH1 0x5 ADD SSTORE POP POP PUSH2 0x19E2 CALLVALUE PUSH1 0x1 SLOAD PUSH2 0x37E4 SWAP1 SWAP2 SWAP1 PUSH4 0xFFFFFFFF AND JUMP JUMPDEST PUSH1 0x1 DUP2 SWAP1 SSTORE POP CALLER PUSH20 0xFFFFFFFFFFFFFFFFFFFFFFFFFFFFFFFFFFFFFFFF AND PUSH32 0x84E02DAA69BDB087C9FE8D3041ABCA495512CB14E723070F6D1D4EFFACE82E5D DUP8 DUP6 CALLVALUE DUP7 TIMESTAMP DUP8 PUSH1 0x40 MLOAD DUP1 DUP8 PUSH1 0xFF AND DUP2 MSTORE PUSH1 0x20 ADD DUP7 DUP2 MSTORE PUSH1 0x20 ADD DUP6 DUP2 MSTORE PUSH1 0x20 ADD DUP5 DUP2 MSTORE PUSH1 0x20 ADD DUP4 DUP2 MSTORE PUSH1 0x20 ADD DUP3 DUP2 MSTORE PUSH1 0x20 ADD SWAP7 POP POP POP POP POP POP POP PUSH1 0x40 MLOAD DUP1 SWAP2 SUB SWAP1 LOG2 PUSH1 0x1 PUSH1 0x3 DUP2 GT ISZERO PUSH2 0x1A6E JUMPI INVALID JUMPDEST PUSH1 0xE PUSH1 0x0 SWAP1 SLOAD SWAP1 PUSH2 0x100 EXP SWAP1 DIV PUSH1 0xFF AND PUSH1 0x3 DUP2 GT ISZERO PUSH2 0x1A89 JUMPI INVALID JUMPDEST EQ PUSH2 0x1AFC JUMPI PUSH1 0x40 MLOAD PUSH32 0x8C379A000000000000000000000000000000000000000000000000000000000 DUP2 MSTORE PUSH1 0x4 ADD DUP1 DUP1 PUSH1 0x20 ADD DUP3 DUP2 SUB DUP3 MSTORE PUSH1 0x11 DUP2 MSTORE PUSH1 0x20 ADD DUP1 PUSH32 0x49434F2069736E27742072756E6E696E67000000000000000000000000000000 DUP2 MSTORE POP PUSH1 0x20 ADD SWAP2 POP POP PUSH1 0x40 MLOAD DUP1 SWAP2 SUB SWAP1 REVERT JUMPDEST PUSH1 0x9 SLOAD CALLVALUE LT ISZERO DUP1 ISZERO PUSH2 0x1B10 JUMPI POP PUSH1 0xA SLOAD CALLVALUE GT ISZERO JUMPDEST PUSH2 0x1B82 JUMPI PUSH1 0x40 MLOAD PUSH32 0x8C379A000000000000000000000000000000000000000000000000000000000 DUP2 MSTORE PUSH1 0x4 ADD DUP1 DUP1 PUSH1 0x20 ADD DUP3 DUP2 SUB DUP3 MSTORE PUSH1 0x1C DUP2 MSTORE PUSH1 0x20 ADD DUP1 PUSH32 0x436865636B204D696E20616E64204D617820496E766573746D656E7400000000 DUP2 MSTORE POP PUSH1 0x20 ADD SWAP2 POP POP PUSH1 0x40 MLOAD DUP1 SWAP2 SUB SWAP1 REVERT JUMPDEST PUSH1 0xA SLOAD CALLVALUE PUSH1 0xD PUSH1 0x0 CALLER PUSH20 0xFFFFFFFFFFFFFFFFFFFFFFFFFFFFFFFFFFFFFFFF AND PUSH20 0xFFFFFFFFFFFFFFFFFFFFFFFFFFFFFFFFFFFFFFFF AND DUP2 MSTORE PUSH1 0x20 ADD SWAP1 DUP2 MSTORE PUSH1 0x20 ADD PUSH1 0x0 KECCAK256 SLOAD ADD GT ISZERO PUSH2 0x1C1E JUMPI PUSH1 0x40 MLOAD PUSH32 0x8C379A000000000000000000000000000000000000000000000000000000000 DUP2 MSTORE PUSH1 0x4 ADD DUP1 DUP1 PUSH1 0x20 ADD DUP3 DUP2 SUB DUP3 MSTORE PUSH1 0x2A DUP2 MSTORE PUSH1 0x20 ADD DUP1 PUSH2 0x3B2E PUSH1 0x2A SWAP2 CODECOPY PUSH1 0x40 ADD SWAP2 POP POP PUSH1 0x40 MLOAD DUP1 SWAP2 SUB SWAP1 REVERT JUMPDEST PUSH1 0x7 SLOAD CALLVALUE PUSH1 0x8 SLOAD ADD GT ISZERO PUSH2 0x1C9A JUMPI PUSH1 0x40 MLOAD PUSH32 0x8C379A000000000000000000000000000000000000000000000000000000000 DUP2 MSTORE PUSH1 0x4 ADD DUP1 DUP1 PUSH1 0x20 ADD DUP3 DUP2 SUB DUP3 MSTORE PUSH1 0x19 DUP2 MSTORE PUSH1 0x20 ADD DUP1 PUSH32 0x53656E642077697468696E20686172646361702072616E676500000000000000 DUP2 MSTORE POP PUSH1 0x20 ADD SWAP2 POP POP PUSH1 0x40 MLOAD DUP1 SWAP2 SUB SWAP1 REVERT JUMPDEST PUSH1 0xC SLOAD TIMESTAMP GT ISZERO PUSH2 0x1CF5 JUMPI PUSH1 0x40 MLOAD PUSH32 0x8C379A000000000000000000000000000000000000000000000000000000000 DUP2 MSTORE PUSH1 0x4 ADD DUP1 DUP1 PUSH1 0x20 ADD DUP3 DUP2 SUB DUP3 MSTORE PUSH1 0x26 DUP2 MSTORE PUSH1 0x20 ADD DUP1 PUSH2 0x3B7C PUSH1 0x26 SWAP2 CODECOPY PUSH1 0x40 ADD SWAP2 POP POP PUSH1 0x40 MLOAD DUP1 SWAP2 SUB SWAP1 REVERT JUMPDEST CALLVALUE PUSH1 0x8 PUSH1 0x0 DUP3 DUP3 SLOAD ADD SWAP3 POP POP DUP2 SWAP1 SSTORE POP CALLVALUE PUSH1 0xD PUSH1 0x0 CALLER PUSH20 0xFFFFFFFFFFFFFFFFFFFFFFFFFFFFFFFFFFFFFFFF AND PUSH20 0xFFFFFFFFFFFFFFFFFFFFFFFFFFFFFFFFFFFFFFFF AND DUP2 MSTORE PUSH1 0x20 ADD SWAP1 DUP2 MSTORE PUSH1 0x20 ADD PUSH1 0x0 KECCAK256 PUSH1 0x0 DUP3 DUP3 SLOAD ADD SWAP3 POP POP DUP2 SWAP1 SSTORE POP PUSH1 0x0 PUSH1 0x4 PUSH1 0x0 SWAP1 SLOAD SWAP1 PUSH2 0x100 EXP SWAP1 DIV PUSH20 0xFFFFFFFFFFFFFFFFFFFFFFFFFFFFFFFFFFFFFFFF AND PUSH20 0xFFFFFFFFFFFFFFFFFFFFFFFFFFFFFFFFFFFFFFFF AND DUP7 PUSH1 0x40 MLOAD DUP1 PUSH1 0x0 ADD SWAP1 POP PUSH1 0x0 PUSH1 0x40 MLOAD DUP1 DUP4 SUB DUP2 DUP6 DUP8 GAS CALL SWAP3 POP POP POP RETURNDATASIZE DUP1 PUSH1 0x0 DUP2 EQ PUSH2 0x1DD4 JUMPI PUSH1 0x40 MLOAD SWAP2 POP PUSH1 0x1F NOT PUSH1 0x3F RETURNDATASIZE ADD AND DUP3 ADD PUSH1 0x40 MSTORE RETURNDATASIZE DUP3 MSTORE RETURNDATASIZE PUSH1 0x0 PUSH1 0x20 DUP5 ADD RETURNDATACOPY PUSH2 0x1DD9 JUMP JUMPDEST PUSH1 0x60 SWAP2 POP JUMPDEST POP POP SWAP1 POP DUP1 PUSH2 0x1E50 JUMPI PUSH1 0x40 MLOAD PUSH32 0x8C379A000000000000000000000000000000000000000000000000000000000 DUP2 MSTORE PUSH1 0x4 ADD DUP1 DUP1 PUSH1 0x20 ADD DUP3 DUP2 SUB DUP3 MSTORE PUSH1 0x10 DUP2 MSTORE PUSH1 0x20 ADD DUP1 PUSH32 0x4661696C656420746F20496E7665737400000000000000000000000000000000 DUP2 MSTORE POP PUSH1 0x20 ADD SWAP2 POP POP PUSH1 0x40 MLOAD DUP1 SWAP2 SUB SWAP1 REVERT JUMPDEST PUSH1 0x0 PUSH8 0xDE0B6B3A7640000 PUSH1 0x6 SLOAD CALLVALUE DUP2 PUSH2 0x1E66 JUMPI INVALID JUMPDEST DIV MUL SWAP1 POP PUSH1 0x0 PUSH1 0x5 PUSH1 0x0 SWAP1 SLOAD SWAP1 PUSH2 0x100 EXP SWAP1 DIV PUSH20 0xFFFFFFFFFFFFFFFFFFFFFFFFFFFFFFFFFFFFFFFF AND PUSH20 0xFFFFFFFFFFFFFFFFFFFFFFFFFFFFFFFFFFFFFFFF AND PUSH4 0xA9059CBB CALLER DUP5 PUSH1 0x40 MLOAD DUP4 PUSH4 0xFFFFFFFF AND PUSH1 0xE0 SHL DUP2 MSTORE PUSH1 0x4 ADD DUP1 DUP4 PUSH20 0xFFFFFFFFFFFFFFFFFFFFFFFFFFFFFFFFFFFFFFFF AND DUP2 MSTORE PUSH1 0x20 ADD DUP3 DUP2 MSTORE PUSH1 0x20 ADD SWAP3 POP POP POP PUSH1 0x20 PUSH1 0x40 MLOAD DUP1 DUP4 SUB DUP2 PUSH1 0x0 DUP8 DUP1 EXTCODESIZE ISZERO DUP1 ISZERO PUSH2 0x1EFF JUMPI PUSH1 0x0 DUP1 REVERT JUMPDEST POP GAS CALL ISZERO DUP1 ISZERO PUSH2 0x1F13 JUMPI RETURNDATASIZE PUSH1 0x0 DUP1 RETURNDATACOPY RETURNDATASIZE PUSH1 0x0 REVERT JUMPDEST POP POP POP POP PUSH1 0x40 MLOAD RETURNDATASIZE PUSH1 0x20 DUP2 LT ISZERO PUSH2 0x1F29 JUMPI PUSH1 0x0 DUP1 REVERT JUMPDEST DUP2 ADD SWAP1 DUP1 DUP1 MLOAD SWAP1 PUSH1 0x20 ADD SWAP1 SWAP3 SWAP2 SWAP1 POP POP POP SWAP1 POP DUP1 PUSH2 0x1FAF JUMPI PUSH1 0x40 MLOAD PUSH32 0x8C379A000000000000000000000000000000000000000000000000000000000 DUP2 MSTORE PUSH1 0x4 ADD DUP1 DUP1 PUSH1 0x20 ADD DUP3 DUP2 SUB DUP3 MSTORE PUSH1 0x10 DUP2 MSTORE PUSH1 0x20 ADD DUP1 PUSH32 0x4661696C656420746F20496E7665737400000000000000000000000000000000 DUP2 MSTORE POP PUSH1 0x20 ADD SWAP2 POP POP PUSH1 0x40 MLOAD DUP1 SWAP2 SUB SWAP1 REVERT JUMPDEST CALLER PUSH20 0xFFFFFFFFFFFFFFFFFFFFFFFFFFFFFFFFFFFFFFFF AND ADDRESS PUSH20 0xFFFFFFFFFFFFFFFFFFFFFFFFFFFFFFFFFFFFFFFF AND PUSH32 0x2E206BBDD5787CD6D3E97144DEC044F9F15DD77A257AFD27FA70CAD6F03FEAE3 CALLVALUE DUP6 PUSH1 0x40 MLOAD DUP1 DUP4 DUP2 MSTORE PUSH1 0x20 ADD DUP3 DUP2 MSTORE PUSH1 0x20 ADD SWAP3 POP POP POP PUSH1 0x40 MLOAD DUP1 SWAP2 SUB SWAP1 LOG3 PUSH1 0x1 SWAP10 POP POP POP POP POP POP POP POP POP POP SWAP2 SWAP1 POP JUMP JUMPDEST PUSH1 0x0 DUP1 PUSH1 0x10 PUSH1 0x0 DUP5 PUSH20 0xFFFFFFFFFFFFFFFFFFFFFFFFFFFFFFFFFFFFFFFF AND PUSH20 0xFFFFFFFFFFFFFFFFFFFFFFFFFFFFFFFFFFFFFFFF AND DUP2 MSTORE PUSH1 0x20 ADD SWAP1 DUP2 MSTORE PUSH1 0x20 ADD PUSH1 0x0 KECCAK256 SWAP1 POP PUSH1 0x0 DUP1 PUSH1 0x0 SWAP1 POP JUMPDEST DUP3 PUSH1 0x0 ADD DUP1 SLOAD SWAP1 POP DUP2 LT ISZERO PUSH2 0x22D3 JUMPI DUP3 PUSH1 0x0 ADD DUP2 DUP2 SLOAD DUP2 LT PUSH2 0x2098 JUMPI INVALID JUMPDEST SWAP1 PUSH1 0x0 MSTORE PUSH1 0x20 PUSH1 0x0 KECCAK256 SWAP1 PUSH1 0x6 MUL ADD PUSH1 0x5 ADD SLOAD DUP4 PUSH1 0x1 ADD SLOAD LT ISZERO PUSH2 0x22C6 JUMPI PUSH1 0x3 DUP4 PUSH1 0x0 ADD DUP3 DUP2 SLOAD DUP2 LT PUSH2 0x20C6 JUMPI INVALID JUMPDEST SWAP1 PUSH1 0x0 MSTORE PUSH1 0x20 PUSH1 0x0 KECCAK256 SWAP1 PUSH1 0x6 MUL ADD PUSH1 0x0 ADD PUSH1 0x0 SWAP1 SLOAD SWAP1 PUSH2 0x100 EXP SWAP1 DIV PUSH1 0xFF AND PUSH1 0xFF AND LT ISZERO PUSH2 0x2266 JUMPI PUSH1 0x0 PUSH2 0x2157 PUSH2 0x3E8 PUSH2 0x2149 DUP7 PUSH1 0x0 ADD DUP6 DUP2 SLOAD DUP2 LT PUSH2 0x2108 JUMPI INVALID JUMPDEST SWAP1 PUSH1 0x0 MSTORE PUSH1 0x20 PUSH1 0x0 KECCAK256 SWAP1 PUSH1 0x6 MUL ADD PUSH1 0x1 ADD SLOAD DUP8 PUSH1 0x0 ADD DUP7 DUP2 SLOAD DUP2 LT PUSH2 0x2129 JUMPI INVALID JUMPDEST SWAP1 PUSH1 0x0 MSTORE PUSH1 0x20 PUSH1 0x0 KECCAK256 SWAP1 PUSH1 0x6 MUL ADD PUSH1 0x2 ADD SLOAD PUSH2 0x386C SWAP1 SWAP2 SWAP1 PUSH4 0xFFFFFFFF AND JUMP JUMPDEST PUSH2 0x38F2 SWAP1 SWAP2 SWAP1 PUSH4 0xFFFFFFFF AND JUMP JUMPDEST SWAP1 POP PUSH1 0x0 DUP5 PUSH1 0x1 ADD SLOAD DUP6 PUSH1 0x0 ADD DUP5 DUP2 SLOAD DUP2 LT PUSH2 0x216F JUMPI INVALID JUMPDEST SWAP1 PUSH1 0x0 MSTORE PUSH1 0x20 PUSH1 0x0 KECCAK256 SWAP1 PUSH1 0x6 MUL ADD PUSH1 0x4 ADD SLOAD GT PUSH2 0x2190 JUMPI DUP5 PUSH1 0x1 ADD SLOAD PUSH2 0x21B2 JUMP JUMPDEST DUP5 PUSH1 0x0 ADD DUP4 DUP2 SLOAD DUP2 LT PUSH2 0x219F JUMPI INVALID JUMPDEST SWAP1 PUSH1 0x0 MSTORE PUSH1 0x20 PUSH1 0x0 KECCAK256 SWAP1 PUSH1 0x6 MUL ADD PUSH1 0x4 ADD SLOAD JUMPDEST SWAP1 POP PUSH1 0x0 TIMESTAMP DUP7 PUSH1 0x0 ADD DUP6 DUP2 SLOAD DUP2 LT PUSH2 0x21C6 JUMPI INVALID JUMPDEST SWAP1 PUSH1 0x0 MSTORE PUSH1 0x20 PUSH1 0x0 KECCAK256 SWAP1 PUSH1 0x6 MUL ADD PUSH1 0x5 ADD SLOAD LT PUSH2 0x21E3 JUMPI TIMESTAMP PUSH2 0x2205 JUMP JUMPDEST DUP6 PUSH1 0x0 ADD DUP5 DUP2 SLOAD DUP2 LT PUSH2 0x21F2 JUMPI INVALID JUMPDEST SWAP1 PUSH1 0x0 MSTORE PUSH1 0x20 PUSH1 0x0 KECCAK256 SWAP1 PUSH1 0x6 MUL ADD PUSH1 0x5 ADD SLOAD JUMPDEST SWAP1 POP DUP1 DUP3 LT ISZERO PUSH2 0x225E JUMPI PUSH2 0x225B PUSH2 0x224C PUSH3 0x15180 PUSH2 0x223E PUSH2 0x222F DUP7 DUP7 PUSH2 0x393C SWAP1 SWAP2 SWAP1 PUSH4 0xFFFFFFFF AND JUMP JUMPDEST DUP8 PUSH2 0x386C SWAP1 SWAP2 SWAP1 PUSH4 0xFFFFFFFF AND JUMP JUMPDEST PUSH2 0x38F2 SWAP1 SWAP2 SWAP1 PUSH4 0xFFFFFFFF AND JUMP JUMPDEST DUP7 PUSH2 0x37E4 SWAP1 SWAP2 SWAP1 PUSH4 0xFFFFFFFF AND JUMP JUMPDEST SWAP5 POP JUMPDEST POP POP POP PUSH2 0x22C5 JUMP JUMPDEST DUP3 PUSH1 0x0 ADD DUP2 DUP2 SLOAD DUP2 LT PUSH2 0x2275 JUMPI INVALID JUMPDEST SWAP1 PUSH1 0x0 MSTORE PUSH1 0x20 PUSH1 0x0 KECCAK256 SWAP1 PUSH1 0x6 MUL ADD PUSH1 0x5 ADD SLOAD TIMESTAMP GT ISZERO PUSH2 0x22C4 JUMPI PUSH2 0x22C1 DUP4 PUSH1 0x0 ADD DUP3 DUP2 SLOAD DUP2 LT PUSH2 0x22A0 JUMPI INVALID JUMPDEST SWAP1 PUSH1 0x0 MSTORE PUSH1 0x20 PUSH1 0x0 KECCAK256 SWAP1 PUSH1 0x6 MUL ADD PUSH1 0x3 ADD SLOAD DUP4 PUSH2 0x37E4 SWAP1 SWAP2 SWAP1 PUSH4 0xFFFFFFFF AND JUMP JUMPDEST SWAP2 POP JUMPDEST JUMPDEST JUMPDEST DUP1 DUP1 PUSH1 0x1 ADD SWAP2 POP POP PUSH2 0x207A JUMP JUMPDEST POP DUP1 SWAP3 POP POP POP SWAP2 SWAP1 POP JUMP JUMPDEST PUSH1 0x3 PUSH1 0x0 SWAP1 SLOAD SWAP1 PUSH2 0x100 EXP SWAP1 DIV PUSH20 0xFFFFFFFFFFFFFFFFFFFFFFFFFFFFFFFFFFFFFFFF AND PUSH20 0xFFFFFFFFFFFFFFFFFFFFFFFFFFFFFFFFFFFFFFFF AND CALLER PUSH20 0xFFFFFFFFFFFFFFFFFFFFFFFFFFFFFFFFFFFFFFFF AND EQ PUSH2 0x23A1 JUMPI PUSH1 0x40 MLOAD PUSH32 0x8C379A000000000000000000000000000000000000000000000000000000000 DUP2 MSTORE PUSH1 0x4 ADD DUP1 DUP1 PUSH1 0x20 ADD DUP3 DUP2 SUB DUP3 MSTORE PUSH1 0x13 DUP2 MSTORE PUSH1 0x20 ADD DUP1 PUSH32 0x41646D696E204F6E6C792066756E6374696F6E00000000000000000000000000 DUP2 MSTORE POP PUSH1 0x20 ADD SWAP2 POP POP PUSH1 0x40 MLOAD DUP1 SWAP2 SUB SWAP1 REVERT JUMPDEST PUSH1 0x1 PUSH1 0x3 DUP2 GT ISZERO PUSH2 0x23AE JUMPI INVALID JUMPDEST PUSH1 0xE PUSH1 0x0 SWAP1 SLOAD SWAP1 PUSH2 0x100 EXP SWAP1 DIV PUSH1 0xFF AND PUSH1 0x3 DUP2 GT ISZERO PUSH2 0x23C9 JUMPI INVALID JUMPDEST EQ PUSH2 0x243C JUMPI PUSH1 0x40 MLOAD PUSH32 0x8C379A000000000000000000000000000000000000000000000000000000000 DUP2 MSTORE PUSH1 0x4 ADD DUP1 DUP1 PUSH1 0x20 ADD DUP3 DUP2 SUB DUP3 MSTORE PUSH1 0x15 DUP2 MSTORE PUSH1 0x20 ADD DUP1 PUSH32 0x49434F2069736E27742072756E6E696E67207965740000000000000000000000 DUP2 MSTORE POP PUSH1 0x20 ADD SWAP2 POP POP PUSH1 0x40 MLOAD DUP1 SWAP2 SUB SWAP1 REVERT JUMPDEST PUSH1 0x3 PUSH1 0xE PUSH1 0x0 PUSH2 0x100 EXP DUP2 SLOAD DUP2 PUSH1 0xFF MUL NOT AND SWAP1 DUP4 PUSH1 0x3 DUP2 GT ISZERO PUSH2 0x245B JUMPI INVALID JUMPDEST MUL OR SWAP1 SSTORE POP JUMP JUMPDEST PUSH1 0x0 PUSH2 0x2487 PUSH2 0x2470 DUP4 PUSH2 0x202E JUMP JUMPDEST PUSH2 0x2479 DUP5 PUSH2 0x3746 JUMP JUMPDEST PUSH2 0x37E4 SWAP1 SWAP2 SWAP1 PUSH4 0xFFFFFFFF AND JUMP JUMPDEST SWAP1 POP SWAP2 SWAP1 POP JUMP JUMPDEST PUSH1 0xD PUSH1 0x20 MSTORE DUP1 PUSH1 0x0 MSTORE PUSH1 0x40 PUSH1 0x0 KECCAK256 PUSH1 0x0 SWAP2 POP SWAP1 POP SLOAD DUP2 JUMP JUMPDEST PUSH1 0x60 PUSH1 0x0 PUSH1 0x3 DUP2 GT ISZERO PUSH2 0x24B5 JUMPI INVALID JUMPDEST PUSH1 0xE PUSH1 0x0 SWAP1 SLOAD SWAP1 PUSH2 0x100 EXP SWAP1 DIV PUSH1 0xFF AND PUSH1 0x3 DUP2 GT ISZERO PUSH2 0x24D0 JUMPI INVALID JUMPDEST EQ ISZERO PUSH2 0x2513 JUMPI PUSH1 0x40 MLOAD DUP1 PUSH1 0x40 ADD PUSH1 0x40 MSTORE DUP1 PUSH1 0xB DUP2 MSTORE PUSH1 0x20 ADD PUSH32 0x4E6F742053746172746564000000000000000000000000000000000000000000 DUP2 MSTORE POP SWAP1 POP PUSH2 0x2622 JUMP JUMPDEST PUSH1 0x1 PUSH1 0x3 DUP2 GT ISZERO PUSH2 0x2520 JUMPI INVALID JUMPDEST PUSH1 0xE PUSH1 0x0 SWAP1 SLOAD SWAP1 PUSH2 0x100 EXP SWAP1 DIV PUSH1 0xFF AND PUSH1 0x3 DUP2 GT ISZERO PUSH2 0x253B JUMPI INVALID JUMPDEST EQ ISZERO PUSH2 0x257E JUMPI PUSH1 0x40 MLOAD DUP1 PUSH1 0x40 ADD PUSH1 0x40 MSTORE DUP1 PUSH1 0x7 DUP2 MSTORE PUSH1 0x20 ADD PUSH32 0x52756E6E696E6700000000000000000000000000000000000000000000000000 DUP2 MSTORE POP SWAP1 POP PUSH2 0x2622 JUMP JUMPDEST PUSH1 0x2 PUSH1 0x3 DUP2 GT ISZERO PUSH2 0x258B JUMPI INVALID JUMPDEST PUSH1 0xE PUSH1 0x0 SWAP1 SLOAD SWAP1 PUSH2 0x100 EXP SWAP1 DIV PUSH1 0xFF AND PUSH1 0x3 DUP2 GT ISZERO PUSH2 0x25A6 JUMPI INVALID JUMPDEST EQ ISZERO PUSH2 0x25E9 JUMPI PUSH1 0x40 MLOAD DUP1 PUSH1 0x40 ADD PUSH1 0x40 MSTORE DUP1 PUSH1 0x3 DUP2 MSTORE PUSH1 0x20 ADD PUSH32 0x456E640000000000000000000000000000000000000000000000000000000000 DUP2 MSTORE POP SWAP1 POP PUSH2 0x2622 JUMP JUMPDEST PUSH1 0x40 MLOAD DUP1 PUSH1 0x40 ADD PUSH1 0x40 MSTORE DUP1 PUSH1 0x6 DUP2 MSTORE PUSH1 0x20 ADD PUSH32 0x48616C7465640000000000000000000000000000000000000000000000000000 DUP2 MSTORE POP SWAP1 POP JUMPDEST SWAP1 JUMP JUMPDEST PUSH3 0x15180 DUP2 JUMP JUMPDEST PUSH1 0x0 PUSH1 0x10 PUSH1 0x0 DUP4 PUSH20 0xFFFFFFFFFFFFFFFFFFFFFFFFFFFFFFFFFFFFFFFF AND PUSH20 0xFFFFFFFFFFFFFFFFFFFFFFFFFFFFFFFFFFFFFFFF AND DUP2 MSTORE PUSH1 0x20 ADD SWAP1 DUP2 MSTORE PUSH1 0x20 ADD PUSH1 0x0 KECCAK256 PUSH1 0x2 ADD PUSH1 0x0 SWAP1 SLOAD SWAP1 PUSH2 0x100 EXP SWAP1 DIV PUSH20 0xFFFFFFFFFFFFFFFFFFFFFFFFFFFFFFFFFFFFFFFF AND SWAP1 POP SWAP2 SWAP1 POP JUMP JUMPDEST PUSH1 0x0 PUSH1 0x2 PUSH1 0x3 DUP2 GT ISZERO PUSH2 0x26A7 JUMPI INVALID JUMPDEST PUSH1 0xE PUSH1 0x0 SWAP1 SLOAD SWAP1 PUSH2 0x100 EXP SWAP1 DIV PUSH1 0xFF AND PUSH1 0x3 DUP2 GT ISZERO PUSH2 0x26C2 JUMPI INVALID JUMPDEST EQ PUSH2 0x2735 JUMPI PUSH1 0x40 MLOAD PUSH32 0x8C379A000000000000000000000000000000000000000000000000000000000 DUP2 MSTORE PUSH1 0x4 ADD DUP1 DUP1 PUSH1 0x20 ADD DUP3 DUP2 SUB DUP3 MSTORE PUSH1 0x12 DUP2 MSTORE PUSH1 0x20 ADD DUP1 PUSH32 0x49434F2069736E2774206F766572207965740000000000000000000000000000 DUP2 MSTORE POP PUSH1 0x20 ADD SWAP2 POP POP PUSH1 0x40 MLOAD DUP1 SWAP2 SUB SWAP1 REVERT JUMPDEST PUSH1 0x0 PUSH1 0x5 PUSH1 0x0 SWAP1 SLOAD SWAP1 PUSH2 0x100 EXP SWAP1 DIV PUSH20 0xFFFFFFFFFFFFFFFFFFFFFFFFFFFFFFFFFFFFFFFF AND PUSH20 0xFFFFFFFFFFFFFFFFFFFFFFFFFFFFFFFFFFFFFFFF AND PUSH4 0x70A08231 ADDRESS PUSH1 0x40 MLOAD DUP3 PUSH4 0xFFFFFFFF AND PUSH1 0xE0 SHL DUP2 MSTORE PUSH1 0x4 ADD DUP1 DUP3 PUSH20 0xFFFFFFFFFFFFFFFFFFFFFFFFFFFFFFFFFFFFFFFF AND DUP2 MSTORE PUSH1 0x20 ADD SWAP2 POP POP PUSH1 0x20 PUSH1 0x40 MLOAD DUP1 DUP4 SUB DUP2 DUP7 DUP1 EXTCODESIZE ISZERO DUP1 ISZERO PUSH2 0x27C0 JUMPI PUSH1 0x0 DUP1 REVERT JUMPDEST POP GAS STATICCALL ISZERO DUP1 ISZERO PUSH2 0x27D4 JUMPI RETURNDATASIZE PUSH1 0x0 DUP1 RETURNDATACOPY RETURNDATASIZE PUSH1 0x0 REVERT JUMPDEST POP POP POP POP PUSH1 0x40 MLOAD RETURNDATASIZE PUSH1 0x20 DUP2 LT ISZERO PUSH2 0x27EA JUMPI PUSH1 0x0 DUP1 REVERT JUMPDEST DUP2 ADD SWAP1 DUP1 DUP1 MLOAD SWAP1 PUSH1 0x20 ADD SWAP1 SWAP3 SWAP2 SWAP1 POP POP POP SWAP1 POP PUSH1 0x0 PUSH1 0x5 PUSH1 0x0 SWAP1 SLOAD SWAP1 PUSH2 0x100 EXP SWAP1 DIV PUSH20 0xFFFFFFFFFFFFFFFFFFFFFFFFFFFFFFFFFFFFFFFF AND PUSH20 0xFFFFFFFFFFFFFFFFFFFFFFFFFFFFFFFFFFFFFFFF AND PUSH4 0xA9059CBB PUSH1 0x0 DUP5 PUSH1 0x40 MLOAD DUP4 PUSH4 0xFFFFFFFF AND PUSH1 0xE0 SHL DUP2 MSTORE PUSH1 0x4 ADD DUP1 DUP4 PUSH20 0xFFFFFFFFFFFFFFFFFFFFFFFFFFFFFFFFFFFFFFFF AND DUP2 MSTORE PUSH1 0x20 ADD DUP3 DUP2 MSTORE PUSH1 0x20 ADD SWAP3 POP POP POP PUSH1 0x20 PUSH1 0x40 MLOAD DUP1 DUP4 SUB DUP2 PUSH1 0x0 DUP8 DUP1 EXTCODESIZE ISZERO DUP1 ISZERO PUSH2 0x2893 JUMPI PUSH1 0x0 DUP1 REVERT JUMPDEST POP GAS CALL ISZERO DUP1 ISZERO PUSH2 0x28A7 JUMPI RETURNDATASIZE PUSH1 0x0 DUP1 RETURNDATACOPY RETURNDATASIZE PUSH1 0x0 REVERT JUMPDEST POP POP POP POP PUSH1 0x40 MLOAD RETURNDATASIZE PUSH1 0x20 DUP2 LT ISZERO PUSH2 0x28BD JUMPI PUSH1 0x0 DUP1 REVERT JUMPDEST DUP2 ADD SWAP1 DUP1 DUP1 MLOAD SWAP1 PUSH1 0x20 ADD SWAP1 SWAP3 SWAP2 SWAP1 POP POP POP SWAP1 POP DUP1 PUSH2 0x2943 JUMPI PUSH1 0x40 MLOAD PUSH32 0x8C379A000000000000000000000000000000000000000000000000000000000 DUP2 MSTORE PUSH1 0x4 ADD DUP1 DUP1 PUSH1 0x20 ADD DUP3 DUP2 SUB DUP3 MSTORE PUSH1 0x1F DUP2 MSTORE PUSH1 0x20 ADD DUP1 PUSH32 0x4661696C656420746F206275726E2072656D61696E696E6720746F6B656E7300 DUP2 MSTORE POP PUSH1 0x20 ADD SWAP2 POP POP PUSH1 0x40 MLOAD DUP1 SWAP2 SUB SWAP1 REVERT JUMPDEST PUSH32 0xFE9E0B0C1E3E9216717D5F66D10BC310B12C366417E150B4B1AF9FB9620BCA91 PUSH1 0x0 DUP4 TIMESTAMP PUSH1 0x40 MLOAD DUP1 DUP5 PUSH20 0xFFFFFFFFFFFFFFFFFFFFFFFFFFFFFFFFFFFFFFFF AND DUP2 MSTORE PUSH1 0x20 ADD DUP4 DUP2 MSTORE PUSH1 0x20 ADD DUP3 DUP2 MSTORE PUSH1 0x20 ADD SWAP4 POP POP POP POP PUSH1 0x40 MLOAD DUP1 SWAP2 SUB SWAP1 LOG1 PUSH1 0x1 SWAP3 POP POP POP SWAP1 JUMP JUMPDEST PUSH1 0x0 PUSH1 0x10 PUSH1 0x0 DUP4 PUSH20 0xFFFFFFFFFFFFFFFFFFFFFFFFFFFFFFFFFFFFFFFF AND PUSH20 0xFFFFFFFFFFFFFFFFFFFFFFFFFFFFFFFFFFFFFFFF AND DUP2 MSTORE PUSH1 0x20 ADD SWAP1 DUP2 MSTORE PUSH1 0x20 ADD PUSH1 0x0 KECCAK256 PUSH1 0x7 ADD SLOAD SWAP1 POP SWAP2 SWAP1 POP JUMP JUMPDEST PUSH1 0x5 DUP2 JUMP JUMPDEST PUSH1 0x0 DUP1 PUSH1 0x0 PUSH2 0x2A09 DUP6 PUSH2 0x3303 JUMP JUMPDEST SWAP3 POP PUSH1 0x3 DUP6 PUSH1 0xFF AND LT ISZERO PUSH2 0x2A78 JUMPI PUSH2 0x2A71 PUSH1 0xF DUP7 PUSH1 0xFF AND DUP2 SLOAD DUP2 LT PUSH2 0x2A2A JUMPI INVALID JUMPDEST SWAP1 PUSH1 0x0 MSTORE PUSH1 0x20 PUSH1 0x0 KECCAK256 SWAP1 PUSH1 0x2 MUL ADD PUSH1 0x0 ADD SLOAD PUSH2 0x2A63 PUSH2 0x3E8 PUSH2 0x2A55 DUP8 DUP10 PUSH2 0x386C SWAP1 SWAP2 SWAP1 PUSH4 0xFFFFFFFF AND JUMP JUMPDEST PUSH2 0x38F2 SWAP1 SWAP2 SWAP1 PUSH4 0xFFFFFFFF AND JUMP JUMPDEST PUSH2 0x386C SWAP1 SWAP2 SWAP1 PUSH4 0xFFFFFFFF AND JUMP JUMPDEST SWAP2 POP PUSH2 0x2B0D JUMP JUMPDEST PUSH1 0x6 DUP6 PUSH1 0xFF AND LT ISZERO PUSH2 0x2B0C JUMPI PUSH1 0x0 JUMPDEST PUSH1 0xF DUP7 PUSH1 0xFF AND DUP2 SLOAD DUP2 LT PUSH2 0x2A97 JUMPI INVALID JUMPDEST SWAP1 PUSH1 0x0 MSTORE PUSH1 0x20 PUSH1 0x0 KECCAK256 SWAP1 PUSH1 0x2 MUL ADD PUSH1 0x0 ADD SLOAD DUP2 LT ISZERO PUSH2 0x2B0A JUMPI PUSH2 0x2AFB PUSH2 0x2AEC PUSH2 0x3E8 PUSH2 0x2ADE DUP8 PUSH2 0x2AD0 DUP9 DUP12 PUSH2 0x37E4 SWAP1 SWAP2 SWAP1 PUSH4 0xFFFFFFFF AND JUMP JUMPDEST PUSH2 0x386C SWAP1 SWAP2 SWAP1 PUSH4 0xFFFFFFFF AND JUMP JUMPDEST PUSH2 0x38F2 SWAP1 SWAP2 SWAP1 PUSH4 0xFFFFFFFF AND JUMP JUMPDEST DUP5 PUSH2 0x37E4 SWAP1 SWAP2 SWAP1 PUSH4 0xFFFFFFFF AND JUMP JUMPDEST SWAP3 POP DUP1 DUP1 PUSH1 0x1 ADD SWAP2 POP POP PUSH2 0x2A87 JUMP JUMPDEST POP JUMPDEST JUMPDEST PUSH2 0x2B56 PUSH2 0x2B47 PUSH3 0x15180 PUSH1 0xF DUP9 PUSH1 0xFF AND DUP2 SLOAD DUP2 LT PUSH2 0x2B27 JUMPI INVALID JUMPDEST SWAP1 PUSH1 0x0 MSTORE PUSH1 0x20 PUSH1 0x0 KECCAK256 SWAP1 PUSH1 0x2 MUL ADD PUSH1 0x0 ADD SLOAD PUSH2 0x386C SWAP1 SWAP2 SWAP1 PUSH4 0xFFFFFFFF AND JUMP JUMPDEST TIMESTAMP PUSH2 0x37E4 SWAP1 SWAP2 SWAP1 PUSH4 0xFFFFFFFF AND JUMP JUMPDEST SWAP1 POP SWAP3 POP SWAP3 POP SWAP3 JUMP JUMPDEST PUSH1 0x0 DUP2 DUP2 SLOAD DUP2 LT PUSH2 0x2B6C JUMPI INVALID JUMPDEST SWAP1 PUSH1 0x0 MSTORE PUSH1 0x20 PUSH1 0x0 KECCAK256 ADD PUSH1 0x0 SWAP2 POP SWAP1 POP SLOAD DUP2 JUMP JUMPDEST PUSH1 0x0 PUSH1 0x5 PUSH1 0x0 SWAP1 SLOAD SWAP1 PUSH2 0x100 EXP SWAP1 DIV PUSH20 0xFFFFFFFFFFFFFFFFFFFFFFFFFFFFFFFFFFFFFFFF AND PUSH20 0xFFFFFFFFFFFFFFFFFFFFFFFFFFFFFFFFFFFFFFFF AND PUSH4 0x70A08231 ADDRESS PUSH1 0x40 MLOAD DUP3 PUSH4 0xFFFFFFFF AND PUSH1 0xE0 SHL DUP2 MSTORE PUSH1 0x4 ADD DUP1 DUP3 PUSH20 0xFFFFFFFFFFFFFFFFFFFFFFFFFFFFFFFFFFFFFFFF AND DUP2 MSTORE PUSH1 0x20 ADD SWAP2 POP POP PUSH1 0x20 PUSH1 0x40 MLOAD DUP1 DUP4 SUB DUP2 DUP7 DUP1 EXTCODESIZE ISZERO DUP1 ISZERO PUSH2 0x2C0B JUMPI PUSH1 0x0 DUP1 REVERT JUMPDEST POP GAS STATICCALL ISZERO DUP1 ISZERO PUSH2 0x2C1F JUMPI RETURNDATASIZE PUSH1 0x0 DUP1 RETURNDATACOPY RETURNDATASIZE PUSH1 0x0 REVERT JUMPDEST POP POP POP POP PUSH1 0x40 MLOAD RETURNDATASIZE PUSH1 0x20 DUP2 LT ISZERO PUSH2 0x2C35 JUMPI PUSH1 0x0 DUP1 REVERT JUMPDEST DUP2 ADD SWAP1 DUP1 DUP1 MLOAD SWAP1 PUSH1 0x20 ADD SWAP1 SWAP3 SWAP2 SWAP1 POP POP POP SWAP1 POP SWAP1 JUMP JUMPDEST PUSH1 0x0 PUSH1 0x5 PUSH1 0x0 SWAP1 SLOAD SWAP1 PUSH2 0x100 EXP SWAP1 DIV PUSH20 0xFFFFFFFFFFFFFFFFFFFFFFFFFFFFFFFFFFFFFFFF AND PUSH20 0xFFFFFFFFFFFFFFFFFFFFFFFFFFFFFFFFFFFFFFFF AND PUSH4 0x70A08231 DUP4 PUSH1 0x40 MLOAD DUP3 PUSH4 0xFFFFFFFF AND PUSH1 0xE0 SHL DUP2 MSTORE PUSH1 0x4 ADD DUP1 DUP3 PUSH20 0xFFFFFFFFFFFFFFFFFFFFFFFFFFFFFFFFFFFFFFFF AND DUP2 MSTORE PUSH1 0x20 ADD SWAP2 POP POP PUSH1 0x20 PUSH1 0x40 MLOAD DUP1 DUP4 SUB DUP2 DUP7 DUP1 EXTCODESIZE ISZERO DUP1 ISZERO PUSH2 0x2CD6 JUMPI PUSH1 0x0 DUP1 REVERT JUMPDEST POP GAS STATICCALL ISZERO DUP1 ISZERO PUSH2 0x2CEA JUMPI RETURNDATASIZE PUSH1 0x0 DUP1 RETURNDATACOPY RETURNDATASIZE PUSH1 0x0 REVERT JUMPDEST POP POP POP POP PUSH1 0x40 MLOAD RETURNDATASIZE PUSH1 0x20 DUP2 LT ISZERO PUSH2 0x2D00 JUMPI PUSH1 0x0 DUP1 REVERT JUMPDEST DUP2 ADD SWAP1 DUP1 DUP1 MLOAD SWAP1 PUSH1 0x20 ADD SWAP1 SWAP3 SWAP2 SWAP1 POP POP POP SWAP1 POP SWAP2 SWAP1 POP JUMP JUMPDEST PUSH1 0x2 SLOAD DUP2 JUMP JUMPDEST PUSH1 0x0 PUSH2 0x2DB7 PUSH1 0x10 PUSH1 0x0 DUP5 PUSH20 0xFFFFFFFFFFFFFFFFFFFFFFFFFFFFFFFFFFFFFFFF AND PUSH20 0xFFFFFFFFFFFFFFFFFFFFFFFFFFFFFFFFFFFFFFFF AND DUP2 MSTORE PUSH1 0x20 ADD SWAP1 DUP2 MSTORE PUSH1 0x20 ADD PUSH1 0x0 KECCAK256 PUSH1 0x6 ADD SLOAD PUSH1 0x10 PUSH1 0x0 DUP6 PUSH20 0xFFFFFFFFFFFFFFFFFFFFFFFFFFFFFFFFFFFFFFFF AND PUSH20 0xFFFFFFFFFFFFFFFFFFFFFFFFFFFFFFFFFFFFFFFF AND DUP2 MSTORE PUSH1 0x20 ADD SWAP1 DUP2 MSTORE PUSH1 0x20 ADD PUSH1 0x0 KECCAK256 PUSH1 0x7 ADD SLOAD PUSH2 0x393C SWAP1 SWAP2 SWAP1 PUSH4 0xFFFFFFFF AND JUMP JUMPDEST SWAP1 POP SWAP2 SWAP1 POP JUMP JUMPDEST PUSH1 0x0 SELFBALANCE SWAP1 POP SWAP1 JUMP JUMPDEST PUSH1 0xC SLOAD DUP2 JUMP JUMPDEST PUSH1 0x0 DUP1 PUSH1 0x0 SWAP1 POP JUMPDEST PUSH1 0x10 PUSH1 0x0 DUP5 PUSH20 0xFFFFFFFFFFFFFFFFFFFFFFFFFFFFFFFFFFFFFFFF AND PUSH20 0xFFFFFFFFFFFFFFFFFFFFFFFFFFFFFFFFFFFFFFFF AND DUP2 MSTORE PUSH1 0x20 ADD SWAP1 DUP2 MSTORE PUSH1 0x20 ADD PUSH1 0x0 KECCAK256 PUSH1 0x0 ADD DUP1 SLOAD SWAP1 POP DUP2 LT ISZERO PUSH2 0x2EA1 JUMPI PUSH2 0x2E92 PUSH1 0x10 PUSH1 0x0 DUP6 PUSH20 0xFFFFFFFFFFFFFFFFFFFFFFFFFFFFFFFFFFFFFFFF AND PUSH20 0xFFFFFFFFFFFFFFFFFFFFFFFFFFFFFFFFFFFFFFFF AND DUP2 MSTORE PUSH1 0x20 ADD SWAP1 DUP2 MSTORE PUSH1 0x20 ADD PUSH1 0x0 KECCAK256 PUSH1 0x0 ADD DUP3 DUP2 SLOAD DUP2 LT PUSH2 0x2E71 JUMPI INVALID JUMPDEST SWAP1 PUSH1 0x0 MSTORE PUSH1 0x20 PUSH1 0x0 KECCAK256 SWAP1 PUSH1 0x6 MUL ADD PUSH1 0x2 ADD SLOAD DUP4 PUSH2 0x37E4 SWAP1 SWAP2 SWAP1 PUSH4 0xFFFFFFFF AND JUMP JUMPDEST SWAP2 POP DUP1 DUP1 PUSH1 0x1 ADD SWAP2 POP POP PUSH2 0x2DD4 JUMP JUMPDEST POP SWAP2 SWAP1 POP JUMP JUMPDEST PUSH1 0x3 PUSH1 0x0 SWAP1 SLOAD SWAP1 PUSH2 0x100 EXP SWAP1 DIV PUSH20 0xFFFFFFFFFFFFFFFFFFFFFFFFFFFFFFFFFFFFFFFF AND PUSH20 0xFFFFFFFFFFFFFFFFFFFFFFFFFFFFFFFFFFFFFFFF AND CALLER PUSH20 0xFFFFFFFFFFFFFFFFFFFFFFFFFFFFFFFFFFFFFFFF AND EQ PUSH2 0x2F6A JUMPI PUSH1 0x40 MLOAD PUSH32 0x8C379A000000000000000000000000000000000000000000000000000000000 DUP2 MSTORE PUSH1 0x4 ADD DUP1 DUP1 PUSH1 0x20 ADD DUP3 DUP2 SUB DUP3 MSTORE PUSH1 0x13 DUP2 MSTORE PUSH1 0x20 ADD DUP1 PUSH32 0x41646D696E204F6E6C792066756E6374696F6E00000000000000000000000000 DUP2 MSTORE POP PUSH1 0x20 ADD SWAP2 POP POP PUSH1 0x40 MLOAD DUP1 SWAP2 SUB SWAP1 REVERT JUMPDEST PUSH1 0x0 PUSH1 0x3 DUP2 GT ISZERO PUSH2 0x2F77 JUMPI INVALID JUMPDEST PUSH1 0xE PUSH1 0x0 SWAP1 SLOAD SWAP1 PUSH2 0x100 EXP SWAP1 DIV PUSH1 0xFF AND PUSH1 0x3 DUP2 GT ISZERO PUSH2 0x2F92 JUMPI INVALID JUMPDEST EQ PUSH2 0x3005 JUMPI PUSH1 0x40 MLOAD PUSH32 0x8C379A000000000000000000000000000000000000000000000000000000000 DUP2 MSTORE PUSH1 0x4 ADD DUP1 DUP1 PUSH1 0x20 ADD DUP3 DUP2 SUB DUP3 MSTORE PUSH1 0x19 DUP2 MSTORE PUSH1 0x20 ADD DUP1 PUSH32 0x49434F2069736E277420696E206265666F726520737461746500000000000000 DUP2 MSTORE POP PUSH1 0x20 ADD SWAP2 POP POP PUSH1 0x40 MLOAD DUP1 SWAP2 SUB SWAP1 REVERT JUMPDEST TIMESTAMP PUSH1 0xB DUP2 SWAP1 SSTORE POP PUSH4 0x1E13380 PUSH1 0xB SLOAD ADD PUSH1 0xC DUP2 SWAP1 SSTORE POP PUSH1 0x1 PUSH1 0xE PUSH1 0x0 PUSH2 0x100 EXP DUP2 SLOAD DUP2 PUSH1 0xFF MUL NOT AND SWAP1 DUP4 PUSH1 0x3 DUP2 GT ISZERO PUSH2 0x303A JUMPI INVALID JUMPDEST MUL OR SWAP1 SSTORE POP JUMP JUMPDEST PUSH1 0x6 SLOAD DUP2 JUMP JUMPDEST PUSH1 0x1 SLOAD DUP2 JUMP JUMPDEST PUSH1 0x9 SLOAD DUP2 JUMP JUMPDEST PUSH1 0x3 PUSH1 0x0 SWAP1 SLOAD SWAP1 PUSH2 0x100 EXP SWAP1 DIV PUSH20 0xFFFFFFFFFFFFFFFFFFFFFFFFFFFFFFFFFFFFFFFF AND PUSH20 0xFFFFFFFFFFFFFFFFFFFFFFFFFFFFFFFFFFFFFFFF AND CALLER PUSH20 0xFFFFFFFFFFFFFFFFFFFFFFFFFFFFFFFFFFFFFFFF AND EQ PUSH2 0x3116 JUMPI PUSH1 0x40 MLOAD PUSH32 0x8C379A000000000000000000000000000000000000000000000000000000000 DUP2 MSTORE PUSH1 0x4 ADD DUP1 DUP1 PUSH1 0x20 ADD DUP3 DUP2 SUB DUP3 MSTORE PUSH1 0x13 DUP2 MSTORE PUSH1 0x20 ADD DUP1 PUSH32 0x41646D696E204F6E6C792066756E6374696F6E00000000000000000000000000 DUP2 MSTORE POP PUSH1 0x20 ADD SWAP2 POP POP PUSH1 0x40 MLOAD DUP1 SWAP2 SUB SWAP1 REVERT JUMPDEST DUP1 PUSH1 0x3 PUSH1 0x0 PUSH2 0x100 EXP DUP2 SLOAD DUP2 PUSH20 0xFFFFFFFFFFFFFFFFFFFFFFFFFFFFFFFFFFFFFFFF MUL NOT AND SWAP1 DUP4 PUSH20 0xFFFFFFFFFFFFFFFFFFFFFFFFFFFFFFFFFFFFFFFF AND MUL OR SWAP1 SSTORE POP POP JUMP JUMPDEST PUSH1 0x12 PUSH1 0x0 SWAP1 SLOAD SWAP1 PUSH2 0x100 EXP SWAP1 DIV PUSH20 0xFFFFFFFFFFFFFFFFFFFFFFFFFFFFFFFFFFFFFFFF AND DUP2 JUMP JUMPDEST PUSH1 0x3 PUSH1 0x0 SWAP1 SLOAD SWAP1 PUSH2 0x100 EXP SWAP1 DIV PUSH20 0xFFFFFFFFFFFFFFFFFFFFFFFFFFFFFFFFFFFFFFFF AND PUSH20 0xFFFFFFFFFFFFFFFFFFFFFFFFFFFFFFFFFFFFFFFF AND CALLER PUSH20 0xFFFFFFFFFFFFFFFFFFFFFFFFFFFFFFFFFFFFFFFF AND EQ PUSH2 0x3243 JUMPI PUSH1 0x40 MLOAD PUSH32 0x8C379A000000000000000000000000000000000000000000000000000000000 DUP2 MSTORE PUSH1 0x4 ADD DUP1 DUP1 PUSH1 0x20 ADD DUP3 DUP2 SUB DUP3 MSTORE PUSH1 0x13 DUP2 MSTORE PUSH1 0x20 ADD DUP1 PUSH32 0x41646D696E204F6E6C792066756E6374696F6E00000000000000000000000000 DUP2 MSTORE POP PUSH1 0x20 ADD SWAP2 POP POP PUSH1 0x40 MLOAD DUP1 SWAP2 SUB SWAP1 REVERT JUMPDEST PUSH1 0x3 DUP1 DUP2 GT ISZERO PUSH2 0x324F JUMPI INVALID JUMPDEST PUSH1 0xE PUSH1 0x0 SWAP1 SLOAD SWAP1 PUSH2 0x100 EXP SWAP1 DIV PUSH1 0xFF AND PUSH1 0x3 DUP2 GT ISZERO PUSH2 0x326A JUMPI INVALID JUMPDEST EQ PUSH2 0x32DD JUMPI PUSH1 0x40 MLOAD PUSH32 0x8C379A000000000000000000000000000000000000000000000000000000000 DUP2 MSTORE PUSH1 0x4 ADD DUP1 DUP1 PUSH1 0x20 ADD DUP3 DUP2 SUB DUP3 MSTORE PUSH1 0x1A DUP2 MSTORE PUSH1 0x20 ADD DUP1 PUSH32 0x49434F2053746174652069736E27742068616C74656420796574000000000000 DUP2 MSTORE POP PUSH1 0x20 ADD SWAP2 POP POP PUSH1 0x40 MLOAD DUP1 SWAP2 SUB SWAP1 REVERT JUMPDEST PUSH1 0x1 PUSH1 0xE PUSH1 0x0 PUSH2 0x100 EXP DUP2 SLOAD DUP2 PUSH1 0xFF MUL NOT AND SWAP1 DUP4 PUSH1 0x3 DUP2 GT ISZERO PUSH2 0x32FC JUMPI INVALID JUMPDEST MUL OR SWAP1 SSTORE POP JUMP JUMPDEST PUSH1 0x0 PUSH1 0x11 SLOAD TIMESTAMP GT ISZERO PUSH2 0x3386 JUMPI PUSH2 0x337F PUSH2 0x334F PUSH3 0x15180 PUSH2 0x3341 PUSH2 0x3331 PUSH1 0x11 SLOAD TIMESTAMP PUSH2 0x393C SWAP1 SWAP2 SWAP1 PUSH4 0xFFFFFFFF AND JUMP JUMPDEST PUSH1 0x5 PUSH2 0x386C SWAP1 SWAP2 SWAP1 PUSH4 0xFFFFFFFF AND JUMP JUMPDEST PUSH2 0x38F2 SWAP1 SWAP2 SWAP1 PUSH4 0xFFFFFFFF AND JUMP JUMPDEST PUSH1 0xF DUP5 PUSH1 0xFF AND DUP2 SLOAD DUP2 LT PUSH2 0x335F JUMPI INVALID JUMPDEST SWAP1 PUSH1 0x0 MSTORE PUSH1 0x20 PUSH1 0x0 KECCAK256 SWAP1 PUSH1 0x2 MUL ADD PUSH1 0x1 ADD SLOAD PUSH2 0x37E4 SWAP1 SWAP2 SWAP1 PUSH4 0xFFFFFFFF AND JUMP JUMPDEST SWAP1 POP PUSH2 0x33AB JUMP JUMPDEST PUSH1 0xF DUP3 PUSH1 0xFF AND DUP2 SLOAD DUP2 LT PUSH2 0x3396 JUMPI INVALID JUMPDEST SWAP1 PUSH1 0x0 MSTORE PUSH1 0x20 PUSH1 0x0 KECCAK256 SWAP1 PUSH1 0x2 MUL ADD PUSH1 0x1 ADD SLOAD SWAP1 POP JUMPDEST SWAP2 SWAP1 POP JUMP JUMPDEST PUSH1 0xB SLOAD DUP2 JUMP JUMPDEST PUSH1 0x0 PUSH1 0x10 PUSH1 0x0 DUP4 PUSH20 0xFFFFFFFFFFFFFFFFFFFFFFFFFFFFFFFFFFFFFFFF AND PUSH20 0xFFFFFFFFFFFFFFFFFFFFFFFFFFFFFFFFFFFFFFFF AND DUP2 MSTORE PUSH1 0x20 ADD SWAP1 DUP2 MSTORE PUSH1 0x20 ADD PUSH1 0x0 KECCAK256 PUSH1 0x0 ADD DUP1 SLOAD SWAP1 POP SWAP1 POP SWAP2 SWAP1 POP JUMP JUMPDEST PUSH1 0x4 PUSH1 0x0 SWAP1 SLOAD SWAP1 PUSH2 0x100 EXP SWAP1 DIV PUSH20 0xFFFFFFFFFFFFFFFFFFFFFFFFFFFFFFFFFFFFFFFF AND DUP2 JUMP JUMPDEST PUSH1 0x0 DUP1 PUSH1 0xF DUP4 PUSH1 0xFF AND DUP2 SLOAD DUP2 LT PUSH2 0x343E JUMPI INVALID JUMPDEST SWAP1 PUSH1 0x0 MSTORE PUSH1 0x20 PUSH1 0x0 KECCAK256 SWAP1 PUSH1 0x2 MUL ADD PUSH1 0x0 ADD SLOAD SWAP2 POP PUSH1 0xF DUP4 PUSH1 0xFF AND DUP2 SLOAD DUP2 LT PUSH2 0x3462 JUMPI INVALID JUMPDEST SWAP1 PUSH1 0x0 MSTORE PUSH1 0x20 PUSH1 0x0 KECCAK256 SWAP1 PUSH1 0x2 MUL ADD PUSH1 0x1 ADD SLOAD SWAP1 POP SWAP2 POP SWAP2 JUMP JUMPDEST PUSH1 0xE PUSH1 0x0 SWAP1 SLOAD SWAP1 PUSH2 0x100 EXP SWAP1 DIV PUSH1 0xFF AND DUP2 JUMP JUMPDEST PUSH1 0x0 DUP1 PUSH1 0x0 DUP1 PUSH1 0x0 DUP1 PUSH1 0x0 PUSH1 0x10 PUSH1 0x0 DUP11 PUSH20 0xFFFFFFFFFFFFFFFFFFFFFFFFFFFFFFFFFFFFFFFF AND PUSH20 0xFFFFFFFFFFFFFFFFFFFFFFFFFFFFFFFFFFFFFFFF AND DUP2 MSTORE PUSH1 0x20 ADD SWAP1 DUP2 MSTORE PUSH1 0x20 ADD PUSH1 0x0 KECCAK256 SWAP1 POP DUP1 PUSH1 0x0 ADD DUP9 DUP2 SLOAD DUP2 LT PUSH2 0x34E9 JUMPI INVALID JUMPDEST SWAP1 PUSH1 0x0 MSTORE PUSH1 0x20 PUSH1 0x0 KECCAK256 SWAP1 PUSH1 0x6 MUL ADD PUSH1 0x0 ADD PUSH1 0x0 SWAP1 SLOAD SWAP1 PUSH2 0x100 EXP SWAP1 DIV PUSH1 0xFF AND SWAP7 POP DUP1 PUSH1 0x0 ADD DUP9 DUP2 SLOAD DUP2 LT PUSH2 0x3519 JUMPI INVALID JUMPDEST SWAP1 PUSH1 0x0 MSTORE PUSH1 0x20 PUSH1 0x0 KECCAK256 SWAP1 PUSH1 0x6 MUL ADD PUSH1 0x1 ADD SLOAD SWAP6 POP DUP1 PUSH1 0x0 ADD DUP9 DUP2 SLOAD DUP2 LT PUSH2 0x353C JUMPI INVALID JUMPDEST SWAP1 PUSH1 0x0 MSTORE PUSH1 0x20 PUSH1 0x0 KECCAK256 SWAP1 PUSH1 0x6 MUL ADD PUSH1 0x2 ADD SLOAD SWAP5 POP DUP1 PUSH1 0x0 ADD DUP9 DUP2 SLOAD DUP2 LT PUSH2 0x355F JUMPI INVALID JUMPDEST SWAP1 PUSH1 0x0 MSTORE PUSH1 0x20 PUSH1 0x0 KECCAK256 SWAP1 PUSH1 0x6 MUL ADD PUSH1 0x3 ADD SLOAD SWAP4 POP DUP1 PUSH1 0x0 ADD DUP9 DUP2 SLOAD DUP2 LT PUSH2 0x3582 JUMPI INVALID JUMPDEST SWAP1 PUSH1 0x0 MSTORE PUSH1 0x20 PUSH1 0x0 KECCAK256 SWAP1 PUSH1 0x6 MUL ADD PUSH1 0x4 ADD SLOAD SWAP3 POP DUP1 PUSH1 0x0 ADD DUP9 DUP2 SLOAD DUP2 LT PUSH2 0x35A5 JUMPI INVALID JUMPDEST SWAP1 PUSH1 0x0 MSTORE PUSH1 0x20 PUSH1 0x0 KECCAK256 SWAP1 PUSH1 0x6 MUL ADD PUSH1 0x5 ADD SLOAD SWAP2 POP POP SWAP3 SWAP6 POP SWAP3 SWAP6 POP SWAP3 SWAP6 JUMP JUMPDEST PUSH1 0x11 SLOAD DUP2 JUMP JUMPDEST PUSH1 0x8 SLOAD DUP2 JUMP JUMPDEST PUSH1 0x0 PUSH1 0x10 PUSH1 0x0 DUP4 PUSH20 0xFFFFFFFFFFFFFFFFFFFFFFFFFFFFFFFFFFFFFFFF AND PUSH20 0xFFFFFFFFFFFFFFFFFFFFFFFFFFFFFFFFFFFFFFFF AND DUP2 MSTORE PUSH1 0x20 ADD SWAP1 DUP2 MSTORE PUSH1 0x20 ADD PUSH1 0x0 KECCAK256 PUSH1 0x1 ADD SLOAD SWAP1 POP SWAP2 SWAP1 POP JUMP JUMPDEST PUSH1 0x1 PUSH1 0x3 DUP2 GT ISZERO PUSH2 0x3629 JUMPI INVALID JUMPDEST PUSH1 0xE PUSH1 0x0 SWAP1 SLOAD SWAP1 PUSH2 0x100 EXP SWAP1 DIV PUSH1 0xFF AND PUSH1 0x3 DUP2 GT ISZERO PUSH2 0x3644 JUMPI INVALID JUMPDEST EQ PUSH2 0x36B7 JUMPI PUSH1 0x40 MLOAD PUSH32 0x8C379A000000000000000000000000000000000000000000000000000000000 DUP2 MSTORE PUSH1 0x4 ADD DUP1 DUP1 PUSH1 0x20 ADD DUP3 DUP2 SUB DUP3 MSTORE PUSH1 0x1E DUP2 MSTORE PUSH1 0x20 ADD DUP1 PUSH32 0x49434F2053686F756C6420626520696E2052756E6E696E672053746174650000 DUP2 MSTORE POP PUSH1 0x20 ADD SWAP2 POP POP PUSH1 0x40 MLOAD DUP1 SWAP2 SUB SWAP1 REVERT JUMPDEST PUSH1 0xC SLOAD TIMESTAMP GT DUP1 PUSH2 0x36CB JUMPI POP PUSH1 0x7 SLOAD PUSH1 0x8 SLOAD LT ISZERO JUMPDEST PUSH2 0x3720 JUMPI PUSH1 0x40 MLOAD PUSH32 0x8C379A000000000000000000000000000000000000000000000000000000000 DUP2 MSTORE PUSH1 0x4 ADD DUP1 DUP1 PUSH1 0x20 ADD DUP3 DUP2 SUB DUP3 MSTORE PUSH1 0x24 DUP2 MSTORE PUSH1 0x20 ADD DUP1 PUSH2 0x3B58 PUSH1 0x24 SWAP2 CODECOPY PUSH1 0x40 ADD SWAP2 POP POP PUSH1 0x40 MLOAD DUP1 SWAP2 SUB SWAP1 REVERT JUMPDEST PUSH1 0x2 PUSH1 0xE PUSH1 0x0 PUSH2 0x100 EXP DUP2 SLOAD DUP2 PUSH1 0xFF MUL NOT AND SWAP1 DUP4 PUSH1 0x3 DUP2 GT ISZERO PUSH2 0x373F JUMPI INVALID JUMPDEST MUL OR SWAP1 SSTORE POP JUMP JUMPDEST PUSH1 0x0 PUSH1 0x10 PUSH1 0x0 DUP4 PUSH20 0xFFFFFFFFFFFFFFFFFFFFFFFFFFFFFFFFFFFFFFFF AND PUSH20 0xFFFFFFFFFFFFFFFFFFFFFFFFFFFFFFFFFFFFFFFF AND DUP2 MSTORE PUSH1 0x20 ADD SWAP1 DUP2 MSTORE PUSH1 0x20 ADD PUSH1 0x0 KECCAK256 PUSH1 0x6 ADD SLOAD SWAP1 POP SWAP2 SWAP1 POP JUMP JUMPDEST PUSH1 0x3 PUSH1 0x0 SWAP1 SLOAD SWAP1 PUSH2 0x100 EXP SWAP1 DIV PUSH20 0xFFFFFFFFFFFFFFFFFFFFFFFFFFFFFFFFFFFFFFFF AND DUP2 JUMP JUMPDEST PUSH1 0x7 SLOAD DUP2 JUMP JUMPDEST PUSH1 0x5 PUSH1 0x0 SWAP1 SLOAD SWAP1 PUSH2 0x100 EXP SWAP1 DIV PUSH20 0xFFFFFFFFFFFFFFFFFFFFFFFFFFFFFFFFFFFFFFFF AND DUP2 JUMP JUMPDEST PUSH1 0x0 DUP1 DUP3 DUP5 ADD SWAP1 POP DUP4 DUP2 LT ISZERO PUSH2 0x3862 JUMPI PUSH1 0x40 MLOAD PUSH32 0x8C379A000000000000000000000000000000000000000000000000000000000 DUP2 MSTORE PUSH1 0x4 ADD DUP1 DUP1 PUSH1 0x20 ADD DUP3 DUP2 SUB DUP3 MSTORE PUSH1 0x1B DUP2 MSTORE PUSH1 0x20 ADD DUP1 PUSH32 0x536166654D6174683A206164646974696F6E206F766572666C6F770000000000 DUP2 MSTORE POP PUSH1 0x20 ADD SWAP2 POP POP PUSH1 0x40 MLOAD DUP1 SWAP2 SUB SWAP1 REVERT JUMPDEST DUP1 SWAP2 POP POP SWAP3 SWAP2 POP POP JUMP JUMPDEST PUSH1 0x0 DUP1 DUP4 EQ ISZERO PUSH2 0x387F JUMPI PUSH1 0x0 SWAP1 POP PUSH2 0x38EC JUMP JUMPDEST PUSH1 0x0 DUP3 DUP5 MUL SWAP1 POP DUP3 DUP5 DUP3 DUP2 PUSH2 0x3890 JUMPI INVALID JUMPDEST DIV EQ PUSH2 0x38E7 JUMPI PUSH1 0x40 MLOAD PUSH32 0x8C379A000000000000000000000000000000000000000000000000000000000 DUP2 MSTORE PUSH1 0x4 ADD DUP1 DUP1 PUSH1 0x20 ADD DUP3 DUP2 SUB DUP3 MSTORE PUSH1 0x21 DUP2 MSTORE PUSH1 0x20 ADD DUP1 PUSH2 0x3B0D PUSH1 0x21 SWAP2 CODECOPY PUSH1 0x40 ADD SWAP2 POP POP PUSH1 0x40 MLOAD DUP1 SWAP2 SUB SWAP1 REVERT JUMPDEST DUP1 SWAP2 POP POP JUMPDEST SWAP3 SWAP2 POP POP JUMP JUMPDEST PUSH1 0x0 PUSH2 0x3934 DUP4 DUP4 PUSH1 0x40 MLOAD DUP1 PUSH1 0x40 ADD PUSH1 0x40 MSTORE DUP1 PUSH1 0x1A DUP2 MSTORE PUSH1 0x20 ADD PUSH32 0x536166654D6174683A206469766973696F6E206279207A65726F000000000000 DUP2 MSTORE POP PUSH2 0x3986 JUMP JUMPDEST SWAP1 POP SWAP3 SWAP2 POP POP JUMP JUMPDEST PUSH1 0x0 PUSH2 0x397E DUP4 DUP4 PUSH1 0x40 MLOAD DUP1 PUSH1 0x40 ADD PUSH1 0x40 MSTORE DUP1 PUSH1 0x1E DUP2 MSTORE PUSH1 0x20 ADD PUSH32 0x536166654D6174683A207375627472616374696F6E206F766572666C6F770000 DUP2 MSTORE POP PUSH2 0x3A4C JUMP JUMPDEST SWAP1 POP SWAP3 SWAP2 POP POP JUMP JUMPDEST PUSH1 0x0 DUP1 DUP4 GT DUP3 SWAP1 PUSH2 0x3A32 JUMPI PUSH1 0x40 MLOAD PUSH32 0x8C379A000000000000000000000000000000000000000000000000000000000 DUP2 MSTORE PUSH1 0x4 ADD DUP1 DUP1 PUSH1 0x20 ADD DUP3 DUP2 SUB DUP3 MSTORE DUP4 DUP2 DUP2 MLOAD DUP2 MSTORE PUSH1 0x20 ADD SWAP2 POP DUP1 MLOAD SWAP1 PUSH1 0x20 ADD SWAP1 DUP1 DUP4 DUP4 PUSH1 0x0 JUMPDEST DUP4 DUP2 LT ISZERO PUSH2 0x39F7 JUMPI DUP1 DUP3 ADD MLOAD DUP2 DUP5 ADD MSTORE PUSH1 0x20 DUP2 ADD SWAP1 POP PUSH2 0x39DC JUMP JUMPDEST POP POP POP POP SWAP1 POP SWAP1 DUP2 ADD SWAP1 PUSH1 0x1F AND DUP1 ISZERO PUSH2 0x3A24 JUMPI DUP1 DUP3 SUB DUP1 MLOAD PUSH1 0x1 DUP4 PUSH1 0x20 SUB PUSH2 0x100 EXP SUB NOT AND DUP2 MSTORE PUSH1 0x20 ADD SWAP2 POP JUMPDEST POP SWAP3 POP POP POP PUSH1 0x40 MLOAD DUP1 SWAP2 SUB SWAP1 REVERT JUMPDEST POP PUSH1 0x0 DUP4 DUP6 DUP2 PUSH2 0x3A3E JUMPI INVALID JUMPDEST DIV SWAP1 POP DUP1 SWAP2 POP POP SWAP4 SWAP3 POP POP POP JUMP JUMPDEST PUSH1 0x0 DUP4 DUP4 GT ISZERO DUP3 SWAP1 PUSH2 0x3AF9 JUMPI PUSH1 0x40 MLOAD PUSH32 0x8C379A000000000000000000000000000000000000000000000000000000000 DUP2 MSTORE PUSH1 0x4 ADD DUP1 DUP1 PUSH1 0x20 ADD DUP3 DUP2 SUB DUP3 MSTORE DUP4 DUP2 DUP2 MLOAD DUP2 MSTORE PUSH1 0x20 ADD SWAP2 POP DUP1 MLOAD SWAP1 PUSH1 0x20 ADD SWAP1 DUP1 DUP4 DUP4 PUSH1 0x0 JUMPDEST DUP4 DUP2 LT ISZERO PUSH2 0x3ABE JUMPI DUP1 DUP3 ADD MLOAD DUP2 DUP5 ADD MSTORE PUSH1 0x20 DUP2 ADD SWAP1 POP PUSH2 0x3AA3 JUMP JUMPDEST POP POP POP POP SWAP1 POP SWAP1 DUP2 ADD SWAP1 PUSH1 0x1F AND DUP1 ISZERO PUSH2 0x3AEB JUMPI DUP1 DUP3 SUB DUP1 MLOAD PUSH1 0x1 DUP4 PUSH1 0x20 SUB PUSH2 0x100 EXP SUB NOT AND DUP2 MSTORE PUSH1 0x20 ADD SWAP2 POP JUMPDEST POP SWAP3 POP POP POP PUSH1 0x40 MLOAD DUP1 SWAP2 SUB SWAP1 REVERT JUMPDEST POP PUSH1 0x0 DUP4 DUP6 SUB SWAP1 POP DUP1 SWAP2 POP POP SWAP4 SWAP3 POP POP POP JUMP INVALID MSTORE8 PUSH2 0x6665 0x4D PUSH2 0x7468 GASPRICE KECCAK256 PUSH14 0x756C7469706C69636174696F6E20 PUSH16 0x766572666C6F77496E766573746F7220 PUSH19 0x656163686564206D6178696D756D20496E7665 PUSH20 0x746D656E7420416D6F756E7449434F2048617264 PUSH4 0x6170206F PUSH19 0x2074696D656C696D6974206E6F742072656163 PUSH9 0x656449434F20616C72 PUSH6 0x616479205265 PUSH2 0x6368 PUSH6 0x64204D617869 PUSH14 0x756D2074696D65206C696D6974A2 PUSH5 0x6970667358 0x22 SLT KECCAK256 SHR CODECOPY KECCAK256 EXTCODESIZE CALLVALUE SELFBALANCE 0x2F PUSH10 0xB7CD15E14BB956E59BC1 SIGNEXTEND SGT PUSH22 0xA1E6E713F346E3DD0F0B8B64736F6C634300060C0033 "
				},
				"gasEstimates": {
					"creation": {
						"codeDepositCost": "3063800",
						"executionCost": "infinite",
						"totalCost": "infinite"
					},
					"external": {
						"": "287",
						"ICOState()": "1156",
						"ICOWallet()": "1092",
						"PERCENTS_DIVIDER()": "296",
						"PERCENT_STEP()": "317",
						"REFERRAL_PERCENTS(uint256)": "2136",
						"TIME_STEP()": "361",
						"admin()": "1157",
						"burn()": "infinite",
						"changeAdmin(address)": "22127",
						"changeICOWallet(address)": "22040",
						"commissionWallet()": "1114",
						"endIco()": "infinite",
						"getContractBalance()": "348",
						"getICOState()": "infinite",
						"getICOTokenBalance()": "infinite",
						"getPercent(uint8)": "infinite",
						"getPlanInfo(uint8)": "3810",
						"getResult(uint8,uint256)": "infinite",
						"getUserAmountOfDeposits(address)": "1365",
						"getUserAvailable(address)": "infinite",
						"getUserCheckpoint(address)": "1246",
						"getUserDepositInfo(address,uint256)": "10976",
						"getUserDividends(address)": "infinite",
						"getUserDownlineCount(address)": "3262",
						"getUserReferralBonus(address)": "1290",
						"getUserReferralTotalBonus(address)": "1292",
						"getUserReferralWithdrawn(address)": "infinite",
						"getUserReferrer(address)": "1290",
						"getUserTotalDeposits(address)": "infinite",
						"haltICO()": "22880",
						"hardCap()": "1137",
						"icoEndTime()": "1160",
						"icoStartTime()": "1138",
						"invest(address)": "infinite",
						"invest1()": "165",
						"investedAmountOf(address)": "1281",
						"investorBalanceOf(address)": "infinite",
						"maxInvestment()": "1052",
						"minInvestment()": "1139",
						"raisedAmount()": "1160",
						"resumeICO()": "22901",
						"startICO()": "63713",
						"startUNIX()": "1138",
						"token()": "1201",
						"tokenPrice()": "1095",
						"totalRefBonus()": "1094",
						"totalStaked()": "1117"
					},
					"internal": {
						"isContract(address)": "infinite"
					}
				},
				"methodIdentifiers": {
					"ICOState()": "aeecdc2c",
					"ICOWallet()": "ae764df3",
					"PERCENTS_DIVIDER()": "01c234a8",
					"PERCENT_STEP()": "57fc86b4",
					"REFERRAL_PERCENTS(uint256)": "600d20ce",
					"TIME_STEP()": "32bc298c",
					"admin()": "f851a440",
					"burn()": "44df8e70",
					"changeAdmin(address)": "8f283970",
					"changeICOWallet(address)": "00f53e69",
					"commissionWallet()": "97c0262a",
					"endIco()": "e657807b",
					"getContractBalance()": "6f9fb98a",
					"getICOState()": "2e659d93",
					"getICOTokenBalance()": "6127b2ca",
					"getPercent(uint8)": "a51b9533",
					"getPlanInfo(uint8)": "aecaa634",
					"getResult(uint8,uint256)": "5936cf61",
					"getUserAmountOfDeposits(address)": "a8aeb6c2",
					"getUserAvailable(address)": "153ab9df",
					"getUserCheckpoint(address)": "d7ffca91",
					"getUserDepositInfo(address,uint256)": "c0806b03",
					"getUserDividends(address)": "040a772e",
					"getUserDownlineCount(address)": "03a93c0c",
					"getUserReferralBonus(address)": "e85abe09",
					"getUserReferralTotalBonus(address)": "48c37203",
					"getUserReferralWithdrawn(address)": "6bb18556",
					"getUserReferrer(address)": "36144c9a",
					"getUserTotalDeposits(address)": "7e3abeea",
					"haltICO()": "129caa18",
					"hardCap()": "fb86a404",
					"icoEndTime()": "7e1055b6",
					"icoStartTime()": "a7c3d71b",
					"invest(address)": "03f9c793",
					"invest1()": "9641119e",
					"investedAmountOf(address)": "1aae3460",
					"investorBalanceOf(address)": "61fba37d",
					"maxInvestment()": "002e1316",
					"minInvestment()": "8ac2c680",
					"raisedAmount()": "c59ee1dc",
					"resumeICO()": "9cbd7da5",
					"startICO()": "7fa8c158",
					"startUNIX()": "c2341238",
					"token()": "fc0c546a",
					"tokenPrice()": "7ff9b596",
					"totalRefBonus()": "69b11dd5",
					"totalStaked()": "817b1cd2"
				}
			},
			"storageLayout": {
				"storage": [
					{
						"astId": 12,
						"contract": "ICO AFFILIATE/ico3lv.sol:ico3lv",
						"label": "REFERRAL_PERCENTS",
						"offset": 0,
						"slot": "0",
						"type": "t_array(t_uint256)dyn_storage"
					},
					{
						"astId": 23,
						"contract": "ICO AFFILIATE/ico3lv.sol:ico3lv",
						"label": "totalStaked",
						"offset": 0,
						"slot": "1",
						"type": "t_uint256"
					},
					{
						"astId": 25,
						"contract": "ICO AFFILIATE/ico3lv.sol:ico3lv",
						"label": "totalRefBonus",
						"offset": 0,
						"slot": "2",
						"type": "t_uint256"
					},
					{
						"astId": 27,
						"contract": "ICO AFFILIATE/ico3lv.sol:ico3lv",
						"label": "admin",
						"offset": 0,
						"slot": "3",
						"type": "t_address"
					},
					{
						"astId": 29,
						"contract": "ICO AFFILIATE/ico3lv.sol:ico3lv",
						"label": "ICOWallet",
						"offset": 0,
						"slot": "4",
						"type": "t_address_payable"
					},
					{
						"astId": 31,
						"contract": "ICO AFFILIATE/ico3lv.sol:ico3lv",
						"label": "token",
						"offset": 0,
						"slot": "5",
						"type": "t_contract(IERC20)2311"
					},
					{
						"astId": 34,
						"contract": "ICO AFFILIATE/ico3lv.sol:ico3lv",
						"label": "tokenPrice",
						"offset": 0,
						"slot": "6",
						"type": "t_uint256"
					},
					{
						"astId": 37,
						"contract": "ICO AFFILIATE/ico3lv.sol:ico3lv",
						"label": "hardCap",
						"offset": 0,
						"slot": "7",
						"type": "t_uint256"
					},
					{
						"astId": 39,
						"contract": "ICO AFFILIATE/ico3lv.sol:ico3lv",
						"label": "raisedAmount",
						"offset": 0,
						"slot": "8",
						"type": "t_uint256"
					},
					{
						"astId": 42,
						"contract": "ICO AFFILIATE/ico3lv.sol:ico3lv",
						"label": "minInvestment",
						"offset": 0,
						"slot": "9",
						"type": "t_uint256"
					},
					{
						"astId": 45,
						"contract": "ICO AFFILIATE/ico3lv.sol:ico3lv",
						"label": "maxInvestment",
						"offset": 0,
						"slot": "10",
						"type": "t_uint256"
					},
					{
						"astId": 47,
						"contract": "ICO AFFILIATE/ico3lv.sol:ico3lv",
						"label": "icoStartTime",
						"offset": 0,
						"slot": "11",
						"type": "t_uint256"
					},
					{
						"astId": 49,
						"contract": "ICO AFFILIATE/ico3lv.sol:ico3lv",
						"label": "icoEndTime",
						"offset": 0,
						"slot": "12",
						"type": "t_uint256"
					},
					{
						"astId": 53,
						"contract": "ICO AFFILIATE/ico3lv.sol:ico3lv",
						"label": "investedAmountOf",
						"offset": 0,
						"slot": "13",
						"type": "t_mapping(t_address,t_uint256)"
					},
					{
						"astId": 60,
						"contract": "ICO AFFILIATE/ico3lv.sol:ico3lv",
						"label": "ICOState",
						"offset": 0,
						"slot": "14",
						"type": "t_enum(State)58"
					},
					{
						"astId": 86,
						"contract": "ICO AFFILIATE/ico3lv.sol:ico3lv",
						"label": "plans",
						"offset": 0,
						"slot": "15",
						"type": "t_array(t_struct(Plan)83_storage)dyn_storage"
					},
					{
						"astId": 119,
						"contract": "ICO AFFILIATE/ico3lv.sol:ico3lv",
						"label": "users",
						"offset": 0,
						"slot": "16",
						"type": "t_mapping(t_address,t_struct(User)115_storage)"
					},
					{
						"astId": 121,
						"contract": "ICO AFFILIATE/ico3lv.sol:ico3lv",
						"label": "startUNIX",
						"offset": 0,
						"slot": "17",
						"type": "t_uint256"
					},
					{
						"astId": 123,
						"contract": "ICO AFFILIATE/ico3lv.sol:ico3lv",
						"label": "commissionWallet",
						"offset": 0,
						"slot": "18",
						"type": "t_address_payable"
					}
				],
				"types": {
					"t_address": {
						"encoding": "inplace",
						"label": "address",
						"numberOfBytes": "20"
					},
					"t_address_payable": {
						"encoding": "inplace",
						"label": "address payable",
						"numberOfBytes": "20"
					},
					"t_array(t_struct(Deposit)99_storage)dyn_storage": {
						"base": "t_struct(Deposit)99_storage",
						"encoding": "dynamic_array",
						"label": "struct ico3lv.Deposit[]",
						"numberOfBytes": "32"
					},
					"t_array(t_struct(Plan)83_storage)dyn_storage": {
						"base": "t_struct(Plan)83_storage",
						"encoding": "dynamic_array",
						"label": "struct ico3lv.Plan[]",
						"numberOfBytes": "32"
					},
					"t_array(t_uint256)3_storage": {
						"base": "t_uint256",
						"encoding": "inplace",
						"label": "uint256[3]",
						"numberOfBytes": "96"
					},
					"t_array(t_uint256)dyn_storage": {
						"base": "t_uint256",
						"encoding": "dynamic_array",
						"label": "uint256[]",
						"numberOfBytes": "32"
					},
					"t_contract(IERC20)2311": {
						"encoding": "inplace",
						"label": "contract IERC20",
						"numberOfBytes": "20"
					},
					"t_enum(State)58": {
						"encoding": "inplace",
						"label": "enum ico3lv.State",
						"numberOfBytes": "1"
					},
					"t_mapping(t_address,t_struct(User)115_storage)": {
						"encoding": "mapping",
						"key": "t_address",
						"label": "mapping(address => struct ico3lv.User)",
						"numberOfBytes": "32",
						"value": "t_struct(User)115_storage"
					},
					"t_mapping(t_address,t_uint256)": {
						"encoding": "mapping",
						"key": "t_address",
						"label": "mapping(address => uint256)",
						"numberOfBytes": "32",
						"value": "t_uint256"
					},
					"t_struct(Deposit)99_storage": {
						"encoding": "inplace",
						"label": "struct ico3lv.Deposit",
						"members": [
							{
								"astId": 88,
								"contract": "ICO AFFILIATE/ico3lv.sol:ico3lv",
								"label": "plan",
								"offset": 0,
								"slot": "0",
								"type": "t_uint8"
							},
							{
								"astId": 90,
								"contract": "ICO AFFILIATE/ico3lv.sol:ico3lv",
								"label": "percent",
								"offset": 0,
								"slot": "1",
								"type": "t_uint256"
							},
							{
								"astId": 92,
								"contract": "ICO AFFILIATE/ico3lv.sol:ico3lv",
								"label": "amount",
								"offset": 0,
								"slot": "2",
								"type": "t_uint256"
							},
							{
								"astId": 94,
								"contract": "ICO AFFILIATE/ico3lv.sol:ico3lv",
								"label": "profit",
								"offset": 0,
								"slot": "3",
								"type": "t_uint256"
							},
							{
								"astId": 96,
								"contract": "ICO AFFILIATE/ico3lv.sol:ico3lv",
								"label": "start",
								"offset": 0,
								"slot": "4",
								"type": "t_uint256"
							},
							{
								"astId": 98,
								"contract": "ICO AFFILIATE/ico3lv.sol:ico3lv",
								"label": "finish",
								"offset": 0,
								"slot": "5",
								"type": "t_uint256"
							}
						],
						"numberOfBytes": "192"
					},
					"t_struct(Plan)83_storage": {
						"encoding": "inplace",
						"label": "struct ico3lv.Plan",
						"members": [
							{
								"astId": 80,
								"contract": "ICO AFFILIATE/ico3lv.sol:ico3lv",
								"label": "time",
								"offset": 0,
								"slot": "0",
								"type": "t_uint256"
							},
							{
								"astId": 82,
								"contract": "ICO AFFILIATE/ico3lv.sol:ico3lv",
								"label": "percent",
								"offset": 0,
								"slot": "1",
								"type": "t_uint256"
							}
						],
						"numberOfBytes": "64"
					},
					"t_struct(User)115_storage": {
						"encoding": "inplace",
						"label": "struct ico3lv.User",
						"members": [
							{
								"astId": 102,
								"contract": "ICO AFFILIATE/ico3lv.sol:ico3lv",
								"label": "deposits",
								"offset": 0,
								"slot": "0",
								"type": "t_array(t_struct(Deposit)99_storage)dyn_storage"
							},
							{
								"astId": 104,
								"contract": "ICO AFFILIATE/ico3lv.sol:ico3lv",
								"label": "checkpoint",
								"offset": 0,
								"slot": "1",
								"type": "t_uint256"
							},
							{
								"astId": 106,
								"contract": "ICO AFFILIATE/ico3lv.sol:ico3lv",
								"label": "referrer",
								"offset": 0,
								"slot": "2",
								"type": "t_address"
							},
							{
								"astId": 110,
								"contract": "ICO AFFILIATE/ico3lv.sol:ico3lv",
								"label": "levels",
								"offset": 0,
								"slot": "3",
								"type": "t_array(t_uint256)3_storage"
							},
							{
								"astId": 112,
								"contract": "ICO AFFILIATE/ico3lv.sol:ico3lv",
								"label": "bonus",
								"offset": 0,
								"slot": "6",
								"type": "t_uint256"
							},
							{
								"astId": 114,
								"contract": "ICO AFFILIATE/ico3lv.sol:ico3lv",
								"label": "totalBonus",
								"offset": 0,
								"slot": "7",
								"type": "t_uint256"
							}
						],
						"numberOfBytes": "256"
					},
					"t_uint256": {
						"encoding": "inplace",
						"label": "uint256",
						"numberOfBytes": "32"
					},
					"t_uint8": {
						"encoding": "inplace",
						"label": "uint8",
						"numberOfBytes": "1"
					}
				}
			},
			"userdoc": {
				"kind": "user",
				"methods": {},
				"version": 1
			}
		}
	}
}